{
  "contractName": "BatchCreatePairs",
  "abi": [
    {
      "inputs": [
        {
          "internalType": "address",
          "name": "_boboRouter",
          "type": "address"
        },
        {
          "internalType": "address",
          "name": "_factory",
          "type": "address"
        },
        {
          "internalType": "address",
          "name": "_farmer",
          "type": "address"
        },
        {
          "internalType": "address",
          "name": "_exManager",
          "type": "address"
        },
        {
          "internalType": "address",
          "name": "_orderNFT",
          "type": "address"
        },
        {
          "internalType": "address",
          "name": "_orderDetailNFT",
          "type": "address"
        }
      ],
      "stateMutability": "nonpayable",
      "type": "constructor"
    },
    {
      "inputs": [],
      "name": "USDC",
      "outputs": [
        {
          "internalType": "address",
          "name": "",
          "type": "address"
        }
      ],
      "stateMutability": "view",
      "type": "function"
    },
    {
      "inputs": [
        {
          "internalType": "uint256",
          "name": "",
          "type": "uint256"
        }
      ],
      "name": "USDC_PEERS",
      "outputs": [
        {
          "internalType": "address",
          "name": "",
          "type": "address"
        }
      ],
      "stateMutability": "view",
      "type": "function"
    },
    {
      "inputs": [],
      "name": "USDT",
      "outputs": [
        {
          "internalType": "address",
          "name": "",
          "type": "address"
        }
      ],
      "stateMutability": "view",
      "type": "function"
    },
    {
      "inputs": [
        {
          "internalType": "uint256",
          "name": "",
          "type": "uint256"
        }
      ],
      "name": "USDT_PEERS",
      "outputs": [
        {
          "internalType": "address",
          "name": "",
          "type": "address"
        }
      ],
      "stateMutability": "view",
      "type": "function"
    },
    {
      "inputs": [],
      "name": "WMATIC",
      "outputs": [
        {
          "internalType": "address",
          "name": "",
          "type": "address"
        }
      ],
      "stateMutability": "view",
      "type": "function"
    },
    {
      "inputs": [],
      "name": "boboFactory",
      "outputs": [
        {
          "internalType": "contract BoboFactoryOnMatic",
          "name": "",
          "type": "address"
        }
      ],
      "stateMutability": "view",
      "type": "function"
    },
    {
      "inputs": [],
      "name": "boboFarmer",
      "outputs": [
        {
          "internalType": "contract BoboFarmer",
          "name": "",
          "type": "address"
        }
      ],
      "stateMutability": "view",
      "type": "function"
    },
    {
      "inputs": [],
      "name": "boboRouter",
      "outputs": [
        {
          "internalType": "address",
          "name": "",
          "type": "address"
        }
      ],
      "stateMutability": "view",
      "type": "function"
    },
    {
      "inputs": [],
      "name": "exManager",
      "outputs": [
        {
          "internalType": "contract EXManager",
          "name": "",
          "type": "address"
        }
      ],
      "stateMutability": "view",
      "type": "function"
    },
    {
      "inputs": [],
      "name": "orderDetailNFT",
      "outputs": [
        {
          "internalType": "contract OrderDetailNFT",
          "name": "",
          "type": "address"
        }
      ],
      "stateMutability": "view",
      "type": "function"
    },
    {
      "inputs": [],
      "name": "orderNFT",
      "outputs": [
        {
          "internalType": "contract OrderNFT",
          "name": "",
          "type": "address"
        }
      ],
      "stateMutability": "view",
      "type": "function"
    },
    {
      "inputs": [],
      "name": "strat",
      "outputs": [
        {
          "internalType": "contract StratMaticSushi",
          "name": "",
          "type": "address"
        }
      ],
      "stateMutability": "view",
      "type": "function"
    },
    {
      "inputs": [
        {
          "internalType": "address",
          "name": "_boboRouter",
          "type": "address"
        },
        {
          "internalType": "address",
          "name": "_factory",
          "type": "address"
        },
        {
          "internalType": "address",
          "name": "_farmer",
          "type": "address"
        },
        {
          "internalType": "address",
          "name": "_exManager",
          "type": "address"
        },
        {
          "internalType": "address",
          "name": "_orderNFT",
          "type": "address"
        },
        {
          "internalType": "address",
          "name": "_orderDetailNFT",
          "type": "address"
        }
      ],
      "name": "setAddrs",
      "outputs": [],
      "stateMutability": "nonpayable",
      "type": "function"
    },
    {
      "inputs": [
        {
          "internalType": "address",
          "name": "_factory",
          "type": "address"
        }
      ],
      "name": "setFactory",
      "outputs": [],
      "stateMutability": "nonpayable",
      "type": "function"
    },
    {
      "inputs": [
        {
          "internalType": "address",
          "name": "_quoteToken",
          "type": "address"
        },
        {
          "internalType": "address",
          "name": "_baseToken",
          "type": "address"
        }
      ],
      "name": "creatOnePair",
      "outputs": [],
      "stateMutability": "nonpayable",
      "type": "function"
    },
    {
      "inputs": [
        {
          "internalType": "uint256",
          "name": "_fromIndex",
          "type": "uint256"
        },
        {
          "internalType": "uint256",
          "name": "_toIndex",
          "type": "uint256"
        }
      ],
      "name": "creatUSDTPeers",
      "outputs": [],
      "stateMutability": "nonpayable",
      "type": "function"
    },
    {
      "inputs": [
        {
          "internalType": "uint256",
          "name": "_fromIndex",
          "type": "uint256"
        },
        {
          "internalType": "uint256",
          "name": "_toIndex",
          "type": "uint256"
        }
      ],
      "name": "creatUSDCPeers",
      "outputs": [],
      "stateMutability": "nonpayable",
      "type": "function"
    },
    {
      "inputs": [
        {
          "internalType": "address",
          "name": "_newOwner",
          "type": "address"
        }
      ],
      "name": "transferAllOwner",
      "outputs": [],
      "stateMutability": "nonpayable",
      "type": "function"
    }
  ],
  "bytecode": "0x6101a0604052730d500b1d8e8ef31e21c99d1db9a6444d3adf12706080908152737ceb23fd6bc0add59e62ac25578270cff1b9f61960a052731bfd67037b42cf73acf2047067bd4f2c47d9bfd660c052732791bca1f2de4661ed88a30c99a7a9449aa8417460e052738f3cf7ad23cd3cadbd9735aff958023239c6a063610100527353e0bca35ec356bd5dddfebbd1fc0fd03fabad3961012052739c2c5fd7b07e95ee044ddeba0e97a665f142394f6101405273b33eaad8d922b1083446dc23f610c2567fb5180f6101605273d6df932a45c0f255f85145f286ea0b292b21c90b610180526100f290600090600961035a565b506040805161010081018252730d500b1d8e8ef31e21c99d1db9a6444d3adf12708152737ceb23fd6bc0add59e62ac25578270cff1b9f6196020820152731bfd67037b42cf73acf2047067bd4f2c47d9bfd691810191909152738f3cf7ad23cd3cadbd9735aff958023239c6a06360608201527353e0bca35ec356bd5dddfebbd1fc0fd03fabad396080820152739c2c5fd7b07e95ee044ddeba0e97a665f142394f60a082015273b33eaad8d922b1083446dc23f610c2567fb5180f60c082015273d6df932a45c0f255f85145f286ea0b292b21c90b60e08201526101db90600190600861035a565b50600280546001600160a01b0319908116730326d887a6dde69e874ea70fd842658125eafc411790915560038054821673d79df7ec6ff4f5ddc53a3d60ecaf25316a532bad179055600680548216737a29befcb6d0c6febdd33003fa08b139c63c23671790556007805482167304673384398379a84d05895456ae02fc05b4a509179055600880549091167375508a1de2183a1f2bf1822d6794698c953a178817905534801561028a57600080fd5b50604051610f80380380610f80833981810160405260c08110156102ad57600080fd5b508051602082015160408301516060840151608085015160a09095015193949293919290916102e08686868686866102eb565b5050505050506103de565b600580546001600160a01b03199081166001600160a01b0398891617909155600280548216968816969096179095556003805486169487169490941790935560068054851692861692909217909155600780548416918516919091179055600880549092169216919091179055565b8280548282559060005260206000209081019282156103af579160200282015b828111156103af57825182546001600160a01b0319166001600160a01b0390911617825560209092019160019091019061037a565b506103bb9291506103bf565b5090565b5b808211156103bb5780546001600160a01b03191681556001016103c0565b610b93806103ed6000396000f3fe608060405234801561001057600080fd5b50600436106101165760003560e01c80638e80f160116100a2578063acd17aaa11610071578063acd17aaa146102a9578063c54e44eb146102b1578063d4d728da146102b9578063d57116a2146102c1578063fb1157ce146102c957610116565b80638e80f16014610213578063941f7cc71461023657806397d87393146102845780639ccae9171461028c57610116565b80634d95cad9116100e95780634d95cad91461019d5780635bb47808146101a557806375970e5b146101cb57806389a30271146101e85780638ce6b675146101f057610116565b8063059b2a101461011b578063155f48e81461013f5780631960e232146101675780632039a7f51461016f575b600080fd5b6101236102d1565b604080516001600160a01b039092168252519081900360200190f35b6101656004803603602081101561015557600080fd5b50356001600160a01b03166102e0565b005b6101236104e1565b6101656004803603604081101561018557600080fd5b506001600160a01b03813581169160200135166104f0565b610123610821565b610165600480360360208110156101bb57600080fd5b50356001600160a01b0316610839565b610123600480360360208110156101e157600080fd5b503561085b565b610123610882565b6101656004803603604081101561020657600080fd5b508035906020013561089a565b6101656004803603604081101561022957600080fd5b508035906020013561098f565b610165600480360360c081101561024c57600080fd5b506001600160a01b038135811691602081013582169160408201358116916060810135821691608082013581169160a0013516610a7e565b610123610aed565b610123600480360360208110156102a257600080fd5b5035610afc565b610123610b09565b610123610b18565b610123610b30565b610123610b3f565b610123610b4e565b6004546001600160a01b031681565b6002546040805163f2fde38b60e01b81526001600160a01b0384811660048301529151919092169163f2fde38b91602480830192600092919082900301818387803b15801561032e57600080fd5b505af1158015610342573d6000803e3d6000fd5b50506003546040805163f2fde38b60e01b81526001600160a01b038681166004830152915191909216935063f2fde38b9250602480830192600092919082900301818387803b15801561039457600080fd5b505af11580156103a8573d6000803e3d6000fd5b50506006546040805163f2fde38b60e01b81526001600160a01b038681166004830152915191909216935063f2fde38b9250602480830192600092919082900301818387803b1580156103fa57600080fd5b505af115801561040e573d6000803e3d6000fd5b50506007546040805163f2fde38b60e01b81526001600160a01b038681166004830152915191909216935063f2fde38b9250602480830192600092919082900301818387803b15801561046057600080fd5b505af1158015610474573d6000803e3d6000fd5b50506008546040805163f2fde38b60e01b81526001600160a01b038681166004830152915191909216935063f2fde38b9250602480830192600092919082900301818387803b1580156104c657600080fd5b505af11580156104da573d6000803e3d6000fd5b5050505050565b6003546001600160a01b031681565b600254604080516364e329cb60e11b81526001600160a01b03858116600483015284811660248301529151600093929092169163c9c653969160448082019260209290919082900301818787803b15801561054a57600080fd5b505af115801561055e573d6000803e3d6000fd5b505050506040513d602081101561057457600080fd5b505160065460408051631d33a31960e31b81526001600160a01b03928316600482015290519293509083169163e99d18c89160248082019260009290919082900301818387803b1580156105c757600080fd5b505af11580156105db573d6000803e3d6000fd5b50506005546040805163c0d7865560e01b81526001600160a01b0392831660048201529051918516935063c0d78655925060248082019260009290919082900301818387803b15801561062d57600080fd5b505af1158015610641573d6000803e3d6000fd5b505060075460408051634c1d96ab60e11b81526001600160a01b038681166004830152915191909216935063983b2d56925060248083019260209291908290030181600087803b15801561069457600080fd5b505af11580156106a8573d6000803e3d6000fd5b505050506040513d60208110156106be57600080fd5b505060085460408051634c1d96ab60e11b81526001600160a01b0384811660048301529151919092169163983b2d569160248083019260209291908290030181600087803b15801561070f57600080fd5b505af1158015610723573d6000803e3d6000fd5b505050506040513d602081101561073957600080fd5b50506003546040805163678e18b560e11b81526001600160a01b0384811660048301529151919092169163cf1c316a9160248083019260209291908290030181600087803b15801561078a57600080fd5b505af115801561079e573d6000803e3d6000fd5b505050506040513d60208110156107b457600080fd5b505060065460408051632a11112760e11b81526001600160a01b03848116600483015291519190921691635422224e91602480830192600092919082900301818387803b15801561080457600080fd5b505af1158015610818573d6000803e3d6000fd5b50505050505050565b730d500b1d8e8ef31e21c99d1db9a6444d3adf127081565b600280546001600160a01b0319166001600160a01b0392909216919091179055565b6001818154811061086857fe5b6000918252602090912001546001600160a01b0316905081565b732791bca1f2de4661ed88a30c99a7a9449aa8417481565b815b8181101561098a576000600182815481106108b357fe5b60009182526020808320909101546002546040805163e6a4390560e01b81526001600160a01b0393841660048201819052732791bca1f2de4661ed88a30c99a7a9449aa8417460248301529151919650919092169263e6a4390592604480840193829003018186803b15801561092857600080fd5b505afa15801561093c573d6000803e3d6000fd5b505050506040513d602081101561095257600080fd5b50516001600160a01b031614156109815761098181732791bca1f2de4661ed88a30c99a7a9449aa841746104f0565b5060010161089c565b505050565b815b8181101561098a5760008082815481106109a757fe5b60009182526020808320909101546002546040805163e6a4390560e01b81526001600160a01b039384166004820181905273c2132d05d31c914a87c6611c10748aeb04b58e8f60248301529151919650919092169263e6a4390592604480840193829003018186803b158015610a1c57600080fd5b505afa158015610a30573d6000803e3d6000fd5b505050506040513d6020811015610a4657600080fd5b50516001600160a01b03161415610a7557610a758173c2132d05d31c914a87c6611c10748aeb04b58e8f6104f0565b50600101610991565b600580546001600160a01b03199081166001600160a01b0398891617909155600280548216968816969096179095556003805486169487169490941790935560068054851692861692909217909155600780548416918516919091179055600880549092169216919091179055565b6006546001600160a01b031681565b6000818154811061086857fe5b6005546001600160a01b031681565b73c2132d05d31c914a87c6611c10748aeb04b58e8f81565b6007546001600160a01b031681565b6002546001600160a01b031681565b6008546001600160a01b03168156fea264697066735822122028a83657792ff37c11aec7e629bf4cc84998aea3c1debac74804967568e1ec3064736f6c634300060c0033",
  "immutableReferences": {},
  "source": "// SPDX-License-Identifier: MIT\npragma solidity ^0.6.0;\n\nimport \"./BoboFactory.sol\";\nimport \"./BoboFarmer.sol\";\nimport \"./BoboRouter.sol\";\nimport \"./BoboPair.sol\";\nimport \"./StratMaticSushi.sol\";\nimport \"./manager/EXManager.sol\";\nimport \"./common/orderNFT.sol\";\nimport \"./common/orderDetailNFT.sol\";\n\n// 0x1393A1581652E2Bf204A5cA55D64dF9Ea89416f4\ncontract BatchCreatePairs {\n    using SafeMath for uint256;\n    using SafeERC20 for IERC20;\n    using EnumerableSet for EnumerableSet.UintSet;\n    using EnumerableSet for EnumerableSet.AddressSet;\n    \n    \n    address public constant USDT = 0xc2132D05D31c914a87C6611C10748AEb04B58e8F;\n    address public constant USDC = 0x2791Bca1f2de4661ED88A30C99A7a9449Aa84174;\n    address public constant WMATIC = 0x0d500B1d8E8eF31E21C99d1Db9A6444d3ADf1270;\n    \n    \n    address[] public USDT_PEERS = [\n                  0x0d500B1d8E8eF31E21C99d1Db9A6444d3ADf1270,\n                  0x7ceB23fD6bC0adD59E62ac25578270cFf1b9f619,\n                  0x1BFD67037B42Cf73acF2047067bd4F2C47D9BfD6, \n                  0x2791Bca1f2de4661ED88A30C99A7a9449Aa84174, \n                  0x8f3Cf7ad23Cd3CaDbD9735AFf958023239c6A063, \n                  0x53E0bca35eC356BD5ddDFebbD1Fc0fD03FaBad39, \n                  0x9c2C5fd7b07E95EE044DDeba0E97a665F142394f, \n                  0xb33EaAd8d922B1083446DC23f610c2567fB5180f,\n                  0xD6DF932A45C0f255f85145f286eA0b292B21C90B\n                ];\n    \n    address[] public USDC_PEERS = [\n                  0x0d500B1d8E8eF31E21C99d1Db9A6444d3ADf1270,\n                  0x7ceB23fD6bC0adD59E62ac25578270cFf1b9f619,\n                  0x1BFD67037B42Cf73acF2047067bd4F2C47D9BfD6, \n                  0x8f3Cf7ad23Cd3CaDbD9735AFf958023239c6A063, \n                  0x53E0bca35eC356BD5ddDFebbD1Fc0fD03FaBad39, \n                  0x9c2C5fd7b07E95EE044DDeba0E97a665F142394f, \n                  0xb33EaAd8d922B1083446DC23f610c2567fB5180f,\n                  0xD6DF932A45C0f255f85145f286eA0b292B21C90B \n                ];\n                \n    BoboFactoryOnMatic public boboFactory = BoboFactoryOnMatic(0x0326D887A6dde69E874EA70Fd842658125Eafc41);\n    BoboFarmer public boboFarmer = BoboFarmer(0xd79Df7Ec6Ff4f5dDc53A3D60ecaf25316a532baD);\n    StratMaticSushi public strat;\n    address public boboRouter;\n    \n    \n    EXManager public exManager = EXManager(0x7a29BefCb6d0c6FEBdD33003Fa08b139C63C2367);\n    OrderNFT public orderNFT = OrderNFT(0x04673384398379a84d05895456AE02fc05B4a509);\n    OrderDetailNFT public orderDetailNFT = OrderDetailNFT(0x75508A1de2183a1F2Bf1822d6794698c953A1788);\n    \n    constructor (address _boboRouter, address _factory, address _farmer, address _exManager, address _orderNFT, address _orderDetailNFT) public {  \n        setAddrs(_boboRouter, _factory, _farmer, _exManager, _orderNFT, _orderDetailNFT);\n    }\n    \n    function setAddrs(address _boboRouter, address _factory, address _farmer, address _exManager, address _orderNFT, address _orderDetailNFT) public {\n        boboRouter = _boboRouter;\n        boboFactory = BoboFactoryOnMatic(_factory);\n        boboFarmer = BoboFarmer(_farmer);\n        exManager = EXManager(_exManager);\n        orderNFT = OrderNFT(_orderNFT);\n        orderDetailNFT = OrderDetailNFT(_orderDetailNFT);\n    }\n\n    function setFactory(address _factory) public {\n        boboFactory = BoboFactoryOnMatic(_factory);\n    }\n    \n    function creatOnePair(address _quoteToken, address _baseToken) public {        \n        address pairAddr = boboFactory.createPair(_quoteToken, _baseToken);\n        BoboPair(pairAddr).setExManager(address(exManager));\n        BoboPair(pairAddr).setRouter(boboRouter);\n        orderNFT.addMinter(pairAddr);\n        orderDetailNFT.addMinter(pairAddr);\n        boboFarmer.addAuthorized(pairAddr);\n        EXManager(exManager).addAuth(pairAddr);\n    }\n    \n    function creatUSDTPeers(uint256 _fromIndex, uint256 _toIndex) public {\n        for (uint256 i = _fromIndex; i < _toIndex; i++) {\n            address usdtPeer = USDT_PEERS[i];\n            if (boboFactory.getPair(usdtPeer, USDT) == address(0)) {\n                creatOnePair(usdtPeer, USDT);\n            }\n        }\n    }\n    \n        \n    function creatUSDCPeers(uint256 _fromIndex, uint256 _toIndex) public {\n        for (uint256 i = _fromIndex; i < _toIndex; i++) {\n            address usdcPeer = USDC_PEERS[i];\n            if (boboFactory.getPair(usdcPeer, USDC) == address(0)) {\n                creatOnePair(usdcPeer, USDC);\n            }\n        }\n    }\n    \n    function transferAllOwner(address _newOwner) public {\n        boboFactory.transferOwnership(_newOwner);\n        boboFarmer.transferOwnership(_newOwner);\n        exManager.transferOwnership(_newOwner);\n        orderNFT.transferOwnership(_newOwner);\n        orderDetailNFT.transferOwnership(_newOwner);\n    }\n}",
  "sourcePath": "/Users/mryu/blockchain/bobo-metaverse/boboswap-contract/contracts/BatchCreatePairs.sol",
  "compiler": {
    "name": "solc",
    "version": "0.6.12+commit.27d51765.Emscripten.clang"
  },
  "schemaVersion": "3.4.3",
  "updatedAt": "2021-08-23T05:28:13.131Z",
  "devdoc": {
    "kind": "dev",
    "methods": {},
    "version": 1
  },
  "userdoc": {
    "kind": "user",
    "methods": {},
    "version": 1
  }
}