{
  "contractName": "BoboPair",
  "abi": [
    {
      "inputs": [],
      "stateMutability": "nonpayable",
      "type": "constructor"
    },
    {
      "anonymous": false,
      "inputs": [
        {
          "indexed": true,
          "internalType": "address",
          "name": "previousOwner",
          "type": "address"
        },
        {
          "indexed": true,
          "internalType": "address",
          "name": "newOwner",
          "type": "address"
        }
      ],
      "name": "OwnershipTransferred",
      "type": "event"
    },
    {
      "anonymous": false,
      "inputs": [
        {
          "indexed": true,
          "internalType": "address",
          "name": "owner",
          "type": "address"
        },
        {
          "indexed": true,
          "internalType": "address",
          "name": "spender",
          "type": "address"
        },
        {
          "indexed": false,
          "internalType": "uint256",
          "name": "value",
          "type": "uint256"
        }
      ],
      "name": "SwapSuccess",
      "type": "event"
    },
    {
      "inputs": [],
      "name": "BasePercent",
      "outputs": [
        {
          "internalType": "uint256",
          "name": "",
          "type": "uint256"
        }
      ],
      "stateMutability": "view",
      "type": "function"
    },
    {
      "inputs": [],
      "name": "BasePriceAmount",
      "outputs": [
        {
          "internalType": "uint256",
          "name": "",
          "type": "uint256"
        }
      ],
      "stateMutability": "view",
      "type": "function"
    },
    {
      "inputs": [],
      "name": "OneDaySeconds",
      "outputs": [
        {
          "internalType": "uint256",
          "name": "",
          "type": "uint256"
        }
      ],
      "stateMutability": "view",
      "type": "function"
    },
    {
      "inputs": [
        {
          "internalType": "address",
          "name": "",
          "type": "address"
        }
      ],
      "name": "_auth",
      "outputs": [
        {
          "internalType": "bool",
          "name": "",
          "type": "bool"
        }
      ],
      "stateMutability": "view",
      "type": "function"
    },
    {
      "inputs": [],
      "name": "baseToken",
      "outputs": [
        {
          "internalType": "address",
          "name": "",
          "type": "address"
        }
      ],
      "stateMutability": "view",
      "type": "function"
    },
    {
      "inputs": [],
      "name": "baseTokenDecimals",
      "outputs": [
        {
          "internalType": "uint256",
          "name": "",
          "type": "uint256"
        }
      ],
      "stateMutability": "view",
      "type": "function"
    },
    {
      "inputs": [],
      "name": "boboFarmer",
      "outputs": [
        {
          "internalType": "contract IBoboFarmer",
          "name": "",
          "type": "address"
        }
      ],
      "stateMutability": "view",
      "type": "function"
    },
    {
      "inputs": [],
      "name": "boboRouter",
      "outputs": [
        {
          "internalType": "contract IBoboRouter",
          "name": "",
          "type": "address"
        }
      ],
      "stateMutability": "view",
      "type": "function"
    },
    {
      "inputs": [],
      "name": "exManager",
      "outputs": [
        {
          "internalType": "contract IExchangeManager",
          "name": "",
          "type": "address"
        }
      ],
      "stateMutability": "view",
      "type": "function"
    },
    {
      "inputs": [],
      "name": "factory",
      "outputs": [
        {
          "internalType": "address",
          "name": "",
          "type": "address"
        }
      ],
      "stateMutability": "view",
      "type": "function"
    },
    {
      "inputs": [
        {
          "internalType": "uint256",
          "name": "_orderId",
          "type": "uint256"
        }
      ],
      "name": "getOrderDetailNumber",
      "outputs": [
        {
          "internalType": "uint256",
          "name": "",
          "type": "uint256"
        }
      ],
      "stateMutability": "view",
      "type": "function"
    },
    {
      "inputs": [
        {
          "internalType": "bool",
          "name": "_bBuy",
          "type": "bool"
        },
        {
          "internalType": "uint256",
          "name": "_fromIndex",
          "type": "uint256"
        },
        {
          "internalType": "uint256",
          "name": "_toIndex",
          "type": "uint256"
        }
      ],
      "name": "getOrderInfos",
      "outputs": [
        {
          "components": [
            {
              "internalType": "uint256",
              "name": "id",
              "type": "uint256"
            },
            {
              "internalType": "address",
              "name": "owner",
              "type": "address"
            },
            {
              "internalType": "address",
              "name": "pairAddr",
              "type": "address"
            },
            {
              "internalType": "bool",
              "name": "bBuyQuoteToken",
              "type": "bool"
            },
            {
              "internalType": "uint256",
              "name": "spotPrice",
              "type": "uint256"
            },
            {
              "internalType": "uint256",
              "name": "inAmount",
              "type": "uint256"
            },
            {
              "internalType": "uint256",
              "name": "minOutAmount",
              "type": "uint256"
            },
            {
              "internalType": "uint256",
              "name": "outAmount",
              "type": "uint256"
            },
            {
              "internalType": "enum OrderStatus",
              "name": "status",
              "type": "uint8"
            },
            {
              "internalType": "string",
              "name": "comment",
              "type": "string"
            },
            {
              "internalType": "uint256",
              "name": "delegateTime",
              "type": "uint256"
            },
            {
              "internalType": "uint256",
              "name": "dealedTime",
              "type": "uint256"
            }
          ],
          "internalType": "struct NFTInfo[]",
          "name": "orderInfos",
          "type": "tuple[]"
        }
      ],
      "stateMutability": "view",
      "type": "function"
    },
    {
      "inputs": [
        {
          "internalType": "bool",
          "name": "_bBuy",
          "type": "bool"
        }
      ],
      "name": "getTotalOrderNumber",
      "outputs": [
        {
          "internalType": "uint256",
          "name": "",
          "type": "uint256"
        }
      ],
      "stateMutability": "view",
      "type": "function"
    },
    {
      "inputs": [
        {
          "internalType": "address",
          "name": "_userAddr",
          "type": "address"
        },
        {
          "internalType": "uint256",
          "name": "_index",
          "type": "uint256"
        }
      ],
      "name": "getUserHangingOrderId",
      "outputs": [
        {
          "internalType": "uint256",
          "name": "",
          "type": "uint256"
        }
      ],
      "stateMutability": "view",
      "type": "function"
    },
    {
      "inputs": [
        {
          "internalType": "address",
          "name": "_userAddr",
          "type": "address"
        },
        {
          "internalType": "uint256",
          "name": "_fromIndex",
          "type": "uint256"
        },
        {
          "internalType": "uint256",
          "name": "_toIndex",
          "type": "uint256"
        }
      ],
      "name": "getUserHangingOrderInfos",
      "outputs": [
        {
          "components": [
            {
              "internalType": "uint256",
              "name": "id",
              "type": "uint256"
            },
            {
              "internalType": "address",
              "name": "owner",
              "type": "address"
            },
            {
              "internalType": "address",
              "name": "pairAddr",
              "type": "address"
            },
            {
              "internalType": "bool",
              "name": "bBuyQuoteToken",
              "type": "bool"
            },
            {
              "internalType": "uint256",
              "name": "spotPrice",
              "type": "uint256"
            },
            {
              "internalType": "uint256",
              "name": "inAmount",
              "type": "uint256"
            },
            {
              "internalType": "uint256",
              "name": "minOutAmount",
              "type": "uint256"
            },
            {
              "internalType": "uint256",
              "name": "outAmount",
              "type": "uint256"
            },
            {
              "internalType": "enum OrderStatus",
              "name": "status",
              "type": "uint8"
            },
            {
              "internalType": "string",
              "name": "comment",
              "type": "string"
            },
            {
              "internalType": "uint256",
              "name": "delegateTime",
              "type": "uint256"
            },
            {
              "internalType": "uint256",
              "name": "dealedTime",
              "type": "uint256"
            }
          ],
          "internalType": "struct NFTInfo[]",
          "name": "orderInfos",
          "type": "tuple[]"
        }
      ],
      "stateMutability": "view",
      "type": "function"
    },
    {
      "inputs": [
        {
          "internalType": "address",
          "name": "_userAddr",
          "type": "address"
        }
      ],
      "name": "getUserHangingOrderNumber",
      "outputs": [
        {
          "internalType": "uint256",
          "name": "",
          "type": "uint256"
        }
      ],
      "stateMutability": "view",
      "type": "function"
    },
    {
      "inputs": [
        {
          "internalType": "address",
          "name": "_userAddr",
          "type": "address"
        }
      ],
      "name": "getUserOrderNumber",
      "outputs": [
        {
          "internalType": "uint256",
          "name": "",
          "type": "uint256"
        }
      ],
      "stateMutability": "view",
      "type": "function"
    },
    {
      "inputs": [
        {
          "internalType": "uint256",
          "name": "_nftId",
          "type": "uint256"
        }
      ],
      "name": "getValue",
      "outputs": [
        {
          "internalType": "uint256",
          "name": "",
          "type": "uint256"
        }
      ],
      "stateMutability": "view",
      "type": "function"
    },
    {
      "inputs": [],
      "name": "lastRecordTime",
      "outputs": [
        {
          "internalType": "uint256",
          "name": "",
          "type": "uint256"
        }
      ],
      "stateMutability": "view",
      "type": "function"
    },
    {
      "inputs": [
        {
          "internalType": "address",
          "name": "",
          "type": "address"
        },
        {
          "internalType": "address",
          "name": "",
          "type": "address"
        },
        {
          "internalType": "uint256",
          "name": "",
          "type": "uint256"
        },
        {
          "internalType": "bytes",
          "name": "",
          "type": "bytes"
        }
      ],
      "name": "onERC721Received",
      "outputs": [
        {
          "internalType": "bytes4",
          "name": "",
          "type": "bytes4"
        }
      ],
      "stateMutability": "nonpayable",
      "type": "function"
    },
    {
      "inputs": [],
      "name": "orderDetailNFT",
      "outputs": [
        {
          "internalType": "contract IOrderDetailNFT",
          "name": "",
          "type": "address"
        }
      ],
      "stateMutability": "view",
      "type": "function"
    },
    {
      "inputs": [],
      "name": "orderNFT",
      "outputs": [
        {
          "internalType": "contract IOrderNFT",
          "name": "",
          "type": "address"
        }
      ],
      "stateMutability": "view",
      "type": "function"
    },
    {
      "inputs": [],
      "name": "owner",
      "outputs": [
        {
          "internalType": "address",
          "name": "",
          "type": "address"
        }
      ],
      "stateMutability": "view",
      "type": "function"
    },
    {
      "inputs": [],
      "name": "quoteToken",
      "outputs": [
        {
          "internalType": "address",
          "name": "",
          "type": "address"
        }
      ],
      "stateMutability": "view",
      "type": "function"
    },
    {
      "inputs": [],
      "name": "quoteTokenDecimals",
      "outputs": [
        {
          "internalType": "uint256",
          "name": "",
          "type": "uint256"
        }
      ],
      "stateMutability": "view",
      "type": "function"
    },
    {
      "inputs": [],
      "name": "renounceOwnership",
      "outputs": [],
      "stateMutability": "nonpayable",
      "type": "function"
    },
    {
      "inputs": [
        {
          "internalType": "enum OrderStatus",
          "name": "",
          "type": "uint8"
        },
        {
          "internalType": "uint256",
          "name": "",
          "type": "uint256"
        }
      ],
      "name": "sealedOrdersMap",
      "outputs": [
        {
          "internalType": "uint256",
          "name": "",
          "type": "uint256"
        }
      ],
      "stateMutability": "view",
      "type": "function"
    },
    {
      "inputs": [],
      "name": "startTime",
      "outputs": [
        {
          "internalType": "uint256",
          "name": "",
          "type": "uint256"
        }
      ],
      "stateMutability": "view",
      "type": "function"
    },
    {
      "inputs": [],
      "name": "totalVolumn",
      "outputs": [
        {
          "internalType": "uint256",
          "name": "",
          "type": "uint256"
        }
      ],
      "stateMutability": "view",
      "type": "function"
    },
    {
      "inputs": [
        {
          "internalType": "address",
          "name": "newOwner",
          "type": "address"
        }
      ],
      "name": "transferOwnership",
      "outputs": [],
      "stateMutability": "nonpayable",
      "type": "function"
    },
    {
      "inputs": [
        {
          "internalType": "address",
          "name": "",
          "type": "address"
        },
        {
          "internalType": "uint256",
          "name": "",
          "type": "uint256"
        }
      ],
      "name": "userOrdersMap",
      "outputs": [
        {
          "internalType": "uint256",
          "name": "",
          "type": "uint256"
        }
      ],
      "stateMutability": "view",
      "type": "function"
    },
    {
      "inputs": [
        {
          "internalType": "uint256",
          "name": "",
          "type": "uint256"
        }
      ],
      "name": "volumnList",
      "outputs": [
        {
          "internalType": "uint256",
          "name": "",
          "type": "uint256"
        }
      ],
      "stateMutability": "view",
      "type": "function"
    },
    {
      "inputs": [],
      "name": "volumnOf24Hours",
      "outputs": [
        {
          "internalType": "uint256",
          "name": "",
          "type": "uint256"
        }
      ],
      "stateMutability": "view",
      "type": "function"
    },
    {
      "inputs": [
        {
          "internalType": "address",
          "name": "_quoteToken",
          "type": "address"
        },
        {
          "internalType": "address",
          "name": "_baseToken",
          "type": "address"
        },
        {
          "internalType": "address",
          "name": "_authAddr",
          "type": "address"
        },
        {
          "internalType": "address",
          "name": "_boboFarmer",
          "type": "address"
        },
        {
          "internalType": "address",
          "name": "_orderNFT",
          "type": "address"
        },
        {
          "internalType": "address",
          "name": "_orderDetailNFT",
          "type": "address"
        }
      ],
      "name": "initialize",
      "outputs": [],
      "stateMutability": "nonpayable",
      "type": "function"
    },
    {
      "inputs": [
        {
          "internalType": "address",
          "name": "_authAddr",
          "type": "address"
        }
      ],
      "name": "addAuth",
      "outputs": [],
      "stateMutability": "nonpayable",
      "type": "function"
    },
    {
      "inputs": [
        {
          "internalType": "address",
          "name": "_authAddr",
          "type": "address"
        }
      ],
      "name": "removeAuth",
      "outputs": [],
      "stateMutability": "nonpayable",
      "type": "function"
    },
    {
      "inputs": [
        {
          "internalType": "address",
          "name": "_exManager",
          "type": "address"
        }
      ],
      "name": "setExManager",
      "outputs": [],
      "stateMutability": "nonpayable",
      "type": "function"
    },
    {
      "inputs": [
        {
          "internalType": "address",
          "name": "_router",
          "type": "address"
        }
      ],
      "name": "setRouter",
      "outputs": [],
      "stateMutability": "nonpayable",
      "type": "function"
    },
    {
      "inputs": [],
      "name": "getTokens",
      "outputs": [
        {
          "internalType": "address",
          "name": "",
          "type": "address"
        },
        {
          "internalType": "address",
          "name": "",
          "type": "address"
        }
      ],
      "stateMutability": "view",
      "type": "function"
    },
    {
      "inputs": [
        {
          "internalType": "bool",
          "name": "_bBuyQuoteToken",
          "type": "bool"
        },
        {
          "internalType": "uint256",
          "name": "_spotPrice",
          "type": "uint256"
        },
        {
          "internalType": "uint256",
          "name": "_amountIn",
          "type": "uint256"
        },
        {
          "internalType": "uint256",
          "name": "_slippagePercent",
          "type": "uint256"
        }
      ],
      "name": "addLimitedOrder",
      "outputs": [],
      "stateMutability": "nonpayable",
      "type": "function"
    },
    {
      "inputs": [
        {
          "internalType": "bool",
          "name": "_bBuyQuoteToken",
          "type": "bool"
        },
        {
          "internalType": "uint256",
          "name": "_amountIn",
          "type": "uint256"
        },
        {
          "internalType": "uint256",
          "name": "_minOutAmount",
          "type": "uint256"
        }
      ],
      "name": "addMarketOrder",
      "outputs": [],
      "stateMutability": "nonpayable",
      "type": "function"
    },
    {
      "inputs": [],
      "name": "getCurrentPrice",
      "outputs": [
        {
          "internalType": "uint256",
          "name": "",
          "type": "uint256"
        }
      ],
      "stateMutability": "view",
      "type": "function"
    },
    {
      "inputs": [
        {
          "internalType": "address",
          "name": "_userAddr",
          "type": "address"
        }
      ],
      "name": "getTotalHangingTokenAmount",
      "outputs": [
        {
          "internalType": "uint256",
          "name": "baseTokenAmount",
          "type": "uint256"
        },
        {
          "internalType": "uint256",
          "name": "quoteTokenAmount",
          "type": "uint256"
        }
      ],
      "stateMutability": "view",
      "type": "function"
    },
    {
      "inputs": [],
      "name": "executeHeaderOrder",
      "outputs": [
        {
          "internalType": "bool",
          "name": "",
          "type": "bool"
        }
      ],
      "stateMutability": "nonpayable",
      "type": "function"
    },
    {
      "inputs": [],
      "name": "checkOrderList",
      "outputs": [],
      "stateMutability": "nonpayable",
      "type": "function"
    },
    {
      "inputs": [
        {
          "internalType": "uint256",
          "name": "_orderId",
          "type": "uint256"
        }
      ],
      "name": "cancelOrder",
      "outputs": [
        {
          "internalType": "bool",
          "name": "",
          "type": "bool"
        }
      ],
      "stateMutability": "nonpayable",
      "type": "function"
    }
  ],
  "bytecode": "0x60806040523480156200001157600080fd5b5060006200001e620000a5565b600080546001600160a01b0319166001600160a01b0383169081178255604051929350917f8be0079c531659141344cd1fd0a4f28419497f9722a3daafe3b4186f6b6457e0908290a350600a80546001600160a01b031916339081179091556000908152601560205260409020805460ff19166001179055426010819055601155620000a9565b3390565b6146f180620000b96000396000f3fe608060405234801561001057600080fd5b506004361061028a5760003560e01c80638a2061171161015c578063cc2a9a5b116100ce578063eb91d37e11610087578063eb91d37e14610510578063ec35214e14610518578063f0d3ddea14610539578063f1f07cc914610541578063f2fde38b14610549578063fb1157ce1461055c5761028a565b8063cc2a9a5b146104a9578063cd5a8778146104bc578063d4d728da146104cf578063dd4ee565146104d7578063e5538b95146104ea578063e99d18c8146104fd5761028a565b8063aa6ca80811610120578063aa6ca80814610455578063acd17aaa1461046b578063b35ac8b214610473578063c0d7865514610486578063c45a015514610499578063c55dae63146104a15761028a565b80638a206117146104225780638da5cb5b1461042a578063952c70fb1461043257806397d87393146104455780639eedc4921461044d5761028a565b80634b92031d116102005780635f0a1feb116101b95780635f0a1feb146103dc5780636b6f1320146103ef578063715018a6146103f757806378e97925146103ff5780637f3fd9181461040757806382aa1c881461041a5761028a565b80634b92031d146103685780634bba80501461037b578063514fcac71461038e5780635422224e146103a157806359fc7223146103b45780635cbffe78146103d45761028a565b80631b114817116102525780631b11481714610315578063217a4b701461032857806327624b07146103305780632d61113114610338578063392da1b01461034b578063428011e4146103535761028a565b80630ff4c9161461028f57806310ca5805146102b8578063150b7a02146102c05780631960e232146102e057806319c2146b146102f5575b600080fd5b6102a261029d366004613cec565b610564565b6040516102af919061452c565b60405180910390f35b6102a261060c565b6102d36102ce366004613929565b610614565b6040516102af9190614029565b6102e8610625565b6040516102af9190613e33565b61030861030336600461388c565b610634565b6040516102af919061401e565b6102a26103233660046139cb565b610649565b6102e8610677565b6102a2610686565b6102a261034636600461388c565b61068c565b6102a26106a7565b610366610361366004613b8f565b6106ad565b005b6102a26103763660046139cb565b610c97565b6102a2610389366004613cec565b610cc2565b61030861039c366004613cec565b610d43565b6103666103af36600461388c565b611019565b6103c76103c2366004613b70565b611072565b6040516102af9190613f1a565b610308611261565b6103c76103ea3660046139f6565b61130f565b6102a26114a0565b6103666114a7565b6102a2611526565b61036661041536600461388c565b61152c565b6102a2611582565b6102a2611588565b6102e861158e565b6102a2610440366004613bc9565b61159d565b6102e86115b6565b6102a26115c5565b61045d6115cb565b6040516102af929190613e6b565b6102e86115e2565b6102a2610481366004613b38565b6115f1565b61036661049436600461388c565b61160b565b6102e861165c565b6102e861166b565b6103666104b73660046138a8565b61167a565b6102a26104ca36600461388c565b611838565b6102e8611859565b6102a26104e5366004613cec565b611868565b6103666104f8366004613b70565b611886565b61036661050b36600461388c565b611ba6565b6102a2611bf7565b61052b61052636600461388c565b611cc3565b6040516102af929190614596565b610366611dbf565b6102a2611e6a565b61036661055736600461388c565b611e70565b6102e8611f26565b60008161057357506000610607565b61057b613623565b60015460405163d311636b60e01b81526001600160a01b039091169063d311636b906105ab90869060040161452c565b60006040518083038186803b1580156105c357600080fd5b505afa1580156105d7573d6000803e3d6000fd5b505050506040513d6000823e601f3d908101601f191682016040526105ff9190810190613be6565b608001519150505b919050565b633b9aca0081565b630a85bd0160e11b5b949350505050565b6009546001600160a01b031681565b60156020526000908152604090205460ff1681565b6003602052816000526040600020818154811061066257fe5b90600052602060002001600091509150505481565b600c546001600160a01b031681565b600e5481565b6001600160a01b031660009081526003602052604090205490565b60125481565b6103e88111156106d85760405162461bcd60e51b81526004016106cf90614330565b60405180910390fd5b6000841561071d5761071661271061070a84612710036107108861070a600e54600a0a8a611f3590919063ffffffff16565b90611f6f565b90611f35565b905061074a565b61074761271061070a8461271003610710600f54600a0a61070a8a8a611f3590919063ffffffff16565b90505b600061075886868685611fb1565b90506000808761077a57600c54600d546001600160a01b03918216911661078e565b600d54600c546001600160a01b0391821691165b600854604051633ba7c4f760e11b81529294509092506001600160a01b03169063774f89ee906107c2908590600401613e33565b60206040518083038186803b1580156107da57600080fd5b505afa1580156107ee573d6000803e3d6000fd5b505050506040513d601f19601f820116820180604052508101906108129190613d04565b8610156108315760405162461bcd60e51b81526004016106cf90614242565b600854604051630f74f4f360e11b81526000916001600160a01b031690631ee9e9e69061086690339087908c90600401613e47565b604080518083038186803b15801561087d57600080fd5b505afa158015610891573d6000803e3d6000fd5b505050506040513d601f19601f820116820180604052508101906108b59190613d1c565b5090506108c06136a3565b600b546001600160a01b03166313684f1885856108dd8c87612095565b6040518463ffffffff1660e01b81526004016108fb93929190613e47565b60006040518083038186803b15801561091357600080fd5b505afa158015610927573d6000803e3d6000fd5b505050506040513d6000823e601f3d908101601f1916820160405261094f9190810190613a2a565b91505085816000015110610a9357600854604051633418ea4560e11b81526000916001600160a01b031690636831d48a9061099290339089908e90600401613e47565b602060405180830381600087803b1580156109ac57600080fd5b505af11580156109c0573d6000803e3d6000fd5b505050506040513d601f19601f820116820180604052508101906109e49190613d04565b90508015610a74576008546040516323b872dd60e01b81526001600160a01b03808816926323b872dd92610a2092339216908690600401613e47565b602060405180830381600087803b158015610a3a57600080fd5b505af1158015610a4e573d6000803e3d6000fd5b505050506040513d601f19601f82011682018060405250810190610a729190613b54565b505b610a8c86838787610a858e87612095565b60006120d7565b5050610c8b565b6040516323b872dd60e01b81526001600160a01b038516906323b872dd90610ac390339030908d90600401613e47565b602060405180830381600087803b158015610add57600080fd5b505af1158015610af1573d6000803e3d6000fd5b505050506040513d601f19601f82011682018060405250810190610b159190613b54565b5060095460405163e6a0802560e01b81526000916001600160a01b03169063e6a0802590610b47908890600401613e33565b60206040518083038186803b158015610b5f57600080fd5b505afa158015610b73573d6000803e3d6000fd5b505050506040513d601f19601f82011682018060405250810190610b979190613d04565b1115610c8b5760095460405163095ea7b360e01b81526001600160a01b038681169263095ea7b392610bd192909116908c90600401613ebb565b602060405180830381600087803b158015610beb57600080fd5b505af1158015610bff573d6000803e3d6000fd5b505050506040513d601f19601f82011682018060405250810190610c239190613b54565b50600954604051638340f54960e01b81526001600160a01b0390911690638340f54990610c5890879033908d90600401613e47565b600060405180830381600087803b158015610c7257600080fd5b505af1158015610c86573d6000803e3d6000fd5b505050505b50505050505050505050565b6001600160a01b0382166000908152600460205260408120610cb9908361247d565b90505b92915050565b6001546040516304bba80560e41b81526000916001600160a01b031690634bba805090610cf390859060040161452c565b60206040518083038186803b158015610d0b57600080fd5b505afa158015610d1f573d6000803e3d6000fd5b505050506040513d601f19601f82011682018060405250810190610cbc9190613d04565b6000610d4e82612489565b50610d57613623565b60015460405163d311636b60e01b81526001600160a01b039091169063d311636b90610d8790869060040161452c565b60006040518083038186803b158015610d9f57600080fd5b505afa158015610db3573d6000803e3d6000fd5b505050506040513d6000823e601f3d908101601f19168201604052610ddb9190810190613be6565b905060008160600151610df957600c546001600160a01b0316610e06565b600d546001600160a01b03165b60095460405163e6a0802560e01b81529192506000916001600160a01b039091169063e6a0802590610e3c908590600401613e33565b60206040518083038186803b158015610e5457600080fd5b505afa158015610e68573d6000803e3d6000fd5b505050506040513d601f19601f82011682018060405250810190610e8c9190613d04565b1115610f8a57600954602083015160a0840151604051636ce5768960e11b81526001600160a01b039093169263d9caed1292610ecc928692600401613e47565b600060405180830381600087803b158015610ee657600080fd5b505af1158015610efa573d6000803e3d6000fd5b50505050602082015160a083015160405163a9059cbb60e01b81526001600160a01b0384169263a9059cbb92610f3292600401613ebb565b602060405180830381600087803b158015610f4c57600080fd5b505af1158015610f60573d6000803e3d6000fd5b505050506040513d601f19601f82011682018060405250810190610f849190613b54565b50611012565b602082015160a083015160405163a9059cbb60e01b81526001600160a01b0384169263a9059cbb92610fbe92600401613ebb565b602060405180830381600087803b158015610fd857600080fd5b505af1158015610fec573d6000803e3d6000fd5b505050506040513d601f19601f820116820180604052508101906110109190613b54565b505b5050919050565b61102161263e565b6000546001600160a01b0390811691161461104e5760405162461bcd60e51b81526004016106cf906143b5565b6001600160a01b03166000908152601560205260409020805460ff19166001179055565b82151560009081526005602052604081206060919061109090612642565b90508083111561109e578092505b8284106110bd5760405162461bcd60e51b81526004016106cf906142ee565b83830367ffffffffffffffff811180156110d657600080fd5b5060405190808252806020026020018201604052801561111057816020015b6110fd613623565b8152602001906001900390816110f55790505b50851515600090815260056020526040812091935090819081906111349082612646565b915091505b85831080156111455750815b15611256578683101561117d57871515600090815260056020526040902061116d9082612646565b6001909401939092509050611139565b611185613623565b60015460405163d311636b60e01b81526001600160a01b039091169063d311636b906111b590859060040161452c565b60006040518083038186803b1580156111cd57600080fd5b505afa1580156111e1573d6000803e3d6000fd5b505050506040513d6000823e601f3d908101601f191682016040526112099190810190613be6565b905080868986038151811061121a57fe5b60209081029190910181019190915289151560009081526005909152604090206112449083612646565b60019095019490935091506111399050565b505050509392505050565b60008061126c611bf7565b905060008061127b6001612660565b9150915060008261128d576000611296565b61129682610564565b90506000806112a56000612660565b915091506000826112b8576000196112c1565b6112c182610564565b905060008488116112d35750846112de565b818811156112de5750815b80156112ff576112ed81612688565b5060019850505050505050505061130c565b6000985050505050505050505b90565b6001600160a01b03831660009081526004602052604081206060919061133490612a63565b905080831115611342578092505b8284106113615760405162461bcd60e51b81526004016106cf906142ee565b83830367ffffffffffffffff8111801561137a57600080fd5b506040519080825280602002602001820160405280156113b457816020015b6113a1613623565b8152602001906001900390816113995790505b509150835b83811015611497576001600160a01b03861660009081526004602052604081206113e3908361247d565b90506113ed613623565b60015460405163d311636b60e01b81526001600160a01b039091169063d311636b9061141d90859060040161452c565b60006040518083038186803b15801561143557600080fd5b505afa158015611449573d6000803e3d6000fd5b505050506040513d6000823e601f3d908101601f191682016040526114719190810190613be6565b905080858885038151811061148257fe5b602090810291909101015250506001016113b9565b50509392505050565b6201518081565b6114af61263e565b6000546001600160a01b039081169116146114dc5760405162461bcd60e51b81526004016106cf906143b5565b600080546040516001600160a01b03909116907f8be0079c531659141344cd1fd0a4f28419497f9722a3daafe3b4186f6b6457e0908390a3600080546001600160a01b0319169055565b60105481565b61153461263e565b6000546001600160a01b039081169116146115615760405162461bcd60e51b81526004016106cf906143b5565b6001600160a01b03166000908152601560205260409020805460ff19169055565b600f5481565b60115481565b6000546001600160a01b031690565b6006602052816000526040600020818154811061066257fe5b6008546001600160a01b031681565b61271081565b600c54600d546001600160a01b0391821691169091565b600b546001600160a01b031681565b8015156000908152600560205260408120610cbc90612642565b3360009081526015602052604090205460ff1661163a5760405162461bcd60e51b81526004016106cf90614093565b600b80546001600160a01b0319166001600160a01b0392909216919091179055565b600a546001600160a01b031681565b600d546001600160a01b031681565b61168261263e565b6000546001600160a01b039081169116146116af5760405162461bcd60e51b81526004016106cf906143b5565b600c80546001600160a01b038089166001600160a01b03199283161792839055600d80548983169316929092179091556040805163313ce56760e01b81529051929091169163313ce56791600480820192602092909190829003018186803b15801561171a57600080fd5b505afa15801561172e573d6000803e3d6000fd5b505050506040513d601f19601f820116820180604052508101906117529190613d3f565b60ff16600e55600d546040805163313ce56760e01b815290516001600160a01b039092169163313ce56791600480820192602092909190829003018186803b15801561179d57600080fd5b505afa1580156117b1573d6000803e3d6000fd5b505050506040513d601f19601f820116820180604052508101906117d59190613d3f565b60ff16600f556001600160a01b039384166000908152601560205260409020805460ff19166001908117909155600980549486166001600160a01b0319958616179055805492851692841692909217909155600280549190931691161790555050565b6001600160a01b0381166000908152600460205260408120610cbc90612a63565b6001546001600160a01b031681565b6014818154811061187557fe5b600091825260209091200154905081565b600080846118a657600c54600d546001600160a01b0391821691166118ba565b600d54600c546001600160a01b0391821691165b600854604051633ba7c4f760e11b81529294509092506001600160a01b03169063774f89ee906118ee908590600401613e33565b60206040518083038186803b15801561190657600080fd5b505afa15801561191a573d6000803e3d6000fd5b505050506040513d601f19601f8201168201806040525081019061193e9190613d04565b84101561195d5760405162461bcd60e51b81526004016106cf90614242565b600854604051633418ea4560e11b81526000916001600160a01b031690636831d48a9061199290339087908a90600401613e47565b602060405180830381600087803b1580156119ac57600080fd5b505af11580156119c0573d6000803e3d6000fd5b505050506040513d601f19601f820116820180604052508101906119e49190613d04565b90508015611a74576008546040516323b872dd60e01b81526001600160a01b03808616926323b872dd92611a2092339216908690600401613e47565b602060405180830381600087803b158015611a3a57600080fd5b505af1158015611a4e573d6000803e3d6000fd5b505050506040513d601f19601f82011682018060405250810190611a729190613b54565b505b611a7e8582612095565b9450611a886136a3565b600b5460405163026d09e360e31b81526001600160a01b03909116906313684f1890611abc90879087908b90600401613e47565b60006040518083038186803b158015611ad457600080fd5b505afa158015611ae8573d6000803e3d6000fd5b505050506040513d6000823e601f3d908101601f19168201604052611b109190810190613a2a565b9150508481600001511015611b375760405162461bcd60e51b81526004016106cf906141a4565b84611b4157805194505b600087611b6957611b648761070a600e54600a0a89611f3590919063ffffffff16565b611b85565b611b858661070a600e54600a0a8a611f3590919063ffffffff16565b90506000611b9589838a8a611fb1565b9050610c8b818488888c60006120d7565b3360009081526015602052604090205460ff16611bd55760405162461bcd60e51b81526004016106cf90614093565b600880546001600160a01b0319166001600160a01b0392909216919091179055565b6000611c016136a3565b600b54600d54600c5460405163026d09e360e31b81526001600160a01b03938416936313684f1893611c429390821692911690633b9aca0090600401613e47565b60006040518083038186803b158015611c5a57600080fd5b505afa158015611c6e573d6000803e3d6000fd5b505050506040513d6000823e601f3d908101601f19168201604052611c969190810190613a2a565b8051600e549193509150600090611cbb90839061070a90633b9aca0090600a0a611f35565b935050505090565b6000806000611cd184611838565b905060005b81811015611db8576000611cea8683610c97565b9050611cf4613623565b60015460405163d311636b60e01b81526001600160a01b039091169063d311636b90611d2490859060040161452c565b60006040518083038186803b158015611d3c57600080fd5b505afa158015611d50573d6000803e3d6000fd5b505050506040513d6000823e601f3d908101601f19168201604052611d789190810190613be6565b9050806060015115611d9b5760a0810151611d94908790612a6e565b9550611dae565b60a0810151611dab908690612a6e565b94505b5050600101611cd6565b5050915091565b60085460408051635c191ce960e01b815290516000926001600160a01b031691635c191ce9916004808301926020929190829003018186803b158015611e0457600080fd5b505afa158015611e18573d6000803e3d6000fd5b505050506040513d601f19601f82011682018060405250810190611e3c9190613d04565b90505b60001981019015611e67576000611e54611261565b905080611e615750611e67565b50611e3f565b50565b60135481565b611e7861263e565b6000546001600160a01b03908116911614611ea55760405162461bcd60e51b81526004016106cf906143b5565b6001600160a01b038116611ecb5760405162461bcd60e51b81526004016106cf90614127565b600080546040516001600160a01b03808516939216917f8be0079c531659141344cd1fd0a4f28419497f9722a3daafe3b4186f6b6457e091a3600080546001600160a01b0319166001600160a01b0392909216919091179055565b6002546001600160a01b031681565b600082611f4457506000610cbc565b82820282848281611f5157fe5b0414610cb95760405162461bcd60e51b81526004016106cf90614374565b6000610cb983836040518060400160405280601a81526020017f536166654d6174683a206469766973696f6e206279207a65726f000000000000815250612a93565b600154604051631cdd409f60e21b815260009182916001600160a01b0390911690637375027c90611ff090309033908b908b908b908b90600401613e85565b602060405180830381600087803b15801561200a57600080fd5b505af115801561201e573d6000803e3d6000fd5b505050506040513d601f19601f820116820180604052508101906120429190613d04565b336000908152600360209081526040822080546001810182559083529120018190559050612071818787612aca565b5033600090815260046020526040902061208b9082612b11565b5095945050505050565b6000610cb983836040518060400160405280601e81526020017f536166654d6174683a207375627472616374696f6e206f766572666c6f770000815250612b1d565b600081612162576040516323b872dd60e01b81526001600160a01b038616906323b872dd9061210e90339030908890600401613e47565b602060405180830381600087803b15801561212857600080fd5b505af115801561213c573d6000803e3d6000fd5b505050506040513d601f19601f820116820180604052508101906121609190613b54565b505b600b5460405163095ea7b360e01b81526001600160a01b038781169263095ea7b39261219692909116908790600401613ebb565b602060405180830381600087803b1580156121b057600080fd5b505af11580156121c4573d6000803e3d6000fd5b505050506040513d601f19601f820116820180604052508101906121e89190613b54565b50600b5460405163350d6fd960e01b81526000916001600160a01b03169063350d6fd990612222908a908a908a908a903390600401614439565b602060405180830381600087803b15801561223c57600080fd5b505af1158015612250573d6000803e3d6000fd5b505050506040513d601f19601f820116820180604052508101906122749190613d04565b90506122808882612b49565b50612289613623565b60015460405163d311636b60e01b81526001600160a01b039091169063d311636b906122b9908c9060040161452c565b60006040518083038186803b1580156122d157600080fd5b505afa1580156122e5573d6000803e3d6000fd5b505050506040513d6000823e601f3d908101601f1916820160405261230d9190810190613be6565b905060005b88604001515181108015612349575060008960400151828151811061233357fe5b6020026020010151600781111561234657fe5b14155b156124485760008960600151828151811061236057fe5b60200260200101519050606060006001600160a01b0316826001600160a01b031614156123b357604080518082019091526001600160a01b03808c1682528a1660208201526123ae90612cbb565b6123e4565b604080516060810182526001600160a01b03808d16825284811660208301528b16918101919091526123e490612d2a565b905061243d84602001518d8d6080015186815181106123ff57fe5b60200260200101518e60a00151878151811061241757fe5b60200260200101518f60400151888151811061242f57fe5b602002602001015186612d95565b505050600101612312565b50600d5461246f906001600160a01b03898116911614612468578261246a565b855b612e32565b5090505b9695505050505050565b6000610cb98383612edb565b6000612493613623565b60015460405163d311636b60e01b81526001600160a01b039091169063d311636b906124c390869060040161452c565b60006040518083038186803b1580156124db57600080fd5b505afa1580156124ef573d6000803e3d6000fd5b505050506040513d6000823e601f3d908101601f191682016040526125179190810190613be6565b60208101519091506001600160a01b031633146125465760405162461bcd60e51b81526004016106cf906141f1565b6000816101000151600381111561255957fe5b146125765760405162461bcd60e51b81526004016106cf906143ea565b60018054604051630d4e568160e41b81526001600160a01b039091169163d4e56810916125aa918791600090600401614562565b600060405180830381600087803b1580156125c457600080fd5b505af11580156125d8573d6000803e3d6000fd5b5050600660205250507f3e5fec24aa4dc4e5aee2e025e51e1392c72a2500577559fae9665c6d52bd6a3180546001810182556000919091527f80497882cf9008f7f796a89e5514a7b55bd96eab88ecb66aee4fb0a6fd34811c0183905561101281612f20565b3390565b5490565b60008061265584846001613016565b915091509250929050565b8015156000908152600560205260408120819061267f90826001613016565b91509150915091565b6000612692613623565b60015460405163d311636b60e01b81526001600160a01b039091169063d311636b906126c290869060040161452c565b60006040518083038186803b1580156126da57600080fd5b505afa1580156126ee573d6000803e3d6000fd5b505050506040513d6000823e601f3d908101601f191682016040526127169190810190613be6565b9050600080826060015161273c57600c54600d546001600160a01b039182169116612750565b600d54600c546001600160a01b0391821691165b600854602086015160a0870151604051633418ea4560e11b81529496509294506000936001600160a01b0390921692636831d48a9261279492918891600401613e47565b602060405180830381600087803b1580156127ae57600080fd5b505af11580156127c2573d6000803e3d6000fd5b505050506040513d601f19601f820116820180604052508101906127e69190613d04565b90508015612876576008546040516323b872dd60e01b81526001600160a01b03808616926323b872dd9261282292339216908690600401613e47565b602060405180830381600087803b15801561283c57600080fd5b505af1158015612850573d6000803e3d6000fd5b505050506040513d601f19601f820116820180604052508101906128749190613b54565b505b60a08401516000906128889083612095565b90506128926136a3565b600b5460405163026d09e360e31b81526001600160a01b03909116906313684f18906128c690889088908790600401613e47565b60006040518083038186803b1580156128de57600080fd5b505afa1580156128f2573d6000803e3d6000fd5b505050506040513d6000823e601f3d908101601f1916820160405261291a9190810190613a2a565b9150508560c00151816000015110612a345760095460405163e6a0802560e01b81526000916001600160a01b03169063e6a080259061295d908990600401613e33565b60206040518083038186803b15801561297557600080fd5b505afa158015612989573d6000803e3d6000fd5b505050506040513d601f19601f820116820180604052508101906129ad9190613d04565b1115612a1e576009546020870151604051636ce5768960e11b81526001600160a01b039092169163d9caed12916129eb918991908790600401613e47565b600060405180830381600087803b158015612a0557600080fd5b505af1158015612a19573d6000803e3d6000fd5b505050505b612a2d888287878660016120d7565b9650612a58565b612a56886040518060600160405280603781526020016146856037913961305d565b505b505050505050919050565b6000610cbc82612642565b600082820183811015610cb95760405162461bcd60e51b81526004016106cf9061416d565b60008183612ab45760405162461bcd60e51b81526004016106cf919061403e565b506000838581612ac057fe5b0495945050505050565b81151560009081526005602052604081208190612ae990308587613195565b8415156000908152600560205260409020909150612b0890828761332c565b95945050505050565b6000610cb9838361333b565b60008184841115612b415760405162461bcd60e51b81526004016106cf919061403e565b505050900390565b6000612b53613623565b60015460405163d311636b60e01b81526001600160a01b039091169063d311636b90612b8390879060040161452c565b60006040518083038186803b158015612b9b57600080fd5b505afa158015612baf573d6000803e3d6000fd5b505050506040513d6000823e601f3d908101601f19168201604052612bd79190810190613be6565b905060008161010001516003811115612bec57fe5b14612c095760405162461bcd60e51b81526004016106cf906140ca565b600154604051630d4e568160e41b81526001600160a01b039091169063d4e5681090612c3e9087906002908890600401614562565b600060405180830381600087803b158015612c5857600080fd5b505af1158015612c6c573d6000803e3d6000fd5b506006925060009150600290505b6003811115612c8557fe5b81526020808201929092526040016000908120805460018101825590825291902001849055612cb381612f20565b505092915050565b604080516002808252606080830184529260208301908036833701905050905060005b6002811015612d2457828160028110612cf357fe5b6020020151828281518110612d0457fe5b6001600160a01b0390921660209283029190910190910152600101612cde565b50919050565b6040805160038082526080820190925260609160208201838036833701905050905060005b6003811015612d2457828160038110612d6457fe5b6020020151828281518110612d7557fe5b6001600160a01b0390921660209283029190910190910152600101612d4f565b60025460405163904c3e9b60e01b815260009182916001600160a01b039091169063904c3e9b90612dd4908b908a908a908d908b908b90600401613ed4565b602060405180830381600087803b158015612dee57600080fd5b505af1158015612e02573d6000803e3d6000fd5b505050506040513d601f19601f82011682018060405250810190612e269190613d04565b98975050505050505050565b601354612e3f9082612a6e565b601355601054601154600091612e5e91620151809161070a9190612095565b90506000612e7c620151806010544203611f6f90919063ffffffff16565b905081811115612ec257601280546014805460018101825560009182527fce6d7b5282bd9a3661ae061feed1dbda4e52ab073b1f9285be6e155d9c38d4ec019190915590555b601254612ecf9084612a6e565b60125550504260115550565b81546000908210612efe5760405162461bcd60e51b81526004016106cf90614051565b826000018281548110612f0d57fe5b9060005260206000200154905092915050565b600154602082015182516040516323b872dd60e01b81526000936001600160a01b0316926323b872dd92612f5a9230929190600401613e47565b600060405180830381600087803b158015612f7457600080fd5b505af1158015612f88573d6000803e3d6000fd5b50505050600660008361010001516003811115612fa157fe5b6003811115612fac57fe5b81526020808201929092526040908101600090812085518154600181018355918352848320909101558451338252600490935220612fe991613385565b508151606083015115156000908152600560205260408120909161300d9190613391565b15159392505050565b6000806130238585613419565b61303257506000905080613055565b505060008281526001848101602090815260408084208515158552909152909120545b935093915050565b6000613067613623565b60015460405163d311636b60e01b81526001600160a01b039091169063d311636b9061309790879060040161452c565b60006040518083038186803b1580156130af57600080fd5b505afa1580156130c3573d6000803e3d6000fd5b505050506040513d6000823e601f3d908101601f191682016040526130eb9190810190613be6565b90506000816101000151600381111561310057fe5b1461311d5760405162461bcd60e51b81526004016106cf90614291565b600154604051630d4e568160e41b81526001600160a01b039091169063d4e56810906131559087906003906000908990600401614535565b600060405180830381600087803b15801561316f57600080fd5b505af1158015613183573d6000803e3d6000fd5b50600692506000915060039050612c7a565b60006131a085612642565b6131ac5750600061061d565b60006131bb8660006001613016565b915050821561327b575b801580159061324f57506040516307fa648b60e11b81526001600160a01b03861690630ff4c916906131fb90849060040161452c565b60206040518083038186803b15801561321357600080fd5b505afa158015613227573d6000803e3d6000fd5b505050506040513d601f19601f8201168201806040525081019061324b9190613d04565b8411155b156132765760009081526001808701602090815260408084209284529190529020546131c5565b612b08565b801580159061330557506040516307fa648b60e11b81526001600160a01b03861690630ff4c916906132b190849060040161452c565b60206040518083038186803b1580156132c957600080fd5b505afa1580156132dd573d6000803e3d6000fd5b505050506040513d601f19601f820116820180604052508101906133019190613d04565b8410155b15612b0857600090815260018087016020908152604080842092845291905290205461327b565b600061061d8484846000613495565b60006133478383613509565b61337d57508154600181810184556000848152602080822090930184905584548482528286019093526040902091909155610cbc565b506000610cbc565b6000610cb98383613521565b60008115806133a757506133a58383613419565b155b156133b457506000610cbc565b6000828152600184810160209081526040808420848052909152808320548284529220546133e69286929091906135ee565b50600081815260018381016020908152604080842084805290915280832083905590825281205581546000190190915590565b6000818152600183016020908152604080832083805290915281205415801561345c57506000828152600180850160209081526040808420928452919052902054155b1561348d57600080805260018085016020908152604080842092845291905290205482141561337d57506001610cbc565b506001610cbc565b60006134a18584613419565b1580156134b357506134b38585613419565b156134fe576000848152600186016020908152604080832085151584529091529020546134e2868686866135ee565b6134ee868583866135ee565b505083546001908101855561061d565b506000949350505050565b60009081526001919091016020526040902054151590565b600081815260018301602052604081205480156135dd578354600019808301919081019060009087908390811061355457fe5b906000526020600020015490508087600001848154811061357157fe5b6000918252602080832090910192909255828152600189810190925260409020908401905586548790806135a157fe5b60019003818190600052602060002001600090559055866001016000878152602001908152602001600020600090556001945050505050610cbc565b6000915050610cbc565b5092915050565b600082815260019094016020818152604080872093158088529382528087208690559486529081528385209115855252912055565b6040518061018001604052806000815260200160006001600160a01b0316815260200160006001600160a01b03168152602001600015158152602001600081526020016000815260200160008152602001600081526020016000600381111561368857fe5b81526020016060815260200160008152602001600081525090565b6040518060c001604052806000815260200160008152602001606081526020016060815260200160608152602001606081525090565b8051610cbc81614654565b600082601f8301126136f4578081fd5b8151613707613702826145cb565b6145a4565b81815291506020808301908481018184028601820187101561372857600080fd5b60005b8481101561375057815161373e81614654565b8452928201929082019060010161372b565b505050505092915050565b600082601f83011261376b578081fd5b8151613779613702826145cb565b81815291506020808301908481018184028601820187101561379a57600080fd5b6000805b858110156137c6578251600881106137b4578283fd5b8552938301939183019160010161379e565b50505050505092915050565b600082601f8301126137e2578081fd5b81516137f0613702826145cb565b81815291506020808301908481018184028601820187101561381157600080fd5b60005b8481101561375057815184529282019290820190600101613814565b8051610cbc81614669565b8051610cbc81614677565b600082601f830112613856578081fd5b8151613864613702826145eb565b915080825283602082850101111561387b57600080fd5b6135e781602084016020860161461a565b60006020828403121561389d578081fd5b8135610cb981614654565b60008060008060008060c087890312156138c0578182fd5b86356138cb81614654565b955060208701356138db81614654565b945060408701356138eb81614654565b935060608701356138fb81614654565b9250608087013561390b81614654565b915060a087013561391b81614654565b809150509295509295509295565b6000806000806080858703121561393e578384fd5b843561394981614654565b9350602085013561395981614654565b925060408501359150606085013567ffffffffffffffff81111561397b578182fd5b8501601f8101871361398b578182fd5b8035613999613702826145eb565b8181528860208385010111156139ad578384fd5b81602084016020830137908101602001929092525092959194509250565b600080604083850312156139dd578182fd5b82356139e881614654565b946020939093013593505050565b600080600060608486031215613a0a578081fd5b8335613a1581614654565b95602085013595506040909401359392505050565b60008060408385031215613a3c578182fd5b825167ffffffffffffffff80821115613a53578384fd5b613a5f868387016137d2565b93506020850151915080821115613a74578283fd5b9084019060c08287031215613a87578283fd5b613a9160c06145a4565b8251815260208301516020820152604083015182811115613ab0578485fd5b613abc8882860161375b565b604083015250606083015182811115613ad3578485fd5b613adf888286016136e4565b606083015250608083015182811115613af6578485fd5b613b02888286016137d2565b60808301525060a083015182811115613b19578485fd5b613b25888286016137d2565b60a0830152508093505050509250929050565b600060208284031215613b49578081fd5b8135610cb981614669565b600060208284031215613b65578081fd5b8151610cb981614669565b600080600060608486031215613b84578081fd5b8335613a1581614669565b60008060008060808587031215613ba4578182fd5b8435613baf81614669565b966020860135965060408601359560600135945092505050565b60008060408385031215613bdb578182fd5b82356139e881614677565b600060208284031215613bf7578081fd5b815167ffffffffffffffff80821115613c0e578283fd5b8184019150610180808387031215613c24578384fd5b613c2d816145a4565b905082518152613c4086602085016136d9565b6020820152613c5286604085016136d9565b6040820152613c648660608501613830565b60608201526080830151608082015260a083015160a082015260c083015160c082015260e083015160e0820152610100613ca08782860161383b565b908201526101208381015183811115613cb7578586fd5b613cc388828701613846565b918301919091525061014083810151908201526101609283015192810192909252509392505050565b600060208284031215613cfd578081fd5b5035919050565b600060208284031215613d15578081fd5b5051919050565b60008060408385031215613d2e578182fd5b505080516020909101519092909150565b600060208284031215613d50578081fd5b815160ff81168114610cb9578182fd5b6000613d6b8261464a565b50815260200190565b6001600160a01b03169052565b6000815180845260208085019450808401835b83811015613db95781516001600160a01b031687529582019590820190600101613d94565b509495945050505050565b6000815180845260208085019450808401835b83811015613db957815187529582019590820190600101613dd7565b15159052565b60048110613e0357fe5b9052565b60008151808452613e1f81602086016020860161461a565b601f01601f19169290920160200192915050565b6001600160a01b0391909116815260200190565b6001600160a01b039384168152919092166020820152604081019190915260600190565b6001600160a01b0392831681529116602082015260400190565b6001600160a01b03968716815294909516602085015291151560408401526060830152608082015260a081019190915260c00190565b6001600160a01b03929092168252602082015260400190565b6001600160a01b03871681526020810186905260408101859052606081018490526000613f008461464a565b83608083015260c060a0830152612e2660c0830184613d81565b60208082528251828201819052600091906040908185019080840286018301878501865b8381101561401057603f1989840301855281516101808151855288820151613f688a870182613d74565b5087820151613f7989870182613d74565b50606080830151613f8c82880182613df3565b50506080828101519086015260a0808301519086015260c0808301519086015260e0808301519086015261010080830151613fc982880182613df9565b5050610120808301518282880152613fe383880182613e07565b61014085810151908901526101609485015194909701939093525050509386019390860190600101613f3e565b509098975050505050505050565b901515815260200190565b6001600160e01b031991909116815260200190565b600060208252610cb96020830184613e07565b60208082526022908201527f456e756d657261626c655365743a20696e646578206f7574206f6620626f756e604082015261647360f01b606082015260800190565b60208082526017908201527f426f626f506169723a206e6f207065726d697373696f6e000000000000000000604082015260600190565b60208082526039908201527f4f7264657253746f72653a206f6e6c792068616e67696e67206f72646572206360408201527f616e206265636f6d6520414d4d4465616c207374617475732e00000000000000606082015260800190565b60208082526026908201527f4f776e61626c653a206e6577206f776e657220697320746865207a65726f206160408201526564647265737360d01b606082015260800190565b6020808252601b908201527f536166654d6174683a206164646974696f6e206f766572666c6f770000000000604082015260600190565b6020808252602d908201527f426f626f506169723a2063616e204e4f54207361746973667920796f7572207460408201526c3930b232903932b8bab2b9ba1760991b606082015260800190565b60208082526031908201527f4f7264657253746f72653a206f6e6c7920626f6f6b206f776e65722063616e2060408201527031b0b731b2b6103a34329037b93232b91760791b606082015260800190565b6020808252602f908201527f426f626f506169723a20696e416d6f756e74204d555354206c6172676572207460408201526e3430b71036b4b71030b6b7bab73a1760891b606082015260800190565b6020808252603b908201527f4f7264657253746f72653a206f6e6c792068616e67696e67206f72646572206360408201527f616e206265636f6d6520657863657074696f6e207374617475732e0000000000606082015260800190565b60208082526022908201527f4f7264657253746f72653a20696e646578206973206f7574206f6620626f756e604082015261321760f11b606082015260800190565b60208082526024908201527f426f626f506169723a20736c697070616765204d555354203c3d2031303030286040820152633130252960e01b606082015260800190565b60208082526021908201527f536166654d6174683a206d756c7469706c69636174696f6e206f766572666c6f6040820152607760f81b606082015260800190565b6020808252818101527f4f776e61626c653a2063616c6c6572206973206e6f7420746865206f776e6572604082015260600190565b6020808252602f908201527f4f7264657253746f72653a206f6e6c792068616e67696e67206f72646572206360408201526e30b71031329031b0b731b2b632b21760891b606082015260800190565b600060a082526101608201875160a084015260208089015160c0850152604089015160c060e086015282815161446f818661452c565b9284019450859291505b8083101561449e5761448c828651613d60565b91508385019450600183019250614479565b5060608b01519350609f19915081868203016101008701526144c08185613d81565b93505060808a015181868503016101208701526144dd8482613dc4565b93505060a08a015181868503016101408701526144fa8482613dc4565b9450505061450a81850189613d74565b50506145196040830186613d74565b8360608301526124736080830184613d74565b90815260200190565b60008582526145438561460f565b6020830152836040830152608060608301526124736080830184613e07565b60008482526145708461460f565b60208301528260408301526080606083015280608083015260a082019050949350505050565b918252602082015260400190565b60405181810167ffffffffffffffff811182821017156145c357600080fd5b604052919050565b600067ffffffffffffffff8211156145e1578081fd5b5060209081020190565b600067ffffffffffffffff821115614601578081fd5b50601f01601f191660200190565b806004811061060757fe5b60005b8381101561463557818101518382015260200161461d565b83811115614644576000848401525b50505050565b60088110611e6757fe5b6001600160a01b0381168114611e6757600080fd5b8015158114611e6757600080fd5b60048110611e6757600080fdfe416d6f756e74206f75742063616e204e4f54207361746973667920746865206d696e20616d6f756e74206f7574206f66206f726465722ea26469706673582212209f741f4d9bda5f440a4c6ef7f4bb1cd5739a9730261d707c44fe6947aff68fb464736f6c634300060c0033",
  "immutableReferences": {},
  "source": "// SPDX-License-Identifier: MIT\npragma solidity ^0.6.0;\npragma experimental ABIEncoderV2;\n\nimport \"./common/OrderStore.sol\";\n\ninterface IExchangeManager {\n    function evaluateDeductedAmountIn(address _userAddr, address _token, uint256 _amountIn) view external returns(uint256, uint256);\n    function deductTradeFee(address _userAddr, address _token, uint256 _amountIn) external returns(uint256);\n    function feeEarnedContract() view external returns(uint256);\n    function maxNumberPerAMMSwap() view external returns(uint256);\n    function tokenInvestRateMap(address _tokenAddr) view external returns(uint256);\n    function tokenMinAmountMap(address _tokenAddr) view external returns(uint256);\n}\n\ninterface IBoboFarmer {\n    function deposit(address _tokenAddr, address _userAddr, uint256 _amount) external;\n    function withdraw(address _tokenAddr, address _userAddr, uint256 _amount) external;\n\n    function pendingBOBO(address _tokenAddr, address _user) external view returns (uint256);\n    function stakedWantTokens(address _tokenAddr, address _user) external view returns (uint256);\n    function tokenPidMap(address _tokenAddr) external view returns (uint256);\n}\n\n\ncontract BoboPair is Ownable, OrderStore {\n    using SafeMath for uint256;\n    \n    address private bestSwapRouter;\n    uint256 public constant BasePercent = 10000;\n    uint256 public constant BasePriceAmount = 1e9;\n    \n    IExchangeManager public exManager;\n    IBoboFarmer public boboFarmer;\n    \n    address public factory;\n    IBoboRouter public boboRouter;\n    address public quoteToken;\n    address public baseToken;\n    uint256 public quoteTokenDecimals;\n    uint256 public baseTokenDecimals;\n    \n    \n    uint256 public constant OneDaySeconds = 24 * 3600;\n    uint256 public startTime;\n    uint256 public lastRecordTime;\n    uint256 public volumnOf24Hours;\n    uint256 public totalVolumn;\n    uint256[] public volumnList;\n    \n    mapping(address => bool) public _auth;\n\n    modifier onlyAuth {\n        require(_auth[msg.sender], \"BoboPair: no permission\");\n        _;\n    }\n    \n    event SwapSuccess(address indexed owner, address indexed spender, uint value);\n    \n    constructor () public OrderStore() {  \n        factory = msg.sender;\n        _auth[msg.sender] = true;\n        startTime = now;\n        lastRecordTime = startTime;\n    }\n\n    // called once by the factory at time of deployment\n    function initialize(address _quoteToken, address _baseToken, address _authAddr, address _boboFarmer, address _orderNFT, address _orderDetailNFT) external onlyOwner {\n        quoteToken = _quoteToken;\n        baseToken = _baseToken;\n        quoteTokenDecimals = ERC20(quoteToken).decimals();\n        baseTokenDecimals = ERC20(baseToken).decimals();\n        _auth[_authAddr] = true;\n        boboFarmer = IBoboFarmer(_boboFarmer);\n        orderNFT = IOrderNFT(_orderNFT);\n        orderDetailNFT = IOrderDetailNFT(_orderDetailNFT);\n    }\n    \n    \n    function addAuth(address _authAddr) public onlyOwner {\n        _auth[_authAddr] = true;\n    }\n\n    function removeAuth(address _authAddr) public onlyOwner {\n        _auth[_authAddr] = false;\n    }\n    \n    function setExManager(address _exManager) external onlyAuth {\n        exManager = IExchangeManager(_exManager);\n    }\n    \n    function setRouter(address _router) external onlyAuth {\n        boboRouter = IBoboRouter(_router);\n    }\n\n    function getTokens() view public returns(address, address) {\n        return (quoteToken, baseToken);\n    }\n    \n    // \n    // _spotPrice: U10000001U\n    function addLimitedOrder(bool _bBuyQuoteToken, uint256 _spotPrice, uint256 _amountIn, uint256 _slippagePercent) public {\n        require(_slippagePercent <= 1000, \"BoboPair: slippage MUST <= 1000(10%)\");\n        \n        uint256 minOutAmount = 0;\n        if (_bBuyQuoteToken) {\n            minOutAmount = _amountIn.mul(10**quoteTokenDecimals).div(_spotPrice).mul(BasePercent - _slippagePercent).div(BasePercent);\n        } else {\n            minOutAmount = _amountIn.mul(_spotPrice).div(10**baseTokenDecimals).mul(BasePercent - _slippagePercent).div(BasePercent);\n        }\n        uint256 orderId = addOrder(_bBuyQuoteToken, _spotPrice, _amountIn, minOutAmount);\n        \n        (address inToken, address outToken) = _bBuyQuoteToken ? (baseToken, quoteToken) : (quoteToken, baseToken);\n        // \n        require(_amountIn >= exManager.tokenMinAmountMap(inToken), \"BoboPair: inAmount MUST larger than min amount.\");\n\n        // \n        (uint256 deductedAmountIn, ) = exManager.evaluateDeductedAmountIn(msg.sender, inToken, _amountIn);\n        (, ResultInfo memory bestSwapInfo) = boboRouter.getBestSwapPath(inToken, outToken, _amountIn.sub(deductedAmountIn));\n        \n        // \n        if (bestSwapInfo.totalAmountOut >= minOutAmount) {  \n            // \n            uint256 deductAmount = exManager.deductTradeFee(msg.sender, inToken, _amountIn);\n            if (deductAmount > 0) {\n                ERC20(inToken).transferFrom(msg.sender, address(exManager), deductAmount);\n            }\n            swap(orderId, bestSwapInfo, inToken, outToken, _amountIn.sub(deductAmount), false);\n        } else {\n            ERC20(inToken).transferFrom(msg.sender, address(this), _amountIn);\n            if (boboFarmer.tokenPidMap(inToken) > 0) {\n                ERC20(inToken).approve(address(boboFarmer), _amountIn);\n                boboFarmer.deposit(inToken, msg.sender, _amountIn);\n            }\n        }\n    }\n    \n    // \n    function addMarketOrder(bool _bBuyQuoteToken, uint256 _amountIn, uint256 _minOutAmount) public {\n        (address inToken, address outToken) = _bBuyQuoteToken ? (baseToken, quoteToken) : (quoteToken, baseToken);\n        require(_amountIn >= exManager.tokenMinAmountMap(inToken), \"BoboPair: inAmount MUST larger than min amount.\");\n\n        uint256 deductAmount = exManager.deductTradeFee(msg.sender, inToken, _amountIn);\n        if (deductAmount > 0) {\n            ERC20(inToken).transferFrom(msg.sender, address(exManager), deductAmount);\n        }\n        _amountIn = _amountIn.sub(deductAmount);\n\n        (, ResultInfo memory bestSwapInfo) = boboRouter.getBestSwapPath(inToken, outToken, _amountIn);\n        require(bestSwapInfo.totalAmountOut >= _minOutAmount, \"BoboPair: can NOT satisfy your trade request.\");\n        // \n        if (_minOutAmount == 0) \n            _minOutAmount = bestSwapInfo.totalAmountOut;\n        uint256 spotPrice = _bBuyQuoteToken ? _amountIn.mul(10**quoteTokenDecimals).div(_minOutAmount) : _minOutAmount.mul(10**quoteTokenDecimals).div(_amountIn);\n        uint256 orderId = addOrder(_bBuyQuoteToken, spotPrice, _amountIn, _minOutAmount);\n        swap(orderId, bestSwapInfo, inToken, outToken, _amountIn, false);\n    }\n       \n    function makeStatistic(uint256 _amount) private {\n        totalVolumn = totalVolumn.add(_amount);\n        \n        uint256 lastPeriod = lastRecordTime.sub(startTime).div(OneDaySeconds);\n        uint256 currentPeriod = (now - startTime).div(OneDaySeconds);\n        if (currentPeriod > lastPeriod) {\n            volumnList.push(volumnOf24Hours);\n            volumnOf24Hours = 0;\n        }\n        volumnOf24Hours = volumnOf24Hours.add(_amount);\n        lastRecordTime = now;\n    }\n            \n    function convertThreePath(address[3] memory path) private pure returns(address[] memory newPath) {\n        newPath = new address[](path.length);\n        for (uint256 i = 0; i < path.length; i++) {\n            newPath[i] = path[i];\n        }\n    }\n    \n    function convertTwoPath(address[2] memory path) private pure returns(address[] memory newPath) {\n        newPath = new address[](path.length);\n        for (uint256 i = 0; i < path.length; i++) {\n            newPath[i] = path[i];\n        }\n    }\n\n    function swap(uint256 _orderId, ResultInfo memory _bestSwapInfo, address _inToken, address _outToken, uint256 _amountIn, bool _bInner) private returns(uint256) {\n        if (!_bInner) {\n            ERC20(_inToken).transferFrom(msg.sender, address(this), _amountIn);\n        }\n        ERC20(_inToken).approve(address(boboRouter), _amountIn);\n        uint256 amountOut = boboRouter.swap(_bestSwapInfo, _inToken, _outToken, _amountIn, msg.sender);\n        setAMMDealOrder(_orderId, amountOut);\n        \n        NFTInfo memory orderInfo = orderNFT.getOrderInfo(_orderId); \n        for (uint256 i = 0; i < _bestSwapInfo.types.length && _bestSwapInfo.types[i] != SwapPool.No; i++) {\n            address middleToken = _bestSwapInfo.middleTokens[i];\n            address[] memory path = middleToken != address(0) ? convertThreePath([_inToken, middleToken, _outToken]) : convertTwoPath([_inToken, _outToken]);\n            addOrderDetail(orderInfo.owner, _orderId, \n                           _bestSwapInfo.partialAmountIns[i], \n                           _bestSwapInfo.partialAmountOuts[i], \n                           _bestSwapInfo.types[i],\n                           path);\n        }\n        makeStatistic(_inToken == baseToken ? _amountIn : amountOut);\n        return amountOut;\n    }\n    \n    function getCurrentPrice() view public returns(uint256) {\n        (, ResultInfo memory bestSwapInfo) = boboRouter.getBestSwapPath(baseToken, quoteToken, BasePriceAmount);\n        uint256 amountOut = bestSwapInfo.totalAmountOut;\n        uint256 spotPrice = BasePriceAmount.mul(10**quoteTokenDecimals).div(amountOut);\n        return spotPrice;\n    }\n\n    function getTotalHangingTokenAmount(address _userAddr) view public returns(uint256 baseTokenAmount, uint256 quoteTokenAmount) {\n        uint256 length = getUserHangingOrderNumber(_userAddr);\n        for (uint256 i = 0; i < length; i++) {\n            uint256 orderId = getUserHangingOrderId(_userAddr, i);\n            NFTInfo memory orderInfo = orderNFT.getOrderInfo(orderId); \n            if (orderInfo.bBuyQuoteToken) {\n                baseTokenAmount = baseTokenAmount.add(orderInfo.inAmount);\n            } else {\n                quoteTokenAmount = quoteTokenAmount.add(orderInfo.inAmount);\n            }\n        }\n    }\n        \n    function executeInnerOrder(uint256 _orderId) private returns(uint256 amountOut) {\n        NFTInfo memory orderInfo = orderNFT.getOrderInfo(_orderId); \n        (address inToken, address outToken) = orderInfo.bBuyQuoteToken ? (baseToken, quoteToken) : (quoteToken, baseToken);\n        \n        uint256 deductAmount = exManager.deductTradeFee(orderInfo.owner, inToken, orderInfo.inAmount);\n        if (deductAmount > 0) {\n            ERC20(inToken).transferFrom(msg.sender, address(exManager), deductAmount);\n        }\n        uint256 amountIn = orderInfo.inAmount.sub(deductAmount);\n\n        (, ResultInfo memory bestSwapInfo) = boboRouter.getBestSwapPath(inToken, outToken, amountIn);\n        if (bestSwapInfo.totalAmountOut >= orderInfo.minOutAmount) {\n            if (boboFarmer.tokenPidMap(inToken) > 0) {\n                boboFarmer.withdraw(inToken, orderInfo.owner, amountIn);\n            }\n            amountOut = swap(_orderId, bestSwapInfo, inToken, outToken, amountIn, true);\n        } else {\n            setExceptionOrder(_orderId, \"Amount out can NOT satisfy the min amount out of order.\");\n        }\n    }\n    \n    // \n    function executeHeaderOrder() public returns(bool) {\n        uint256 currentPrice = getCurrentPrice();\n        \n        (bool existOfBuy, uint256 orderIdOfBuy) = getHeaderOrderIndex(true);\n        uint256 highestPriceOfBuy = existOfBuy ? getValue(orderIdOfBuy) : 0;\n        \n        (bool existOfSell, uint256 orderIdOfSell) = getHeaderOrderIndex(false);\n        uint256 lowestPriceOfSell = existOfSell ? getValue(orderIdOfSell) : uint256(-1);\n        \n        uint256 executedOrderId = 0;\n        if (currentPrice <= highestPriceOfBuy) {\n            executedOrderId = orderIdOfBuy;\n        } else if (currentPrice > lowestPriceOfSell) {\n            executedOrderId = orderIdOfSell;\n        }\n        if (executedOrderId > 0) {  \n            executeInnerOrder(executedOrderId);\n            return true;\n        }\n        return false;\n    }\n    \n    // \n    // \n    function checkOrderList() public {\n        uint256 maxNumberPerAMMSwap = exManager.maxNumberPerAMMSwap();\n        while(maxNumberPerAMMSwap-- > 0) {\n            bool result = executeHeaderOrder();\n            if (!result) break;\n        }\n    }\n    \n    function cancelOrder(uint256 _orderId) public returns(bool) {\n        setManualCancelOrder(_orderId); \n\n        NFTInfo memory orderInfo = orderNFT.getOrderInfo(_orderId); \n        address inToken = orderInfo.bBuyQuoteToken ? baseToken : quoteToken;\n        if (boboFarmer.tokenPidMap(inToken) > 0) {\n            boboFarmer.withdraw(inToken, orderInfo.owner, orderInfo.inAmount);\n            ERC20(inToken).transfer(orderInfo.owner, orderInfo.inAmount);\n        } else {\n            ERC20(inToken).transfer(orderInfo.owner, orderInfo.inAmount);\n        }\n    }\n    \n}",
  "sourcePath": "/Users/mryu/blockchain/bobo-metaverse/boboswap-contract/contracts/BoboPair.sol",
  "compiler": {
    "name": "solc",
    "version": "0.6.12+commit.27d51765.Emscripten.clang"
  },
  "schemaVersion": "3.4.3",
  "updatedAt": "2021-08-25T16:04:30.155Z",
  "devdoc": {
    "kind": "dev",
    "methods": {
      "owner()": {
        "details": "Returns the address of the current owner."
      },
      "renounceOwnership()": {
        "details": "Leaves the contract without owner. It will not be possible to call `onlyOwner` functions anymore. Can only be called by the current owner. NOTE: Renouncing ownership will leave the contract without an owner, thereby removing any functionality that is only available to the owner."
      },
      "transferOwnership(address)": {
        "details": "Transfers ownership of the contract to a new account (`newOwner`). Can only be called by the current owner."
      }
    },
    "version": 1
  },
  "userdoc": {
    "kind": "user",
    "methods": {},
    "version": 1
  }
}