{
  "contractName": "BoboFund",
  "abi": [
    {
      "inputs": [
        {
          "internalType": "contract IERC20",
          "name": "_bobo",
          "type": "address"
        }
      ],
      "stateMutability": "nonpayable",
      "type": "constructor"
    },
    {
      "anonymous": false,
      "inputs": [
        {
          "indexed": true,
          "internalType": "address",
          "name": "user",
          "type": "address"
        },
        {
          "indexed": true,
          "internalType": "uint256",
          "name": "pid",
          "type": "uint256"
        },
        {
          "indexed": false,
          "internalType": "uint256",
          "name": "amount",
          "type": "uint256"
        }
      ],
      "name": "Deposit",
      "type": "event"
    },
    {
      "anonymous": false,
      "inputs": [
        {
          "indexed": true,
          "internalType": "address",
          "name": "previousOwner",
          "type": "address"
        },
        {
          "indexed": true,
          "internalType": "address",
          "name": "newOwner",
          "type": "address"
        }
      ],
      "name": "OwnershipTransferred",
      "type": "event"
    },
    {
      "anonymous": false,
      "inputs": [
        {
          "indexed": true,
          "internalType": "address",
          "name": "user",
          "type": "address"
        },
        {
          "indexed": true,
          "internalType": "uint256",
          "name": "pid",
          "type": "uint256"
        },
        {
          "indexed": false,
          "internalType": "uint256",
          "name": "amount",
          "type": "uint256"
        }
      ],
      "name": "Withdraw",
      "type": "event"
    },
    {
      "inputs": [],
      "name": "bobo",
      "outputs": [
        {
          "internalType": "contract IERC20",
          "name": "",
          "type": "address"
        }
      ],
      "stateMutability": "view",
      "type": "function"
    },
    {
      "inputs": [],
      "name": "owner",
      "outputs": [
        {
          "internalType": "address",
          "name": "",
          "type": "address"
        }
      ],
      "stateMutability": "view",
      "type": "function"
    },
    {
      "inputs": [
        {
          "internalType": "uint256",
          "name": "",
          "type": "uint256"
        }
      ],
      "name": "poolInfo",
      "outputs": [
        {
          "internalType": "uint256",
          "name": "totalDepositAmount",
          "type": "uint256"
        },
        {
          "internalType": "uint256",
          "name": "allocPoint",
          "type": "uint256"
        },
        {
          "internalType": "uint256",
          "name": "lastRewardBoboAmount",
          "type": "uint256"
        },
        {
          "internalType": "uint256",
          "name": "accBoboPerShare",
          "type": "uint256"
        }
      ],
      "stateMutability": "view",
      "type": "function"
    },
    {
      "inputs": [],
      "name": "renounceOwnership",
      "outputs": [],
      "stateMutability": "nonpayable",
      "type": "function"
    },
    {
      "inputs": [],
      "name": "totalAllocPoint",
      "outputs": [
        {
          "internalType": "uint256",
          "name": "",
          "type": "uint256"
        }
      ],
      "stateMutability": "view",
      "type": "function"
    },
    {
      "inputs": [],
      "name": "totalBoboAmount",
      "outputs": [
        {
          "internalType": "uint256",
          "name": "",
          "type": "uint256"
        }
      ],
      "stateMutability": "view",
      "type": "function"
    },
    {
      "inputs": [
        {
          "internalType": "address",
          "name": "newOwner",
          "type": "address"
        }
      ],
      "name": "transferOwnership",
      "outputs": [],
      "stateMutability": "nonpayable",
      "type": "function"
    },
    {
      "inputs": [
        {
          "internalType": "uint256",
          "name": "",
          "type": "uint256"
        },
        {
          "internalType": "address",
          "name": "",
          "type": "address"
        }
      ],
      "name": "userInfo",
      "outputs": [
        {
          "internalType": "uint256",
          "name": "amount",
          "type": "uint256"
        },
        {
          "internalType": "uint256",
          "name": "rewardDebt",
          "type": "uint256"
        }
      ],
      "stateMutability": "view",
      "type": "function"
    },
    {
      "inputs": [],
      "name": "poolLength",
      "outputs": [
        {
          "internalType": "uint256",
          "name": "",
          "type": "uint256"
        }
      ],
      "stateMutability": "view",
      "type": "function"
    },
    {
      "inputs": [
        {
          "internalType": "uint256",
          "name": "_allocPoint",
          "type": "uint256"
        },
        {
          "internalType": "bool",
          "name": "_withUpdate",
          "type": "bool"
        }
      ],
      "name": "add",
      "outputs": [],
      "stateMutability": "nonpayable",
      "type": "function"
    },
    {
      "inputs": [
        {
          "internalType": "uint256",
          "name": "_pid",
          "type": "uint256"
        },
        {
          "internalType": "address",
          "name": "_user",
          "type": "address"
        },
        {
          "internalType": "uint256",
          "name": "_amount",
          "type": "uint256"
        }
      ],
      "name": "deposit",
      "outputs": [],
      "stateMutability": "nonpayable",
      "type": "function"
    },
    {
      "inputs": [
        {
          "internalType": "uint256",
          "name": "_pid",
          "type": "uint256"
        },
        {
          "internalType": "address",
          "name": "_user",
          "type": "address"
        }
      ],
      "name": "pendingBobo",
      "outputs": [
        {
          "internalType": "uint256",
          "name": "",
          "type": "uint256"
        }
      ],
      "stateMutability": "view",
      "type": "function"
    },
    {
      "inputs": [],
      "name": "massUpdatePools",
      "outputs": [],
      "stateMutability": "nonpayable",
      "type": "function"
    },
    {
      "inputs": [
        {
          "internalType": "uint256",
          "name": "_pid",
          "type": "uint256"
        }
      ],
      "name": "updatePool",
      "outputs": [],
      "stateMutability": "nonpayable",
      "type": "function"
    },
    {
      "inputs": [
        {
          "internalType": "uint256",
          "name": "_boboAmount",
          "type": "uint256"
        }
      ],
      "name": "transferBobo",
      "outputs": [],
      "stateMutability": "nonpayable",
      "type": "function"
    },
    {
      "inputs": [
        {
          "internalType": "uint256",
          "name": "_pid",
          "type": "uint256"
        }
      ],
      "name": "withdraw",
      "outputs": [],
      "stateMutability": "nonpayable",
      "type": "function"
    }
  ],
  "bytecode": "0x6080604052600060045534801561001557600080fd5b50604051611340380380611340833981016040819052610034916100b1565b600061003e6100ad565b600080546001600160a01b0319166001600160a01b0383169081178255604051929350917f8be0079c531659141344cd1fd0a4f28419497f9722a3daafe3b4186f6b6457e0908290a350600180546001600160a01b0319166001600160a01b03929092169190911790556100df565b3390565b6000602082840312156100c2578081fd5b81516001600160a01b03811681146100d8578182fd5b9392505050565b611252806100ee6000396000f3fe608060405234801561001057600080fd5b50600436106101005760003560e01c8063630b5ba111610097578063a7d4ed1f11610066578063a7d4ed1f146101df578063a94d831c146101f2578063bc157ac114610205578063f2fde38b1461021857610100565b8063630b5ba1146101a6578063715018a6146101ae5780638da5cb5b146101b657806393f1a40b146101be57610100565b80632e1a7d4d116100d35780632e1a7d4d1461016357806342bb5e35146101785780634fa87a0e1461018b57806351eb05a61461019357610100565b8063081e3eda146101055780631526fe271461012357806317caf6f1146101465780631a016c091461014e575b600080fd5b61010d61022b565b60405161011a91906111b0565b60405180910390f35b610136610131366004610e6a565b610231565b60405161011a94939291906111c7565b61010d610268565b61015661026e565b60405161011a9190610f46565b610176610171366004610e6a565b61027d565b005b61010d610186366004610e9a565b61038c565b61010d610468565b6101766101a1366004610e6a565b61046e565b610176610504565b610176610527565b6101566105a6565b6101d16101cc366004610e9a565b6105b5565b60405161011a9291906111b9565b6101766101ed366004610efb565b6105d9565b610176610200366004610e6a565b610703565b610176610213366004610ec6565b61072e565b610176610226366004610e33565b610877565b60025490565b6002818154811061023e57fe5b60009182526020909120600490910201805460018201546002830154600390930154919350919084565b60045481565b6001546001600160a01b031681565b60006002828154811061028c57fe5b6000918252602080832085845260038252604080852033865290925292208054600490920290920192506102db5760405162461bcd60e51b81526004016102d29061113a565b60405180910390fd5b6102e48361046e565b600061031e826001015461031864e8d4a510006103128760030154876000015461092d90919063ffffffff16565b9061096e565b906109b0565b905061032a33826109f2565b600383015482546103459164e8d4a51000916103129161092d565b6001830155604051849033907ff279e6a1f5e320cca91135676d9cb6e44ca8a08c0b88342bcdb1144f6511b5689061037e9085906111b0565b60405180910390a350505050565b6000806002848154811061039c57fe5b60009182526020808320878452600380835260408086206001600160a01b038a16875290935291909320600490920290920191820154825492935090911561043457600061040d600454610312866001015461040788600201546005546109b090919063ffffffff16565b9061092d565b845490915061043090610429906103128464e8d4a5100061092d565b8390610b92565b9150505b61045c826001015461031864e8d4a5100061031285876000015461092d90919063ffffffff16565b93505050505b92915050565b60055481565b60006002828154811061047d57fe5b90600052602060002090600402019050600554816002015414156104a15750610501565b60006104ca600454610312846001015461040786600201546005546109b090919063ffffffff16565b82549091506104f1906104e6906103128464e8d4a5100061092d565b600384015490610b92565b6003830155506005546002909101555b50565b60025460005b818110156105235761051b8161046e565b60010161050a565b5050565b61052f610bb7565b6000546001600160a01b0390811691161461055c5760405162461bcd60e51b81526004016102d2906110ce565b600080546040516001600160a01b03909116907f8be0079c531659141344cd1fd0a4f28419497f9722a3daafe3b4186f6b6457e0908390a3600080546001600160a01b0319169055565b6000546001600160a01b031690565b60036020908152600092835260408084209091529082529020805460019091015482565b6105e1610bb7565b6000546001600160a01b0390811691161461060e5760405162461bcd60e51b81526004016102d2906110ce565b801561061c5761061c610504565b6004546106299083610b92565b600490815560408051608081018252600080825260208201958652918101828152606082018381526002805460018101825594529151929093027f405787fa12a823e0f2b7631cc41b3ba8828b3321ca811111fa75cd3aa3bb5ace81019290925593517f405787fa12a823e0f2b7631cc41b3ba8828b3321ca811111fa75cd3aa3bb5acf82015590517f405787fa12a823e0f2b7631cc41b3ba8828b3321ca811111fa75cd3aa3bb5ad082015591517f405787fa12a823e0f2b7631cc41b3ba8828b3321ca811111fa75cd3aa3bb5ad19092019190915550565b60015461071b906001600160a01b0316333084610bbb565b6005546107289082610b92565b60055550565b610736610bb7565b6000546001600160a01b039081169116146107635760405162461bcd60e51b81526004016102d2906110ce565b60006002848154811061077257fe5b600091825260208083208784526003825260408085206001600160a01b03891686529092529220600490910290910191506107ac8561046e565b8054156107ef5760006107e1826001015461031864e8d4a510006103128760030154876000015461092d90919063ffffffff16565b90506107ed85826109f2565b505b81546107fb9084610b92565b825580546108099084610b92565b80825560038301546108269164e8d4a5100091610312919061092d565b816001018190555084846001600160a01b03167f90890809c654f11d6e72a28fa60149770a0d11ec6c92319d6ceb2bb0a4ea1a158560405161086891906111b0565b60405180910390a35050505050565b61087f610bb7565b6000546001600160a01b039081169116146108ac5760405162461bcd60e51b81526004016102d2906110ce565b6001600160a01b0381166108d25760405162461bcd60e51b81526004016102d290610fca565b600080546040516001600160a01b03808516939216917f8be0079c531659141344cd1fd0a4f28419497f9722a3daafe3b4186f6b6457e091a3600080546001600160a01b0319166001600160a01b0392909216919091179055565b60008261093c57506000610462565b8282028284828161094957fe5b04146109675760405162461bcd60e51b81526004016102d29061108d565b9392505050565b600061096783836040518060400160405280601a81526020017f536166654d6174683a206469766973696f6e206279207a65726f000000000000815250610c13565b600061096783836040518060400160405280601e81526020017f536166654d6174683a207375627472616374696f6e206f766572666c6f770000815250610c4a565b6001546040516370a0823160e01b81526000916001600160a01b0316906370a0823190610a23903090600401610f46565b60206040518083038186803b158015610a3b57600080fd5b505afa158015610a4f573d6000803e3d6000fd5b505050506040513d601f19601f82011682018060405250810190610a739190610e82565b905080821115610b075760015460405163a9059cbb60e01b81526001600160a01b039091169063a9059cbb90610aaf9086908590600401610f7e565b602060405180830381600087803b158015610ac957600080fd5b505af1158015610add573d6000803e3d6000fd5b505050506040513d601f19601f82011682018060405250810190610b019190610e4e565b50610b8d565b60015460405163a9059cbb60e01b81526001600160a01b039091169063a9059cbb90610b399086908690600401610f7e565b602060405180830381600087803b158015610b5357600080fd5b505af1158015610b67573d6000803e3d6000fd5b505050506040513d601f19601f82011682018060405250810190610b8b9190610e4e565b505b505050565b6000828201838110156109675760405162461bcd60e51b81526004016102d290611010565b3390565b610b8b846323b872dd60e01b858585604051602401610bdc93929190610f5a565b60408051601f198184030181529190526020810180516001600160e01b03166001600160e01b031990931692909217909152610c76565b60008183610c345760405162461bcd60e51b81526004016102d29190610f97565b506000838581610c4057fe5b0495945050505050565b60008184841115610c6e5760405162461bcd60e51b81526004016102d29190610f97565b505050900390565b6060610ccb826040518060400160405280602081526020017f5361666545524332303a206c6f772d6c6576656c2063616c6c206661696c6564815250856001600160a01b0316610d059092919063ffffffff16565b805190915015610b8d5780806020019051810190610ce99190610e4e565b610b8d5760405162461bcd60e51b81526004016102d290611166565b6060610d148484600085610d1c565b949350505050565b606082471015610d3e5760405162461bcd60e51b81526004016102d290611047565b610d4785610ddd565b610d635760405162461bcd60e51b81526004016102d290611103565b60006060866001600160a01b03168587604051610d809190610f2a565b60006040518083038185875af1925050503d8060008114610dbd576040519150601f19603f3d011682016040523d82523d6000602084013e610dc2565b606091505b5091509150610dd2828286610de3565b979650505050505050565b3b151590565b60608315610df2575081610967565b825115610e025782518084602001fd5b8160405162461bcd60e51b81526004016102d29190610f97565b80356001600160a01b038116811461046257600080fd5b600060208284031215610e44578081fd5b6109678383610e1c565b600060208284031215610e5f578081fd5b81516109678161120e565b600060208284031215610e7b578081fd5b5035919050565b600060208284031215610e93578081fd5b5051919050565b60008060408385031215610eac578081fd5b82359150610ebd8460208501610e1c565b90509250929050565b600080600060608486031215610eda578081fd5b83359250610eeb8560208601610e1c565b9150604084013590509250925092565b60008060408385031215610f0d578182fd5b823591506020830135610f1f8161120e565b809150509250929050565b60008251610f3c8184602087016111e2565b9190910192915050565b6001600160a01b0391909116815260200190565b6001600160a01b039384168152919092166020820152604081019190915260600190565b6001600160a01b03929092168252602082015260400190565b6000602082528251806020840152610fb68160408501602087016111e2565b601f01601f19169190910160400192915050565b60208082526026908201527f4f776e61626c653a206e6577206f776e657220697320746865207a65726f206160408201526564647265737360d01b606082015260800190565b6020808252601b908201527f536166654d6174683a206164646974696f6e206f766572666c6f770000000000604082015260600190565b60208082526026908201527f416464726573733a20696e73756666696369656e742062616c616e636520666f6040820152651c8818d85b1b60d21b606082015260800190565b60208082526021908201527f536166654d6174683a206d756c7469706c69636174696f6e206f766572666c6f6040820152607760f81b606082015260800190565b6020808252818101527f4f776e61626c653a2063616c6c6572206973206e6f7420746865206f776e6572604082015260600190565b6020808252601d908201527f416464726573733a2063616c6c20746f206e6f6e2d636f6e7472616374000000604082015260600190565b6020808252601290820152711dda5d1a191c985dce881b9bdd0819dbdbd960721b604082015260600190565b6020808252602a908201527f5361666545524332303a204552433230206f7065726174696f6e20646964206e6040820152691bdd081cdd58d8d9595960b21b606082015260800190565b90815260200190565b918252602082015260400190565b93845260208401929092526040830152606082015260800190565b60005b838110156111fd5781810151838201526020016111e5565b83811115610b8b5750506000910152565b801515811461050157600080fdfea26469706673582212207fcb5f3722795586513e138119fb4941668fda4489f32b3f48c387d833e303d464736f6c634300060c0033",
  "immutableReferences": {},
  "source": "// SPDX-License-Identifier: MIT\npragma solidity ^0.6.0;\npragma experimental ABIEncoderV2;\n        \nimport \"./common/BasicStruct.sol\";\n\n// BoboBOBO\n// 15%\n// 15%\n// 10%\ncontract BoboFund is Ownable {\n    using SafeMath for uint256;\n    using SafeERC20 for IERC20;\n\n    // Info of each user.\n    struct UserInfo {\n        uint256 amount;\n        uint256 rewardDebt;  \n    }\n\n    // Info of each pool.\n    struct PoolInfo {\n        uint256 totalDepositAmount;\n        uint256 allocPoint;       \n        uint256 lastRewardBoboAmount;  \n        uint256 accBoboPerShare; \n    }\n\n    IERC20 public bobo;\n\n    PoolInfo[] public poolInfo;\n    mapping (uint256 => mapping (address => UserInfo)) public userInfo;\n    uint256 public totalAllocPoint = 0;\n    uint256 public totalBoboAmount;\n\n    event Deposit(address indexed user, uint256 indexed pid, uint256 amount);\n    event Withdraw(address indexed user, uint256 indexed pid, uint256 amount);\n\n    constructor(\n        IERC20 _bobo\n    ) public {\n        bobo = _bobo;\n    }\n\n    function poolLength() external view returns (uint256) {\n        return poolInfo.length;\n    }\n\n    // LP\n    function add(uint256 _allocPoint, bool _withUpdate) public onlyOwner {\n        if (_withUpdate) {\n            massUpdatePools();\n        }\n        totalAllocPoint = totalAllocPoint.add(_allocPoint);   // \n        poolInfo.push(PoolInfo({\n            totalDepositAmount: 0,\n            allocPoint: _allocPoint,\n            lastRewardBoboAmount: 0,\n            accBoboPerShare: 0\n        }));\n    }\n    // \n    function deposit(uint256 _pid, address _user, uint256 _amount) public onlyOwner {\n        PoolInfo storage pool = poolInfo[_pid];            // \n        UserInfo storage user = userInfo[_pid][_user];  // \n        updatePool(_pid);\n        if (user.amount > 0) {\n            // pending\n            uint256 pending = user.amount.mul(pool.accBoboPerShare).div(1e12).sub(user.rewardDebt);\n            safeBoboTransfer(_user, pending);\n        }\n        pool.totalDepositAmount = pool.totalDepositAmount.add(_amount);\n        user.amount = user.amount.add(_amount);          // LPLP\n        user.rewardDebt = user.amount.mul(pool.accBoboPerShare).div(1e12);    \n        emit Deposit(_user, _pid, _amount);\n    }\n\n    // bobo\n    function pendingBobo(uint256 _pid, address _user) external view returns (uint256) {\n        PoolInfo storage pool = poolInfo[_pid];\n        UserInfo storage user = userInfo[_pid][_user];\n\n        uint256 accBoboPerShare = pool.accBoboPerShare;\n        if (pool.totalDepositAmount != 0) {\n            // bobo\n            uint256 boboReward = totalBoboAmount.sub(pool.lastRewardBoboAmount).mul(pool.allocPoint).div(totalAllocPoint);\n            accBoboPerShare = accBoboPerShare.add(boboReward.mul(1e12).div(pool.totalDepositAmount));\n        }\n        return user.amount.mul(accBoboPerShare).div(1e12).sub(user.rewardDebt);  \n    }\n\n    // \n    function massUpdatePools() public {\n        uint256 length = poolInfo.length;\n        for (uint256 pid = 0; pid < length; ++pid) {\n            updatePool(pid);\n        }\n    }\n\n    // 10%bobo\n    function updatePool(uint256 _pid) public {\n        PoolInfo storage pool = poolInfo[_pid];\n                \n        if (pool.lastRewardBoboAmount == totalBoboAmount) {\n            return;\n        }\n        uint256 boboReward = totalBoboAmount.sub(pool.lastRewardBoboAmount).mul(pool.allocPoint).div(totalAllocPoint);   // bobo\n        pool.accBoboPerShare = pool.accBoboPerShare.add(boboReward.mul(1e12).div(pool.totalDepositAmount));  // lpbobo\n        pool.lastRewardBoboAmount = totalBoboAmount;        // BOBO\n    }\n\n    function transferBobo(uint256 _boboAmount) public {\n        bobo.safeTransferFrom(msg.sender, address(this), _boboAmount);\n        totalBoboAmount = totalBoboAmount.add(_boboAmount);\n    }\n    // BOBO\n    function withdraw(uint256 _pid) public {\n        PoolInfo storage pool = poolInfo[_pid];\n        UserInfo storage user = userInfo[_pid][msg.sender];\n        require(user.amount > 0, \"withdraw: not good\");\n        updatePool(_pid);\n        uint256 pending = user.amount.mul(pool.accBoboPerShare).div(1e12).sub(user.rewardDebt);\n        safeBoboTransfer(msg.sender, pending);\n        user.rewardDebt = user.amount.mul(pool.accBoboPerShare).div(1e12);\n        emit Withdraw(msg.sender, _pid, pending);\n    }\n\n    // bobo.\n    function safeBoboTransfer(address _to, uint256 _amount) internal {\n        uint256 boboBal = bobo.balanceOf(address(this));\n        if (_amount > boboBal) {\n            bobo.transfer(_to, boboBal);\n        } else {\n            bobo.transfer(_to, _amount);\n        }\n    }\n}",
  "sourcePath": "/Users/mryu/blockchain/bobo-metaverse/boboswap-contract/contracts/BoboFund.sol",
  "compiler": {
    "name": "solc",
    "version": "0.6.12+commit.27d51765.Emscripten.clang"
  },
  "schemaVersion": "3.4.3",
  "updatedAt": "2021-08-28T14:58:02.441Z",
  "devdoc": {
    "kind": "dev",
    "methods": {
      "owner()": {
        "details": "Returns the address of the current owner."
      },
      "renounceOwnership()": {
        "details": "Leaves the contract without owner. It will not be possible to call `onlyOwner` functions anymore. Can only be called by the current owner. NOTE: Renouncing ownership will leave the contract without an owner, thereby removing any functionality that is only available to the owner."
      },
      "transferOwnership(address)": {
        "details": "Transfers ownership of the contract to a new account (`newOwner`). Can only be called by the current owner."
      }
    },
    "version": 1
  },
  "userdoc": {
    "kind": "user",
    "methods": {},
    "version": 1
  }
}