{
  "contractName": "BoboFarmer",
  "abi": [
    {
      "inputs": [
        {
          "internalType": "address",
          "name": "_boboTokenAddress",
          "type": "address"
        },
        {
          "internalType": "uint256",
          "name": "_startBlock",
          "type": "uint256"
        },
        {
          "internalType": "address",
          "name": "_fundAddr",
          "type": "address"
        }
      ],
      "stateMutability": "nonpayable",
      "type": "constructor"
    },
    {
      "anonymous": false,
      "inputs": [
        {
          "indexed": true,
          "internalType": "address",
          "name": "_tokenAddr",
          "type": "address"
        },
        {
          "indexed": true,
          "internalType": "address",
          "name": "user",
          "type": "address"
        },
        {
          "indexed": false,
          "internalType": "uint256",
          "name": "amount",
          "type": "uint256"
        }
      ],
      "name": "Deposit",
      "type": "event"
    },
    {
      "anonymous": false,
      "inputs": [
        {
          "indexed": true,
          "internalType": "address",
          "name": "_tokenAddr",
          "type": "address"
        },
        {
          "indexed": true,
          "internalType": "address",
          "name": "user",
          "type": "address"
        },
        {
          "indexed": false,
          "internalType": "uint256",
          "name": "amount",
          "type": "uint256"
        }
      ],
      "name": "EmergencyWithdraw",
      "type": "event"
    },
    {
      "anonymous": false,
      "inputs": [
        {
          "indexed": true,
          "internalType": "address",
          "name": "previousOwner",
          "type": "address"
        },
        {
          "indexed": true,
          "internalType": "address",
          "name": "newOwner",
          "type": "address"
        }
      ],
      "name": "OwnershipTransferred",
      "type": "event"
    },
    {
      "anonymous": false,
      "inputs": [
        {
          "indexed": true,
          "internalType": "address",
          "name": "_tokenAddr",
          "type": "address"
        },
        {
          "indexed": true,
          "internalType": "address",
          "name": "user",
          "type": "address"
        },
        {
          "indexed": false,
          "internalType": "uint256",
          "name": "amount",
          "type": "uint256"
        }
      ],
      "name": "Withdraw",
      "type": "event"
    },
    {
      "inputs": [
        {
          "internalType": "address",
          "name": "",
          "type": "address"
        }
      ],
      "name": "_auth",
      "outputs": [
        {
          "internalType": "bool",
          "name": "",
          "type": "bool"
        }
      ],
      "stateMutability": "view",
      "type": "function",
      "constant": true
    },
    {
      "inputs": [
        {
          "internalType": "address",
          "name": "_authorizedAddr",
          "type": "address"
        }
      ],
      "name": "addAuthorized",
      "outputs": [
        {
          "internalType": "bool",
          "name": "",
          "type": "bool"
        }
      ],
      "stateMutability": "nonpayable",
      "type": "function"
    },
    {
      "inputs": [],
      "name": "boboPerBlock",
      "outputs": [
        {
          "internalType": "uint256",
          "name": "",
          "type": "uint256"
        }
      ],
      "stateMutability": "view",
      "type": "function",
      "constant": true
    },
    {
      "inputs": [],
      "name": "boboTokenAddr",
      "outputs": [
        {
          "internalType": "address",
          "name": "",
          "type": "address"
        }
      ],
      "stateMutability": "view",
      "type": "function",
      "constant": true
    },
    {
      "inputs": [],
      "name": "burnAddress",
      "outputs": [
        {
          "internalType": "address",
          "name": "",
          "type": "address"
        }
      ],
      "stateMutability": "view",
      "type": "function",
      "constant": true
    },
    {
      "inputs": [
        {
          "internalType": "address",
          "name": "_authorizedAddr",
          "type": "address"
        }
      ],
      "name": "delAuthorized",
      "outputs": [
        {
          "internalType": "bool",
          "name": "",
          "type": "bool"
        }
      ],
      "stateMutability": "nonpayable",
      "type": "function"
    },
    {
      "inputs": [],
      "name": "fundAddr",
      "outputs": [
        {
          "internalType": "address",
          "name": "",
          "type": "address"
        }
      ],
      "stateMutability": "view",
      "type": "function",
      "constant": true
    },
    {
      "inputs": [
        {
          "internalType": "uint256",
          "name": "_index",
          "type": "uint256"
        }
      ],
      "name": "getAuthorized",
      "outputs": [
        {
          "internalType": "address",
          "name": "",
          "type": "address"
        }
      ],
      "stateMutability": "view",
      "type": "function",
      "constant": true
    },
    {
      "inputs": [],
      "name": "getAuthorizedLength",
      "outputs": [
        {
          "internalType": "uint256",
          "name": "",
          "type": "uint256"
        }
      ],
      "stateMutability": "view",
      "type": "function",
      "constant": true
    },
    {
      "inputs": [
        {
          "internalType": "address",
          "name": "_authorizedAddr",
          "type": "address"
        }
      ],
      "name": "isAuthorized",
      "outputs": [
        {
          "internalType": "bool",
          "name": "",
          "type": "bool"
        }
      ],
      "stateMutability": "view",
      "type": "function",
      "constant": true
    },
    {
      "inputs": [],
      "name": "owner",
      "outputs": [
        {
          "internalType": "address",
          "name": "",
          "type": "address"
        }
      ],
      "stateMutability": "view",
      "type": "function",
      "constant": true
    },
    {
      "inputs": [
        {
          "internalType": "uint256",
          "name": "",
          "type": "uint256"
        }
      ],
      "name": "poolInfo",
      "outputs": [
        {
          "internalType": "contract IERC20",
          "name": "want",
          "type": "address"
        },
        {
          "internalType": "uint256",
          "name": "allocPoint",
          "type": "uint256"
        },
        {
          "internalType": "uint256",
          "name": "lastRewardBlock",
          "type": "uint256"
        },
        {
          "internalType": "uint256",
          "name": "accBOBOPerShare",
          "type": "uint256"
        },
        {
          "internalType": "address",
          "name": "strat",
          "type": "address"
        }
      ],
      "stateMutability": "view",
      "type": "function",
      "constant": true
    },
    {
      "inputs": [],
      "name": "renounceOwnership",
      "outputs": [],
      "stateMutability": "nonpayable",
      "type": "function"
    },
    {
      "inputs": [],
      "name": "startBlock",
      "outputs": [
        {
          "internalType": "uint256",
          "name": "",
          "type": "uint256"
        }
      ],
      "stateMutability": "view",
      "type": "function",
      "constant": true
    },
    {
      "inputs": [
        {
          "internalType": "address",
          "name": "",
          "type": "address"
        }
      ],
      "name": "tokenPidMap",
      "outputs": [
        {
          "internalType": "uint256",
          "name": "",
          "type": "uint256"
        }
      ],
      "stateMutability": "view",
      "type": "function",
      "constant": true
    },
    {
      "inputs": [],
      "name": "totalAllocPoint",
      "outputs": [
        {
          "internalType": "uint256",
          "name": "",
          "type": "uint256"
        }
      ],
      "stateMutability": "view",
      "type": "function",
      "constant": true
    },
    {
      "inputs": [
        {
          "internalType": "address",
          "name": "newOwner",
          "type": "address"
        }
      ],
      "name": "transferOwnership",
      "outputs": [],
      "stateMutability": "nonpayable",
      "type": "function"
    },
    {
      "inputs": [
        {
          "internalType": "uint256",
          "name": "",
          "type": "uint256"
        },
        {
          "internalType": "address",
          "name": "",
          "type": "address"
        }
      ],
      "name": "userInfo",
      "outputs": [
        {
          "internalType": "uint256",
          "name": "shares",
          "type": "uint256"
        },
        {
          "internalType": "uint256",
          "name": "rewardDebt",
          "type": "uint256"
        }
      ],
      "stateMutability": "view",
      "type": "function",
      "constant": true
    },
    {
      "inputs": [
        {
          "internalType": "address",
          "name": "_fundAddr",
          "type": "address"
        }
      ],
      "name": "setFundAddr",
      "outputs": [],
      "stateMutability": "nonpayable",
      "type": "function"
    },
    {
      "inputs": [
        {
          "internalType": "uint256",
          "name": "_boboPerBlock",
          "type": "uint256"
        }
      ],
      "name": "setBoboPerBlock",
      "outputs": [],
      "stateMutability": "nonpayable",
      "type": "function"
    },
    {
      "inputs": [],
      "name": "poolLength",
      "outputs": [
        {
          "internalType": "uint256",
          "name": "",
          "type": "uint256"
        }
      ],
      "stateMutability": "view",
      "type": "function",
      "constant": true
    },
    {
      "inputs": [
        {
          "internalType": "uint256",
          "name": "_allocPoint",
          "type": "uint256"
        },
        {
          "internalType": "address",
          "name": "_want",
          "type": "address"
        },
        {
          "internalType": "bool",
          "name": "_withUpdate",
          "type": "bool"
        },
        {
          "internalType": "address",
          "name": "_strat",
          "type": "address"
        }
      ],
      "name": "add",
      "outputs": [],
      "stateMutability": "nonpayable",
      "type": "function"
    },
    {
      "inputs": [
        {
          "internalType": "address",
          "name": "_tokenAddr",
          "type": "address"
        },
        {
          "internalType": "uint256",
          "name": "_allocPoint",
          "type": "uint256"
        },
        {
          "internalType": "bool",
          "name": "_withUpdate",
          "type": "bool"
        }
      ],
      "name": "setPoolPoint",
      "outputs": [],
      "stateMutability": "nonpayable",
      "type": "function"
    },
    {
      "inputs": [
        {
          "internalType": "uint256",
          "name": "_from",
          "type": "uint256"
        },
        {
          "internalType": "uint256",
          "name": "_to",
          "type": "uint256"
        }
      ],
      "name": "getMultiplier",
      "outputs": [
        {
          "internalType": "uint256",
          "name": "",
          "type": "uint256"
        }
      ],
      "stateMutability": "pure",
      "type": "function",
      "constant": true
    },
    {
      "inputs": [
        {
          "internalType": "address",
          "name": "_tokenAddr",
          "type": "address"
        },
        {
          "internalType": "address",
          "name": "_user",
          "type": "address"
        }
      ],
      "name": "pendingBOBO",
      "outputs": [
        {
          "internalType": "uint256",
          "name": "",
          "type": "uint256"
        }
      ],
      "stateMutability": "view",
      "type": "function",
      "constant": true
    },
    {
      "inputs": [
        {
          "internalType": "address",
          "name": "_tokenAddr",
          "type": "address"
        },
        {
          "internalType": "address",
          "name": "_user",
          "type": "address"
        }
      ],
      "name": "stakedWantTokens",
      "outputs": [
        {
          "internalType": "uint256",
          "name": "",
          "type": "uint256"
        }
      ],
      "stateMutability": "view",
      "type": "function",
      "constant": true
    },
    {
      "inputs": [],
      "name": "massUpdatePools",
      "outputs": [],
      "stateMutability": "nonpayable",
      "type": "function"
    },
    {
      "inputs": [
        {
          "internalType": "uint256",
          "name": "_pid",
          "type": "uint256"
        }
      ],
      "name": "updatePool",
      "outputs": [],
      "stateMutability": "nonpayable",
      "type": "function"
    },
    {
      "inputs": [
        {
          "internalType": "address",
          "name": "_tokenAddr",
          "type": "address"
        },
        {
          "internalType": "address",
          "name": "_userAddr",
          "type": "address"
        },
        {
          "internalType": "uint256",
          "name": "_wantAmt",
          "type": "uint256"
        }
      ],
      "name": "deposit",
      "outputs": [],
      "stateMutability": "nonpayable",
      "type": "function"
    },
    {
      "inputs": [
        {
          "internalType": "uint256",
          "name": "_orderId",
          "type": "uint256"
        }
      ],
      "name": "depositOrderNFT",
      "outputs": [],
      "stateMutability": "nonpayable",
      "type": "function"
    },
    {
      "inputs": [
        {
          "internalType": "address",
          "name": "_tokenAddr",
          "type": "address"
        },
        {
          "internalType": "address",
          "name": "_userAddr",
          "type": "address"
        },
        {
          "internalType": "uint256",
          "name": "_wantAmt",
          "type": "uint256"
        }
      ],
      "name": "withdraw",
      "outputs": [],
      "stateMutability": "nonpayable",
      "type": "function"
    },
    {
      "inputs": [
        {
          "internalType": "address",
          "name": "_tokenAddr",
          "type": "address"
        },
        {
          "internalType": "address",
          "name": "_newStratAddr",
          "type": "address"
        }
      ],
      "name": "migrateNewStrat",
      "outputs": [],
      "stateMutability": "nonpayable",
      "type": "function"
    }
  ],
  "bytecode": "0x6080604052600580546001600160a01b03191661dead1790556000600b553480156200002a57600080fd5b5060405162002ddd38038062002ddd8339810160408190526200004d9162000102565b600062000059620000e0565b600080546001600160a01b0319166001600160a01b0383169081178255604051929350917f8be0079c531659141344cd1fd0a4f28419497f9722a3daafe3b4186f6b6457e0908290a3506001600355600480546001600160a01b039485166001600160a01b0319918216179091556008929092556006805491909316911617905562000144565b3390565b80516001600160a01b0381168114620000fc57600080fd5b92915050565b60008060006060848603121562000117578283fd5b620001238585620000e4565b9250602084015191506200013b8560408601620000e4565b90509250925092565b612c8980620001546000396000f3fe608060405234801561001057600080fd5b50600436106101f05760003560e01c8063715018a61161010f578063cf1c316a116100a2578063e6a0802511610071578063e6a08025146103ec578063ec2f83da146103ff578063f2fde38b14610407578063fe9fbb801461041a576101f0565b8063cf1c316a146103ab578063d0f2ced1146103be578063d8fc5d7b146103d1578063d9caed12146103d9576101f0565b80638dbb1e3a116100de5780638dbb1e3a1461035157806393ce61ae1461036457806393f1a40b14610377578063c63cc56414610398576101f0565b8063715018a61461031b5780638340f549146103235780638d1afc46146103365780638da5cb5b14610349576101f0565b806348cd4cb111610187578063682cb91111610156578063682cb911146102d85780636f39cfcd146102ed578063704b02481461030057806370d5ae0514610313576101f0565b806348cd4cb1146102a257806351eb05a6146102aa5780635f70edcf146102bd578063630b5ba1146102d0576101f0565b80631de47f28116101c35780631de47f281461025f5780632013af351461027457806331a40b62146102875780633397e5271461029a576101f0565b8063081e3eda146101f55780631526fe271461021357806317caf6f11461023757806319c2146b1461023f575b600080fd5b6101fd61042d565b60405161020a9190612bd6565b60405180910390f35b610226610221366004612535565b610433565b60405161020a9594939291906126d2565b6101fd61047e565b61025261024d366004612428565b610484565b60405161020a91906126c7565b61027261026d366004612535565b610499565b005b6101fd610282366004612460565b6104e4565b610252610295366004612428565b6106be565b6101fd610726565b6101fd610737565b6102726102b8366004612535565b61073d565b6102726102cb366004612589565b61099f565b610272610c25565b6102e0610c48565b60405161020a919061263b565b6102726102fb366004612428565b610c57565b61027261030e366004612535565b61099c565b6102e0610cae565b610272610cbd565b610272610331366004612498565b610d3c565b6102726103443660046124d8565b610fc3565b6102e06110c4565b6101fd61035f3660046125db565b6110d3565b610272610372366004612460565b6110e6565b61038a610385366004612565565b61140b565b60405161020a929190612bf6565b6102e06103a6366004612535565b61142f565b6102526103b9366004612428565b611466565b6101fd6103cc366004612460565b6114ce565b6101fd611701565b6102726103e7366004612498565b611707565b6101fd6103fa366004612428565b611b77565b6102e0611b89565b610272610415366004612428565b611b98565b610252610428366004612428565b611c4e565b60095490565b6009818154811061044057fe5b6000918252602090912060059091020180546001820154600283015460038401546004909401546001600160a01b0393841695509193909290911685565b600b5481565b600d6020526000908152604090205460ff1681565b6104a1611c5b565b6000546001600160a01b039081169116146104d75760405162461bcd60e51b81526004016104ce90612957565b60405180910390fd5b6104df610c25565b600755565b6001600160a01b0382166000908152600c60205260408120546105195760405162461bcd60e51b81526004016104ce9061282b565b6001600160a01b0383166000908152600c60205260408120546009805460001990920192918390811061054857fe5b60009182526020808320858452600a825260408085206001600160a01b03808b1687529352808520600360059095029092019384015460048086015486549351631190d9e560e11b815296985093969195919493841693632321b3ca936105b2939116910161263b565b60206040518083038186803b1580156105ca57600080fd5b505afa1580156105de573d6000803e3d6000fd5b505050506040513d601f19601f82011682018060405250810190610602919061254d565b905083600201544311801561061657508015155b1561068257600061062b8560020154436110d3565b9050600061065e600b54610658886001015461065260075487611c5f90919063ffffffff16565b90611c5f565b90611c99565b905061067d610676846106588464e8d4a51000611c5f565b8590611cdb565b935050505b6106b083600101546106aa64e8d4a51000610658868860000154611c5f90919063ffffffff16565b90611d00565b955050505050505b92915050565b60006106c8611c5b565b6000546001600160a01b039081169116146106f55760405162461bcd60e51b81526004016104ce90612957565b6001600160a01b03821661071b5760405162461bcd60e51b81526004016104ce90612b81565b6106b8600183611d42565b60006107326001611d57565b905090565b60085481565b60006009828154811061074c57fe5b906000526020600020906005020190508060020154431161076d575061099c565b6004808201548254604051631190d9e560e11b81526000936001600160a01b0393841693632321b3ca936107a4939116910161263b565b60206040518083038186803b1580156107bc57600080fd5b505afa1580156107d0573d6000803e3d6000fd5b505050506040513d601f19601f820116820180604052508101906107f4919061254d565b90508061080857504360029091015561099c565b60006108188360020154436110d3565b90506000811161082a5750505061099c565b600061084f600b54610658866001015461065260075487611c5f90919063ffffffff16565b600480546040516340c10f1960e01b81529293506001600160a01b0316916340c10f199161088191309186910161268d565b602060405180830381600087803b15801561089b57600080fd5b505af11580156108af573d6000803e3d6000fd5b505050506040513d601f19601f820116820180604052508101906108d39190612519565b506004546006546001600160a01b03918216916340c10f1991166108f8846003611c99565b6040518363ffffffff1660e01b815260040161091592919061268d565b602060405180830381600087803b15801561092f57600080fd5b505af1158015610943573d6000803e3d6000fd5b505050506040513d601f19601f820116820180604052508101906109679190612519565b5061098961097e846106588464e8d4a51000611c5f565b600386015490611cdb565b6003850155505043600290920191909155505b50565b6109a7611c5b565b6000546001600160a01b039081169116146109d45760405162461bcd60e51b81526004016104ce90612957565b6001600160a01b0383166000908152600c602052604090205415610a0a5760405162461bcd60e51b81526004016104ce906128df565b306001600160a01b0316816001600160a01b0316638da5cb5b6040518163ffffffff1660e01b8152600401602060405180830381600087803b158015610a4f57600080fd5b505af1158015610a63573d6000803e3d6000fd5b505050506040513d601f19601f82011682018060405250810190610a879190612444565b6001600160a01b031614610aad5760405162461bcd60e51b81526004016104ce90612a38565b8115610abb57610abb610c25565b60006008544311610ace57600854610ad0565b435b600b54909150610ae09086611cdb565b600b556040805160a0810182526001600160a01b0395861680825260208083019889528284019485526000606084018181529689166080850190815260098054600181018255818452955160059096027f6e1540171b6c0c960b71a7020d9f60077f6af931a8bbf590da0223dacf75c7af81018054978d166001600160a01b03199889161790559b517f6e1540171b6c0c960b71a7020d9f60077f6af931a8bbf590da0223dacf75c7b08d015596517f6e1540171b6c0c960b71a7020d9f60077f6af931a8bbf590da0223dacf75c7b18c015596517f6e1540171b6c0c960b71a7020d9f60077f6af931a8bbf590da0223dacf75c7b28b015595517f6e1540171b6c0c960b71a7020d9f60077f6af931a8bbf590da0223dacf75c7b390990180549990981698909216979097179095559054948252600c909352919091209190915550565b60095460005b81811015610c4457610c3c8161073d565b600101610c2b565b5050565b6006546001600160a01b031681565b610c5f611c5b565b6000546001600160a01b03908116911614610c8c5760405162461bcd60e51b81526004016104ce90612957565b600680546001600160a01b0319166001600160a01b0392909216919091179055565b6005546001600160a01b031681565b610cc5611c5b565b6000546001600160a01b03908116911614610cf25760405162461bcd60e51b81526004016104ce90612957565b600080546040516001600160a01b03909116907f8be0079c531659141344cd1fd0a4f28419497f9722a3daafe3b4186f6b6457e0908390a3600080546001600160a01b0319169055565b60026003541415610d5f5760405162461bcd60e51b81526004016104ce90612af5565b6002600355610d6d33611c4e565b610d895760405162461bcd60e51b81526004016104ce906129d2565b6001600160a01b0383166000908152600c6020526040902054610dbe5760405162461bcd60e51b81526004016104ce9061282b565b6001600160a01b0383166000908152600c602052604090205460001901610de48161073d565b600060098281548110610df357fe5b60009182526020808320858452600a825260408085206001600160a01b038a168652909252922080546005909202909201925015610e6d576000610e5982600101546106aa64e8d4a5100061065887600301548760000154611c5f90919063ffffffff16565b90508015610e6b57610e6b8682611d62565b505b8315610f48578154610e8a906001600160a01b0316333087611f01565b60048201548254610ea8916001600160a01b03918216911686611f59565b6004808301548354604051636e553f6560e01b81526000936001600160a01b0393841693636e553f6593610ee3938b93919092169101612bdf565b602060405180830381600087803b158015610efd57600080fd5b505af1158015610f11573d6000803e3d6000fd5b505050506040513d601f19601f82011682018060405250810190610f35919061254d565b8254909150610f449082611cdb565b8255505b60038201548154610f639164e8d4a510009161065891611c5f565b8160010181905550846001600160a01b0316866001600160a01b03167f5548c837ab068cf56a2c2479df0882a4922fd203edb7517321831d95078c5f6286604051610fae9190612bd6565b60405180910390a35050600160035550505050565b610fcb611c5b565b6000546001600160a01b03908116911614610ff85760405162461bcd60e51b81526004016104ce90612957565b6001600160a01b0383166000908152600c602052604090205461102d5760405162461bcd60e51b81526004016104ce9061282b565b6001600160a01b0383166000908152600c602052604090205460001901811561105857611058610c25565b6110958361108f6009848154811061106c57fe5b906000526020600020906005020160010154600b54611d0090919063ffffffff16565b90611cdb565b600b8190555082600982815481106110a957fe5b90600052602060002090600502016001018190555050505050565b6000546001600160a01b031690565b60006110df8284611d00565b9392505050565b6110ee611c5b565b6000546001600160a01b0390811691161461111b5760405162461bcd60e51b81526004016104ce90612957565b6001600160a01b0382166000908152600c60205260409020546111505760405162461bcd60e51b81526004016104ce9061282b565b6001600160a01b0382166000908152600c60205260408120546009805460001990920192918390811061117f57fe5b600091825260208220600460059092020181810154604051637753793760e01b815291945083926001600160a01b03909116916377537937916111c4918a910161263b565b6040805180830381600087803b1580156111dd57600080fd5b505af11580156111f1573d6000803e3d6000fd5b505050506040513d601f19601f8201168201806040525081019061121591906125fc565b60048086015460405163082ceeb360e01b81529395509193506001600160a01b039091169163082ceeb391611250918a9187918791016126a6565b600060405180830381600087803b15801561126a57600080fd5b505af115801561127e573d6000803e3d6000fd5b50505050600483810180546001600160a01b0319166001600160a01b03888116919091179091556040516370a0823160e01b8152600092918916916370a08231916112cb9130910161263b565b60206040518083038186803b1580156112e357600080fd5b505afa1580156112f7573d6000803e3d6000fd5b505050506040513d601f19601f8201168201806040525081019061131b919061254d565b905080156113a55760405163a9059cbb60e01b81526001600160a01b0388169063a9059cbb90611351908990859060040161268d565b602060405180830381600087803b15801561136b57600080fd5b505af115801561137f573d6000803e3d6000fd5b505050506040513d601f19601f820116820180604052508101906113a39190612519565b505b600480850154604080516336e9332d60e01b815290516001600160a01b03909216926336e9332d92828201926000929082900301818387803b1580156113ea57600080fd5b505af11580156113fe573d6000803e3d6000fd5b5050505050505050505050565b600a6020908152600092835260408084209091529082529020805460019091015482565b6000600161143b610726565b0382111561145b5760405162461bcd60e51b81526004016104ce9061298c565b6106b8600183611ffe565b6000611470611c5b565b6000546001600160a01b0390811691161461149d5760405162461bcd60e51b81526004016104ce90612957565b6001600160a01b0382166114c35760405162461bcd60e51b81526004016104ce90612b2c565b6106b860018361200a565b6001600160a01b0382166000908152600c60205260408120546115035760405162461bcd60e51b81526004016104ce9061282b565b6001600160a01b0383166000908152600c6020526040902054600019016115286123cd565b6009828154811061153557fe5b60009182526020918290206040805160a081018252600590930290910180546001600160a01b03908116845260018201549484019490945260028101549183019190915260038101546060830152600401549091166080820152905061159961240e565b506000828152600a602090815260408083206001600160a01b038089168552908352818420825180840184528154815260019091015493810193909352608085015185519251631190d9e560e11b8152939493911691632321b3ca91611602919060040161263b565b60206040518083038186803b15801561161a57600080fd5b505afa15801561162e573d6000803e3d6000fd5b505050506040513d601f19601f82011682018060405250810190611652919061254d565b60808401518451604051630433471360e11b81529293506000926001600160a01b03909216916308668e269161168a9160040161263b565b60206040518083038186803b1580156116a257600080fd5b505afa1580156116b6573d6000803e3d6000fd5b505050506040513d601f19601f820116820180604052508101906116da919061254d565b9050816116ef576000955050505050506106b8565b82516106b09083906106589084611c5f565b60075481565b6002600354141561172a5760405162461bcd60e51b81526004016104ce90612af5565b600260035561173833611c4e565b6117545760405162461bcd60e51b81526004016104ce906129d2565b6001600160a01b0383166000908152600c60205260409020546117895760405162461bcd60e51b81526004016104ce9061282b565b6001600160a01b0383166000908152600c6020526040902054600019016117af8161073d565b6000600982815481106117be57fe5b60009182526020808320858452600a825260408085206001600160a01b038a81168752935280852060059490940290910160048181015482549351630433471360e11b81529297509495948416936308668e269361181f939116910161263b565b60206040518083038186803b15801561183757600080fd5b505afa15801561184b573d6000803e3d6000fd5b505050506040513d601f19601f8201168201806040525081019061186f919061254d565b6004808501548554604051631190d9e560e11b81529394506000936001600160a01b0392831693632321b3ca936118a89316910161263b565b60206040518083038186803b1580156118c057600080fd5b505afa1580156118d4573d6000803e3d6000fd5b505050506040513d601f19601f820116820180604052508101906118f8919061254d565b83549091506119195760405162461bcd60e51b81526004016104ce906127ae565b600081116119395760405162461bcd60e51b81526004016104ce90612735565b600061196784600101546106aa64e8d4a5100061065889600301548960000154611c5f90919063ffffffff16565b90508015611979576119798882611d62565b835460009061198e9084906106589087611c5f565b90508088111561199c578097505b8715611af8576004808701548754604051627b8a6760e11b81526000936001600160a01b039384169362f714ce936119db938f93919092169101612bdf565b602060405180830381600087803b1580156119f557600080fd5b505af1158015611a09573d6000803e3d6000fd5b505050506040513d601f19601f82011682018060405250810190611a2d919061254d565b8654909150811115611a425760008655611a51565b8554611a4e9082611d00565b86555b86546040516370a0823160e01b81526000916001600160a01b0316906370a0823190611a8190309060040161263b565b60206040518083038186803b158015611a9957600080fd5b505afa158015611aad573d6000803e3d6000fd5b505050506040513d601f19601f82011682018060405250810190611ad1919061254d565b905089811015611adf578099505b8754611af5906001600160a01b0316338c61201f565b50505b60038601548554611b139164e8d4a510009161065891611c5f565b8560010181905550886001600160a01b03168a6001600160a01b03167f9b1bfa7fa9ee420a16e124f794c35ac9f90472acc99140eb2f6447c714cad8eb8a604051611b5e9190612bd6565b60405180910390a3505060016003555050505050505050565b600c6020526000908152604090205481565b6004546001600160a01b031681565b611ba0611c5b565b6000546001600160a01b03908116911614611bcd5760405162461bcd60e51b81526004016104ce90612957565b6001600160a01b038116611bf35760405162461bcd60e51b81526004016104ce906127e5565b600080546040516001600160a01b03808516939216917f8be0079c531659141344cd1fd0a4f28419497f9722a3daafe3b4186f6b6457e091a3600080546001600160a01b0319166001600160a01b0392909216919091179055565b60006106b860018361203e565b3390565b600082611c6e575060006106b8565b82820282848281611c7b57fe5b04146110df5760405162461bcd60e51b81526004016104ce90612916565b60006110df83836040518060400160405280601a81526020017f536166654d6174683a206469766973696f6e206279207a65726f000000000000815250612053565b6000828201838110156110df5760405162461bcd60e51b81526004016104ce90612862565b60006110df83836040518060400160405280601e81526020017f536166654d6174683a207375627472616374696f6e206f766572666c6f77000081525061208a565b60006110df836001600160a01b0384166120b6565b60006106b88261217c565b600480546040516370a0823160e01b81526000926001600160a01b03909216916370a0823191611d949130910161263b565b60206040518083038186803b158015611dac57600080fd5b505afa158015611dc0573d6000803e3d6000fd5b505050506040513d601f19601f82011682018060405250810190611de4919061254d565b905080821115611e77576004805460405163a9059cbb60e01b81526001600160a01b039091169163a9059cbb91611e1f91879186910161268d565b602060405180830381600087803b158015611e3957600080fd5b505af1158015611e4d573d6000803e3d6000fd5b505050506040513d601f19601f82011682018060405250810190611e719190612519565b50611efc565b6004805460405163a9059cbb60e01b81526001600160a01b039091169163a9059cbb91611ea891879187910161268d565b602060405180830381600087803b158015611ec257600080fd5b505af1158015611ed6573d6000803e3d6000fd5b505050506040513d601f19601f82011682018060405250810190611efa9190612519565b505b505050565b611efa846323b872dd60e01b858585604051602401611f2293929190612669565b60408051601f198184030181529190526020810180516001600160e01b03166001600160e01b031990931692909217909152612180565b6000611fdd82856001600160a01b031663dd62ed3e30876040518363ffffffff1660e01b8152600401611f8d92919061264f565b60206040518083038186803b158015611fa557600080fd5b505afa158015611fb9573d6000803e3d6000fd5b505050506040513d601f19601f8201168201806040525081019061108f919061254d565b9050611efa8463095ea7b360e01b8584604051602401611f2292919061268d565b60006110df838361220f565b60006110df836001600160a01b038416612254565b611efc8363a9059cbb60e01b8484604051602401611f2292919061268d565b60006110df836001600160a01b03841661229e565b600081836120745760405162461bcd60e51b81526004016104ce9190612702565b50600083858161208057fe5b0495945050505050565b600081848411156120ae5760405162461bcd60e51b81526004016104ce9190612702565b505050900390565b6000818152600183016020526040812054801561217257835460001980830191908101906000908790839081106120e957fe5b906000526020600020015490508087600001848154811061210657fe5b60009182526020808320909101929092558281526001898101909252604090209084019055865487908061213657fe5b600190038181906000526020600020016000905590558660010160008781526020019081526020016000206000905560019450505050506106b8565b60009150506106b8565b5490565b60606121d5826040518060400160405280602081526020017f5361666545524332303a206c6f772d6c6576656c2063616c6c206661696c6564815250856001600160a01b03166122b69092919063ffffffff16565b805190915015611efc57808060200190518101906121f39190612519565b611efc5760405162461bcd60e51b81526004016104ce90612aab565b815460009082106122325760405162461bcd60e51b81526004016104ce9061276c565b82600001828154811061224157fe5b9060005260206000200154905092915050565b6000612260838361229e565b612296575081546001818101845560008481526020808220909301849055845484825282860190935260409020919091556106b8565b5060006106b8565b60009081526001919091016020526040902054151590565b60606122c584846000856122cd565b949350505050565b6060824710156122ef5760405162461bcd60e51b81526004016104ce90612899565b6122f88561238e565b6123145760405162461bcd60e51b81526004016104ce90612a01565b60006060866001600160a01b03168587604051612331919061261f565b60006040518083038185875af1925050503d806000811461236e576040519150601f19603f3d011682016040523d82523d6000602084013e612373565b606091505b5091509150612383828286612394565b979650505050505050565b3b151590565b606083156123a35750816110df565b8251156123b35782518084602001fd5b8160405162461bcd60e51b81526004016104ce9190612702565b6040518060a0016040528060006001600160a01b0316815260200160008152602001600081526020016000815260200160006001600160a01b031681525090565b604051806040016040528060008152602001600081525090565b600060208284031215612439578081fd5b81356110df81612c30565b600060208284031215612455578081fd5b81516110df81612c30565b60008060408385031215612472578081fd5b823561247d81612c30565b9150602083013561248d81612c30565b809150509250929050565b6000806000606084860312156124ac578081fd5b83356124b781612c30565b925060208401356124c781612c30565b929592945050506040919091013590565b6000806000606084860312156124ec578283fd5b83356124f781612c30565b925060208401359150604084013561250e81612c45565b809150509250925092565b60006020828403121561252a578081fd5b81516110df81612c45565b600060208284031215612546578081fd5b5035919050565b60006020828403121561255e578081fd5b5051919050565b60008060408385031215612577578182fd5b82359150602083013561248d81612c30565b6000806000806080858703121561259e578081fd5b8435935060208501356125b081612c30565b925060408501356125c081612c45565b915060608501356125d081612c30565b939692955090935050565b600080604083850312156125ed578182fd5b50508035926020909101359150565b6000806040838503121561260e578182fd5b505080516020909101519092909150565b60008251612631818460208701612c04565b9190910192915050565b6001600160a01b0391909116815260200190565b6001600160a01b0392831681529116602082015260400190565b6001600160a01b039384168152919092166020820152604081019190915260600190565b6001600160a01b03929092168252602082015260400190565b6001600160a01b039390931683526020830191909152604082015260600190565b901515815260200190565b6001600160a01b039586168152602081019490945260408401929092526060830152909116608082015260a00190565b6000602082528251806020840152612721816040850160208701612c04565b601f01601f19169190910160400192915050565b6020808252601c908201527f426f626f4661726d65723a20736861726573546f74616c206973203000000000604082015260600190565b60208082526022908201527f456e756d657261626c655365743a20696e646578206f7574206f6620626f756e604082015261647360f01b606082015260800190565b6020808252601c908201527f426f626f4661726d65723a20757365722e736861726573206973203000000000604082015260600190565b60208082526026908201527f4f776e61626c653a206e6577206f776e657220697320746865207a65726f206160408201526564647265737360d01b606082015260800190565b6020808252601c908201527f426f626f4661726d65723a20746f6b656e204e4f542065786973742e00000000604082015260600190565b6020808252601b908201527f536166654d6174683a206164646974696f6e206f766572666c6f770000000000604082015260600190565b60208082526026908201527f416464726573733a20696e73756666696369656e742062616c616e636520666f6040820152651c8818d85b1b60d21b606082015260800190565b60208082526018908201527f426f626f4661726d65723a20746f6b656e2045584953542e0000000000000000604082015260600190565b60208082526021908201527f536166654d6174683a206d756c7469706c69636174696f6e206f766572666c6f6040820152607760f81b606082015260800190565b6020808252818101527f4f776e61626c653a2063616c6c6572206973206e6f7420746865206f776e6572604082015260600190565b60208082526026908201527f4d6978696e417574686f72697a61626c653a20696e646578206f7574206f6620604082015265626f756e647360d01b606082015260800190565b60208082526015908201527414d15391115497d393d517d055551213d492569151605a1b604082015260600190565b6020808252601d908201527f416464726573733a2063616c6c20746f206e6f6e2d636f6e7472616374000000604082015260600190565b6020808252604d908201527f426f626f4661726d65723a20746865206f776e6572206f66207374726174204d60408201527f555354206265207468652073616d65206173207468652061646472657373206f60608201526c33102137b137a330b936b2b91760991b608082015260a00190565b6020808252602a908201527f5361666545524332303a204552433230206f7065726174696f6e20646964206e6040820152691bdd081cdd58d8d9595960b21b606082015260800190565b6020808252601f908201527f5265656e7472616e637947756172643a207265656e7472616e742063616c6c00604082015260600190565b60208082526035908201527f4d6978696e417574686f72697a61626c653a205f616464417574686f72697a656040820152746420697320746865207a65726f206164647265737360581b606082015260800190565b60208082526035908201527f4d6978696e417574686f72697a61626c653a205f64656c417574686f72697a656040820152746420697320746865207a65726f206164647265737360581b606082015260800190565b90815260200190565b9182526001600160a01b0316602082015260400190565b918252602082015260400190565b60005b83811015612c1f578181015183820152602001612c07565b83811115611efa5750506000910152565b6001600160a01b038116811461099c57600080fd5b801515811461099c57600080fdfea264697066735822122066f601759773ab69115829f4e4b1a7454307a1dc6cc4aa1f6eec61e7b92a32ed64736f6c634300060c0033",
  "immutableReferences": {},
  "source": "// SPDX-License-Identifier: MIT\npragma solidity ^0.6.0;\npragma experimental ABIEncoderV2;\n        \nimport \"./common/MixinAuthorizable.sol\";\n\ninterface IStrategy {\n    // Total want tokens managed by strat\n    function wantLockedTotalMap(address _wantToken) external view returns (uint256);\n\n    // Sum of all shares of users to wantLockedTotal\n    function sharesTotalMap(address _wantToken) external view returns (uint256);\n\n    // Main want token compounding function\n    function earn() external;\n\n    // Transfer want tokens boboFarm -> strategy\n    function deposit(uint256 _wantAmt, address _wantToken) external returns (uint256);\n\n    // Transfer want tokens strategy -> boboFarm\n    function withdraw(uint256 _wantAmt, address _wantToken) external returns (uint256);\n\n    function initTotalShareAndLocked(address _tokenAddr, uint256 _totalShare, uint256 _totalLocked) external;\n\n    function clearAndTransferTokens(address _tokenAddr) external returns(uint256, uint256);\n\n    function farm() external;\n    \n    function owner() external returns(address);\n}\n\ninterface BOBOToken is IERC20 {\n    function mint(address _to, uint256 _amount) external returns(bool);\n}\n\ncontract BoboFarmer is MixinAuthorizable, ReentrancyGuard {\n    using SafeMath for uint256;\n    using SafeERC20 for IERC20;\n\n    struct UserInfo {\n        uint256 shares;             // \n        uint256 rewardDebt; \n    }\n\n    struct PoolInfo {\n        IERC20 want;                // token\n        uint256 allocPoint;         // BOBO\n        uint256 lastRewardBlock;    \n        uint256 accBOBOPerShare;    // BOBOmintBOBO\n        address strat;              // \n    }\n\n    address public boboTokenAddr;\n\n    address public burnAddress = 0x000000000000000000000000000000000000dEaD;\n    address public fundAddr;\n\n    uint256 public boboPerBlock; \n    uint256 public startBlock; \n\n    PoolInfo[] public poolInfo; \n    mapping(uint256 => mapping(address => UserInfo)) public userInfo; \n    uint256 public totalAllocPoint = 0; \n    mapping(address => uint256) public tokenPidMap;\n\n    mapping(address => bool) public _auth;\n\n    event Deposit(address indexed _tokenAddr, address indexed user, uint256 amount);\n    event Withdraw(address indexed _tokenAddr, address indexed user, uint256 amount);\n    event EmergencyWithdraw(\n        address indexed _tokenAddr,\n        address indexed user,\n        uint256 amount\n    );\n    \n    constructor(\n        address _boboTokenAddress, \n        uint256 _startBlock,\n        address _fundAddr\n    ) public {\n        boboTokenAddr = _boboTokenAddress;\n        startBlock = _startBlock;\n        fundAddr = _fundAddr;\n    }\n\n\n    function setFundAddr(address _fundAddr) public onlyOwner {\n        fundAddr = _fundAddr;\n    }\n    \n    function setBoboPerBlock(          \n        uint256 _boboPerBlock\n    ) public onlyOwner {\n        massUpdatePools();\n        boboPerBlock = _boboPerBlock;\n    }\n\n    function poolLength() external view returns (uint256) {\n        return poolInfo.length;\n    }\n\n    function add(uint256 _allocPoint, address _want, bool _withUpdate, address _strat) public onlyOwner {\n        require(tokenPidMap[_want] == 0, \"BoboFarmer: token EXIST.\");\n        require(IStrategy(_strat).owner() == address(this), \"BoboFarmer: the owner of strat MUST be the same as the address of BoboFarmer.\");\n        if (_withUpdate) {\n            massUpdatePools();\n        }\n        uint256 lastRewardBlock = block.number > startBlock ? block.number : startBlock;\n        totalAllocPoint = totalAllocPoint.add(_allocPoint);\n        poolInfo.push(\n            PoolInfo({\n                want: IERC20(_want),\n                allocPoint: _allocPoint,\n                lastRewardBlock: lastRewardBlock,\n                accBOBOPerShare: 0,\n                strat: _strat\n            })\n        );\n        tokenPidMap[_want] = poolInfo.length;\n    }\n\n    function setPoolPoint(address _tokenAddr, uint256 _allocPoint, bool _withUpdate) public onlyOwner {\n        require(tokenPidMap[_tokenAddr] > 0, \"BoboFarmer: token NOT exist.\");\n        uint256 pid = tokenPidMap[_tokenAddr] - 1;\n        if (_withUpdate) {\n            massUpdatePools();\n        }\n        totalAllocPoint = totalAllocPoint.sub(poolInfo[pid].allocPoint).add(_allocPoint);\n        poolInfo[pid].allocPoint = _allocPoint;\n    }\n\n    function getMultiplier(uint256 _from, uint256 _to) public pure returns (uint256) {\n        return _to.sub(_from);\n    }\n\n    // BOBOBOBO\n    // bobo\n    function pendingBOBO(address _tokenAddr, address _user) external view returns (uint256) {\n        require(tokenPidMap[_tokenAddr] > 0, \"BoboFarmer: token NOT exist.\");\n        uint256 pid = tokenPidMap[_tokenAddr] - 1;\n        PoolInfo storage pool = poolInfo[pid];\n        UserInfo storage user = userInfo[pid][_user];\n        uint256 accBOBOPerShare = pool.accBOBOPerShare;\n        uint256 sharesTotal = IStrategy(pool.strat).sharesTotalMap(address(pool.want));         // \n        if (block.number > pool.lastRewardBlock && sharesTotal != 0) {\n            uint256 multiplier = getMultiplier(pool.lastRewardBlock, block.number);\n            uint256 boboReward = multiplier.mul(boboPerBlock).mul(pool.allocPoint).div(totalAllocPoint);   // BOBO\n            accBOBOPerShare = accBOBOPerShare.add(boboReward.mul(1e12).div(sharesTotal));      // BOBO\n        }\n        return user.shares.mul(accBOBOPerShare).div(1e12).sub(user.rewardDebt);\n    }\n\n    // want token\n    function stakedWantTokens(address _tokenAddr, address _user) external view returns (uint256) {\n        require(tokenPidMap[_tokenAddr] > 0, \"BoboFarmer: token NOT exist.\");\n        uint256 pid = tokenPidMap[_tokenAddr] - 1;\n\n        PoolInfo memory pool = poolInfo[pid];\n        UserInfo memory user = userInfo[pid][_user];\n\n        uint256 sharesTotal = IStrategy(pool.strat).sharesTotalMap(address(pool.want));\n        uint256 wantLockedTotal = IStrategy(pool.strat).wantLockedTotalMap(address(pool.want));\n        if (sharesTotal == 0) {\n            return 0;\n        }\n        return user.shares.mul(wantLockedTotal).div(sharesTotal);\n    }\n\n    function massUpdatePools() public {\n        uint256 length = poolInfo.length;\n        for (uint256 pid = 0; pid < length; ++pid) {\n            updatePool(pid);\n        }\n    }\n\n    function updatePool(uint256 _pid) public {\n        PoolInfo storage pool = poolInfo[_pid];\n        if (block.number <= pool.lastRewardBlock) {\n            return;\n        }\n        // \n        uint256 sharesTotal = IStrategy(pool.strat).sharesTotalMap(address(pool.want));\n        if (sharesTotal == 0) {\n            pool.lastRewardBlock = block.number;\n            return;\n        }\n\n        // BOBO\n        uint256 multiplier = getMultiplier(pool.lastRewardBlock, block.number);\n        if (multiplier <= 0) {\n            return;\n        }\n        uint256 boboReward = multiplier.mul(boboPerBlock).mul(pool.allocPoint).div(totalAllocPoint);\n        BOBOToken(boboTokenAddr).mint(address(this), boboReward);\n        BOBOToken(boboTokenAddr).mint(fundAddr, boboReward.div(3));\n        pool.accBOBOPerShare = pool.accBOBOPerShare.add(boboReward.mul(1e12).div(sharesTotal));\n\n        pool.lastRewardBlock = block.number;\n    }\n\n    // wantwant\n    function deposit(address _tokenAddr, address _userAddr, uint256 _wantAmt) public nonReentrant onlyAuthorized {\n        require(tokenPidMap[_tokenAddr] > 0, \"BoboFarmer: token NOT exist.\");\n        uint256 pid = tokenPidMap[_tokenAddr] - 1;\n\n        updatePool(pid);\n        PoolInfo storage pool = poolInfo[pid];\n        UserInfo storage user = userInfo[pid][_userAddr];\n\n        if (user.shares > 0) {  // BOBO\n            uint256 pendingBOBOAmount = user.shares.mul(pool.accBOBOPerShare).div(1e12).sub(user.rewardDebt);\n            if (pendingBOBOAmount > 0) {\n                safeBOBOTransfer(_userAddr, pendingBOBOAmount);\n            }\n        }\n        if (_wantAmt > 0) {   // want0want =>  => => \n            pool.want.safeTransferFrom(msg.sender, address(this), _wantAmt);  // want\n\n            pool.want.safeIncreaseAllowance(pool.strat, _wantAmt);  // \n            uint256 sharesAdded = IStrategy(pool.strat).deposit(_wantAmt, address(pool.want));  // wantdeposit\n            user.shares = user.shares.add(sharesAdded);  // \n        }\n        user.rewardDebt = user.shares.mul(pool.accBOBOPerShare).div(1e12);   // BOBO\n        emit Deposit(_tokenAddr, _userAddr, _wantAmt);\n    }\n    \n    function depositOrderNFT(uint256 _orderId) public {\n        \n    }\n\n    // BOBOwant\n    // \n    function withdraw(address _tokenAddr, address _userAddr, uint256 _wantAmt) public nonReentrant onlyAuthorized {\n        require(tokenPidMap[_tokenAddr] > 0, \"BoboFarmer: token NOT exist.\");\n        uint256 pid = tokenPidMap[_tokenAddr] - 1;\n\n        updatePool(pid);\n\n        PoolInfo storage pool = poolInfo[pid];\n        UserInfo storage user = userInfo[pid][_userAddr];\n\n        uint256 wantLockedTotal = IStrategy(pool.strat).wantLockedTotalMap(address(pool.want));  // want\n        uint256 sharesTotal = IStrategy(pool.strat).sharesTotalMap(address(pool.want));  // \n\n        require(user.shares > 0, \"BoboFarmer: user.shares is 0\");\n        require(sharesTotal > 0, \"BoboFarmer: sharesTotal is 0\");\n\n        // BOBO\n        uint256 pending = user.shares.mul(pool.accBOBOPerShare).div(1e12).sub(user.rewardDebt);\n        if (pending > 0) {\n            safeBOBOTransfer(_userAddr, pending);\n        }\n\n        // want\n        uint256 amount = user.shares.mul(wantLockedTotal).div(sharesTotal);\n        if (_wantAmt > amount) {\n            _wantAmt = amount;\n        }\n        if (_wantAmt > 0) {\n            // want\n            uint256 sharesRemoved = IStrategy(pool.strat).withdraw(_wantAmt, address(pool.want));   \n\n            // \n            if (sharesRemoved > user.shares) {\n                user.shares = 0;\n            } else {\n                user.shares = user.shares.sub(sharesRemoved);\n            }\n\n            // withdrawwantwant\n            // wantwantwant\n            uint256 wantBal = IERC20(pool.want).balanceOf(address(this));  \n            if (wantBal < _wantAmt) {\n                _wantAmt = wantBal;\n            }\n            pool.want.safeTransfer(address(msg.sender), _wantAmt);\n        }\n        user.rewardDebt = user.shares.mul(pool.accBOBOPerShare).div(1e12);\n        emit Withdraw(_tokenAddr, _userAddr, _wantAmt);\n    }\n\n    function migrateNewStrat(address _tokenAddr, address _newStratAddr) external onlyOwner {\n        require(tokenPidMap[_tokenAddr] > 0, \"BoboFarmer: token NOT exist.\");\n        uint256 pid = tokenPidMap[_tokenAddr] - 1;\n        PoolInfo storage pool = poolInfo[pid];\n        \n        (uint256 totalShares, uint256 totalLocked) = IStrategy(pool.strat).clearAndTransferTokens(_tokenAddr);\n        IStrategy(pool.strat).initTotalShareAndLocked(_tokenAddr, totalShares, totalLocked);\n        pool.strat = _newStratAddr;\n        uint256 amount = IERC20(_tokenAddr).balanceOf(address(this));\n        if (amount > 0)\n            IERC20(_tokenAddr).transfer(_newStratAddr, amount);\n        IStrategy(pool.strat).farm();\n    }\n\n    function safeBOBOTransfer(address _to, uint256 _boboAmt) internal {\n        uint256 boboBal = IERC20(boboTokenAddr).balanceOf(address(this));\n        if (_boboAmt > boboBal) {\n            IERC20(boboTokenAddr).transfer(_to, boboBal);\n        } else {\n            IERC20(boboTokenAddr).transfer(_to, _boboAmt);\n        }\n    }\n}",
  "sourcePath": "/Users/sam/go/src/github.com/bobo-metaverse/boboswap-contract/contracts/BoboFarmer.sol",
  "compiler": {
    "name": "solc",
    "version": "0.6.12+commit.27d51765.Emscripten.clang"
  },
  "schemaVersion": "3.4.2",
  "updatedAt": "2021-08-10T03:51:58.918Z",
  "networkType": "ethereum",
  "devdoc": {
    "kind": "dev",
    "methods": {
      "owner()": {
        "details": "Returns the address of the current owner."
      },
      "renounceOwnership()": {
        "details": "Leaves the contract without owner. It will not be possible to call `onlyOwner` functions anymore. Can only be called by the current owner. NOTE: Renouncing ownership will leave the contract without an owner, thereby removing any functionality that is only available to the owner."
      },
      "transferOwnership(address)": {
        "details": "Transfers ownership of the contract to a new account (`newOwner`). Can only be called by the current owner."
      }
    },
    "version": 1
  },
  "userdoc": {
    "kind": "user",
    "methods": {},
    "version": 1
  }
}