{
  "contractName": "BoboSwapTester",
  "abi": [
    {
      "inputs": [],
      "name": "USDC",
      "outputs": [
        {
          "internalType": "address",
          "name": "",
          "type": "address"
        }
      ],
      "stateMutability": "view",
      "type": "function"
    },
    {
      "inputs": [],
      "name": "USDT",
      "outputs": [
        {
          "internalType": "address",
          "name": "",
          "type": "address"
        }
      ],
      "stateMutability": "view",
      "type": "function"
    },
    {
      "inputs": [],
      "name": "WMATIC",
      "outputs": [
        {
          "internalType": "address",
          "name": "",
          "type": "address"
        }
      ],
      "stateMutability": "view",
      "type": "function"
    },
    {
      "inputs": [],
      "name": "boboFactory",
      "outputs": [
        {
          "internalType": "contract BoboFactoryOnMatic",
          "name": "",
          "type": "address"
        }
      ],
      "stateMutability": "view",
      "type": "function"
    },
    {
      "inputs": [],
      "name": "boboFarmer",
      "outputs": [
        {
          "internalType": "contract BoboFarmer",
          "name": "",
          "type": "address"
        }
      ],
      "stateMutability": "view",
      "type": "function"
    },
    {
      "inputs": [],
      "name": "orderNFT",
      "outputs": [
        {
          "internalType": "contract OrderNFT",
          "name": "",
          "type": "address"
        }
      ],
      "stateMutability": "view",
      "type": "function"
    },
    {
      "inputs": [],
      "name": "stratMaticSushi",
      "outputs": [
        {
          "internalType": "contract StratMaticSushi",
          "name": "",
          "type": "address"
        }
      ],
      "stateMutability": "view",
      "type": "function"
    },
    {
      "inputs": [
        {
          "internalType": "address",
          "name": "_boboFactory",
          "type": "address"
        },
        {
          "internalType": "address",
          "name": "_boboFarmer",
          "type": "address"
        },
        {
          "internalType": "address",
          "name": "_stratMaticSushi",
          "type": "address"
        },
        {
          "internalType": "address",
          "name": "_orderNFT",
          "type": "address"
        }
      ],
      "name": "setAddrs",
      "outputs": [],
      "stateMutability": "nonpayable",
      "type": "function"
    },
    {
      "inputs": [],
      "name": "approveToken",
      "outputs": [],
      "stateMutability": "nonpayable",
      "type": "function"
    },
    {
      "inputs": [
        {
          "internalType": "bool",
          "name": "_bBuy",
          "type": "bool"
        },
        {
          "internalType": "bool",
          "name": "bUsdt",
          "type": "bool"
        },
        {
          "internalType": "uint256",
          "name": "_spotPrice",
          "type": "uint256"
        },
        {
          "internalType": "uint256",
          "name": "_amountIn",
          "type": "uint256"
        },
        {
          "internalType": "uint256",
          "name": "_slippagePercent",
          "type": "uint256"
        }
      ],
      "name": "addLimitedOrder",
      "outputs": [],
      "stateMutability": "nonpayable",
      "type": "function"
    },
    {
      "inputs": [],
      "name": "pendingBobo",
      "outputs": [
        {
          "internalType": "uint256",
          "name": "usdtBobo",
          "type": "uint256"
        },
        {
          "internalType": "uint256",
          "name": "usdcBobo",
          "type": "uint256"
        }
      ],
      "stateMutability": "nonpayable",
      "type": "function"
    },
    {
      "inputs": [],
      "name": "stakedWantTokens",
      "outputs": [
        {
          "internalType": "uint256",
          "name": "usdt",
          "type": "uint256"
        },
        {
          "internalType": "uint256",
          "name": "usdc",
          "type": "uint256"
        }
      ],
      "stateMutability": "nonpayable",
      "type": "function"
    },
    {
      "inputs": [
        {
          "internalType": "bool",
          "name": "bUsdt",
          "type": "bool"
        }
      ],
      "name": "getAllOrders",
      "outputs": [
        {
          "components": [
            {
              "internalType": "uint256",
              "name": "id",
              "type": "uint256"
            },
            {
              "internalType": "address",
              "name": "owner",
              "type": "address"
            },
            {
              "internalType": "address",
              "name": "pairAddr",
              "type": "address"
            },
            {
              "internalType": "bool",
              "name": "bBuyQuoteToken",
              "type": "bool"
            },
            {
              "internalType": "uint256",
              "name": "spotPrice",
              "type": "uint256"
            },
            {
              "internalType": "uint256",
              "name": "inAmount",
              "type": "uint256"
            },
            {
              "internalType": "uint256",
              "name": "minOutAmount",
              "type": "uint256"
            },
            {
              "internalType": "uint256",
              "name": "outAmount",
              "type": "uint256"
            },
            {
              "internalType": "enum OrderStatus",
              "name": "status",
              "type": "uint8"
            },
            {
              "internalType": "string",
              "name": "comment",
              "type": "string"
            },
            {
              "internalType": "uint256",
              "name": "delegateTime",
              "type": "uint256"
            },
            {
              "internalType": "uint256",
              "name": "dealedTime",
              "type": "uint256"
            }
          ],
          "internalType": "struct NFTInfo[]",
          "name": "orders",
          "type": "tuple[]"
        }
      ],
      "stateMutability": "nonpayable",
      "type": "function"
    },
    {
      "inputs": [
        {
          "internalType": "uint256",
          "name": "_orderId",
          "type": "uint256"
        }
      ],
      "name": "cancelOrder",
      "outputs": [],
      "stateMutability": "nonpayable",
      "type": "function"
    },
    {
      "inputs": [
        {
          "internalType": "address",
          "name": "_token",
          "type": "address"
        }
      ],
      "name": "withdraw",
      "outputs": [],
      "stateMutability": "nonpayable",
      "type": "function"
    },
    {
      "inputs": [],
      "name": "earn",
      "outputs": [],
      "stateMutability": "nonpayable",
      "type": "function"
    }
  ],
  "bytecode": "0x6080604052600080546001600160a01b031990811673d33322d3ff6d7c5c32ee36ce20bc063a74751efb1790915560018054821673e64ca15ecdf65a228c6d27a34e250492976953a317905560028054821673eb3a1133b5e11251f6c2fa87767c18079f488d071790556003805490911673b104beab3c4045dcc963225140c74be4968fb3a417905534801561009457600080fd5b50611d8d806100a46000396000f3fe608060405234801561001057600080fd5b50600436106101005760003560e01c80638aa3131111610097578063c54e44eb11610066578063c54e44eb146101cf578063d389800f146101d7578063d4d728da146101df578063d57116a2146101e757610100565b80638aa31311146101815780638da430a31461019457806399b71d5c146101a7578063a369bf37146101af57610100565b80634d95cad9116100d35780634d95cad914610149578063514fcac71461015157806351cff8d91461016657806389a302711461017957610100565b80630aec0b30146101055780631819a393146101245780631960e232146101395780632659bb6714610141575b600080fd5b61010d6101ef565b60405161011b929190611cd0565b60405180910390f35b61012c610327565b60405161011b9190611979565b61012c610336565b61010d610345565b61012c610427565b61016461015f3660046118d9565b61043f565b005b6101646101743660046116e8565b61063b565b61012c610734565b61016461018f366004611720565b61074c565b6101646101a236600461184e565b61079c565b610164610b52565b6101c26101bd366004611816565b610e92565b60405161011b91906119e1565b61012c61107d565b610164611095565b61012c6110f9565b61012c611108565b60015460405163d0f2ced160e01b815260009182916001600160a01b039091169063d0f2ced19061023a9073c2132d05d31c914a87c6611c10748aeb04b58e8f9030906004016119a6565b60206040518083038186803b15801561025257600080fd5b505afa158015610266573d6000803e3d6000fd5b505050506040513d601f19601f8201168201806040525081019061028a91906118f1565b60015460405163d0f2ced160e01b81529193506001600160a01b03169063d0f2ced1906102d190732791bca1f2de4661ed88a30c99a7a9449aa841749030906004016119a6565b60206040518083038186803b1580156102e957600080fd5b505afa1580156102fd573d6000803e3d6000fd5b505050506040513d601f19601f8201168201806040525081019061032191906118f1565b90509091565b6002546001600160a01b031681565b6001546001600160a01b031681565b600154604051632013af3560e01b815260009182916001600160a01b0390911690632013af35906103909073c2132d05d31c914a87c6611c10748aeb04b58e8f9030906004016119a6565b60206040518083038186803b1580156103a857600080fd5b505afa1580156103bc573d6000803e3d6000fd5b505050506040513d601f19601f820116820180604052508101906103e091906118f1565b600154604051632013af3560e01b81529193506001600160a01b031690632013af35906102d190732791bca1f2de4661ed88a30c99a7a9449aa841749030906004016119a6565b730d500b1d8e8ef31e21c99d1db9a6444d3adf127081565b6000805460405163e6a4390560e01b81526001600160a01b039091169063e6a439059061049a9073c2132d05d31c914a87c6611c10748aeb04b58e8f90730d500b1d8e8ef31e21c99d1db9a6444d3adf1270906004016119a6565b60206040518083038186803b1580156104b257600080fd5b505afa1580156104c6573d6000803e3d6000fd5b505050506040513d601f19601f820116820180604052508101906104ea9190611704565b60405163514fcac760e01b815290915081906001600160a01b0382169063514fcac79061051b908690600401611cc7565b602060405180830381600087803b15801561053557600080fd5b505af1158015610549573d6000803e3d6000fd5b505050506040513d601f19601f8201168201806040525081019061056d9190611832565b506105766114fb565b60035460405163d311636b60e01b81526001600160a01b039091169063d311636b906105a6908790600401611cc7565b60006040518083038186803b1580156105be57600080fd5b505afa1580156105d2573d6000803e3d6000fd5b505050506040513d6000823e601f3d908101601f191682016040526105fa919081019061189e565b90506001816101000151600381111561060f57fe5b146106355760405162461bcd60e51b815260040161062c90611b49565b60405180910390fd5b50505050565b6040516370a0823160e01b81526001600160a01b0382169063a9059cbb90339083906370a0823190610671903090600401611979565b60206040518083038186803b15801561068957600080fd5b505afa15801561069d573d6000803e3d6000fd5b505050506040513d601f19601f820116820180604052508101906106c191906118f1565b6040518363ffffffff1660e01b81526004016106de92919061198d565b602060405180830381600087803b1580156106f857600080fd5b505af115801561070c573d6000803e3d6000fd5b505050506040513d601f19601f820116820180604052508101906107309190611832565b5050565b732791bca1f2de4661ed88a30c99a7a9449aa8417481565b600080546001600160a01b039586166001600160a01b0319918216179091556001805494861694821694909417909355600280549285169284169290921790915560038054919093169116179055565b6000846107bd57732791bca1f2de4661ed88a30c99a7a9449aa841746107d3565b73c2132d05d31c914a87c6611c10748aeb04b58e8f5b6000805460405163e6a4390560e01b815292935090916001600160a01b039091169063e6a439059061081f908590730d500b1d8e8ef31e21c99d1db9a6444d3adf1270906004016119a6565b60206040518083038186803b15801561083757600080fd5b505afa15801561084b573d6000803e3d6000fd5b505050506040513d601f19601f8201168201806040525081019061086f9190611704565b60405163761a90a760e11b8152909150819060009081906001600160a01b0384169063ec35214e906108a5903090600401611979565b604080518083038186803b1580156108bc57600080fd5b505afa1580156108d0573d6000803e3d6000fd5b505050506040513d601f19601f820116820180604052508101906108f49190611909565b915091506000836001600160a01b031663b35ac8b28c6040518263ffffffff1660e01b81526004016109269190611ad7565b60206040518083038186803b15801561093e57600080fd5b505afa158015610952573d6000803e3d6000fd5b505050506040513d601f19601f8201168201806040525081019061097691906118f1565b905060008b61099957730d500b1d8e8ef31e21c99d1db9a6444d3adf127061099b565b865b600154604051632013af3560e01b81529192506000916001600160a01b0390911690632013af35906109d390859030906004016119a6565b60206040518083038186803b1580156109eb57600080fd5b505afa1580156109ff573d6000803e3d6000fd5b505050506040513d601f19601f82011682018060405250810190610a2391906118f1565b60015460405163d0f2ced160e01b81529192506000916001600160a01b039091169063d0f2ced190610a5b90869030906004016119a6565b60206040518083038186803b158015610a7357600080fd5b505afa158015610a87573d6000803e3d6000fd5b505050506040513d601f19601f82011682018060405250810190610aab91906118f1565b9050866001600160a01b031663428011e48f8e8e8e6040518563ffffffff1660e01b8152600401610adf9493929190611ae2565b600060405180830381600087803b158015610af957600080fd5b505af1158015610b0d573d6000803e3d6000fd5b50505050620dbba08b1115610b2a57610b2a878f8d878a8a611117565b620f42408b1115610b4257610b428e8c8585856112a8565b5050505050505050505050505050565b6000805460405163e6a4390560e01b81526001600160a01b039091169063e6a4390590610bad9073c2132d05d31c914a87c6611c10748aeb04b58e8f90730d500b1d8e8ef31e21c99d1db9a6444d3adf1270906004016119a6565b60206040518083038186803b158015610bc557600080fd5b505afa158015610bd9573d6000803e3d6000fd5b505050506040513d601f19601f82011682018060405250810190610bfd9190611704565b60405163095ea7b360e01b815290915073c2132d05d31c914a87c6611c10748aeb04b58e8f9063095ea7b390610c3b9084906000199060040161198d565b602060405180830381600087803b158015610c5557600080fd5b505af1158015610c69573d6000803e3d6000fd5b505050506040513d601f19601f82011682018060405250810190610c8d9190611832565b5060405163095ea7b360e01b8152730d500b1d8e8ef31e21c99d1db9a6444d3adf12709063095ea7b390610cc99084906000199060040161198d565b602060405180830381600087803b158015610ce357600080fd5b505af1158015610cf7573d6000803e3d6000fd5b505050506040513d601f19601f82011682018060405250810190610d1b9190611832565b5060005460405163e6a4390560e01b81526001600160a01b039091169063e6a4390590610d7690732791bca1f2de4661ed88a30c99a7a9449aa8417490730d500b1d8e8ef31e21c99d1db9a6444d3adf1270906004016119a6565b60206040518083038186803b158015610d8e57600080fd5b505afa158015610da2573d6000803e3d6000fd5b505050506040513d601f19601f82011682018060405250810190610dc69190611704565b60405163095ea7b360e01b8152909150732791bca1f2de4661ed88a30c99a7a9449aa841749063095ea7b390610e049084906000199060040161198d565b602060405180830381600087803b158015610e1e57600080fd5b505af1158015610e32573d6000803e3d6000fd5b505050506040513d601f19601f82011682018060405250810190610e569190611832565b5060405163095ea7b360e01b8152730d500b1d8e8ef31e21c99d1db9a6444d3adf12709063095ea7b3906106de9084906000199060040161198d565b6060600082610eb557732791bca1f2de4661ed88a30c99a7a9449aa84174610ecb565b73c2132d05d31c914a87c6611c10748aeb04b58e8f5b6000805460405163e6a4390560e01b815292935090916001600160a01b039091169063e6a4390590610f17908590730d500b1d8e8ef31e21c99d1db9a6444d3adf1270906004016119a6565b60206040518083038186803b158015610f2f57600080fd5b505afa158015610f43573d6000803e3d6000fd5b505050506040513d601f19601f82011682018060405250810190610f679190611704565b6040516319ab50ef60e31b815290915081906000906001600160a01b0383169063cd5a877890610f9b903090600401611979565b60206040518083038186803b158015610fb357600080fd5b505afa158015610fc7573d6000803e3d6000fd5b505050506040513d601f19601f82011682018060405250810190610feb91906118f1565b604051635f0a1feb60e01b81529091506001600160a01b03831690635f0a1feb9061101f90309060009086906004016119c0565b60006040518083038186803b15801561103757600080fd5b505afa15801561104b573d6000803e3d6000fd5b505050506040513d6000823e601f3d908101601f19168201604052611073919081019061177b565b9695505050505050565b73c2132d05d31c914a87c6611c10748aeb04b58e8f81565b600260009054906101000a90046001600160a01b03166001600160a01b031663d389800f6040518163ffffffff1660e01b8152600401600060405180830381600087803b1580156110e557600080fd5b505af1158015610635573d6000803e3d6000fd5b6003546001600160a01b031681565b6000546001600160a01b031681565b600080876001600160a01b031663ec35214e306040518263ffffffff1660e01b81526004016111469190611979565b604080518083038186803b15801561115d57600080fd5b505afa158015611171573d6000803e3d6000fd5b505050506040513d601f19601f820116820180604052508101906111959190611909565b915091506000886001600160a01b031663b35ac8b2896040518263ffffffff1660e01b81526004016111c79190611ad7565b60206040518083038186803b1580156111df57600080fd5b505afa1580156111f3573d6000803e3d6000fd5b505050506040513d601f19601f8201168201806040525081019061121791906118f1565b9050871561124c578261122a8689611464565b146112475760405162461bcd60e51b815260040161062c90611c98565b611274565b816112578589611464565b146112745760405162461bcd60e51b815260040161062c90611c98565b61127e8187611492565b60011461129d5760405162461bcd60e51b815260040161062c90611bac565b505050505050505050565b600154604051632013af3560e01b81526000916001600160a01b031690632013af35906112db90879030906004016119a6565b60206040518083038186803b1580156112f357600080fd5b505afa158015611307573d6000803e3d6000fd5b505050506040513d601f19601f8201168201806040525081019061132b91906118f1565b60015460405163d0f2ced160e01b81529192506000916001600160a01b039091169063d0f2ced19061136390889030906004016119a6565b60206040518083038186803b15801561137b57600080fd5b505afa15801561138f573d6000803e3d6000fd5b505050506040513d601f19601f820116820180604052508101906113b391906118f1565b9050861561141d5781156113d95760405162461bcd60e51b815260040161062c90611c1a565b6210c8e08611156114185760006113fa876113f48487611492565b90611492565b10156114185760405162461bcd60e51b815260040161062c90611b75565b61145b565b83821461143c5760405162461bcd60e51b815260040161062c90611bd7565b82811461145b5760405162461bcd60e51b815260040161062c90611c51565b50505050505050565b6000828201838110156114895760405162461bcd60e51b815260040161062c90611b12565b90505b92915050565b600061148983836040518060400160405280601e81526020017f536166654d6174683a207375627472616374696f6e206f766572666c6f770000815250600081848411156114f35760405162461bcd60e51b815260040161062c9190611aff565b505050900390565b6040518061018001604052806000815260200160006001600160a01b0316815260200160006001600160a01b03168152602001600015158152602001600081526020016000815260200160008152602001600081526020016000600381111561156057fe5b81526020016060815260200160008152602001600081525090565b805161148c81611d31565b805161148c81611d49565b80516004811061148c57600080fd5b600082601f8301126115b0578081fd5b815167ffffffffffffffff8111156115c6578182fd5b6115d9601f8201601f1916602001611cde565b91508082528360208285010111156115f057600080fd5b611601816020840160208601611d05565b5092915050565b600061018080838503121561161b578182fd5b61162481611cde565b91505081518152611638836020840161157b565b602082015261164a836040840161157b565b604082015261165c8360608401611586565b60608201526080820151608082015260a082015160a082015260c082015160c082015260e082015160e082015261010061169884828501611591565b908201526101208281015167ffffffffffffffff8111156116b857600080fd5b6116c4858286016115a0565b82840152505061014080830151818301525061016080830151818301525092915050565b6000602082840312156116f9578081fd5b813561148981611d31565b600060208284031215611715578081fd5b815161148981611d31565b60008060008060808587031215611735578283fd5b843561174081611d31565b9350602085013561175081611d31565b9250604085013561176081611d31565b9150606085013561177081611d31565b939692955090935050565b6000602080838503121561178d578182fd5b825167ffffffffffffffff808211156117a4578384fd5b818501915085601f8301126117b7578384fd5b8151818111156117c5578485fd5b6117d28485830201611cde565b8181528481019250838501865b83811015611808576117f68a888451890101611608565b855293860193908601906001016117df565b509098975050505050505050565b600060208284031215611827578081fd5b813561148981611d49565b600060208284031215611843578081fd5b815161148981611d49565b600080600080600060a08688031215611865578081fd5b853561187081611d49565b9450602086013561188081611d49565b94979496505050506040830135926060810135926080909101359150565b6000602082840312156118af578081fd5b815167ffffffffffffffff8111156118c5578182fd5b6118d184828501611608565b949350505050565b6000602082840312156118ea578081fd5b5035919050565b600060208284031215611902578081fd5b5051919050565b6000806040838503121561191b578182fd5b505080516020909101519092909150565b6001600160a01b03169052565b15159052565b6004811061194957fe5b9052565b60008151808452611965816020860160208601611d05565b601f01601f19169290920160200192915050565b6001600160a01b0391909116815260200190565b6001600160a01b03929092168252602082015260400190565b6001600160a01b0392831681529116602082015260400190565b6001600160a01b039390931683526020830191909152604082015260600190565b60208082528251828201819052600091906040908185019080840286018301878501865b8381101561180857603f1989840301855281516101808151855288820151611a2f8a87018261192c565b5087820151611a408987018261192c565b50606080830151611a5382880182611939565b50506080828101519086015260a0808301519086015260c0808301519086015260e0808301519086015261010080830151611a908288018261193f565b5050610120808301518282880152611aaa8388018261194d565b61014085810151908901526101609485015194909701939093525050509386019390860190600101611a05565b901515815260200190565b931515845260208401929092526040830152606082015260800190565b600060208252611489602083018461194d565b6020808252601b908201527f536166654d6174683a206164646974696f6e206f766572666c6f770000000000604082015260600190565b60208082526012908201527127b93232b91039ba30ba3ab99032b93937b960711b604082015260600190565b60208082526018908201527f57616e7420746f6b656e20616d6f756e74206572726f722e0000000000000000604082015260600190565b60208082526011908201527027b93232b9273ab6b132b91032b93937b960791b604082015260600190565b60208082526023908201527f50656e64696e6720426f626f206973206e6f7420657175616c2070726520626f60408201526231379760e91b606082015260800190565b60208082526019908201527f50656e64696e6720426f626f206973206e6f74207a65726f2e00000000000000604082015260600190565b60208082526027908201527f57616e7420746f6b656e206973206e6f7420657175616c207072652077616e74604082015266103a37b5b2b71760c91b606082015260800190565b6020808252601590820152742130b9b2aa37b5b2b720b6b7bab73a1032b93937b960591b604082015260600190565b90815260200190565b918252602082015260400190565b60405181810167ffffffffffffffff81118282101715611cfd57600080fd5b604052919050565b60005b83811015611d20578181015183820152602001611d08565b838111156106355750506000910152565b6001600160a01b0381168114611d4657600080fd5b50565b8015158114611d4657600080fdfea26469706673582212208f31abbb77d884800bf513bdb72899250937e9d75714de686bc950208b6f83b164736f6c634300060c0033",
  "immutableReferences": {},
  "source": "// SPDX-License-Identifier: MIT\npragma solidity ^0.6.0;\npragma experimental ABIEncoderV2;\n\nimport \"../BoboFactory.sol\";\nimport \"../BoboFarmer.sol\";\nimport \"../BoboPair.sol\";\nimport \"../StratMaticSushi.sol\";\nimport \"../common/orderNFT.sol\";\nimport \"../common/BasicStruct.sol\";\n\ncontract BoboSwapTester {\n    using SafeMath for uint256;\n    address public constant USDT = 0xc2132D05D31c914a87C6611C10748AEb04B58e8F;\n    address public constant USDC = 0x2791Bca1f2de4661ED88A30C99A7a9449Aa84174;\n    address public constant WMATIC = 0x0d500B1d8E8eF31E21C99d1Db9A6444d3ADf1270;\n    BoboFactoryOnMatic public boboFactory = BoboFactoryOnMatic(0xD33322d3fF6D7c5c32EE36cE20Bc063A74751efb);\n    BoboFarmer public boboFarmer = BoboFarmer(0xe64cA15ECdF65A228C6d27A34e250492976953A3);\n    StratMaticSushi public stratMaticSushi = StratMaticSushi(0xEb3a1133B5E11251F6c2Fa87767C18079f488d07);\n    OrderNFT public orderNFT = OrderNFT(0xB104BeAb3c4045dcc963225140c74bE4968Fb3a4);\n\n    function setAddrs(address _boboFactory, address _boboFarmer, address _stratMaticSushi, address _orderNFT) public {\n        boboFactory = BoboFactoryOnMatic(_boboFactory);\n        boboFarmer = BoboFarmer(_boboFarmer);\n        stratMaticSushi = StratMaticSushi(_stratMaticSushi);\n        orderNFT = OrderNFT(_orderNFT);\n    }\n\n    function approveToken() public {\n        address pairAddr = boboFactory.getPair(USDT, WMATIC);\n        ERC20(USDT).approve(pairAddr, uint256(-1));\n        ERC20(WMATIC).approve(pairAddr, uint256(-1));\n\n        pairAddr = boboFactory.getPair(USDC, WMATIC);\n        ERC20(USDC).approve(pairAddr, uint256(-1));\n        ERC20(WMATIC).approve(pairAddr, uint256(-1));\n    }\n\n    function addLimitedOrder(bool _bBuy, bool bUsdt, uint256 _spotPrice, uint256 _amountIn, uint256 _slippagePercent) public {\n        address baseToken = bUsdt ? USDT : USDC;\n        address pairAddr = boboFactory.getPair(baseToken, WMATIC);        \n        BoboPair boboPair = BoboPair(pairAddr);\n        (uint256 preBaseTokenAmount, uint256 preQuoteTokenAmount) = boboPair.getTotalHangingTokenAmount(address(this));\n        uint256 preOrderNumber = boboPair.getTotalOrderNumber(_bBuy);\n\n        address inToken = _bBuy ? baseToken : WMATIC;\n        uint256 prePendingBobo = boboFarmer.pendingBOBO(inToken, address(this));\n        uint256 preWantTokenAmount = boboFarmer.stakedWantTokens(inToken, address(this));\n\n        boboPair.addLimitedOrder(_bBuy, _spotPrice, _amountIn, _slippagePercent);\n        if (_amountIn > 900000)\n            checkBoboPair(boboPair, _bBuy, _amountIn, preOrderNumber, preBaseTokenAmount, preQuoteTokenAmount);\n        if (_amountIn > 1000000)\n            checkBoboFarmer(_bBuy, _amountIn, inToken, prePendingBobo, preWantTokenAmount);\n    }\n    \n    function checkBoboPair(BoboPair boboPair, bool _bBuy, uint256 _amountIn, uint256 preOrderNumber, uint256 preBaseTokenAmount, uint256 preQuoteTokenAmount) private {\n        (uint256 baseTokenAmount, uint256 quoteTokenAmount) = boboPair.getTotalHangingTokenAmount(address(this));\n        uint256 orderNumber = boboPair.getTotalOrderNumber(_bBuy);\n\n        if (_bBuy) {\n            require(preBaseTokenAmount.add(_amountIn) == baseTokenAmount, \"BaseTokenAmount error\");\n        } else {\n            require(preQuoteTokenAmount.add(_amountIn) == quoteTokenAmount, \"BaseTokenAmount error\");\n        }\n        require(orderNumber.sub(preOrderNumber) == 1, \"OrderNumber error\");\n    }\n    \n    function checkBoboFarmer(bool _bBuy, uint256 _amountIn, address inToken, uint256 prePendingBobo, uint256 preWantTokenAmount) private {\n        uint256 pendingBobo = boboFarmer.pendingBOBO(inToken, address(this));   // bobo\n        uint256 wantTokenAmount = boboFarmer.stakedWantTokens(inToken, address(this));  //\n        if (_bBuy) {\n            require(pendingBobo == 0, \"Pending Bobo is not zero.\");\n            if (_amountIn > 1100000)\n                require(wantTokenAmount.sub(preWantTokenAmount).sub(_amountIn) >= 0, \"Want token amount error.\");\n        } else {\n            require(pendingBobo == prePendingBobo, \"Pending Bobo is not equal pre bobo.\");\n            require(wantTokenAmount == preWantTokenAmount, \"Want token is not equal pre want token.\");\n        }\n    }\n    \n    function pendingBobo() public returns(uint256 usdtBobo, uint256 usdcBobo) {\n        usdtBobo = boboFarmer.pendingBOBO(USDT, address(this));\n        usdcBobo = boboFarmer.pendingBOBO(USDC, address(this));\n    }\n\n    function stakedWantTokens() public returns(uint256 usdt, uint256 usdc) {\n        usdt = boboFarmer.stakedWantTokens(USDT, address(this));\n        usdc = boboFarmer.stakedWantTokens(USDC, address(this));\n    }\n\n    function getAllOrders(bool bUsdt) public returns(NFTInfo[] memory orders) {\n        address baseToken = bUsdt ? USDT : USDC;\n        address pairAddr = boboFactory.getPair(baseToken, WMATIC);        \n        BoboPair boboPair = BoboPair(pairAddr);\n\n        uint256 number = boboPair.getUserHangingOrderNumber(address(this));\n        orders = boboPair.getUserHangingOrderInfos(address(this), 0, number);\n    }\n\n    function cancelOrder(uint256 _orderId) public {\n        address pairAddr = boboFactory.getPair(USDT, WMATIC);\n        BoboPair boboPair = BoboPair(pairAddr);\n        boboPair.cancelOrder(_orderId);\n\n        NFTInfo memory orderInfo = orderNFT.getOrderInfo(_orderId); \n        require(orderInfo.status == OrderStatus.ManualCanceled, \"Order status error\");\n        if (orderInfo.bBuyQuoteToken) {\n\n        }\n    }\n\n    function withdraw(address _token) public {\n        ERC20(_token).transfer(msg.sender, ERC20(_token).balanceOf(address(this)));\n    }\n\n    function earn() public {\n        stratMaticSushi.earn();\n    }\n}\n",
  "sourcePath": "/Users/mryu/blockchain/bobo-metaverse/boboswap-contract/contracts/test/BoboSwapTester.sol",
  "compiler": {
    "name": "solc",
    "version": "0.6.12+commit.27d51765.Emscripten.clang"
  },
  "schemaVersion": "3.4.3",
  "updatedAt": "2021-08-21T16:14:51.988Z",
  "devdoc": {
    "kind": "dev",
    "methods": {},
    "version": 1
  },
  "userdoc": {
    "kind": "user",
    "methods": {},
    "version": 1
  }
}