{
  "contractName": "BoboFund",
  "abi": [
    {
      "inputs": [
        {
          "internalType": "contract IERC20",
          "name": "_bobo",
          "type": "address"
        },
        {
          "internalType": "uint256",
          "name": "_startBlock",
          "type": "uint256"
        }
      ],
      "stateMutability": "nonpayable",
      "type": "constructor"
    },
    {
      "anonymous": false,
      "inputs": [
        {
          "indexed": true,
          "internalType": "address",
          "name": "user",
          "type": "address"
        },
        {
          "indexed": true,
          "internalType": "uint256",
          "name": "pid",
          "type": "uint256"
        },
        {
          "indexed": false,
          "internalType": "uint256",
          "name": "amount",
          "type": "uint256"
        }
      ],
      "name": "Deposit",
      "type": "event"
    },
    {
      "anonymous": false,
      "inputs": [
        {
          "indexed": true,
          "internalType": "address",
          "name": "previousOwner",
          "type": "address"
        },
        {
          "indexed": true,
          "internalType": "address",
          "name": "newOwner",
          "type": "address"
        }
      ],
      "name": "OwnershipTransferred",
      "type": "event"
    },
    {
      "anonymous": false,
      "inputs": [
        {
          "indexed": true,
          "internalType": "address",
          "name": "user",
          "type": "address"
        },
        {
          "indexed": true,
          "internalType": "uint256",
          "name": "pid",
          "type": "uint256"
        },
        {
          "indexed": false,
          "internalType": "uint256",
          "name": "amount",
          "type": "uint256"
        }
      ],
      "name": "Withdraw",
      "type": "event"
    },
    {
      "inputs": [],
      "name": "bobo",
      "outputs": [
        {
          "internalType": "contract IERC20",
          "name": "",
          "type": "address"
        }
      ],
      "stateMutability": "view",
      "type": "function"
    },
    {
      "inputs": [],
      "name": "owner",
      "outputs": [
        {
          "internalType": "address",
          "name": "",
          "type": "address"
        }
      ],
      "stateMutability": "view",
      "type": "function"
    },
    {
      "inputs": [
        {
          "internalType": "uint256",
          "name": "",
          "type": "uint256"
        }
      ],
      "name": "poolInfo",
      "outputs": [
        {
          "internalType": "uint256",
          "name": "totalDepositAmount",
          "type": "uint256"
        },
        {
          "internalType": "uint256",
          "name": "allocPoint",
          "type": "uint256"
        },
        {
          "internalType": "uint256",
          "name": "lastRewardBoboAmount",
          "type": "uint256"
        },
        {
          "internalType": "uint256",
          "name": "accBoboPerShare",
          "type": "uint256"
        }
      ],
      "stateMutability": "view",
      "type": "function"
    },
    {
      "inputs": [],
      "name": "renounceOwnership",
      "outputs": [],
      "stateMutability": "nonpayable",
      "type": "function"
    },
    {
      "inputs": [],
      "name": "startBlock",
      "outputs": [
        {
          "internalType": "uint256",
          "name": "",
          "type": "uint256"
        }
      ],
      "stateMutability": "view",
      "type": "function"
    },
    {
      "inputs": [],
      "name": "totalAllocPoint",
      "outputs": [
        {
          "internalType": "uint256",
          "name": "",
          "type": "uint256"
        }
      ],
      "stateMutability": "view",
      "type": "function"
    },
    {
      "inputs": [],
      "name": "totalBoboAmount",
      "outputs": [
        {
          "internalType": "uint256",
          "name": "",
          "type": "uint256"
        }
      ],
      "stateMutability": "view",
      "type": "function"
    },
    {
      "inputs": [
        {
          "internalType": "address",
          "name": "newOwner",
          "type": "address"
        }
      ],
      "name": "transferOwnership",
      "outputs": [],
      "stateMutability": "nonpayable",
      "type": "function"
    },
    {
      "inputs": [
        {
          "internalType": "uint256",
          "name": "",
          "type": "uint256"
        },
        {
          "internalType": "address",
          "name": "",
          "type": "address"
        }
      ],
      "name": "userInfo",
      "outputs": [
        {
          "internalType": "uint256",
          "name": "amount",
          "type": "uint256"
        },
        {
          "internalType": "uint256",
          "name": "rewardDebt",
          "type": "uint256"
        }
      ],
      "stateMutability": "view",
      "type": "function"
    },
    {
      "inputs": [],
      "name": "poolLength",
      "outputs": [
        {
          "internalType": "uint256",
          "name": "",
          "type": "uint256"
        }
      ],
      "stateMutability": "view",
      "type": "function"
    },
    {
      "inputs": [
        {
          "internalType": "uint256",
          "name": "_allocPoint",
          "type": "uint256"
        },
        {
          "internalType": "contract IERC20",
          "name": "_lpToken",
          "type": "address"
        },
        {
          "internalType": "bool",
          "name": "_withUpdate",
          "type": "bool"
        }
      ],
      "name": "add",
      "outputs": [],
      "stateMutability": "nonpayable",
      "type": "function"
    },
    {
      "inputs": [
        {
          "internalType": "uint256",
          "name": "_pid",
          "type": "uint256"
        },
        {
          "internalType": "address",
          "name": "_user",
          "type": "address"
        },
        {
          "internalType": "uint256",
          "name": "_amount",
          "type": "uint256"
        }
      ],
      "name": "deposit",
      "outputs": [],
      "stateMutability": "nonpayable",
      "type": "function"
    },
    {
      "inputs": [
        {
          "internalType": "uint256",
          "name": "_pid",
          "type": "uint256"
        },
        {
          "internalType": "address",
          "name": "_user",
          "type": "address"
        }
      ],
      "name": "pendingBobo",
      "outputs": [
        {
          "internalType": "uint256",
          "name": "",
          "type": "uint256"
        }
      ],
      "stateMutability": "view",
      "type": "function"
    },
    {
      "inputs": [],
      "name": "massUpdatePools",
      "outputs": [],
      "stateMutability": "nonpayable",
      "type": "function"
    },
    {
      "inputs": [
        {
          "internalType": "uint256",
          "name": "_pid",
          "type": "uint256"
        }
      ],
      "name": "updatePool",
      "outputs": [],
      "stateMutability": "nonpayable",
      "type": "function"
    },
    {
      "inputs": [
        {
          "internalType": "uint256",
          "name": "_boboAmount",
          "type": "uint256"
        }
      ],
      "name": "transferBobo",
      "outputs": [],
      "stateMutability": "nonpayable",
      "type": "function"
    },
    {
      "inputs": [
        {
          "internalType": "uint256",
          "name": "_pid",
          "type": "uint256"
        }
      ],
      "name": "withdraw",
      "outputs": [],
      "stateMutability": "nonpayable",
      "type": "function"
    }
  ],
  "bytecode": "0x6080604052600060045534801561001557600080fd5b5060405161137e38038061137e833981016040819052610034916100b5565b600061003e6100b1565b600080546001600160a01b0319166001600160a01b0383169081178255604051929350917f8be0079c531659141344cd1fd0a4f28419497f9722a3daafe3b4186f6b6457e0908290a350600180546001600160a01b0319166001600160a01b0393909316929092179091556005556100ed565b3390565b600080604083850312156100c7578182fd5b82516001600160a01b03811681146100dd578283fd5b6020939093015192949293505050565b611282806100fc6000396000f3fe608060405234801561001057600080fd5b506004361061010b5760003560e01c80634fa87a0e116100a25780638da5cb5b116100715780638da5cb5b146101dc57806393f1a40b146101e4578063a94d831c14610205578063bc157ac114610218578063f2fde38b1461022b5761010b565b80634fa87a0e146101b157806351eb05a6146101b9578063630b5ba1146101cc578063715018a6146101d45761010b565b80631eaaa045116100de5780631eaaa0451461016e5780632e1a7d4d1461018357806342bb5e351461019657806348cd4cb1146101a95761010b565b8063081e3eda146101105780631526fe271461012e57806317caf6f1146101515780631a016c0914610159575b600080fd5b61011861023e565b60405161012591906111cb565b60405180910390f35b61014161013c366004610e6e565b610244565b60405161012594939291906111e2565b61011861027b565b610161610281565b6040516101259190610f61565b61018161017c366004610f04565b610290565b005b610181610191366004610e6e565b6103c4565b6101186101a4366004610e9e565b6104ca565b6101186105a6565b6101186105ac565b6101816101c7366004610e6e565b6105b2565b610181610648565b61018161066b565b6101616106ea565b6101f76101f2366004610e9e565b6106f9565b6040516101259291906111d4565b610181610213366004610e6e565b61071d565b610181610226366004610ecd565b610748565b610181610239366004610e36565b610891565b60025490565b6002818154811061025157fe5b60009182526020909120600490910201805460018201546002830154600390930154919350919084565b60045481565b6001546001600160a01b031681565b610298610947565b6000546001600160a01b039081169116146102ce5760405162461bcd60e51b81526004016102c5906110e9565b60405180910390fd5b80156102dc576102dc610648565b6004546102e9908461094b565b600490815560408051608081018252600080825260208201968752918101828152606082018381526002805460018101825594529151929093027f405787fa12a823e0f2b7631cc41b3ba8828b3321ca811111fa75cd3aa3bb5ace81019290925594517f405787fa12a823e0f2b7631cc41b3ba8828b3321ca811111fa75cd3aa3bb5acf82015590517f405787fa12a823e0f2b7631cc41b3ba8828b3321ca811111fa75cd3aa3bb5ad082015592517f405787fa12a823e0f2b7631cc41b3ba8828b3321ca811111fa75cd3aa3bb5ad1909301929092555050565b6000600282815481106103d357fe5b6000918252602080832085845260038252604080852033865290925292208054600490920290920192506104195760405162461bcd60e51b81526004016102c590611155565b610422836105b2565b600061045c826001015461045664e8d4a510006104508760030154876000015461097790919063ffffffff16565b906109b1565b906109f3565b90506104683382610a35565b600383015482546104839164e8d4a510009161045091610977565b6001830155604051849033907ff279e6a1f5e320cca91135676d9cb6e44ca8a08c0b88342bcdb1144f6511b568906104bc9085906111cb565b60405180910390a350505050565b600080600284815481106104da57fe5b60009182526020808320878452600380835260408086206001600160a01b038a16875290935291909320600490920290920191820154825492935090911561057257600061054b600454610450866001015461054588600201546006546109f390919063ffffffff16565b90610977565b845490915061056e90610567906104508464e8d4a51000610977565b839061094b565b9150505b61059a826001015461045664e8d4a5100061045085876000015461097790919063ffffffff16565b93505050505b92915050565b60055481565b60065481565b6000600282815481106105c157fe5b90600052602060002090600402019050600654816002015414156105e55750610645565b600061060e600454610450846001015461054586600201546006546109f390919063ffffffff16565b82549091506106359061062a906104508464e8d4a51000610977565b60038401549061094b565b6003830155506006546002909101555b50565b60025460005b818110156106675761065f816105b2565b60010161064e565b5050565b610673610947565b6000546001600160a01b039081169116146106a05760405162461bcd60e51b81526004016102c5906110e9565b600080546040516001600160a01b03909116907f8be0079c531659141344cd1fd0a4f28419497f9722a3daafe3b4186f6b6457e0908390a3600080546001600160a01b0319169055565b6000546001600160a01b031690565b60036020908152600092835260408084209091529082529020805460019091015482565b600154610735906001600160a01b0316333084610bd5565b600654610742908261094b565b60065550565b610750610947565b6000546001600160a01b0390811691161461077d5760405162461bcd60e51b81526004016102c5906110e9565b60006002848154811061078c57fe5b600091825260208083208784526003825260408085206001600160a01b03891686529092529220600490910290910191506107c6856105b2565b8054156108095760006107fb826001015461045664e8d4a510006104508760030154876000015461097790919063ffffffff16565b90506108078582610a35565b505b8154610815908461094b565b82558054610823908461094b565b80825560038301546108409164e8d4a51000916104509190610977565b816001018190555084846001600160a01b03167f90890809c654f11d6e72a28fa60149770a0d11ec6c92319d6ceb2bb0a4ea1a158560405161088291906111cb565b60405180910390a35050505050565b610899610947565b6000546001600160a01b039081169116146108c65760405162461bcd60e51b81526004016102c5906110e9565b6001600160a01b0381166108ec5760405162461bcd60e51b81526004016102c590610fe5565b600080546040516001600160a01b03808516939216917f8be0079c531659141344cd1fd0a4f28419497f9722a3daafe3b4186f6b6457e091a3600080546001600160a01b0319166001600160a01b0392909216919091179055565b3390565b6000828201838110156109705760405162461bcd60e51b81526004016102c59061102b565b9392505050565b600082610986575060006105a0565b8282028284828161099357fe5b04146109705760405162461bcd60e51b81526004016102c5906110a8565b600061097083836040518060400160405280601a81526020017f536166654d6174683a206469766973696f6e206279207a65726f000000000000815250610c2d565b600061097083836040518060400160405280601e81526020017f536166654d6174683a207375627472616374696f6e206f766572666c6f770000815250610c64565b6001546040516370a0823160e01b81526000916001600160a01b0316906370a0823190610a66903090600401610f61565b60206040518083038186803b158015610a7e57600080fd5b505afa158015610a92573d6000803e3d6000fd5b505050506040513d601f19601f82011682018060405250810190610ab69190610e86565b905080821115610b4a5760015460405163a9059cbb60e01b81526001600160a01b039091169063a9059cbb90610af29086908590600401610f99565b602060405180830381600087803b158015610b0c57600080fd5b505af1158015610b20573d6000803e3d6000fd5b505050506040513d601f19601f82011682018060405250810190610b449190610e52565b50610bd0565b60015460405163a9059cbb60e01b81526001600160a01b039091169063a9059cbb90610b7c9086908690600401610f99565b602060405180830381600087803b158015610b9657600080fd5b505af1158015610baa573d6000803e3d6000fd5b505050506040513d601f19601f82011682018060405250810190610bce9190610e52565b505b505050565b610bce846323b872dd60e01b858585604051602401610bf693929190610f75565b60408051601f198184030181529190526020810180516001600160e01b03166001600160e01b031990931692909217909152610c90565b60008183610c4e5760405162461bcd60e51b81526004016102c59190610fb2565b506000838581610c5a57fe5b0495945050505050565b60008184841115610c885760405162461bcd60e51b81526004016102c59190610fb2565b505050900390565b6060610ce5826040518060400160405280602081526020017f5361666545524332303a206c6f772d6c6576656c2063616c6c206661696c6564815250856001600160a01b0316610d1f9092919063ffffffff16565b805190915015610bd05780806020019051810190610d039190610e52565b610bd05760405162461bcd60e51b81526004016102c590611181565b6060610d2e8484600085610d36565b949350505050565b606082471015610d585760405162461bcd60e51b81526004016102c590611062565b610d6185610df7565b610d7d5760405162461bcd60e51b81526004016102c59061111e565b60006060866001600160a01b03168587604051610d9a9190610f45565b60006040518083038185875af1925050503d8060008114610dd7576040519150601f19603f3d011682016040523d82523d6000602084013e610ddc565b606091505b5091509150610dec828286610dfd565b979650505050505050565b3b151590565b60608315610e0c575081610970565b825115610e1c5782518084602001fd5b8160405162461bcd60e51b81526004016102c59190610fb2565b600060208284031215610e47578081fd5b813561097081611229565b600060208284031215610e63578081fd5b81516109708161123e565b600060208284031215610e7f578081fd5b5035919050565b600060208284031215610e97578081fd5b5051919050565b60008060408385031215610eb0578081fd5b823591506020830135610ec281611229565b809150509250929050565b600080600060608486031215610ee1578081fd5b833592506020840135610ef381611229565b929592945050506040919091013590565b600080600060608486031215610f18578283fd5b833592506020840135610f2a81611229565b91506040840135610f3a8161123e565b809150509250925092565b60008251610f578184602087016111fd565b9190910192915050565b6001600160a01b0391909116815260200190565b6001600160a01b039384168152919092166020820152604081019190915260600190565b6001600160a01b03929092168252602082015260400190565b6000602082528251806020840152610fd18160408501602087016111fd565b601f01601f19169190910160400192915050565b60208082526026908201527f4f776e61626c653a206e6577206f776e657220697320746865207a65726f206160408201526564647265737360d01b606082015260800190565b6020808252601b908201527f536166654d6174683a206164646974696f6e206f766572666c6f770000000000604082015260600190565b60208082526026908201527f416464726573733a20696e73756666696369656e742062616c616e636520666f6040820152651c8818d85b1b60d21b606082015260800190565b60208082526021908201527f536166654d6174683a206d756c7469706c69636174696f6e206f766572666c6f6040820152607760f81b606082015260800190565b6020808252818101527f4f776e61626c653a2063616c6c6572206973206e6f7420746865206f776e6572604082015260600190565b6020808252601d908201527f416464726573733a2063616c6c20746f206e6f6e2d636f6e7472616374000000604082015260600190565b6020808252601290820152711dda5d1a191c985dce881b9bdd0819dbdbd960721b604082015260600190565b6020808252602a908201527f5361666545524332303a204552433230206f7065726174696f6e20646964206e6040820152691bdd081cdd58d8d9595960b21b606082015260800190565b90815260200190565b918252602082015260400190565b93845260208401929092526040830152606082015260800190565b60005b83811015611218578181015183820152602001611200565b83811115610bce5750506000910152565b6001600160a01b038116811461064557600080fd5b801515811461064557600080fdfea2646970667358221220724aa400d9266d63a3631c8525279da6c969a4f10378911ffac461d97a88cfb664736f6c634300060c0033",
  "immutableReferences": {},
  "source": "// SPDX-License-Identifier: MIT\npragma solidity ^0.6.0;\npragma experimental ABIEncoderV2;\n        \nimport \"./common/BasicStruct.sol\";\n\n// BoboBOBO\n// 15%\n// 15%\n// 10%\ncontract BoboFund is Ownable {\n    using SafeMath for uint256;\n    using SafeERC20 for IERC20;\n\n    // Info of each user.\n    struct UserInfo {\n        uint256 amount;\n        uint256 rewardDebt;  \n    }\n\n    // Info of each pool.\n    struct PoolInfo {\n        uint256 totalDepositAmount;\n        uint256 allocPoint;       \n        uint256 lastRewardBoboAmount;  \n        uint256 accBoboPerShare; \n    }\n\n    IERC20 public bobo;\n\n    PoolInfo[] public poolInfo;\n    mapping (uint256 => mapping (address => UserInfo)) public userInfo;\n    uint256 public totalAllocPoint = 0;\n    uint256 public startBlock;\n    uint256 public totalBoboAmount;\n\n    event Deposit(address indexed user, uint256 indexed pid, uint256 amount);\n    event Withdraw(address indexed user, uint256 indexed pid, uint256 amount);\n\n    constructor(\n        IERC20 _bobo,              \n        uint256 _startBlock\n    ) public {\n        bobo = _bobo;\n        startBlock = _startBlock;\n    }\n\n    function poolLength() external view returns (uint256) {\n        return poolInfo.length;\n    }\n\n    // LP\n    function add(uint256 _allocPoint, IERC20 _lpToken, bool _withUpdate) public onlyOwner {\n        if (_withUpdate) {\n            massUpdatePools();\n        }\n        totalAllocPoint = totalAllocPoint.add(_allocPoint);   // \n        poolInfo.push(PoolInfo({\n            totalDepositAmount: 0,\n            allocPoint: _allocPoint,\n            lastRewardBoboAmount: 0,\n            accBoboPerShare: 0\n        }));\n    }\n    // \n    function deposit(uint256 _pid, address _user, uint256 _amount) public onlyOwner {\n        PoolInfo storage pool = poolInfo[_pid];            // \n        UserInfo storage user = userInfo[_pid][_user];  // \n        updatePool(_pid);\n        if (user.amount > 0) {\n            // pending\n            uint256 pending = user.amount.mul(pool.accBoboPerShare).div(1e12).sub(user.rewardDebt);\n            safeBoboTransfer(_user, pending);\n        }\n        pool.totalDepositAmount = pool.totalDepositAmount.add(_amount);\n        user.amount = user.amount.add(_amount);          // LPLP\n        user.rewardDebt = user.amount.mul(pool.accBoboPerShare).div(1e12);    \n        emit Deposit(_user, _pid, _amount);\n    }\n\n    // bobo\n    function pendingBobo(uint256 _pid, address _user) external view returns (uint256) {\n        PoolInfo storage pool = poolInfo[_pid];\n        UserInfo storage user = userInfo[_pid][_user];\n\n        uint256 accBoboPerShare = pool.accBoboPerShare;\n        if (pool.totalDepositAmount != 0) {\n            // bobo\n            uint256 boboReward = totalBoboAmount.sub(pool.lastRewardBoboAmount).mul(pool.allocPoint).div(totalAllocPoint);\n            accBoboPerShare = accBoboPerShare.add(boboReward.mul(1e12).div(pool.totalDepositAmount));   // 1e121e12\n        }\n        return user.amount.mul(accBoboPerShare).div(1e12).sub(user.rewardDebt);  \n    }\n\n    // \n    function massUpdatePools() public {\n        uint256 length = poolInfo.length;\n        for (uint256 pid = 0; pid < length; ++pid) {\n            updatePool(pid);\n        }\n    }\n\n    // 10%bobo\n    function updatePool(uint256 _pid) public {\n        PoolInfo storage pool = poolInfo[_pid];\n                \n        if (pool.lastRewardBoboAmount == totalBoboAmount) {\n            return;\n        }\n        uint256 boboReward = totalBoboAmount.sub(pool.lastRewardBoboAmount).mul(pool.allocPoint).div(totalAllocPoint);   // bobo\n        pool.accBoboPerShare = pool.accBoboPerShare.add(boboReward.mul(1e12).div(pool.totalDepositAmount));  // lpbobo\n        pool.lastRewardBoboAmount = totalBoboAmount;        // BOBO\n    }\n\n    function transferBobo(uint256 _boboAmount) public {\n        bobo.safeTransferFrom(msg.sender, address(this), _boboAmount);\n        totalBoboAmount = totalBoboAmount.add(_boboAmount);\n    }\n    // BOBO\n    function withdraw(uint256 _pid) public {\n        PoolInfo storage pool = poolInfo[_pid];\n        UserInfo storage user = userInfo[_pid][msg.sender];\n        require(user.amount > 0, \"withdraw: not good\");\n        updatePool(_pid);\n        uint256 pending = user.amount.mul(pool.accBoboPerShare).div(1e12).sub(user.rewardDebt);\n        safeBoboTransfer(msg.sender, pending);\n        user.rewardDebt = user.amount.mul(pool.accBoboPerShare).div(1e12);\n        emit Withdraw(msg.sender, _pid, pending);\n    }\n\n    // bobo.\n    function safeBoboTransfer(address _to, uint256 _amount) internal {\n        uint256 boboBal = bobo.balanceOf(address(this));\n        if (_amount > boboBal) {\n            bobo.transfer(_to, boboBal);\n        } else {\n            bobo.transfer(_to, _amount);\n        }\n    }\n}",
  "sourcePath": "/Users/mryu/blockchain/bobo-metaverse/boboswap-contract/contracts/BoboFund.sol",
  "compiler": {
    "name": "solc",
    "version": "0.6.12+commit.27d51765.Emscripten.clang"
  },
  "schemaVersion": "3.4.3",
  "updatedAt": "2021-08-21T16:14:51.714Z",
  "devdoc": {
    "kind": "dev",
    "methods": {
      "owner()": {
        "details": "Returns the address of the current owner."
      },
      "renounceOwnership()": {
        "details": "Leaves the contract without owner. It will not be possible to call `onlyOwner` functions anymore. Can only be called by the current owner. NOTE: Renouncing ownership will leave the contract without an owner, thereby removing any functionality that is only available to the owner."
      },
      "transferOwnership(address)": {
        "details": "Transfers ownership of the contract to a new account (`newOwner`). Can only be called by the current owner."
      }
    },
    "version": 1
  },
  "userdoc": {
    "kind": "user",
    "methods": {},
    "version": 1
  }
}