{
  "contractName": "BoboFarmer",
  "abi": [
    {
      "inputs": [
        {
          "internalType": "address",
          "name": "_boboTokenAddress",
          "type": "address"
        },
        {
          "internalType": "uint256",
          "name": "_startBlock",
          "type": "uint256"
        },
        {
          "internalType": "address",
          "name": "_fundAddr",
          "type": "address"
        }
      ],
      "stateMutability": "nonpayable",
      "type": "constructor"
    },
    {
      "anonymous": false,
      "inputs": [
        {
          "indexed": true,
          "internalType": "address",
          "name": "_tokenAddr",
          "type": "address"
        },
        {
          "indexed": true,
          "internalType": "address",
          "name": "user",
          "type": "address"
        },
        {
          "indexed": false,
          "internalType": "uint256",
          "name": "amount",
          "type": "uint256"
        }
      ],
      "name": "Deposit",
      "type": "event"
    },
    {
      "anonymous": false,
      "inputs": [
        {
          "indexed": true,
          "internalType": "address",
          "name": "_tokenAddr",
          "type": "address"
        },
        {
          "indexed": true,
          "internalType": "address",
          "name": "user",
          "type": "address"
        },
        {
          "indexed": false,
          "internalType": "uint256",
          "name": "amount",
          "type": "uint256"
        }
      ],
      "name": "EmergencyWithdraw",
      "type": "event"
    },
    {
      "anonymous": false,
      "inputs": [
        {
          "indexed": true,
          "internalType": "address",
          "name": "previousOwner",
          "type": "address"
        },
        {
          "indexed": true,
          "internalType": "address",
          "name": "newOwner",
          "type": "address"
        }
      ],
      "name": "OwnershipTransferred",
      "type": "event"
    },
    {
      "anonymous": false,
      "inputs": [
        {
          "indexed": true,
          "internalType": "address",
          "name": "_tokenAddr",
          "type": "address"
        },
        {
          "indexed": true,
          "internalType": "address",
          "name": "user",
          "type": "address"
        },
        {
          "indexed": false,
          "internalType": "uint256",
          "name": "amount",
          "type": "uint256"
        }
      ],
      "name": "Withdraw",
      "type": "event"
    },
    {
      "inputs": [
        {
          "internalType": "address",
          "name": "",
          "type": "address"
        }
      ],
      "name": "_auth",
      "outputs": [
        {
          "internalType": "bool",
          "name": "",
          "type": "bool"
        }
      ],
      "stateMutability": "view",
      "type": "function"
    },
    {
      "inputs": [
        {
          "internalType": "address",
          "name": "_authorizedAddr",
          "type": "address"
        }
      ],
      "name": "addAuthorized",
      "outputs": [
        {
          "internalType": "bool",
          "name": "",
          "type": "bool"
        }
      ],
      "stateMutability": "nonpayable",
      "type": "function"
    },
    {
      "inputs": [],
      "name": "boboPerBlock",
      "outputs": [
        {
          "internalType": "uint256",
          "name": "",
          "type": "uint256"
        }
      ],
      "stateMutability": "view",
      "type": "function"
    },
    {
      "inputs": [],
      "name": "boboTokenAddr",
      "outputs": [
        {
          "internalType": "address",
          "name": "",
          "type": "address"
        }
      ],
      "stateMutability": "view",
      "type": "function"
    },
    {
      "inputs": [],
      "name": "burnAddress",
      "outputs": [
        {
          "internalType": "address",
          "name": "",
          "type": "address"
        }
      ],
      "stateMutability": "view",
      "type": "function"
    },
    {
      "inputs": [
        {
          "internalType": "address",
          "name": "_authorizedAddr",
          "type": "address"
        }
      ],
      "name": "delAuthorized",
      "outputs": [
        {
          "internalType": "bool",
          "name": "",
          "type": "bool"
        }
      ],
      "stateMutability": "nonpayable",
      "type": "function"
    },
    {
      "inputs": [],
      "name": "fundAddr",
      "outputs": [
        {
          "internalType": "address",
          "name": "",
          "type": "address"
        }
      ],
      "stateMutability": "view",
      "type": "function"
    },
    {
      "inputs": [
        {
          "internalType": "uint256",
          "name": "_index",
          "type": "uint256"
        }
      ],
      "name": "getAuthorized",
      "outputs": [
        {
          "internalType": "address",
          "name": "",
          "type": "address"
        }
      ],
      "stateMutability": "view",
      "type": "function"
    },
    {
      "inputs": [],
      "name": "getAuthorizedLength",
      "outputs": [
        {
          "internalType": "uint256",
          "name": "",
          "type": "uint256"
        }
      ],
      "stateMutability": "view",
      "type": "function"
    },
    {
      "inputs": [
        {
          "internalType": "address",
          "name": "_authorizedAddr",
          "type": "address"
        }
      ],
      "name": "isAuthorized",
      "outputs": [
        {
          "internalType": "bool",
          "name": "",
          "type": "bool"
        }
      ],
      "stateMutability": "view",
      "type": "function"
    },
    {
      "inputs": [],
      "name": "owner",
      "outputs": [
        {
          "internalType": "address",
          "name": "",
          "type": "address"
        }
      ],
      "stateMutability": "view",
      "type": "function"
    },
    {
      "inputs": [
        {
          "internalType": "uint256",
          "name": "",
          "type": "uint256"
        }
      ],
      "name": "poolInfo",
      "outputs": [
        {
          "internalType": "contract IERC20",
          "name": "want",
          "type": "address"
        },
        {
          "internalType": "uint256",
          "name": "allocPoint",
          "type": "uint256"
        },
        {
          "internalType": "uint256",
          "name": "lastRewardBlock",
          "type": "uint256"
        },
        {
          "internalType": "uint256",
          "name": "accBOBOPerShare",
          "type": "uint256"
        },
        {
          "internalType": "address",
          "name": "strat",
          "type": "address"
        }
      ],
      "stateMutability": "view",
      "type": "function"
    },
    {
      "inputs": [],
      "name": "renounceOwnership",
      "outputs": [],
      "stateMutability": "nonpayable",
      "type": "function"
    },
    {
      "inputs": [],
      "name": "startBlock",
      "outputs": [
        {
          "internalType": "uint256",
          "name": "",
          "type": "uint256"
        }
      ],
      "stateMutability": "view",
      "type": "function"
    },
    {
      "inputs": [
        {
          "internalType": "address",
          "name": "",
          "type": "address"
        }
      ],
      "name": "tokenPidMap",
      "outputs": [
        {
          "internalType": "uint256",
          "name": "",
          "type": "uint256"
        }
      ],
      "stateMutability": "view",
      "type": "function"
    },
    {
      "inputs": [],
      "name": "totalAllocPoint",
      "outputs": [
        {
          "internalType": "uint256",
          "name": "",
          "type": "uint256"
        }
      ],
      "stateMutability": "view",
      "type": "function"
    },
    {
      "inputs": [
        {
          "internalType": "address",
          "name": "newOwner",
          "type": "address"
        }
      ],
      "name": "transferOwnership",
      "outputs": [],
      "stateMutability": "nonpayable",
      "type": "function"
    },
    {
      "inputs": [
        {
          "internalType": "uint256",
          "name": "",
          "type": "uint256"
        },
        {
          "internalType": "address",
          "name": "",
          "type": "address"
        }
      ],
      "name": "userInfo",
      "outputs": [
        {
          "internalType": "uint256",
          "name": "shares",
          "type": "uint256"
        },
        {
          "internalType": "uint256",
          "name": "rewardDebt",
          "type": "uint256"
        }
      ],
      "stateMutability": "view",
      "type": "function"
    },
    {
      "inputs": [
        {
          "internalType": "address",
          "name": "_fundAddr",
          "type": "address"
        }
      ],
      "name": "setFundAddr",
      "outputs": [],
      "stateMutability": "nonpayable",
      "type": "function"
    },
    {
      "inputs": [
        {
          "internalType": "uint256",
          "name": "_boboPerBlock",
          "type": "uint256"
        }
      ],
      "name": "setBoboPerBlock",
      "outputs": [],
      "stateMutability": "nonpayable",
      "type": "function"
    },
    {
      "inputs": [],
      "name": "poolLength",
      "outputs": [
        {
          "internalType": "uint256",
          "name": "",
          "type": "uint256"
        }
      ],
      "stateMutability": "view",
      "type": "function"
    },
    {
      "inputs": [
        {
          "internalType": "uint256",
          "name": "_allocPoint",
          "type": "uint256"
        },
        {
          "internalType": "address",
          "name": "_want",
          "type": "address"
        },
        {
          "internalType": "bool",
          "name": "_withUpdate",
          "type": "bool"
        },
        {
          "internalType": "address",
          "name": "_strat",
          "type": "address"
        }
      ],
      "name": "add",
      "outputs": [],
      "stateMutability": "nonpayable",
      "type": "function"
    },
    {
      "inputs": [
        {
          "internalType": "address",
          "name": "_tokenAddr",
          "type": "address"
        },
        {
          "internalType": "uint256",
          "name": "_allocPoint",
          "type": "uint256"
        },
        {
          "internalType": "bool",
          "name": "_withUpdate",
          "type": "bool"
        }
      ],
      "name": "setPoolPoint",
      "outputs": [],
      "stateMutability": "nonpayable",
      "type": "function"
    },
    {
      "inputs": [
        {
          "internalType": "uint256",
          "name": "_from",
          "type": "uint256"
        },
        {
          "internalType": "uint256",
          "name": "_to",
          "type": "uint256"
        }
      ],
      "name": "getMultiplier",
      "outputs": [
        {
          "internalType": "uint256",
          "name": "",
          "type": "uint256"
        }
      ],
      "stateMutability": "pure",
      "type": "function"
    },
    {
      "inputs": [
        {
          "internalType": "address",
          "name": "_tokenAddr",
          "type": "address"
        },
        {
          "internalType": "address",
          "name": "_user",
          "type": "address"
        }
      ],
      "name": "pendingBOBO",
      "outputs": [
        {
          "internalType": "uint256",
          "name": "",
          "type": "uint256"
        }
      ],
      "stateMutability": "view",
      "type": "function"
    },
    {
      "inputs": [
        {
          "internalType": "address",
          "name": "_tokenAddr",
          "type": "address"
        },
        {
          "internalType": "address",
          "name": "_user",
          "type": "address"
        }
      ],
      "name": "stakedWantTokens",
      "outputs": [
        {
          "internalType": "uint256",
          "name": "",
          "type": "uint256"
        }
      ],
      "stateMutability": "view",
      "type": "function"
    },
    {
      "inputs": [],
      "name": "massUpdatePools",
      "outputs": [],
      "stateMutability": "nonpayable",
      "type": "function"
    },
    {
      "inputs": [
        {
          "internalType": "uint256",
          "name": "_pid",
          "type": "uint256"
        }
      ],
      "name": "updatePool",
      "outputs": [],
      "stateMutability": "nonpayable",
      "type": "function"
    },
    {
      "inputs": [
        {
          "internalType": "address",
          "name": "_tokenAddr",
          "type": "address"
        },
        {
          "internalType": "address",
          "name": "_userAddr",
          "type": "address"
        },
        {
          "internalType": "uint256",
          "name": "_wantAmt",
          "type": "uint256"
        }
      ],
      "name": "deposit",
      "outputs": [],
      "stateMutability": "nonpayable",
      "type": "function"
    },
    {
      "inputs": [
        {
          "internalType": "uint256",
          "name": "_orderId",
          "type": "uint256"
        }
      ],
      "name": "depositOrderNFT",
      "outputs": [],
      "stateMutability": "nonpayable",
      "type": "function"
    },
    {
      "inputs": [
        {
          "internalType": "address",
          "name": "_tokenAddr",
          "type": "address"
        },
        {
          "internalType": "address",
          "name": "_userAddr",
          "type": "address"
        },
        {
          "internalType": "uint256",
          "name": "_wantAmt",
          "type": "uint256"
        }
      ],
      "name": "withdraw",
      "outputs": [],
      "stateMutability": "nonpayable",
      "type": "function"
    },
    {
      "inputs": [
        {
          "internalType": "address",
          "name": "_tokenAddr",
          "type": "address"
        },
        {
          "internalType": "address",
          "name": "_newStratAddr",
          "type": "address"
        }
      ],
      "name": "migrateNewStrat",
      "outputs": [],
      "stateMutability": "nonpayable",
      "type": "function"
    },
    {
      "inputs": [],
      "name": "returnU4Test",
      "outputs": [],
      "stateMutability": "nonpayable",
      "type": "function"
    }
  ],
  "bytecode": "0x6080604052600580546001600160a01b03191661dead1790556000600b553480156200002a57600080fd5b5060405162002ff238038062002ff28339810160408190526200004d9162000102565b600062000059620000e0565b600080546001600160a01b0319166001600160a01b0383169081178255604051929350917f8be0079c531659141344cd1fd0a4f28419497f9722a3daafe3b4186f6b6457e0908290a3506001600355600480546001600160a01b039485166001600160a01b0319918216179091556008929092556006805491909316911617905562000144565b3390565b80516001600160a01b0381168114620000fc57600080fd5b92915050565b60008060006060848603121562000117578283fd5b620001238585620000e4565b9250602084015191506200013b8560408601620000e4565b90509250925092565b612e9e80620001546000396000f3fe608060405234801561001057600080fd5b50600436106101fb5760003560e01c8063715018a61161011a578063cf1c316a116100ad578063e6a080251161007c578063e6a08025146103f7578063ec2f83da1461040a578063f2fde38b14610412578063f419d47614610425578063fe9fbb801461042d576101fb565b8063cf1c316a146103b6578063d0f2ced1146103c9578063d8fc5d7b146103dc578063d9caed12146103e4576101fb565b80638dbb1e3a116100e95780638dbb1e3a1461035c57806393ce61ae1461036f57806393f1a40b14610382578063c63cc564146103a3576101fb565b8063715018a6146103265780638340f5491461032e5780638d1afc46146103415780638da5cb5b14610354576101fb565b806348cd4cb111610192578063682cb91111610161578063682cb911146102e35780636f39cfcd146102f8578063704b02481461030b57806370d5ae051461031e576101fb565b806348cd4cb1146102ad57806351eb05a6146102b55780635f70edcf146102c8578063630b5ba1146102db576101fb565b80631de47f28116101ce5780631de47f281461026a5780632013af351461027f57806331a40b62146102925780633397e527146102a5576101fb565b8063081e3eda146102005780631526fe271461021e57806317caf6f11461024257806319c2146b1461024a575b600080fd5b610208610440565b6040516102159190612deb565b60405180910390f35b61023161022c36600461274a565b610446565b6040516102159594939291906128e7565b610208610491565b61025d61025836600461263d565b610497565b60405161021591906128dc565b61027d61027836600461274a565b6104ac565b005b61020861028d366004612675565b6104f7565b61025d6102a036600461263d565b6106d1565b610208610739565b61020861074a565b61027d6102c336600461274a565b610750565b61027d6102d636600461279e565b6109b2565b61027d610c38565b6102eb610c5b565b6040516102159190612850565b61027d61030636600461263d565b610c6a565b61027d61031936600461274a565b6109af565b6102eb610cc1565b61027d610cd0565b61027d61033c3660046126ad565b610d4f565b61027d61034f3660046126ed565b610fd6565b6102eb6110d7565b61020861036a3660046127f0565b6110e6565b61027d61037d366004612675565b6110f9565b61039561039036600461277a565b61140e565b604051610215929190612e0b565b6102eb6103b136600461274a565b611432565b61025d6103c436600461263d565b611469565b6102086103d7366004612675565b6114d1565b610208611704565b61027d6103f23660046126ad565b61170a565b61020861040536600461263d565b611b7a565b6102eb611b8c565b61027d61042036600461263d565b611b9b565b61027d611c51565b61025d61043b36600461263d565b611e64565b60095490565b6009818154811061045357fe5b6000918252602090912060059091020180546001820154600283015460038401546004909401546001600160a01b0393841695509193909290911685565b600b5481565b600d6020526000908152604090205460ff1681565b6104b4611e71565b6000546001600160a01b039081169116146104ea5760405162461bcd60e51b81526004016104e190612b6c565b60405180910390fd5b6104f2610c38565b600755565b6001600160a01b0382166000908152600c602052604081205461052c5760405162461bcd60e51b81526004016104e190612a40565b6001600160a01b0383166000908152600c60205260408120546009805460001990920192918390811061055b57fe5b60009182526020808320858452600a825260408085206001600160a01b03808b1687529352808520600360059095029092019384015460048086015486549351631190d9e560e11b815296985093969195919493841693632321b3ca936105c59391169101612850565b60206040518083038186803b1580156105dd57600080fd5b505afa1580156105f1573d6000803e3d6000fd5b505050506040513d601f19601f820116820180604052508101906106159190612762565b905083600201544311801561062957508015155b1561069557600061063e8560020154436110e6565b90506000610671600b5461066b886001015461066560075487611e7590919063ffffffff16565b90611e75565b90611eaf565b90506106906106898461066b8464e8d4a51000611e75565b8590611ef1565b935050505b6106c383600101546106bd64e8d4a5100061066b868860000154611e7590919063ffffffff16565b90611f16565b955050505050505b92915050565b60006106db611e71565b6000546001600160a01b039081169116146107085760405162461bcd60e51b81526004016104e190612b6c565b6001600160a01b03821661072e5760405162461bcd60e51b81526004016104e190612d96565b6106cb600183611f58565b60006107456001611f6d565b905090565b60085481565b60006009828154811061075f57fe5b906000526020600020906005020190508060020154431161078057506109af565b6004808201548254604051631190d9e560e11b81526000936001600160a01b0393841693632321b3ca936107b79391169101612850565b60206040518083038186803b1580156107cf57600080fd5b505afa1580156107e3573d6000803e3d6000fd5b505050506040513d601f19601f820116820180604052508101906108079190612762565b90508061081b5750436002909101556109af565b600061082b8360020154436110e6565b90506000811161083d575050506109af565b6000610862600b5461066b866001015461066560075487611e7590919063ffffffff16565b600480546040516340c10f1960e01b81529293506001600160a01b0316916340c10f1991610894913091869101612864565b602060405180830381600087803b1580156108ae57600080fd5b505af11580156108c2573d6000803e3d6000fd5b505050506040513d601f19601f820116820180604052508101906108e6919061272e565b506004546006546001600160a01b03918216916340c10f19911661090b846003611eaf565b6040518363ffffffff1660e01b8152600401610928929190612864565b602060405180830381600087803b15801561094257600080fd5b505af1158015610956573d6000803e3d6000fd5b505050506040513d601f19601f8201168201806040525081019061097a919061272e565b5061099c6109918461066b8464e8d4a51000611e75565b600386015490611ef1565b6003850155505043600290920191909155505b50565b6109ba611e71565b6000546001600160a01b039081169116146109e75760405162461bcd60e51b81526004016104e190612b6c565b6001600160a01b0383166000908152600c602052604090205415610a1d5760405162461bcd60e51b81526004016104e190612af4565b306001600160a01b0316816001600160a01b0316638da5cb5b6040518163ffffffff1660e01b8152600401602060405180830381600087803b158015610a6257600080fd5b505af1158015610a76573d6000803e3d6000fd5b505050506040513d601f19601f82011682018060405250810190610a9a9190612659565b6001600160a01b031614610ac05760405162461bcd60e51b81526004016104e190612c4d565b8115610ace57610ace610c38565b60006008544311610ae157600854610ae3565b435b600b54909150610af39086611ef1565b600b556040805160a0810182526001600160a01b0395861680825260208083019889528284019485526000606084018181529689166080850190815260098054600181018255818452955160059096027f6e1540171b6c0c960b71a7020d9f60077f6af931a8bbf590da0223dacf75c7af81018054978d166001600160a01b03199889161790559b517f6e1540171b6c0c960b71a7020d9f60077f6af931a8bbf590da0223dacf75c7b08d015596517f6e1540171b6c0c960b71a7020d9f60077f6af931a8bbf590da0223dacf75c7b18c015596517f6e1540171b6c0c960b71a7020d9f60077f6af931a8bbf590da0223dacf75c7b28b015595517f6e1540171b6c0c960b71a7020d9f60077f6af931a8bbf590da0223dacf75c7b390990180549990981698909216979097179095559054948252600c909352919091209190915550565b60095460005b81811015610c5757610c4f81610750565b600101610c3e565b5050565b6006546001600160a01b031681565b610c72611e71565b6000546001600160a01b03908116911614610c9f5760405162461bcd60e51b81526004016104e190612b6c565b600680546001600160a01b0319166001600160a01b0392909216919091179055565b6005546001600160a01b031681565b610cd8611e71565b6000546001600160a01b03908116911614610d055760405162461bcd60e51b81526004016104e190612b6c565b600080546040516001600160a01b03909116907f8be0079c531659141344cd1fd0a4f28419497f9722a3daafe3b4186f6b6457e0908390a3600080546001600160a01b0319169055565b60026003541415610d725760405162461bcd60e51b81526004016104e190612d0a565b6002600355610d8033611e64565b610d9c5760405162461bcd60e51b81526004016104e190612be7565b6001600160a01b0383166000908152600c6020526040902054610dd15760405162461bcd60e51b81526004016104e190612a40565b6001600160a01b0383166000908152600c602052604090205460001901610df781610750565b600060098281548110610e0657fe5b60009182526020808320858452600a825260408085206001600160a01b038a168652909252922080546005909202909201925015610e80576000610e6c82600101546106bd64e8d4a5100061066b87600301548760000154611e7590919063ffffffff16565b90508015610e7e57610e7e8682611f78565b505b8315610f5b578154610e9d906001600160a01b0316333087612116565b60048201548254610ebb916001600160a01b0391821691168661216e565b6004808301548354604051636e553f6560e01b81526000936001600160a01b0393841693636e553f6593610ef6938b93919092169101612df4565b602060405180830381600087803b158015610f1057600080fd5b505af1158015610f24573d6000803e3d6000fd5b505050506040513d601f19601f82011682018060405250810190610f489190612762565b8254909150610f579082611ef1565b8255505b60038201548154610f769164e8d4a510009161066b91611e75565b8160010181905550846001600160a01b0316866001600160a01b03167f5548c837ab068cf56a2c2479df0882a4922fd203edb7517321831d95078c5f6286604051610fc19190612deb565b60405180910390a35050600160035550505050565b610fde611e71565b6000546001600160a01b0390811691161461100b5760405162461bcd60e51b81526004016104e190612b6c565b6001600160a01b0383166000908152600c60205260409020546110405760405162461bcd60e51b81526004016104e190612a40565b6001600160a01b0383166000908152600c602052604090205460001901811561106b5761106b610c38565b6110a8836110a26009848154811061107f57fe5b906000526020600020906005020160010154600b54611f1690919063ffffffff16565b90611ef1565b600b8190555082600982815481106110bc57fe5b90600052602060002090600502016001018190555050505050565b6000546001600160a01b031690565b60006110f28284611f16565b9392505050565b611101611e71565b6000546001600160a01b0390811691161461112e5760405162461bcd60e51b81526004016104e190612b6c565b6001600160a01b0382166000908152600c60205260409020546111635760405162461bcd60e51b81526004016104e190612a40565b6001600160a01b0382166000908152600c60205260408120546009805460001990920192918390811061119257fe5b600091825260208220600460059092020181810154604051637753793760e01b815291945083926001600160a01b03909116916377537937916111d7918a9101612850565b6040805180830381600087803b1580156111f057600080fd5b505af1158015611204573d6000803e3d6000fd5b505050506040513d601f19601f820116820180604052508101906112289190612811565b60405163082ceeb360e01b815291935091506001600160a01b0386169063082ceeb39061125d908990869086906004016128bb565b600060405180830381600087803b15801561127757600080fd5b505af115801561128b573d6000803e3d6000fd5b50505050600483810180546001600160a01b0319166001600160a01b03888116919091179091556040516370a0823160e01b8152600092918916916370a08231916112d891309101612850565b60206040518083038186803b1580156112f057600080fd5b505afa158015611304573d6000803e3d6000fd5b505050506040513d601f19601f820116820180604052508101906113289190612762565b905080156113b25760405163a9059cbb60e01b81526001600160a01b0388169063a9059cbb9061135e9089908590600401612864565b602060405180830381600087803b15801561137857600080fd5b505af115801561138c573d6000803e3d6000fd5b505050506040513d601f19601f820116820180604052508101906113b0919061272e565b505b856001600160a01b03166336e9332d6040518163ffffffff1660e01b8152600401600060405180830381600087803b1580156113ed57600080fd5b505af1158015611401573d6000803e3d6000fd5b5050505050505050505050565b600a6020908152600092835260408084209091529082529020805460019091015482565b6000600161143e610739565b0382111561145e5760405162461bcd60e51b81526004016104e190612ba1565b6106cb600183612213565b6000611473611e71565b6000546001600160a01b039081169116146114a05760405162461bcd60e51b81526004016104e190612b6c565b6001600160a01b0382166114c65760405162461bcd60e51b81526004016104e190612d41565b6106cb60018361221f565b6001600160a01b0382166000908152600c60205260408120546115065760405162461bcd60e51b81526004016104e190612a40565b6001600160a01b0383166000908152600c60205260409020546000190161152b6125e2565b6009828154811061153857fe5b60009182526020918290206040805160a081018252600590930290910180546001600160a01b03908116845260018201549484019490945260028101549183019190915260038101546060830152600401549091166080820152905061159c612623565b506000828152600a602090815260408083206001600160a01b038089168552908352818420825180840184528154815260019091015493810193909352608085015185519251631190d9e560e11b8152939493911691632321b3ca916116059190600401612850565b60206040518083038186803b15801561161d57600080fd5b505afa158015611631573d6000803e3d6000fd5b505050506040513d601f19601f820116820180604052508101906116559190612762565b60808401518451604051630433471360e11b81529293506000926001600160a01b03909216916308668e269161168d91600401612850565b60206040518083038186803b1580156116a557600080fd5b505afa1580156116b9573d6000803e3d6000fd5b505050506040513d601f19601f820116820180604052508101906116dd9190612762565b9050816116f2576000955050505050506106cb565b82516106c390839061066b9084611e75565b60075481565b6002600354141561172d5760405162461bcd60e51b81526004016104e190612d0a565b600260035561173b33611e64565b6117575760405162461bcd60e51b81526004016104e190612be7565b6001600160a01b0383166000908152600c602052604090205461178c5760405162461bcd60e51b81526004016104e190612a40565b6001600160a01b0383166000908152600c6020526040902054600019016117b281610750565b6000600982815481106117c157fe5b60009182526020808320858452600a825260408085206001600160a01b038a81168752935280852060059490940290910160048181015482549351630433471360e11b81529297509495948416936308668e26936118229391169101612850565b60206040518083038186803b15801561183a57600080fd5b505afa15801561184e573d6000803e3d6000fd5b505050506040513d601f19601f820116820180604052508101906118729190612762565b6004808501548554604051631190d9e560e11b81529394506000936001600160a01b0392831693632321b3ca936118ab93169101612850565b60206040518083038186803b1580156118c357600080fd5b505afa1580156118d7573d6000803e3d6000fd5b505050506040513d601f19601f820116820180604052508101906118fb9190612762565b835490915061191c5760405162461bcd60e51b81526004016104e1906129c3565b6000811161193c5760405162461bcd60e51b81526004016104e19061294a565b600061196a84600101546106bd64e8d4a5100061066b89600301548960000154611e7590919063ffffffff16565b9050801561197c5761197c8882611f78565b835460009061199190849061066b9087611e75565b90508088111561199f578097505b8715611afb576004808701548754604051627b8a6760e11b81526000936001600160a01b039384169362f714ce936119de938f93919092169101612df4565b602060405180830381600087803b1580156119f857600080fd5b505af1158015611a0c573d6000803e3d6000fd5b505050506040513d601f19601f82011682018060405250810190611a309190612762565b8654909150811115611a455760008655611a54565b8554611a519082611f16565b86555b86546040516370a0823160e01b81526000916001600160a01b0316906370a0823190611a84903090600401612850565b60206040518083038186803b158015611a9c57600080fd5b505afa158015611ab0573d6000803e3d6000fd5b505050506040513d601f19601f82011682018060405250810190611ad49190612762565b905089811015611ae2578099505b8754611af8906001600160a01b0316338c612234565b50505b60038601548554611b169164e8d4a510009161066b91611e75565b8560010181905550886001600160a01b03168a6001600160a01b03167f9b1bfa7fa9ee420a16e124f794c35ac9f90472acc99140eb2f6447c714cad8eb8a604051611b619190612deb565b60405180910390a3505060016003555050505050505050565b600c6020526000908152604090205481565b6004546001600160a01b031681565b611ba3611e71565b6000546001600160a01b03908116911614611bd05760405162461bcd60e51b81526004016104e190612b6c565b6001600160a01b038116611bf65760405162461bcd60e51b81526004016104e1906129fa565b600080546040516001600160a01b03808516939216917f8be0079c531659141344cd1fd0a4f28419497f9722a3daafe3b4186f6b6457e091a3600080546001600160a01b0319166001600160a01b0392909216919091179055565b6040516370a0823160e01b815273c2132d05d31c914a87c6611c10748aeb04b58e8f90732791bca1f2de4661ed88a30c99a7a9449aa8417490829063a9059cbb90339083906370a0823190611caa903090600401612850565b60206040518083038186803b158015611cc257600080fd5b505afa158015611cd6573d6000803e3d6000fd5b505050506040513d601f19601f82011682018060405250810190611cfa9190612762565b6040518363ffffffff1660e01b8152600401611d17929190612864565b602060405180830381600087803b158015611d3157600080fd5b505af1158015611d45573d6000803e3d6000fd5b505050506040513d601f19601f82011682018060405250810190611d69919061272e565b506040516370a0823160e01b81526001600160a01b0382169063a9059cbb90339083906370a0823190611da0903090600401612850565b60206040518083038186803b158015611db857600080fd5b505afa158015611dcc573d6000803e3d6000fd5b505050506040513d601f19601f82011682018060405250810190611df09190612762565b6040518363ffffffff1660e01b8152600401611e0d929190612864565b602060405180830381600087803b158015611e2757600080fd5b505af1158015611e3b573d6000803e3d6000fd5b505050506040513d601f19601f82011682018060405250810190611e5f919061272e565b505050565b60006106cb600183612253565b3390565b600082611e84575060006106cb565b82820282848281611e9157fe5b04146110f25760405162461bcd60e51b81526004016104e190612b2b565b60006110f283836040518060400160405280601a81526020017f536166654d6174683a206469766973696f6e206279207a65726f000000000000815250612268565b6000828201838110156110f25760405162461bcd60e51b81526004016104e190612a77565b60006110f283836040518060400160405280601e81526020017f536166654d6174683a207375627472616374696f6e206f766572666c6f77000081525061229f565b60006110f2836001600160a01b0384166122cb565b60006106cb82612391565b600480546040516370a0823160e01b81526000926001600160a01b03909216916370a0823191611faa91309101612850565b60206040518083038186803b158015611fc257600080fd5b505afa158015611fd6573d6000803e3d6000fd5b505050506040513d601f19601f82011682018060405250810190611ffa9190612762565b90508082111561208d576004805460405163a9059cbb60e01b81526001600160a01b039091169163a9059cbb91612035918791869101612864565b602060405180830381600087803b15801561204f57600080fd5b505af1158015612063573d6000803e3d6000fd5b505050506040513d601f19601f82011682018060405250810190612087919061272e565b50611e5f565b6004805460405163a9059cbb60e01b81526001600160a01b039091169163a9059cbb916120be918791879101612864565b602060405180830381600087803b1580156120d857600080fd5b505af11580156120ec573d6000803e3d6000fd5b505050506040513d601f19601f82011682018060405250810190612110919061272e565b50505050565b612110846323b872dd60e01b85858560405160240161213793929190612897565b60408051601f198184030181529190526020810180516001600160e01b03166001600160e01b031990931692909217909152612395565b60006121f282856001600160a01b031663dd62ed3e30876040518363ffffffff1660e01b81526004016121a292919061287d565b60206040518083038186803b1580156121ba57600080fd5b505afa1580156121ce573d6000803e3d6000fd5b505050506040513d601f19601f820116820180604052508101906110a29190612762565b90506121108463095ea7b360e01b8584604051602401612137929190612864565b60006110f28383612424565b60006110f2836001600160a01b038416612469565b611e5f8363a9059cbb60e01b8484604051602401612137929190612864565b60006110f2836001600160a01b0384166124b3565b600081836122895760405162461bcd60e51b81526004016104e19190612917565b50600083858161229557fe5b0495945050505050565b600081848411156122c35760405162461bcd60e51b81526004016104e19190612917565b505050900390565b6000818152600183016020526040812054801561238757835460001980830191908101906000908790839081106122fe57fe5b906000526020600020015490508087600001848154811061231b57fe5b60009182526020808320909101929092558281526001898101909252604090209084019055865487908061234b57fe5b600190038181906000526020600020016000905590558660010160008781526020019081526020016000206000905560019450505050506106cb565b60009150506106cb565b5490565b60606123ea826040518060400160405280602081526020017f5361666545524332303a206c6f772d6c6576656c2063616c6c206661696c6564815250856001600160a01b03166124cb9092919063ffffffff16565b805190915015611e5f5780806020019051810190612408919061272e565b611e5f5760405162461bcd60e51b81526004016104e190612cc0565b815460009082106124475760405162461bcd60e51b81526004016104e190612981565b82600001828154811061245657fe5b9060005260206000200154905092915050565b600061247583836124b3565b6124ab575081546001818101845560008481526020808220909301849055845484825282860190935260409020919091556106cb565b5060006106cb565b60009081526001919091016020526040902054151590565b60606124da84846000856124e2565b949350505050565b6060824710156125045760405162461bcd60e51b81526004016104e190612aae565b61250d856125a3565b6125295760405162461bcd60e51b81526004016104e190612c16565b60006060866001600160a01b031685876040516125469190612834565b60006040518083038185875af1925050503d8060008114612583576040519150601f19603f3d011682016040523d82523d6000602084013e612588565b606091505b50915091506125988282866125a9565b979650505050505050565b3b151590565b606083156125b85750816110f2565b8251156125c85782518084602001fd5b8160405162461bcd60e51b81526004016104e19190612917565b6040518060a0016040528060006001600160a01b0316815260200160008152602001600081526020016000815260200160006001600160a01b031681525090565b604051806040016040528060008152602001600081525090565b60006020828403121561264e578081fd5b81356110f281612e45565b60006020828403121561266a578081fd5b81516110f281612e45565b60008060408385031215612687578081fd5b823561269281612e45565b915060208301356126a281612e45565b809150509250929050565b6000806000606084860312156126c1578081fd5b83356126cc81612e45565b925060208401356126dc81612e45565b929592945050506040919091013590565b600080600060608486031215612701578283fd5b833561270c81612e45565b925060208401359150604084013561272381612e5a565b809150509250925092565b60006020828403121561273f578081fd5b81516110f281612e5a565b60006020828403121561275b578081fd5b5035919050565b600060208284031215612773578081fd5b5051919050565b6000806040838503121561278c578182fd5b8235915060208301356126a281612e45565b600080600080608085870312156127b3578081fd5b8435935060208501356127c581612e45565b925060408501356127d581612e5a565b915060608501356127e581612e45565b939692955090935050565b60008060408385031215612802578182fd5b50508035926020909101359150565b60008060408385031215612823578182fd5b505080516020909101519092909150565b60008251612846818460208701612e19565b9190910192915050565b6001600160a01b0391909116815260200190565b6001600160a01b03929092168252602082015260400190565b6001600160a01b0392831681529116602082015260400190565b6001600160a01b039384168152919092166020820152604081019190915260600190565b6001600160a01b039390931683526020830191909152604082015260600190565b901515815260200190565b6001600160a01b039586168152602081019490945260408401929092526060830152909116608082015260a00190565b6000602082528251806020840152612936816040850160208701612e19565b601f01601f19169190910160400192915050565b6020808252601c908201527f426f626f4661726d65723a20736861726573546f74616c206973203000000000604082015260600190565b60208082526022908201527f456e756d657261626c655365743a20696e646578206f7574206f6620626f756e604082015261647360f01b606082015260800190565b6020808252601c908201527f426f626f4661726d65723a20757365722e736861726573206973203000000000604082015260600190565b60208082526026908201527f4f776e61626c653a206e6577206f776e657220697320746865207a65726f206160408201526564647265737360d01b606082015260800190565b6020808252601c908201527f426f626f4661726d65723a20746f6b656e204e4f542065786973742e00000000604082015260600190565b6020808252601b908201527f536166654d6174683a206164646974696f6e206f766572666c6f770000000000604082015260600190565b60208082526026908201527f416464726573733a20696e73756666696369656e742062616c616e636520666f6040820152651c8818d85b1b60d21b606082015260800190565b60208082526018908201527f426f626f4661726d65723a20746f6b656e2045584953542e0000000000000000604082015260600190565b60208082526021908201527f536166654d6174683a206d756c7469706c69636174696f6e206f766572666c6f6040820152607760f81b606082015260800190565b6020808252818101527f4f776e61626c653a2063616c6c6572206973206e6f7420746865206f776e6572604082015260600190565b60208082526026908201527f4d6978696e417574686f72697a61626c653a20696e646578206f7574206f6620604082015265626f756e647360d01b606082015260800190565b60208082526015908201527414d15391115497d393d517d055551213d492569151605a1b604082015260600190565b6020808252601d908201527f416464726573733a2063616c6c20746f206e6f6e2d636f6e7472616374000000604082015260600190565b6020808252604d908201527f426f626f4661726d65723a20746865206f776e6572206f66207374726174204d60408201527f555354206265207468652073616d65206173207468652061646472657373206f60608201526c33102137b137a330b936b2b91760991b608082015260a00190565b6020808252602a908201527f5361666545524332303a204552433230206f7065726174696f6e20646964206e6040820152691bdd081cdd58d8d9595960b21b606082015260800190565b6020808252601f908201527f5265656e7472616e637947756172643a207265656e7472616e742063616c6c00604082015260600190565b60208082526035908201527f4d6978696e417574686f72697a61626c653a205f616464417574686f72697a656040820152746420697320746865207a65726f206164647265737360581b606082015260800190565b60208082526035908201527f4d6978696e417574686f72697a61626c653a205f64656c417574686f72697a656040820152746420697320746865207a65726f206164647265737360581b606082015260800190565b90815260200190565b9182526001600160a01b0316602082015260400190565b918252602082015260400190565b60005b83811015612e34578181015183820152602001612e1c565b838111156121105750506000910152565b6001600160a01b03811681146109af57600080fd5b80151581146109af57600080fdfea2646970667358221220cce18fd96087088bc3140e6180c58ebaf92b35e8a7b9991a79bf1378a7b35d4764736f6c634300060c0033",
  "immutableReferences": {},
  "source": "// SPDX-License-Identifier: MIT\npragma solidity ^0.6.0;\npragma experimental ABIEncoderV2;\n        \nimport \"./common/MixinAuthorizable.sol\";\n\ninterface IStrategy {\n    // Total want tokens managed by strat\n    function wantLockedTotalMap(address _wantToken) external view returns (uint256);\n\n    // Sum of all shares of users to wantLockedTotal\n    function sharesTotalMap(address _wantToken) external view returns (uint256);\n\n    // Main want token compounding function\n    function earn() external;\n\n    // Transfer want tokens boboFarm -> strategy\n    function deposit(uint256 _wantAmt, address _wantToken) external returns (uint256);\n\n    // Transfer want tokens strategy -> boboFarm\n    function withdraw(uint256 _wantAmt, address _wantToken) external returns (uint256);\n\n    function initTotalShareAndLocked(address _tokenAddr, uint256 _totalShare, uint256 _totalLocked) external;\n\n    function clearAndTransferTokens(address _tokenAddr) external returns(uint256, uint256);\n\n    function farm() external;\n    \n    function owner() external returns(address);\n}\n\ninterface BOBOToken is IERC20 {\n    function mint(address _to, uint256 _amount) external returns(bool);\n}\n\ncontract BoboFarmer is MixinAuthorizable, ReentrancyGuard {\n    using SafeMath for uint256;\n    using SafeERC20 for IERC20;\n\n    struct UserInfo {\n        uint256 shares;             // \n        uint256 rewardDebt; \n    }\n\n    struct PoolInfo {\n        IERC20 want;                // token\n        uint256 allocPoint;         // BOBO\n        uint256 lastRewardBlock;    \n        uint256 accBOBOPerShare;    // BOBOmintBOBO\n        address strat;              // \n    }\n\n    address public boboTokenAddr;\n\n    address public burnAddress = 0x000000000000000000000000000000000000dEaD;\n    address public fundAddr;\n\n    uint256 public boboPerBlock; \n    uint256 public startBlock; \n\n    PoolInfo[] public poolInfo; \n    mapping(uint256 => mapping(address => UserInfo)) public userInfo; \n    uint256 public totalAllocPoint = 0; \n    mapping(address => uint256) public tokenPidMap;\n\n    mapping(address => bool) public _auth;\n\n    event Deposit(address indexed _tokenAddr, address indexed user, uint256 amount);\n    event Withdraw(address indexed _tokenAddr, address indexed user, uint256 amount);\n    event EmergencyWithdraw(\n        address indexed _tokenAddr,\n        address indexed user,\n        uint256 amount\n    );\n    \n    constructor(\n        address _boboTokenAddress, \n        uint256 _startBlock,\n        address _fundAddr\n    ) public {\n        boboTokenAddr = _boboTokenAddress;\n        startBlock = _startBlock;\n        fundAddr = _fundAddr;\n    }\n\n\n    function setFundAddr(address _fundAddr) public onlyOwner {\n        fundAddr = _fundAddr;\n    }\n    \n    function setBoboPerBlock(          \n        uint256 _boboPerBlock\n    ) public onlyOwner {\n        massUpdatePools();\n        boboPerBlock = _boboPerBlock;\n    }\n\n    function poolLength() external view returns (uint256) {\n        return poolInfo.length;\n    }\n\n    function add(uint256 _allocPoint, address _want, bool _withUpdate, address _strat) public onlyOwner {\n        require(tokenPidMap[_want] == 0, \"BoboFarmer: token EXIST.\");\n        require(IStrategy(_strat).owner() == address(this), \"BoboFarmer: the owner of strat MUST be the same as the address of BoboFarmer.\");\n        if (_withUpdate) {\n            massUpdatePools();\n        }\n        uint256 lastRewardBlock = block.number > startBlock ? block.number : startBlock;\n        totalAllocPoint = totalAllocPoint.add(_allocPoint);\n        poolInfo.push(\n            PoolInfo({\n                want: IERC20(_want),\n                allocPoint: _allocPoint,\n                lastRewardBlock: lastRewardBlock,\n                accBOBOPerShare: 0,\n                strat: _strat\n            })\n        );\n        tokenPidMap[_want] = poolInfo.length;\n    }\n\n    function setPoolPoint(address _tokenAddr, uint256 _allocPoint, bool _withUpdate) public onlyOwner {\n        require(tokenPidMap[_tokenAddr] > 0, \"BoboFarmer: token NOT exist.\");\n        uint256 pid = tokenPidMap[_tokenAddr] - 1;\n        if (_withUpdate) {\n            massUpdatePools();\n        }\n        totalAllocPoint = totalAllocPoint.sub(poolInfo[pid].allocPoint).add(_allocPoint);\n        poolInfo[pid].allocPoint = _allocPoint;\n    }\n\n    function getMultiplier(uint256 _from, uint256 _to) public pure returns (uint256) {\n        return _to.sub(_from);\n    }\n\n    // BOBOBOBO\n    // bobo\n    function pendingBOBO(address _tokenAddr, address _user) external view returns (uint256) {\n        require(tokenPidMap[_tokenAddr] > 0, \"BoboFarmer: token NOT exist.\");\n        uint256 pid = tokenPidMap[_tokenAddr] - 1;\n        PoolInfo storage pool = poolInfo[pid];\n        UserInfo storage user = userInfo[pid][_user];\n        uint256 accBOBOPerShare = pool.accBOBOPerShare;\n        uint256 sharesTotal = IStrategy(pool.strat).sharesTotalMap(address(pool.want));         // \n        if (block.number > pool.lastRewardBlock && sharesTotal != 0) {\n            uint256 multiplier = getMultiplier(pool.lastRewardBlock, block.number);\n            uint256 boboReward = multiplier.mul(boboPerBlock).mul(pool.allocPoint).div(totalAllocPoint);   // BOBO\n            accBOBOPerShare = accBOBOPerShare.add(boboReward.mul(1e12).div(sharesTotal));      // BOBO\n        }\n        return user.shares.mul(accBOBOPerShare).div(1e12).sub(user.rewardDebt);\n    }\n\n    // want token\n    function stakedWantTokens(address _tokenAddr, address _user) external view returns (uint256) {\n        require(tokenPidMap[_tokenAddr] > 0, \"BoboFarmer: token NOT exist.\");\n        uint256 pid = tokenPidMap[_tokenAddr] - 1;\n\n        PoolInfo memory pool = poolInfo[pid];\n        UserInfo memory user = userInfo[pid][_user];\n\n        uint256 sharesTotal = IStrategy(pool.strat).sharesTotalMap(address(pool.want));\n        uint256 wantLockedTotal = IStrategy(pool.strat).wantLockedTotalMap(address(pool.want));\n        if (sharesTotal == 0) {\n            return 0;\n        }\n        return user.shares.mul(wantLockedTotal).div(sharesTotal);\n    }\n\n    function massUpdatePools() public {\n        uint256 length = poolInfo.length;\n        for (uint256 pid = 0; pid < length; ++pid) {\n            updatePool(pid);\n        }\n    }\n\n    function updatePool(uint256 _pid) public {\n        PoolInfo storage pool = poolInfo[_pid];\n        if (block.number <= pool.lastRewardBlock) {\n            return;\n        }\n        // \n        uint256 sharesTotal = IStrategy(pool.strat).sharesTotalMap(address(pool.want));\n        if (sharesTotal == 0) {\n            pool.lastRewardBlock = block.number;\n            return;\n        }\n\n        // BOBO\n        uint256 multiplier = getMultiplier(pool.lastRewardBlock, block.number);\n        if (multiplier <= 0) {\n            return;\n        }\n        uint256 boboReward = multiplier.mul(boboPerBlock).mul(pool.allocPoint).div(totalAllocPoint);\n        BOBOToken(boboTokenAddr).mint(address(this), boboReward);\n        BOBOToken(boboTokenAddr).mint(fundAddr, boboReward.div(3));\n        pool.accBOBOPerShare = pool.accBOBOPerShare.add(boboReward.mul(1e12).div(sharesTotal));\n\n        pool.lastRewardBlock = block.number;\n    }\n\n    // wantwant\n    function deposit(address _tokenAddr, address _userAddr, uint256 _wantAmt) public nonReentrant onlyAuthorized {\n        require(tokenPidMap[_tokenAddr] > 0, \"BoboFarmer: token NOT exist.\");\n        uint256 pid = tokenPidMap[_tokenAddr] - 1;\n\n        updatePool(pid);\n        PoolInfo storage pool = poolInfo[pid];\n        UserInfo storage user = userInfo[pid][_userAddr];\n\n        if (user.shares > 0) {  // BOBO\n            uint256 pendingBOBOAmount = user.shares.mul(pool.accBOBOPerShare).div(1e12).sub(user.rewardDebt);\n            if (pendingBOBOAmount > 0) {\n                safeBOBOTransfer(_userAddr, pendingBOBOAmount);\n            }\n        }\n        if (_wantAmt > 0) {   // want0want =>  => => \n            pool.want.safeTransferFrom(msg.sender, address(this), _wantAmt);  // want\n\n            pool.want.safeIncreaseAllowance(pool.strat, _wantAmt);  // \n            uint256 sharesAdded = IStrategy(pool.strat).deposit(_wantAmt, address(pool.want));  // wantdeposit\n            user.shares = user.shares.add(sharesAdded);  // \n        }\n        user.rewardDebt = user.shares.mul(pool.accBOBOPerShare).div(1e12);   // BOBO\n        emit Deposit(_tokenAddr, _userAddr, _wantAmt);\n    }\n    \n    function depositOrderNFT(uint256 _orderId) public {\n        \n    }\n\n    // BOBOwant\n    // \n    function withdraw(address _tokenAddr, address _userAddr, uint256 _wantAmt) public nonReentrant onlyAuthorized {\n        require(tokenPidMap[_tokenAddr] > 0, \"BoboFarmer: token NOT exist.\");\n        uint256 pid = tokenPidMap[_tokenAddr] - 1;\n\n        updatePool(pid);\n\n        PoolInfo storage pool = poolInfo[pid];\n        UserInfo storage user = userInfo[pid][_userAddr];\n\n        uint256 wantLockedTotal = IStrategy(pool.strat).wantLockedTotalMap(address(pool.want));  // want\n        uint256 sharesTotal = IStrategy(pool.strat).sharesTotalMap(address(pool.want));  // \n\n        require(user.shares > 0, \"BoboFarmer: user.shares is 0\");\n        require(sharesTotal > 0, \"BoboFarmer: sharesTotal is 0\");\n\n        // BOBO\n        uint256 pending = user.shares.mul(pool.accBOBOPerShare).div(1e12).sub(user.rewardDebt);\n        if (pending > 0) {\n            safeBOBOTransfer(_userAddr, pending);\n        }\n\n        // want\n        uint256 amount = user.shares.mul(wantLockedTotal).div(sharesTotal);\n        if (_wantAmt > amount) {\n            _wantAmt = amount;\n        }\n        if (_wantAmt > 0) {\n            // want\n            uint256 sharesRemoved = IStrategy(pool.strat).withdraw(_wantAmt, address(pool.want));   \n\n            // \n            if (sharesRemoved > user.shares) {\n                user.shares = 0;\n            } else {\n                user.shares = user.shares.sub(sharesRemoved);\n            }\n\n            // withdrawwantwant\n            // wantwantwant\n            uint256 wantBal = IERC20(pool.want).balanceOf(address(this));  \n            if (wantBal < _wantAmt) {\n                _wantAmt = wantBal;\n            }\n            pool.want.safeTransfer(address(msg.sender), _wantAmt);\n        }\n        user.rewardDebt = user.shares.mul(pool.accBOBOPerShare).div(1e12);\n        emit Withdraw(_tokenAddr, _userAddr, _wantAmt);\n    }\n\n    function migrateNewStrat(address _tokenAddr, address _newStratAddr) external onlyOwner {\n        require(tokenPidMap[_tokenAddr] > 0, \"BoboFarmer: token NOT exist.\");\n        uint256 pid = tokenPidMap[_tokenAddr] - 1;\n        PoolInfo storage pool = poolInfo[pid];\n        \n        (uint256 totalShares, uint256 totalLocked) = IStrategy(pool.strat).clearAndTransferTokens(_tokenAddr);\n        IStrategy(_newStratAddr).initTotalShareAndLocked(_tokenAddr, totalShares, totalLocked);\n        pool.strat = _newStratAddr;\n        uint256 amount = IERC20(_tokenAddr).balanceOf(address(this));\n        if (amount > 0)\n            IERC20(_tokenAddr).transfer(_newStratAddr, amount);\n        IStrategy(_newStratAddr).farm();\n    }\n\n    function safeBOBOTransfer(address _to, uint256 _boboAmt) internal {\n        uint256 boboBal = IERC20(boboTokenAddr).balanceOf(address(this));\n        if (_boboAmt > boboBal) {\n            IERC20(boboTokenAddr).transfer(_to, boboBal);\n        } else {\n            IERC20(boboTokenAddr).transfer(_to, _boboAmt);\n        }\n    }\n\n    function returnU4Test() public {\n        address USDT = 0xc2132D05D31c914a87C6611C10748AEb04B58e8F;\n        address USDC = 0x2791Bca1f2de4661ED88A30C99A7a9449Aa84174;\n        IERC20(USDT).transfer(msg.sender, IERC20(USDT).balanceOf(address(this)));\n        IERC20(USDC).transfer(msg.sender, IERC20(USDC).balanceOf(address(this)));\n    }\n}",
  "sourcePath": "/Users/sam/go/src/github.com/bobo-metaverse/boboswap-contract/contracts/BoboFarmer.sol",
  "compiler": {
    "name": "solc",
    "version": "0.6.12+commit.27d51765.Emscripten.clang"
  },
  "schemaVersion": "3.4.2",
  "updatedAt": "2021-08-17T01:40:14.678Z",
  "devdoc": {
    "kind": "dev",
    "methods": {
      "owner()": {
        "details": "Returns the address of the current owner."
      },
      "renounceOwnership()": {
        "details": "Leaves the contract without owner. It will not be possible to call `onlyOwner` functions anymore. Can only be called by the current owner. NOTE: Renouncing ownership will leave the contract without an owner, thereby removing any functionality that is only available to the owner."
      },
      "transferOwnership(address)": {
        "details": "Transfers ownership of the contract to a new account (`newOwner`). Can only be called by the current owner."
      }
    },
    "version": 1
  },
  "userdoc": {
    "kind": "user",
    "methods": {},
    "version": 1
  }
}