{
  "contractName": "BoboFactoryOnMatic",
  "abi": [
    {
      "inputs": [
        {
          "internalType": "address",
          "name": "_orderNFT",
          "type": "address"
        },
        {
          "internalType": "address",
          "name": "_orderDetailNFT",
          "type": "address"
        },
        {
          "internalType": "address",
          "name": "_boboFarmer",
          "type": "address"
        },
        {
          "internalType": "address",
          "name": "_exManager",
          "type": "address"
        },
        {
          "internalType": "address",
          "name": "_boboRouter",
          "type": "address"
        }
      ],
      "stateMutability": "nonpayable",
      "type": "constructor"
    },
    {
      "anonymous": false,
      "inputs": [
        {
          "indexed": true,
          "internalType": "address",
          "name": "previousOwner",
          "type": "address"
        },
        {
          "indexed": true,
          "internalType": "address",
          "name": "newOwner",
          "type": "address"
        }
      ],
      "name": "OwnershipTransferred",
      "type": "event"
    },
    {
      "anonymous": false,
      "inputs": [
        {
          "indexed": true,
          "internalType": "address",
          "name": "token0",
          "type": "address"
        },
        {
          "indexed": true,
          "internalType": "address",
          "name": "token1",
          "type": "address"
        },
        {
          "indexed": false,
          "internalType": "address",
          "name": "pair",
          "type": "address"
        },
        {
          "indexed": false,
          "internalType": "uint256",
          "name": "",
          "type": "uint256"
        }
      ],
      "name": "PairCreated",
      "type": "event"
    },
    {
      "inputs": [],
      "name": "USDC",
      "outputs": [
        {
          "internalType": "address",
          "name": "",
          "type": "address"
        }
      ],
      "stateMutability": "view",
      "type": "function"
    },
    {
      "inputs": [],
      "name": "USDT",
      "outputs": [
        {
          "internalType": "address",
          "name": "",
          "type": "address"
        }
      ],
      "stateMutability": "view",
      "type": "function"
    },
    {
      "inputs": [],
      "name": "WMATIC",
      "outputs": [
        {
          "internalType": "address",
          "name": "",
          "type": "address"
        }
      ],
      "stateMutability": "view",
      "type": "function"
    },
    {
      "inputs": [
        {
          "internalType": "uint256",
          "name": "",
          "type": "uint256"
        }
      ],
      "name": "allPairs",
      "outputs": [
        {
          "internalType": "address",
          "name": "",
          "type": "address"
        }
      ],
      "stateMutability": "view",
      "type": "function"
    },
    {
      "inputs": [
        {
          "internalType": "address",
          "name": "",
          "type": "address"
        },
        {
          "internalType": "uint256",
          "name": "",
          "type": "uint256"
        }
      ],
      "name": "baseTokenPairs",
      "outputs": [
        {
          "internalType": "address",
          "name": "",
          "type": "address"
        }
      ],
      "stateMutability": "view",
      "type": "function"
    },
    {
      "inputs": [],
      "name": "boboFarmer",
      "outputs": [
        {
          "internalType": "contract IBoboFarmer",
          "name": "",
          "type": "address"
        }
      ],
      "stateMutability": "view",
      "type": "function"
    },
    {
      "inputs": [],
      "name": "boboRouter",
      "outputs": [
        {
          "internalType": "address",
          "name": "",
          "type": "address"
        }
      ],
      "stateMutability": "view",
      "type": "function"
    },
    {
      "inputs": [],
      "name": "exManager",
      "outputs": [
        {
          "internalType": "address",
          "name": "",
          "type": "address"
        }
      ],
      "stateMutability": "view",
      "type": "function"
    },
    {
      "inputs": [
        {
          "internalType": "address",
          "name": "",
          "type": "address"
        },
        {
          "internalType": "address",
          "name": "",
          "type": "address"
        }
      ],
      "name": "getPair",
      "outputs": [
        {
          "internalType": "address",
          "name": "",
          "type": "address"
        }
      ],
      "stateMutability": "view",
      "type": "function"
    },
    {
      "inputs": [],
      "name": "orderDetailNFT",
      "outputs": [
        {
          "internalType": "address",
          "name": "",
          "type": "address"
        }
      ],
      "stateMutability": "view",
      "type": "function"
    },
    {
      "inputs": [],
      "name": "orderNFT",
      "outputs": [
        {
          "internalType": "address",
          "name": "",
          "type": "address"
        }
      ],
      "stateMutability": "view",
      "type": "function"
    },
    {
      "inputs": [],
      "name": "owner",
      "outputs": [
        {
          "internalType": "address",
          "name": "",
          "type": "address"
        }
      ],
      "stateMutability": "view",
      "type": "function"
    },
    {
      "inputs": [],
      "name": "renounceOwnership",
      "outputs": [],
      "stateMutability": "nonpayable",
      "type": "function"
    },
    {
      "inputs": [
        {
          "internalType": "address",
          "name": "newOwner",
          "type": "address"
        }
      ],
      "name": "transferOwnership",
      "outputs": [],
      "stateMutability": "nonpayable",
      "type": "function"
    },
    {
      "inputs": [
        {
          "internalType": "address",
          "name": "_boboFarmer",
          "type": "address"
        },
        {
          "internalType": "address",
          "name": "_exManager",
          "type": "address"
        },
        {
          "internalType": "address",
          "name": "_boboRouter",
          "type": "address"
        }
      ],
      "name": "setAddresses",
      "outputs": [],
      "stateMutability": "nonpayable",
      "type": "function"
    },
    {
      "inputs": [
        {
          "internalType": "address",
          "name": "_quoteToken",
          "type": "address"
        },
        {
          "internalType": "address",
          "name": "_baseToken",
          "type": "address"
        }
      ],
      "name": "createPair",
      "outputs": [
        {
          "internalType": "address",
          "name": "pairAddr",
          "type": "address"
        }
      ],
      "stateMutability": "nonpayable",
      "type": "function"
    },
    {
      "inputs": [],
      "name": "pairNumber",
      "outputs": [
        {
          "internalType": "uint256",
          "name": "",
          "type": "uint256"
        }
      ],
      "stateMutability": "view",
      "type": "function"
    },
    {
      "inputs": [
        {
          "internalType": "address",
          "name": "_quoteToken",
          "type": "address"
        },
        {
          "internalType": "address",
          "name": "_baseToken",
          "type": "address"
        },
        {
          "internalType": "address",
          "name": "_auth",
          "type": "address"
        }
      ],
      "name": "addPairAuth",
      "outputs": [],
      "stateMutability": "nonpayable",
      "type": "function"
    },
    {
      "inputs": [
        {
          "internalType": "address",
          "name": "_baseToken",
          "type": "address"
        }
      ],
      "name": "getBaseTokenPairLength",
      "outputs": [
        {
          "internalType": "uint256",
          "name": "",
          "type": "uint256"
        }
      ],
      "stateMutability": "view",
      "type": "function"
    },
    {
      "inputs": [
        {
          "internalType": "address",
          "name": "_baseToken",
          "type": "address"
        },
        {
          "internalType": "address",
          "name": "_userAddr",
          "type": "address"
        }
      ],
      "name": "getTotalHangingTokenAmount",
      "outputs": [
        {
          "internalType": "uint256",
          "name": "",
          "type": "uint256"
        }
      ],
      "stateMutability": "view",
      "type": "function"
    },
    {
      "inputs": [
        {
          "internalType": "address",
          "name": "_baseToken",
          "type": "address"
        },
        {
          "internalType": "address",
          "name": "_userAddr",
          "type": "address"
        }
      ],
      "name": "getClaimBaseTokenAmount",
      "outputs": [
        {
          "internalType": "uint256",
          "name": "",
          "type": "uint256"
        }
      ],
      "stateMutability": "view",
      "type": "function"
    },
    {
      "inputs": [
        {
          "internalType": "address",
          "name": "_baseToken",
          "type": "address"
        }
      ],
      "name": "claimBaseToken",
      "outputs": [],
      "stateMutability": "nonpayable",
      "type": "function"
    }
  ],
  "bytecode": "0x608060405234801561001057600080fd5b50604051615e0f380380615e0f833981810160405260a081101561003357600080fd5b50805160208201516040830151606084015160809094015192939192909190600061005c610108565b600080546001600160a01b0319166001600160a01b0383169081178255604051929350917f8be0079c531659141344cd1fd0a4f28419497f9722a3daafe3b4186f6b6457e0908290a350600580546001600160a01b03199081166001600160a01b0397881617909155600680548216958716959095179094556004805485169386169390931790925560078054841691851691909117905560088054909216921691909117905561010c565b3390565b615cf48061011b6000396000f3fe608060405234801561001057600080fd5b50600436106101425760003560e01c8063acd17aaa116100b8578063d23adceb1161007c578063d23adceb14610318578063d4d728da14610346578063e6a439051461034e578063f08f1ba91461037c578063f2fde38b14610384578063fb1157ce146103aa57610142565b8063acd17aaa14610286578063b8005df31461028e578063c54e44eb146102b4578063c9c65396146102bc578063cd0e17de146102ea57610142565b8063715018a61161010a578063715018a61461020257806375b3a1f91461020a57806389a30271146102425780638da5cb5b1461024a57806397d87393146102525780639d919ad91461025a57610142565b80631960e232146101475780631e3dd18b1461016b578063363bf964146101885780634d95cad9146101c257806356fb75ea146101ca575b600080fd5b61014f6103b2565b604080516001600160a01b039092168252519081900360200190f35b61014f6004803603602081101561018157600080fd5b50356103c1565b6101c06004803603606081101561019e57600080fd5b506001600160a01b0381358116916020810135821691604090910135166103e8565b005b61014f6104c6565b6101c0600480360360608110156101e057600080fd5b506001600160a01b0381358116916020810135821691604090910135166104de565b6101c0610631565b6102306004803603602081101561022057600080fd5b50356001600160a01b03166106d3565b60408051918252519081900360200190f35b61014f6106ee565b61014f610706565b61014f610715565b61014f6004803603604081101561027057600080fd5b506001600160a01b038135169060200135610724565b61014f610759565b6101c0600480360360208110156102a457600080fd5b50356001600160a01b0316610768565b61014f6109e0565b61014f600480360360408110156102d257600080fd5b506001600160a01b03813581169160200135166109f8565b6102306004803603604081101561030057600080fd5b506001600160a01b0381358116916020013516610e59565b6102306004803603604081101561032e57600080fd5b506001600160a01b0381358116916020013516610f02565b61014f611058565b61014f6004803603604081101561036457600080fd5b506001600160a01b0381358116916020013516611067565b61023061108d565b6101c06004803603602081101561039a57600080fd5b50356001600160a01b0316611093565b61014f61118b565b6004546001600160a01b031681565b600181815481106103ce57fe5b6000918252602090912001546001600160a01b0316905081565b6103f061119a565b6000546001600160a01b03908116911614610440576040805162461bcd60e51b81526020600482018190526024820152600080516020615c9f833981519152604482015290519081900360640190fd5b6001600160a01b0383161561046b57600480546001600160a01b0319166001600160a01b0385161790555b6001600160a01b0382161561049657600780546001600160a01b0319166001600160a01b0384161790555b6001600160a01b038116156104c157600880546001600160a01b0319166001600160a01b0383161790555b505050565b730d500b1d8e8ef31e21c99d1db9a6444d3adf127081565b6104e661119a565b6000546001600160a01b03908116911614610536576040805162461bcd60e51b81526020600482018190526024820152600080516020615c9f833981519152604482015290519081900360640190fd5b6001600160a01b038084166000908152600260209081526040808320868516845290915290205416806105b0576040805162461bcd60e51b815260206004820152601c60248201527f426f626f466163746f72793a20504149525f4e4f545f45584953545300000000604482015290519081900360640190fd5b806001600160a01b031663cf1c316a836040518263ffffffff1660e01b815260040180826001600160a01b03168152602001915050602060405180830381600087803b1580156105ff57600080fd5b505af1158015610613573d6000803e3d6000fd5b505050506040513d602081101561062957600080fd5b505050505050565b61063961119a565b6000546001600160a01b03908116911614610689576040805162461bcd60e51b81526020600482018190526024820152600080516020615c9f833981519152604482015290519081900360640190fd5b600080546040516001600160a01b03909116907f8be0079c531659141344cd1fd0a4f28419497f9722a3daafe3b4186f6b6457e0908390a3600080546001600160a01b0319169055565b6001600160a01b031660009081526003602052604090205490565b732791bca1f2de4661ed88a30c99a7a9449aa8417481565b6000546001600160a01b031690565b6007546001600160a01b031681565b6003602052816000526040600020818154811061073d57fe5b6000918252602090912001546001600160a01b03169150829050565b6008546001600160a01b031681565b60006107748233610e59565b90506000600460009054906101000a90046001600160a01b03166001600160a01b031663e6a08025846040518263ffffffff1660e01b815260040180826001600160a01b0316815260200191505060206040518083038186803b1580156107da57600080fd5b505afa1580156107ee573d6000803e3d6000fd5b505050506040513d602081101561080457600080fd5b505111156109dc576000826001600160a01b03166370a08231306040518263ffffffff1660e01b815260040180826001600160a01b0316815260200191505060206040518083038186803b15801561085b57600080fd5b505afa15801561086f573d6000803e3d6000fd5b505050506040513d602081101561088557600080fd5b50516004805460408051636ce5768960e11b81526001600160a01b038881169482019490945233602482015260448101879052905193945091169163d9caed129160648082019260009290919082900301818387803b1580156108e757600080fd5b505af11580156108fb573d6000803e3d6000fd5b505050506000836001600160a01b03166370a08231306040518263ffffffff1660e01b815260040180826001600160a01b0316815260200191505060206040518083038186803b15801561094e57600080fd5b505afa158015610962573d6000803e3d6000fd5b505050506040513d602081101561097857600080fd5b505190506001600160a01b03841663a9059cbb33610996848661119e565b6040518363ffffffff1660e01b815260040180836001600160a01b0316815260200182815260200192505050602060405180830381600087803b1580156105ff57600080fd5b5050565b73c2132d05d31c914a87c6611c10748aeb04b58e8f81565b6000610a0261119a565b6000546001600160a01b03908116911614610a52576040805162461bcd60e51b81526020600482018190526024820152600080516020615c9f833981519152604482015290519081900360640190fd5b816001600160a01b0316836001600160a01b03161415610ab9576040805162461bcd60e51b815260206004820181905260248201527f426f626f466163746f72793a204944454e544943414c5f414444524553534553604482015290519081900360640190fd5b6001600160a01b038316610b14576040805162461bcd60e51b815260206004820152601960248201527f426f626f466163746f72793a205a45524f5f4144445245535300000000000000604482015290519081900360640190fd5b6001600160a01b03838116600090815260026020908152604080832086851684529091529020541615610b8e576040805162461bcd60e51b815260206004820152601860248201527f426f626f466163746f72793a20504149525f4558495354530000000000000000604482015290519081900360640190fd5b606060405180602001610ba0906112d8565b6020820181038252601f19601f8201166040525090506000848460405160200180836001600160a01b031660601b8152601401826001600160a01b031660601b815260140192505050604051602081830303815290604052805190602001209050808251602084016000f5600480546005546006546040805163cc2a9a5b60e01b81526001600160a01b038c8116968201969096528a8616602482015233604482015293851660648501529184166084840152831660a4830152519295509085169163cc2a9a5b9160c48082019260009290919082900301818387803b158015610c8957600080fd5b505af1158015610c9d573d6000803e3d6000fd5b505060075460408051631d33a31960e31b81526001600160a01b0392831660048201529051918716935063e99d18c8925060248082019260009290919082900301818387803b158015610cef57600080fd5b505af1158015610d03573d6000803e3d6000fd5b50506008546040805163c0d7865560e01b81526001600160a01b0392831660048201529051918716935063c0d78655925060248082019260009290919082900301818387803b158015610d5557600080fd5b505af1158015610d69573d6000803e3d6000fd5b505050506001600160a01b0385811660008181526002602081815260408084208a87168086529083528185208054978b166001600160a01b03199889168117909155938352818520868652835281852080548816851790556001805480820182557fb10e2d527612073b26eecdfd717e6a320cf44b4afac2b0732d9fcbe2b7fa0cf601805489168617905581865260038452828620805480830182559087529584902090950180549097168617909655925483519283529082015281517f0d3648bd0f6ba80134a33ba9275ac585d9d315f0ad8355cddefde31afa28d0e9929181900390910190a3505092915050565b600480546040805163d0f2ced160e01b81526001600160a01b0386811694820194909452848416602482015290516000938493169163d0f2ced1916044808301926020929190829003018186803b158015610eb357600080fd5b505afa158015610ec7573d6000803e3d6000fd5b505050506040513d6020811015610edd57600080fd5b505190506000610eed8585610f02565b9050610ef9828261119e565b95945050505050565b6001600160a01b038216600090815260036020908152604080832080548251818502810185019093528083528493606093929190830182828015610f6f57602002820191906000526020600020905b81546001600160a01b03168152600190910190602001808311610f51575b5050505050905060005b815181101561104e57600060026000848481518110610f9457fe5b6020908102919091018101516001600160a01b03908116835282820193909352604091820160009081208b8516825290915281812054825163761a90a760e11b81528a8516600482015283519190941694509092849263ec35214e92602480840193829003018186803b15801561100a57600080fd5b505afa15801561101e573d6000803e3d6000fd5b505050506040513d604081101561103457600080fd5b5051905061104285826111e7565b94505050600101610f79565b5090949350505050565b6005546001600160a01b031681565b60026020908152600092835260408084209091529082529020546001600160a01b031681565b60015490565b61109b61119a565b6000546001600160a01b039081169116146110eb576040805162461bcd60e51b81526020600482018190526024820152600080516020615c9f833981519152604482015290519081900360640190fd5b6001600160a01b0381166111305760405162461bcd60e51b8152600401808060200182810382526026815260200180615c796026913960400191505060405180910390fd5b600080546040516001600160a01b03808516939216917f8be0079c531659141344cd1fd0a4f28419497f9722a3daafe3b4186f6b6457e091a3600080546001600160a01b0319166001600160a01b0392909216919091179055565b6006546001600160a01b031681565b3390565b60006111e083836040518060400160405280601e81526020017f536166654d6174683a207375627472616374696f6e206f766572666c6f770000815250611241565b9392505050565b6000828201838110156111e0576040805162461bcd60e51b815260206004820152601b60248201527f536166654d6174683a206164646974696f6e206f766572666c6f770000000000604482015290519081900360640190fd5b600081848411156112d05760405162461bcd60e51b81526004018080602001828103825283818151815260200191508051906020019080838360005b8381101561129557818101518382015260200161127d565b50505050905090810190601f1680156112c25780820380516001836020036101000a031916815260200191505b509250505060405180910390fd5b505050900390565b614993806112e68339019056fe60806040523480156200001157600080fd5b5060006200001e620000a5565b600080546001600160a01b0319166001600160a01b0383169081178255604051929350917f8be0079c531659141344cd1fd0a4f28419497f9722a3daafe3b4186f6b6457e0908290a350600b80546001600160a01b031916339081179091556000908152601660205260409020805460ff19166001179055426011819055601255620000a9565b3390565b6148da80620000b96000396000f3fe608060405234801561001057600080fd5b50600436106102bb5760003560e01c80638da5cb5b11610182578063cd5a8778116100e9578063eb91d37e116100a2578063f1f07cc91161007c578063f1f07cc91461058d578063f2fde38b14610595578063fb1157ce146105a8578063fe9fbb80146105b0576102bb565b8063eb91d37e1461055c578063ec35214e14610564578063f0d3ddea14610585576102bb565b8063cd5a8778146104f5578063cf1c316a14610508578063d4d728da1461051b578063dd4ee56514610523578063e5538b9514610536578063e99d18c814610549576102bb565b8063b35ac8b21161013b578063b35ac8b214610499578063c0d78655146104ac578063c45a0155146104bf578063c55dae63146104c7578063c63cc564146104cf578063cc2a9a5b146104e2576102bb565b80638da5cb5b14610450578063952c70fb1461045857806397d873931461046b5780639eedc49214610473578063aa6ca8081461047b578063acd17aaa14610491576102bb565b8063428011e4116102265780635f0a1feb116101df5780635f0a1feb146104155780636b6f132014610428578063715018a61461043057806378e979251461043857806382aa1c88146104405780638a20611714610448576102bb565b8063428011e41461039f5780634b92031d146103b45780634bba8050146103c7578063514fcac7146103da57806359fc7223146103ed5780635cbffe781461040d576102bb565b8063217a4b7011610278578063217a4b701461035957806327624b07146103615780632d6111311461036957806331a40b621461037c5780633397e5271461038f578063392da1b014610397576102bb565b80630ff4c916146102c057806310ca5805146102e9578063150b7a02146102f15780631960e2321461031157806319c2146b146103265780631b11481714610346575b600080fd5b6102d36102ce366004613dec565b6105c3565b6040516102e09190614714565b60405180910390f35b6102d361066b565b6103046102ff366004613a29565b610673565b6040516102e09190614129565b610319610684565b6040516102e09190613f34565b61033961033436600461398c565b610693565b6040516102e0919061411e565b6102d3610354366004613acb565b6106a8565b6103196106d6565b6102d36106e5565b6102d361037736600461398c565b6106eb565b61033961038a36600461398c565b610706565b6102d361077d565b6102d361078f565b6103b26103ad366004613c8f565b610795565b005b6102d36103c2366004613acb565b610d76565b6102d36103d5366004613dec565b610d9f565b6103396103e8366004613dec565b610e20565b6104006103fb366004613c70565b6110f6565b6040516102e0919061401a565b6103396112e5565b610400610423366004613af6565b611392565b6102d3611523565b6103b261152a565b6102d36115a9565b6102d36115af565b6102d36115b5565b6103196115bb565b6102d3610466366004613cc9565b6115ca565b6103196115e3565b6102d36115f2565b6104836115f8565b6040516102e0929190613f6c565b61031961160f565b6102d36104a7366004613c38565b61161e565b6103b26104ba36600461398c565b611638565b61031961167f565b61031961168e565b6103196104dd366004613dec565b61169d565b6103b26104f03660046139a8565b6116d4565b6102d361050336600461398c565b611891565b61033961051636600461398c565b6118b2565b61031961191a565b6102d3610531366004613dec565b611929565b6103b2610544366004613c70565b611947565b6103b261055736600461398c565b611c67565b6102d3611cae565b61057761057236600461398c565b611d7a565b6040516102e092919061477e565b6103b2611e76565b6102d3611f21565b6103b26105a336600461398c565b611f27565b610319611fdd565b6103396105be36600461398c565b611fec565b6000816105d257506000610666565b6105da613723565b60035460405163d311636b60e01b81526001600160a01b039091169063d311636b9061060a908690600401614714565b60006040518083038186803b15801561062257600080fd5b505afa158015610636573d6000803e3d6000fd5b505050506040513d6000823e601f3d908101601f1916820160405261065e9190810190613ce6565b608001519150505b919050565b633b9aca0081565b630a85bd0160e11b5b949350505050565b600a546001600160a01b031681565b60166020526000908152604090205460ff1681565b600560205281600052604060002081815481106106c157fe5b90600052602060002001600091509150505481565b600d546001600160a01b031681565b600f5481565b6001600160a01b031660009081526005602052604090205490565b6000610710611ff9565b6000546001600160a01b039081169116146107465760405162461bcd60e51b815260040161073d9061447e565b60405180910390fd5b6001600160a01b03821661076c5760405162461bcd60e51b815260040161073d9061457d565b610777600183611ffd565b92915050565b60006107896001612012565b90505b90565b60135481565b6103e88111156107b75760405162461bcd60e51b815260040161073d906143f9565b600084156107fc576107f56127106107e984612710036107ef886107e9600f54600a0a8a61201d90919063ffffffff16565b90612057565b9061201d565b9050610829565b6108266127106107e984612710036107ef601054600a0a6107e98a8a61201d90919063ffffffff16565b90505b600061083786868685612099565b90506000808761085957600d54600e546001600160a01b03918216911661086d565b600e54600d546001600160a01b0391821691165b600954604051633ba7c4f760e11b81529294509092506001600160a01b03169063774f89ee906108a1908590600401613f34565b60206040518083038186803b1580156108b957600080fd5b505afa1580156108cd573d6000803e3d6000fd5b505050506040513d601f19601f820116820180604052508101906108f19190613e04565b8610156109105760405162461bcd60e51b815260040161073d9061430b565b600954604051630f74f4f360e11b81526000916001600160a01b031690631ee9e9e69061094590339087908c90600401613f48565b604080518083038186803b15801561095c57600080fd5b505afa158015610970573d6000803e3d6000fd5b505050506040513d601f19601f820116820180604052508101906109949190613e1c565b50905061099f6137a3565b600c546001600160a01b03166313684f1885856109bc8c8761217d565b6040518463ffffffff1660e01b81526004016109da93929190613f48565b60006040518083038186803b1580156109f257600080fd5b505afa158015610a06573d6000803e3d6000fd5b505050506040513d6000823e601f3d908101601f19168201604052610a2e9190810190613b2a565b91505085816000015110610b7257600954604051633418ea4560e11b81526000916001600160a01b031690636831d48a90610a7190339089908e90600401613f48565b602060405180830381600087803b158015610a8b57600080fd5b505af1158015610a9f573d6000803e3d6000fd5b505050506040513d601f19601f82011682018060405250810190610ac39190613e04565b90508015610b53576009546040516323b872dd60e01b81526001600160a01b03808816926323b872dd92610aff92339216908690600401613f48565b602060405180830381600087803b158015610b1957600080fd5b505af1158015610b2d573d6000803e3d6000fd5b505050506040513d601f19601f82011682018060405250810190610b519190613c54565b505b610b6b86838787610b648e8761217d565b60006121bf565b5050610d6a565b6040516323b872dd60e01b81526001600160a01b038516906323b872dd90610ba290339030908d90600401613f48565b602060405180830381600087803b158015610bbc57600080fd5b505af1158015610bd0573d6000803e3d6000fd5b505050506040513d601f19601f82011682018060405250810190610bf49190613c54565b50600a5460405163e6a0802560e01b81526000916001600160a01b03169063e6a0802590610c26908890600401613f34565b60206040518083038186803b158015610c3e57600080fd5b505afa158015610c52573d6000803e3d6000fd5b505050506040513d601f19601f82011682018060405250810190610c769190613e04565b1115610d6a57600a5460405163095ea7b360e01b81526001600160a01b038681169263095ea7b392610cb092909116908c90600401613fbc565b602060405180830381600087803b158015610cca57600080fd5b505af1158015610cde573d6000803e3d6000fd5b505050506040513d601f19601f82011682018060405250810190610d029190613c54565b50600a54604051638340f54960e01b81526001600160a01b0390911690638340f54990610d3790879033908d90600401613f48565b600060405180830381600087803b158015610d5157600080fd5b505af1158015610d65573d6000803e3d6000fd5b505050505b50505050505050505050565b6001600160a01b0382166000908152600660205260408120610d989083612565565b9392505050565b6003546040516304bba80560e41b81526000916001600160a01b031690634bba805090610dd0908590600401614714565b60206040518083038186803b158015610de857600080fd5b505afa158015610dfc573d6000803e3d6000fd5b505050506040513d601f19601f820116820180604052508101906107779190613e04565b6000610e2b82612571565b50610e34613723565b60035460405163d311636b60e01b81526001600160a01b039091169063d311636b90610e64908690600401614714565b60006040518083038186803b158015610e7c57600080fd5b505afa158015610e90573d6000803e3d6000fd5b505050506040513d6000823e601f3d908101601f19168201604052610eb89190810190613ce6565b905060008160600151610ed657600d546001600160a01b0316610ee3565b600e546001600160a01b03165b600a5460405163e6a0802560e01b81529192506000916001600160a01b039091169063e6a0802590610f19908590600401613f34565b60206040518083038186803b158015610f3157600080fd5b505afa158015610f45573d6000803e3d6000fd5b505050506040513d601f19601f82011682018060405250810190610f699190613e04565b111561106757600a54602083015160a0840151604051636ce5768960e11b81526001600160a01b039093169263d9caed1292610fa9928692600401613f48565b600060405180830381600087803b158015610fc357600080fd5b505af1158015610fd7573d6000803e3d6000fd5b50505050602082015160a083015160405163a9059cbb60e01b81526001600160a01b0384169263a9059cbb9261100f92600401613fbc565b602060405180830381600087803b15801561102957600080fd5b505af115801561103d573d6000803e3d6000fd5b505050506040513d601f19601f820116820180604052508101906110619190613c54565b506110ef565b602082015160a083015160405163a9059cbb60e01b81526001600160a01b0384169263a9059cbb9261109b92600401613fbc565b602060405180830381600087803b1580156110b557600080fd5b505af11580156110c9573d6000803e3d6000fd5b505050506040513d601f19601f820116820180604052508101906110ed9190613c54565b505b5050919050565b82151560009081526007602052604081206060919061111490612728565b905080831115611122578092505b8284106111415760405162461bcd60e51b815260040161073d906143b7565b83830367ffffffffffffffff8111801561115a57600080fd5b5060405190808252806020026020018201604052801561119457816020015b611181613723565b8152602001906001900390816111795790505b50851515600090815260076020526040812091935090819081906111b8908261272c565b915091505b85831080156111c95750815b156112da57868310156112015787151560009081526007602052604090206111f1908261272c565b60019094019390925090506111bd565b611209613723565b60035460405163d311636b60e01b81526001600160a01b039091169063d311636b90611239908590600401614714565b60006040518083038186803b15801561125157600080fd5b505afa158015611265573d6000803e3d6000fd5b505050506040513d6000823e601f3d908101601f1916820160405261128d9190810190613ce6565b905080868986038151811061129e57fe5b60209081029190910181019190915289151560009081526007909152604090206112c8908361272c565b60019095019490935091506111bd9050565b505050509392505050565b6000806112f0611cae565b90506000806112ff6001612746565b9150915060008261131157600061131a565b61131a826105c3565b90506000806113296000612746565b9150915060008261133c57600019611345565b611345826105c3565b90506000848811611357575084611362565b818811156113625750815b8015611383576113718161276e565b5060019850505050505050505061078c565b60009850505050505050505090565b6001600160a01b0383166000908152600660205260408120606091906113b790612012565b9050808311156113c5578092505b8284106113e45760405162461bcd60e51b815260040161073d906143b7565b83830367ffffffffffffffff811180156113fd57600080fd5b5060405190808252806020026020018201604052801561143757816020015b611424613723565b81526020019060019003908161141c5790505b509150835b8381101561151a576001600160a01b03861660009081526006602052604081206114669083612565565b9050611470613723565b60035460405163d311636b60e01b81526001600160a01b039091169063d311636b906114a0908590600401614714565b60006040518083038186803b1580156114b857600080fd5b505afa1580156114cc573d6000803e3d6000fd5b505050506040513d6000823e601f3d908101601f191682016040526114f49190810190613ce6565b905080858885038151811061150557fe5b6020908102919091010152505060010161143c565b50509392505050565b6201518081565b611532611ff9565b6000546001600160a01b0390811691161461155f5760405162461bcd60e51b815260040161073d9061447e565b600080546040516001600160a01b03909116907f8be0079c531659141344cd1fd0a4f28419497f9722a3daafe3b4186f6b6457e0908390a3600080546001600160a01b0319169055565b60115481565b60105481565b60125481565b6000546001600160a01b031690565b600860205281600052604060002081815481106106c157fe5b6009546001600160a01b031681565b61271081565b600d54600e546001600160a01b0391821691169091565b600c546001600160a01b031681565b801515600090815260076020526040812061077790612728565b61164133611fec565b61165d5760405162461bcd60e51b815260040161073d906144f9565b600c80546001600160a01b0319166001600160a01b0392909216919091179055565b600b546001600160a01b031681565b600e546001600160a01b031681565b600060016116a961077d565b038211156116c95760405162461bcd60e51b815260040161073d906144b3565b610777600183612565565b6116dc611ff9565b6000546001600160a01b039081169116146117095760405162461bcd60e51b815260040161073d9061447e565b600d80546001600160a01b038089166001600160a01b03199283161792839055600e80548983169316929092179091556040805163313ce56760e01b81529051929091169163313ce56791600480820192602092909190829003018186803b15801561177457600080fd5b505afa158015611788573d6000803e3d6000fd5b505050506040513d601f19601f820116820180604052508101906117ac9190613e3f565b60ff16600f55600e546040805163313ce56760e01b815290516001600160a01b039092169163313ce56791600480820192602092909190829003018186803b1580156117f757600080fd5b505afa15801561180b573d6000803e3d6000fd5b505050506040513d601f19601f8201168201806040525081019061182f9190613e3f565b60ff166010556001600160a01b039384166000908152601660205260409020805460ff19166001179055600a80549385166001600160a01b03199485161790556003805492851692841692909217909155600480549190931691161790555050565b6001600160a01b038116600090815260066020526040812061077790612012565b60006118bc611ff9565b6000546001600160a01b039081169116146118e95760405162461bcd60e51b815260040161073d9061447e565b6001600160a01b03821661190f5760405162461bcd60e51b815260040161073d90614528565b610777600183612b49565b6003546001600160a01b031681565b6015818154811061193657fe5b600091825260209091200154905081565b6000808461196757600d54600e546001600160a01b03918216911661197b565b600e54600d546001600160a01b0391821691165b600954604051633ba7c4f760e11b81529294509092506001600160a01b03169063774f89ee906119af908590600401613f34565b60206040518083038186803b1580156119c757600080fd5b505afa1580156119db573d6000803e3d6000fd5b505050506040513d601f19601f820116820180604052508101906119ff9190613e04565b841015611a1e5760405162461bcd60e51b815260040161073d9061430b565b600954604051633418ea4560e11b81526000916001600160a01b031690636831d48a90611a5390339087908a90600401613f48565b602060405180830381600087803b158015611a6d57600080fd5b505af1158015611a81573d6000803e3d6000fd5b505050506040513d601f19601f82011682018060405250810190611aa59190613e04565b90508015611b35576009546040516323b872dd60e01b81526001600160a01b03808616926323b872dd92611ae192339216908690600401613f48565b602060405180830381600087803b158015611afb57600080fd5b505af1158015611b0f573d6000803e3d6000fd5b505050506040513d601f19601f82011682018060405250810190611b339190613c54565b505b611b3f858261217d565b9450611b496137a3565b600c5460405163026d09e360e31b81526001600160a01b03909116906313684f1890611b7d90879087908b90600401613f48565b60006040518083038186803b158015611b9557600080fd5b505afa158015611ba9573d6000803e3d6000fd5b505050506040513d6000823e601f3d908101601f19168201604052611bd19190810190613b2a565b9150508481600001511015611bf85760405162461bcd60e51b815260040161073d9061426d565b84611c0257805194505b600087611c2a57611c25876107e9600f54600a0a8961201d90919063ffffffff16565b611c46565b611c46866107e9600f54600a0a8a61201d90919063ffffffff16565b90506000611c5689838a8a612099565b9050610d6a818488888c60006121bf565b611c7033611fec565b611c8c5760405162461bcd60e51b815260040161073d906144f9565b600980546001600160a01b0319166001600160a01b0392909216919091179055565b6000611cb86137a3565b600c54600e54600d5460405163026d09e360e31b81526001600160a01b03938416936313684f1893611cf99390821692911690633b9aca0090600401613f48565b60006040518083038186803b158015611d1157600080fd5b505afa158015611d25573d6000803e3d6000fd5b505050506040513d6000823e601f3d908101601f19168201604052611d4d9190810190613b2a565b8051600f549193509150600090611d729083906107e990633b9aca0090600a0a61201d565b935050505090565b6000806000611d8884611891565b905060005b81811015611e6f576000611da18683610d76565b9050611dab613723565b60035460405163d311636b60e01b81526001600160a01b039091169063d311636b90611ddb908590600401614714565b60006040518083038186803b158015611df357600080fd5b505afa158015611e07573d6000803e3d6000fd5b505050506040513d6000823e601f3d908101601f19168201604052611e2f9190810190613ce6565b9050806060015115611e525760a0810151611e4b908790612b5e565b9550611e65565b60a0810151611e62908690612b5e565b94505b5050600101611d8d565b5050915091565b60095460408051635c191ce960e01b815290516000926001600160a01b031691635c191ce9916004808301926020929190829003018186803b158015611ebb57600080fd5b505afa158015611ecf573d6000803e3d6000fd5b505050506040513d601f19601f82011682018060405250810190611ef39190613e04565b90505b60001981019015611f1e576000611f0b6112e5565b905080611f185750611f1e565b50611ef6565b50565b60145481565b611f2f611ff9565b6000546001600160a01b03908116911614611f5c5760405162461bcd60e51b815260040161073d9061447e565b6001600160a01b038116611f825760405162461bcd60e51b815260040161073d906141f0565b600080546040516001600160a01b03808516939216917f8be0079c531659141344cd1fd0a4f28419497f9722a3daafe3b4186f6b6457e091a3600080546001600160a01b0319166001600160a01b0392909216919091179055565b6004546001600160a01b031681565b6000610777600183612b83565b3390565b6000610d98836001600160a01b038416612b98565b600061077782612728565b60008261202c57506000610777565b8282028284828161203957fe5b0414610d985760405162461bcd60e51b815260040161073d9061443d565b6000610d9883836040518060400160405280601a81526020017f536166654d6174683a206469766973696f6e206279207a65726f000000000000815250612c65565b600354604051631cdd409f60e21b815260009182916001600160a01b0390911690637375027c906120d890309033908b908b908b908b90600401613f86565b602060405180830381600087803b1580156120f257600080fd5b505af1158015612106573d6000803e3d6000fd5b505050506040513d601f19601f8201168201806040525081019061212a9190613e04565b336000908152600560209081526040822080546001810182559083529120018190559050612159818787612c9c565b503360009081526006602052604090206121739082612ce3565b5095945050505050565b6000610d9883836040518060400160405280601e81526020017f536166654d6174683a207375627472616374696f6e206f766572666c6f770000815250612cef565b60008161224a576040516323b872dd60e01b81526001600160a01b038616906323b872dd906121f690339030908890600401613f48565b602060405180830381600087803b15801561221057600080fd5b505af1158015612224573d6000803e3d6000fd5b505050506040513d601f19601f820116820180604052508101906122489190613c54565b505b600c5460405163095ea7b360e01b81526001600160a01b038781169263095ea7b39261227e92909116908790600401613fbc565b602060405180830381600087803b15801561229857600080fd5b505af11580156122ac573d6000803e3d6000fd5b505050506040513d601f19601f820116820180604052508101906122d09190613c54565b50600c5460405163350d6fd960e01b81526000916001600160a01b03169063350d6fd99061230a908a908a908a908a903390600401614621565b602060405180830381600087803b15801561232457600080fd5b505af1158015612338573d6000803e3d6000fd5b505050506040513d601f19601f8201168201806040525081019061235c9190613e04565b90506123688882612d1b565b50612371613723565b60035460405163d311636b60e01b81526001600160a01b039091169063d311636b906123a1908c90600401614714565b60006040518083038186803b1580156123b957600080fd5b505afa1580156123cd573d6000803e3d6000fd5b505050506040513d6000823e601f3d908101601f191682016040526123f59190810190613ce6565b905060005b88604001515181108015612431575060008960400151828151811061241b57fe5b6020026020010151600781111561242e57fe5b14155b156125305760008960600151828151811061244857fe5b60200260200101519050606060006001600160a01b0316826001600160a01b0316141561249b57604080518082019091526001600160a01b03808c1682528a16602082015261249690612e8d565b6124cc565b604080516060810182526001600160a01b03808d16825284811660208301528b16918101919091526124cc90612efc565b905061252584602001518d8d6080015186815181106124e757fe5b60200260200101518e60a0015187815181106124ff57fe5b60200260200101518f60400151888151811061251757fe5b602002602001015186612f67565b5050506001016123fa565b50600e54612557906001600160a01b038981169116146125505782612552565b855b613001565b5090505b9695505050505050565b6000610d9883836130aa565b600061257b613723565b60035460405163d311636b60e01b81526001600160a01b039091169063d311636b906125ab908690600401614714565b60006040518083038186803b1580156125c357600080fd5b505afa1580156125d7573d6000803e3d6000fd5b505050506040513d6000823e601f3d908101601f191682016040526125ff9190810190613ce6565b60208101519091506001600160a01b0316331461262e5760405162461bcd60e51b815260040161073d906142ba565b6000816101000151600381111561264157fe5b1461265e5760405162461bcd60e51b815260040161073d906145d2565b600354604051630d4e568160e41b81526001600160a01b039091169063d4e568109061269490869060019060009060040161474a565b600060405180830381600087803b1580156126ae57600080fd5b505af11580156126c2573d6000803e3d6000fd5b5050600860205250507fad67d757c34507f157cacfa2e3153e9f260a2244f30428821be7be64587ac55f80546001810182556000919091527f8048725117155ad5ef9cb75f77fbe235a4558a61159f5364c90d55c3a0d15b7a018390556110ef816130ef565b5490565b60008061273b848460016131e5565b915091509250929050565b80151560009081526007602052604081208190612765908260016131e5565b91509150915091565b6000612778613723565b60035460405163d311636b60e01b81526001600160a01b039091169063d311636b906127a8908690600401614714565b60006040518083038186803b1580156127c057600080fd5b505afa1580156127d4573d6000803e3d6000fd5b505050506040513d6000823e601f3d908101601f191682016040526127fc9190810190613ce6565b9050600080826060015161282257600d54600e546001600160a01b039182169116612836565b600e54600d546001600160a01b0391821691165b600954602086015160a0870151604051633418ea4560e11b81529496509294506000936001600160a01b0390921692636831d48a9261287a92918891600401613f48565b602060405180830381600087803b15801561289457600080fd5b505af11580156128a8573d6000803e3d6000fd5b505050506040513d601f19601f820116820180604052508101906128cc9190613e04565b9050801561295c576009546040516323b872dd60e01b81526001600160a01b03808616926323b872dd9261290892339216908690600401613f48565b602060405180830381600087803b15801561292257600080fd5b505af1158015612936573d6000803e3d6000fd5b505050506040513d601f19601f8201168201806040525081019061295a9190613c54565b505b60a084015160009061296e908361217d565b90506129786137a3565b600c5460405163026d09e360e31b81526001600160a01b03909116906313684f18906129ac90889088908790600401613f48565b60006040518083038186803b1580156129c457600080fd5b505afa1580156129d8573d6000803e3d6000fd5b505050506040513d6000823e601f3d908101601f19168201604052612a009190810190613b2a565b9150508560c00151816000015110612b1a57600a5460405163e6a0802560e01b81526000916001600160a01b03169063e6a0802590612a43908990600401613f34565b60206040518083038186803b158015612a5b57600080fd5b505afa158015612a6f573d6000803e3d6000fd5b505050506040513d601f19601f82011682018060405250810190612a939190613e04565b1115612b0457600a546020870151604051636ce5768960e11b81526001600160a01b039092169163d9caed1291612ad1918991908790600401613f48565b600060405180830381600087803b158015612aeb57600080fd5b505af1158015612aff573d6000803e3d6000fd5b505050505b612b13888287878660016121bf565b9650612b3e565b612b3c8860405180606001604052806037815260200161486e6037913961322c565b505b505050505050919050565b6000610d98836001600160a01b038416613362565b600082820183811015610d985760405162461bcd60e51b815260040161073d90614236565b6000610d98836001600160a01b0384166133ac565b60008181526001830160205260408120548015612c545783546000198083019190810190600090879083908110612bcb57fe5b9060005260206000200154905080876000018481548110612be857fe5b600091825260208083209091019290925582815260018981019092526040902090840190558654879080612c1857fe5b60019003818190600052602060002001600090559055866001016000878152602001908152602001600020600090556001945050505050610777565b6000915050610777565b5092915050565b60008183612c865760405162461bcd60e51b815260040161073d919061413e565b506000838581612c9257fe5b0495945050505050565b81151560009081526007602052604081208190612cbb903085876133c4565b8415156000908152600760205260409020909150612cda90828761355b565b95945050505050565b6000610d988383613362565b60008184841115612d135760405162461bcd60e51b815260040161073d919061413e565b505050900390565b6000612d25613723565b60035460405163d311636b60e01b81526001600160a01b039091169063d311636b90612d55908790600401614714565b60006040518083038186803b158015612d6d57600080fd5b505afa158015612d81573d6000803e3d6000fd5b505050506040513d6000823e601f3d908101601f19168201604052612da99190810190613ce6565b905060008161010001516003811115612dbe57fe5b14612ddb5760405162461bcd60e51b815260040161073d90614193565b600354604051630d4e568160e41b81526001600160a01b039091169063d4e5681090612e10908790600290889060040161474a565b600060405180830381600087803b158015612e2a57600080fd5b505af1158015612e3e573d6000803e3d6000fd5b506008925060009150600290505b6003811115612e5757fe5b81526020808201929092526040016000908120805460018101825590825291902001849055612e85816130ef565b505092915050565b604080516002808252606080830184529260208301908036833701905050905060005b6002811015612ef657828160028110612ec557fe5b6020020151828281518110612ed657fe5b6001600160a01b0390921660209283029190910190910152600101612eb0565b50919050565b6040805160038082526080820190925260609160208201838036833701905050905060005b6003811015612ef657828160038110612f3657fe5b6020020151828281518110612f4757fe5b6001600160a01b0390921660209283029190910190910152600101612f21565b6004805460405163904c3e9b60e01b815260009283926001600160a01b03169163904c3e9b91612fa3918c918b918b918e918c918c9101613fd5565b602060405180830381600087803b158015612fbd57600080fd5b505af1158015612fd1573d6000803e3d6000fd5b505050506040513d601f19601f82011682018060405250810190612ff59190613e04565b98975050505050505050565b60145461300e9082612b5e565b60145560115460125460009161302d9162015180916107e9919061217d565b9050600061304b62015180601154420361205790919063ffffffff16565b90508181111561309157601380546015805460018101825560009182527f55f448fdea98c4d29eb340757ef0a66cd03dbb9538908a6a81d96026b71ec475019190915590555b60135461309e9084612b5e565b60135550504260125550565b815460009082106130cd5760405162461bcd60e51b815260040161073d90614151565b8260000182815481106130dc57fe5b9060005260206000200154905092915050565b600354602082015182516040516323b872dd60e01b81526000936001600160a01b0316926323b872dd926131299230929190600401613f48565b600060405180830381600087803b15801561314357600080fd5b505af1158015613157573d6000803e3d6000fd5b5050505060086000836101000151600381111561317057fe5b600381111561317b57fe5b815260208082019290925260409081016000908120855181546001810183559183528483209091015584513382526006909352206131b89161356a565b50815160608301511515600090815260076020526040812090916131dc9190613576565b15159392505050565b6000806131f285856135fe565b61320157506000905080613224565b505060008281526001848101602090815260408084208515158552909152909120545b935093915050565b6000613236613723565b60035460405163d311636b60e01b81526001600160a01b039091169063d311636b90613266908790600401614714565b60006040518083038186803b15801561327e57600080fd5b505afa158015613292573d6000803e3d6000fd5b505050506040513d6000823e601f3d908101601f191682016040526132ba9190810190613ce6565b9050600081610100015160038111156132cf57fe5b146132ec5760405162461bcd60e51b815260040161073d9061435a565b60038054604051630d4e568160e41b81526001600160a01b039091169163d4e5681091613322918891600090899060040161471d565b600060405180830381600087803b15801561333c57600080fd5b505af1158015613350573d6000803e3d6000fd5b50600892506000915060039050612e4c565b600061336e83836133ac565b6133a457508154600181810184556000848152602080822090930184905584548482528286019093526040902091909155610777565b506000610777565b60009081526001919091016020526040902054151590565b60006133cf85612728565b6133db5750600061067c565b60006133ea86600060016131e5565b91505082156134aa575b801580159061347e57506040516307fa648b60e11b81526001600160a01b03861690630ff4c9169061342a908490600401614714565b60206040518083038186803b15801561344257600080fd5b505afa158015613456573d6000803e3d6000fd5b505050506040513d601f19601f8201168201806040525081019061347a9190613e04565b8411155b156134a55760009081526001808701602090815260408084209284529190529020546133f4565b612cda565b801580159061353457506040516307fa648b60e11b81526001600160a01b03861690630ff4c916906134e0908490600401614714565b60206040518083038186803b1580156134f857600080fd5b505afa15801561350c573d6000803e3d6000fd5b505050506040513d601f19601f820116820180604052508101906135309190613e04565b8410155b15612cda5760009081526001808701602090815260408084209284529190529020546134aa565b600061067c848484600061367a565b6000610d988383612b98565b600081158061358c575061358a83836135fe565b155b1561359957506000610777565b6000828152600184810160209081526040808420848052909152808320548284529220546135cb9286929091906136ee565b50600081815260018381016020908152604080842084805290915280832083905590825281205581546000190190915590565b6000818152600183016020908152604080832083805290915281205415801561364157506000828152600180850160209081526040808420928452919052902054155b156136725760008080526001808501602090815260408084209284529190529020548214156133a457506001610777565b506001610777565b600061368685846135fe565b158015613698575061369885856135fe565b156136e3576000848152600186016020908152604080832085151584529091529020546136c7868686866136ee565b6136d3868583866136ee565b505083546001908101855561067c565b506000949350505050565b600082815260019094016020818152604080872093158088529382528087208690559486529081528385209115855252912055565b6040518061018001604052806000815260200160006001600160a01b0316815260200160006001600160a01b03168152602001600015158152602001600081526020016000815260200160008152602001600081526020016000600381111561378857fe5b81526020016060815260200160008152602001600081525090565b6040518060c001604052806000815260200160008152602001606081526020016060815260200160608152602001606081525090565b80516107778161483d565b600082601f8301126137f4578081fd5b8151613807613802826147b3565b61478c565b81815291506020808301908481018184028601820187101561382857600080fd5b60005b8481101561385057815161383e8161483d565b8452928201929082019060010161382b565b505050505092915050565b600082601f83011261386b578081fd5b8151613879613802826147b3565b81815291506020808301908481018184028601820187101561389a57600080fd5b6000805b858110156138c6578251600881106138b4578283fd5b8552938301939183019160010161389e565b50505050505092915050565b600082601f8301126138e2578081fd5b81516138f0613802826147b3565b81815291506020808301908481018184028601820187101561391157600080fd5b60005b8481101561385057815184529282019290820190600101613914565b805161077781614852565b805161077781614860565b600082601f830112613956578081fd5b8151613964613802826147d3565b915080825283602082850101111561397b57600080fd5b612c5e81602084016020860161480d565b60006020828403121561399d578081fd5b8135610d988161483d565b60008060008060008060c087890312156139c0578182fd5b86356139cb8161483d565b955060208701356139db8161483d565b945060408701356139eb8161483d565b935060608701356139fb8161483d565b92506080870135613a0b8161483d565b915060a0870135613a1b8161483d565b809150509295509295509295565b60008060008060808587031215613a3e578384fd5b8435613a498161483d565b93506020850135613a598161483d565b925060408501359150606085013567ffffffffffffffff811115613a7b578182fd5b8501601f81018713613a8b578182fd5b8035613a99613802826147d3565b818152886020838501011115613aad578384fd5b81602084016020830137908101602001929092525092959194509250565b60008060408385031215613add578182fd5b8235613ae88161483d565b946020939093013593505050565b600080600060608486031215613b0a578081fd5b8335613b158161483d565b95602085013595506040909401359392505050565b60008060408385031215613b3c578182fd5b825167ffffffffffffffff80821115613b53578384fd5b613b5f868387016138d2565b93506020850151915080821115613b74578283fd5b9084019060c08287031215613b87578283fd5b613b9160c061478c565b8251815260208301516020820152604083015182811115613bb0578485fd5b613bbc8882860161385b565b604083015250606083015182811115613bd3578485fd5b613bdf888286016137e4565b606083015250608083015182811115613bf6578485fd5b613c02888286016138d2565b60808301525060a083015182811115613c19578485fd5b613c25888286016138d2565b60a0830152508093505050509250929050565b600060208284031215613c49578081fd5b8135610d9881614852565b600060208284031215613c65578081fd5b8151610d9881614852565b600080600060608486031215613c84578081fd5b8335613b1581614852565b60008060008060808587031215613ca4578182fd5b8435613caf81614852565b966020860135965060408601359560600135945092505050565b60008060408385031215613cdb578182fd5b8235613ae881614860565b600060208284031215613cf7578081fd5b815167ffffffffffffffff80821115613d0e578283fd5b8184019150610180808387031215613d24578384fd5b613d2d8161478c565b905082518152613d4086602085016137d9565b6020820152613d5286604085016137d9565b6040820152613d648660608501613930565b60608201526080830151608082015260a083015160a082015260c083015160c082015260e083015160e0820152610100613da08782860161393b565b908201526101208381015183811115613db7578586fd5b613dc388828701613946565b918301919091525061014083810151908201526101609283015192810192909252509392505050565b600060208284031215613dfd578081fd5b5035919050565b600060208284031215613e15578081fd5b5051919050565b60008060408385031215613e2e578182fd5b505080516020909101519092909150565b600060208284031215613e50578081fd5b815160ff81168114610d98578182fd5b6000613e6b82614802565b8352505060200190565b6001600160a01b03169052565b6000815180845260208085019450808401835b83811015613eba5781516001600160a01b031687529582019590820190600101613e95565b509495945050505050565b6000815180845260208085019450808401835b83811015613eba57815187529582019590820190600101613ed8565b15159052565b60048110613f0457fe5b9052565b60008151808452613f2081602086016020860161480d565b601f01601f19169290920160200192915050565b6001600160a01b0391909116815260200190565b6001600160a01b039384168152919092166020820152604081019190915260600190565b6001600160a01b0392831681529116602082015260400190565b6001600160a01b03968716815294909516602085015291151560408401526060830152608082015260a081019190915260c00190565b6001600160a01b03929092168252602082015260400190565b6001600160a01b0387168152602081018690526040810185905260608101849052600061400184614802565b608083015260c060a0830152612ff560c0830184613e82565b60208082528251828201819052600091906040908185019080840286018301878501865b8381101561411057603f19898403018552815161018081518552888201516140688a870182613e75565b508782015161407989870182613e75565b5060608083015161408c82880182613ef4565b50506080828101519086015260a0808301519086015260c0808301519086015260e08083015190860152610100808301516140c982880182613efa565b50506101208083015182828801526140e383880182613f08565b6101408581015190890152610160948501519490970193909352505050938601939086019060010161403e565b509098975050505050505050565b901515815260200190565b6001600160e01b031991909116815260200190565b600060208252610d986020830184613f08565b60208082526022908201527f456e756d657261626c655365743a20696e646578206f7574206f6620626f756e604082015261647360f01b606082015260800190565b60208082526039908201527f4f7264657253746f72653a206f6e6c792068616e67696e67206f72646572206360408201527f616e206265636f6d6520414d4d4465616c207374617475732e00000000000000606082015260800190565b60208082526026908201527f4f776e61626c653a206e6577206f776e657220697320746865207a65726f206160408201526564647265737360d01b606082015260800190565b6020808252601b908201527f536166654d6174683a206164646974696f6e206f766572666c6f770000000000604082015260600190565b6020808252602d908201527f426f626f506169723a2063616e204e4f54207361746973667920796f7572207460408201526c3930b232903932b8bab2b9ba1760991b606082015260800190565b60208082526031908201527f4f7264657253746f72653a206f6e6c7920626f6f6b206f776e65722063616e2060408201527031b0b731b2b6103a34329037b93232b91760791b606082015260800190565b6020808252602f908201527f426f626f506169723a20696e416d6f756e74204d555354206c6172676572207460408201526e3430b71036b4b71030b6b7bab73a1760891b606082015260800190565b6020808252603b908201527f4f7264657253746f72653a206f6e6c792068616e67696e67206f72646572206360408201527f616e206265636f6d6520657863657074696f6e207374617475732e0000000000606082015260800190565b60208082526022908201527f4f7264657253746f72653a20696e646578206973206f7574206f6620626f756e604082015261321760f11b606082015260800190565b60208082526024908201527f426f626f506169723a20736c697070616765204d555354203c3d2031303030286040820152633130252960e01b606082015260800190565b60208082526021908201527f536166654d6174683a206d756c7469706c69636174696f6e206f766572666c6f6040820152607760f81b606082015260800190565b6020808252818101527f4f776e61626c653a2063616c6c6572206973206e6f7420746865206f776e6572604082015260600190565b60208082526026908201527f4d6978696e417574686f72697a61626c653a20696e646578206f7574206f6620604082015265626f756e647360d01b606082015260800190565b60208082526015908201527414d15391115497d393d517d055551213d492569151605a1b604082015260600190565b60208082526035908201527f4d6978696e417574686f72697a61626c653a205f616464417574686f72697a656040820152746420697320746865207a65726f206164647265737360581b606082015260800190565b60208082526035908201527f4d6978696e417574686f72697a61626c653a205f64656c417574686f72697a656040820152746420697320746865207a65726f206164647265737360581b606082015260800190565b6020808252602f908201527f4f7264657253746f72653a206f6e6c792068616e67696e67206f72646572206360408201526e30b71031329031b0b731b2b632b21760891b606082015260800190565b600060a082526101608201875160a084015260208089015160c0850152604089015160c060e08601528281516146578186614714565b9284019450859291505b8083101561468657614674828651613e60565b91508385019450600183019250614661565b5060608b01519350609f19915081868203016101008701526146a88185613e82565b93505060808a015181868503016101208701526146c58482613ec5565b93505060a08a015181868503016101408701526146e28482613ec5565b945050506146f281850189613e75565b50506147016040830186613e75565b83606083015261255b6080830184613e75565b90815260200190565b600085825261472b856147f7565b60208301528360408301526080606083015261255b6080830184613f08565b6000848252614758846147f7565b60208301528260408301526080606083015280608083015260a082019050949350505050565b918252602082015260400190565b60405181810167ffffffffffffffff811182821017156147ab57600080fd5b604052919050565b600067ffffffffffffffff8211156147c9578081fd5b5060209081020190565b600067ffffffffffffffff8211156147e9578081fd5b50601f01601f191660200190565b806004811061066657fe5b806008811061066657fe5b60005b83811015614828578181015183820152602001614810565b83811115614837576000848401525b50505050565b6001600160a01b0381168114611f1e57600080fd5b8015158114611f1e57600080fd5b60048110611f1e57600080fdfe416d6f756e74206f75742063616e204e4f54207361746973667920746865206d696e20616d6f756e74206f7574206f66206f726465722ea264697066735822122073115b86852924931769a46953846eae73bcd7670d9fc34ce47f95b892f0601464736f6c634300060c00334f776e61626c653a206e6577206f776e657220697320746865207a65726f20616464726573734f776e61626c653a2063616c6c6572206973206e6f7420746865206f776e6572a2646970667358221220725b48e34a9a7132575448f2d84207534a62d5e18c55c4db5cc7e0f1d172bf9664736f6c634300060c0033",
  "immutableReferences": {},
  "source": "// SPDX-License-Identifier: MIT\npragma solidity ^0.6.0;\n\nimport \"./common/OrderStore.sol\";\nimport \"./BoboPair.sol\";\n\ninterface IMinter {\n    function addMinter(address _addMinter) external returns (bool);\n}\n\ninterface IAuthorizable {\n    function addAuthorized(address _authorizedAddr) external returns (bool);\n}\n\ninterface IBoboPair is IAuthorizable {\n    function initialize(address _token0, address _token1, address _authAddr, address _boboFarmer, address _orderNFT, address _orderDetailNFT) external;\n    function setRouter(address _router) external;\n    function setExManager(address _exManager) external;\n    function getTotalHangingTokenAmount(address _userAddr) view external returns(uint256 baseTokenAmount, uint256 quoteTokenAmount);\n}\n\ncontract BoboFactoryOnMatic is Ownable {\n    using SafeMath for uint256;\n    \n    address public constant USDT = 0xc2132D05D31c914a87C6611C10748AEb04B58e8F;\n    address public constant USDC = 0x2791Bca1f2de4661ED88A30C99A7a9449Aa84174;\n    address public constant WMATIC = 0x0d500B1d8E8eF31E21C99d1Db9A6444d3ADf1270;\n    \n    address[] public allPairs;  // \n    mapping(address => mapping(address => address)) public getPair;\n    mapping(address => address[]) public baseTokenPairs;\n\n    IBoboFarmer public boboFarmer;\n    address public orderNFT;\n    address public orderDetailNFT;\n    address public exManager;\n    address public boboRouter;\n    \n    event PairCreated(address indexed token0, address indexed token1, address pair, uint);\n    \n    constructor (address _orderNFT, address _orderDetailNFT, address _boboFarmer, address _exManager, address _boboRouter) public {  \n        orderNFT = _orderNFT;\n        orderDetailNFT = _orderDetailNFT;\n        boboFarmer = IBoboFarmer(_boboFarmer);\n        exManager = _exManager;\n        boboRouter = _boboRouter;\n    }\n\n    function setAddresses(address _boboFarmer, address _exManager, address _boboRouter) public onlyOwner {\n        if (_boboFarmer != address(0))\n            boboFarmer = IBoboFarmer(_boboFarmer);\n        if (_exManager != address(0))\n            exManager = _exManager;\n        if (_boboRouter != address(0))\n            boboRouter = _boboRouter;\n    }\n    \n    function createPair(address _quoteToken, address _baseToken) public onlyOwner returns (address pairAddr) {\n        require(_quoteToken != _baseToken, \"BoboFactory: IDENTICAL_ADDRESSES\");\n        require(_quoteToken != address(0), \"BoboFactory: ZERO_ADDRESS\");\n        require(getPair[_quoteToken][_baseToken] == address(0), \"BoboFactory: PAIR_EXISTS\"); // single check is sufficient\n        bytes memory bytecode = type(BoboPair).creationCode;\n        bytes32 salt = keccak256(abi.encodePacked(_quoteToken, _baseToken));\n        assembly {\n            pairAddr := create2(0, add(bytecode, 32), mload(bytecode), salt)\n        }\n        IBoboPair(pairAddr).initialize(_quoteToken, _baseToken, msg.sender, address(boboFarmer), orderNFT, orderDetailNFT);\n        IBoboPair(pairAddr).setExManager(exManager);\n        IBoboPair(pairAddr).setRouter(boboRouter);\n        \n        getPair[_quoteToken][_baseToken] = pairAddr;\n        getPair[_baseToken][_quoteToken] = pairAddr; // populate mapping in the reverse direction\n        allPairs.push(pairAddr);\n        baseTokenPairs[_baseToken].push(_quoteToken);\n        emit PairCreated(_quoteToken, _baseToken, pairAddr, allPairs.length);\n    }\n    \n    function pairNumber() view public returns(uint256) {\n        return allPairs.length;\n    }\n    \n    function addPairAuth(address _quoteToken, address _baseToken, address _auth) external onlyOwner {\n        address pairAddr = getPair[_quoteToken][_baseToken];\n        require(pairAddr != address(0), 'BoboFactory: PAIR_NOT_EXISTS');\n        IBoboPair(pairAddr).addAuthorized(_auth);\n    }\n\n    function getBaseTokenPairLength(address _baseToken) view external returns(uint256) {\n        return baseTokenPairs[_baseToken].length;\n    }\n\n    function getTotalHangingTokenAmount(address _baseToken, address _userAddr) view public returns(uint256) {\n        uint256 totalBaseTokenAmount;\n        address[] memory quoteTokens = baseTokenPairs[_baseToken];\n        for (uint256 i = 0; i < quoteTokens.length; i++) {\n            address pairAddr = getPair[quoteTokens[i]][_baseToken];\n            (uint256 baseTokenAmount,) = IBoboPair(pairAddr).getTotalHangingTokenAmount(_userAddr);\n            totalBaseTokenAmount = totalBaseTokenAmount.add(baseTokenAmount);\n        }\n        return totalBaseTokenAmount;\n    }\n\n    function getClaimBaseTokenAmount(address _baseToken, address _userAddr) view public returns(uint256) {\n        uint256 hangingBaseTokenAmount = boboFarmer.stakedWantTokens(_baseToken, _userAddr);\n        uint256 baseTokenAmount = getTotalHangingTokenAmount(_baseToken, _userAddr);\n        return hangingBaseTokenAmount.sub(baseTokenAmount);\n    }\n    // boboFarmerFactory\n    function claimBaseToken(address _baseToken) public {\n        uint256 amount = getClaimBaseTokenAmount(_baseToken, msg.sender);\n        if (boboFarmer.tokenPidMap(_baseToken) > 0) {\n            uint256 preBaseTokenAmount = IERC20(_baseToken).balanceOf(address(this));\n            boboFarmer.withdraw(_baseToken, msg.sender, amount);\n            uint256 newBaseTokenAmount = IERC20(_baseToken).balanceOf(address(this));\n            IERC20(_baseToken).transfer(msg.sender, newBaseTokenAmount.sub(preBaseTokenAmount));\n        }\n    }\n}",
  "sourcePath": "/Users/mryu/blockchain/bobo-metaverse/boboswap-contract/contracts/BoboFactory.sol",
  "compiler": {
    "name": "solc",
    "version": "0.6.12+commit.27d51765.Emscripten.clang"
  },
  "schemaVersion": "3.4.3",
  "updatedAt": "2021-08-28T02:23:05.039Z",
  "devdoc": {
    "kind": "dev",
    "methods": {
      "owner()": {
        "details": "Returns the address of the current owner."
      },
      "renounceOwnership()": {
        "details": "Leaves the contract without owner. It will not be possible to call `onlyOwner` functions anymore. Can only be called by the current owner. NOTE: Renouncing ownership will leave the contract without an owner, thereby removing any functionality that is only available to the owner."
      },
      "transferOwnership(address)": {
        "details": "Transfers ownership of the contract to a new account (`newOwner`). Can only be called by the current owner."
      }
    },
    "version": 1
  },
  "userdoc": {
    "kind": "user",
    "methods": {},
    "version": 1
  }
}