{
  "contractName": "BoboFarmer",
  "abi": [
    {
      "inputs": [
        {
          "internalType": "address",
          "name": "_boboTokenAddress",
          "type": "address"
        },
        {
          "internalType": "address",
          "name": "_fundAddr",
          "type": "address"
        }
      ],
      "stateMutability": "nonpayable",
      "type": "constructor"
    },
    {
      "anonymous": false,
      "inputs": [
        {
          "indexed": true,
          "internalType": "address",
          "name": "_tokenAddr",
          "type": "address"
        },
        {
          "indexed": true,
          "internalType": "address",
          "name": "user",
          "type": "address"
        },
        {
          "indexed": false,
          "internalType": "uint256",
          "name": "amount",
          "type": "uint256"
        }
      ],
      "name": "Deposit",
      "type": "event"
    },
    {
      "anonymous": false,
      "inputs": [
        {
          "indexed": true,
          "internalType": "address",
          "name": "_tokenAddr",
          "type": "address"
        },
        {
          "indexed": true,
          "internalType": "address",
          "name": "user",
          "type": "address"
        },
        {
          "indexed": false,
          "internalType": "uint256",
          "name": "amount",
          "type": "uint256"
        }
      ],
      "name": "EmergencyWithdraw",
      "type": "event"
    },
    {
      "anonymous": false,
      "inputs": [
        {
          "indexed": true,
          "internalType": "address",
          "name": "previousOwner",
          "type": "address"
        },
        {
          "indexed": true,
          "internalType": "address",
          "name": "newOwner",
          "type": "address"
        }
      ],
      "name": "OwnershipTransferred",
      "type": "event"
    },
    {
      "anonymous": false,
      "inputs": [
        {
          "indexed": true,
          "internalType": "address",
          "name": "_tokenAddr",
          "type": "address"
        },
        {
          "indexed": true,
          "internalType": "address",
          "name": "user",
          "type": "address"
        },
        {
          "indexed": false,
          "internalType": "uint256",
          "name": "amount",
          "type": "uint256"
        }
      ],
      "name": "Withdraw",
      "type": "event"
    },
    {
      "inputs": [
        {
          "internalType": "address",
          "name": "_authorizedAddr",
          "type": "address"
        }
      ],
      "name": "addAuthorized",
      "outputs": [
        {
          "internalType": "bool",
          "name": "",
          "type": "bool"
        }
      ],
      "stateMutability": "nonpayable",
      "type": "function"
    },
    {
      "inputs": [],
      "name": "boboPerBlock",
      "outputs": [
        {
          "internalType": "uint256",
          "name": "",
          "type": "uint256"
        }
      ],
      "stateMutability": "view",
      "type": "function"
    },
    {
      "inputs": [],
      "name": "boboTokenAddr",
      "outputs": [
        {
          "internalType": "address",
          "name": "",
          "type": "address"
        }
      ],
      "stateMutability": "view",
      "type": "function"
    },
    {
      "inputs": [],
      "name": "burnAddress",
      "outputs": [
        {
          "internalType": "address",
          "name": "",
          "type": "address"
        }
      ],
      "stateMutability": "view",
      "type": "function"
    },
    {
      "inputs": [
        {
          "internalType": "address",
          "name": "_authorizedAddr",
          "type": "address"
        }
      ],
      "name": "delAuthorized",
      "outputs": [
        {
          "internalType": "bool",
          "name": "",
          "type": "bool"
        }
      ],
      "stateMutability": "nonpayable",
      "type": "function"
    },
    {
      "inputs": [],
      "name": "denominator",
      "outputs": [
        {
          "internalType": "uint256",
          "name": "",
          "type": "uint256"
        }
      ],
      "stateMutability": "view",
      "type": "function"
    },
    {
      "inputs": [],
      "name": "fundAddr",
      "outputs": [
        {
          "internalType": "address",
          "name": "",
          "type": "address"
        }
      ],
      "stateMutability": "view",
      "type": "function"
    },
    {
      "inputs": [
        {
          "internalType": "uint256",
          "name": "_index",
          "type": "uint256"
        }
      ],
      "name": "getAuthorized",
      "outputs": [
        {
          "internalType": "address",
          "name": "",
          "type": "address"
        }
      ],
      "stateMutability": "view",
      "type": "function"
    },
    {
      "inputs": [],
      "name": "getAuthorizedLength",
      "outputs": [
        {
          "internalType": "uint256",
          "name": "",
          "type": "uint256"
        }
      ],
      "stateMutability": "view",
      "type": "function"
    },
    {
      "inputs": [
        {
          "internalType": "address",
          "name": "_authorizedAddr",
          "type": "address"
        }
      ],
      "name": "isAuthorized",
      "outputs": [
        {
          "internalType": "bool",
          "name": "",
          "type": "bool"
        }
      ],
      "stateMutability": "view",
      "type": "function"
    },
    {
      "inputs": [],
      "name": "numerator",
      "outputs": [
        {
          "internalType": "uint256",
          "name": "",
          "type": "uint256"
        }
      ],
      "stateMutability": "view",
      "type": "function"
    },
    {
      "inputs": [],
      "name": "owner",
      "outputs": [
        {
          "internalType": "address",
          "name": "",
          "type": "address"
        }
      ],
      "stateMutability": "view",
      "type": "function"
    },
    {
      "inputs": [
        {
          "internalType": "uint256",
          "name": "",
          "type": "uint256"
        }
      ],
      "name": "poolInfo",
      "outputs": [
        {
          "internalType": "contract IERC20",
          "name": "want",
          "type": "address"
        },
        {
          "internalType": "uint256",
          "name": "allocPoint",
          "type": "uint256"
        },
        {
          "internalType": "uint256",
          "name": "lastRewardBlock",
          "type": "uint256"
        },
        {
          "internalType": "uint256",
          "name": "accBOBOPerShare",
          "type": "uint256"
        },
        {
          "internalType": "address",
          "name": "strat",
          "type": "address"
        }
      ],
      "stateMutability": "view",
      "type": "function"
    },
    {
      "inputs": [],
      "name": "renounceOwnership",
      "outputs": [],
      "stateMutability": "nonpayable",
      "type": "function"
    },
    {
      "inputs": [],
      "name": "startBlock",
      "outputs": [
        {
          "internalType": "uint256",
          "name": "",
          "type": "uint256"
        }
      ],
      "stateMutability": "view",
      "type": "function"
    },
    {
      "inputs": [
        {
          "internalType": "address",
          "name": "",
          "type": "address"
        }
      ],
      "name": "tokenPidMap",
      "outputs": [
        {
          "internalType": "uint256",
          "name": "",
          "type": "uint256"
        }
      ],
      "stateMutability": "view",
      "type": "function"
    },
    {
      "inputs": [],
      "name": "totalAllocPoint",
      "outputs": [
        {
          "internalType": "uint256",
          "name": "",
          "type": "uint256"
        }
      ],
      "stateMutability": "view",
      "type": "function"
    },
    {
      "inputs": [
        {
          "internalType": "address",
          "name": "newOwner",
          "type": "address"
        }
      ],
      "name": "transferOwnership",
      "outputs": [],
      "stateMutability": "nonpayable",
      "type": "function"
    },
    {
      "inputs": [
        {
          "internalType": "uint256",
          "name": "",
          "type": "uint256"
        },
        {
          "internalType": "address",
          "name": "",
          "type": "address"
        }
      ],
      "name": "userInfo",
      "outputs": [
        {
          "internalType": "uint256",
          "name": "shares",
          "type": "uint256"
        },
        {
          "internalType": "uint256",
          "name": "rewardDebt",
          "type": "uint256"
        }
      ],
      "stateMutability": "view",
      "type": "function"
    },
    {
      "inputs": [
        {
          "internalType": "address",
          "name": "_fundAddr",
          "type": "address"
        }
      ],
      "name": "setFundAddr",
      "outputs": [],
      "stateMutability": "nonpayable",
      "type": "function"
    },
    {
      "inputs": [
        {
          "internalType": "uint256",
          "name": "_numerator",
          "type": "uint256"
        },
        {
          "internalType": "uint256",
          "name": "_denominator",
          "type": "uint256"
        }
      ],
      "name": "setFundScale",
      "outputs": [],
      "stateMutability": "nonpayable",
      "type": "function"
    },
    {
      "inputs": [
        {
          "internalType": "uint256",
          "name": "_boboPerBlock",
          "type": "uint256"
        }
      ],
      "name": "setBoboPerBlock",
      "outputs": [],
      "stateMutability": "nonpayable",
      "type": "function"
    },
    {
      "inputs": [],
      "name": "poolLength",
      "outputs": [
        {
          "internalType": "uint256",
          "name": "",
          "type": "uint256"
        }
      ],
      "stateMutability": "view",
      "type": "function"
    },
    {
      "inputs": [
        {
          "internalType": "uint256",
          "name": "_allocPoint",
          "type": "uint256"
        },
        {
          "internalType": "address",
          "name": "_want",
          "type": "address"
        },
        {
          "internalType": "bool",
          "name": "_withUpdate",
          "type": "bool"
        },
        {
          "internalType": "address",
          "name": "_strat",
          "type": "address"
        }
      ],
      "name": "add",
      "outputs": [],
      "stateMutability": "nonpayable",
      "type": "function"
    },
    {
      "inputs": [
        {
          "internalType": "address",
          "name": "_tokenAddr",
          "type": "address"
        },
        {
          "internalType": "uint256",
          "name": "_allocPoint",
          "type": "uint256"
        },
        {
          "internalType": "bool",
          "name": "_withUpdate",
          "type": "bool"
        }
      ],
      "name": "setPoolPoint",
      "outputs": [],
      "stateMutability": "nonpayable",
      "type": "function"
    },
    {
      "inputs": [
        {
          "internalType": "uint256",
          "name": "_from",
          "type": "uint256"
        },
        {
          "internalType": "uint256",
          "name": "_to",
          "type": "uint256"
        }
      ],
      "name": "getMultiplier",
      "outputs": [
        {
          "internalType": "uint256",
          "name": "",
          "type": "uint256"
        }
      ],
      "stateMutability": "pure",
      "type": "function"
    },
    {
      "inputs": [
        {
          "internalType": "address",
          "name": "_tokenAddr",
          "type": "address"
        },
        {
          "internalType": "address",
          "name": "_user",
          "type": "address"
        }
      ],
      "name": "pendingBOBO",
      "outputs": [
        {
          "internalType": "uint256",
          "name": "",
          "type": "uint256"
        }
      ],
      "stateMutability": "view",
      "type": "function"
    },
    {
      "inputs": [
        {
          "internalType": "address",
          "name": "_tokenAddr",
          "type": "address"
        },
        {
          "internalType": "address",
          "name": "_user",
          "type": "address"
        }
      ],
      "name": "stakedWantTokens",
      "outputs": [
        {
          "internalType": "uint256",
          "name": "",
          "type": "uint256"
        }
      ],
      "stateMutability": "view",
      "type": "function"
    },
    {
      "inputs": [],
      "name": "massUpdatePools",
      "outputs": [],
      "stateMutability": "nonpayable",
      "type": "function"
    },
    {
      "inputs": [
        {
          "internalType": "uint256",
          "name": "_pid",
          "type": "uint256"
        }
      ],
      "name": "updatePool",
      "outputs": [],
      "stateMutability": "nonpayable",
      "type": "function"
    },
    {
      "inputs": [
        {
          "internalType": "address",
          "name": "_tokenAddr",
          "type": "address"
        },
        {
          "internalType": "address",
          "name": "_userAddr",
          "type": "address"
        },
        {
          "internalType": "uint256",
          "name": "_wantAmt",
          "type": "uint256"
        }
      ],
      "name": "deposit",
      "outputs": [],
      "stateMutability": "nonpayable",
      "type": "function"
    },
    {
      "inputs": [
        {
          "internalType": "uint256",
          "name": "_orderId",
          "type": "uint256"
        }
      ],
      "name": "depositOrderNFT",
      "outputs": [],
      "stateMutability": "nonpayable",
      "type": "function"
    },
    {
      "inputs": [
        {
          "internalType": "address",
          "name": "_tokenAddr",
          "type": "address"
        },
        {
          "internalType": "address",
          "name": "_userAddr",
          "type": "address"
        },
        {
          "internalType": "uint256",
          "name": "_wantAmt",
          "type": "uint256"
        }
      ],
      "name": "withdraw",
      "outputs": [],
      "stateMutability": "nonpayable",
      "type": "function"
    },
    {
      "inputs": [
        {
          "internalType": "address",
          "name": "_tokenAddr",
          "type": "address"
        },
        {
          "internalType": "address",
          "name": "_newStratAddr",
          "type": "address"
        }
      ],
      "name": "migrateNewStrat",
      "outputs": [],
      "stateMutability": "nonpayable",
      "type": "function"
    },
    {
      "inputs": [],
      "name": "returnU4Test",
      "outputs": [],
      "stateMutability": "nonpayable",
      "type": "function"
    }
  ],
  "bytecode": "0x6080604052600580546001600160a01b03191661dead1790556000600d553480156200002a57600080fd5b50604051620030c2380380620030c28339810160408190526200004d91620000ec565b600062000059620000e8565b600080546001600160a01b0319166001600160a01b0383169081178255604051929350917f8be0079c531659141344cd1fd0a4f28419497f9722a3daafe3b4186f6b6457e0908290a35060016003908155600480546001600160a01b039485166001600160a01b0319918216179091556006805493909416921691909117909155600260085560075562000143565b3390565b60008060408385031215620000ff578182fd5b82516200010c816200012a565b60208401519092506200011f816200012a565b809150509250929050565b6001600160a01b03811681146200014057600080fd5b50565b612f6f80620001536000396000f3fe608060405234801561001057600080fd5b50600436106102115760003560e01c80638340f54911610125578063cf1c316a116100ad578063e6a080251161007c578063e6a080251461041d578063ec2f83da14610430578063f2fde38b14610438578063f419d4761461044b578063fe9fbb801461045357610211565b8063cf1c316a146103dc578063d0f2ced1146103ef578063d8fc5d7b14610402578063d9caed121461040a57610211565b806393ce61ae116100f457806393ce61ae1461038557806393f1a40b1461039857806396ce0795146103b9578063c63cc564146103c1578063ce5f9454146103d457610211565b80638340f549146103445780638d1afc46146103575780638da5cb5b1461036a5780638dbb1e3a1461037257610211565b806351eb05a6116101a8578063682cb91111610177578063682cb911146102f95780636f39cfcd1461030e578063704b02481461032157806370d5ae0514610334578063715018a61461033c57610211565b806351eb05a6146102b857806355d59a15146102cb5780635f70edcf146102de578063630b5ba1146102f157610211565b80632013af35116101e45780632013af351461027557806331a40b62146102885780633397e527146102a857806348cd4cb1146102b057610211565b8063081e3eda146102165780631526fe271461023457806317caf6f1146102585780631de47f2814610260575b600080fd5b61021e610466565b60405161022b9190612ebc565b60405180910390f35b61024761024236600461281b565b61046c565b60405161022b9594939291906129b8565b61021e6104b7565b61027361026e36600461281b565b6104bd565b005b61021e610283366004612746565b610508565b61029b61029636600461270e565b6106e2565b60405161022b91906129ad565b61021e61074a565b61021e61075b565b6102736102c636600461281b565b610761565b6102736102d93660046128c1565b610a52565b6102736102ec36600461286f565b610a92565b610273610cfd565b610301610d20565b60405161022b9190612921565b61027361031c36600461270e565b610d2f565b61027361032f36600461281b565b610a4f565b610301610d86565b610273610d95565b61027361035236600461277e565b610e14565b6102736103653660046127be565b61109b565b61030161119c565b61021e6103803660046128c1565b6111ab565b610273610393366004612746565b6111be565b6103ab6103a636600461284b565b6114d3565b60405161022b929190612edc565b61021e6114f7565b6103016103cf36600461281b565b6114fd565b61021e611534565b61029b6103ea36600461270e565b61153a565b61021e6103fd366004612746565b6115a2565b61021e6117d5565b61027361041836600461277e565b6117db565b61021e61042b36600461270e565b611c4b565b610301611c5d565b61027361044636600461270e565b611c6c565b610273611d22565b61029b61046136600461270e565b611f35565b600b5490565b600b818154811061047957fe5b6000918252602090912060059091020180546001820154600283015460038401546004909401546001600160a01b0393841695509193909290911685565b600d5481565b6104c5611f42565b6000546001600160a01b039081169116146104fb5760405162461bcd60e51b81526004016104f290612c3d565b60405180910390fd5b610503610cfd565b600955565b6001600160a01b0382166000908152600e602052604081205461053d5760405162461bcd60e51b81526004016104f290612b11565b6001600160a01b0383166000908152600e6020526040812054600b805460001990920192918390811061056c57fe5b60009182526020808320858452600c825260408085206001600160a01b03808b1687529352808520600360059095029092019384015460048086015486549351631190d9e560e11b815296985093969195919493841693632321b3ca936105d69391169101612921565b60206040518083038186803b1580156105ee57600080fd5b505afa158015610602573d6000803e3d6000fd5b505050506040513d601f19601f820116820180604052508101906106269190612833565b905083600201544311801561063a57508015155b156106a657600061064f8560020154436111ab565b90506000610682600d5461067c886001015461067660095487611f4690919063ffffffff16565b90611f46565b90611f80565b90506106a161069a8461067c8464e8d4a51000611f46565b8590611fc2565b935050505b6106d483600101546106ce64e8d4a5100061067c868860000154611f4690919063ffffffff16565b90611fe7565b955050505050505b92915050565b60006106ec611f42565b6000546001600160a01b039081169116146107195760405162461bcd60e51b81526004016104f290612c3d565b6001600160a01b03821661073f5760405162461bcd60e51b81526004016104f290612e67565b6106dc600183612029565b6000610756600161203e565b905090565b600a5481565b6000600b828154811061077057fe5b90600052602060002090600502019050806002015443116107915750610a4f565b6004808201548254604051631190d9e560e11b81526000936001600160a01b0393841693632321b3ca936107c89391169101612921565b60206040518083038186803b1580156107e057600080fd5b505afa1580156107f4573d6000803e3d6000fd5b505050506040513d601f19601f820116820180604052508101906108189190612833565b90508061082c575043600290910155610a4f565b600061083c8360020154436111ab565b90506000811161084e57505050610a4f565b6000610873600d5461067c866001015461067660095487611f4690919063ffffffff16565b90508015610a4157600061089860075461067c60085485611f4690919063ffffffff16565b6004549091506001600160a01b03166340c10f19306108b78585611fc2565b6040518363ffffffff1660e01b81526004016108d4929190612935565b602060405180830381600087803b1580156108ee57600080fd5b505af1158015610902573d6000803e3d6000fd5b505050506040513d601f19601f8201168201806040525081019061092691906127ff565b506004805460065460405163095ea7b360e01b81526001600160a01b039283169363095ea7b39361095b931691869101612935565b602060405180830381600087803b15801561097557600080fd5b505af1158015610989573d6000803e3d6000fd5b505050506040513d601f19601f820116820180604052508101906109ad91906127ff565b50600654604051632a5360c760e21b81526001600160a01b039091169063a94d831c906109de908490600401612ebc565b600060405180830381600087803b1580156109f857600080fd5b505af1158015610a0c573d6000803e3d6000fd5b50505050610a3a610a2f8561067c64e8d4a5100086611f4690919063ffffffff16565b600387015490611fc2565b6003860155505b438460020181905550505050505b50565b610a5a611f42565b6000546001600160a01b03908116911614610a875760405162461bcd60e51b81526004016104f290612c3d565b600891909155600755565b610a9a611f42565b6000546001600160a01b03908116911614610ac75760405162461bcd60e51b81526004016104f290612c3d565b6001600160a01b0383166000908152600e602052604090205415610afd5760405162461bcd60e51b81526004016104f290612bc5565b306001600160a01b0316816001600160a01b0316638da5cb5b6040518163ffffffff1660e01b8152600401602060405180830381600087803b158015610b4257600080fd5b505af1158015610b56573d6000803e3d6000fd5b505050506040513d601f19601f82011682018060405250810190610b7a919061272a565b6001600160a01b031614610ba05760405162461bcd60e51b81526004016104f290612d1e565b8115610bae57610bae610cfd565b600d54610bbb9085611fc2565b600d556040805160a0810182526001600160a01b0394851680825260208083019788524383850190815260006060850181815296891660808601908152600b8054600181018255818452965160059097027f0175b7a638427703f0dbe7bb9bbf987a2551717b34e79f33b5b1008d1fa01db981018054988d166001600160a01b0319998a161790559b517f0175b7a638427703f0dbe7bb9bbf987a2551717b34e79f33b5b1008d1fa01dba8d015592517f0175b7a638427703f0dbe7bb9bbf987a2551717b34e79f33b5b1008d1fa01dbb8c015596517f0175b7a638427703f0dbe7bb9bbf987a2551717b34e79f33b5b1008d1fa01dbc8b015595517f0175b7a638427703f0dbe7bb9bbf987a2551717b34e79f33b5b1008d1fa01dbd909901805499909816989093169790971790955554938252600e909452929092205550565b600b5460005b81811015610d1c57610d1481610761565b600101610d03565b5050565b6006546001600160a01b031681565b610d37611f42565b6000546001600160a01b03908116911614610d645760405162461bcd60e51b81526004016104f290612c3d565b600680546001600160a01b0319166001600160a01b0392909216919091179055565b6005546001600160a01b031681565b610d9d611f42565b6000546001600160a01b03908116911614610dca5760405162461bcd60e51b81526004016104f290612c3d565b600080546040516001600160a01b03909116907f8be0079c531659141344cd1fd0a4f28419497f9722a3daafe3b4186f6b6457e0908390a3600080546001600160a01b0319169055565b60026003541415610e375760405162461bcd60e51b81526004016104f290612ddb565b6002600355610e4533611f35565b610e615760405162461bcd60e51b81526004016104f290612cb8565b6001600160a01b0383166000908152600e6020526040902054610e965760405162461bcd60e51b81526004016104f290612b11565b6001600160a01b0383166000908152600e602052604090205460001901610ebc81610761565b6000600b8281548110610ecb57fe5b60009182526020808320858452600c825260408085206001600160a01b038a168652909252922080546005909202909201925015610f45576000610f3182600101546106ce64e8d4a5100061067c87600301548760000154611f4690919063ffffffff16565b90508015610f4357610f438682612049565b505b8315611020578154610f62906001600160a01b03163330876121e7565b60048201548254610f80916001600160a01b0391821691168661223f565b6004808301548354604051636e553f6560e01b81526000936001600160a01b0393841693636e553f6593610fbb938b93919092169101612ec5565b602060405180830381600087803b158015610fd557600080fd5b505af1158015610fe9573d6000803e3d6000fd5b505050506040513d601f19601f8201168201806040525081019061100d9190612833565b825490915061101c9082611fc2565b8255505b6003820154815461103b9164e8d4a510009161067c91611f46565b8160010181905550846001600160a01b0316866001600160a01b03167f5548c837ab068cf56a2c2479df0882a4922fd203edb7517321831d95078c5f62866040516110869190612ebc565b60405180910390a35050600160035550505050565b6110a3611f42565b6000546001600160a01b039081169116146110d05760405162461bcd60e51b81526004016104f290612c3d565b6001600160a01b0383166000908152600e60205260409020546111055760405162461bcd60e51b81526004016104f290612b11565b6001600160a01b0383166000908152600e602052604090205460001901811561113057611130610cfd565b61116d83611167600b848154811061114457fe5b906000526020600020906005020160010154600d54611fe790919063ffffffff16565b90611fc2565b600d8190555082600b828154811061118157fe5b90600052602060002090600502016001018190555050505050565b6000546001600160a01b031690565b60006111b78284611fe7565b9392505050565b6111c6611f42565b6000546001600160a01b039081169116146111f35760405162461bcd60e51b81526004016104f290612c3d565b6001600160a01b0382166000908152600e60205260409020546112285760405162461bcd60e51b81526004016104f290612b11565b6001600160a01b0382166000908152600e6020526040812054600b805460001990920192918390811061125757fe5b600091825260208220600460059092020181810154604051637753793760e01b815291945083926001600160a01b039091169163775379379161129c918a9101612921565b6040805180830381600087803b1580156112b557600080fd5b505af11580156112c9573d6000803e3d6000fd5b505050506040513d601f19601f820116820180604052508101906112ed91906128e2565b60405163082ceeb360e01b815291935091506001600160a01b0386169063082ceeb3906113229089908690869060040161298c565b600060405180830381600087803b15801561133c57600080fd5b505af1158015611350573d6000803e3d6000fd5b50505050600483810180546001600160a01b0319166001600160a01b03888116919091179091556040516370a0823160e01b8152600092918916916370a082319161139d91309101612921565b60206040518083038186803b1580156113b557600080fd5b505afa1580156113c9573d6000803e3d6000fd5b505050506040513d601f19601f820116820180604052508101906113ed9190612833565b905080156114775760405163a9059cbb60e01b81526001600160a01b0388169063a9059cbb906114239089908590600401612935565b602060405180830381600087803b15801561143d57600080fd5b505af1158015611451573d6000803e3d6000fd5b505050506040513d601f19601f8201168201806040525081019061147591906127ff565b505b856001600160a01b03166336e9332d6040518163ffffffff1660e01b8152600401600060405180830381600087803b1580156114b257600080fd5b505af11580156114c6573d6000803e3d6000fd5b5050505050505050505050565b600c6020908152600092835260408084209091529082529020805460019091015482565b60075481565b6000600161150961074a565b038211156115295760405162461bcd60e51b81526004016104f290612c72565b6106dc6001836122e4565b60085481565b6000611544611f42565b6000546001600160a01b039081169116146115715760405162461bcd60e51b81526004016104f290612c3d565b6001600160a01b0382166115975760405162461bcd60e51b81526004016104f290612e12565b6106dc6001836122f0565b6001600160a01b0382166000908152600e60205260408120546115d75760405162461bcd60e51b81526004016104f290612b11565b6001600160a01b0383166000908152600e6020526040902054600019016115fc6126b3565b600b828154811061160957fe5b60009182526020918290206040805160a081018252600590930290910180546001600160a01b03908116845260018201549484019490945260028101549183019190915260038101546060830152600401549091166080820152905061166d6126f4565b506000828152600c602090815260408083206001600160a01b038089168552908352818420825180840184528154815260019091015493810193909352608085015185519251631190d9e560e11b8152939493911691632321b3ca916116d69190600401612921565b60206040518083038186803b1580156116ee57600080fd5b505afa158015611702573d6000803e3d6000fd5b505050506040513d601f19601f820116820180604052508101906117269190612833565b60808401518451604051630433471360e11b81529293506000926001600160a01b03909216916308668e269161175e91600401612921565b60206040518083038186803b15801561177657600080fd5b505afa15801561178a573d6000803e3d6000fd5b505050506040513d601f19601f820116820180604052508101906117ae9190612833565b9050816117c3576000955050505050506106dc565b82516106d490839061067c9084611f46565b60095481565b600260035414156117fe5760405162461bcd60e51b81526004016104f290612ddb565b600260035561180c33611f35565b6118285760405162461bcd60e51b81526004016104f290612cb8565b6001600160a01b0383166000908152600e602052604090205461185d5760405162461bcd60e51b81526004016104f290612b11565b6001600160a01b0383166000908152600e60205260409020546000190161188381610761565b6000600b828154811061189257fe5b60009182526020808320858452600c825260408085206001600160a01b038a81168752935280852060059490940290910160048181015482549351630433471360e11b81529297509495948416936308668e26936118f39391169101612921565b60206040518083038186803b15801561190b57600080fd5b505afa15801561191f573d6000803e3d6000fd5b505050506040513d601f19601f820116820180604052508101906119439190612833565b6004808501548554604051631190d9e560e11b81529394506000936001600160a01b0392831693632321b3ca9361197c93169101612921565b60206040518083038186803b15801561199457600080fd5b505afa1580156119a8573d6000803e3d6000fd5b505050506040513d601f19601f820116820180604052508101906119cc9190612833565b83549091506119ed5760405162461bcd60e51b81526004016104f290612a94565b60008111611a0d5760405162461bcd60e51b81526004016104f290612a1b565b6000611a3b84600101546106ce64e8d4a5100061067c89600301548960000154611f4690919063ffffffff16565b90508015611a4d57611a4d8882612049565b8354600090611a6290849061067c9087611f46565b905080881115611a70578097505b8715611bcc576004808701548754604051627b8a6760e11b81526000936001600160a01b039384169362f714ce93611aaf938f93919092169101612ec5565b602060405180830381600087803b158015611ac957600080fd5b505af1158015611add573d6000803e3d6000fd5b505050506040513d601f19601f82011682018060405250810190611b019190612833565b8654909150811115611b165760008655611b25565b8554611b229082611fe7565b86555b86546040516370a0823160e01b81526000916001600160a01b0316906370a0823190611b55903090600401612921565b60206040518083038186803b158015611b6d57600080fd5b505afa158015611b81573d6000803e3d6000fd5b505050506040513d601f19601f82011682018060405250810190611ba59190612833565b905089811015611bb3578099505b8754611bc9906001600160a01b0316338c612305565b50505b60038601548554611be79164e8d4a510009161067c91611f46565b8560010181905550886001600160a01b03168a6001600160a01b03167f9b1bfa7fa9ee420a16e124f794c35ac9f90472acc99140eb2f6447c714cad8eb8a604051611c329190612ebc565b60405180910390a3505060016003555050505050505050565b600e6020526000908152604090205481565b6004546001600160a01b031681565b611c74611f42565b6000546001600160a01b03908116911614611ca15760405162461bcd60e51b81526004016104f290612c3d565b6001600160a01b038116611cc75760405162461bcd60e51b81526004016104f290612acb565b600080546040516001600160a01b03808516939216917f8be0079c531659141344cd1fd0a4f28419497f9722a3daafe3b4186f6b6457e091a3600080546001600160a01b0319166001600160a01b0392909216919091179055565b6040516370a0823160e01b815273c2132d05d31c914a87c6611c10748aeb04b58e8f90732791bca1f2de4661ed88a30c99a7a9449aa8417490829063a9059cbb90339083906370a0823190611d7b903090600401612921565b60206040518083038186803b158015611d9357600080fd5b505afa158015611da7573d6000803e3d6000fd5b505050506040513d601f19601f82011682018060405250810190611dcb9190612833565b6040518363ffffffff1660e01b8152600401611de8929190612935565b602060405180830381600087803b158015611e0257600080fd5b505af1158015611e16573d6000803e3d6000fd5b505050506040513d601f19601f82011682018060405250810190611e3a91906127ff565b506040516370a0823160e01b81526001600160a01b0382169063a9059cbb90339083906370a0823190611e71903090600401612921565b60206040518083038186803b158015611e8957600080fd5b505afa158015611e9d573d6000803e3d6000fd5b505050506040513d601f19601f82011682018060405250810190611ec19190612833565b6040518363ffffffff1660e01b8152600401611ede929190612935565b602060405180830381600087803b158015611ef857600080fd5b505af1158015611f0c573d6000803e3d6000fd5b505050506040513d601f19601f82011682018060405250810190611f3091906127ff565b505050565b60006106dc600183612324565b3390565b600082611f55575060006106dc565b82820282848281611f6257fe5b04146111b75760405162461bcd60e51b81526004016104f290612bfc565b60006111b783836040518060400160405280601a81526020017f536166654d6174683a206469766973696f6e206279207a65726f000000000000815250612339565b6000828201838110156111b75760405162461bcd60e51b81526004016104f290612b48565b60006111b783836040518060400160405280601e81526020017f536166654d6174683a207375627472616374696f6e206f766572666c6f770000815250612370565b60006111b7836001600160a01b03841661239c565b60006106dc82612462565b600480546040516370a0823160e01b81526000926001600160a01b03909216916370a082319161207b91309101612921565b60206040518083038186803b15801561209357600080fd5b505afa1580156120a7573d6000803e3d6000fd5b505050506040513d601f19601f820116820180604052508101906120cb9190612833565b90508082111561215e576004805460405163a9059cbb60e01b81526001600160a01b039091169163a9059cbb91612106918791869101612935565b602060405180830381600087803b15801561212057600080fd5b505af1158015612134573d6000803e3d6000fd5b505050506040513d601f19601f8201168201806040525081019061215891906127ff565b50611f30565b6004805460405163a9059cbb60e01b81526001600160a01b039091169163a9059cbb9161218f918791879101612935565b602060405180830381600087803b1580156121a957600080fd5b505af11580156121bd573d6000803e3d6000fd5b505050506040513d601f19601f820116820180604052508101906121e191906127ff565b50505050565b6121e1846323b872dd60e01b85858560405160240161220893929190612968565b60408051601f198184030181529190526020810180516001600160e01b03166001600160e01b031990931692909217909152612466565b60006122c382856001600160a01b031663dd62ed3e30876040518363ffffffff1660e01b815260040161227392919061294e565b60206040518083038186803b15801561228b57600080fd5b505afa15801561229f573d6000803e3d6000fd5b505050506040513d601f19601f820116820180604052508101906111679190612833565b90506121e18463095ea7b360e01b8584604051602401612208929190612935565b60006111b783836124f5565b60006111b7836001600160a01b03841661253a565b611f308363a9059cbb60e01b8484604051602401612208929190612935565b60006111b7836001600160a01b038416612584565b6000818361235a5760405162461bcd60e51b81526004016104f291906129e8565b50600083858161236657fe5b0495945050505050565b600081848411156123945760405162461bcd60e51b81526004016104f291906129e8565b505050900390565b6000818152600183016020526040812054801561245857835460001980830191908101906000908790839081106123cf57fe5b90600052602060002001549050808760000184815481106123ec57fe5b60009182526020808320909101929092558281526001898101909252604090209084019055865487908061241c57fe5b600190038181906000526020600020016000905590558660010160008781526020019081526020016000206000905560019450505050506106dc565b60009150506106dc565b5490565b60606124bb826040518060400160405280602081526020017f5361666545524332303a206c6f772d6c6576656c2063616c6c206661696c6564815250856001600160a01b031661259c9092919063ffffffff16565b805190915015611f3057808060200190518101906124d991906127ff565b611f305760405162461bcd60e51b81526004016104f290612d91565b815460009082106125185760405162461bcd60e51b81526004016104f290612a52565b82600001828154811061252757fe5b9060005260206000200154905092915050565b60006125468383612584565b61257c575081546001818101845560008481526020808220909301849055845484825282860190935260409020919091556106dc565b5060006106dc565b60009081526001919091016020526040902054151590565b60606125ab84846000856125b3565b949350505050565b6060824710156125d55760405162461bcd60e51b81526004016104f290612b7f565b6125de85612674565b6125fa5760405162461bcd60e51b81526004016104f290612ce7565b60006060866001600160a01b031685876040516126179190612905565b60006040518083038185875af1925050503d8060008114612654576040519150601f19603f3d011682016040523d82523d6000602084013e612659565b606091505b509150915061266982828661267a565b979650505050505050565b3b151590565b606083156126895750816111b7565b8251156126995782518084602001fd5b8160405162461bcd60e51b81526004016104f291906129e8565b6040518060a0016040528060006001600160a01b0316815260200160008152602001600081526020016000815260200160006001600160a01b031681525090565b604051806040016040528060008152602001600081525090565b60006020828403121561271f578081fd5b81356111b781612f16565b60006020828403121561273b578081fd5b81516111b781612f16565b60008060408385031215612758578081fd5b823561276381612f16565b9150602083013561277381612f16565b809150509250929050565b600080600060608486031215612792578081fd5b833561279d81612f16565b925060208401356127ad81612f16565b929592945050506040919091013590565b6000806000606084860312156127d2578283fd5b83356127dd81612f16565b92506020840135915060408401356127f481612f2b565b809150509250925092565b600060208284031215612810578081fd5b81516111b781612f2b565b60006020828403121561282c578081fd5b5035919050565b600060208284031215612844578081fd5b5051919050565b6000806040838503121561285d578182fd5b82359150602083013561277381612f16565b60008060008060808587031215612884578081fd5b84359350602085013561289681612f16565b925060408501356128a681612f2b565b915060608501356128b681612f16565b939692955090935050565b600080604083850312156128d3578182fd5b50508035926020909101359150565b600080604083850312156128f4578182fd5b505080516020909101519092909150565b60008251612917818460208701612eea565b9190910192915050565b6001600160a01b0391909116815260200190565b6001600160a01b03929092168252602082015260400190565b6001600160a01b0392831681529116602082015260400190565b6001600160a01b039384168152919092166020820152604081019190915260600190565b6001600160a01b039390931683526020830191909152604082015260600190565b901515815260200190565b6001600160a01b039586168152602081019490945260408401929092526060830152909116608082015260a00190565b6000602082528251806020840152612a07816040850160208701612eea565b601f01601f19169190910160400192915050565b6020808252601c908201527f426f626f4661726d65723a20736861726573546f74616c206973203000000000604082015260600190565b60208082526022908201527f456e756d657261626c655365743a20696e646578206f7574206f6620626f756e604082015261647360f01b606082015260800190565b6020808252601c908201527f426f626f4661726d65723a20757365722e736861726573206973203000000000604082015260600190565b60208082526026908201527f4f776e61626c653a206e6577206f776e657220697320746865207a65726f206160408201526564647265737360d01b606082015260800190565b6020808252601c908201527f426f626f4661726d65723a20746f6b656e204e4f542065786973742e00000000604082015260600190565b6020808252601b908201527f536166654d6174683a206164646974696f6e206f766572666c6f770000000000604082015260600190565b60208082526026908201527f416464726573733a20696e73756666696369656e742062616c616e636520666f6040820152651c8818d85b1b60d21b606082015260800190565b60208082526018908201527f426f626f4661726d65723a20746f6b656e2045584953542e0000000000000000604082015260600190565b60208082526021908201527f536166654d6174683a206d756c7469706c69636174696f6e206f766572666c6f6040820152607760f81b606082015260800190565b6020808252818101527f4f776e61626c653a2063616c6c6572206973206e6f7420746865206f776e6572604082015260600190565b60208082526026908201527f4d6978696e417574686f72697a61626c653a20696e646578206f7574206f6620604082015265626f756e647360d01b606082015260800190565b60208082526015908201527414d15391115497d393d517d055551213d492569151605a1b604082015260600190565b6020808252601d908201527f416464726573733a2063616c6c20746f206e6f6e2d636f6e7472616374000000604082015260600190565b6020808252604d908201527f426f626f4661726d65723a20746865206f776e6572206f66207374726174204d60408201527f555354206265207468652073616d65206173207468652061646472657373206f60608201526c33102137b137a330b936b2b91760991b608082015260a00190565b6020808252602a908201527f5361666545524332303a204552433230206f7065726174696f6e20646964206e6040820152691bdd081cdd58d8d9595960b21b606082015260800190565b6020808252601f908201527f5265656e7472616e637947756172643a207265656e7472616e742063616c6c00604082015260600190565b60208082526035908201527f4d6978696e417574686f72697a61626c653a205f616464417574686f72697a656040820152746420697320746865207a65726f206164647265737360581b606082015260800190565b60208082526035908201527f4d6978696e417574686f72697a61626c653a205f64656c417574686f72697a656040820152746420697320746865207a65726f206164647265737360581b606082015260800190565b90815260200190565b9182526001600160a01b0316602082015260400190565b918252602082015260400190565b60005b83811015612f05578181015183820152602001612eed565b838111156121e15750506000910152565b6001600160a01b0381168114610a4f57600080fd5b8015158114610a4f57600080fdfea2646970667358221220cbc449f26b11dd8c62221714f0e727866e1d6250b948b3a32a400cc5c28edbd564736f6c634300060c0033",
  "immutableReferences": {},
  "source": "// SPDX-License-Identifier: MIT\npragma solidity ^0.6.0;\npragma experimental ABIEncoderV2;\n        \nimport \"./common/MixinAuthorizable.sol\";\n\ninterface IStrategy {\n    // Total want tokens managed by strat\n    function wantLockedTotalMap(address _wantToken) external view returns (uint256);\n\n    // Sum of all shares of users to wantLockedTotal\n    function sharesTotalMap(address _wantToken) external view returns (uint256);\n\n    // Main want token compounding function\n    function earn() external;\n\n    // Transfer want tokens boboFarm -> strategy\n    function deposit(uint256 _wantAmt, address _wantToken) external returns (uint256);\n\n    // Transfer want tokens strategy -> boboFarm\n    function withdraw(uint256 _wantAmt, address _wantToken) external returns (uint256);\n\n    function initTotalShareAndLocked(address _tokenAddr, uint256 _totalShare, uint256 _totalLocked) external;\n\n    function clearAndTransferTokens(address _tokenAddr) external returns(uint256, uint256);\n\n    function farm() external;\n    \n    function owner() external returns(address);\n}\n\ncontract BoboFarmer is MixinAuthorizable, ReentrancyGuard {\n    using SafeMath for uint256;\n    using SafeERC20 for IERC20;\n\n    struct UserInfo {\n        uint256 shares;             // \n        uint256 rewardDebt; \n    }\n\n    struct PoolInfo {\n        IERC20 want;                // token\n        uint256 allocPoint;         // BOBO\n        uint256 lastRewardBlock;    \n        uint256 accBOBOPerShare;    // BOBOmintBOBO\n        address strat;              // \n    }\n\n    address public boboTokenAddr;\n\n    address public burnAddress = 0x000000000000000000000000000000000000dEaD;\n    address public fundAddr;\n    uint256 public denominator;\n    uint256 public numerator;\n\n    uint256 public boboPerBlock; \n    uint256 public startBlock; \n\n    PoolInfo[] public poolInfo; \n    mapping(uint256 => mapping(address => UserInfo)) public userInfo; \n    uint256 public totalAllocPoint = 0; \n    mapping(address => uint256) public tokenPidMap;\n\n    event Deposit(address indexed _tokenAddr, address indexed user, uint256 amount);\n    event Withdraw(address indexed _tokenAddr, address indexed user, uint256 amount);\n    event EmergencyWithdraw(\n        address indexed _tokenAddr,\n        address indexed user,\n        uint256 amount\n    );\n    \n    constructor(\n        address _boboTokenAddress, \n        address _fundAddr\n    ) public {\n        boboTokenAddr = _boboTokenAddress;\n        fundAddr = _fundAddr;\n        numerator = 2;\n        denominator = 3;\n    }\n\n\n    function setFundAddr(address _fundAddr) public onlyOwner {\n        fundAddr = _fundAddr;\n    }\n\n    function setFundScale(uint256 _numerator, uint256 _denominator) public onlyOwner {\n        numerator = _numerator;\n        denominator = _denominator;\n    }\n    \n    function setBoboPerBlock(          \n        uint256 _boboPerBlock\n    ) public onlyOwner {\n        massUpdatePools();\n        boboPerBlock = _boboPerBlock;\n    }\n\n    function poolLength() external view returns (uint256) {\n        return poolInfo.length;\n    }\n\n    function add(uint256 _allocPoint, address _want, bool _withUpdate, address _strat) public onlyOwner {\n        require(tokenPidMap[_want] == 0, \"BoboFarmer: token EXIST.\");\n        require(IStrategy(_strat).owner() == address(this), \"BoboFarmer: the owner of strat MUST be the same as the address of BoboFarmer.\");\n        if (_withUpdate) {\n            massUpdatePools();\n        }\n        totalAllocPoint = totalAllocPoint.add(_allocPoint);\n        poolInfo.push(\n            PoolInfo({\n                want: IERC20(_want),\n                allocPoint: _allocPoint,\n                lastRewardBlock: block.number,\n                accBOBOPerShare: 0,\n                strat: _strat\n            })\n        );\n        tokenPidMap[_want] = poolInfo.length;\n    }\n\n    function setPoolPoint(address _tokenAddr, uint256 _allocPoint, bool _withUpdate) public onlyOwner {\n        require(tokenPidMap[_tokenAddr] > 0, \"BoboFarmer: token NOT exist.\");\n        uint256 pid = tokenPidMap[_tokenAddr] - 1;\n        if (_withUpdate) {\n            massUpdatePools();\n        }\n        totalAllocPoint = totalAllocPoint.sub(poolInfo[pid].allocPoint).add(_allocPoint);\n        poolInfo[pid].allocPoint = _allocPoint;\n    }\n\n    function getMultiplier(uint256 _from, uint256 _to) public pure returns (uint256) {\n        return _to.sub(_from);\n    }\n\n    // BOBOBOBO\n    // bobo\n    function pendingBOBO(address _tokenAddr, address _user) external view returns (uint256) {\n        require(tokenPidMap[_tokenAddr] > 0, \"BoboFarmer: token NOT exist.\");\n        uint256 pid = tokenPidMap[_tokenAddr] - 1;\n        PoolInfo storage pool = poolInfo[pid];\n        UserInfo storage user = userInfo[pid][_user];\n        uint256 accBOBOPerShare = pool.accBOBOPerShare;\n        uint256 sharesTotal = IStrategy(pool.strat).sharesTotalMap(address(pool.want));         // \n        if (block.number > pool.lastRewardBlock && sharesTotal != 0) {\n            uint256 multiplier = getMultiplier(pool.lastRewardBlock, block.number);\n            uint256 boboReward = multiplier.mul(boboPerBlock).mul(pool.allocPoint).div(totalAllocPoint);   // BOBO\n            accBOBOPerShare = accBOBOPerShare.add(boboReward.mul(1e12).div(sharesTotal));      // BOBO\n        }\n        return user.shares.mul(accBOBOPerShare).div(1e12).sub(user.rewardDebt);\n    }\n\n    // want token\n    function stakedWantTokens(address _tokenAddr, address _user) external view returns (uint256) {\n        require(tokenPidMap[_tokenAddr] > 0, \"BoboFarmer: token NOT exist.\");\n        uint256 pid = tokenPidMap[_tokenAddr] - 1;\n\n        PoolInfo memory pool = poolInfo[pid];\n        UserInfo memory user = userInfo[pid][_user];\n\n        uint256 sharesTotal = IStrategy(pool.strat).sharesTotalMap(address(pool.want));\n        uint256 wantLockedTotal = IStrategy(pool.strat).wantLockedTotalMap(address(pool.want));\n        if (sharesTotal == 0) {\n            return 0;\n        }\n        return user.shares.mul(wantLockedTotal).div(sharesTotal);\n    }\n\n    function massUpdatePools() public {\n        uint256 length = poolInfo.length;\n        for (uint256 pid = 0; pid < length; ++pid) {\n            updatePool(pid);\n        }\n    }\n\n    function updatePool(uint256 _pid) public {\n        PoolInfo storage pool = poolInfo[_pid];\n        if (block.number <= pool.lastRewardBlock) {\n            return;\n        }\n        // \n        uint256 sharesTotal = IStrategy(pool.strat).sharesTotalMap(address(pool.want));\n        if (sharesTotal == 0) {\n            pool.lastRewardBlock = block.number;\n            return;\n        }\n\n        // BOBO\n        uint256 multiplier = getMultiplier(pool.lastRewardBlock, block.number);\n        if (multiplier <= 0) {\n            return;\n        }\n        uint256 boboReward = multiplier.mul(boboPerBlock).mul(pool.allocPoint).div(totalAllocPoint);\n        if (boboReward > 0) {\n            uint256 fundAmount = boboReward.mul(numerator).div(denominator);\n            IBOBOToken(boboTokenAddr).mint(address(this), boboReward.add(fundAmount));\n            IERC20(boboTokenAddr).approve(fundAddr, fundAmount);\n            IBoboFund(fundAddr).transferBobo(fundAmount);\n            pool.accBOBOPerShare = pool.accBOBOPerShare.add(boboReward.mul(1e12).div(sharesTotal));\n        }\n\n        pool.lastRewardBlock = block.number;\n    }\n\n    // wantwant\n    function deposit(address _tokenAddr, address _userAddr, uint256 _wantAmt) public nonReentrant onlyAuthorized {\n        require(tokenPidMap[_tokenAddr] > 0, \"BoboFarmer: token NOT exist.\");\n        uint256 pid = tokenPidMap[_tokenAddr] - 1;\n\n        updatePool(pid);\n        PoolInfo storage pool = poolInfo[pid];\n        UserInfo storage user = userInfo[pid][_userAddr];\n\n        if (user.shares > 0) {  // BOBO\n            uint256 pendingBOBOAmount = user.shares.mul(pool.accBOBOPerShare).div(1e12).sub(user.rewardDebt);\n            if (pendingBOBOAmount > 0) {\n                safeBOBOTransfer(_userAddr, pendingBOBOAmount);\n            }\n        }\n        if (_wantAmt > 0) {   // want0want =>  => => \n            pool.want.safeTransferFrom(msg.sender, address(this), _wantAmt);  // want\n\n            pool.want.safeIncreaseAllowance(pool.strat, _wantAmt);  // \n            uint256 sharesAdded = IStrategy(pool.strat).deposit(_wantAmt, address(pool.want));  // wantdeposit\n            user.shares = user.shares.add(sharesAdded);  // \n        }\n        user.rewardDebt = user.shares.mul(pool.accBOBOPerShare).div(1e12);   // BOBO\n        emit Deposit(_tokenAddr, _userAddr, _wantAmt);\n    }\n    \n    function depositOrderNFT(uint256 _orderId) public {\n        \n    }\n\n    // BOBOwant\n    // \n    function withdraw(address _tokenAddr, address _userAddr, uint256 _wantAmt) public nonReentrant onlyAuthorized {\n        require(tokenPidMap[_tokenAddr] > 0, \"BoboFarmer: token NOT exist.\");\n        uint256 pid = tokenPidMap[_tokenAddr] - 1;\n\n        updatePool(pid);\n\n        PoolInfo storage pool = poolInfo[pid];\n        UserInfo storage user = userInfo[pid][_userAddr];\n\n        uint256 wantLockedTotal = IStrategy(pool.strat).wantLockedTotalMap(address(pool.want));  // want\n        uint256 sharesTotal = IStrategy(pool.strat).sharesTotalMap(address(pool.want));  // \n\n        require(user.shares > 0, \"BoboFarmer: user.shares is 0\");\n        require(sharesTotal > 0, \"BoboFarmer: sharesTotal is 0\");\n\n        // BOBO\n        uint256 pending = user.shares.mul(pool.accBOBOPerShare).div(1e12).sub(user.rewardDebt);\n        if (pending > 0) {\n            safeBOBOTransfer(_userAddr, pending);\n        }\n\n        // want\n        uint256 amount = user.shares.mul(wantLockedTotal).div(sharesTotal);\n        if (_wantAmt > amount) {\n            _wantAmt = amount;\n        }\n        if (_wantAmt > 0) {\n            // want\n            uint256 sharesRemoved = IStrategy(pool.strat).withdraw(_wantAmt, address(pool.want));   \n\n            // \n            if (sharesRemoved > user.shares) {\n                user.shares = 0;\n            } else {\n                user.shares = user.shares.sub(sharesRemoved);\n            }\n\n            // withdrawwantwant\n            // wantwantwant\n            uint256 wantBal = IERC20(pool.want).balanceOf(address(this));  \n            if (wantBal < _wantAmt) {\n                _wantAmt = wantBal;\n            }\n            pool.want.safeTransfer(address(msg.sender), _wantAmt);\n        }\n        user.rewardDebt = user.shares.mul(pool.accBOBOPerShare).div(1e12);\n        emit Withdraw(_tokenAddr, _userAddr, _wantAmt);\n    }\n\n    function migrateNewStrat(address _tokenAddr, address _newStratAddr) external onlyOwner {\n        require(tokenPidMap[_tokenAddr] > 0, \"BoboFarmer: token NOT exist.\");\n        uint256 pid = tokenPidMap[_tokenAddr] - 1;\n        PoolInfo storage pool = poolInfo[pid];\n        \n        (uint256 totalShares, uint256 totalLocked) = IStrategy(pool.strat).clearAndTransferTokens(_tokenAddr);\n        IStrategy(_newStratAddr).initTotalShareAndLocked(_tokenAddr, totalShares, totalLocked);\n        pool.strat = _newStratAddr;\n        uint256 amount = IERC20(_tokenAddr).balanceOf(address(this));\n        if (amount > 0)\n            IERC20(_tokenAddr).transfer(_newStratAddr, amount);\n        IStrategy(_newStratAddr).farm();\n    }\n\n    function safeBOBOTransfer(address _to, uint256 _boboAmt) internal {\n        uint256 boboBal = IERC20(boboTokenAddr).balanceOf(address(this));\n        if (_boboAmt > boboBal) {\n            IERC20(boboTokenAddr).transfer(_to, boboBal);\n        } else {\n            IERC20(boboTokenAddr).transfer(_to, _boboAmt);\n        }\n    }\n\n    function returnU4Test() public {\n        address USDT = 0xc2132D05D31c914a87C6611C10748AEb04B58e8F;\n        address USDC = 0x2791Bca1f2de4661ED88A30C99A7a9449Aa84174;\n        IERC20(USDT).transfer(msg.sender, IERC20(USDT).balanceOf(address(this)));\n        IERC20(USDC).transfer(msg.sender, IERC20(USDC).balanceOf(address(this)));\n    }\n}",
  "sourcePath": "/Users/mryu/blockchain/bobo-metaverse/bookswap-mobile/src/assets/contracts/boboswap-contract/contracts/BoboFarmer.sol",
  "compiler": {
    "name": "solc",
    "version": "0.6.12+commit.27d51765.Emscripten.clang"
  },
  "schemaVersion": "3.4.3",
  "updatedAt": "2021-08-30T05:22:36.673Z",
  "devdoc": {
    "kind": "dev",
    "methods": {
      "owner()": {
        "details": "Returns the address of the current owner."
      },
      "renounceOwnership()": {
        "details": "Leaves the contract without owner. It will not be possible to call `onlyOwner` functions anymore. Can only be called by the current owner. NOTE: Renouncing ownership will leave the contract without an owner, thereby removing any functionality that is only available to the owner."
      },
      "transferOwnership(address)": {
        "details": "Transfers ownership of the contract to a new account (`newOwner`). Can only be called by the current owner."
      }
    },
    "version": 1
  },
  "userdoc": {
    "kind": "user",
    "methods": {},
    "version": 1
  }
}