{
  "contractName": "BoboPairTest",
  "abi": [
    {
      "inputs": [],
      "stateMutability": "nonpayable",
      "type": "constructor"
    },
    {
      "anonymous": false,
      "inputs": [
        {
          "indexed": true,
          "internalType": "address",
          "name": "previousOwner",
          "type": "address"
        },
        {
          "indexed": true,
          "internalType": "address",
          "name": "newOwner",
          "type": "address"
        }
      ],
      "name": "OwnershipTransferred",
      "type": "event"
    },
    {
      "anonymous": false,
      "inputs": [
        {
          "indexed": true,
          "internalType": "address",
          "name": "owner",
          "type": "address"
        },
        {
          "indexed": true,
          "internalType": "address",
          "name": "spender",
          "type": "address"
        },
        {
          "indexed": false,
          "internalType": "uint256",
          "name": "value",
          "type": "uint256"
        }
      ],
      "name": "SwapSuccess",
      "type": "event"
    },
    {
      "inputs": [],
      "name": "BasePercent",
      "outputs": [
        {
          "internalType": "uint256",
          "name": "",
          "type": "uint256"
        }
      ],
      "stateMutability": "view",
      "type": "function"
    },
    {
      "inputs": [],
      "name": "BasePriceAmount",
      "outputs": [
        {
          "internalType": "uint256",
          "name": "",
          "type": "uint256"
        }
      ],
      "stateMutability": "view",
      "type": "function"
    },
    {
      "inputs": [],
      "name": "OneDaySeconds",
      "outputs": [
        {
          "internalType": "uint256",
          "name": "",
          "type": "uint256"
        }
      ],
      "stateMutability": "view",
      "type": "function"
    },
    {
      "inputs": [],
      "name": "OrderDetailNFTAddr",
      "outputs": [
        {
          "internalType": "address",
          "name": "",
          "type": "address"
        }
      ],
      "stateMutability": "view",
      "type": "function"
    },
    {
      "inputs": [],
      "name": "OrderNFTAddr",
      "outputs": [
        {
          "internalType": "address",
          "name": "",
          "type": "address"
        }
      ],
      "stateMutability": "view",
      "type": "function"
    },
    {
      "inputs": [
        {
          "internalType": "address",
          "name": "",
          "type": "address"
        }
      ],
      "name": "_auth",
      "outputs": [
        {
          "internalType": "bool",
          "name": "",
          "type": "bool"
        }
      ],
      "stateMutability": "view",
      "type": "function"
    },
    {
      "inputs": [],
      "name": "baseToken",
      "outputs": [
        {
          "internalType": "address",
          "name": "",
          "type": "address"
        }
      ],
      "stateMutability": "view",
      "type": "function"
    },
    {
      "inputs": [],
      "name": "baseTokenDecimals",
      "outputs": [
        {
          "internalType": "uint256",
          "name": "",
          "type": "uint256"
        }
      ],
      "stateMutability": "view",
      "type": "function"
    },
    {
      "inputs": [],
      "name": "boboFarmer",
      "outputs": [
        {
          "internalType": "contract IBoboFarmer",
          "name": "",
          "type": "address"
        }
      ],
      "stateMutability": "view",
      "type": "function"
    },
    {
      "inputs": [],
      "name": "boboRouter",
      "outputs": [
        {
          "internalType": "contract IBoboRouter",
          "name": "",
          "type": "address"
        }
      ],
      "stateMutability": "view",
      "type": "function"
    },
    {
      "inputs": [],
      "name": "exManager",
      "outputs": [
        {
          "internalType": "contract IExchangeManager",
          "name": "",
          "type": "address"
        }
      ],
      "stateMutability": "view",
      "type": "function"
    },
    {
      "inputs": [],
      "name": "factory",
      "outputs": [
        {
          "internalType": "address",
          "name": "",
          "type": "address"
        }
      ],
      "stateMutability": "view",
      "type": "function"
    },
    {
      "inputs": [
        {
          "internalType": "uint256",
          "name": "_orderId",
          "type": "uint256"
        }
      ],
      "name": "getOrderDetailNumber",
      "outputs": [
        {
          "internalType": "uint256",
          "name": "",
          "type": "uint256"
        }
      ],
      "stateMutability": "view",
      "type": "function"
    },
    {
      "inputs": [
        {
          "internalType": "bool",
          "name": "_bBuy",
          "type": "bool"
        },
        {
          "internalType": "uint256",
          "name": "_fromIndex",
          "type": "uint256"
        },
        {
          "internalType": "uint256",
          "name": "_toIndex",
          "type": "uint256"
        }
      ],
      "name": "getOrderInfos",
      "outputs": [
        {
          "components": [
            {
              "internalType": "uint256",
              "name": "id",
              "type": "uint256"
            },
            {
              "internalType": "address",
              "name": "owner",
              "type": "address"
            },
            {
              "internalType": "address",
              "name": "pairAddr",
              "type": "address"
            },
            {
              "internalType": "bool",
              "name": "bBuyQuoteToken",
              "type": "bool"
            },
            {
              "internalType": "uint256",
              "name": "spotPrice",
              "type": "uint256"
            },
            {
              "internalType": "uint256",
              "name": "inAmount",
              "type": "uint256"
            },
            {
              "internalType": "uint256",
              "name": "minOutAmount",
              "type": "uint256"
            },
            {
              "internalType": "uint256",
              "name": "outAmount",
              "type": "uint256"
            },
            {
              "internalType": "enum OrderStatus",
              "name": "status",
              "type": "uint8"
            },
            {
              "internalType": "string",
              "name": "comment",
              "type": "string"
            },
            {
              "internalType": "uint256",
              "name": "delegateTime",
              "type": "uint256"
            },
            {
              "internalType": "uint256",
              "name": "dealedTime",
              "type": "uint256"
            }
          ],
          "internalType": "struct NFTInfo[]",
          "name": "orderInfos",
          "type": "tuple[]"
        }
      ],
      "stateMutability": "view",
      "type": "function"
    },
    {
      "inputs": [
        {
          "internalType": "uint256",
          "name": "_fromTime",
          "type": "uint256"
        },
        {
          "internalType": "uint256",
          "name": "_endTime",
          "type": "uint256"
        }
      ],
      "name": "getTotalDealedAmount",
      "outputs": [
        {
          "internalType": "uint256",
          "name": "fromIndex",
          "type": "uint256"
        },
        {
          "internalType": "uint256",
          "name": "totalAmount",
          "type": "uint256"
        }
      ],
      "stateMutability": "view",
      "type": "function"
    },
    {
      "inputs": [
        {
          "internalType": "bool",
          "name": "_bBuy",
          "type": "bool"
        }
      ],
      "name": "getTotalOrderNumber",
      "outputs": [
        {
          "internalType": "uint256",
          "name": "",
          "type": "uint256"
        }
      ],
      "stateMutability": "view",
      "type": "function"
    },
    {
      "inputs": [
        {
          "internalType": "address",
          "name": "_userAddr",
          "type": "address"
        },
        {
          "internalType": "uint256",
          "name": "_index",
          "type": "uint256"
        }
      ],
      "name": "getUserHangingOrderId",
      "outputs": [
        {
          "internalType": "uint256",
          "name": "",
          "type": "uint256"
        }
      ],
      "stateMutability": "view",
      "type": "function"
    },
    {
      "inputs": [
        {
          "internalType": "address",
          "name": "_userAddr",
          "type": "address"
        }
      ],
      "name": "getUserHangingOrderNumber",
      "outputs": [
        {
          "internalType": "uint256",
          "name": "",
          "type": "uint256"
        }
      ],
      "stateMutability": "view",
      "type": "function"
    },
    {
      "inputs": [
        {
          "internalType": "address",
          "name": "_userAddr",
          "type": "address"
        }
      ],
      "name": "getUserOrderNumber",
      "outputs": [
        {
          "internalType": "uint256",
          "name": "",
          "type": "uint256"
        }
      ],
      "stateMutability": "view",
      "type": "function"
    },
    {
      "inputs": [
        {
          "internalType": "uint256",
          "name": "_nftId",
          "type": "uint256"
        }
      ],
      "name": "getValue",
      "outputs": [
        {
          "internalType": "uint256",
          "name": "",
          "type": "uint256"
        }
      ],
      "stateMutability": "view",
      "type": "function"
    },
    {
      "inputs": [],
      "name": "lastRecordTime",
      "outputs": [
        {
          "internalType": "uint256",
          "name": "",
          "type": "uint256"
        }
      ],
      "stateMutability": "view",
      "type": "function"
    },
    {
      "inputs": [
        {
          "internalType": "address",
          "name": "",
          "type": "address"
        },
        {
          "internalType": "address",
          "name": "",
          "type": "address"
        },
        {
          "internalType": "uint256",
          "name": "",
          "type": "uint256"
        },
        {
          "internalType": "bytes",
          "name": "",
          "type": "bytes"
        }
      ],
      "name": "onERC721Received",
      "outputs": [
        {
          "internalType": "bytes4",
          "name": "",
          "type": "bytes4"
        }
      ],
      "stateMutability": "nonpayable",
      "type": "function"
    },
    {
      "inputs": [],
      "name": "orderDetailNFT",
      "outputs": [
        {
          "internalType": "contract IOrderDetailNFT",
          "name": "",
          "type": "address"
        }
      ],
      "stateMutability": "view",
      "type": "function"
    },
    {
      "inputs": [],
      "name": "orderNFT",
      "outputs": [
        {
          "internalType": "contract IOrderNFT",
          "name": "",
          "type": "address"
        }
      ],
      "stateMutability": "view",
      "type": "function"
    },
    {
      "inputs": [],
      "name": "owner",
      "outputs": [
        {
          "internalType": "address",
          "name": "",
          "type": "address"
        }
      ],
      "stateMutability": "view",
      "type": "function"
    },
    {
      "inputs": [],
      "name": "quoteToken",
      "outputs": [
        {
          "internalType": "address",
          "name": "",
          "type": "address"
        }
      ],
      "stateMutability": "view",
      "type": "function"
    },
    {
      "inputs": [],
      "name": "quoteTokenDecimals",
      "outputs": [
        {
          "internalType": "uint256",
          "name": "",
          "type": "uint256"
        }
      ],
      "stateMutability": "view",
      "type": "function"
    },
    {
      "inputs": [],
      "name": "renounceOwnership",
      "outputs": [],
      "stateMutability": "nonpayable",
      "type": "function"
    },
    {
      "inputs": [
        {
          "internalType": "enum OrderStatus",
          "name": "",
          "type": "uint8"
        },
        {
          "internalType": "uint256",
          "name": "",
          "type": "uint256"
        }
      ],
      "name": "sealedOrdersMap",
      "outputs": [
        {
          "internalType": "uint256",
          "name": "",
          "type": "uint256"
        }
      ],
      "stateMutability": "view",
      "type": "function"
    },
    {
      "inputs": [],
      "name": "startTime",
      "outputs": [
        {
          "internalType": "uint256",
          "name": "",
          "type": "uint256"
        }
      ],
      "stateMutability": "view",
      "type": "function"
    },
    {
      "inputs": [],
      "name": "totalVolumn",
      "outputs": [
        {
          "internalType": "uint256",
          "name": "",
          "type": "uint256"
        }
      ],
      "stateMutability": "view",
      "type": "function"
    },
    {
      "inputs": [
        {
          "internalType": "address",
          "name": "newOwner",
          "type": "address"
        }
      ],
      "name": "transferOwnership",
      "outputs": [],
      "stateMutability": "nonpayable",
      "type": "function"
    },
    {
      "inputs": [
        {
          "internalType": "address",
          "name": "",
          "type": "address"
        },
        {
          "internalType": "uint256",
          "name": "",
          "type": "uint256"
        }
      ],
      "name": "userOrdersMap",
      "outputs": [
        {
          "internalType": "uint256",
          "name": "",
          "type": "uint256"
        }
      ],
      "stateMutability": "view",
      "type": "function"
    },
    {
      "inputs": [
        {
          "internalType": "uint256",
          "name": "",
          "type": "uint256"
        }
      ],
      "name": "volumnList",
      "outputs": [
        {
          "internalType": "uint256",
          "name": "",
          "type": "uint256"
        }
      ],
      "stateMutability": "view",
      "type": "function"
    },
    {
      "inputs": [],
      "name": "volumnOf24Hours",
      "outputs": [
        {
          "internalType": "uint256",
          "name": "",
          "type": "uint256"
        }
      ],
      "stateMutability": "view",
      "type": "function"
    },
    {
      "inputs": [
        {
          "internalType": "address",
          "name": "_quoteToken",
          "type": "address"
        },
        {
          "internalType": "address",
          "name": "_baseToken",
          "type": "address"
        },
        {
          "internalType": "address",
          "name": "_authAddr",
          "type": "address"
        },
        {
          "internalType": "address",
          "name": "_boboFarmer",
          "type": "address"
        }
      ],
      "name": "initialize",
      "outputs": [],
      "stateMutability": "nonpayable",
      "type": "function"
    },
    {
      "inputs": [
        {
          "internalType": "address",
          "name": "_authAddr",
          "type": "address"
        }
      ],
      "name": "addAuth",
      "outputs": [],
      "stateMutability": "nonpayable",
      "type": "function"
    },
    {
      "inputs": [
        {
          "internalType": "address",
          "name": "_authAddr",
          "type": "address"
        }
      ],
      "name": "removeAuth",
      "outputs": [],
      "stateMutability": "nonpayable",
      "type": "function"
    },
    {
      "inputs": [
        {
          "internalType": "address",
          "name": "_exManager",
          "type": "address"
        }
      ],
      "name": "setExManager",
      "outputs": [],
      "stateMutability": "nonpayable",
      "type": "function"
    },
    {
      "inputs": [
        {
          "internalType": "address",
          "name": "_router",
          "type": "address"
        }
      ],
      "name": "setRouter",
      "outputs": [],
      "stateMutability": "nonpayable",
      "type": "function"
    },
    {
      "inputs": [],
      "name": "getTokens",
      "outputs": [
        {
          "internalType": "address",
          "name": "",
          "type": "address"
        },
        {
          "internalType": "address",
          "name": "",
          "type": "address"
        }
      ],
      "stateMutability": "view",
      "type": "function"
    },
    {
      "inputs": [
        {
          "internalType": "bool",
          "name": "_bBuyQuoteToken",
          "type": "bool"
        },
        {
          "internalType": "uint256",
          "name": "_spotPrice",
          "type": "uint256"
        },
        {
          "internalType": "uint256",
          "name": "_amountIn",
          "type": "uint256"
        },
        {
          "internalType": "uint256",
          "name": "_slippagePercent",
          "type": "uint256"
        },
        {
          "internalType": "bool",
          "name": "_orderNFT",
          "type": "bool"
        },
        {
          "internalType": "bool",
          "name": "_boboFarmer",
          "type": "bool"
        },
        {
          "internalType": "bool",
          "name": "_exManager",
          "type": "bool"
        },
        {
          "internalType": "bool",
          "name": "_boboRouter",
          "type": "bool"
        }
      ],
      "name": "addLimitedOrder",
      "outputs": [],
      "stateMutability": "nonpayable",
      "type": "function"
    },
    {
      "inputs": [
        {
          "internalType": "bool",
          "name": "_bBuyQuoteToken",
          "type": "bool"
        },
        {
          "internalType": "uint256",
          "name": "_amountIn",
          "type": "uint256"
        },
        {
          "internalType": "uint256",
          "name": "_minOutAmount",
          "type": "uint256"
        }
      ],
      "name": "addMarketOrder",
      "outputs": [],
      "stateMutability": "nonpayable",
      "type": "function"
    },
    {
      "inputs": [],
      "name": "getCurrentPrice",
      "outputs": [
        {
          "internalType": "uint256",
          "name": "",
          "type": "uint256"
        }
      ],
      "stateMutability": "view",
      "type": "function"
    },
    {
      "inputs": [
        {
          "internalType": "address",
          "name": "_userAddr",
          "type": "address"
        }
      ],
      "name": "getTotalHangingTokenAmount",
      "outputs": [
        {
          "internalType": "uint256",
          "name": "baseTokenAmount",
          "type": "uint256"
        },
        {
          "internalType": "uint256",
          "name": "quoteTokenAmount",
          "type": "uint256"
        }
      ],
      "stateMutability": "view",
      "type": "function"
    },
    {
      "inputs": [],
      "name": "executeHeaderOrder",
      "outputs": [
        {
          "internalType": "bool",
          "name": "",
          "type": "bool"
        }
      ],
      "stateMutability": "nonpayable",
      "type": "function"
    },
    {
      "inputs": [],
      "name": "checkOrderList",
      "outputs": [],
      "stateMutability": "nonpayable",
      "type": "function"
    },
    {
      "inputs": [
        {
          "internalType": "uint256",
          "name": "_orderId",
          "type": "uint256"
        }
      ],
      "name": "cancelOrder",
      "outputs": [
        {
          "internalType": "bool",
          "name": "",
          "type": "bool"
        }
      ],
      "stateMutability": "nonpayable",
      "type": "function"
    }
  ],
  "bytecode": "0x60806040523480156200001157600080fd5b507304673384398379a84d05895456ae02fc05b4a5097375508a1de2183a1f2bf1822d6794698c953a1788600062000048620000f4565b600080546001600160a01b0319166001600160a01b0383169081178255604051929350917f8be0079c531659141344cd1fd0a4f28419497f9722a3daafe3b4186f6b6457e0908290a350600180546001600160a01b03199081166001600160a01b039485161782556002805482169390941692909217909255600a8054339216821790556000908152601560205260409020805460ff19169091179055426010819055601155620000f8565b3390565b61444580620001086000396000f3fe608060405234801561001057600080fd5b50600436106102a05760003560e01c80638a20611711610167578063cd5a8778116100ce578063ec35214e11610087578063ec35214e14610539578063f0d3ddea1461054c578063f1f07cc914610554578063f2fde38b1461055c578063f8c8765e1461056f578063fb1157ce14610582576102a0565b8063cd5a8778146104dd578063d4d728da146104f0578063dd4ee565146104f8578063e5538b951461050b578063e99d18c81461051e578063eb91d37e14610531576102a0565b8063acd17aaa11610120578063acd17aaa1461048c578063b1b45e5714610494578063b35ac8b2146104a7578063c0d78655146104ba578063c45a0155146104cd578063c55dae63146104d5576102a0565b80638a206117146104435780638da5cb5b1461044b578063952c70fb1461045357806397d87393146104665780639eedc4921461046e578063aa6ca80814610476576102a0565b8063514fcac71161020b578063715018a6116101c4578063715018a6146103ef5780637865c7e8146103f757806378e97925146104185780637f3fd9181461042057806382aa1c88146104335780638a0f148c1461043b576102a0565b8063514fcac71461038f5780635422224e146103a257806359fc7223146103b75780635cbffe78146103d75780635cc7136f146103df5780636b6f1320146103e7576102a0565b8063217a4b701161025d578063217a4b701461033e57806327624b07146103465780632d6111311461034e578063392da1b0146103615780634b92031d146103695780634bba80501461037c576102a0565b80630ff4c916146102a557806310ca5805146102ce578063150b7a02146102d65780631960e232146102f657806319c2146b1461030b5780631b1148171461032b575b600080fd5b6102b86102b3366004613a5b565b61058a565b6040516102c59190614289565b60405180910390f35b6102b8610632565b6102e96102e4366004613664565b61063a565b6040516102c59190613dbb565b6102fe61064b565b6040516102c59190613bc4565b61031e6103193660046135ed565b61065a565b6040516102c59190613db0565b6102b8610339366004613706565b61066f565b6102fe61069d565b6102b86106ac565b6102b861035c3660046135ed565b6106b2565b6102b86106cd565b6102b8610377366004613706565b6106d3565b6102b861038a366004613a5b565b6106fe565b61031e61039d366004613a5b565b61077f565b6103b56103b03660046135ed565b610790565b005b6103ca6103c5366004613877565b6107f2565b6040516102c59190613cac565b61031e6109e1565b6102fe610a8f565b6102b8610aa7565b6103b5610aae565b61040a610405366004613a8b565b610b2d565b6040516102c59291906142f5565b6102b8610ed4565b6103b561042e3660046135ed565b610eda565b6102b8610f30565b6102fe610f36565b6102b8610f4e565b6102fe610f54565b6102b8610461366004613938565b610f63565b6102fe610f7c565b6102b8610f8b565b61047e610f91565b6040516102c5929190613c15565b6102fe610fa8565b6103b56104a23660046138ab565b610fb7565b6102b86104b536600461383f565b61140f565b6103b56104c83660046135ed565b611429565b6102fe61147a565b6102fe611489565b6102b86104eb3660046135ed565b611498565b6102fe6114b9565b6102b8610506366004613a5b565b6114c8565b6103b5610519366004613877565b6114e6565b6103b561052c3660046135ed565b6117bc565b6102b861180d565b61040a6105473660046135ed565b6118d9565b6103b56119d5565b6102b8611a80565b6103b561056a3660046135ed565b611a86565b6103b561057d366004613609565b611b3c565b6102fe611cdc565b6000816105995750600061062d565b6105a1613384565b60015460405163d311636b60e01b81526001600160a01b039091169063d311636b906105d1908690600401614289565b60006040518083038186803b1580156105e957600080fd5b505afa1580156105fd573d6000803e3d6000fd5b505050506040513d6000823e601f3d908101601f191682016040526106259190810190613955565b608001519150505b919050565b633b9aca0081565b630a85bd0160e11b5b949350505050565b6009546001600160a01b031681565b60156020526000908152604090205460ff1681565b6003602052816000526040600020818154811061068857fe5b90600052602060002001600091509150505481565b600c546001600160a01b031681565b600e5481565b6001600160a01b031660009081526003602052604090205490565b60125481565b6001600160a01b03821660009081526004602052604081206106f59083611ceb565b90505b92915050565b6001546040516304bba80560e41b81526000916001600160a01b031690634bba80509061072f908590600401614289565b60206040518083038186803b15801561074757600080fd5b505afa15801561075b573d6000803e3d6000fd5b505050506040513d601f19601f820116820180604052508101906106f89190613a73565b600061078a82611cf7565b50919050565b610798611eb3565b6000546001600160a01b039081169116146107ce5760405162461bcd60e51b81526004016107c590614147565b60405180910390fd5b6001600160a01b03166000908152601560205260409020805460ff19166001179055565b82151560009081526005602052604081206060919061081090611eb7565b90508083111561081e578092505b82841061083d5760405162461bcd60e51b81526004016107c590614080565b83830367ffffffffffffffff8111801561085657600080fd5b5060405190808252806020026020018201604052801561089057816020015b61087d613384565b8152602001906001900390816108755790505b50851515600090815260056020526040812091935090819081906108b49082611ebb565b915091505b85831080156108c55750815b156109d657868310156108fd5787151560009081526005602052604090206108ed9082611ebb565b60019094019390925090506108b9565b610905613384565b60015460405163d311636b60e01b81526001600160a01b039091169063d311636b90610935908590600401614289565b60006040518083038186803b15801561094d57600080fd5b505afa158015610961573d6000803e3d6000fd5b505050506040513d6000823e601f3d908101601f191682016040526109899190810190613955565b905080868986038151811061099a57fe5b60209081029190910181019190915289151560009081526005909152604090206109c49083611ebb565b60019095019490935091506108b99050565b505050509392505050565b6000806109ec61180d565b90506000806109fb6001611ed5565b91509150600082610a0d576000610a16565b610a168261058a565b9050600080610a256000611ed5565b91509150600082610a3857600019610a41565b610a418261058a565b90506000848811610a53575084610a5e565b81881115610a5e5750815b8015610a7f57610a6d81611efd565b50600198505050505050505050610a8c565b6000985050505050505050505b90565b7304673384398379a84d05895456ae02fc05b4a50981565b6201518081565b610ab6611eb3565b6000546001600160a01b03908116911614610ae35760405162461bcd60e51b81526004016107c590614147565b600080546040516001600160a01b03909116907f8be0079c531659141344cd1fd0a4f28419497f9722a3daafe3b4186f6b6457e0908390a3600080546001600160a01b0319169055565b6002600090815260066020527f8819ef417987f8ae7a81f42cdfb18815282fe989326fbff903d13cf0e03ace2954819081805b808211610dab576000610b7e6002610b788585612282565b906122a7565b905080610b8f576000955050610dab565b6002600090815260066020527f8819ef417987f8ae7a81f42cdfb18815282fe989326fbff903d13cf0e03ace29805483908110610bc857fe5b60009182526020822001549150600681600281526020019081526020016000206001840381548110610bf657fe5b90600052602060002001549050610c0b613384565b60015460405163d311636b60e01b81526001600160a01b039091169063d311636b90610c3b908690600401614289565b60006040518083038186803b158015610c5357600080fd5b505afa158015610c67573d6000803e3d6000fd5b505050506040513d6000823e601f3d908101601f19168201604052610c8f9190810190613955565b9050610c99613384565b60015460405163d311636b60e01b81526001600160a01b039091169063d311636b90610cc9908690600401614289565b60006040518083038186803b158015610ce157600080fd5b505afa158015610cf5573d6000803e3d6000fd5b505050506040513d6000823e601f3d908101601f19168201604052610d1d9190810190613955565b90508b8261016001511480610d3657508b816101600151145b15610d5e578b82610160015114610d505760018503610d52565b845b99505050505050610dab565b8b816101600151108015610d7657508b826101600151115b15610d88578499505050505050610dab565b8b8261016001511115610d9d57849550610da1565b8496505b5050505050610b60565b845b83811015610ec9576002600090815260066020527f8819ef417987f8ae7a81f42cdfb18815282fe989326fbff903d13cf0e03ace29805483908110610dee57fe5b90600052602060002001549050610e03613384565b60015460405163d311636b60e01b81526001600160a01b039091169063d311636b90610e33908590600401614289565b60006040518083038186803b158015610e4b57600080fd5b505afa158015610e5f573d6000803e3d6000fd5b505050506040513d6000823e601f3d908101601f19168201604052610e879190810190613955565b9050888161016001511115610e9d575050610ec9565b610ec08160600151610eb3578160e00151610eb9565b8160a001515b8890612282565b96505050610dad565b505050509250929050565b60105481565b610ee2611eb3565b6000546001600160a01b03908116911614610f0f5760405162461bcd60e51b81526004016107c590614147565b6001600160a01b03166000908152601560205260409020805460ff19169055565b600f5481565b7375508a1de2183a1f2bf1822d6794698c953a178881565b60115481565b6000546001600160a01b031690565b6006602052816000526040600020818154811061068857fe5b6008546001600160a01b031681565b61271081565b600c54600d546001600160a01b0391821691169091565b600b546001600160a01b031681565b6103e8851115610fd95760405162461bcd60e51b81526004016107c5906140c2565b60006064861061104d57881561102057611019612710610b7888612710036110138c610b78600e54600a0a8e6122e990919063ffffffff16565b906122e9565b905061104d565b61104a612710610b788861271003611013600f54600a0a610b788e8e6122e990919063ffffffff16565b90505b60008561105b576001611067565b6110678a8a8a85612323565b90506000808b61108957600c54600d546001600160a01b03918216911661109d565b600d54600c546001600160a01b0391821691165b91509150851561114657600854604051633ba7c4f760e11b81526001600160a01b039091169063774f89ee906110d7908590600401613bc4565b60206040518083038186803b1580156110ef57600080fd5b505afa158015611103573d6000803e3d6000fd5b505050506040513d601f19601f820116820180604052508101906111279190613a73565b8a10156111465760405162461bcd60e51b81526004016107c590613fd4565b61114e613404565b85156111f157600b60009054906101000a90046001600160a01b03166001600160a01b03166313684f1884848e6040518463ffffffff1660e01b815260040161119993929190613bd8565b60006040518083038186803b1580156111b157600080fd5b505afa1580156111c5573d6000803e3d6000fd5b505050506040513d6000823e601f3d908101601f191682016040526111ed9190810190613731565b9150505b871561140057826001600160a01b03166323b872dd33308e6040518463ffffffff1660e01b815260040161122793929190613bd8565b602060405180830381600087803b15801561124157600080fd5b505af1158015611255573d6000803e3d6000fd5b505050506040513d601f19601f82011682018060405250810190611279919061385b565b5060095460405163e6a0802560e01b81526000916001600160a01b03169063e6a08025906112ab908790600401613bc4565b60206040518083038186803b1580156112c357600080fd5b505afa1580156112d7573d6000803e3d6000fd5b505050506040513d601f19601f820116820180604052508101906112fb9190613a73565b11156114005760095460405163095ea7b360e01b81526001600160a01b038581169263095ea7b39261133592909116908f90600401613bfc565b602060405180830381600087803b15801561134f57600080fd5b505af1158015611363573d6000803e3d6000fd5b505050506040513d601f19601f82011682018060405250810190611387919061385b565b50600960009054906101000a90046001600160a01b03166001600160a01b0316638340f54984338e6040518463ffffffff1660e01b81526004016113cd93929190613bd8565b600060405180830381600087803b1580156113e757600080fd5b505af11580156113fb573d6000803e3d6000fd5b505050505b50505050505050505050505050565b80151560009081526005602052604081206106f890611eb7565b3360009081526015602052604090205460ff166114585760405162461bcd60e51b81526004016107c590613e25565b600b80546001600160a01b0319166001600160a01b0392909216919091179055565b600a546001600160a01b031681565b600d546001600160a01b031681565b6001600160a01b03811660009081526004602052604081206106f890612407565b6001546001600160a01b031681565b601481815481106114d557fe5b600091825260209091200154905081565b6000808461150657600c54600d546001600160a01b03918216911661151a565b600d54600c546001600160a01b0391821691165b600854604051633ba7c4f760e11b81529294509092506001600160a01b03169063774f89ee9061154e908590600401613bc4565b60206040518083038186803b15801561156657600080fd5b505afa15801561157a573d6000803e3d6000fd5b505050506040513d601f19601f8201168201806040525081019061159e9190613a73565b8410156115bd5760405162461bcd60e51b81526004016107c590613fd4565b6115c5613404565b600b5460405163026d09e360e31b81526001600160a01b03909116906313684f18906115f990869086908a90600401613bd8565b60006040518083038186803b15801561161157600080fd5b505afa158015611625573d6000803e3d6000fd5b505050506040513d6000823e601f3d908101601f1916820160405261164d9190810190613731565b91505083816000015110156116745760405162461bcd60e51b81526004016107c590613f36565b60008661169c5761169786610b78600e54600a0a886122e990919063ffffffff16565b6116b8565b6116b885610b78600e54600a0a896122e990919063ffffffff16565b905060006116c888838989612323565b6008546040516313f142c560e31b81529192506000916001600160a01b0390911690639f8a162890611701903390600190600401613bfc565b602060405180830381600087803b15801561171b57600080fd5b505af115801561172f573d6000803e3d6000fd5b505050506040513d601f19601f82011682018060405250810190611753919061385b565b905080156117705761176a828588888c6000612412565b506117b1565b6117af826040518060400160405280601b81526020017f547261646520706f696e7473206973204e4f5420656e6f7567682e00000000008152506127b8565b505b505050505050505050565b3360009081526015602052604090205460ff166117eb5760405162461bcd60e51b81526004016107c590613e25565b600880546001600160a01b0319166001600160a01b0392909216919091179055565b6000611817613404565b600b54600d54600c5460405163026d09e360e31b81526001600160a01b03938416936313684f18936118589390821692911690633b9aca0090600401613bd8565b60006040518083038186803b15801561187057600080fd5b505afa158015611884573d6000803e3d6000fd5b505050506040513d6000823e601f3d908101601f191682016040526118ac9190810190613731565b8051600e5491935091506000906118d1908390610b7890633b9aca0090600a0a6122e9565b935050505090565b60008060006118e784611498565b905060005b818110156119ce57600061190086836106d3565b905061190a613384565b60015460405163d311636b60e01b81526001600160a01b039091169063d311636b9061193a908590600401614289565b60006040518083038186803b15801561195257600080fd5b505afa158015611966573d6000803e3d6000fd5b505050506040513d6000823e601f3d908101601f1916820160405261198e9190810190613955565b90508060600151156119b15760a08101516119aa908790612282565b95506119c4565b60a08101516119c1908690612282565b94505b50506001016118ec565b5050915091565b60085460408051635c191ce960e01b815290516000926001600160a01b031691635c191ce9916004808301926020929190829003018186803b158015611a1a57600080fd5b505afa158015611a2e573d6000803e3d6000fd5b505050506040513d601f19601f82011682018060405250810190611a529190613a73565b90505b60001981019015611a7d576000611a6a6109e1565b905080611a775750611a7d565b50611a55565b50565b60135481565b611a8e611eb3565b6000546001600160a01b03908116911614611abb5760405162461bcd60e51b81526004016107c590614147565b6001600160a01b038116611ae15760405162461bcd60e51b81526004016107c590613eb9565b600080546040516001600160a01b03808516939216917f8be0079c531659141344cd1fd0a4f28419497f9722a3daafe3b4186f6b6457e091a3600080546001600160a01b0319166001600160a01b0392909216919091179055565b611b44611eb3565b6000546001600160a01b03908116911614611b715760405162461bcd60e51b81526004016107c590614147565b600c80546001600160a01b038087166001600160a01b03199283161792839055600d80548783169316929092179091556040805163313ce56760e01b81529051929091169163313ce56791600480820192602092909190829003018186803b158015611bdc57600080fd5b505afa158015611bf0573d6000803e3d6000fd5b505050506040513d601f19601f82011682018060405250810190611c149190613aac565b60ff16600e55600d546040805163313ce56760e01b815290516001600160a01b039092169163313ce56791600480820192602092909190829003018186803b158015611c5f57600080fd5b505afa158015611c73573d6000803e3d6000fd5b505050506040513d601f19601f82011682018060405250810190611c979190613aac565b60ff16600f556001600160a01b039182166000908152601560205260409020805460ff1916600117905560098054919092166001600160a01b03199091161790555050565b6002546001600160a01b031681565b60006106f5838361292d565b6000611d01613384565b60015460405163d311636b60e01b81526001600160a01b039091169063d311636b90611d31908690600401614289565b60006040518083038186803b158015611d4957600080fd5b505afa158015611d5d573d6000803e3d6000fd5b505050506040513d6000823e601f3d908101601f19168201604052611d859190810190613955565b60208101519091506001600160a01b03163314611db45760405162461bcd60e51b81526004016107c590613f83565b60008161010001516003811115611dc757fe5b14611de45760405162461bcd60e51b81526004016107c59061417c565b60018054604051630d4e568160e41b81526001600160a01b039091169163d4e5681091611e189187916000906004016142c0565b600060405180830381600087803b158015611e3257600080fd5b505af1158015611e46573d6000803e3d6000fd5b5050600660205250507f3e5fec24aa4dc4e5aee2e025e51e1392c72a2500577559fae9665c6d52bd6a3180546001810182556000919091527f80497882cf9008f7f796a89e5514a7b55bd96eab88ecb66aee4fb0a6fd34811c01839055611eac81612972565b5050919050565b3390565b5490565b600080611eca84846001612a68565b915091509250929050565b80151560009081526005602052604081208190611ef490826001612a68565b91509150915091565b6000611f07613384565b60015460405163d311636b60e01b81526001600160a01b039091169063d311636b90611f37908690600401614289565b60006040518083038186803b158015611f4f57600080fd5b505afa158015611f63573d6000803e3d6000fd5b505050506040513d6000823e601f3d908101601f19168201604052611f8b9190810190613955565b90506000808260600151611fb157600c54600d546001600160a01b039182169116611fc5565b600d54600c546001600160a01b0391821691165b91509150611fd1613404565b600b5460a085015160405163026d09e360e31b81526001600160a01b03909216916313684f18916120089187918791600401613bd8565b60006040518083038186803b15801561202057600080fd5b505afa158015612034573d6000803e3d6000fd5b505050506040513d6000823e601f3d908101601f1916820160405261205c9190810190613731565b9150508360c001518160000151106122555760085460208501516040516313f142c560e31b81526000926001600160a01b031691639f8a1628916120a69190600190600401613bfc565b602060405180830381600087803b1580156120c057600080fd5b505af11580156120d4573d6000803e3d6000fd5b505050506040513d601f19601f820116820180604052508101906120f8919061385b565b9050801561220e5760095460405163e6a0802560e01b81526000916001600160a01b03169063e6a0802590612131908890600401613bc4565b60206040518083038186803b15801561214957600080fd5b505afa15801561215d573d6000803e3d6000fd5b505050506040513d601f19601f820116820180604052508101906121819190613a73565b11156121f457600954602086015160a0870151604051636ce5768960e11b81526001600160a01b039093169263d9caed12926121c1928992600401613bd8565b600060405180830381600087803b1580156121db57600080fd5b505af11580156121ef573d6000803e3d6000fd5b505050505b612207878386868960a001516001612412565b955061224f565b61224d876040518060400160405280601b81526020017f547261646520706f696e7473206973204e4f5420656e6f7567682e00000000008152506127b8565b505b50612279565b612277866040518060600160405280603781526020016143d9603791396127b8565b505b50505050919050565b6000828201838110156106f55760405162461bcd60e51b81526004016107c590613eff565b60006106f583836040518060400160405280601a81526020017f536166654d6174683a206469766973696f6e206279207a65726f000000000000815250612aaf565b6000826122f8575060006106f8565b8282028284828161230557fe5b04146106f55760405162461bcd60e51b81526004016107c590614106565b600154604051631cdd409f60e21b815260009182916001600160a01b0390911690637375027c9061236290309033908b908b908b908b90600401613c2f565b602060405180830381600087803b15801561237c57600080fd5b505af1158015612390573d6000803e3d6000fd5b505050506040513d601f19601f820116820180604052508101906123b49190613a73565b3360009081526003602090815260408220805460018101825590835291200181905590506123e3818787612ae6565b503360009081526004602052604090206123fd9082612b2d565b5095945050505050565b60006106f882611eb7565b60008161249d576040516323b872dd60e01b81526001600160a01b038616906323b872dd9061244990339030908890600401613bd8565b602060405180830381600087803b15801561246357600080fd5b505af1158015612477573d6000803e3d6000fd5b505050506040513d601f19601f8201168201806040525081019061249b919061385b565b505b600b5460405163095ea7b360e01b81526001600160a01b038781169263095ea7b3926124d192909116908790600401613bfc565b602060405180830381600087803b1580156124eb57600080fd5b505af11580156124ff573d6000803e3d6000fd5b505050506040513d601f19601f82011682018060405250810190612523919061385b565b50600b5460405163350d6fd960e01b81526000916001600160a01b03169063350d6fd99061255d908a908a908a908a9033906004016141cb565b602060405180830381600087803b15801561257757600080fd5b505af115801561258b573d6000803e3d6000fd5b505050506040513d601f19601f820116820180604052508101906125af9190613a73565b90506125bb8882612b39565b506125c4613384565b60015460405163d311636b60e01b81526001600160a01b039091169063d311636b906125f4908c90600401614289565b60006040518083038186803b15801561260c57600080fd5b505afa158015612620573d6000803e3d6000fd5b505050506040513d6000823e601f3d908101601f191682016040526126489190810190613955565b905060005b88604001515181108015612684575060008960400151828151811061266e57fe5b6020026020010151600781111561268157fe5b14155b156127835760008960600151828151811061269b57fe5b60200260200101519050606060006001600160a01b0316826001600160a01b031614156126ee57604080518082019091526001600160a01b03808c1682528a1660208201526126e990612c6e565b61271f565b604080516060810182526001600160a01b03808d16825284811660208301528b169181019190915261271f90612cd7565b905061277884602001518d8d60800151868151811061273a57fe5b60200260200101518e60a00151878151811061275257fe5b60200260200101518f60400151888151811061276a57fe5b602002602001015186612d42565b50505060010161264d565b50600d546127aa906001600160a01b038981169116146127a357826127a5565b855b612ddf565b5090505b9695505050505050565b60006127c2613384565b60015460405163d311636b60e01b81526001600160a01b039091169063d311636b906127f2908790600401614289565b60006040518083038186803b15801561280a57600080fd5b505afa15801561281e573d6000803e3d6000fd5b505050506040513d6000823e601f3d908101601f191682016040526128469190810190613955565b90506000816101000151600381111561285b57fe5b146128785760405162461bcd60e51b81526004016107c590614023565b600154604051630d4e568160e41b81526001600160a01b039091169063d4e56810906128b09087906003906000908990600401614292565b600060405180830381600087803b1580156128ca57600080fd5b505af11580156128de573d6000803e3d6000fd5b506006925060009150600390505b60038111156128f757fe5b8152602080820192909252604001600090812080546001810182559082529190200184905561292581612972565b505092915050565b815460009082106129505760405162461bcd60e51b81526004016107c590613de3565b82600001828154811061295f57fe5b9060005260206000200154905092915050565b600154602082015182516040516323b872dd60e01b81526000936001600160a01b0316926323b872dd926129ac9230929190600401613bd8565b600060405180830381600087803b1580156129c657600080fd5b505af11580156129da573d6000803e3d6000fd5b505050506006600083610100015160038111156129f357fe5b60038111156129fe57fe5b81526020808201929092526040908101600090812085518154600181018355918352848320909101558451338252600490935220612a3b91612e88565b5081516060830151151560009081526005602052604081209091612a5f9190612e94565b15159392505050565b600080612a758585612f1c565b612a8457506000905080612aa7565b505060008281526001848101602090815260408084208515158552909152909120545b935093915050565b60008183612ad05760405162461bcd60e51b81526004016107c59190613dd0565b506000838581612adc57fe5b0495945050505050565b81151560009081526005602052604081208190612b0590308587612fa0565b8415156000908152600560205260409020909150612b24908287613137565b95945050505050565b60006106f58383613146565b6000612b43613384565b60015460405163d311636b60e01b81526001600160a01b039091169063d311636b90612b73908790600401614289565b60006040518083038186803b158015612b8b57600080fd5b505afa158015612b9f573d6000803e3d6000fd5b505050506040513d6000823e601f3d908101601f19168201604052612bc79190810190613955565b905060008161010001516003811115612bdc57fe5b14612bf95760405162461bcd60e51b81526004016107c590613e5c565b600154604051630d4e568160e41b81526001600160a01b039091169063d4e5681090612c2e90879060029088906004016142c0565b600060405180830381600087803b158015612c4857600080fd5b505af1158015612c5c573d6000803e3d6000fd5b506006925060009150600290506128ec565b604080516002808252606080830184529260208301908036833701905050905060005b600281101561078a57828160028110612ca657fe5b6020020151828281518110612cb757fe5b6001600160a01b0390921660209283029190910190910152600101612c91565b6040805160038082526080820190925260609160208201838036833701905050905060005b600381101561078a57828160038110612d1157fe5b6020020151828281518110612d2257fe5b6001600160a01b0390921660209283029190910190910152600101612cfc565b60025460405163904c3e9b60e01b815260009182916001600160a01b039091169063904c3e9b90612d81908b908a908a908d908b908b90600401613c65565b602060405180830381600087803b158015612d9b57600080fd5b505af1158015612daf573d6000803e3d6000fd5b505050506040513d601f19601f82011682018060405250810190612dd39190613a73565b98975050505050505050565b601354612dec9082612282565b601355601054601154600091612e0b916201518091610b789190613188565b90506000612e296201518060105442036122a790919063ffffffff16565b905081811115612e6f57601280546014805460018101825560009182527fce6d7b5282bd9a3661ae061feed1dbda4e52ab073b1f9285be6e155d9c38d4ec019190915590555b601254612e7c9084612282565b60125550504260115550565b60006106f583836131ca565b6000811580612eaa5750612ea88383612f1c565b155b15612eb7575060006106f8565b600082815260018481016020908152604080842084805290915280832054828452922054612ee9928692909190613297565b50600081815260018381016020908152604080842084805290915280832083905590825281205581546000190190915590565b60008181526001830160209081526040808320838052909152812054158015612f5f57506000828152600180850160209081526040808420928452919052902054155b15612f98576000808052600180850160209081526040808420928452919052902054821415612f90575060016106f8565b5060006106f8565b5060016106f8565b6000612fab85611eb7565b612fb757506000610643565b6000612fc68660006001612a68565b9150508215613086575b801580159061305a57506040516307fa648b60e11b81526001600160a01b03861690630ff4c91690613006908490600401614289565b60206040518083038186803b15801561301e57600080fd5b505afa158015613032573d6000803e3d6000fd5b505050506040513d601f19601f820116820180604052508101906130569190613a73565b8411155b15613081576000908152600180870160209081526040808420928452919052902054612fd0565b612b24565b801580159061311057506040516307fa648b60e11b81526001600160a01b03861690630ff4c916906130bc908490600401614289565b60206040518083038186803b1580156130d457600080fd5b505afa1580156130e8573d6000803e3d6000fd5b505050506040513d601f19601f8201168201806040525081019061310c9190613a73565b8410155b15612b24576000908152600180870160209081526040808420928452919052902054613086565b600061064384848460006132cc565b60006131528383613340565b612f90575081546001818101845560008481526020808220909301849055845484825282860190935260409020919091556106f8565b60006106f583836040518060400160405280601e81526020017f536166654d6174683a207375627472616374696f6e206f766572666c6f770000815250613358565b6000818152600183016020526040812054801561328657835460001980830191908101906000908790839081106131fd57fe5b906000526020600020015490508087600001848154811061321a57fe5b60009182526020808320909101929092558281526001898101909252604090209084019055865487908061324a57fe5b600190038181906000526020600020016000905590558660010160008781526020019081526020016000206000905560019450505050506106f8565b60009150506106f8565b5092915050565b600082815260019094016020818152604080872093158088529382528087208690559486529081528385209115855252912055565b60006132d88584612f1c565b1580156132ea57506132ea8585612f1c565b156133355760008481526001860160209081526040808320851515845290915290205461331986868686613297565b61332586858386613297565b5050835460019081018555610643565b506000949350505050565b60009081526001919091016020526040902054151590565b6000818484111561337c5760405162461bcd60e51b81526004016107c59190613dd0565b505050900390565b6040518061018001604052806000815260200160006001600160a01b0316815260200160006001600160a01b0316815260200160001515815260200160008152602001600081526020016000815260200160008152602001600060038111156133e957fe5b81526020016060815260200160008152602001600081525090565b6040518060c001604052806000815260200160008152602001606081526020016060815260200160608152602001606081525090565b80516106f8816143a8565b600082601f830112613455578081fd5b81516134686134638261432a565b614303565b81815291506020808301908481018184028601820187101561348957600080fd5b60005b848110156134b157815161349f816143a8565b8452928201929082019060010161348c565b505050505092915050565b600082601f8301126134cc578081fd5b81516134da6134638261432a565b8181529150602080830190848101818402860182018710156134fb57600080fd5b6000805b8581101561352757825160088110613515578283fd5b855293830193918301916001016134ff565b50505050505092915050565b600082601f830112613543578081fd5b81516135516134638261432a565b81815291506020808301908481018184028601820187101561357257600080fd5b60005b848110156134b157815184529282019290820190600101613575565b80516106f8816143bd565b80516106f8816143cb565b600082601f8301126135b7578081fd5b81516135c56134638261434a565b91508082528360208285010111156135dc57600080fd5b61329081602084016020860161436e565b6000602082840312156135fe578081fd5b81356106f5816143a8565b6000806000806080858703121561361e578283fd5b8435613629816143a8565b93506020850135613639816143a8565b92506040850135613649816143a8565b91506060850135613659816143a8565b939692955090935050565b60008060008060808587031215613679578384fd5b8435613684816143a8565b93506020850135613694816143a8565b925060408501359150606085013567ffffffffffffffff8111156136b6578182fd5b8501601f810187136136c6578182fd5b80356136d46134638261434a565b8181528860208385010111156136e8578384fd5b81602084016020830137908101602001929092525092959194509250565b60008060408385031215613718578182fd5b8235613723816143a8565b946020939093013593505050565b60008060408385031215613743578182fd5b825167ffffffffffffffff8082111561375a578384fd5b61376686838701613533565b9350602085015191508082111561377b578283fd5b9084019060c0828703121561378e578283fd5b61379860c0614303565b82518152602083015160208201526040830151828111156137b7578485fd5b6137c3888286016134bc565b6040830152506060830151828111156137da578485fd5b6137e688828601613445565b6060830152506080830151828111156137fd578485fd5b61380988828601613533565b60808301525060a083015182811115613820578485fd5b61382c88828601613533565b60a0830152508093505050509250929050565b600060208284031215613850578081fd5b81356106f5816143bd565b60006020828403121561386c578081fd5b81516106f5816143bd565b60008060006060848603121561388b578081fd5b8335613896816143bd565b95602085013595506040909401359392505050565b600080600080600080600080610100898b0312156138c7578586fd5b88356138d2816143bd565b975060208901359650604089013595506060890135945060808901356138f7816143bd565b935060a0890135613907816143bd565b925060c0890135613917816143bd565b915060e0890135613927816143bd565b809150509295985092959890939650565b6000806040838503121561394a578182fd5b8235613723816143cb565b600060208284031215613966578081fd5b815167ffffffffffffffff8082111561397d578283fd5b8184019150610180808387031215613993578384fd5b61399c81614303565b9050825181526139af866020850161343a565b60208201526139c1866040850161343a565b60408201526139d38660608501613591565b60608201526080830151608082015260a083015160a082015260c083015160c082015260e083015160e0820152610100613a0f8782860161359c565b908201526101208381015183811115613a26578586fd5b613a32888287016135a7565b918301919091525061014083810151908201526101609283015192810192909252509392505050565b600060208284031215613a6c578081fd5b5035919050565b600060208284031215613a84578081fd5b5051919050565b60008060408385031215613a9d578182fd5b50508035926020909101359150565b600060208284031215613abd578081fd5b815160ff811681146106f5578182fd5b6001600160a01b03169052565b6000815180845260208085019450808401835b83811015613b125781516001600160a01b031687529582019590820190600101613aed565b509495945050505050565b6000815180845260208085019450808401835b83811015613b1257815160088110613b4457fe5b87529582019590820190600101613b30565b6000815180845260208085019450808401835b83811015613b1257815187529582019590820190600101613b69565b15159052565b613b948161439e565b9052565b60008151808452613bb081602086016020860161436e565b601f01601f19169290920160200192915050565b6001600160a01b0391909116815260200190565b6001600160a01b039384168152919092166020820152604081019190915260600190565b6001600160a01b03929092168252602082015260400190565b6001600160a01b0392831681529116602082015260400190565b6001600160a01b03968716815294909516602085015291151560408401526060830152608082015260a081019190915260c00190565b6001600160a01b0387168152602081018690526040810185905260608101849052600060088410613c9257fe5b83608083015260c060a0830152612dd360c0830184613ada565b60208082528251828201819052600091906040908185019080840286018301878501865b83811015613da257603f1989840301855281516101808151855288820151613cfa8a870182613acd565b5087820151613d0b89870182613acd565b50606080830151613d1e82880182613b85565b50506080828101519086015260a0808301519086015260c0808301519086015260e0808301519086015261010080830151613d5b82880182613b8b565b5050610120808301518282880152613d7583880182613b98565b61014085810151908901526101609485015194909701939093525050509386019390860190600101613cd0565b509098975050505050505050565b901515815260200190565b6001600160e01b031991909116815260200190565b6000602082526106f56020830184613b98565b60208082526022908201527f456e756d657261626c655365743a20696e646578206f7574206f6620626f756e604082015261647360f01b606082015260800190565b60208082526017908201527f426f626f506169723a206e6f207065726d697373696f6e000000000000000000604082015260600190565b60208082526039908201527f4f7264657253746f72653a206f6e6c792068616e67696e67206f72646572206360408201527f616e206265636f6d6520414d4d4465616c207374617475732e00000000000000606082015260800190565b60208082526026908201527f4f776e61626c653a206e6577206f776e657220697320746865207a65726f206160408201526564647265737360d01b606082015260800190565b6020808252601b908201527f536166654d6174683a206164646974696f6e206f766572666c6f770000000000604082015260600190565b6020808252602d908201527f426f626f506169723a2063616e204e4f54207361746973667920796f7572207460408201526c3930b232903932b8bab2b9ba1760991b606082015260800190565b60208082526031908201527f4f7264657253746f72653a206f6e6c7920626f6f6b206f776e65722063616e2060408201527031b0b731b2b6103a34329037b93232b91760791b606082015260800190565b6020808252602f908201527f426f626f506169723a20696e416d6f756e74204d555354206c6172676572207460408201526e3430b71036b4b71030b6b7bab73a1760891b606082015260800190565b6020808252603b908201527f4f7264657253746f72653a206f6e6c792068616e67696e67206f72646572206360408201527f616e206265636f6d6520657863657074696f6e207374617475732e0000000000606082015260800190565b60208082526022908201527f4f7264657253746f72653a20696e646578206973206f7574206f6620626f756e604082015261321760f11b606082015260800190565b60208082526024908201527f426f626f506169723a20736c697070616765204d555354203c3d2031303030286040820152633130252960e01b606082015260800190565b60208082526021908201527f536166654d6174683a206d756c7469706c69636174696f6e206f766572666c6f6040820152607760f81b606082015260800190565b6020808252818101527f4f776e61626c653a2063616c6c6572206973206e6f7420746865206f776e6572604082015260600190565b6020808252602f908201527f4f7264657253746f72653a206f6e6c792068616e67696e67206f72646572206360408201526e30b71031329031b0b731b2b632b21760891b606082015260800190565b600060a08252865160a0830152602087015160c0830152604087015160c060e08401526141fc610160840182613b1d565b90506060880151609f19808584030161010086015261421b8383613ada565b925060808a0151915080858403016101208601526142398383613b56565b925060a08a015191508085840301610140860152506142588282613b56565b925050506142696020830187613acd565b6142766040830186613acd565b8360608301526127ae6080830184613acd565b90815260200190565b60008582526142a08561439e565b846020830152836040830152608060608301526127ae6080830184613b98565b60008482526142ce8461439e565b8360208301528260408301526080606083015280608083015260a082019050949350505050565b918252602082015260400190565b60405181810167ffffffffffffffff8111828210171561432257600080fd5b604052919050565b600067ffffffffffffffff821115614340578081fd5b5060209081020190565b600067ffffffffffffffff821115614360578081fd5b50601f01601f191660200190565b60005b83811015614389578181015183820152602001614371565b83811115614398576000848401525b50505050565b60048110611a7d57fe5b6001600160a01b0381168114611a7d57600080fd5b8015158114611a7d57600080fd5b60048110611a7d57600080fdfe416d6f756e74206f75742063616e204e4f54207361746973667920746865206d696e20616d6f756e74206f7574206f66206f726465722ea264697066735822122034bd72635005e897389b60564f18b8b89977ab1c1320b3921614ca44a817441964736f6c634300060c0033",
  "immutableReferences": {},
  "source": "// SPDX-License-Identifier: MIT\npragma solidity ^0.6.0;\npragma experimental ABIEncoderV2;\n\nimport \"./common/OrderStore.sol\";\n\ninterface IExchangeManager {\n    function burnTradePoints(address _userAddr, uint256 _burnedNumber) external returns(bool);\n    function feeEarnedContract() view external returns(uint256);\n    function maxNumberPerAMMSwap() view external returns(uint256);\n    function tokenInvestRateMap(address _tokenAddr) view external returns(uint256);\n    function tokenMinAmountMap(address _tokenAddr) view external returns(uint256);\n}\n\ninterface IBoboFarmer {\n    function deposit(address _tokenAddr, address _userAddr, uint256 _amount) external;\n    function withdraw(address _tokenAddr, address _userAddr, uint256 _amount) external;\n\n    function pendingBOBO(address _tokenAddr, address _user) external view returns (uint256);\n    function stakedWantTokens(address _tokenAddr, address _user) external view returns (uint256);\n    function tokenPidMap(address _tokenAddr) external view returns (uint256);\n}\n\n\ncontract BoboPairTest is Ownable, OrderStore {\n    using SafeMath for uint256;\n    \n    address private bestSwapRouter;\n    uint256 public constant BasePercent = 10000;\n    uint256 public constant BasePriceAmount = 1e9;\n    \n    IExchangeManager public exManager;\n    IBoboFarmer public boboFarmer;\n    address public constant OrderNFTAddr = 0x04673384398379a84d05895456AE02fc05B4a509;\n    address public constant OrderDetailNFTAddr = 0x75508A1de2183a1F2Bf1822d6794698c953A1788;\n    \n    address public factory;\n    IBoboRouter public boboRouter;\n    address public quoteToken;\n    address public baseToken;\n    uint256 public quoteTokenDecimals;\n    uint256 public baseTokenDecimals;\n    \n    \n    uint256 public constant OneDaySeconds = 24 * 3600;\n    uint256 public startTime;\n    uint256 public lastRecordTime;\n    uint256 public volumnOf24Hours;\n    uint256 public totalVolumn;\n    uint256[] public volumnList;\n    \n    mapping(address => bool) public _auth;\n\n    modifier onlyAuth {\n        require(_auth[msg.sender], \"BoboPair: no permission\");\n        _;\n    }\n    \n    event SwapSuccess(address indexed owner, address indexed spender, uint value);\n    \n    constructor () public OrderStore(OrderNFTAddr, OrderDetailNFTAddr) {  \n        factory = msg.sender;\n        _auth[msg.sender] = true;\n        startTime = now;\n        lastRecordTime = startTime;\n    }\n\n    // called once by the factory at time of deployment\n    function initialize(address _quoteToken, address _baseToken, address _authAddr, address _boboFarmer) external onlyOwner {\n        quoteToken = _quoteToken;\n        baseToken = _baseToken;\n        quoteTokenDecimals = ERC20(quoteToken).decimals();\n        baseTokenDecimals = ERC20(baseToken).decimals();\n        _auth[_authAddr] = true;\n        boboFarmer = IBoboFarmer(_boboFarmer);\n    }\n    \n    \n    function addAuth(address _authAddr) public onlyOwner {\n        _auth[_authAddr] = true;\n    }\n\n    function removeAuth(address _authAddr) public onlyOwner {\n        _auth[_authAddr] = false;\n    }\n    \n    function setExManager(address _exManager) external onlyAuth {\n        exManager = IExchangeManager(_exManager);\n    }\n    \n    function setRouter(address _router) external onlyAuth {\n        boboRouter = IBoboRouter(_router);\n    }\n\n    function getTokens() view public returns(address, address) {\n        return (quoteToken, baseToken);\n    }\n    \n    // \n    // _spotPrice: U10000001U\n    function addLimitedOrder(bool _bBuyQuoteToken, uint256 _spotPrice, uint256 _amountIn, uint256 _slippagePercent, \n                            bool _orderNFT, bool _boboFarmer, bool _exManager, bool _boboRouter) public {\n        require(_slippagePercent <= 1000, \"BoboPair: slippage MUST <= 1000(10%)\");\n        \n        uint256 minOutAmount = 0;\n        if (_slippagePercent >= 100) {\n            if (_bBuyQuoteToken) {\n                minOutAmount = _amountIn.mul(10**quoteTokenDecimals).div(_spotPrice).mul(BasePercent - _slippagePercent).div(BasePercent);\n            } else {\n                minOutAmount = _amountIn.mul(_spotPrice).div(10**baseTokenDecimals).mul(BasePercent - _slippagePercent).div(BasePercent);\n            }\n        }\n        \n        uint256 orderId = _orderNFT ? addOrder(_bBuyQuoteToken, _spotPrice, _amountIn, minOutAmount) : 1;\n        \n        (address inToken, address outToken) = _bBuyQuoteToken ? (baseToken, quoteToken) : (quoteToken, baseToken);\n        if (_exManager)\n            require(_amountIn >= exManager.tokenMinAmountMap(inToken), \"BoboPair: inAmount MUST larger than min amount.\");\n        \n        ResultInfo memory bestSwapInfo;\n        if (_boboRouter)\n            (, bestSwapInfo) = boboRouter.getBestSwapPath(inToken, outToken, _amountIn);\n        \n        // \n        // if (bestSwapInfo.totalAmountOut >= minOutAmount) {  \n        //     bool bSuccess = exManager.burnTradePoints(msg.sender, 1);\n        //     if (bSuccess) {\n        //         swap(orderId, bestSwapInfo, inToken, outToken, _amountIn, false);\n        //     } else {\n        //         setExceptionOrder(orderId, \"Trade points is NOT enough.\");\n        //     }\n        // } else {\n        //     ERC20(inToken).transferFrom(msg.sender, address(this), _amountIn);\n        //     if (boboFarmer.tokenPidMap(inToken) > 0) {\n        //         ERC20(inToken).approve(address(boboFarmer), _amountIn);\n        //         if (_boboFarmer)\n        //             boboFarmer.deposit(inToken, msg.sender, _amountIn);\n        //     }\n        // }\n        if (_boboFarmer)\n        {\n            ERC20(inToken).transferFrom(msg.sender, address(this), _amountIn);\n            if (boboFarmer.tokenPidMap(inToken) > 0) {\n                ERC20(inToken).approve(address(boboFarmer), _amountIn);\n                boboFarmer.deposit(inToken, msg.sender, _amountIn);\n            } \n        }\n    }\n    \n    // \n    function addMarketOrder(bool _bBuyQuoteToken, uint256 _amountIn, uint256 _minOutAmount) public {\n        (address inToken, address outToken) = _bBuyQuoteToken ? (baseToken, quoteToken) : (quoteToken, baseToken);\n        require(_amountIn >= exManager.tokenMinAmountMap(inToken), \"BoboPair: inAmount MUST larger than min amount.\");\n\n        (, ResultInfo memory bestSwapInfo) = boboRouter.getBestSwapPath(inToken, outToken, _amountIn);\n        require(bestSwapInfo.totalAmountOut >= _minOutAmount, \"BoboPair: can NOT satisfy your trade request.\");\n        // \n        uint256 spotPrice = _bBuyQuoteToken ? _amountIn.mul(10**quoteTokenDecimals).div(_minOutAmount) : _minOutAmount.mul(10**quoteTokenDecimals).div(_amountIn);\n        uint256 orderId = addOrder(_bBuyQuoteToken, spotPrice, _amountIn, _minOutAmount);\n        bool bSuccess = exManager.burnTradePoints(msg.sender, 1);\n        if (bSuccess) {\n            swap(orderId, bestSwapInfo, inToken, outToken, _amountIn, false);\n        } else {\n            setExceptionOrder(orderId, \"Trade points is NOT enough.\");\n        }\n    }\n       \n    function makeStatistic(uint256 _amount) private {\n        totalVolumn = totalVolumn.add(_amount);\n        \n        uint256 lastPeriod = lastRecordTime.sub(startTime).div(OneDaySeconds);\n        uint256 currentPeriod = (now - startTime).div(OneDaySeconds);\n        if (currentPeriod > lastPeriod) {\n            volumnList.push(volumnOf24Hours);\n            volumnOf24Hours = 0;\n        }\n        volumnOf24Hours = volumnOf24Hours.add(_amount);\n        lastRecordTime = now;\n    }\n            \n    function convertThreePath(address[3] memory path) private pure returns(address[] memory newPath) {\n        newPath = new address[](path.length);\n        for (uint256 i = 0; i < path.length; i++) {\n            newPath[i] = path[i];\n        }\n    }\n    \n    function convertTwoPath(address[2] memory path) private pure returns(address[] memory newPath) {\n        newPath = new address[](path.length);\n        for (uint256 i = 0; i < path.length; i++) {\n            newPath[i] = path[i];\n        }\n    }\n\n    function swap(uint256 _orderId, ResultInfo memory _bestSwapInfo, address _inToken, address _outToken, uint256 _amountIn, bool _bInner) private returns(uint256) {\n        if (!_bInner) {\n            ERC20(_inToken).transferFrom(msg.sender, address(this), _amountIn);\n        }\n        ERC20(_inToken).approve(address(boboRouter), _amountIn);\n        uint256 amountOut = boboRouter.swap(_bestSwapInfo, _inToken, _outToken, _amountIn, msg.sender);\n        setAMMDealOrder(_orderId, amountOut);\n        \n        NFTInfo memory orderInfo = orderNFT.getOrderInfo(_orderId); \n        for (uint256 i = 0; i < _bestSwapInfo.types.length && _bestSwapInfo.types[i] != SwapPool.No; i++) {\n            address middleToken = _bestSwapInfo.middleTokens[i];\n            address[] memory path = middleToken != address(0) ? convertThreePath([_inToken, middleToken, _outToken]) : convertTwoPath([_inToken, _outToken]);\n            addOrderDetail(orderInfo.owner, _orderId, \n                           _bestSwapInfo.partialAmountIns[i], \n                           _bestSwapInfo.partialAmountOuts[i], \n                           _bestSwapInfo.types[i],\n                           path);\n        }\n        makeStatistic(_inToken == baseToken ? _amountIn : amountOut);\n        return amountOut;\n    }\n    \n    function getCurrentPrice() view public returns(uint256) {\n        (, ResultInfo memory bestSwapInfo) = boboRouter.getBestSwapPath(baseToken, quoteToken, BasePriceAmount);\n        uint256 amountOut = bestSwapInfo.totalAmountOut;\n        uint256 spotPrice = BasePriceAmount.mul(10**quoteTokenDecimals).div(amountOut);\n        return spotPrice;\n    }\n\n    function getTotalHangingTokenAmount(address _userAddr) view public returns(uint256 baseTokenAmount, uint256 quoteTokenAmount) {\n        uint256 length = getUserHangingOrderNumber(_userAddr);\n        for (uint256 i = 0; i < length; i++) {\n            uint256 orderId = getUserHangingOrderId(_userAddr, i);\n            NFTInfo memory orderInfo = orderNFT.getOrderInfo(orderId); \n            if (orderInfo.bBuyQuoteToken) {\n                baseTokenAmount = baseTokenAmount.add(orderInfo.inAmount);\n            } else {\n                quoteTokenAmount = quoteTokenAmount.add(orderInfo.inAmount);\n            }\n        }\n    }\n        \n    function executeInnerOrder(uint256 _orderId) private returns(uint256 amountOut) {\n        NFTInfo memory orderInfo = orderNFT.getOrderInfo(_orderId); \n        (address inToken, address outToken) = orderInfo.bBuyQuoteToken ? (baseToken, quoteToken) : (quoteToken, baseToken);\n        (, ResultInfo memory bestSwapInfo) = boboRouter.getBestSwapPath(inToken, outToken, orderInfo.inAmount);\n        if (bestSwapInfo.totalAmountOut >= orderInfo.minOutAmount) {\n            bool bSuccess = exManager.burnTradePoints(orderInfo.owner, 1);\n            if (bSuccess) {\n                if (boboFarmer.tokenPidMap(inToken) > 0) {\n                    boboFarmer.withdraw(inToken, orderInfo.owner, orderInfo.inAmount);\n                }\n                amountOut = swap(_orderId, bestSwapInfo, inToken, outToken, orderInfo.inAmount, true);\n            } else {\n                setExceptionOrder(_orderId, \"Trade points is NOT enough.\");\n            }\n        } else {\n            setExceptionOrder(_orderId, \"Amount out can NOT satisfy the min amount out of order.\");\n        }\n    }\n    \n    // \n    function executeHeaderOrder() public returns(bool) {\n        uint256 currentPrice = getCurrentPrice();\n        \n        (bool existOfBuy, uint256 orderIdOfBuy) = getHeaderOrderIndex(true);\n        uint256 highestPriceOfBuy = existOfBuy ? getValue(orderIdOfBuy) : 0;\n        \n        (bool existOfSell, uint256 orderIdOfSell) = getHeaderOrderIndex(false);\n        uint256 lowestPriceOfSell = existOfSell ? getValue(orderIdOfSell) : uint256(-1);\n        \n        uint256 executedOrderId = 0;\n        if (currentPrice <= highestPriceOfBuy) {\n            executedOrderId = orderIdOfBuy;\n        } else if (currentPrice > lowestPriceOfSell) {\n            executedOrderId = orderIdOfSell;\n        }\n        if (executedOrderId > 0) {  \n            executeInnerOrder(executedOrderId);\n            return true;\n        }\n        return false;\n    }\n    \n    // \n    // \n    function checkOrderList() public {\n        uint256 maxNumberPerAMMSwap = exManager.maxNumberPerAMMSwap();\n        while(maxNumberPerAMMSwap-- > 0) {\n            bool result = executeHeaderOrder();\n            if (!result) break;\n        }\n    }\n    \n    function cancelOrder(uint256 _orderId) public returns(bool) {\n        setManualCancelOrder(_orderId); \n    }\n    \n}",
  "sourcePath": "/Users/sam/go/src/github.com/bobo-metaverse/boboswap-contract/contracts/PairTest.sol",
  "compiler": {
    "name": "solc",
    "version": "0.6.12+commit.27d51765.Emscripten.clang"
  },
  "schemaVersion": "3.3.1",
  "updatedAt": "2021-08-04T10:21:29.904Z",
  "devdoc": {
    "kind": "dev",
    "methods": {
      "owner()": {
        "details": "Returns the address of the current owner."
      },
      "renounceOwnership()": {
        "details": "Leaves the contract without owner. It will not be possible to call `onlyOwner` functions anymore. Can only be called by the current owner. NOTE: Renouncing ownership will leave the contract without an owner, thereby removing any functionality that is only available to the owner."
      },
      "transferOwnership(address)": {
        "details": "Transfers ownership of the contract to a new account (`newOwner`). Can only be called by the current owner."
      }
    },
    "version": 1
  },
  "userdoc": {
    "kind": "user",
    "methods": {},
    "version": 1
  }
}