{
  "contractName": "BoboFactoryOnMatic",
  "abi": [
    {
      "inputs": [
        {
          "internalType": "address",
          "name": "_orderNFT",
          "type": "address"
        },
        {
          "internalType": "address",
          "name": "_orderDetailNFT",
          "type": "address"
        },
        {
          "internalType": "address",
          "name": "_boboFarmer",
          "type": "address"
        },
        {
          "internalType": "address",
          "name": "_exManager",
          "type": "address"
        },
        {
          "internalType": "address",
          "name": "_boboRouter",
          "type": "address"
        }
      ],
      "stateMutability": "nonpayable",
      "type": "constructor"
    },
    {
      "anonymous": false,
      "inputs": [
        {
          "indexed": true,
          "internalType": "address",
          "name": "previousOwner",
          "type": "address"
        },
        {
          "indexed": true,
          "internalType": "address",
          "name": "newOwner",
          "type": "address"
        }
      ],
      "name": "OwnershipTransferred",
      "type": "event"
    },
    {
      "anonymous": false,
      "inputs": [
        {
          "indexed": true,
          "internalType": "address",
          "name": "quoteToken",
          "type": "address"
        },
        {
          "indexed": true,
          "internalType": "address",
          "name": "baseToken",
          "type": "address"
        },
        {
          "indexed": false,
          "internalType": "address",
          "name": "pairAddr",
          "type": "address"
        }
      ],
      "name": "PairCreated",
      "type": "event"
    },
    {
      "inputs": [],
      "name": "USDC",
      "outputs": [
        {
          "internalType": "address",
          "name": "",
          "type": "address"
        }
      ],
      "stateMutability": "view",
      "type": "function"
    },
    {
      "inputs": [],
      "name": "USDT",
      "outputs": [
        {
          "internalType": "address",
          "name": "",
          "type": "address"
        }
      ],
      "stateMutability": "view",
      "type": "function"
    },
    {
      "inputs": [],
      "name": "WMATIC",
      "outputs": [
        {
          "internalType": "address",
          "name": "",
          "type": "address"
        }
      ],
      "stateMutability": "view",
      "type": "function"
    },
    {
      "inputs": [
        {
          "internalType": "uint256",
          "name": "",
          "type": "uint256"
        }
      ],
      "name": "allPairs",
      "outputs": [
        {
          "internalType": "address",
          "name": "",
          "type": "address"
        }
      ],
      "stateMutability": "view",
      "type": "function"
    },
    {
      "inputs": [
        {
          "internalType": "address",
          "name": "",
          "type": "address"
        },
        {
          "internalType": "uint256",
          "name": "",
          "type": "uint256"
        }
      ],
      "name": "baseTokenPairs",
      "outputs": [
        {
          "internalType": "address",
          "name": "",
          "type": "address"
        }
      ],
      "stateMutability": "view",
      "type": "function"
    },
    {
      "inputs": [],
      "name": "boboFarmer",
      "outputs": [
        {
          "internalType": "contract IBoboFarmer",
          "name": "",
          "type": "address"
        }
      ],
      "stateMutability": "view",
      "type": "function"
    },
    {
      "inputs": [],
      "name": "boboRouter",
      "outputs": [
        {
          "internalType": "address",
          "name": "",
          "type": "address"
        }
      ],
      "stateMutability": "view",
      "type": "function"
    },
    {
      "inputs": [],
      "name": "exManager",
      "outputs": [
        {
          "internalType": "address",
          "name": "",
          "type": "address"
        }
      ],
      "stateMutability": "view",
      "type": "function"
    },
    {
      "inputs": [
        {
          "internalType": "address",
          "name": "",
          "type": "address"
        },
        {
          "internalType": "address",
          "name": "",
          "type": "address"
        }
      ],
      "name": "getPair",
      "outputs": [
        {
          "internalType": "address",
          "name": "",
          "type": "address"
        }
      ],
      "stateMutability": "view",
      "type": "function"
    },
    {
      "inputs": [],
      "name": "orderDetailNFT",
      "outputs": [
        {
          "internalType": "address",
          "name": "",
          "type": "address"
        }
      ],
      "stateMutability": "view",
      "type": "function"
    },
    {
      "inputs": [],
      "name": "orderNFT",
      "outputs": [
        {
          "internalType": "address",
          "name": "",
          "type": "address"
        }
      ],
      "stateMutability": "view",
      "type": "function"
    },
    {
      "inputs": [],
      "name": "owner",
      "outputs": [
        {
          "internalType": "address",
          "name": "",
          "type": "address"
        }
      ],
      "stateMutability": "view",
      "type": "function"
    },
    {
      "inputs": [],
      "name": "renounceOwnership",
      "outputs": [],
      "stateMutability": "nonpayable",
      "type": "function"
    },
    {
      "inputs": [
        {
          "internalType": "address",
          "name": "newOwner",
          "type": "address"
        }
      ],
      "name": "transferOwnership",
      "outputs": [],
      "stateMutability": "nonpayable",
      "type": "function"
    },
    {
      "inputs": [
        {
          "internalType": "address",
          "name": "_boboFarmer",
          "type": "address"
        },
        {
          "internalType": "address",
          "name": "_exManager",
          "type": "address"
        },
        {
          "internalType": "address",
          "name": "_boboRouter",
          "type": "address"
        }
      ],
      "name": "setAddresses",
      "outputs": [],
      "stateMutability": "nonpayable",
      "type": "function"
    },
    {
      "inputs": [
        {
          "internalType": "address",
          "name": "_quoteToken",
          "type": "address"
        },
        {
          "internalType": "address",
          "name": "_baseToken",
          "type": "address"
        }
      ],
      "name": "createPair",
      "outputs": [
        {
          "internalType": "address",
          "name": "pairAddr",
          "type": "address"
        }
      ],
      "stateMutability": "nonpayable",
      "type": "function"
    },
    {
      "inputs": [],
      "name": "pairNumber",
      "outputs": [
        {
          "internalType": "uint256",
          "name": "",
          "type": "uint256"
        }
      ],
      "stateMutability": "view",
      "type": "function"
    },
    {
      "inputs": [
        {
          "internalType": "address",
          "name": "_quoteToken",
          "type": "address"
        },
        {
          "internalType": "address",
          "name": "_baseToken",
          "type": "address"
        },
        {
          "internalType": "address",
          "name": "_auth",
          "type": "address"
        }
      ],
      "name": "addPairAuth",
      "outputs": [],
      "stateMutability": "nonpayable",
      "type": "function"
    },
    {
      "inputs": [
        {
          "internalType": "address",
          "name": "_baseToken",
          "type": "address"
        }
      ],
      "name": "getBaseTokenPairLength",
      "outputs": [
        {
          "internalType": "uint256",
          "name": "",
          "type": "uint256"
        }
      ],
      "stateMutability": "view",
      "type": "function"
    },
    {
      "inputs": [
        {
          "internalType": "address",
          "name": "_baseToken",
          "type": "address"
        },
        {
          "internalType": "address",
          "name": "_userAddr",
          "type": "address"
        }
      ],
      "name": "getTotalHangingTokenAmount",
      "outputs": [
        {
          "internalType": "uint256",
          "name": "",
          "type": "uint256"
        }
      ],
      "stateMutability": "view",
      "type": "function"
    },
    {
      "inputs": [
        {
          "internalType": "address",
          "name": "_baseToken",
          "type": "address"
        },
        {
          "internalType": "address",
          "name": "_userAddr",
          "type": "address"
        }
      ],
      "name": "getClaimBaseTokenAmount",
      "outputs": [
        {
          "internalType": "uint256",
          "name": "",
          "type": "uint256"
        }
      ],
      "stateMutability": "view",
      "type": "function"
    },
    {
      "inputs": [
        {
          "internalType": "address",
          "name": "_baseToken",
          "type": "address"
        }
      ],
      "name": "claimBaseToken",
      "outputs": [],
      "stateMutability": "nonpayable",
      "type": "function"
    }
  ],
  "bytecode": "0x608060405234801561001057600080fd5b5060405161601d38038061601d833981810160405260a081101561003357600080fd5b50805160208201516040830151606084015160809094015192939192909190600061005c610108565b600080546001600160a01b0319166001600160a01b0383169081178255604051929350917f8be0079c531659141344cd1fd0a4f28419497f9722a3daafe3b4186f6b6457e0908290a350600580546001600160a01b03199081166001600160a01b0397881617909155600680548216958716959095179094556004805485169386169390931790925560078054841691851691909117905560088054909216921691909117905561010c565b3390565b615f028061011b6000396000f3fe60806040523480156200001157600080fd5b5060043610620001605760003560e01c8063acd17aaa11620000c9578063d23adceb1162000087578063d23adceb146200035e578063d4d728da146200038f578063e6a439051462000399578063f08f1ba914620003ca578063f2fde38b14620003d4578063fb1157ce14620003fd5762000160565b8063acd17aaa14620002bf578063b8005df314620002c9578063c54e44eb14620002f2578063c9c6539614620002fc578063cd0e17de146200032d5762000160565b8063715018a61162000123578063715018a6146200022d57806375b3a1f9146200023757806389a3027114620002725780638da5cb5b146200027c57806397d8739314620002865780639d919ad914620002905762000160565b80631960e23214620001655780631e3dd18b146200018b578063363bf96414620001ab5780634d95cad914620001e857806356fb75ea14620001f2575b600080fd5b6200016f62000407565b604080516001600160a01b039092168252519081900360200190f35b6200016f60048036036020811015620001a357600080fd5b503562000416565b620001e660048036036060811015620001c357600080fd5b506001600160a01b0381358116916020810135821691604090910135166200043e565b005b6200016f62000523565b620001e6600480360360608110156200020a57600080fd5b506001600160a01b0381358116916020810135821691604090910135166200053b565b620001e662000696565b62000260600480360360208110156200024f57600080fd5b50356001600160a01b03166200073c565b60408051918252519081900360200190f35b6200016f62000757565b6200016f6200076f565b6200016f6200077e565b6200016f60048036036040811015620002a857600080fd5b506001600160a01b0381351690602001356200078d565b6200016f620007c3565b620001e660048036036020811015620002e157600080fd5b50356001600160a01b0316620007d2565b6200016f62000a5b565b6200016f600480360360408110156200031457600080fd5b506001600160a01b038135811691602001351662000a73565b62000260600480360360408110156200034557600080fd5b506001600160a01b038135811691602001351662000edd565b62000260600480360360408110156200037657600080fd5b506001600160a01b038135811691602001351662000f8d565b6200016f620010ed565b6200016f60048036036040811015620003b157600080fd5b506001600160a01b0381358116916020013516620010fc565b6200026062001122565b620001e660048036036020811015620003ec57600080fd5b50356001600160a01b031662001128565b6200016f62001226565b6004546001600160a01b031681565b600181815481106200042457fe5b6000918252602090912001546001600160a01b0316905081565b6200044862001235565b6000546001600160a01b039081169116146200049a576040805162461bcd60e51b8152602060048201819052602482015260008051602062005ead833981519152604482015290519081900360640190fd5b6001600160a01b03831615620004c657600480546001600160a01b0319166001600160a01b0385161790555b6001600160a01b03821615620004f257600780546001600160a01b0319166001600160a01b0384161790555b6001600160a01b038116156200051e57600880546001600160a01b0319166001600160a01b0383161790555b505050565b730d500b1d8e8ef31e21c99d1db9a6444d3adf127081565b6200054562001235565b6000546001600160a01b0390811691161462000597576040805162461bcd60e51b8152602060048201819052602482015260008051602062005ead833981519152604482015290519081900360640190fd5b6001600160a01b0380841660009081526002602090815260408083208685168452909152902054168062000612576040805162461bcd60e51b815260206004820152601c60248201527f426f626f466163746f72793a20504149525f4e4f545f45584953545300000000604482015290519081900360640190fd5b806001600160a01b031663cf1c316a836040518263ffffffff1660e01b815260040180826001600160a01b03168152602001915050602060405180830381600087803b1580156200066257600080fd5b505af115801562000677573d6000803e3d6000fd5b505050506040513d60208110156200068e57600080fd5b505050505050565b620006a062001235565b6000546001600160a01b03908116911614620006f2576040805162461bcd60e51b8152602060048201819052602482015260008051602062005ead833981519152604482015290519081900360640190fd5b600080546040516001600160a01b03909116907f8be0079c531659141344cd1fd0a4f28419497f9722a3daafe3b4186f6b6457e0908390a3600080546001600160a01b0319169055565b6001600160a01b031660009081526003602052604090205490565b732791bca1f2de4661ed88a30c99a7a9449aa8417481565b6000546001600160a01b031690565b6007546001600160a01b031681565b60036020528160005260406000208181548110620007a757fe5b6000918252602090912001546001600160a01b03169150829050565b6008546001600160a01b031681565b6000620007e0823362000edd565b90506000600460009054906101000a90046001600160a01b03166001600160a01b031663e6a08025846040518263ffffffff1660e01b815260040180826001600160a01b0316815260200191505060206040518083038186803b1580156200084757600080fd5b505afa1580156200085c573d6000803e3d6000fd5b505050506040513d60208110156200087357600080fd5b5051111562000a57576000826001600160a01b03166370a08231306040518263ffffffff1660e01b815260040180826001600160a01b0316815260200191505060206040518083038186803b158015620008cc57600080fd5b505afa158015620008e1573d6000803e3d6000fd5b505050506040513d6020811015620008f857600080fd5b50516004805460408051636ce5768960e11b81526001600160a01b038881169482019490945233602482015260448101879052905193945091169163d9caed129160648082019260009290919082900301818387803b1580156200095b57600080fd5b505af115801562000970573d6000803e3d6000fd5b505050506000836001600160a01b03166370a08231306040518263ffffffff1660e01b815260040180826001600160a01b0316815260200191505060206040518083038186803b158015620009c457600080fd5b505afa158015620009d9573d6000803e3d6000fd5b505050506040513d6020811015620009f057600080fd5b505190506001600160a01b03841663a9059cbb3362000a10848662001239565b6040518363ffffffff1660e01b815260040180836001600160a01b0316815260200182815260200192505050602060405180830381600087803b1580156200066257600080fd5b5050565b73c2132d05d31c914a87c6611c10748aeb04b58e8f81565b600062000a7f62001235565b6000546001600160a01b0390811691161462000ad1576040805162461bcd60e51b8152602060048201819052602482015260008051602062005ead833981519152604482015290519081900360640190fd5b816001600160a01b0316836001600160a01b0316141562000b39576040805162461bcd60e51b815260206004820181905260248201527f426f626f466163746f72793a204944454e544943414c5f414444524553534553604482015290519081900360640190fd5b6001600160a01b03831662000b95576040805162461bcd60e51b815260206004820152601960248201527f426f626f466163746f72793a205a45524f5f4144445245535300000000000000604482015290519081900360640190fd5b6001600160a01b0383811660009081526002602090815260408083208685168452909152902054161562000c10576040805162461bcd60e51b815260206004820152601860248201527f426f626f466163746f72793a20504149525f4558495354530000000000000000604482015290519081900360640190fd5b60606040518060200162000c24906200137a565b6020820181038252601f19601f8201166040525090506000848460405160200180836001600160a01b031660601b8152601401826001600160a01b031660601b815260140192505050604051602081830303815290604052805190602001209050808251602084016000f5600480546005546006546040805163cc2a9a5b60e01b81526001600160a01b038c8116968201969096528a8616602482015233604482015293851660648501529184166084840152831660a4830152519295509085169163cc2a9a5b9160c48082019260009290919082900301818387803b15801562000d0e57600080fd5b505af115801562000d23573d6000803e3d6000fd5b505060075460408051631d33a31960e31b81526001600160a01b0392831660048201529051918716935063e99d18c8925060248082019260009290919082900301818387803b15801562000d7657600080fd5b505af115801562000d8b573d6000803e3d6000fd5b50506008546040805163c0d7865560e01b81526001600160a01b0392831660048201529051918716935063c0d78655925060248082019260009290919082900301818387803b15801562000dde57600080fd5b505af115801562000df3573d6000803e3d6000fd5b5050506001600160a01b0380871660008181526002602081815260408084208b87168086529083528185208054978c166001600160a01b03199889168117909155938352818520868652835281852080548816851790556001805480820182557fb10e2d527612073b26eecdfd717e6a320cf44b4afac2b0732d9fcbe2b7fa0cf60180548916861790558186526003845282862080549182018155865294839020909401805490961685179095558451918252935191945091927fa92a2b95c8d8436f6ac4c673c61487364f877efb9534d4296fad8ef904546c94928290030190a3505092915050565b600480546040805163d0f2ced160e01b81526001600160a01b0386811694820194909452848416602482015290516000938493169163d0f2ced1916044808301926020929190829003018186803b15801562000f3857600080fd5b505afa15801562000f4d573d6000803e3d6000fd5b505050506040513d602081101562000f6457600080fd5b50519050600062000f76858562000f8d565b905062000f84828262001239565b95945050505050565b6001600160a01b03821660009081526003602090815260408083208054825181850281018501909352808352849360609392919083018282801562000ffc57602002820191906000526020600020905b81546001600160a01b0316815260019091019060200180831162000fdd575b5050505050905060005b8151811015620010e3576000600260008484815181106200102357fe5b6020908102919091018101516001600160a01b03908116835282820193909352604091820160009081208b8516825290915281812054825163761a90a760e11b81528a8516600482015283519190941694509092849263ec35214e92602480840193829003018186803b1580156200109a57600080fd5b505afa158015620010af573d6000803e3d6000fd5b505050506040513d6040811015620010c657600080fd5b50519050620010d6858262001284565b9450505060010162001006565b5090949350505050565b6005546001600160a01b031681565b60026020908152600092835260408084209091529082529020546001600160a01b031681565b60015490565b6200113262001235565b6000546001600160a01b0390811691161462001184576040805162461bcd60e51b8152602060048201819052602482015260008051602062005ead833981519152604482015290519081900360640190fd5b6001600160a01b038116620011cb5760405162461bcd60e51b815260040180806020018281038252602681526020018062005e876026913960400191505060405180910390fd5b600080546040516001600160a01b03808516939216917f8be0079c531659141344cd1fd0a4f28419497f9722a3daafe3b4186f6b6457e091a3600080546001600160a01b0319166001600160a01b0392909216919091179055565b6006546001600160a01b031681565b3390565b60006200127d83836040518060400160405280601e81526020017f536166654d6174683a207375627472616374696f6e206f766572666c6f770000815250620012df565b9392505050565b6000828201838110156200127d576040805162461bcd60e51b815260206004820152601b60248201527f536166654d6174683a206164646974696f6e206f766572666c6f770000000000604482015290519081900360640190fd5b60008184841115620013725760405162461bcd60e51b81526004018080602001828103825283818151815260200191508051906020019080838360005b83811015620013365781810151838201526020016200131c565b50505050905090810190601f168015620013645780820380516001836020036101000a031916815260200191505b509250505060405180910390fd5b505050900390565b614afe80620013898339019056fe60806040523480156200001157600080fd5b5060006200001e62000098565b600080546001600160a01b0319166001600160a01b0383169081178255604051929350917f8be0079c531659141344cd1fd0a4f28419497f9722a3daafe3b4186f6b6457e0908290a350600b80546001600160a01b0319163390811790915562000088906200009c565b504260118190556012556200023f565b3390565b6000620000a862000098565b6000546001600160a01b03908116911614620000e15760405162461bcd60e51b8152600401620000d890620001ad565b60405180910390fd5b6001600160a01b0382166200010a5760405162461bcd60e51b8152600401620000d890620001e2565b620001226001836200012860201b62001fa61760201c565b92915050565b60006200013f836001600160a01b03841662000146565b9392505050565b600062000154838362000195565b6200018c5750815460018181018455600084815260208082209093018490558454848252828601909352604090209190915562000122565b50600062000122565b60009081526001919091016020526040902054151590565b6020808252818101527f4f776e61626c653a2063616c6c6572206973206e6f7420746865206f776e6572604082015260600190565b60208082526035908201527f4d6978696e417574686f72697a61626c653a205f616464417574686f72697a6560408201527f6420697320746865207a65726f20616464726573730000000000000000000000606082015260800190565b6148af806200024f6000396000f3fe608060405234801561001057600080fd5b50600436106102a05760003560e01c8063952c70fb11610167578063cf1c316a116100ce578063ec35214e11610087578063ec35214e14610536578063f0d3ddea14610557578063f1f07cc91461055f578063f2fde38b14610567578063fb1157ce1461057a578063fe9fbb8014610582576102a0565b8063cf1c316a146104da578063d4d728da146104ed578063dd4ee565146104f5578063e5538b9514610508578063e99d18c81461051b578063eb91d37e1461052e576102a0565b8063c0d7865511610120578063c0d786551461047e578063c45a015514610491578063c55dae6314610499578063c63cc564146104a1578063cc2a9a5b146104b4578063cd5a8778146104c7576102a0565b8063952c70fb1461042a57806397d873931461043d5780639eedc49214610445578063aa6ca8081461044d578063acd17aaa14610463578063b35ac8b21461046b576102a0565b80634b92031d1161020b5780636b6f1320116101c45780636b6f1320146103fa578063715018a61461040257806378e979251461040a57806382aa1c88146104125780638a2061171461041a5780638da5cb5b14610422576102a0565b80634b92031d146103865780634bba805014610399578063514fcac7146103ac57806359fc7223146103bf5780635cbffe78146103df5780635f0a1feb146103e7576102a0565b806327624b071161025d57806327624b07146103265780632d6111311461032e57806331a40b62146103415780633397e52714610361578063392da1b014610369578063428011e414610371576102a0565b80630ff4c916146102a557806310ca5805146102ce578063150b7a02146102d65780631960e232146102f65780631b1148171461030b578063217a4b701461031e575b600080fd5b6102b86102b3366004613d99565b610595565b6040516102c591906146c1565b60405180910390f35b6102b861063d565b6102e96102e43660046139d6565b610645565b6040516102c591906140d6565b6102fe610656565b6040516102c59190613ee0565b6102b8610319366004613a78565b610665565b6102fe610693565b6102b86106a2565b6102b861033c366004613939565b6106a8565b61035461034f366004613939565b6106c3565b6040516102c591906140cb565b6102b861073a565b6102b861074c565b61038461037f366004613c3c565b610752565b005b6102b8610394366004613a78565b610d33565b6102b86103a7366004613d99565b610d5c565b6103546103ba366004613d99565b610ddd565b6103d26103cd366004613c1d565b6110b3565b6040516102c59190613fc7565b6103546112a2565b6103d26103f5366004613aa3565b61134f565b6102b86114e0565b6103846114e7565b6102b8611566565b6102b861156c565b6102b8611572565b6102fe611578565b6102b8610438366004613c76565b611587565b6102fe6115a0565b6102b86115af565b6104556115b5565b6040516102c5929190613f18565b6102fe6115cc565b6102b8610479366004613be5565b6115db565b61038461048c366004613939565b6115f5565b6102fe61163c565b6102fe61164b565b6102fe6104af366004613d99565b61165a565b6103846104c2366004613955565b611691565b6102b86104d5366004613939565b61183e565b6103546104e8366004613939565b61185f565b6102fe6118c7565b6102b8610503366004613d99565b6118d6565b610384610516366004613c1d565b6118f4565b610384610529366004613939565b611c14565b6102b8611c5b565b610549610544366004613939565b611d27565b6040516102c592919061475f565b610384611e23565b6102b8611ece565b610384610575366004613939565b611ed4565b6102fe611f8a565b610354610590366004613939565b611f99565b6000816105a457506000610638565b6105ac6136d0565b60035460405163d311636b60e01b81526001600160a01b039091169063d311636b906105dc9086906004016146c1565b60006040518083038186803b1580156105f457600080fd5b505afa158015610608573d6000803e3d6000fd5b505050506040513d6000823e601f3d908101601f191682016040526106309190810190613c93565b608001519150505b919050565b633b9aca0081565b630a85bd0160e11b5b949350505050565b600a546001600160a01b031681565b6005602052816000526040600020818154811061067e57fe5b90600052602060002001600091509150505481565b600d546001600160a01b031681565b600f5481565b6001600160a01b031660009081526005602052604090205490565b60006106cd611fbb565b6000546001600160a01b039081169116146107035760405162461bcd60e51b81526004016106fa9061442b565b60405180910390fd5b6001600160a01b0382166107295760405162461bcd60e51b81526004016106fa9061452a565b610734600183611fbf565b92915050565b60006107466001611fd4565b90505b90565b60135481565b6103e88111156107745760405162461bcd60e51b81526004016106fa906143a6565b600084156107b9576107b26127106107a684612710036107ac886107a6600f54600a0a8a611fdf90919063ffffffff16565b90612019565b90611fdf565b90506107e6565b6107e36127106107a684612710036107ac601054600a0a6107a68a8a611fdf90919063ffffffff16565b90505b60006107f48686868561205b565b90506000808761081657600d54600e546001600160a01b03918216911661082a565b600e54600d546001600160a01b0391821691165b600954604051633ba7c4f760e11b81529294509092506001600160a01b03169063774f89ee9061085e908590600401613ee0565b60206040518083038186803b15801561087657600080fd5b505afa15801561088a573d6000803e3d6000fd5b505050506040513d601f19601f820116820180604052508101906108ae9190613db1565b8610156108cd5760405162461bcd60e51b81526004016106fa906142b8565b600954604051630f74f4f360e11b81526000916001600160a01b031690631ee9e9e69061090290339087908c90600401613ef4565b604080518083038186803b15801561091957600080fd5b505afa15801561092d573d6000803e3d6000fd5b505050506040513d601f19601f820116820180604052508101906109519190613dc9565b50905061095c613750565b600c546001600160a01b03166313684f1885856109798c8761213f565b6040518463ffffffff1660e01b815260040161099793929190613ef4565b60006040518083038186803b1580156109af57600080fd5b505afa1580156109c3573d6000803e3d6000fd5b505050506040513d6000823e601f3d908101601f191682016040526109eb9190810190613ad7565b91505085816000015110610b2f57600954604051633418ea4560e11b81526000916001600160a01b031690636831d48a90610a2e90339089908e90600401613ef4565b602060405180830381600087803b158015610a4857600080fd5b505af1158015610a5c573d6000803e3d6000fd5b505050506040513d601f19601f82011682018060405250810190610a809190613db1565b90508015610b10576009546040516323b872dd60e01b81526001600160a01b03808816926323b872dd92610abc92339216908690600401613ef4565b602060405180830381600087803b158015610ad657600080fd5b505af1158015610aea573d6000803e3d6000fd5b505050506040513d601f19601f82011682018060405250810190610b0e9190613c01565b505b610b2886838787610b218e8761213f565b6000612181565b5050610d27565b6040516323b872dd60e01b81526001600160a01b038516906323b872dd90610b5f90339030908d90600401613ef4565b602060405180830381600087803b158015610b7957600080fd5b505af1158015610b8d573d6000803e3d6000fd5b505050506040513d601f19601f82011682018060405250810190610bb19190613c01565b50600a5460405163e6a0802560e01b81526000916001600160a01b03169063e6a0802590610be3908890600401613ee0565b60206040518083038186803b158015610bfb57600080fd5b505afa158015610c0f573d6000803e3d6000fd5b505050506040513d601f19601f82011682018060405250810190610c339190613db1565b1115610d2757600a5460405163095ea7b360e01b81526001600160a01b038681169263095ea7b392610c6d92909116908c90600401613f68565b602060405180830381600087803b158015610c8757600080fd5b505af1158015610c9b573d6000803e3d6000fd5b505050506040513d601f19601f82011682018060405250810190610cbf9190613c01565b50600a54604051638340f54960e01b81526001600160a01b0390911690638340f54990610cf490879033908d90600401613ef4565b600060405180830381600087803b158015610d0e57600080fd5b505af1158015610d22573d6000803e3d6000fd5b505050505b50505050505050505050565b6001600160a01b0382166000908152600660205260408120610d559083612527565b9392505050565b6003546040516304bba80560e41b81526000916001600160a01b031690634bba805090610d8d9085906004016146c1565b60206040518083038186803b158015610da557600080fd5b505afa158015610db9573d6000803e3d6000fd5b505050506040513d601f19601f820116820180604052508101906107349190613db1565b6000610de882612533565b50610df16136d0565b60035460405163d311636b60e01b81526001600160a01b039091169063d311636b90610e219086906004016146c1565b60006040518083038186803b158015610e3957600080fd5b505afa158015610e4d573d6000803e3d6000fd5b505050506040513d6000823e601f3d908101601f19168201604052610e759190810190613c93565b905060008160600151610e9357600d546001600160a01b0316610ea0565b600e546001600160a01b03165b600a5460405163e6a0802560e01b81529192506000916001600160a01b039091169063e6a0802590610ed6908590600401613ee0565b60206040518083038186803b158015610eee57600080fd5b505afa158015610f02573d6000803e3d6000fd5b505050506040513d601f19601f82011682018060405250810190610f269190613db1565b111561102457600a54602083015160a0840151604051636ce5768960e11b81526001600160a01b039093169263d9caed1292610f66928692600401613ef4565b600060405180830381600087803b158015610f8057600080fd5b505af1158015610f94573d6000803e3d6000fd5b50505050602082015160a083015160405163a9059cbb60e01b81526001600160a01b0384169263a9059cbb92610fcc92600401613f68565b602060405180830381600087803b158015610fe657600080fd5b505af1158015610ffa573d6000803e3d6000fd5b505050506040513d601f19601f8201168201806040525081019061101e9190613c01565b506110ac565b602082015160a083015160405163a9059cbb60e01b81526001600160a01b0384169263a9059cbb9261105892600401613f68565b602060405180830381600087803b15801561107257600080fd5b505af1158015611086573d6000803e3d6000fd5b505050506040513d601f19601f820116820180604052508101906110aa9190613c01565b505b5050919050565b8215156000908152600760205260408120606091906110d1906126ea565b9050808311156110df578092505b8284106110fe5760405162461bcd60e51b81526004016106fa90614364565b83830367ffffffffffffffff8111801561111757600080fd5b5060405190808252806020026020018201604052801561115157816020015b61113e6136d0565b8152602001906001900390816111365790505b508515156000908152600760205260408120919350908190819061117590826126ee565b915091505b85831080156111865750815b1561129757868310156111be5787151560009081526007602052604090206111ae90826126ee565b600190940193909250905061117a565b6111c66136d0565b60035460405163d311636b60e01b81526001600160a01b039091169063d311636b906111f69085906004016146c1565b60006040518083038186803b15801561120e57600080fd5b505afa158015611222573d6000803e3d6000fd5b505050506040513d6000823e601f3d908101601f1916820160405261124a9190810190613c93565b905080868986038151811061125b57fe5b602090810291909101810191909152891515600090815260079091526040902061128590836126ee565b600190950194909350915061117a9050565b505050509392505050565b6000806112ad611c5b565b90506000806112bc6001612708565b915091506000826112ce5760006112d7565b6112d782610595565b90506000806112e66000612708565b915091506000826112f957600019611302565b61130282610595565b9050600084881161131457508461131f565b8188111561131f5750815b80156113405761132e81612730565b50600198505050505050505050610749565b60009850505050505050505090565b6001600160a01b03831660009081526006602052604081206060919061137490611fd4565b905080831115611382578092505b8284106113a15760405162461bcd60e51b81526004016106fa90614364565b83830367ffffffffffffffff811180156113ba57600080fd5b506040519080825280602002602001820160405280156113f457816020015b6113e16136d0565b8152602001906001900390816113d95790505b509150835b838110156114d7576001600160a01b03861660009081526006602052604081206114239083612527565b905061142d6136d0565b60035460405163d311636b60e01b81526001600160a01b039091169063d311636b9061145d9085906004016146c1565b60006040518083038186803b15801561147557600080fd5b505afa158015611489573d6000803e3d6000fd5b505050506040513d6000823e601f3d908101601f191682016040526114b19190810190613c93565b90508085888503815181106114c257fe5b602090810291909101015250506001016113f9565b50509392505050565b6201518081565b6114ef611fbb565b6000546001600160a01b0390811691161461151c5760405162461bcd60e51b81526004016106fa9061442b565b600080546040516001600160a01b03909116907f8be0079c531659141344cd1fd0a4f28419497f9722a3daafe3b4186f6b6457e0908390a3600080546001600160a01b0319169055565b60115481565b60105481565b60125481565b6000546001600160a01b031690565b6008602052816000526040600020818154811061067e57fe5b6009546001600160a01b031681565b61271081565b600d54600e546001600160a01b0391821691169091565b600c546001600160a01b031681565b8015156000908152600760205260408120610734906126ea565b6115fe33611f99565b61161a5760405162461bcd60e51b81526004016106fa906144a6565b600c80546001600160a01b0319166001600160a01b0392909216919091179055565b600b546001600160a01b031681565b600e546001600160a01b031681565b6000600161166661073a565b038211156116865760405162461bcd60e51b81526004016106fa90614460565b610734600183612527565b611699611fbb565b6000546001600160a01b039081169116146116c65760405162461bcd60e51b81526004016106fa9061442b565b600d80546001600160a01b038089166001600160a01b03199283161792839055600e80548983169316929092179091556040805163313ce56760e01b81529051929091169163313ce56791600480820192602092909190829003018186803b15801561173157600080fd5b505afa158015611745573d6000803e3d6000fd5b505050506040513d601f19601f820116820180604052508101906117699190613dec565b60ff16600f55600e546040805163313ce56760e01b815290516001600160a01b039092169163313ce56791600480820192602092909190829003018186803b1580156117b457600080fd5b505afa1580156117c8573d6000803e3d6000fd5b505050506040513d601f19601f820116820180604052508101906117ec9190613dec565b60ff166010556117fb8461185f565b50600a80546001600160a01b039485166001600160a01b031991821617909155600380549385169382169390931790925560048054919093169116179055505050565b6001600160a01b038116600090815260066020526040812061073490611fd4565b6000611869611fbb565b6000546001600160a01b039081169116146118965760405162461bcd60e51b81526004016106fa9061442b565b6001600160a01b0382166118bc5760405162461bcd60e51b81526004016106fa906144d5565b610734600183611fa6565b6003546001600160a01b031681565b601581815481106118e357fe5b600091825260209091200154905081565b6000808461191457600d54600e546001600160a01b039182169116611928565b600e54600d546001600160a01b0391821691165b600954604051633ba7c4f760e11b81529294509092506001600160a01b03169063774f89ee9061195c908590600401613ee0565b60206040518083038186803b15801561197457600080fd5b505afa158015611988573d6000803e3d6000fd5b505050506040513d601f19601f820116820180604052508101906119ac9190613db1565b8410156119cb5760405162461bcd60e51b81526004016106fa906142b8565b600954604051633418ea4560e11b81526000916001600160a01b031690636831d48a90611a0090339087908a90600401613ef4565b602060405180830381600087803b158015611a1a57600080fd5b505af1158015611a2e573d6000803e3d6000fd5b505050506040513d601f19601f82011682018060405250810190611a529190613db1565b90508015611ae2576009546040516323b872dd60e01b81526001600160a01b03808616926323b872dd92611a8e92339216908690600401613ef4565b602060405180830381600087803b158015611aa857600080fd5b505af1158015611abc573d6000803e3d6000fd5b505050506040513d601f19601f82011682018060405250810190611ae09190613c01565b505b611aec858261213f565b9450611af6613750565b600c5460405163026d09e360e31b81526001600160a01b03909116906313684f1890611b2a90879087908b90600401613ef4565b60006040518083038186803b158015611b4257600080fd5b505afa158015611b56573d6000803e3d6000fd5b505050506040513d6000823e601f3d908101601f19168201604052611b7e9190810190613ad7565b9150508481600001511015611ba55760405162461bcd60e51b81526004016106fa9061421a565b84611baf57805194505b600087611bd757611bd2876107a6600f54600a0a89611fdf90919063ffffffff16565b611bf3565b611bf3866107a6600f54600a0a8a611fdf90919063ffffffff16565b90506000611c0389838a8a61205b565b9050610d27818488888c6000612181565b611c1d33611f99565b611c395760405162461bcd60e51b81526004016106fa906144a6565b600980546001600160a01b0319166001600160a01b0392909216919091179055565b6000611c65613750565b600c54600e54600d5460405163026d09e360e31b81526001600160a01b03938416936313684f1893611ca69390821692911690633b9aca0090600401613ef4565b60006040518083038186803b158015611cbe57600080fd5b505afa158015611cd2573d6000803e3d6000fd5b505050506040513d6000823e601f3d908101601f19168201604052611cfa9190810190613ad7565b8051600f549193509150600090611d1f9083906107a690633b9aca0090600a0a611fdf565b935050505090565b6000806000611d358461183e565b905060005b81811015611e1c576000611d4e8683610d33565b9050611d586136d0565b60035460405163d311636b60e01b81526001600160a01b039091169063d311636b90611d889085906004016146c1565b60006040518083038186803b158015611da057600080fd5b505afa158015611db4573d6000803e3d6000fd5b505050506040513d6000823e601f3d908101601f19168201604052611ddc9190810190613c93565b9050806060015115611dff5760a0810151611df8908790612b0b565b9550611e12565b60a0810151611e0f908690612b0b565b94505b5050600101611d3a565b5050915091565b6009546040805163fd08be6760e01b815290516000926001600160a01b03169163fd08be67916004808301926020929190829003018186803b158015611e6857600080fd5b505afa158015611e7c573d6000803e3d6000fd5b505050506040513d601f19601f82011682018060405250810190611ea09190613db1565b90505b60001981019015611ecb576000611eb86112a2565b905080611ec55750611ecb565b50611ea3565b50565b60145481565b611edc611fbb565b6000546001600160a01b03908116911614611f095760405162461bcd60e51b81526004016106fa9061442b565b6001600160a01b038116611f2f5760405162461bcd60e51b81526004016106fa9061419d565b600080546040516001600160a01b03808516939216917f8be0079c531659141344cd1fd0a4f28419497f9722a3daafe3b4186f6b6457e091a3600080546001600160a01b0319166001600160a01b0392909216919091179055565b6004546001600160a01b031681565b6000610734600183612b30565b6000610d55836001600160a01b038416612b45565b3390565b6000610d55836001600160a01b038416612b8f565b6000610734826126ea565b600082611fee57506000610734565b82820282848281611ffb57fe5b0414610d555760405162461bcd60e51b81526004016106fa906143ea565b6000610d5583836040518060400160405280601a81526020017f536166654d6174683a206469766973696f6e206279207a65726f000000000000815250612c5c565b600354604051631cdd409f60e21b815260009182916001600160a01b0390911690637375027c9061209a90309033908b908b908b908b90600401613f32565b602060405180830381600087803b1580156120b457600080fd5b505af11580156120c8573d6000803e3d6000fd5b505050506040513d601f19601f820116820180604052508101906120ec9190613db1565b33600090815260056020908152604082208054600181018255908352912001819055905061211b818787612c93565b503360009081526006602052604090206121359082612cda565b5095945050505050565b6000610d5583836040518060400160405280601e81526020017f536166654d6174683a207375627472616374696f6e206f766572666c6f770000815250612ce6565b60008161220c576040516323b872dd60e01b81526001600160a01b038616906323b872dd906121b890339030908890600401613ef4565b602060405180830381600087803b1580156121d257600080fd5b505af11580156121e6573d6000803e3d6000fd5b505050506040513d601f19601f8201168201806040525081019061220a9190613c01565b505b600c5460405163095ea7b360e01b81526001600160a01b038781169263095ea7b39261224092909116908790600401613f68565b602060405180830381600087803b15801561225a57600080fd5b505af115801561226e573d6000803e3d6000fd5b505050506040513d601f19601f820116820180604052508101906122929190613c01565b50600c5460405163350d6fd960e01b81526000916001600160a01b03169063350d6fd9906122cc908a908a908a908a9033906004016145ce565b602060405180830381600087803b1580156122e657600080fd5b505af11580156122fa573d6000803e3d6000fd5b505050506040513d601f19601f8201168201806040525081019061231e9190613db1565b905061232a8882612d12565b506123336136d0565b60035460405163d311636b60e01b81526001600160a01b039091169063d311636b90612363908c906004016146c1565b60006040518083038186803b15801561237b57600080fd5b505afa15801561238f573d6000803e3d6000fd5b505050506040513d6000823e601f3d908101601f191682016040526123b79190810190613c93565b905060005b886040015151811080156123f357506000896040015182815181106123dd57fe5b602002602001015160078111156123f057fe5b14155b156124f25760008960600151828151811061240a57fe5b60200260200101519050606060006001600160a01b0316826001600160a01b0316141561245d57604080518082019091526001600160a01b03808c1682528a16602082015261245890612e84565b61248e565b604080516060810182526001600160a01b03808d16825284811660208301528b169181019190915261248e90612ef3565b90506124e784602001518d8d6080015186815181106124a957fe5b60200260200101518e60a0015187815181106124c157fe5b60200260200101518f6040015188815181106124d957fe5b602002602001015186612f5e565b5050506001016123bc565b50600e54612519906001600160a01b038981169116146125125782612514565b855b612ff8565b5090505b9695505050505050565b6000610d5583836130a1565b600061253d6136d0565b60035460405163d311636b60e01b81526001600160a01b039091169063d311636b9061256d9086906004016146c1565b60006040518083038186803b15801561258557600080fd5b505afa158015612599573d6000803e3d6000fd5b505050506040513d6000823e601f3d908101601f191682016040526125c19190810190613c93565b60208101519091506001600160a01b031633146125f05760405162461bcd60e51b81526004016106fa90614267565b6000816101000151600381111561260357fe5b146126205760405162461bcd60e51b81526004016106fa9061457f565b600354604051630d4e568160e41b81526001600160a01b039091169063d4e56810906126569086906001906000906004016146f6565b600060405180830381600087803b15801561267057600080fd5b505af1158015612684573d6000803e3d6000fd5b5050600860205250507fad67d757c34507f157cacfa2e3153e9f260a2244f30428821be7be64587ac55f80546001810182556000919091527f8048725117155ad5ef9cb75f77fbe235a4558a61159f5364c90d55c3a0d15b7a018390556110ac816130e6565b5490565b6000806126fd848460016131dc565b915091509250929050565b80151560009081526007602052604081208190612727908260016131dc565b91509150915091565b600061273a6136d0565b60035460405163d311636b60e01b81526001600160a01b039091169063d311636b9061276a9086906004016146c1565b60006040518083038186803b15801561278257600080fd5b505afa158015612796573d6000803e3d6000fd5b505050506040513d6000823e601f3d908101601f191682016040526127be9190810190613c93565b905060008082606001516127e457600d54600e546001600160a01b0391821691166127f8565b600e54600d546001600160a01b0391821691165b600954602086015160a0870151604051633418ea4560e11b81529496509294506000936001600160a01b0390921692636831d48a9261283c92918891600401613ef4565b602060405180830381600087803b15801561285657600080fd5b505af115801561286a573d6000803e3d6000fd5b505050506040513d601f19601f8201168201806040525081019061288e9190613db1565b9050801561291e576009546040516323b872dd60e01b81526001600160a01b03808616926323b872dd926128ca92339216908690600401613ef4565b602060405180830381600087803b1580156128e457600080fd5b505af11580156128f8573d6000803e3d6000fd5b505050506040513d601f19601f8201168201806040525081019061291c9190613c01565b505b60a0840151600090612930908361213f565b905061293a613750565b600c5460405163026d09e360e31b81526001600160a01b03909116906313684f189061296e90889088908790600401613ef4565b60006040518083038186803b15801561298657600080fd5b505afa15801561299a573d6000803e3d6000fd5b505050506040513d6000823e601f3d908101601f191682016040526129c29190810190613ad7565b9150508560c00151816000015110612adc57600a5460405163e6a0802560e01b81526000916001600160a01b03169063e6a0802590612a05908990600401613ee0565b60206040518083038186803b158015612a1d57600080fd5b505afa158015612a31573d6000803e3d6000fd5b505050506040513d601f19601f82011682018060405250810190612a559190613db1565b1115612ac657600a546020870151604051636ce5768960e11b81526001600160a01b039092169163d9caed1291612a93918991908790600401613ef4565b600060405180830381600087803b158015612aad57600080fd5b505af1158015612ac1573d6000803e3d6000fd5b505050505b612ad588828787866001612181565b9650612b00565b612afe8860405180606001604052806037815260200161484360379139613223565b505b505050505050919050565b600082820183811015610d555760405162461bcd60e51b81526004016106fa906141e3565b6000610d55836001600160a01b038416613359565b6000612b518383613359565b612b8757508154600181810184556000848152602080822090930184905584548482528286019093526040902091909155610734565b506000610734565b60008181526001830160205260408120548015612c4b5783546000198083019190810190600090879083908110612bc257fe5b9060005260206000200154905080876000018481548110612bdf57fe5b600091825260208083209091019290925582815260018981019092526040902090840190558654879080612c0f57fe5b60019003818190600052602060002001600090559055866001016000878152602001908152602001600020600090556001945050505050610734565b6000915050610734565b5092915050565b60008183612c7d5760405162461bcd60e51b81526004016106fa91906140eb565b506000838581612c8957fe5b0495945050505050565b81151560009081526007602052604081208190612cb290308587613371565b8415156000908152600760205260409020909150612cd1908287613508565b95945050505050565b6000610d558383612b45565b60008184841115612d0a5760405162461bcd60e51b81526004016106fa91906140eb565b505050900390565b6000612d1c6136d0565b60035460405163d311636b60e01b81526001600160a01b039091169063d311636b90612d4c9087906004016146c1565b60006040518083038186803b158015612d6457600080fd5b505afa158015612d78573d6000803e3d6000fd5b505050506040513d6000823e601f3d908101601f19168201604052612da09190810190613c93565b905060008161010001516003811115612db557fe5b14612dd25760405162461bcd60e51b81526004016106fa90614140565b600354604051630d4e568160e41b81526001600160a01b039091169063d4e5681090612e079087906002908890600401614729565b600060405180830381600087803b158015612e2157600080fd5b505af1158015612e35573d6000803e3d6000fd5b506008925060009150600290505b6003811115612e4e57fe5b81526020808201929092526040016000908120805460018101825590825291902001849055612e7c816130e6565b505092915050565b604080516002808252606080830184529260208301908036833701905050905060005b6002811015612eed57828160028110612ebc57fe5b6020020151828281518110612ecd57fe5b6001600160a01b0390921660209283029190910190910152600101612ea7565b50919050565b6040805160038082526080820190925260609160208201838036833701905050905060005b6003811015612eed57828160038110612f2d57fe5b6020020151828281518110612f3e57fe5b6001600160a01b0390921660209283029190910190910152600101612f18565b6004805460405163904c3e9b60e01b815260009283926001600160a01b03169163904c3e9b91612f9a918c918b918b918e918c918c9101613f81565b602060405180830381600087803b158015612fb457600080fd5b505af1158015612fc8573d6000803e3d6000fd5b505050506040513d601f19601f82011682018060405250810190612fec9190613db1565b98975050505050505050565b6014546130059082612b0b565b6014556011546012546000916130249162015180916107a6919061213f565b9050600061304262015180601154420361201990919063ffffffff16565b90508181111561308857601380546015805460018101825560009182527f55f448fdea98c4d29eb340757ef0a66cd03dbb9538908a6a81d96026b71ec475019190915590555b6013546130959084612b0b565b60135550504260125550565b815460009082106130c45760405162461bcd60e51b81526004016106fa906140fe565b8260000182815481106130d357fe5b9060005260206000200154905092915050565b600354602082015182516040516323b872dd60e01b81526000936001600160a01b0316926323b872dd926131209230929190600401613ef4565b600060405180830381600087803b15801561313a57600080fd5b505af115801561314e573d6000803e3d6000fd5b5050505060086000836101000151600381111561316757fe5b600381111561317257fe5b815260208082019290925260409081016000908120855181546001810183559183528483209091015584513382526006909352206131af91613517565b50815160608301511515600090815260076020526040812090916131d39190613523565b15159392505050565b6000806131e985856135ab565b6131f85750600090508061321b565b505060008281526001848101602090815260408084208515158552909152909120545b935093915050565b600061322d6136d0565b60035460405163d311636b60e01b81526001600160a01b039091169063d311636b9061325d9087906004016146c1565b60006040518083038186803b15801561327557600080fd5b505afa158015613289573d6000803e3d6000fd5b505050506040513d6000823e601f3d908101601f191682016040526132b19190810190613c93565b9050600081610100015160038111156132c657fe5b146132e35760405162461bcd60e51b81526004016106fa90614307565b60038054604051630d4e568160e41b81526001600160a01b039091169163d4e568109161331991889160009089906004016146ca565b600060405180830381600087803b15801561333357600080fd5b505af1158015613347573d6000803e3d6000fd5b50600892506000915060039050612e43565b60009081526001919091016020526040902054151590565b600061337c856126ea565b6133885750600061064e565b600061339786600060016131dc565b9150508215613457575b801580159061342b57506040516307fa648b60e11b81526001600160a01b03861690630ff4c916906133d79084906004016146c1565b60206040518083038186803b1580156133ef57600080fd5b505afa158015613403573d6000803e3d6000fd5b505050506040513d601f19601f820116820180604052508101906134279190613db1565b8411155b156134525760009081526001808701602090815260408084209284529190529020546133a1565b612cd1565b80158015906134e157506040516307fa648b60e11b81526001600160a01b03861690630ff4c9169061348d9084906004016146c1565b60206040518083038186803b1580156134a557600080fd5b505afa1580156134b9573d6000803e3d6000fd5b505050506040513d601f19601f820116820180604052508101906134dd9190613db1565b8410155b15612cd1576000908152600180870160209081526040808420928452919052902054613457565b600061064e8484846000613627565b6000610d558383612b8f565b6000811580613539575061353783836135ab565b155b1561354657506000610734565b60008281526001848101602090815260408084208480529091528083205482845292205461357892869290919061369b565b50600081815260018381016020908152604080842084805290915280832083905590825281205581546000190190915590565b600081815260018301602090815260408083208380529091528120541580156135ee57506000828152600180850160209081526040808420928452919052902054155b1561361f576000808052600180850160209081526040808420928452919052902054821415612b8757506001610734565b506001610734565b600061363385846135ab565b158015613645575061364585856135ab565b15613690576000848152600186016020908152604080832085151584529091529020546136748686868661369b565b6136808685838661369b565b505083546001908101855561064e565b506000949350505050565b600082815260019094016020818152604080872093158088529382528087208690559486529081528385209115855252912055565b6040518061018001604052806000815260200160006001600160a01b0316815260200160006001600160a01b03168152602001600015158152602001600081526020016000815260200160008152602001600081526020016000600381111561373557fe5b81526020016060815260200160008152602001600081525090565b6040518060c001604052806000815260200160008152602001606081526020016060815260200160608152602001606081525090565b805161073481614812565b600082601f8301126137a1578081fd5b81516137b46137af82614794565b61476d565b8181529150602080830190848101818402860182018710156137d557600080fd5b60005b848110156137fd5781516137eb81614812565b845292820192908201906001016137d8565b505050505092915050565b600082601f830112613818578081fd5b81516138266137af82614794565b81815291506020808301908481018184028601820187101561384757600080fd5b6000805b8581101561387357825160088110613861578283fd5b8552938301939183019160010161384b565b50505050505092915050565b600082601f83011261388f578081fd5b815161389d6137af82614794565b8181529150602080830190848101818402860182018710156138be57600080fd5b60005b848110156137fd578151845292820192908201906001016138c1565b805161073481614827565b805161073481614835565b600082601f830112613903578081fd5b81516139116137af826147b4565b915080825283602082850101111561392857600080fd5b612c558160208401602086016147d8565b60006020828403121561394a578081fd5b8135610d5581614812565b60008060008060008060c0878903121561396d578182fd5b863561397881614812565b9550602087013561398881614812565b9450604087013561399881614812565b935060608701356139a881614812565b925060808701356139b881614812565b915060a08701356139c881614812565b809150509295509295509295565b600080600080608085870312156139eb578384fd5b84356139f681614812565b93506020850135613a0681614812565b925060408501359150606085013567ffffffffffffffff811115613a28578182fd5b8501601f81018713613a38578182fd5b8035613a466137af826147b4565b818152886020838501011115613a5a578384fd5b81602084016020830137908101602001929092525092959194509250565b60008060408385031215613a8a578182fd5b8235613a9581614812565b946020939093013593505050565b600080600060608486031215613ab7578081fd5b8335613ac281614812565b95602085013595506040909401359392505050565b60008060408385031215613ae9578182fd5b825167ffffffffffffffff80821115613b00578384fd5b613b0c8683870161387f565b93506020850151915080821115613b21578283fd5b9084019060c08287031215613b34578283fd5b613b3e60c061476d565b8251815260208301516020820152604083015182811115613b5d578485fd5b613b6988828601613808565b604083015250606083015182811115613b80578485fd5b613b8c88828601613791565b606083015250608083015182811115613ba3578485fd5b613baf8882860161387f565b60808301525060a083015182811115613bc6578485fd5b613bd28882860161387f565b60a0830152508093505050509250929050565b600060208284031215613bf6578081fd5b8135610d5581614827565b600060208284031215613c12578081fd5b8151610d5581614827565b600080600060608486031215613c31578081fd5b8335613ac281614827565b60008060008060808587031215613c51578182fd5b8435613c5c81614827565b966020860135965060408601359560600135945092505050565b60008060408385031215613c88578182fd5b8235613a9581614835565b600060208284031215613ca4578081fd5b815167ffffffffffffffff80821115613cbb578283fd5b8184019150610180808387031215613cd1578384fd5b613cda8161476d565b905082518152613ced8660208501613786565b6020820152613cff8660408501613786565b6040820152613d1186606085016138dd565b60608201526080830151608082015260a083015160a082015260c083015160c082015260e083015160e0820152610100613d4d878286016138e8565b908201526101208381015183811115613d64578586fd5b613d70888287016138f3565b918301919091525061014083810151908201526101609283015192810192909252509392505050565b600060208284031215613daa578081fd5b5035919050565b600060208284031215613dc2578081fd5b5051919050565b60008060408385031215613ddb578182fd5b505080516020909101519092909150565b600060208284031215613dfd578081fd5b815160ff81168114610d55578182fd5b6000613e1882614808565b50815260200190565b6001600160a01b03169052565b6000815180845260208085019450808401835b83811015613e665781516001600160a01b031687529582019590820190600101613e41565b509495945050505050565b6000815180845260208085019450808401835b83811015613e6657815187529582019590820190600101613e84565b15159052565b60048110613eb057fe5b9052565b60008151808452613ecc8160208601602086016147d8565b601f01601f19169290920160200192915050565b6001600160a01b0391909116815260200190565b6001600160a01b039384168152919092166020820152604081019190915260600190565b6001600160a01b0392831681529116602082015260400190565b6001600160a01b03968716815294909516602085015291151560408401526060830152608082015260a081019190915260c00190565b6001600160a01b03929092168252602082015260400190565b6001600160a01b03871681526020810186905260408101859052606081018490526000613fad84614808565b83608083015260c060a0830152612fec60c0830184613e2e565b60208082528251828201819052600091906040908185019080840286018301878501865b838110156140bd57603f19898403018552815161018081518552888201516140158a870182613e21565b508782015161402689870182613e21565b5060608083015161403982880182613ea0565b50506080828101519086015260a0808301519086015260c0808301519086015260e080830151908601526101008083015161407682880182613ea6565b505061012080830151828288015261409083880182613eb4565b61014085810151908901526101609485015194909701939093525050509386019390860190600101613feb565b509098975050505050505050565b901515815260200190565b6001600160e01b031991909116815260200190565b600060208252610d556020830184613eb4565b60208082526022908201527f456e756d657261626c655365743a20696e646578206f7574206f6620626f756e604082015261647360f01b606082015260800190565b60208082526039908201527f4f7264657253746f72653a206f6e6c792068616e67696e67206f72646572206360408201527f616e206265636f6d6520414d4d4465616c207374617475732e00000000000000606082015260800190565b60208082526026908201527f4f776e61626c653a206e6577206f776e657220697320746865207a65726f206160408201526564647265737360d01b606082015260800190565b6020808252601b908201527f536166654d6174683a206164646974696f6e206f766572666c6f770000000000604082015260600190565b6020808252602d908201527f426f626f506169723a2063616e204e4f54207361746973667920796f7572207460408201526c3930b232903932b8bab2b9ba1760991b606082015260800190565b60208082526031908201527f4f7264657253746f72653a206f6e6c7920626f6f6b206f776e65722063616e2060408201527031b0b731b2b6103a34329037b93232b91760791b606082015260800190565b6020808252602f908201527f426f626f506169723a20696e416d6f756e74204d555354206c6172676572207460408201526e3430b71036b4b71030b6b7bab73a1760891b606082015260800190565b6020808252603b908201527f4f7264657253746f72653a206f6e6c792068616e67696e67206f72646572206360408201527f616e206265636f6d6520657863657074696f6e207374617475732e0000000000606082015260800190565b60208082526022908201527f4f7264657253746f72653a20696e646578206973206f7574206f6620626f756e604082015261321760f11b606082015260800190565b60208082526024908201527f426f626f506169723a20736c697070616765204d555354203c3d2031303030286040820152633130252960e01b606082015260800190565b60208082526021908201527f536166654d6174683a206d756c7469706c69636174696f6e206f766572666c6f6040820152607760f81b606082015260800190565b6020808252818101527f4f776e61626c653a2063616c6c6572206973206e6f7420746865206f776e6572604082015260600190565b60208082526026908201527f4d6978696e417574686f72697a61626c653a20696e646578206f7574206f6620604082015265626f756e647360d01b606082015260800190565b60208082526015908201527414d15391115497d393d517d055551213d492569151605a1b604082015260600190565b60208082526035908201527f4d6978696e417574686f72697a61626c653a205f616464417574686f72697a656040820152746420697320746865207a65726f206164647265737360581b606082015260800190565b60208082526035908201527f4d6978696e417574686f72697a61626c653a205f64656c417574686f72697a656040820152746420697320746865207a65726f206164647265737360581b606082015260800190565b6020808252602f908201527f4f7264657253746f72653a206f6e6c792068616e67696e67206f72646572206360408201526e30b71031329031b0b731b2b632b21760891b606082015260800190565b600060a082526101608201875160a084015260208089015160c0850152604089015160c060e086015282815161460481866146c1565b9284019450859291505b8083101561463357614621828651613e0d565b9150838501945060018301925061460e565b5060608b01519350609f19915081868203016101008701526146558185613e2e565b93505060808a015181868503016101208701526146728482613e71565b93505060a08a0151818685030161014087015261468f8482613e71565b9450505061469f81850189613e21565b50506146ae6040830186613e21565b83606083015261251d6080830184613e21565b90815260200190565b60008582526146dc6020830186613ea6565b8360408301526080606083015261251d6080830184613eb4565b60008482526147086020830185613ea6565b8260408301526080606083015280608083015260a082019050949350505050565b60008482526004841061473857fe5b8360208301528260408301526080606083015280608083015260a082019050949350505050565b918252602082015260400190565b60405181810167ffffffffffffffff8111828210171561478c57600080fd5b604052919050565b600067ffffffffffffffff8211156147aa578081fd5b5060209081020190565b600067ffffffffffffffff8211156147ca578081fd5b50601f01601f191660200190565b60005b838110156147f35781810151838201526020016147db565b83811115614802576000848401525b50505050565b60088110611ecb57fe5b6001600160a01b0381168114611ecb57600080fd5b8015158114611ecb57600080fd5b60048110611ecb57600080fdfe416d6f756e74206f75742063616e204e4f54207361746973667920746865206d696e20616d6f756e74206f7574206f66206f726465722ea2646970667358221220033c6c55104ac58fa563932475c28e1aebe140810bbb2a8965937574227a460b64736f6c634300060c00334f776e61626c653a206e6577206f776e657220697320746865207a65726f20616464726573734f776e61626c653a2063616c6c6572206973206e6f7420746865206f776e6572a2646970667358221220ae8da0f8f5f27a59c00fa8dda377aa78f7ee7ce11ae37333229a1537d8538e7264736f6c634300060c0033",
  "immutableReferences": {},
  "source": "// SPDX-License-Identifier: MIT\npragma solidity ^0.6.0;\n\nimport \"./common/OrderStore.sol\";\nimport \"./BoboPair.sol\";\n\ninterface IMinter {\n    function addMinter(address _addMinter) external returns (bool);\n}\n\ninterface IAuthorizable {\n    function addAuthorized(address _authorizedAddr) external returns (bool);\n}\n\ninterface IBoboPair is IAuthorizable {\n    function initialize(address _token0, address _token1, address _authAddr, address _boboFarmer, address _orderNFT, address _orderDetailNFT) external;\n    function setRouter(address _router) external;\n    function setExManager(address _exManager) external;\n    function getTotalHangingTokenAmount(address _userAddr) view external returns(uint256 baseTokenAmount, uint256 quoteTokenAmount);\n}\n\ncontract BoboFactoryOnMatic is Ownable {\n    using SafeMath for uint256;\n    \n    address public constant USDT = 0xc2132D05D31c914a87C6611C10748AEb04B58e8F;\n    address public constant USDC = 0x2791Bca1f2de4661ED88A30C99A7a9449Aa84174;\n    address public constant WMATIC = 0x0d500B1d8E8eF31E21C99d1Db9A6444d3ADf1270;\n    \n    address[] public allPairs;  // \n    mapping(address => mapping(address => address)) public getPair;\n    mapping(address => address[]) public baseTokenPairs;\n\n    IBoboFarmer public boboFarmer;\n    address public orderNFT;\n    address public orderDetailNFT;\n    address public exManager;\n    address public boboRouter;\n    \n    event PairCreated(address indexed quoteToken, address indexed baseToken, address pairAddr);\n    \n    constructor (address _orderNFT, address _orderDetailNFT, address _boboFarmer, address _exManager, address _boboRouter) public {  \n        orderNFT = _orderNFT;\n        orderDetailNFT = _orderDetailNFT;\n        boboFarmer = IBoboFarmer(_boboFarmer);\n        exManager = _exManager;\n        boboRouter = _boboRouter;\n    }\n\n    function setAddresses(address _boboFarmer, address _exManager, address _boboRouter) public onlyOwner {\n        if (_boboFarmer != address(0))\n            boboFarmer = IBoboFarmer(_boboFarmer);\n        if (_exManager != address(0))\n            exManager = _exManager;\n        if (_boboRouter != address(0))\n            boboRouter = _boboRouter;\n    }\n    \n    function createPair(address _quoteToken, address _baseToken) public onlyOwner returns (address pairAddr) {\n        require(_quoteToken != _baseToken, \"BoboFactory: IDENTICAL_ADDRESSES\");\n        require(_quoteToken != address(0), \"BoboFactory: ZERO_ADDRESS\");\n        require(getPair[_quoteToken][_baseToken] == address(0), \"BoboFactory: PAIR_EXISTS\"); // single check is sufficient\n        bytes memory bytecode = type(BoboPair).creationCode;\n        bytes32 salt = keccak256(abi.encodePacked(_quoteToken, _baseToken));\n        assembly {\n            pairAddr := create2(0, add(bytecode, 32), mload(bytecode), salt)\n        }\n        IBoboPair(pairAddr).initialize(_quoteToken, _baseToken, msg.sender, address(boboFarmer), orderNFT, orderDetailNFT);\n        IBoboPair(pairAddr).setExManager(exManager);\n        IBoboPair(pairAddr).setRouter(boboRouter);\n        \n        getPair[_quoteToken][_baseToken] = pairAddr;\n        getPair[_baseToken][_quoteToken] = pairAddr; // populate mapping in the reverse direction\n        allPairs.push(pairAddr);\n        baseTokenPairs[_baseToken].push(_quoteToken);\n        emit PairCreated(_quoteToken, _baseToken, pairAddr);\n    }\n    \n    function pairNumber() view public returns(uint256) {\n        return allPairs.length;\n    }\n    \n    function addPairAuth(address _quoteToken, address _baseToken, address _auth) external onlyOwner {\n        address pairAddr = getPair[_quoteToken][_baseToken];\n        require(pairAddr != address(0), 'BoboFactory: PAIR_NOT_EXISTS');\n        IBoboPair(pairAddr).addAuthorized(_auth);\n    }\n\n    function getBaseTokenPairLength(address _baseToken) view external returns(uint256) {\n        return baseTokenPairs[_baseToken].length;\n    }\n\n    // BaseToken\n    function getTotalHangingTokenAmount(address _baseToken, address _userAddr) view public returns(uint256) {\n        uint256 totalBaseTokenAmount;\n        address[] memory quoteTokens = baseTokenPairs[_baseToken];\n        for (uint256 i = 0; i < quoteTokens.length; i++) {\n            address pairAddr = getPair[quoteTokens[i]][_baseToken];\n            (uint256 baseTokenAmount,) = IBoboPair(pairAddr).getTotalHangingTokenAmount(_userAddr);\n            totalBaseTokenAmount = totalBaseTokenAmount.add(baseTokenAmount);\n        }\n        return totalBaseTokenAmount;\n    }\n\n    // BaseToken\n    function getClaimBaseTokenAmount(address _baseToken, address _userAddr) view public returns(uint256) {\n        uint256 hangingBaseTokenAmount = boboFarmer.stakedWantTokens(_baseToken, _userAddr);\n        uint256 baseTokenAmount = getTotalHangingTokenAmount(_baseToken, _userAddr);\n        return hangingBaseTokenAmount.sub(baseTokenAmount);\n    }\n    \n    // boboFarmerFactory\n    function claimBaseToken(address _baseToken) public {\n        uint256 amount = getClaimBaseTokenAmount(_baseToken, msg.sender);\n        if (boboFarmer.tokenPidMap(_baseToken) > 0) {\n            uint256 preBaseTokenAmount = IERC20(_baseToken).balanceOf(address(this));\n            boboFarmer.withdraw(_baseToken, msg.sender, amount);\n            uint256 newBaseTokenAmount = IERC20(_baseToken).balanceOf(address(this));\n            IERC20(_baseToken).transfer(msg.sender, newBaseTokenAmount.sub(preBaseTokenAmount));\n        }\n    }\n}",
  "sourcePath": "/Users/mryu/blockchain/bobo-metaverse/bookswap-mobile/src/assets/contracts/boboswap-contract/contracts/BoboFactory.sol",
  "compiler": {
    "name": "solc",
    "version": "0.6.12+commit.27d51765.Emscripten.clang"
  },
  "schemaVersion": "3.4.3",
  "updatedAt": "2021-08-30T05:22:36.595Z",
  "devdoc": {
    "kind": "dev",
    "methods": {
      "owner()": {
        "details": "Returns the address of the current owner."
      },
      "renounceOwnership()": {
        "details": "Leaves the contract without owner. It will not be possible to call `onlyOwner` functions anymore. Can only be called by the current owner. NOTE: Renouncing ownership will leave the contract without an owner, thereby removing any functionality that is only available to the owner."
      },
      "transferOwnership(address)": {
        "details": "Transfers ownership of the contract to a new account (`newOwner`). Can only be called by the current owner."
      }
    },
    "version": 1
  },
  "userdoc": {
    "kind": "user",
    "methods": {},
    "version": 1
  }
}