{
  "contractName": "BoboFarmer",
  "abi": [
    {
      "inputs": [
        {
          "internalType": "address",
          "name": "_boboTokenAddress",
          "type": "address"
        },
        {
          "internalType": "uint256",
          "name": "_startBlock",
          "type": "uint256"
        },
        {
          "internalType": "address",
          "name": "_fundAddr",
          "type": "address"
        }
      ],
      "stateMutability": "nonpayable",
      "type": "constructor"
    },
    {
      "anonymous": false,
      "inputs": [
        {
          "indexed": true,
          "internalType": "address",
          "name": "_tokenAddr",
          "type": "address"
        },
        {
          "indexed": true,
          "internalType": "address",
          "name": "user",
          "type": "address"
        },
        {
          "indexed": false,
          "internalType": "uint256",
          "name": "amount",
          "type": "uint256"
        }
      ],
      "name": "Deposit",
      "type": "event"
    },
    {
      "anonymous": false,
      "inputs": [
        {
          "indexed": true,
          "internalType": "address",
          "name": "_tokenAddr",
          "type": "address"
        },
        {
          "indexed": true,
          "internalType": "address",
          "name": "user",
          "type": "address"
        },
        {
          "indexed": false,
          "internalType": "uint256",
          "name": "amount",
          "type": "uint256"
        }
      ],
      "name": "EmergencyWithdraw",
      "type": "event"
    },
    {
      "anonymous": false,
      "inputs": [
        {
          "indexed": true,
          "internalType": "address",
          "name": "previousOwner",
          "type": "address"
        },
        {
          "indexed": true,
          "internalType": "address",
          "name": "newOwner",
          "type": "address"
        }
      ],
      "name": "OwnershipTransferred",
      "type": "event"
    },
    {
      "anonymous": false,
      "inputs": [
        {
          "indexed": true,
          "internalType": "address",
          "name": "_tokenAddr",
          "type": "address"
        },
        {
          "indexed": true,
          "internalType": "address",
          "name": "user",
          "type": "address"
        },
        {
          "indexed": false,
          "internalType": "uint256",
          "name": "amount",
          "type": "uint256"
        }
      ],
      "name": "Withdraw",
      "type": "event"
    },
    {
      "inputs": [
        {
          "internalType": "address",
          "name": "",
          "type": "address"
        }
      ],
      "name": "_auth",
      "outputs": [
        {
          "internalType": "bool",
          "name": "",
          "type": "bool"
        }
      ],
      "stateMutability": "view",
      "type": "function"
    },
    {
      "inputs": [
        {
          "internalType": "address",
          "name": "_authorizedAddr",
          "type": "address"
        }
      ],
      "name": "addAuthorized",
      "outputs": [
        {
          "internalType": "bool",
          "name": "",
          "type": "bool"
        }
      ],
      "stateMutability": "nonpayable",
      "type": "function"
    },
    {
      "inputs": [],
      "name": "boboPerBlock",
      "outputs": [
        {
          "internalType": "uint256",
          "name": "",
          "type": "uint256"
        }
      ],
      "stateMutability": "view",
      "type": "function"
    },
    {
      "inputs": [],
      "name": "boboTokenAddr",
      "outputs": [
        {
          "internalType": "address",
          "name": "",
          "type": "address"
        }
      ],
      "stateMutability": "view",
      "type": "function"
    },
    {
      "inputs": [],
      "name": "burnAddress",
      "outputs": [
        {
          "internalType": "address",
          "name": "",
          "type": "address"
        }
      ],
      "stateMutability": "view",
      "type": "function"
    },
    {
      "inputs": [
        {
          "internalType": "address",
          "name": "_authorizedAddr",
          "type": "address"
        }
      ],
      "name": "delAuthorized",
      "outputs": [
        {
          "internalType": "bool",
          "name": "",
          "type": "bool"
        }
      ],
      "stateMutability": "nonpayable",
      "type": "function"
    },
    {
      "inputs": [],
      "name": "denominator",
      "outputs": [
        {
          "internalType": "uint256",
          "name": "",
          "type": "uint256"
        }
      ],
      "stateMutability": "view",
      "type": "function"
    },
    {
      "inputs": [],
      "name": "fundAddr",
      "outputs": [
        {
          "internalType": "address",
          "name": "",
          "type": "address"
        }
      ],
      "stateMutability": "view",
      "type": "function"
    },
    {
      "inputs": [
        {
          "internalType": "uint256",
          "name": "_index",
          "type": "uint256"
        }
      ],
      "name": "getAuthorized",
      "outputs": [
        {
          "internalType": "address",
          "name": "",
          "type": "address"
        }
      ],
      "stateMutability": "view",
      "type": "function"
    },
    {
      "inputs": [],
      "name": "getAuthorizedLength",
      "outputs": [
        {
          "internalType": "uint256",
          "name": "",
          "type": "uint256"
        }
      ],
      "stateMutability": "view",
      "type": "function"
    },
    {
      "inputs": [
        {
          "internalType": "address",
          "name": "_authorizedAddr",
          "type": "address"
        }
      ],
      "name": "isAuthorized",
      "outputs": [
        {
          "internalType": "bool",
          "name": "",
          "type": "bool"
        }
      ],
      "stateMutability": "view",
      "type": "function"
    },
    {
      "inputs": [],
      "name": "numerator",
      "outputs": [
        {
          "internalType": "uint256",
          "name": "",
          "type": "uint256"
        }
      ],
      "stateMutability": "view",
      "type": "function"
    },
    {
      "inputs": [],
      "name": "owner",
      "outputs": [
        {
          "internalType": "address",
          "name": "",
          "type": "address"
        }
      ],
      "stateMutability": "view",
      "type": "function"
    },
    {
      "inputs": [
        {
          "internalType": "uint256",
          "name": "",
          "type": "uint256"
        }
      ],
      "name": "poolInfo",
      "outputs": [
        {
          "internalType": "contract IERC20",
          "name": "want",
          "type": "address"
        },
        {
          "internalType": "uint256",
          "name": "allocPoint",
          "type": "uint256"
        },
        {
          "internalType": "uint256",
          "name": "lastRewardBlock",
          "type": "uint256"
        },
        {
          "internalType": "uint256",
          "name": "accBOBOPerShare",
          "type": "uint256"
        },
        {
          "internalType": "address",
          "name": "strat",
          "type": "address"
        }
      ],
      "stateMutability": "view",
      "type": "function"
    },
    {
      "inputs": [],
      "name": "renounceOwnership",
      "outputs": [],
      "stateMutability": "nonpayable",
      "type": "function"
    },
    {
      "inputs": [],
      "name": "startBlock",
      "outputs": [
        {
          "internalType": "uint256",
          "name": "",
          "type": "uint256"
        }
      ],
      "stateMutability": "view",
      "type": "function"
    },
    {
      "inputs": [
        {
          "internalType": "address",
          "name": "",
          "type": "address"
        }
      ],
      "name": "tokenPidMap",
      "outputs": [
        {
          "internalType": "uint256",
          "name": "",
          "type": "uint256"
        }
      ],
      "stateMutability": "view",
      "type": "function"
    },
    {
      "inputs": [],
      "name": "totalAllocPoint",
      "outputs": [
        {
          "internalType": "uint256",
          "name": "",
          "type": "uint256"
        }
      ],
      "stateMutability": "view",
      "type": "function"
    },
    {
      "inputs": [
        {
          "internalType": "address",
          "name": "newOwner",
          "type": "address"
        }
      ],
      "name": "transferOwnership",
      "outputs": [],
      "stateMutability": "nonpayable",
      "type": "function"
    },
    {
      "inputs": [
        {
          "internalType": "uint256",
          "name": "",
          "type": "uint256"
        },
        {
          "internalType": "address",
          "name": "",
          "type": "address"
        }
      ],
      "name": "userInfo",
      "outputs": [
        {
          "internalType": "uint256",
          "name": "shares",
          "type": "uint256"
        },
        {
          "internalType": "uint256",
          "name": "rewardDebt",
          "type": "uint256"
        }
      ],
      "stateMutability": "view",
      "type": "function"
    },
    {
      "inputs": [
        {
          "internalType": "address",
          "name": "_fundAddr",
          "type": "address"
        }
      ],
      "name": "setFundAddr",
      "outputs": [],
      "stateMutability": "nonpayable",
      "type": "function"
    },
    {
      "inputs": [
        {
          "internalType": "uint256",
          "name": "_numerator",
          "type": "uint256"
        },
        {
          "internalType": "uint256",
          "name": "_denominator",
          "type": "uint256"
        }
      ],
      "name": "setFundScale",
      "outputs": [],
      "stateMutability": "nonpayable",
      "type": "function"
    },
    {
      "inputs": [
        {
          "internalType": "uint256",
          "name": "_boboPerBlock",
          "type": "uint256"
        }
      ],
      "name": "setBoboPerBlock",
      "outputs": [],
      "stateMutability": "nonpayable",
      "type": "function"
    },
    {
      "inputs": [],
      "name": "poolLength",
      "outputs": [
        {
          "internalType": "uint256",
          "name": "",
          "type": "uint256"
        }
      ],
      "stateMutability": "view",
      "type": "function"
    },
    {
      "inputs": [
        {
          "internalType": "uint256",
          "name": "_allocPoint",
          "type": "uint256"
        },
        {
          "internalType": "address",
          "name": "_want",
          "type": "address"
        },
        {
          "internalType": "bool",
          "name": "_withUpdate",
          "type": "bool"
        },
        {
          "internalType": "address",
          "name": "_strat",
          "type": "address"
        }
      ],
      "name": "add",
      "outputs": [],
      "stateMutability": "nonpayable",
      "type": "function"
    },
    {
      "inputs": [
        {
          "internalType": "address",
          "name": "_tokenAddr",
          "type": "address"
        },
        {
          "internalType": "uint256",
          "name": "_allocPoint",
          "type": "uint256"
        },
        {
          "internalType": "bool",
          "name": "_withUpdate",
          "type": "bool"
        }
      ],
      "name": "setPoolPoint",
      "outputs": [],
      "stateMutability": "nonpayable",
      "type": "function"
    },
    {
      "inputs": [
        {
          "internalType": "uint256",
          "name": "_from",
          "type": "uint256"
        },
        {
          "internalType": "uint256",
          "name": "_to",
          "type": "uint256"
        }
      ],
      "name": "getMultiplier",
      "outputs": [
        {
          "internalType": "uint256",
          "name": "",
          "type": "uint256"
        }
      ],
      "stateMutability": "pure",
      "type": "function"
    },
    {
      "inputs": [
        {
          "internalType": "address",
          "name": "_tokenAddr",
          "type": "address"
        },
        {
          "internalType": "address",
          "name": "_user",
          "type": "address"
        }
      ],
      "name": "pendingBOBO",
      "outputs": [
        {
          "internalType": "uint256",
          "name": "",
          "type": "uint256"
        }
      ],
      "stateMutability": "view",
      "type": "function"
    },
    {
      "inputs": [
        {
          "internalType": "address",
          "name": "_tokenAddr",
          "type": "address"
        },
        {
          "internalType": "address",
          "name": "_user",
          "type": "address"
        }
      ],
      "name": "stakedWantTokens",
      "outputs": [
        {
          "internalType": "uint256",
          "name": "",
          "type": "uint256"
        }
      ],
      "stateMutability": "view",
      "type": "function"
    },
    {
      "inputs": [],
      "name": "massUpdatePools",
      "outputs": [],
      "stateMutability": "nonpayable",
      "type": "function"
    },
    {
      "inputs": [
        {
          "internalType": "uint256",
          "name": "_pid",
          "type": "uint256"
        }
      ],
      "name": "updatePool",
      "outputs": [],
      "stateMutability": "nonpayable",
      "type": "function"
    },
    {
      "inputs": [
        {
          "internalType": "address",
          "name": "_tokenAddr",
          "type": "address"
        },
        {
          "internalType": "address",
          "name": "_userAddr",
          "type": "address"
        },
        {
          "internalType": "uint256",
          "name": "_wantAmt",
          "type": "uint256"
        }
      ],
      "name": "deposit",
      "outputs": [],
      "stateMutability": "nonpayable",
      "type": "function"
    },
    {
      "inputs": [
        {
          "internalType": "uint256",
          "name": "_orderId",
          "type": "uint256"
        }
      ],
      "name": "depositOrderNFT",
      "outputs": [],
      "stateMutability": "nonpayable",
      "type": "function"
    },
    {
      "inputs": [
        {
          "internalType": "address",
          "name": "_tokenAddr",
          "type": "address"
        },
        {
          "internalType": "address",
          "name": "_userAddr",
          "type": "address"
        },
        {
          "internalType": "uint256",
          "name": "_wantAmt",
          "type": "uint256"
        }
      ],
      "name": "withdraw",
      "outputs": [],
      "stateMutability": "nonpayable",
      "type": "function"
    },
    {
      "inputs": [
        {
          "internalType": "address",
          "name": "_tokenAddr",
          "type": "address"
        },
        {
          "internalType": "address",
          "name": "_newStratAddr",
          "type": "address"
        }
      ],
      "name": "migrateNewStrat",
      "outputs": [],
      "stateMutability": "nonpayable",
      "type": "function"
    },
    {
      "inputs": [],
      "name": "returnU4Test",
      "outputs": [],
      "stateMutability": "nonpayable",
      "type": "function"
    }
  ],
  "bytecode": "0x6080604052600580546001600160a01b03191661dead1790556000600d553480156200002a57600080fd5b5060405162003108380380620031088339810160408190526200004d9162000102565b600062000059620000e0565b600080546001600160a01b0319166001600160a01b0383169081178255604051929350917f8be0079c531659141344cd1fd0a4f28419497f9722a3daafe3b4186f6b6457e0908290a3506001600355600480546001600160a01b039485166001600160a01b031991821617909155600a929092556006805491909316911617905562000144565b3390565b80516001600160a01b0381168114620000fc57600080fd5b92915050565b60008060006060848603121562000117578283fd5b620001238585620000e4565b9250602084015191506200013b8560408601620000e4565b90509250925092565b612fb480620001546000396000f3fe608060405234801561001057600080fd5b506004361061021c5760003560e01c80638340f54911610125578063cf1c316a116100ad578063e6a080251161007c578063e6a080251461043b578063ec2f83da1461044e578063f2fde38b14610456578063f419d47614610469578063fe9fbb80146104715761021c565b8063cf1c316a146103fa578063d0f2ced11461040d578063d8fc5d7b14610420578063d9caed12146104285761021c565b806393ce61ae116100f457806393ce61ae146103a357806393f1a40b146103b657806396ce0795146103d7578063c63cc564146103df578063ce5f9454146103f25761021c565b80638340f549146103625780638d1afc46146103755780638da5cb5b146103885780638dbb1e3a146103905761021c565b806351eb05a6116101a8578063682cb91111610177578063682cb911146103175780636f39cfcd1461032c578063704b02481461033f57806370d5ae0514610352578063715018a61461035a5761021c565b806351eb05a6146102d657806355d59a15146102e95780635f70edcf146102fc578063630b5ba11461030f5761021c565b80631de47f28116101ef5780631de47f281461028b5780632013af35146102a057806331a40b62146102b35780633397e527146102c657806348cd4cb1146102ce5761021c565b8063081e3eda146102215780631526fe271461023f57806317caf6f11461026357806319c2146b1461026b575b600080fd5b610229610484565b6040516102369190612f01565b60405180910390f35b61025261024d366004612860565b61048a565b6040516102369594939291906129fd565b6102296104d5565b61027e610279366004612753565b6104db565b60405161023691906129f2565b61029e610299366004612860565b6104f0565b005b6102296102ae36600461278b565b61053b565b61027e6102c1366004612753565b610715565b61022961077d565b61022961078e565b61029e6102e4366004612860565b610794565b61029e6102f7366004612906565b610a7c565b61029e61030a3660046128b4565b610abc565b61029e610d42565b61031f610d65565b6040516102369190612966565b61029e61033a366004612753565b610d74565b61029e61034d366004612860565b610a79565b61031f610dcb565b61029e610dda565b61029e6103703660046127c3565b610e59565b61029e610383366004612803565b6110e0565b61031f6111e1565b61022961039e366004612906565b6111f0565b61029e6103b136600461278b565b611203565b6103c96103c4366004612890565b611518565b604051610236929190612f21565b61022961153c565b61031f6103ed366004612860565b611542565b610229611579565b61027e610408366004612753565b61157f565b61022961041b36600461278b565b6115e7565b61022961181a565b61029e6104363660046127c3565b611820565b610229610449366004612753565b611c90565b61031f611ca2565b61029e610464366004612753565b611cb1565b61029e611d67565b61027e61047f366004612753565b611f7a565b600b5490565b600b818154811061049757fe5b6000918252602090912060059091020180546001820154600283015460038401546004909401546001600160a01b0393841695509193909290911685565b600d5481565b600f6020526000908152604090205460ff1681565b6104f8611f87565b6000546001600160a01b0390811691161461052e5760405162461bcd60e51b815260040161052590612c82565b60405180910390fd5b610536610d42565b600955565b6001600160a01b0382166000908152600e60205260408120546105705760405162461bcd60e51b815260040161052590612b56565b6001600160a01b0383166000908152600e6020526040812054600b805460001990920192918390811061059f57fe5b60009182526020808320858452600c825260408085206001600160a01b03808b1687529352808520600360059095029092019384015460048086015486549351631190d9e560e11b815296985093969195919493841693632321b3ca936106099391169101612966565b60206040518083038186803b15801561062157600080fd5b505afa158015610635573d6000803e3d6000fd5b505050506040513d601f19601f820116820180604052508101906106599190612878565b905083600201544311801561066d57508015155b156106d95760006106828560020154436111f0565b905060006106b5600d546106af88600101546106a960095487611f8b90919063ffffffff16565b90611f8b565b90611fc5565b90506106d46106cd846106af8464e8d4a51000611f8b565b8590612007565b935050505b610707836001015461070164e8d4a510006106af868860000154611f8b90919063ffffffff16565b9061202c565b955050505050505b92915050565b600061071f611f87565b6000546001600160a01b0390811691161461074c5760405162461bcd60e51b815260040161052590612c82565b6001600160a01b0382166107725760405162461bcd60e51b815260040161052590612eac565b61070f60018361206e565b60006107896001612083565b905090565b600a5481565b6000600b82815481106107a357fe5b90600052602060002090600502019050806002015443116107c45750610a79565b6004808201548254604051631190d9e560e11b81526000936001600160a01b0393841693632321b3ca936107fb9391169101612966565b60206040518083038186803b15801561081357600080fd5b505afa158015610827573d6000803e3d6000fd5b505050506040513d601f19601f8201168201806040525081019061084b9190612878565b90508061085f575043600290910155610a79565b600061086f8360020154436111f0565b90506000811161088157505050610a79565b60006108a6600d546106af86600101546106a960095487611f8b90919063ffffffff16565b90508015610a455760006108cb6007546106af60085485611f8b90919063ffffffff16565b6004549091506001600160a01b03166340c10f19306108ea8585612007565b6040518363ffffffff1660e01b815260040161090792919061297a565b602060405180830381600087803b15801561092157600080fd5b505af1158015610935573d6000803e3d6000fd5b505050506040513d601f19601f820116820180604052508101906109599190612844565b506004805460065460405163095ea7b360e01b81526001600160a01b039283169363095ea7b39361098e93169186910161297a565b602060405180830381600087803b1580156109a857600080fd5b505af11580156109bc573d6000803e3d6000fd5b505050506040513d601f19601f820116820180604052508101906109e09190612844565b50600654604051632a5360c760e21b81526001600160a01b039091169063a94d831c90610a11908490600401612f01565b600060405180830381600087803b158015610a2b57600080fd5b505af1158015610a3f573d6000803e3d6000fd5b50505050505b610a66610a5b846106af8464e8d4a51000611f8b565b600386015490612007565b6003850155505043600290920191909155505b50565b610a84611f87565b6000546001600160a01b03908116911614610ab15760405162461bcd60e51b815260040161052590612c82565b600891909155600755565b610ac4611f87565b6000546001600160a01b03908116911614610af15760405162461bcd60e51b815260040161052590612c82565b6001600160a01b0383166000908152600e602052604090205415610b275760405162461bcd60e51b815260040161052590612c0a565b306001600160a01b0316816001600160a01b0316638da5cb5b6040518163ffffffff1660e01b8152600401602060405180830381600087803b158015610b6c57600080fd5b505af1158015610b80573d6000803e3d6000fd5b505050506040513d601f19601f82011682018060405250810190610ba4919061276f565b6001600160a01b031614610bca5760405162461bcd60e51b815260040161052590612d63565b8115610bd857610bd8610d42565b6000600a544311610beb57600a54610bed565b435b600d54909150610bfd9086612007565b600d556040805160a0810182526001600160a01b03958616808252602080830198895282840194855260006060840181815296891660808501908152600b8054600181018255818452955160059096027f0175b7a638427703f0dbe7bb9bbf987a2551717b34e79f33b5b1008d1fa01db981018054978d166001600160a01b03199889161790559b517f0175b7a638427703f0dbe7bb9bbf987a2551717b34e79f33b5b1008d1fa01dba8d015596517f0175b7a638427703f0dbe7bb9bbf987a2551717b34e79f33b5b1008d1fa01dbb8c015596517f0175b7a638427703f0dbe7bb9bbf987a2551717b34e79f33b5b1008d1fa01dbc8b015595517f0175b7a638427703f0dbe7bb9bbf987a2551717b34e79f33b5b1008d1fa01dbd90990180549990981698909216979097179095559054948252600e909352919091209190915550565b600b5460005b81811015610d6157610d5981610794565b600101610d48565b5050565b6006546001600160a01b031681565b610d7c611f87565b6000546001600160a01b03908116911614610da95760405162461bcd60e51b815260040161052590612c82565b600680546001600160a01b0319166001600160a01b0392909216919091179055565b6005546001600160a01b031681565b610de2611f87565b6000546001600160a01b03908116911614610e0f5760405162461bcd60e51b815260040161052590612c82565b600080546040516001600160a01b03909116907f8be0079c531659141344cd1fd0a4f28419497f9722a3daafe3b4186f6b6457e0908390a3600080546001600160a01b0319169055565b60026003541415610e7c5760405162461bcd60e51b815260040161052590612e20565b6002600355610e8a33611f7a565b610ea65760405162461bcd60e51b815260040161052590612cfd565b6001600160a01b0383166000908152600e6020526040902054610edb5760405162461bcd60e51b815260040161052590612b56565b6001600160a01b0383166000908152600e602052604090205460001901610f0181610794565b6000600b8281548110610f1057fe5b60009182526020808320858452600c825260408085206001600160a01b038a168652909252922080546005909202909201925015610f8a576000610f76826001015461070164e8d4a510006106af87600301548760000154611f8b90919063ffffffff16565b90508015610f8857610f88868261208e565b505b8315611065578154610fa7906001600160a01b031633308761222c565b60048201548254610fc5916001600160a01b03918216911686612284565b6004808301548354604051636e553f6560e01b81526000936001600160a01b0393841693636e553f6593611000938b93919092169101612f0a565b602060405180830381600087803b15801561101a57600080fd5b505af115801561102e573d6000803e3d6000fd5b505050506040513d601f19601f820116820180604052508101906110529190612878565b82549091506110619082612007565b8255505b600382015481546110809164e8d4a51000916106af91611f8b565b8160010181905550846001600160a01b0316866001600160a01b03167f5548c837ab068cf56a2c2479df0882a4922fd203edb7517321831d95078c5f62866040516110cb9190612f01565b60405180910390a35050600160035550505050565b6110e8611f87565b6000546001600160a01b039081169116146111155760405162461bcd60e51b815260040161052590612c82565b6001600160a01b0383166000908152600e602052604090205461114a5760405162461bcd60e51b815260040161052590612b56565b6001600160a01b0383166000908152600e602052604090205460001901811561117557611175610d42565b6111b2836111ac600b848154811061118957fe5b906000526020600020906005020160010154600d5461202c90919063ffffffff16565b90612007565b600d8190555082600b82815481106111c657fe5b90600052602060002090600502016001018190555050505050565b6000546001600160a01b031690565b60006111fc828461202c565b9392505050565b61120b611f87565b6000546001600160a01b039081169116146112385760405162461bcd60e51b815260040161052590612c82565b6001600160a01b0382166000908152600e602052604090205461126d5760405162461bcd60e51b815260040161052590612b56565b6001600160a01b0382166000908152600e6020526040812054600b805460001990920192918390811061129c57fe5b600091825260208220600460059092020181810154604051637753793760e01b815291945083926001600160a01b03909116916377537937916112e1918a9101612966565b6040805180830381600087803b1580156112fa57600080fd5b505af115801561130e573d6000803e3d6000fd5b505050506040513d601f19601f820116820180604052508101906113329190612927565b60405163082ceeb360e01b815291935091506001600160a01b0386169063082ceeb390611367908990869086906004016129d1565b600060405180830381600087803b15801561138157600080fd5b505af1158015611395573d6000803e3d6000fd5b50505050600483810180546001600160a01b0319166001600160a01b03888116919091179091556040516370a0823160e01b8152600092918916916370a08231916113e291309101612966565b60206040518083038186803b1580156113fa57600080fd5b505afa15801561140e573d6000803e3d6000fd5b505050506040513d601f19601f820116820180604052508101906114329190612878565b905080156114bc5760405163a9059cbb60e01b81526001600160a01b0388169063a9059cbb90611468908990859060040161297a565b602060405180830381600087803b15801561148257600080fd5b505af1158015611496573d6000803e3d6000fd5b505050506040513d601f19601f820116820180604052508101906114ba9190612844565b505b856001600160a01b03166336e9332d6040518163ffffffff1660e01b8152600401600060405180830381600087803b1580156114f757600080fd5b505af115801561150b573d6000803e3d6000fd5b5050505050505050505050565b600c6020908152600092835260408084209091529082529020805460019091015482565b60075481565b6000600161154e61077d565b0382111561156e5760405162461bcd60e51b815260040161052590612cb7565b61070f600183612329565b60085481565b6000611589611f87565b6000546001600160a01b039081169116146115b65760405162461bcd60e51b815260040161052590612c82565b6001600160a01b0382166115dc5760405162461bcd60e51b815260040161052590612e57565b61070f600183612335565b6001600160a01b0382166000908152600e602052604081205461161c5760405162461bcd60e51b815260040161052590612b56565b6001600160a01b0383166000908152600e6020526040902054600019016116416126f8565b600b828154811061164e57fe5b60009182526020918290206040805160a081018252600590930290910180546001600160a01b0390811684526001820154948401949094526002810154918301919091526003810154606083015260040154909116608082015290506116b2612739565b506000828152600c602090815260408083206001600160a01b038089168552908352818420825180840184528154815260019091015493810193909352608085015185519251631190d9e560e11b8152939493911691632321b3ca9161171b9190600401612966565b60206040518083038186803b15801561173357600080fd5b505afa158015611747573d6000803e3d6000fd5b505050506040513d601f19601f8201168201806040525081019061176b9190612878565b60808401518451604051630433471360e11b81529293506000926001600160a01b03909216916308668e26916117a391600401612966565b60206040518083038186803b1580156117bb57600080fd5b505afa1580156117cf573d6000803e3d6000fd5b505050506040513d601f19601f820116820180604052508101906117f39190612878565b9050816118085760009550505050505061070f565b82516107079083906106af9084611f8b565b60095481565b600260035414156118435760405162461bcd60e51b815260040161052590612e20565b600260035561185133611f7a565b61186d5760405162461bcd60e51b815260040161052590612cfd565b6001600160a01b0383166000908152600e60205260409020546118a25760405162461bcd60e51b815260040161052590612b56565b6001600160a01b0383166000908152600e6020526040902054600019016118c881610794565b6000600b82815481106118d757fe5b60009182526020808320858452600c825260408085206001600160a01b038a81168752935280852060059490940290910160048181015482549351630433471360e11b81529297509495948416936308668e26936119389391169101612966565b60206040518083038186803b15801561195057600080fd5b505afa158015611964573d6000803e3d6000fd5b505050506040513d601f19601f820116820180604052508101906119889190612878565b6004808501548554604051631190d9e560e11b81529394506000936001600160a01b0392831693632321b3ca936119c193169101612966565b60206040518083038186803b1580156119d957600080fd5b505afa1580156119ed573d6000803e3d6000fd5b505050506040513d601f19601f82011682018060405250810190611a119190612878565b8354909150611a325760405162461bcd60e51b815260040161052590612ad9565b60008111611a525760405162461bcd60e51b815260040161052590612a60565b6000611a80846001015461070164e8d4a510006106af89600301548960000154611f8b90919063ffffffff16565b90508015611a9257611a92888261208e565b8354600090611aa79084906106af9087611f8b565b905080881115611ab5578097505b8715611c11576004808701548754604051627b8a6760e11b81526000936001600160a01b039384169362f714ce93611af4938f93919092169101612f0a565b602060405180830381600087803b158015611b0e57600080fd5b505af1158015611b22573d6000803e3d6000fd5b505050506040513d601f19601f82011682018060405250810190611b469190612878565b8654909150811115611b5b5760008655611b6a565b8554611b67908261202c565b86555b86546040516370a0823160e01b81526000916001600160a01b0316906370a0823190611b9a903090600401612966565b60206040518083038186803b158015611bb257600080fd5b505afa158015611bc6573d6000803e3d6000fd5b505050506040513d601f19601f82011682018060405250810190611bea9190612878565b905089811015611bf8578099505b8754611c0e906001600160a01b0316338c61234a565b50505b60038601548554611c2c9164e8d4a51000916106af91611f8b565b8560010181905550886001600160a01b03168a6001600160a01b03167f9b1bfa7fa9ee420a16e124f794c35ac9f90472acc99140eb2f6447c714cad8eb8a604051611c779190612f01565b60405180910390a3505060016003555050505050505050565b600e6020526000908152604090205481565b6004546001600160a01b031681565b611cb9611f87565b6000546001600160a01b03908116911614611ce65760405162461bcd60e51b815260040161052590612c82565b6001600160a01b038116611d0c5760405162461bcd60e51b815260040161052590612b10565b600080546040516001600160a01b03808516939216917f8be0079c531659141344cd1fd0a4f28419497f9722a3daafe3b4186f6b6457e091a3600080546001600160a01b0319166001600160a01b0392909216919091179055565b6040516370a0823160e01b815273c2132d05d31c914a87c6611c10748aeb04b58e8f90732791bca1f2de4661ed88a30c99a7a9449aa8417490829063a9059cbb90339083906370a0823190611dc0903090600401612966565b60206040518083038186803b158015611dd857600080fd5b505afa158015611dec573d6000803e3d6000fd5b505050506040513d601f19601f82011682018060405250810190611e109190612878565b6040518363ffffffff1660e01b8152600401611e2d92919061297a565b602060405180830381600087803b158015611e4757600080fd5b505af1158015611e5b573d6000803e3d6000fd5b505050506040513d601f19601f82011682018060405250810190611e7f9190612844565b506040516370a0823160e01b81526001600160a01b0382169063a9059cbb90339083906370a0823190611eb6903090600401612966565b60206040518083038186803b158015611ece57600080fd5b505afa158015611ee2573d6000803e3d6000fd5b505050506040513d601f19601f82011682018060405250810190611f069190612878565b6040518363ffffffff1660e01b8152600401611f2392919061297a565b602060405180830381600087803b158015611f3d57600080fd5b505af1158015611f51573d6000803e3d6000fd5b505050506040513d601f19601f82011682018060405250810190611f759190612844565b505050565b600061070f600183612369565b3390565b600082611f9a5750600061070f565b82820282848281611fa757fe5b04146111fc5760405162461bcd60e51b815260040161052590612c41565b60006111fc83836040518060400160405280601a81526020017f536166654d6174683a206469766973696f6e206279207a65726f00000000000081525061237e565b6000828201838110156111fc5760405162461bcd60e51b815260040161052590612b8d565b60006111fc83836040518060400160405280601e81526020017f536166654d6174683a207375627472616374696f6e206f766572666c6f7700008152506123b5565b60006111fc836001600160a01b0384166123e1565b600061070f826124a7565b600480546040516370a0823160e01b81526000926001600160a01b03909216916370a08231916120c091309101612966565b60206040518083038186803b1580156120d857600080fd5b505afa1580156120ec573d6000803e3d6000fd5b505050506040513d601f19601f820116820180604052508101906121109190612878565b9050808211156121a3576004805460405163a9059cbb60e01b81526001600160a01b039091169163a9059cbb9161214b91879186910161297a565b602060405180830381600087803b15801561216557600080fd5b505af1158015612179573d6000803e3d6000fd5b505050506040513d601f19601f8201168201806040525081019061219d9190612844565b50611f75565b6004805460405163a9059cbb60e01b81526001600160a01b039091169163a9059cbb916121d491879187910161297a565b602060405180830381600087803b1580156121ee57600080fd5b505af1158015612202573d6000803e3d6000fd5b505050506040513d601f19601f820116820180604052508101906122269190612844565b50505050565b612226846323b872dd60e01b85858560405160240161224d939291906129ad565b60408051601f198184030181529190526020810180516001600160e01b03166001600160e01b0319909316929092179091526124ab565b600061230882856001600160a01b031663dd62ed3e30876040518363ffffffff1660e01b81526004016122b8929190612993565b60206040518083038186803b1580156122d057600080fd5b505afa1580156122e4573d6000803e3d6000fd5b505050506040513d601f19601f820116820180604052508101906111ac9190612878565b90506122268463095ea7b360e01b858460405160240161224d92919061297a565b60006111fc838361253a565b60006111fc836001600160a01b03841661257f565b611f758363a9059cbb60e01b848460405160240161224d92919061297a565b60006111fc836001600160a01b0384166125c9565b6000818361239f5760405162461bcd60e51b81526004016105259190612a2d565b5060008385816123ab57fe5b0495945050505050565b600081848411156123d95760405162461bcd60e51b81526004016105259190612a2d565b505050900390565b6000818152600183016020526040812054801561249d578354600019808301919081019060009087908390811061241457fe5b906000526020600020015490508087600001848154811061243157fe5b60009182526020808320909101929092558281526001898101909252604090209084019055865487908061246157fe5b6001900381819060005260206000200160009055905586600101600087815260200190815260200160002060009055600194505050505061070f565b600091505061070f565b5490565b6060612500826040518060400160405280602081526020017f5361666545524332303a206c6f772d6c6576656c2063616c6c206661696c6564815250856001600160a01b03166125e19092919063ffffffff16565b805190915015611f75578080602001905181019061251e9190612844565b611f755760405162461bcd60e51b815260040161052590612dd6565b8154600090821061255d5760405162461bcd60e51b815260040161052590612a97565b82600001828154811061256c57fe5b9060005260206000200154905092915050565b600061258b83836125c9565b6125c15750815460018181018455600084815260208082209093018490558454848252828601909352604090209190915561070f565b50600061070f565b60009081526001919091016020526040902054151590565b60606125f084846000856125f8565b949350505050565b60608247101561261a5760405162461bcd60e51b815260040161052590612bc4565b612623856126b9565b61263f5760405162461bcd60e51b815260040161052590612d2c565b60006060866001600160a01b0316858760405161265c919061294a565b60006040518083038185875af1925050503d8060008114612699576040519150601f19603f3d011682016040523d82523d6000602084013e61269e565b606091505b50915091506126ae8282866126bf565b979650505050505050565b3b151590565b606083156126ce5750816111fc565b8251156126de5782518084602001fd5b8160405162461bcd60e51b81526004016105259190612a2d565b6040518060a0016040528060006001600160a01b0316815260200160008152602001600081526020016000815260200160006001600160a01b031681525090565b604051806040016040528060008152602001600081525090565b600060208284031215612764578081fd5b81356111fc81612f5b565b600060208284031215612780578081fd5b81516111fc81612f5b565b6000806040838503121561279d578081fd5b82356127a881612f5b565b915060208301356127b881612f5b565b809150509250929050565b6000806000606084860312156127d7578081fd5b83356127e281612f5b565b925060208401356127f281612f5b565b929592945050506040919091013590565b600080600060608486031215612817578283fd5b833561282281612f5b565b925060208401359150604084013561283981612f70565b809150509250925092565b600060208284031215612855578081fd5b81516111fc81612f70565b600060208284031215612871578081fd5b5035919050565b600060208284031215612889578081fd5b5051919050565b600080604083850312156128a2578182fd5b8235915060208301356127b881612f5b565b600080600080608085870312156128c9578081fd5b8435935060208501356128db81612f5b565b925060408501356128eb81612f70565b915060608501356128fb81612f5b565b939692955090935050565b60008060408385031215612918578182fd5b50508035926020909101359150565b60008060408385031215612939578182fd5b505080516020909101519092909150565b6000825161295c818460208701612f2f565b9190910192915050565b6001600160a01b0391909116815260200190565b6001600160a01b03929092168252602082015260400190565b6001600160a01b0392831681529116602082015260400190565b6001600160a01b039384168152919092166020820152604081019190915260600190565b6001600160a01b039390931683526020830191909152604082015260600190565b901515815260200190565b6001600160a01b039586168152602081019490945260408401929092526060830152909116608082015260a00190565b6000602082528251806020840152612a4c816040850160208701612f2f565b601f01601f19169190910160400192915050565b6020808252601c908201527f426f626f4661726d65723a20736861726573546f74616c206973203000000000604082015260600190565b60208082526022908201527f456e756d657261626c655365743a20696e646578206f7574206f6620626f756e604082015261647360f01b606082015260800190565b6020808252601c908201527f426f626f4661726d65723a20757365722e736861726573206973203000000000604082015260600190565b60208082526026908201527f4f776e61626c653a206e6577206f776e657220697320746865207a65726f206160408201526564647265737360d01b606082015260800190565b6020808252601c908201527f426f626f4661726d65723a20746f6b656e204e4f542065786973742e00000000604082015260600190565b6020808252601b908201527f536166654d6174683a206164646974696f6e206f766572666c6f770000000000604082015260600190565b60208082526026908201527f416464726573733a20696e73756666696369656e742062616c616e636520666f6040820152651c8818d85b1b60d21b606082015260800190565b60208082526018908201527f426f626f4661726d65723a20746f6b656e2045584953542e0000000000000000604082015260600190565b60208082526021908201527f536166654d6174683a206d756c7469706c69636174696f6e206f766572666c6f6040820152607760f81b606082015260800190565b6020808252818101527f4f776e61626c653a2063616c6c6572206973206e6f7420746865206f776e6572604082015260600190565b60208082526026908201527f4d6978696e417574686f72697a61626c653a20696e646578206f7574206f6620604082015265626f756e647360d01b606082015260800190565b60208082526015908201527414d15391115497d393d517d055551213d492569151605a1b604082015260600190565b6020808252601d908201527f416464726573733a2063616c6c20746f206e6f6e2d636f6e7472616374000000604082015260600190565b6020808252604d908201527f426f626f4661726d65723a20746865206f776e6572206f66207374726174204d60408201527f555354206265207468652073616d65206173207468652061646472657373206f60608201526c33102137b137a330b936b2b91760991b608082015260a00190565b6020808252602a908201527f5361666545524332303a204552433230206f7065726174696f6e20646964206e6040820152691bdd081cdd58d8d9595960b21b606082015260800190565b6020808252601f908201527f5265656e7472616e637947756172643a207265656e7472616e742063616c6c00604082015260600190565b60208082526035908201527f4d6978696e417574686f72697a61626c653a205f616464417574686f72697a656040820152746420697320746865207a65726f206164647265737360581b606082015260800190565b60208082526035908201527f4d6978696e417574686f72697a61626c653a205f64656c417574686f72697a656040820152746420697320746865207a65726f206164647265737360581b606082015260800190565b90815260200190565b9182526001600160a01b0316602082015260400190565b918252602082015260400190565b60005b83811015612f4a578181015183820152602001612f32565b838111156122265750506000910152565b6001600160a01b0381168114610a7957600080fd5b8015158114610a7957600080fdfea264697066735822122031a65109f3599f17c839e2cb61b7972131ba07200f3bbd8fae6b9523da8bb08a64736f6c634300060c0033",
  "immutableReferences": {},
  "source": "// SPDX-License-Identifier: MIT\npragma solidity ^0.6.0;\npragma experimental ABIEncoderV2;\n        \nimport \"./common/MixinAuthorizable.sol\";\n\ninterface IStrategy {\n    // Total want tokens managed by strat\n    function wantLockedTotalMap(address _wantToken) external view returns (uint256);\n\n    // Sum of all shares of users to wantLockedTotal\n    function sharesTotalMap(address _wantToken) external view returns (uint256);\n\n    // Main want token compounding function\n    function earn() external;\n\n    // Transfer want tokens boboFarm -> strategy\n    function deposit(uint256 _wantAmt, address _wantToken) external returns (uint256);\n\n    // Transfer want tokens strategy -> boboFarm\n    function withdraw(uint256 _wantAmt, address _wantToken) external returns (uint256);\n\n    function initTotalShareAndLocked(address _tokenAddr, uint256 _totalShare, uint256 _totalLocked) external;\n\n    function clearAndTransferTokens(address _tokenAddr) external returns(uint256, uint256);\n\n    function farm() external;\n    \n    function owner() external returns(address);\n}\n\ncontract BoboFarmer is MixinAuthorizable, ReentrancyGuard {\n    using SafeMath for uint256;\n    using SafeERC20 for IERC20;\n\n    struct UserInfo {\n        uint256 shares;             // \n        uint256 rewardDebt; \n    }\n\n    struct PoolInfo {\n        IERC20 want;                // token\n        uint256 allocPoint;         // BOBO\n        uint256 lastRewardBlock;    \n        uint256 accBOBOPerShare;    // BOBOmintBOBO\n        address strat;              // \n    }\n\n    address public boboTokenAddr;\n\n    address public burnAddress = 0x000000000000000000000000000000000000dEaD;\n    address public fundAddr;\n    uint256 public denominator;\n    uint256 public numerator;\n\n    uint256 public boboPerBlock; \n    uint256 public startBlock; \n\n    PoolInfo[] public poolInfo; \n    mapping(uint256 => mapping(address => UserInfo)) public userInfo; \n    uint256 public totalAllocPoint = 0; \n    mapping(address => uint256) public tokenPidMap;\n\n    mapping(address => bool) public _auth;\n\n    event Deposit(address indexed _tokenAddr, address indexed user, uint256 amount);\n    event Withdraw(address indexed _tokenAddr, address indexed user, uint256 amount);\n    event EmergencyWithdraw(\n        address indexed _tokenAddr,\n        address indexed user,\n        uint256 amount\n    );\n    \n    constructor(\n        address _boboTokenAddress, \n        uint256 _startBlock,\n        address _fundAddr\n    ) public {\n        boboTokenAddr = _boboTokenAddress;\n        startBlock = _startBlock;\n        fundAddr = _fundAddr;\n    }\n\n\n    function setFundAddr(address _fundAddr) public onlyOwner {\n        fundAddr = _fundAddr;\n    }\n\n    function setFundScale(uint256 _numerator, uint256 _denominator) public onlyOwner {\n        numerator = _numerator;\n        denominator = _denominator;\n    }\n    \n    function setBoboPerBlock(          \n        uint256 _boboPerBlock\n    ) public onlyOwner {\n        massUpdatePools();\n        boboPerBlock = _boboPerBlock;\n    }\n\n    function poolLength() external view returns (uint256) {\n        return poolInfo.length;\n    }\n\n    function add(uint256 _allocPoint, address _want, bool _withUpdate, address _strat) public onlyOwner {\n        require(tokenPidMap[_want] == 0, \"BoboFarmer: token EXIST.\");\n        require(IStrategy(_strat).owner() == address(this), \"BoboFarmer: the owner of strat MUST be the same as the address of BoboFarmer.\");\n        if (_withUpdate) {\n            massUpdatePools();\n        }\n        uint256 lastRewardBlock = block.number > startBlock ? block.number : startBlock;\n        totalAllocPoint = totalAllocPoint.add(_allocPoint);\n        poolInfo.push(\n            PoolInfo({\n                want: IERC20(_want),\n                allocPoint: _allocPoint,\n                lastRewardBlock: lastRewardBlock,\n                accBOBOPerShare: 0,\n                strat: _strat\n            })\n        );\n        tokenPidMap[_want] = poolInfo.length;\n    }\n\n    function setPoolPoint(address _tokenAddr, uint256 _allocPoint, bool _withUpdate) public onlyOwner {\n        require(tokenPidMap[_tokenAddr] > 0, \"BoboFarmer: token NOT exist.\");\n        uint256 pid = tokenPidMap[_tokenAddr] - 1;\n        if (_withUpdate) {\n            massUpdatePools();\n        }\n        totalAllocPoint = totalAllocPoint.sub(poolInfo[pid].allocPoint).add(_allocPoint);\n        poolInfo[pid].allocPoint = _allocPoint;\n    }\n\n    function getMultiplier(uint256 _from, uint256 _to) public pure returns (uint256) {\n        return _to.sub(_from);\n    }\n\n    // BOBOBOBO\n    // bobo\n    function pendingBOBO(address _tokenAddr, address _user) external view returns (uint256) {\n        require(tokenPidMap[_tokenAddr] > 0, \"BoboFarmer: token NOT exist.\");\n        uint256 pid = tokenPidMap[_tokenAddr] - 1;\n        PoolInfo storage pool = poolInfo[pid];\n        UserInfo storage user = userInfo[pid][_user];\n        uint256 accBOBOPerShare = pool.accBOBOPerShare;\n        uint256 sharesTotal = IStrategy(pool.strat).sharesTotalMap(address(pool.want));         // \n        if (block.number > pool.lastRewardBlock && sharesTotal != 0) {\n            uint256 multiplier = getMultiplier(pool.lastRewardBlock, block.number);\n            uint256 boboReward = multiplier.mul(boboPerBlock).mul(pool.allocPoint).div(totalAllocPoint);   // BOBO\n            accBOBOPerShare = accBOBOPerShare.add(boboReward.mul(1e12).div(sharesTotal));      // BOBO\n        }\n        return user.shares.mul(accBOBOPerShare).div(1e12).sub(user.rewardDebt);\n    }\n\n    // want token\n    function stakedWantTokens(address _tokenAddr, address _user) external view returns (uint256) {\n        require(tokenPidMap[_tokenAddr] > 0, \"BoboFarmer: token NOT exist.\");\n        uint256 pid = tokenPidMap[_tokenAddr] - 1;\n\n        PoolInfo memory pool = poolInfo[pid];\n        UserInfo memory user = userInfo[pid][_user];\n\n        uint256 sharesTotal = IStrategy(pool.strat).sharesTotalMap(address(pool.want));\n        uint256 wantLockedTotal = IStrategy(pool.strat).wantLockedTotalMap(address(pool.want));\n        if (sharesTotal == 0) {\n            return 0;\n        }\n        return user.shares.mul(wantLockedTotal).div(sharesTotal);\n    }\n\n    function massUpdatePools() public {\n        uint256 length = poolInfo.length;\n        for (uint256 pid = 0; pid < length; ++pid) {\n            updatePool(pid);\n        }\n    }\n\n    function updatePool(uint256 _pid) public {\n        PoolInfo storage pool = poolInfo[_pid];\n        if (block.number <= pool.lastRewardBlock) {\n            return;\n        }\n        // \n        uint256 sharesTotal = IStrategy(pool.strat).sharesTotalMap(address(pool.want));\n        if (sharesTotal == 0) {\n            pool.lastRewardBlock = block.number;\n            return;\n        }\n\n        // BOBO\n        uint256 multiplier = getMultiplier(pool.lastRewardBlock, block.number);\n        if (multiplier <= 0) {\n            return;\n        }\n        uint256 boboReward = multiplier.mul(boboPerBlock).mul(pool.allocPoint).div(totalAllocPoint);\n        if (boboReward > 0) {\n            uint256 fundAmount = boboReward.mul(numerator).div(denominator);\n            IBOBOToken(boboTokenAddr).mint(address(this), boboReward.add(fundAmount));\n            IERC20(boboTokenAddr).approve(fundAddr, fundAmount);\n            IBoboFund(fundAddr).transferBobo(fundAmount);\n        }\n        pool.accBOBOPerShare = pool.accBOBOPerShare.add(boboReward.mul(1e12).div(sharesTotal));\n\n        pool.lastRewardBlock = block.number;\n    }\n\n    // wantwant\n    function deposit(address _tokenAddr, address _userAddr, uint256 _wantAmt) public nonReentrant onlyAuthorized {\n        require(tokenPidMap[_tokenAddr] > 0, \"BoboFarmer: token NOT exist.\");\n        uint256 pid = tokenPidMap[_tokenAddr] - 1;\n\n        updatePool(pid);\n        PoolInfo storage pool = poolInfo[pid];\n        UserInfo storage user = userInfo[pid][_userAddr];\n\n        if (user.shares > 0) {  // BOBO\n            uint256 pendingBOBOAmount = user.shares.mul(pool.accBOBOPerShare).div(1e12).sub(user.rewardDebt);\n            if (pendingBOBOAmount > 0) {\n                safeBOBOTransfer(_userAddr, pendingBOBOAmount);\n            }\n        }\n        if (_wantAmt > 0) {   // want0want =>  => => \n            pool.want.safeTransferFrom(msg.sender, address(this), _wantAmt);  // want\n\n            pool.want.safeIncreaseAllowance(pool.strat, _wantAmt);  // \n            uint256 sharesAdded = IStrategy(pool.strat).deposit(_wantAmt, address(pool.want));  // wantdeposit\n            user.shares = user.shares.add(sharesAdded);  // \n        }\n        user.rewardDebt = user.shares.mul(pool.accBOBOPerShare).div(1e12);   // BOBO\n        emit Deposit(_tokenAddr, _userAddr, _wantAmt);\n    }\n    \n    function depositOrderNFT(uint256 _orderId) public {\n        \n    }\n\n    // BOBOwant\n    // \n    function withdraw(address _tokenAddr, address _userAddr, uint256 _wantAmt) public nonReentrant onlyAuthorized {\n        require(tokenPidMap[_tokenAddr] > 0, \"BoboFarmer: token NOT exist.\");\n        uint256 pid = tokenPidMap[_tokenAddr] - 1;\n\n        updatePool(pid);\n\n        PoolInfo storage pool = poolInfo[pid];\n        UserInfo storage user = userInfo[pid][_userAddr];\n\n        uint256 wantLockedTotal = IStrategy(pool.strat).wantLockedTotalMap(address(pool.want));  // want\n        uint256 sharesTotal = IStrategy(pool.strat).sharesTotalMap(address(pool.want));  // \n\n        require(user.shares > 0, \"BoboFarmer: user.shares is 0\");\n        require(sharesTotal > 0, \"BoboFarmer: sharesTotal is 0\");\n\n        // BOBO\n        uint256 pending = user.shares.mul(pool.accBOBOPerShare).div(1e12).sub(user.rewardDebt);\n        if (pending > 0) {\n            safeBOBOTransfer(_userAddr, pending);\n        }\n\n        // want\n        uint256 amount = user.shares.mul(wantLockedTotal).div(sharesTotal);\n        if (_wantAmt > amount) {\n            _wantAmt = amount;\n        }\n        if (_wantAmt > 0) {\n            // want\n            uint256 sharesRemoved = IStrategy(pool.strat).withdraw(_wantAmt, address(pool.want));   \n\n            // \n            if (sharesRemoved > user.shares) {\n                user.shares = 0;\n            } else {\n                user.shares = user.shares.sub(sharesRemoved);\n            }\n\n            // withdrawwantwant\n            // wantwantwant\n            uint256 wantBal = IERC20(pool.want).balanceOf(address(this));  \n            if (wantBal < _wantAmt) {\n                _wantAmt = wantBal;\n            }\n            pool.want.safeTransfer(address(msg.sender), _wantAmt);\n        }\n        user.rewardDebt = user.shares.mul(pool.accBOBOPerShare).div(1e12);\n        emit Withdraw(_tokenAddr, _userAddr, _wantAmt);\n    }\n\n    function migrateNewStrat(address _tokenAddr, address _newStratAddr) external onlyOwner {\n        require(tokenPidMap[_tokenAddr] > 0, \"BoboFarmer: token NOT exist.\");\n        uint256 pid = tokenPidMap[_tokenAddr] - 1;\n        PoolInfo storage pool = poolInfo[pid];\n        \n        (uint256 totalShares, uint256 totalLocked) = IStrategy(pool.strat).clearAndTransferTokens(_tokenAddr);\n        IStrategy(_newStratAddr).initTotalShareAndLocked(_tokenAddr, totalShares, totalLocked);\n        pool.strat = _newStratAddr;\n        uint256 amount = IERC20(_tokenAddr).balanceOf(address(this));\n        if (amount > 0)\n            IERC20(_tokenAddr).transfer(_newStratAddr, amount);\n        IStrategy(_newStratAddr).farm();\n    }\n\n    function safeBOBOTransfer(address _to, uint256 _boboAmt) internal {\n        uint256 boboBal = IERC20(boboTokenAddr).balanceOf(address(this));\n        if (_boboAmt > boboBal) {\n            IERC20(boboTokenAddr).transfer(_to, boboBal);\n        } else {\n            IERC20(boboTokenAddr).transfer(_to, _boboAmt);\n        }\n    }\n\n    function returnU4Test() public {\n        address USDT = 0xc2132D05D31c914a87C6611C10748AEb04B58e8F;\n        address USDC = 0x2791Bca1f2de4661ED88A30C99A7a9449Aa84174;\n        IERC20(USDT).transfer(msg.sender, IERC20(USDT).balanceOf(address(this)));\n        IERC20(USDC).transfer(msg.sender, IERC20(USDC).balanceOf(address(this)));\n    }\n}",
  "sourcePath": "/Users/mryu/blockchain/bobo-metaverse/boboswap-contract/contracts/BoboFarmer.sol",
  "compiler": {
    "name": "solc",
    "version": "0.6.12+commit.27d51765.Emscripten.clang"
  },
  "schemaVersion": "3.4.3",
  "updatedAt": "2021-08-21T16:14:51.654Z",
  "devdoc": {
    "kind": "dev",
    "methods": {
      "owner()": {
        "details": "Returns the address of the current owner."
      },
      "renounceOwnership()": {
        "details": "Leaves the contract without owner. It will not be possible to call `onlyOwner` functions anymore. Can only be called by the current owner. NOTE: Renouncing ownership will leave the contract without an owner, thereby removing any functionality that is only available to the owner."
      },
      "transferOwnership(address)": {
        "details": "Transfers ownership of the contract to a new account (`newOwner`). Can only be called by the current owner."
      }
    },
    "version": 1
  },
  "userdoc": {
    "kind": "user",
    "methods": {},
    "version": 1
  }
}