{
  "contractName": "BoboRouter",
  "abi": [
    {
      "inputs": [],
      "stateMutability": "nonpayable",
      "type": "constructor"
    },
    {
      "anonymous": false,
      "inputs": [
        {
          "indexed": true,
          "internalType": "address",
          "name": "previousOwner",
          "type": "address"
        },
        {
          "indexed": true,
          "internalType": "address",
          "name": "newOwner",
          "type": "address"
        }
      ],
      "name": "OwnershipTransferred",
      "type": "event"
    },
    {
      "inputs": [],
      "name": "DECIMALS_GAP",
      "outputs": [
        {
          "internalType": "uint256",
          "name": "",
          "type": "uint256"
        }
      ],
      "stateMutability": "view",
      "type": "function"
    },
    {
      "inputs": [],
      "name": "FACTOR",
      "outputs": [
        {
          "internalType": "uint256",
          "name": "",
          "type": "uint256"
        }
      ],
      "stateMutability": "view",
      "type": "function"
    },
    {
      "inputs": [],
      "name": "MinLiquidityValue",
      "outputs": [
        {
          "internalType": "uint256",
          "name": "",
          "type": "uint256"
        }
      ],
      "stateMutability": "view",
      "type": "function"
    },
    {
      "inputs": [],
      "name": "USDC",
      "outputs": [
        {
          "internalType": "address",
          "name": "",
          "type": "address"
        }
      ],
      "stateMutability": "view",
      "type": "function"
    },
    {
      "inputs": [],
      "name": "USDT",
      "outputs": [
        {
          "internalType": "address",
          "name": "",
          "type": "address"
        }
      ],
      "stateMutability": "view",
      "type": "function"
    },
    {
      "inputs": [],
      "name": "WMATIC",
      "outputs": [
        {
          "internalType": "address",
          "name": "",
          "type": "address"
        }
      ],
      "stateMutability": "view",
      "type": "function"
    },
    {
      "inputs": [],
      "name": "burnAddress",
      "outputs": [
        {
          "internalType": "address",
          "name": "",
          "type": "address"
        }
      ],
      "stateMutability": "view",
      "type": "function"
    },
    {
      "inputs": [
        {
          "internalType": "uint256",
          "name": "",
          "type": "uint256"
        }
      ],
      "name": "middleTokens",
      "outputs": [
        {
          "internalType": "address",
          "name": "",
          "type": "address"
        }
      ],
      "stateMutability": "view",
      "type": "function"
    },
    {
      "inputs": [],
      "name": "owner",
      "outputs": [
        {
          "internalType": "address",
          "name": "",
          "type": "address"
        }
      ],
      "stateMutability": "view",
      "type": "function"
    },
    {
      "inputs": [],
      "name": "quickSwapFactory",
      "outputs": [
        {
          "internalType": "address",
          "name": "",
          "type": "address"
        }
      ],
      "stateMutability": "view",
      "type": "function"
    },
    {
      "inputs": [],
      "name": "quickSwapRouter",
      "outputs": [
        {
          "internalType": "address",
          "name": "",
          "type": "address"
        }
      ],
      "stateMutability": "view",
      "type": "function"
    },
    {
      "inputs": [],
      "name": "quickSwapUsdtMaticPair",
      "outputs": [
        {
          "internalType": "address",
          "name": "",
          "type": "address"
        }
      ],
      "stateMutability": "view",
      "type": "function"
    },
    {
      "inputs": [],
      "name": "renounceOwnership",
      "outputs": [],
      "stateMutability": "nonpayable",
      "type": "function"
    },
    {
      "inputs": [],
      "name": "sushiSwapFactory",
      "outputs": [
        {
          "internalType": "address",
          "name": "",
          "type": "address"
        }
      ],
      "stateMutability": "view",
      "type": "function"
    },
    {
      "inputs": [],
      "name": "sushiSwapRouter",
      "outputs": [
        {
          "internalType": "address",
          "name": "",
          "type": "address"
        }
      ],
      "stateMutability": "view",
      "type": "function"
    },
    {
      "inputs": [
        {
          "internalType": "address",
          "name": "newOwner",
          "type": "address"
        }
      ],
      "name": "transferOwnership",
      "outputs": [],
      "stateMutability": "nonpayable",
      "type": "function"
    },
    {
      "inputs": [
        {
          "internalType": "address",
          "name": "token",
          "type": "address"
        }
      ],
      "name": "isUToken",
      "outputs": [
        {
          "internalType": "bool",
          "name": "",
          "type": "bool"
        }
      ],
      "stateMutability": "pure",
      "type": "function"
    },
    {
      "inputs": [],
      "name": "getWMaticPriceOnQuickSwap",
      "outputs": [
        {
          "internalType": "uint256",
          "name": "",
          "type": "uint256"
        }
      ],
      "stateMutability": "view",
      "type": "function"
    },
    {
      "inputs": [],
      "name": "getWMaticPriceOnChainlink",
      "outputs": [
        {
          "internalType": "uint256",
          "name": "",
          "type": "uint256"
        }
      ],
      "stateMutability": "view",
      "type": "function"
    },
    {
      "inputs": [
        {
          "internalType": "address",
          "name": "factoryAddr",
          "type": "address"
        },
        {
          "internalType": "address",
          "name": "token0",
          "type": "address"
        },
        {
          "internalType": "address",
          "name": "token1",
          "type": "address"
        }
      ],
      "name": "getReserves",
      "outputs": [
        {
          "internalType": "uint256",
          "name": "",
          "type": "uint256"
        },
        {
          "internalType": "uint256",
          "name": "",
          "type": "uint256"
        }
      ],
      "stateMutability": "view",
      "type": "function"
    },
    {
      "inputs": [
        {
          "internalType": "address",
          "name": "factoryAddr",
          "type": "address"
        },
        {
          "internalType": "address[]",
          "name": "path",
          "type": "address[]"
        }
      ],
      "name": "getMinUValue",
      "outputs": [
        {
          "internalType": "uint256",
          "name": "",
          "type": "uint256"
        }
      ],
      "stateMutability": "view",
      "type": "function"
    },
    {
      "inputs": [
        {
          "internalType": "address",
          "name": "factoryAddr",
          "type": "address"
        },
        {
          "internalType": "address",
          "name": "inToken",
          "type": "address"
        },
        {
          "internalType": "address",
          "name": "outToken",
          "type": "address"
        }
      ],
      "name": "getPaths",
      "outputs": [
        {
          "components": [
            {
              "internalType": "address[]",
              "name": "tokens",
              "type": "address[]"
            },
            {
              "internalType": "uint256[]",
              "name": "minUValues",
              "type": "uint256[]"
            },
            {
              "internalType": "uint256",
              "name": "pathCount",
              "type": "uint256"
            }
          ],
          "internalType": "struct BoboRouter.PathsInfo",
          "name": "pathsInfo",
          "type": "tuple"
        }
      ],
      "stateMutability": "view",
      "type": "function"
    },
    {
      "inputs": [
        {
          "internalType": "address",
          "name": "inToken",
          "type": "address"
        },
        {
          "internalType": "address",
          "name": "outToken",
          "type": "address"
        },
        {
          "internalType": "uint256",
          "name": "amountIn",
          "type": "uint256"
        }
      ],
      "name": "getBestSwapPath",
      "outputs": [
        {
          "internalType": "uint256[]",
          "name": "amountsOut",
          "type": "uint256[]"
        },
        {
          "components": [
            {
              "internalType": "uint256",
              "name": "totalAmountOut",
              "type": "uint256"
            },
            {
              "internalType": "uint256",
              "name": "totalULiquidity",
              "type": "uint256"
            },
            {
              "internalType": "enum SwapPool[]",
              "name": "types",
              "type": "uint8[]"
            },
            {
              "internalType": "address[]",
              "name": "middleTokens",
              "type": "address[]"
            },
            {
              "internalType": "uint256[]",
              "name": "partialAmountIns",
              "type": "uint256[]"
            },
            {
              "internalType": "uint256[]",
              "name": "partialAmountOuts",
              "type": "uint256[]"
            }
          ],
          "internalType": "struct ResultInfo",
          "name": "bestResultInfo",
          "type": "tuple"
        }
      ],
      "stateMutability": "view",
      "type": "function"
    },
    {
      "inputs": [
        {
          "internalType": "address",
          "name": "dexFactory",
          "type": "address"
        },
        {
          "internalType": "address",
          "name": "inToken",
          "type": "address"
        },
        {
          "internalType": "address",
          "name": "outToken",
          "type": "address"
        },
        {
          "internalType": "uint256",
          "name": "amountIn",
          "type": "uint256"
        }
      ],
      "name": "caculateOneDexAmountOut",
      "outputs": [
        {
          "components": [
            {
              "internalType": "uint256",
              "name": "totalAmountOut",
              "type": "uint256"
            },
            {
              "internalType": "uint256",
              "name": "totalULiquidity",
              "type": "uint256"
            },
            {
              "internalType": "enum SwapPool[]",
              "name": "types",
              "type": "uint8[]"
            },
            {
              "internalType": "address[]",
              "name": "middleTokens",
              "type": "address[]"
            },
            {
              "internalType": "uint256[]",
              "name": "partialAmountIns",
              "type": "uint256[]"
            },
            {
              "internalType": "uint256[]",
              "name": "partialAmountOuts",
              "type": "uint256[]"
            }
          ],
          "internalType": "struct ResultInfo",
          "name": "resultInfo",
          "type": "tuple"
        }
      ],
      "stateMutability": "view",
      "type": "function"
    },
    {
      "inputs": [
        {
          "internalType": "address",
          "name": "inToken",
          "type": "address"
        },
        {
          "internalType": "address",
          "name": "outToken",
          "type": "address"
        },
        {
          "internalType": "uint256",
          "name": "amountIn",
          "type": "uint256"
        }
      ],
      "name": "caculateAmountOut",
      "outputs": [
        {
          "components": [
            {
              "internalType": "uint256",
              "name": "totalAmountOut",
              "type": "uint256"
            },
            {
              "internalType": "uint256",
              "name": "totalULiquidity",
              "type": "uint256"
            },
            {
              "internalType": "enum SwapPool[]",
              "name": "types",
              "type": "uint8[]"
            },
            {
              "internalType": "address[]",
              "name": "middleTokens",
              "type": "address[]"
            },
            {
              "internalType": "uint256[]",
              "name": "partialAmountIns",
              "type": "uint256[]"
            },
            {
              "internalType": "uint256[]",
              "name": "partialAmountOuts",
              "type": "uint256[]"
            }
          ],
          "internalType": "struct ResultInfo",
          "name": "resultInfo",
          "type": "tuple"
        }
      ],
      "stateMutability": "view",
      "type": "function"
    },
    {
      "inputs": [
        {
          "internalType": "address",
          "name": "routerAddr",
          "type": "address"
        },
        {
          "internalType": "uint256",
          "name": "partialAmountIn",
          "type": "uint256"
        },
        {
          "internalType": "address[]",
          "name": "path",
          "type": "address[]"
        }
      ],
      "name": "getAmountOut",
      "outputs": [
        {
          "internalType": "uint256",
          "name": "",
          "type": "uint256"
        }
      ],
      "stateMutability": "view",
      "type": "function"
    },
    {
      "inputs": [
        {
          "components": [
            {
              "internalType": "uint256",
              "name": "totalAmountOut",
              "type": "uint256"
            },
            {
              "internalType": "uint256",
              "name": "totalULiquidity",
              "type": "uint256"
            },
            {
              "internalType": "enum SwapPool[]",
              "name": "types",
              "type": "uint8[]"
            },
            {
              "internalType": "address[]",
              "name": "middleTokens",
              "type": "address[]"
            },
            {
              "internalType": "uint256[]",
              "name": "partialAmountIns",
              "type": "uint256[]"
            },
            {
              "internalType": "uint256[]",
              "name": "partialAmountOuts",
              "type": "uint256[]"
            }
          ],
          "internalType": "struct ResultInfo",
          "name": "_bestSwapInfo",
          "type": "tuple"
        },
        {
          "internalType": "address",
          "name": "_inToken",
          "type": "address"
        },
        {
          "internalType": "address",
          "name": "_outToken",
          "type": "address"
        },
        {
          "internalType": "uint256",
          "name": "_amountIn",
          "type": "uint256"
        },
        {
          "internalType": "address",
          "name": "_receiver",
          "type": "address"
        }
      ],
      "name": "swap",
      "outputs": [
        {
          "internalType": "uint256",
          "name": "amountOut",
          "type": "uint256"
        }
      ],
      "stateMutability": "nonpayable",
      "type": "function"
    }
  ],
  "bytecode": "0x600180546001600160a01b03191673ab594600376ec9fd91f8e885dadf0ce036862de017905560e060405273c2132d05d31c914a87c6611c10748aeb04b58e8f6080908152732791bca1f2de4661ed88a30c99a7a9449aa8417460a052730d500b1d8e8ef31e21c99d1db9a6444d3adf127060c05262000084906002906003620000fb565b50633b9aca006003553480156200009a57600080fd5b506000620000a7620000f7565b600080546001600160a01b0319166001600160a01b0383169081178255604051929350917f8be0079c531659141344cd1fd0a4f28419497f9722a3daafe3b4186f6b6457e0908290a35062000186565b3390565b82805482825590600052602060002090810192821562000153579160200282015b828111156200015357825182546001600160a01b0319166001600160a01b039091161782556020909201916001909101906200011c565b506200016192915062000165565b5090565b5b80821115620001615780546001600160a01b031916815560010162000166565b612ef680620001966000396000f3fe608060405234801561001057600080fd5b50600436106101a95760003560e01c80636d6a8583116100f9578063c54e44eb11610097578063e476916a11610071578063e476916a14610319578063f11aa0251461032c578063f2fde38b1461034c578063fd829a231461035f576101a9565b8063c54e44eb14610301578063d2553ca614610309578063e189eb4214610311576101a9565b806386ea54fe116100d357806386ea54fe146102d657806389a30271146102de5780638b220bb2146102e65780638da5cb5b146102f9576101a9565b80636d6a8583146102a457806370d5ae05146102c4578063715018a6146102cc576101a9565b8063454722b7116101665780634d95cad9116101405780634d95cad9146102845780635f810cd91461028c57806364bd96761461029457806366a6ca101461029c576101a9565b8063454722b7146102615780634923d412146102695780634a6e62381461027c576101a9565b806313684f18146101ae57806316ed6ef0146101d85780632521f502146101f85780633274946114610218578063350d6fd91461023957806335815b9514610259575b600080fd5b6101c16101bc366004612668565b610367565b6040516101cf929190612b8b565b60405180910390f35b6101eb6101e6366004612618565b610515565b6040516101cf9190612dc5565b61020b61020636600461296f565b610a01565b6040516101cf9190612b20565b61022b6102263660046125ce565b610a28565b6040516101cf929190612e02565b61024c6102473660046127fd565b610b59565b6040516101cf9190612dd8565b61024c6110c6565b61024c6110ce565b61024c6102773660046126a8565b6110d7565b61024c6112be565b61020b6113d8565b61020b6113f0565b61024c611408565b61020b61149c565b6102b76102b2366004612596565b6114b4565b6040516101cf9190612bb0565b61020b611502565b6102d4611508565b005b61024c611587565b61020b61158d565b6101eb6102f4366004612668565b6115a5565b61020b611d78565b61020b611d87565b61020b611d9f565b61020b611db7565b61024c6103273660046126f6565b611dcf565b61033f61033a3660046125ce565b611e79565b6040516101cf9190612d75565b6102d461035a366004612596565b6120d5565b61020b61218b565b60606103716123ce565b6040805160038082526080820190925290602082016060803683375050604080516002808252606080830184529496509092509060208301908036833701905050905085816000815181106103c257fe5b60200260200101906001600160a01b031690816001600160a01b03168152505084816001815181106103f057fe5b60200260200101906001600160a01b031690816001600160a01b031681525050600061041a6123ce565b61043a735757371414417b8c6caad45baef941abc7d3ab32898989610515565b905080600001518560008151811061044e57fe5b6020908102919091010152805182101561046b5780519093509050825b6104736123ce565b610493735757371414417b8c6caad45baef941abc7d3ab328a8a8a610515565b90508060000151866001815181106104a757fe5b602090810291909101015280518310156104c45780519094509150835b6104cc6123ce565b6104d78a8a8a6115a5565b90508060000151876002815181106104eb57fe5b602090810291909101015280518410156105085780519095509250845b5050505050935093915050565b61051d6123ce565b610525612404565b610530868686611e79565b604080516002808252606080830184529394509091602083019080368337019050509050858160008151811061056257fe5b60200260200101906001600160a01b031690816001600160a01b031681525050848160018151811061059057fe5b60200260200101906001600160a01b031690816001600160a01b03168152505060006105bc88836110d7565b905060006003548211156105d7576105d481836121a3565b90505b60005b846040015181101561061a57610610856020015182815181106105f957fe5b6020026020010151836121a390919063ffffffff16565b91506001016105da565b5060408051600480825260a08201909252600091829190602082016080803683375050506040888101919091528051600480825260a082019092529060208201608080368337505050606088015260408051600480825260a08201909252906020820160808036833701905050608088015260408051600480825260a082019092529081602001602082028036833750505060a0880152600080735757371414417b8c6caad45baef941abc7d3ab326001600160a01b038e16146106f257731b02da8cb0d097eb8d57a175b88c7d8b47997506610708565b73a5e0829caced8ffdd4de3c43696c57f7d7a678ff5b905060006001600160a01b038e16735757371414417b8c6caad45baef941abc7d3ab321461073757600561073a565b60075b905060035487111561081f5761075a86610754898e6121cf565b90612209565b9450600061076983878b611dcf565b9050818b60400151858151811061077c57fe5b6020026020010190600781111561078f57fe5b9081600781111561079c57fe5b8152505060008b6060015185815181106107b257fe5b60200260200101906001600160a01b031690816001600160a01b031681525050858b6080015185815181106107e357fe5b602002602001018181525050808b60a00151858151811061080057fe5b602090810291909101015261081585826121a3565b9450506001909201915b6040805160038082526080820190925260609160208201838036833701905050905060005b8a604001518110156109e7578e8260008151811061085e57fe5b6001600160a01b03909216602092830291909101909101528a5180518290811061088457fe5b60200260200101518260018151811061089957fe5b60200260200101906001600160a01b031690816001600160a01b0316815250508d826002815181106108c757fe5b60200260200101906001600160a01b031690816001600160a01b031681525050878d8c6020015183815181106108f957fe5b6020026020010151028161090957fe5b0496506000610919858985611dcf565b9050838d60400151878151811061092c57fe5b6020026020010190600781111561093f57fe5b9081600781111561094c57fe5b9052508b5180518390811061095d57fe5b60200260200101518d60600151878151811061097557fe5b60200260200101906001600160a01b031690816001600160a01b031681525050878d6080015187815181106109a657fe5b602002602001018181525050808d60a0015187815181106109c357fe5b60209081029190910101526109d887826121a3565b96505060019485019401610844565b505050918852505050602085015250919695505050505050565b60028181548110610a0e57fe5b6000918252602090912001546001600160a01b0316905081565b6000806000856001600160a01b031663e6a4390586866040518363ffffffff1660e01b8152600401610a5b929190612b58565b60206040518083038186803b158015610a7357600080fd5b505afa158015610a87573d6000803e3d6000fd5b505050506040513d601f19601f82011682018060405250810190610aab91906125b2565b90506001600160a01b038116610ac8576000809250925050610b51565b600080826001600160a01b0316630902f1ac6040518163ffffffff1660e01b815260040160606040518083038186803b158015610b0457600080fd5b505afa158015610b18573d6000803e3d6000fd5b505050506040513d601f19601f82011682018060405250810190610b3c9190612926565b506001600160701b0391821696501693505050505b935093915050565b6040516323b872dd60e01b81526000906001600160a01b038616906323b872dd90610b8c90339030908890600401612b34565b602060405180830381600087803b158015610ba657600080fd5b505af1158015610bba573d6000803e3d6000fd5b505050506040513d601f19601f82011682018060405250810190610bde91906127dd565b50604086015160005b81518110156110bb576000828281518110610bfe57fe5b60200260200101516007811115610c1157fe5b1415610c1c576110bb565b606060006001600160a01b031689606001518381518110610c3957fe5b60200260200101516001600160a01b031614610cc457610cbf60405180606001604052808a6001600160a01b03166001600160a01b031681526020018b606001518581518110610c8557fe5b60200260200101516001600160a01b03166001600160a01b03168152602001896001600160a01b03166001600160a01b031681525061224b565b610ceb565b604080518082019091526001600160a01b03808a16825288166020820152610ceb906122bc565b9050600060018451038314610d175789608001518381518110610d0a57fe5b6020026020010151610d93565b6040516370a0823160e01b81526001600160a01b038a16906370a0823190610d43903090600401612b20565b60206040518083038186803b158015610d5b57600080fd5b505afa158015610d6f573d6000803e3d6000fd5b505050506040513d601f19601f82011682018060405250810190610d939190612987565b905060008a60a001518481518110610da757fe5b60200260200101519050600780811115610dbd57fe5b858581518110610dc957fe5b60200260200101516007811115610ddc57fe5b1415610f435760405163095ea7b360e01b81526001600160a01b038b169063095ea7b390610e249073a5e0829caced8ffdd4de3c43696c57f7d7a678ff908690600401612b72565b602060405180830381600087803b158015610e3e57600080fd5b505af1158015610e52573d6000803e3d6000fd5b505050506040513d601f19601f82011682018060405250810190610e7691906127dd565b506040516338ed173960e01b815260609073a5e0829caced8ffdd4de3c43696c57f7d7a678ff906338ed173990610eb9908690869089908e904290600401612e10565b600060405180830381600087803b158015610ed357600080fd5b505af1158015610ee7573d6000803e3d6000fd5b505050506040513d6000823e601f3d908101601f19168201604052610f0f919081019061274d565b9050610f3b81600183510381518110610f2457fe5b6020026020010151886121a390919063ffffffff16565b9650506110b0565b6005858581518110610f5157fe5b60200260200101516007811115610f6457fe5b14156110b05760405163095ea7b360e01b81526001600160a01b038b169063095ea7b390610fac90731b02da8cb0d097eb8d57a175b88c7d8b47997506908690600401612b72565b602060405180830381600087803b158015610fc657600080fd5b505af1158015610fda573d6000803e3d6000fd5b505050506040513d601f19601f82011682018060405250810190610ffe91906127dd565b506040516338ed173960e01b8152606090731b02da8cb0d097eb8d57a175b88c7d8b47997506906338ed173990611041908690869089908e904290600401612e10565b600060405180830381600087803b15801561105b57600080fd5b505af115801561106f573d6000803e3d6000fd5b505050506040513d6000823e601f3d908101601f19168201604052611097919081019061274d565b90506110ac81600183510381518110610f2457fe5b9650505b505050600101610be7565b505095945050505050565b6305f5e10081565b64e8d4a5100081565b6000600019815b60018451038110156112b45760008060008684600101815181106110fe57fe5b60200260200101516001600160a01b031687858151811061111b57fe5b60200260200101516001600160a01b0316106111615786846001018151811061114057fe5b602002602001015187858151811061115457fe5b602002602001015161118d565b86848151811061116d57fe5b602002602001015187856001018151811061118457fe5b60200260200101515b9150915060008061119f8a8585610a28565b915091506111ac846114b4565b156111b957819450611297565b6111c2836114b4565b156111cf57809450611297565b60006111d96112be565b905060006111e5611408565b90506000818311156112125761120b826107546103e86112058784612325565b906121cf565b9050611229565b611226836107546103e86112058684612325565b90505b60648111156112535760405162461bcd60e51b815260040161124a90612c8b565b60405180910390fd5b6112916305f5e1006107546001600160a01b038a16730d500b1d8e8ef31e21c99d1db9a6444d3adf127014611288578661128a565b875b85906121cf565b97505050505b848711156112a3578496505b5050600190930192506110de915050565b5090505b92915050565b600080730d500b1d8e8ef31e21c99d1db9a6444d3adf1270905060008073604229c960e5cacf2aaeac8be68ac07ba9df81c36001600160a01b0316630902f1ac6040518163ffffffff1660e01b815260040160606040518083038186803b15801561132857600080fd5b505afa15801561133c573d6000803e3d6000fd5b505050506040513d601f19601f820116820180604052508101906113609190612926565b506001600160701b0391821693501690506001600160a01b03831673c2132d05d31c914a87c6611c10748aeb04b58e8f146113b5576113b08261075464e8d4a51000611205856305f5e1006121cf565b6113d0565b6113d08161075464e8d4a51000611205866305f5e1006121cf565b935050505090565b730d500b1d8e8ef31e21c99d1db9a6444d3adf127081565b73c35dadb65012ec5796536bd9864ed8773abc74c481565b600080600160009054906101000a90046001600160a01b03166001600160a01b031663feaf968c6040518163ffffffff1660e01b815260040160a06040518083038186803b15801561145957600080fd5b505afa15801561146d573d6000803e3d6000fd5b505050506040513d601f19601f82011682018060405250810190611491919061299f565b509194505050505090565b73604229c960e5cacf2aaeac8be68ac07ba9df81c381565b60006001600160a01b03821673c2132d05d31c914a87c6611c10748aeb04b58e8f14806112b857506001600160a01b038216732791bca1f2de4661ed88a30c99a7a9449aa841741492915050565b61dead81565b611510612367565b6000546001600160a01b0390811691161461153d5760405162461bcd60e51b815260040161124a90612d40565b600080546040516001600160a01b03909116907f8be0079c531659141344cd1fd0a4f28419497f9722a3daafe3b4186f6b6457e0908390a3600080546001600160a01b0319169055565b60035481565b732791bca1f2de4661ed88a30c99a7a9449aa8417481565b6115ad6123ce565b6115b5612404565b6115d4735757371414417b8c6caad45baef941abc7d3ab328686611e79565b90506115de612404565b6115fd73c35dadb65012ec5796536bd9864ed8773abc74c48787611e79565b604080516002808252606080830184529394509091602083019080368337019050509050868160008151811061162f57fe5b60200260200101906001600160a01b031690816001600160a01b031681525050858160018151811061165d57fe5b60200260200101906001600160a01b031690816001600160a01b031681525050600061169d735757371414417b8c6caad45baef941abc7d3ab32836110d7565b905060006116bf73c35dadb65012ec5796536bd9864ed8773abc74c4846110d7565b905060006003548311156116da576116d781846121a3565b90505b6003548211156116f1576116ee81836121a3565b90505b60005b866040015181101561171d57611713876020015182815181106105f957fe5b91506001016116f4565b5060005b856040015181101561174a57611740866020015182815181106105f957fe5b9150600101611721565b5060408051600a8082526101608201909252600091829190602082016101408036833750505060408a8101919091528051600a808252610160820190925290602082016101408036833750505060608a015260408051600a808252610160820190925290602082016101408036833750505060808a015260408051600a808252610160820190925290602082016101408036833750505060a08a01526003546000908611156118d85761180184610754888e6121cf565b9250600061182473a5e0829caced8ffdd4de3c43696c57f7d7a678ff858a611dcf565b905060078b60400151838151811061183857fe5b6020026020010190600781111561184b57fe5b9081600781111561185857fe5b8152505060008b60600151838151811061186e57fe5b60200260200101906001600160a01b031690816001600160a01b031681525050838b60800151838151811061189f57fe5b602002602001018181525050808b60a0015183815181106118bc57fe5b60209081029190910101526118d183826121a3565b9250506001015b6003548511156119c7576118f084610754878e6121cf565b92506000611913731b02da8cb0d097eb8d57a175b88c7d8b47997506858a611dcf565b905060058b60400151838151811061192757fe5b6020026020010190600781111561193a57fe5b9081600781111561194757fe5b8152505060008b60600151838151811061195d57fe5b60200260200101906001600160a01b031690816001600160a01b031681525050838b60800151838151811061198e57fe5b602002602001018181525050808b60a0015183815181106119ab57fe5b60209081029190910101526119c083826121a3565b9250506001015b6040805160038082526080820190925260609160208201838036833701905050905060005b8a60400151811015611ba4578e82600081518110611a0657fe5b6001600160a01b03909216602092830291909101909101528a51805182908110611a2c57fe5b602002602001015182600181518110611a4157fe5b60200260200101906001600160a01b031690816001600160a01b0316815250508d82600281518110611a6f57fe5b60200260200101906001600160a01b031690816001600160a01b031681525050858d8c602001518381518110611aa157fe5b60200260200101510281611ab157fe5b0494506000611ad573a5e0829caced8ffdd4de3c43696c57f7d7a678ff8785611dcf565b905060078d604001518581518110611ae957fe5b60200260200101906007811115611afc57fe5b90816007811115611b0957fe5b9052508b51805183908110611b1a57fe5b60200260200101518d606001518581518110611b3257fe5b60200260200101906001600160a01b031690816001600160a01b031681525050858d608001518581518110611b6357fe5b602002602001018181525050808d60a001518581518110611b8057fe5b6020908102919091010152611b9585826121a3565b945050600192830192016119ec565b5060005b8960400151811015611d60578e82600081518110611bc257fe5b6001600160a01b03909216602092830291909101909101528951805182908110611be857fe5b602002602001015182600181518110611bfd57fe5b60200260200101906001600160a01b031690816001600160a01b0316815250508d82600281518110611c2b57fe5b60200260200101906001600160a01b031690816001600160a01b031681525050858d8b602001518381518110611c5d57fe5b60200260200101510281611c6d57fe5b0494506000611c91731b02da8cb0d097eb8d57a175b88c7d8b479975068785611dcf565b905060058d604001518581518110611ca557fe5b60200260200101906007811115611cb857fe5b90816007811115611cc557fe5b9052508a51805183908110611cd657fe5b60200260200101518d606001518581518110611cee57fe5b60200260200101906001600160a01b031690816001600160a01b031681525050858d608001518581518110611d1f57fe5b602002602001018181525050808d60a001518581518110611d3c57fe5b6020908102919091010152611d5185826121a3565b94505060019283019201611ba8565b50505088525060208701525093979650505050505050565b6000546001600160a01b031690565b73c2132d05d31c914a87c6611c10748aeb04b58e8f81565b735757371414417b8c6caad45baef941abc7d3ab3281565b73a5e0829caced8ffdd4de3c43696c57f7d7a678ff81565b60006060846001600160a01b031663d06ca61f85856040518363ffffffff1660e01b8152600401611e01929190612de1565b60006040518083038186803b158015611e1957600080fd5b505afa158015611e2d573d6000803e3d6000fd5b505050506040513d6000823e601f3d908101601f19168201604052611e55919081019061274d565b905080600184510381518110611e6757fe5b60200260200101519150509392505050565b611e81612404565b6040805160036060820181815260e083019093529091829181602001602082028036833750505081526040805160038082526080820190925260209283019290919082016060803683370190505081526020016000815250905060005b6002548110156120cd57836001600160a01b031660028281548110611eff57fe5b6000918252602090912001546001600160a01b03161480611f495750826001600160a01b031660028281548110611f3257fe5b6000918252602090912001546001600160a01b0316145b15611f53576120c5565b604080516003808252608082019092526060916020820183803683370190505090508481600081518110611f8357fe5b60200260200101906001600160a01b031690816001600160a01b03168152505060028281548110611fb057fe5b9060005260206000200160009054906101000a90046001600160a01b031681600181518110611fdb57fe5b60200260200101906001600160a01b031690816001600160a01b031681525050838160028151811061200957fe5b60200260200101906001600160a01b031690816001600160a01b031681525050600061203587836110d7565b905060035481106120c2576002838154811061204d57fe5b6000918252602090912001548451604086015181516001600160a01b0390931692811061207657fe5b60200260200101906001600160a01b031690816001600160a01b0316815250508084602001518560400151815181106120ab57fe5b602090810291909101015260408401805160010190525b50505b600101611ede565b509392505050565b6120dd612367565b6000546001600160a01b0390811691161461210a5760405162461bcd60e51b815260040161124a90612d40565b6001600160a01b0381166121305760405162461bcd60e51b815260040161124a90612c0e565b600080546040516001600160a01b03808516939216917f8be0079c531659141344cd1fd0a4f28419497f9722a3daafe3b4186f6b6457e091a3600080546001600160a01b0319166001600160a01b0392909216919091179055565b731b02da8cb0d097eb8d57a175b88c7d8b4799750681565b6000828201838110156121c85760405162461bcd60e51b815260040161124a90612c54565b9392505050565b6000826121de575060006112b8565b828202828482816121eb57fe5b04146121c85760405162461bcd60e51b815260040161124a90612cff565b60006121c883836040518060400160405280601a81526020017f536166654d6174683a206469766973696f6e206279207a65726f00000000000081525061236b565b6040805160038082526080820190925260609160208201838036833701905050905060005b60038110156122b65782816003811061228557fe5b602002015182828151811061229657fe5b6001600160a01b0390921660209283029190910190910152600101612270565b50919050565b604080516002808252606080830184529260208301908036833701905050905060005b60028110156122b6578281600281106122f457fe5b602002015182828151811061230557fe5b6001600160a01b03909216602092830291909101909101526001016122df565b60006121c883836040518060400160405280601e81526020017f536166654d6174683a207375627472616374696f6e206f766572666c6f7700008152506123a2565b3390565b6000818361238c5760405162461bcd60e51b815260040161124a9190612bbb565b50600083858161239857fe5b0495945050505050565b600081848411156123c65760405162461bcd60e51b815260040161124a9190612bbb565b505050900390565b6040518060c001604052806000815260200160008152602001606081526020016060815260200160608152602001606081525090565b60405180606001604052806060815260200160608152602001600081525090565b80356112b881612e93565b600082601f830112612440578081fd5b813561245361244e82612e73565b612e4c565b81815291506020808301908481018184028601820187101561247457600080fd5b60005b8481101561249c57813561248a81612e93565b84529282019290820190600101612477565b505050505092915050565b600082601f8301126124b7578081fd5b81356124c561244e82612e73565b8181529150602080830190848101818402860182018710156124e657600080fd5b6000805b8581101561251257823560088110612500578283fd5b855293830193918301916001016124ea565b50505050505092915050565b600082601f83011261252e578081fd5b813561253c61244e82612e73565b81815291506020808301908481018184028601820187101561255d57600080fd5b60005b8481101561249c57813584529282019290820190600101612560565b805169ffffffffffffffffffff811681146112b857600080fd5b6000602082840312156125a7578081fd5b81356121c881612e93565b6000602082840312156125c3578081fd5b81516121c881612e93565b6000806000606084860312156125e2578182fd5b83356125ed81612e93565b925060208401356125fd81612e93565b9150604084013561260d81612e93565b809150509250925092565b6000806000806080858703121561262d578081fd5b843561263881612e93565b9350602085013561264881612e93565b9250604085013561265881612e93565b9396929550929360600135925050565b60008060006060848603121561267c578283fd5b833561268781612e93565b9250602084013561269781612e93565b929592945050506040919091013590565b600080604083850312156126ba578182fd5b82356126c581612e93565b9150602083013567ffffffffffffffff8111156126e0578182fd5b6126ec85828601612430565b9150509250929050565b60008060006060848603121561270a578081fd5b833561271581612e93565b925060208401359150604084013567ffffffffffffffff811115612737578182fd5b61274386828701612430565b9150509250925092565b6000602080838503121561275f578182fd5b825167ffffffffffffffff811115612775578283fd5b8301601f81018513612785578283fd5b805161279361244e82612e73565b81815283810190838501858402850186018910156127af578687fd5b8694505b838510156127d15780518352600194909401939185019185016127b3565b50979650505050505050565b6000602082840312156127ee578081fd5b815180151581146121c8578182fd5b600080600080600060a08688031215612814578283fd5b853567ffffffffffffffff8082111561282b578485fd5b9087019060c0828a03121561283e578485fd5b61284860c0612e4c565b8235815260208301356020820152604083013582811115612867578687fd5b6128738b8286016124a7565b60408301525060608301358281111561288a578687fd5b6128968b828601612430565b6060830152506080830135828111156128ad578687fd5b6128b98b82860161251e565b60808301525060a0830135828111156128d0578687fd5b6128dc8b82860161251e565b60a0830152508097505050506128f58760208801612425565b93506129048760408801612425565b92506060860135915061291a8760808801612425565b90509295509295909350565b60008060006060848603121561293a578081fd5b835161294581612eab565b602085015190935061295681612eab565b604085015190925063ffffffff8116811461260d578182fd5b600060208284031215612980578081fd5b5035919050565b600060208284031215612998578081fd5b5051919050565b600080600080600060a086880312156129b6578283fd5b6129c0878761257c565b945060208601519350604086015192506060860151915061291a876080880161257c565b6000600882106129f057fe5b50815260200190565b6000815180845260208085019450808401835b83811015612a315781516001600160a01b031687529582019590820190600101612a0c565b509495945050505050565b6000815180845260208085019450808401835b83811015612a3157815187529582019590820190600101612a4f565b600060c083018251845260208084015181860152604084015160c06040870152828151612a988186612dd8565b9284019450859291505b80831015612ac757612ab58286516129e4565b91508385019450600183019250612aa2565b50606086015193508681036060880152612ae181856129f9565b935050505060808301518482036080860152612afd8282612a3c565b91505060a083015184820360a0860152612b178282612a3c565b95945050505050565b6001600160a01b0391909116815260200190565b6001600160a01b039384168152919092166020820152604081019190915260600190565b6001600160a01b0392831681529116602082015260400190565b6001600160a01b03929092168252602082015260400190565b600060408252612b9e6040830185612a3c565b8281036020840152612b178185612a6b565b901515815260200190565b6000602080835283518082850152825b81811015612be757858101830151858201604001528201612bcb565b81811115612bf85783604083870101525b50601f01601f1916929092016040019392505050565b60208082526026908201527f4f776e61626c653a206e6577206f776e657220697320746865207a65726f206160408201526564647265737360d01b606082015260800190565b6020808252601b908201527f536166654d6174683a206164646974696f6e206f766572666c6f770000000000604082015260600190565b6020808252604e908201527f426f626f526f757465723a206d6174696327707269636520676170206265747760408201527f65656e20636861696e6c696e6b20616e6420717569636b73776170206973206c60608201526d30b933b2903a3430b7101898129760911b608082015260a00190565b60208082526021908201527f536166654d6174683a206d756c7469706c69636174696f6e206f766572666c6f6040820152607760f81b606082015260800190565b6020808252818101527f4f776e61626c653a2063616c6c6572206973206e6f7420746865206f776e6572604082015260600190565b600060208252825160606020840152612d9160808401826129f9565b90506020840151601f19848303016040850152612dae8282612a3c565b915050604084015160608401528091505092915050565b6000602082526121c86020830184612a6b565b90815260200190565b600083825260406020830152612dfa60408301846129f9565b949350505050565b918252602082015260400190565b600086825285602083015260a06040830152612e2f60a08301866129f9565b6001600160a01b0394909416606083015250608001529392505050565b60405181810167ffffffffffffffff81118282101715612e6b57600080fd5b604052919050565b600067ffffffffffffffff821115612e89578081fd5b5060209081020190565b6001600160a01b0381168114612ea857600080fd5b50565b6001600160701b0381168114612ea857600080fdfea26469706673582212202f6f1758eb885e5025a51547c269e465839f37a46bf9b5582d3c99b8886389e664736f6c634300060c0033",
  "immutableReferences": {},
  "source": "// SPDX-License-Identifier: MIT\npragma solidity ^0.6.0;\npragma experimental ABIEncoderV2;\n        \nimport \"./common/BasicStruct.sol\";\nimport \"./SwapInterfaces.sol\";\n\ncontract BoboRouter is Ownable {\n    using SafeMath for uint256;\n    \n    address public constant quickSwapFactory = 0x5757371414417b8C6CAad45bAeF941aBc7d3Ab32;\n    address public constant quickSwapRouter = 0xa5E0829CaCEd8fFDD4De3c43696c57F7D7A678ff; \n    address public constant quickSwapUsdtMaticPair = 0x604229c960e5CACF2aaEAc8Be68Ac07BA9dF81c3;\n    \n    address public constant sushiSwapFactory = 0xc35DADB65012eC5796536bD9864eD8773aBc74C4;\n    address public constant sushiSwapRouter = 0x1b02dA8Cb0d097eB8D57A175b88c7D8b47997506;\n    \n    address public constant USDT = 0xc2132D05D31c914a87C6611C10748AEb04B58e8F;   // decimals = 6\n    address public constant USDC = 0x2791Bca1f2de4661ED88A30C99A7a9449Aa84174;   // decimals = 6\n    address public constant WMATIC = 0x0d500B1d8E8eF31E21C99d1Db9A6444d3ADf1270; // decimals = 18\n    address public constant burnAddress = 0x000000000000000000000000000000000000dEaD;\n    uint256 public constant FACTOR = 1e8;\n    uint256 public constant DECIMALS_GAP = 1e12;\n    AggregatorV3Interface internal priceFeed = AggregatorV3Interface(0xAB594600376Ec9fD91F8e885dADF0CE036862dE0);\n    \n    address[] public middleTokens = [USDT, USDC, WMATIC];\n    uint256 public MinLiquidityValue = 1e9;  // >=1000U \n    \n    struct PathsInfo {\n        address[] tokens;\n        uint256[] minUValues;\n        uint256 pathCount;\n    }\n    \n    constructor() public {\n    }\n    \n    function isUToken(address token) public pure returns(bool) {\n        return token == USDT || token == USDC;\n    }\n    \n    function getWMaticPriceOnQuickSwap() public view returns(uint256) {\n       (address token0, ) = USDT < WMATIC ? (USDT, WMATIC) : (WMATIC, USDT);\n       (uint256 reserveA, uint256 reserveB,) = ICommonPair(quickSwapUsdtMaticPair).getReserves();\n       return token0 == USDT ? reserveA.mul(FACTOR).mul(DECIMALS_GAP).div(reserveB) : reserveB.mul(FACTOR).mul(DECIMALS_GAP).div(reserveA);\n    }\n    \n    function getWMaticPriceOnChainlink() public view returns(uint256) {\n       (, int price,,,) = priceFeed.latestRoundData();\n        return uint256(price);\n    }\n    \n    function getReserves(address factoryAddr, address token0, address token1) public view returns(uint256, uint256) {\n        address pairAddr = ICommonFactory(factoryAddr).getPair(token0, token1);\n        if (pairAddr == address(0)) return (0, 0);\n        (uint256 reserveA, uint256 reserveB,) = ICommonPair(pairAddr).getReserves();\n        return (reserveA, reserveB);\n    }\n    \n    function getMinUValue(address factoryAddr, address[] memory path) public view returns(uint256) {\n       uint256 minUValue = uint256(-1);\n       \n       for (uint256 i = 0; i < path.length - 1; i++) {\n           uint256 tmpUValue;\n           (address token0, address token1) = path[i] < path[i + 1] ? (path[i], path[i + 1]) : (path[i + 1], path[i]);\n           (uint256 reserveA, uint256 reserveB) = getReserves(factoryAddr, token0, token1);\n           if (isUToken(token0)) {\n               tmpUValue = reserveA;\n           } else if (isUToken(token1)) {\n               tmpUValue = reserveB;\n           } else {\n               uint256 wMaticPriceOnQuickSwap = getWMaticPriceOnQuickSwap();\n               uint256 wMaticPriceOnChainlink = getWMaticPriceOnChainlink();\n               uint256 gap = 0;\n               if (wMaticPriceOnQuickSwap > wMaticPriceOnChainlink) {\n                   gap = wMaticPriceOnQuickSwap.sub(wMaticPriceOnChainlink).mul(1000).div(wMaticPriceOnChainlink);\n               } else {\n                   gap = wMaticPriceOnChainlink.sub(wMaticPriceOnQuickSwap).mul(1000).div(wMaticPriceOnQuickSwap);\n               }\n               require(gap <= 100, \"BoboRouter: matic'price gap between chainlink and quickswap is large than 10%.\");\n               tmpUValue = wMaticPriceOnChainlink.mul(token0 == WMATIC ? reserveA : reserveB).div(FACTOR);\n           }\n           if (minUValue > tmpUValue) minUValue = tmpUValue;\n       }\n       return minUValue;\n    }\n    \n    function getPaths(address factoryAddr, address inToken, address outToken) public view returns(PathsInfo memory pathsInfo) {\n        pathsInfo = PathsInfo(new address[](3), new uint256[](3), 0);\n        // pathsInfo.tokens = new address[](3);\n        // pathsInfo.minUValues = new uint256[](3);\n        // pathsInfo.pathCount = 0;\n        for (uint256 i = 0; i < middleTokens.length; i++) {\n            if (middleTokens[i] == inToken || middleTokens[i] == outToken) continue;\n            \n            address[] memory path = new address[](3);\n            path[0] = inToken; \n            path[1] = middleTokens[i]; \n            path[2] = outToken;\n            uint256 minUValue = getMinUValue(factoryAddr, path);\n            if (minUValue >= MinLiquidityValue) {\n                pathsInfo.tokens[pathsInfo.pathCount] = middleTokens[i]; \n                pathsInfo.minUValues[pathsInfo.pathCount] = minUValue;\n                pathsInfo.pathCount++;\n            }\n        }\n    }\n    \n    function getBestSwapPath(address inToken, address outToken, uint256 amountIn) public view returns(uint256[] memory amountsOut, ResultInfo memory bestResultInfo) {\n        amountsOut = new uint256[](3);\n        \n        address[] memory path = new address[](2);\n        path[0] = inToken;\n        path[1] = outToken;\n        \n        //ResultInfo memory bestResultInfo;\n        uint256 totalAmountOut = 0;\n        \n        (ResultInfo memory quickSwapResultInfo) = caculateOneDexAmountOut(quickSwapFactory, inToken, outToken, amountIn);\n        amountsOut[0] = quickSwapResultInfo.totalAmountOut;\n        if (quickSwapResultInfo.totalAmountOut > totalAmountOut) {\n            bestResultInfo = quickSwapResultInfo;\n            totalAmountOut = quickSwapResultInfo.totalAmountOut;\n        }\n        \n        (ResultInfo memory sushiSwapResultInfo) = caculateOneDexAmountOut(quickSwapFactory, inToken, outToken, amountIn);\n        amountsOut[1] = sushiSwapResultInfo.totalAmountOut;\n        if (sushiSwapResultInfo.totalAmountOut > totalAmountOut) {\n            bestResultInfo = sushiSwapResultInfo;\n            totalAmountOut = sushiSwapResultInfo.totalAmountOut;\n        }\n        \n        ResultInfo memory allResultInfo = caculateAmountOut(inToken, outToken, amountIn);\n        amountsOut[2] = allResultInfo.totalAmountOut;\n        if (allResultInfo.totalAmountOut > totalAmountOut) {\n            bestResultInfo = allResultInfo;\n            totalAmountOut = allResultInfo.totalAmountOut;\n        }\n    }\n\n    function caculateOneDexAmountOut(address dexFactory, address inToken, address outToken, uint256 amountIn) public view returns(ResultInfo memory resultInfo) {\n        PathsInfo memory pathsInfo = getPaths(dexFactory, inToken, outToken);\n        address[] memory path = new address[](2);\n        path[0] = inToken;\n        path[1] = outToken;\n        \n        uint256 minUValue = getMinUValue(dexFactory, path);\n        \n        uint256 totalULiquidity = 0;\n        if (minUValue > MinLiquidityValue) {\n            totalULiquidity = totalULiquidity.add(minUValue);\n        }\n        \n        for (uint256 i = 0; i < pathsInfo.pathCount; i++) {\n            totalULiquidity = totalULiquidity.add(pathsInfo.minUValues[i]);\n        }\n        \n        uint256 partialAmountIn;\n        uint256 totalAmountOut = 0;\n        \n        resultInfo.types = new SwapPool[](4);\n        resultInfo.middleTokens = new address[](4);\n        resultInfo.partialAmountIns = new uint256[](4);\n        resultInfo.partialAmountOuts = new uint256[](4);\n        uint256 count = 0;\n        address routerAddr = dexFactory == quickSwapFactory ? quickSwapRouter : sushiSwapRouter;\n        SwapPool middleTokeType = dexFactory == quickSwapFactory ? SwapPool.QuickSwap : SwapPool.SushiSwap;\n        \n        if (minUValue > MinLiquidityValue) {\n            partialAmountIn = minUValue.mul(amountIn).div(totalULiquidity);\n            uint256 amountOut = getAmountOut(routerAddr, partialAmountIn, path);\n            \n            resultInfo.types[count] = middleTokeType;\n            resultInfo.middleTokens[count] = address(0); \n            resultInfo.partialAmountIns[count] = partialAmountIn;\n            resultInfo.partialAmountOuts[count] = amountOut;\n            totalAmountOut = totalAmountOut.add(amountOut);\n            count++;\n        }\n        \n        address[] memory tmpPath = new address[](3);\n        for (uint256 i = 0; i < pathsInfo.pathCount; i++) {\n            tmpPath[0] = inToken;\n            tmpPath[1] = pathsInfo.tokens[i];\n            tmpPath[2] = outToken;\n            partialAmountIn = pathsInfo.minUValues[i] * amountIn / totalULiquidity;\n            uint256 amountOut = getAmountOut(routerAddr, partialAmountIn, tmpPath);\n            \n            resultInfo.types[count] = middleTokeType;\n            resultInfo.middleTokens[count] = pathsInfo.tokens[i]; \n            resultInfo.partialAmountIns[count] = partialAmountIn;\n            resultInfo.partialAmountOuts[count] = amountOut;\n            totalAmountOut = totalAmountOut.add(amountOut);\n            count++;\n        }\n        resultInfo.totalAmountOut = totalAmountOut;\n        resultInfo.totalULiquidity = totalULiquidity;\n    }\n        \n    function caculateAmountOut(address inToken, address outToken, uint256 amountIn) public view returns(ResultInfo memory resultInfo) {\n        PathsInfo memory quickSwapPathsInfo = getPaths(quickSwapFactory, inToken, outToken);\n        PathsInfo memory sushiSwapPathsInfo = getPaths(sushiSwapFactory, inToken, outToken);\n        \n        address[] memory path = new address[](2);\n        path[0] = inToken;\n        path[1] = outToken;\n        \n        uint256 quickSwapMinUValue = getMinUValue(quickSwapFactory, path);\n        uint256 sushiSwapMinUValue = getMinUValue(sushiSwapFactory, path);\n        \n        uint256 totalULiquidity = 0;\n        if (quickSwapMinUValue > MinLiquidityValue) {\n            totalULiquidity = totalULiquidity.add(quickSwapMinUValue);\n        }\n        if (sushiSwapMinUValue > MinLiquidityValue) {\n            totalULiquidity = totalULiquidity.add(sushiSwapMinUValue);\n        }\n        \n        for (uint256 i = 0; i < quickSwapPathsInfo.pathCount; i++) {\n            totalULiquidity = totalULiquidity.add(quickSwapPathsInfo.minUValues[i]);\n        }\n        for (uint256 i = 0; i < sushiSwapPathsInfo.pathCount; i++) {\n            totalULiquidity = totalULiquidity.add(sushiSwapPathsInfo.minUValues[i]);\n        }\n        \n        \n        uint256 partialAmountIn;\n        uint256 totalAmountOut = 0;\n        \n        resultInfo.types = new SwapPool[](10);\n        resultInfo.middleTokens = new address[](10);\n        resultInfo.partialAmountIns = new uint256[](10);\n        resultInfo.partialAmountOuts = new uint256[](10);\n        uint256 count = 0;\n        \n        if (quickSwapMinUValue > MinLiquidityValue) {\n            partialAmountIn = quickSwapMinUValue.mul(amountIn).div(totalULiquidity);\n            uint256 amountOut = getAmountOut(quickSwapRouter, partialAmountIn, path);\n            \n            resultInfo.types[count] = SwapPool.QuickSwap;\n            resultInfo.middleTokens[count] = address(0); \n            resultInfo.partialAmountIns[count] = partialAmountIn;\n            resultInfo.partialAmountOuts[count] = amountOut;\n            totalAmountOut = totalAmountOut.add(amountOut);\n            count++;\n        }\n        \n        if (sushiSwapMinUValue > MinLiquidityValue) {\n            partialAmountIn = sushiSwapMinUValue.mul(amountIn).div(totalULiquidity);\n            uint256 amountOut = getAmountOut(sushiSwapRouter, partialAmountIn, path);\n            \n            resultInfo.types[count] = SwapPool.SushiSwap;\n            resultInfo.middleTokens[count] = address(0); \n            resultInfo.partialAmountIns[count] = partialAmountIn;\n            resultInfo.partialAmountOuts[count] = amountOut;\n            totalAmountOut = totalAmountOut.add(amountOut);\n            count++;\n        }\n        \n        address[] memory tmpPath = new address[](3);\n        for (uint256 i = 0; i < quickSwapPathsInfo.pathCount; i++) {\n            tmpPath[0] = inToken;\n            tmpPath[1] = quickSwapPathsInfo.tokens[i];\n            tmpPath[2] = outToken;\n            partialAmountIn = quickSwapPathsInfo.minUValues[i] * amountIn / totalULiquidity;\n            uint256 amountOut = getAmountOut(quickSwapRouter, partialAmountIn, tmpPath);\n            \n            resultInfo.types[count] = SwapPool.QuickSwap;\n            resultInfo.middleTokens[count] = quickSwapPathsInfo.tokens[i]; \n            resultInfo.partialAmountIns[count] = partialAmountIn;\n            resultInfo.partialAmountOuts[count] = amountOut;\n            totalAmountOut = totalAmountOut.add(amountOut);\n            count++;\n        }\n        for (uint256 i = 0; i < sushiSwapPathsInfo.pathCount; i++) {\n            tmpPath[0] = inToken;\n            tmpPath[1] = sushiSwapPathsInfo.tokens[i];\n            tmpPath[2] = outToken;\n            partialAmountIn = sushiSwapPathsInfo.minUValues[i] * amountIn / totalULiquidity;\n            uint256 amountOut = getAmountOut(sushiSwapRouter, partialAmountIn, tmpPath);\n            \n            resultInfo.types[count] = SwapPool.SushiSwap;\n            resultInfo.middleTokens[count] = sushiSwapPathsInfo.tokens[i]; \n            resultInfo.partialAmountIns[count] = partialAmountIn;\n            resultInfo.partialAmountOuts[count] = amountOut;\n            totalAmountOut = totalAmountOut.add(amountOut);\n            count++;\n        }\n        resultInfo.totalAmountOut = totalAmountOut;\n        resultInfo.totalULiquidity = totalULiquidity;\n    }\n    \n    function getAmountOut(address routerAddr, uint256 partialAmountIn, address[] memory path) public view returns(uint256) {\n        uint256[] memory amountsOut = ICommonRouter(routerAddr).getAmountsOut(partialAmountIn, path);\n        return amountsOut[path.length - 1];\n    }\n    \n    function convertThreePath(address[3] memory path) private pure returns(address[] memory newPath) {\n        newPath = new address[](path.length);\n        for (uint256 i = 0; i < path.length; i++) {\n            newPath[i] = path[i];\n        }\n    }\n    \n    function convertTwoPath(address[2] memory path) private pure returns(address[] memory newPath) {\n        newPath = new address[](path.length);\n        for (uint256 i = 0; i < path.length; i++) {\n            newPath[i] = path[i];\n        }\n    }\n    \n    function swap(ResultInfo memory _bestSwapInfo, address _inToken, address _outToken, uint256 _amountIn, address _receiver) external returns(uint256 amountOut) {\n        IERC20(_inToken).transferFrom(msg.sender, address(this), _amountIn);\n        \n        SwapPool[] memory swapPools = _bestSwapInfo.types;\n        for (uint256 i = 0; i < swapPools.length; i++) {\n            if (swapPools[i] == SwapPool.No) break;\n            \n            address[] memory path = _bestSwapInfo.middleTokens[i] == address(0) ? convertTwoPath([_inToken, _outToken]) :convertThreePath([_inToken, _bestSwapInfo.middleTokens[i], _outToken]);\n            uint256 partialAmountIn = (i == swapPools.length - 1) ? IERC20(_inToken).balanceOf(address(this)) : _bestSwapInfo.partialAmountIns[i];\n            uint256 partialAmountOut = _bestSwapInfo.partialAmountOuts[i];\n            if (swapPools[i] == SwapPool.QuickSwap) {\n                IERC20(_inToken).approve(quickSwapRouter, partialAmountIn);\n                uint256[] memory amountOuts = ICommonRouter(quickSwapRouter).swapExactTokensForTokens(partialAmountIn, partialAmountOut, path, _receiver, now);\n                amountOut = amountOut.add(amountOuts[amountOuts.length - 1]);\n            } else if (swapPools[i] == SwapPool.SushiSwap) {\n                IERC20(_inToken).approve(sushiSwapRouter, partialAmountIn);\n                uint256[] memory amountOuts = ICommonRouter(sushiSwapRouter).swapExactTokensForTokens(partialAmountIn, partialAmountOut, path, _receiver, now);\n                amountOut = amountOut.add(amountOuts[amountOuts.length - 1]);\n            } \n        }\n    }\n }",
  "sourcePath": "/Users/sam/go/src/github.com/bobo-metaverse/boboswap-contract/contracts/BoboRouter.sol",
  "compiler": {
    "name": "solc",
    "version": "0.6.12+commit.27d51765.Emscripten.clang"
  },
  "schemaVersion": "3.4.2",
  "updatedAt": "2021-08-17T01:40:14.732Z",
  "devdoc": {
    "kind": "dev",
    "methods": {
      "owner()": {
        "details": "Returns the address of the current owner."
      },
      "renounceOwnership()": {
        "details": "Leaves the contract without owner. It will not be possible to call `onlyOwner` functions anymore. Can only be called by the current owner. NOTE: Renouncing ownership will leave the contract without an owner, thereby removing any functionality that is only available to the owner."
      },
      "transferOwnership(address)": {
        "details": "Transfers ownership of the contract to a new account (`newOwner`). Can only be called by the current owner."
      }
    },
    "version": 1
  },
  "userdoc": {
    "kind": "user",
    "methods": {},
    "version": 1
  }
}