{
  "contractName": "BoboFarmer4TradeMining",
  "abi": [
    {
      "inputs": [
        {
          "internalType": "contract IBOBOToken",
          "name": "_bobo",
          "type": "address"
        },
        {
          "internalType": "contract IERC721",
          "name": "_nftToken",
          "type": "address"
        },
        {
          "internalType": "address",
          "name": "_fundContractAddr",
          "type": "address"
        },
        {
          "internalType": "uint256",
          "name": "_boboPerBlock",
          "type": "uint256"
        },
        {
          "internalType": "uint256",
          "name": "_startBlock",
          "type": "uint256"
        },
        {
          "internalType": "uint256",
          "name": "_endBlock",
          "type": "uint256"
        },
        {
          "internalType": "uint256",
          "name": "_nftStartTime",
          "type": "uint256"
        },
        {
          "internalType": "uint256",
          "name": "_nftEndTime",
          "type": "uint256"
        }
      ],
      "stateMutability": "nonpayable",
      "type": "constructor"
    },
    {
      "anonymous": false,
      "inputs": [
        {
          "indexed": true,
          "internalType": "address",
          "name": "user",
          "type": "address"
        },
        {
          "indexed": true,
          "internalType": "uint256",
          "name": "pid",
          "type": "uint256"
        },
        {
          "indexed": false,
          "internalType": "uint256[]",
          "name": "nftIds",
          "type": "uint256[]"
        }
      ],
      "name": "Deposit",
      "type": "event"
    },
    {
      "anonymous": false,
      "inputs": [
        {
          "indexed": true,
          "internalType": "address",
          "name": "user",
          "type": "address"
        },
        {
          "indexed": true,
          "internalType": "uint256",
          "name": "pid",
          "type": "uint256"
        }
      ],
      "name": "EmergencyWithdraw",
      "type": "event"
    },
    {
      "anonymous": false,
      "inputs": [
        {
          "indexed": true,
          "internalType": "address",
          "name": "previousOwner",
          "type": "address"
        },
        {
          "indexed": true,
          "internalType": "address",
          "name": "newOwner",
          "type": "address"
        }
      ],
      "name": "OwnershipTransferred",
      "type": "event"
    },
    {
      "anonymous": false,
      "inputs": [
        {
          "indexed": true,
          "internalType": "address",
          "name": "user",
          "type": "address"
        },
        {
          "indexed": true,
          "internalType": "uint256",
          "name": "pid",
          "type": "uint256"
        },
        {
          "indexed": false,
          "internalType": "uint256[]",
          "name": "nftIds",
          "type": "uint256[]"
        }
      ],
      "name": "Withdraw",
      "type": "event"
    },
    {
      "anonymous": false,
      "inputs": [
        {
          "indexed": true,
          "internalType": "address",
          "name": "user",
          "type": "address"
        },
        {
          "indexed": true,
          "internalType": "uint256",
          "name": "pid",
          "type": "uint256"
        }
      ],
      "name": "WithdrawAll",
      "type": "event"
    },
    {
      "inputs": [],
      "name": "BONUS_MULTIPLIER",
      "outputs": [
        {
          "internalType": "uint256",
          "name": "",
          "type": "uint256"
        }
      ],
      "stateMutability": "view",
      "type": "function"
    },
    {
      "inputs": [],
      "name": "bobo",
      "outputs": [
        {
          "internalType": "contract IBOBOToken",
          "name": "",
          "type": "address"
        }
      ],
      "stateMutability": "view",
      "type": "function"
    },
    {
      "inputs": [],
      "name": "boboPerBlock",
      "outputs": [
        {
          "internalType": "uint256",
          "name": "",
          "type": "uint256"
        }
      ],
      "stateMutability": "view",
      "type": "function"
    },
    {
      "inputs": [],
      "name": "denominator",
      "outputs": [
        {
          "internalType": "uint256",
          "name": "",
          "type": "uint256"
        }
      ],
      "stateMutability": "view",
      "type": "function"
    },
    {
      "inputs": [],
      "name": "endBlock",
      "outputs": [
        {
          "internalType": "uint256",
          "name": "",
          "type": "uint256"
        }
      ],
      "stateMutability": "view",
      "type": "function"
    },
    {
      "inputs": [],
      "name": "fundContractAddr",
      "outputs": [
        {
          "internalType": "address",
          "name": "",
          "type": "address"
        }
      ],
      "stateMutability": "view",
      "type": "function"
    },
    {
      "inputs": [],
      "name": "nftEndTime",
      "outputs": [
        {
          "internalType": "uint256",
          "name": "",
          "type": "uint256"
        }
      ],
      "stateMutability": "view",
      "type": "function"
    },
    {
      "inputs": [],
      "name": "nftStartTime",
      "outputs": [
        {
          "internalType": "uint256",
          "name": "",
          "type": "uint256"
        }
      ],
      "stateMutability": "view",
      "type": "function"
    },
    {
      "inputs": [],
      "name": "numerator",
      "outputs": [
        {
          "internalType": "uint256",
          "name": "",
          "type": "uint256"
        }
      ],
      "stateMutability": "view",
      "type": "function"
    },
    {
      "inputs": [],
      "name": "owner",
      "outputs": [
        {
          "internalType": "address",
          "name": "",
          "type": "address"
        }
      ],
      "stateMutability": "view",
      "type": "function"
    },
    {
      "inputs": [
        {
          "internalType": "uint256",
          "name": "",
          "type": "uint256"
        }
      ],
      "name": "poolInfo",
      "outputs": [
        {
          "internalType": "uint256",
          "name": "totalWeightOfNFT",
          "type": "uint256"
        },
        {
          "internalType": "uint256",
          "name": "lastRewardBlock",
          "type": "uint256"
        },
        {
          "internalType": "uint256",
          "name": "accBoboPerShare",
          "type": "uint256"
        }
      ],
      "stateMutability": "view",
      "type": "function"
    },
    {
      "inputs": [],
      "name": "renounceOwnership",
      "outputs": [],
      "stateMutability": "nonpayable",
      "type": "function"
    },
    {
      "inputs": [],
      "name": "startBlock",
      "outputs": [
        {
          "internalType": "uint256",
          "name": "",
          "type": "uint256"
        }
      ],
      "stateMutability": "view",
      "type": "function"
    },
    {
      "inputs": [],
      "name": "totalAllocPoint",
      "outputs": [
        {
          "internalType": "uint256",
          "name": "",
          "type": "uint256"
        }
      ],
      "stateMutability": "view",
      "type": "function"
    },
    {
      "inputs": [
        {
          "internalType": "address",
          "name": "newOwner",
          "type": "address"
        }
      ],
      "name": "transferOwnership",
      "outputs": [],
      "stateMutability": "nonpayable",
      "type": "function"
    },
    {
      "inputs": [
        {
          "internalType": "uint256",
          "name": "",
          "type": "uint256"
        },
        {
          "internalType": "address",
          "name": "",
          "type": "address"
        }
      ],
      "name": "userInfo",
      "outputs": [
        {
          "internalType": "uint256",
          "name": "weight",
          "type": "uint256"
        },
        {
          "internalType": "uint256",
          "name": "rewardDebt",
          "type": "uint256"
        }
      ],
      "stateMutability": "view",
      "type": "function"
    },
    {
      "inputs": [
        {
          "internalType": "uint256",
          "name": "_numerator",
          "type": "uint256"
        },
        {
          "internalType": "uint256",
          "name": "_denominator",
          "type": "uint256"
        }
      ],
      "name": "setFundScale",
      "outputs": [],
      "stateMutability": "nonpayable",
      "type": "function"
    },
    {
      "inputs": [],
      "name": "poolLength",
      "outputs": [
        {
          "internalType": "uint256",
          "name": "",
          "type": "uint256"
        }
      ],
      "stateMutability": "view",
      "type": "function"
    },
    {
      "inputs": [
        {
          "internalType": "uint256",
          "name": "_from",
          "type": "uint256"
        },
        {
          "internalType": "uint256",
          "name": "_to",
          "type": "uint256"
        }
      ],
      "name": "getMultiplier",
      "outputs": [
        {
          "internalType": "uint256",
          "name": "",
          "type": "uint256"
        }
      ],
      "stateMutability": "view",
      "type": "function"
    },
    {
      "inputs": [
        {
          "internalType": "uint256",
          "name": "_pid",
          "type": "uint256"
        },
        {
          "internalType": "address",
          "name": "_user",
          "type": "address"
        }
      ],
      "name": "pendingBOBO",
      "outputs": [
        {
          "internalType": "uint256",
          "name": "",
          "type": "uint256"
        }
      ],
      "stateMutability": "view",
      "type": "function"
    },
    {
      "inputs": [],
      "name": "massUpdatePools",
      "outputs": [],
      "stateMutability": "nonpayable",
      "type": "function"
    },
    {
      "inputs": [
        {
          "internalType": "uint256",
          "name": "_pid",
          "type": "uint256"
        }
      ],
      "name": "updatePool",
      "outputs": [],
      "stateMutability": "nonpayable",
      "type": "function"
    },
    {
      "inputs": [
        {
          "internalType": "uint256[]",
          "name": "_nftIds",
          "type": "uint256[]"
        }
      ],
      "name": "deposit",
      "outputs": [],
      "stateMutability": "nonpayable",
      "type": "function"
    },
    {
      "inputs": [
        {
          "internalType": "uint256[]",
          "name": "_nftIds",
          "type": "uint256[]"
        }
      ],
      "name": "withdraw",
      "outputs": [],
      "stateMutability": "nonpayable",
      "type": "function"
    },
    {
      "inputs": [],
      "name": "withdrawAll",
      "outputs": [],
      "stateMutability": "nonpayable",
      "type": "function"
    },
    {
      "inputs": [],
      "name": "emergencyWithdraw",
      "outputs": [],
      "stateMutability": "nonpayable",
      "type": "function"
    },
    {
      "inputs": [
        {
          "internalType": "address",
          "name": "_user",
          "type": "address"
        }
      ],
      "name": "getUserNFTNumber",
      "outputs": [
        {
          "internalType": "uint256",
          "name": "",
          "type": "uint256"
        }
      ],
      "stateMutability": "view",
      "type": "function"
    },
    {
      "inputs": [
        {
          "internalType": "address",
          "name": "_user",
          "type": "address"
        },
        {
          "internalType": "uint256",
          "name": "_fromIndex",
          "type": "uint256"
        },
        {
          "internalType": "uint256",
          "name": "_toIndex",
          "type": "uint256"
        }
      ],
      "name": "getUserNFTIds",
      "outputs": [
        {
          "internalType": "uint256[]",
          "name": "nftIds",
          "type": "uint256[]"
        }
      ],
      "stateMutability": "view",
      "type": "function"
    }
  ],
  "bytecode": "0x608060405260016007556000600b553480156200001b57600080fd5b50604051620024bc380380620024bc8339810160408190526200003e9162000197565b60006200004a62000193565b600080546001600160a01b0319166001600160a01b0383169081178255604051929350917f8be0079c531659141344cd1fd0a4f28419497f9722a3daafe3b4186f6b6457e0908290a350600180546001600160a01b03199081166001600160a01b039a8b16178255600280548216998b16999099179098556003805490981696909816959095178655600693909355600c829055600d55600e91909155600f9190915560408051606081018252600080825260208201938452918101828152600880549687018155909252517ff3f7a9fe364faab93b216da50a3214154f22a0a2b415b23a84c8169e8b636ee39490930293840192909255517ff3f7a9fe364faab93b216da50a3214154f22a0a2b415b23a84c8169e8b636ee4830155517ff3f7a9fe364faab93b216da50a3214154f22a0a2b415b23a84c8169e8b636ee59091015562000233565b3390565b600080600080600080600080610100898b031215620001b4578384fd5b8851620001c1816200021a565b60208a0151909850620001d4816200021a565b60408a0151909750620001e7816200021a565b60608a015160808b015160a08c015160c08d015160e0909d01519b9e9a9d50929b919a9099929850909650945092505050565b6001600160a01b03811681146200023057600080fd5b50565b61227980620002436000396000f3fe608060405234801561001057600080fd5b50600436106101c45760003560e01c8063715018a6116100f957806396ce079511610097578063ce5f945411610071578063ce5f945414610346578063d8fc5d7b1461034e578063db2e21bc14610356578063f2fde38b1461035e576101c4565b806396ce079514610323578063983d95ce1461032b578063c0329a6d1461033e576101c4565b80638da5cb5b116100d35780638da5cb5b146102d45780638dbb1e3a146102dc5780638eb7e51e146102ef57806393f1a40b14610302576101c4565b8063715018a6146102bc578063853828b6146102c45780638aa28550146102cc576101c4565b8063474b21c51161016657806355d59a151161014057806355d59a151461027b578063598b8e711461028e578063630b5ba1146102a15780636d7c82c2146102a9576101c4565b8063474b21c51461025657806348cd4cb11461025e57806351eb05a614610266576101c4565b80631526fe27116101a25780631526fe27146101f757806317caf6f1146102195780631a016c09146102215780632bf258ed14610236576101c4565b8063081e3eda146101c9578063083c6323146101e757806313c739a0146101ef575b600080fd5b6101d1610371565b6040516101de919061216e565b60405180910390f35b6101d1610377565b6101d161037d565b61020a610205366004611ccc565b610383565b6040516101de93929190612185565b6101d16103b3565b6102296103b9565b6040516101de9190611d68565b610249610244366004611add565b6103c8565b6040516101de9190611db9565b6101d16104bf565b6101d16104c5565b610279610274366004611ccc565b6104cb565b005b610279610289366004611d2b565b610716565b61027961029c366004611b11565b610756565b610279610ad1565b6101d16102b7366004611cfc565b610af4565b610279610bd9565b610279610c58565b6101d1610e90565b610229610e96565b6101d16102ea366004611d2b565b610ea5565b6101d16102fd366004611ac1565b610ed8565b610315610310366004611cfc565b610ef9565b6040516101de929190612177565b6101d1610f1d565b610279610339366004611b11565b610f23565b6102296111f6565b6101d1611205565b6101d161120b565b610279611211565b61027961036c366004611ac1565b6113e2565b60085490565b600d5481565b600e5481565b6008818154811061039057fe5b600091825260209091206003909102018054600182015460029092015490925083565b600b5481565b6001546001600160a01b031681565b6001600160a01b0383166000908152600a60205260408120606091906103ed90611498565b9050808311156103fb578092505b8284106104235760405162461bcd60e51b815260040161041a906120ad565b60405180910390fd5b83830367ffffffffffffffff8111801561043c57600080fd5b50604051908082528060200260200182016040528015610466578160200160208202803683370190505b509150835b838510156104b6576001600160a01b0386166000908152600a6020526040902061049590826114a3565b83868303815181106104a357fe5b602090810291909101015260010161046b565b50509392505050565b600f5481565b600c5481565b6000600882815481106104da57fe5b90600052602060002090600302019050806001015443116104fb5750610713565b80548061050f575043600190910155610713565b600061051f836001015443610ea5565b90506000610538600654836114af90919063ffffffff16565b905080156106df57600061056360045461055d600554856114af90919063ffffffff16565b906114e9565b6001549091506001600160a01b03166340c10f1930610582858561152b565b6040518363ffffffff1660e01b815260040161059f929190611da0565b602060405180830381600087803b1580156105b957600080fd5b505af11580156105cd573d6000803e3d6000fd5b505050506040513d601f19601f820116820180604052508101906105f19190611ba6565b5060015460035460405163095ea7b360e01b81526001600160a01b039283169263095ea7b392610628929116908590600401611da0565b602060405180830381600087803b15801561064257600080fd5b505af1158015610656573d6000803e3d6000fd5b505050506040513d601f19601f8201168201806040525081019061067a9190611ba6565b50600354604051632a5360c760e21b81526001600160a01b039091169063a94d831c906106ab90849060040161216e565b600060405180830381600087803b1580156106c557600080fd5b505af11580156106d9573d6000803e3d6000fd5b50505050505b6107006106f58461055d8464e8d4a510006114af565b60028601549061152b565b6002850155505043600190920191909155505b50565b61071e611550565b6000546001600160a01b0390811691161461074b5760405162461bcd60e51b815260040161041a90612015565b600591909155600455565b6000600860008154811061076657fe5b600091825260208083203384526000805160206122248339815191529091526040832060039092020192509061079b906104cb565b8054156107ea5760006107d682600101546107d064e8d4a5100061055d876002015487600001546114af90919063ffffffff16565b90611554565b905080156107e8576107e83382611596565b505b825115610a6f5760005b8351811015610a6d576108056119b6565b60025485516001600160a01b039091169063d311636b9087908590811061082857fe5b60200260200101516040518263ffffffff1660e01b815260040161084c919061216e565b60006040518083038186803b15801561086457600080fd5b505afa158015610878573d6000803e3d6000fd5b505050506040513d6000823e601f3d908101601f191682016040526108a09190810190611bc6565b9050600281610100015160038111156108b557fe5b146108d25760405162461bcd60e51b815260040161041a90611e72565b600e54816101600151101580156108ef5750600f54816101600151105b61090b5760405162461bcd60e51b815260040161041a90611efa565b60025485516001600160a01b03909116906342842e0e903390309089908790811061093257fe5b60200260200101516040518463ffffffff1660e01b815260040161095893929190611d7c565b600060405180830381600087803b15801561097257600080fd5b505af1158015610986573d6000803e3d6000fd5b50506002548751610a2d93506001600160a01b03909116915063d851fdfd908890869081106109b157fe5b60200260200101516040518263ffffffff1660e01b81526004016109d5919061216e565b60206040518083038186803b1580156109ed57600080fd5b505afa158015610a01573d6000803e3d6000fd5b505050506040513d601f19601f82011682018060405250810190610a259190611ce4565b84549061152b565b83558451610a6390869084908110610a4157fe5b602090810291909101810151336000908152600a9092526040909120906115ae565b50506001016107f4565b505b60028201548154610a8a9164e8d4a510009161055d916114af565b600182015560405160009033907fe7425730072f5a6ec278ae24c998f6a79299c875cbd84ad35585563a0cb3c66690610ac4908790611db9565b60405180910390a3505050565b60085460005b81811015610af057610ae8816104cb565b600101610ad7565b5050565b60008060088481548110610b0457fe5b600091825260208083208784526009825260408085206001600160a01b03891686529092529220600260039092029092019081015481546001830154929450909143118015610b5257508015155b15610ba4576000610b67856001015443610ea5565b90506000610b80600654836114af90919063ffffffff16565b9050610b9f610b988461055d8464e8d4a510006114af565b859061152b565b935050505b610bcc83600101546107d064e8d4a5100061055d8688600001546114af90919063ffffffff16565b9450505050505b92915050565b610be1611550565b6000546001600160a01b03908116911614610c0e5760405162461bcd60e51b815260040161041a90612015565b600080546040516001600160a01b03909116907f8be0079c531659141344cd1fd0a4f28419497f9722a3daafe3b4186f6b6457e0908390a3600080546001600160a01b0319169055565b60006008600081548110610c6857fe5b6000918252602080832033845260008051602061222483398151915290915260408320600390920201925090610c9d906104cb565b6000610ccb82600101546107d064e8d4a5100061055d876002015487600001546114af90919063ffffffff16565b90508015610cdd57610cdd3382611596565b336000908152600a60205260408120610cf590611498565b905060005b81811015610e3c57336000908152600a60205260408120610d1b90836114a3565b905080610d285750610e3c565b60025460405163d851fdfd60e01b8152610db2916001600160a01b03169063d851fdfd90610d5a90859060040161216e565b60206040518083038186803b158015610d7257600080fd5b505afa158015610d86573d6000803e3d6000fd5b505050506040513d601f19601f82011682018060405250810190610daa9190611ce4565b865490611554565b8555600254604051632142170760e11b81526001600160a01b03909116906342842e0e90610de890309033908690600401611d7c565b600060405180830381600087803b158015610e0257600080fd5b505af1158015610e16573d6000803e3d6000fd5b5050336000908152600a60205260409020610e3492509050826115ba565b50610cfa9050565b5060028401548354610e589164e8d4a510009161055d916114af565b600184015560405160009033907fd7a4aa9f3dca5f6606ac15d7e1850920201bbb02c38cd986793779f58ae0dfd3908390a350505050565b60075481565b6000546001600160a01b031690565b6000600c54831015610eb757600c5492505b600d54821115610ec757600d5491505b610ed18284611554565b9392505050565b6001600160a01b0381166000908152600a60205260408120610bd390611498565b60096020908152600092835260408084209091529082529020805460019091015482565b60045481565b60006008600081548110610f3357fe5b60009182526020808320338452600080516020612224833981519152825260408085208751600a9094529420600390930201935090610f7190611498565b1015610f8f5760405162461bcd60e51b815260040161041a90612081565b610f9960006104cb565b6000610fc782600101546107d064e8d4a5100061055d876002015487600001546114af90919063ffffffff16565b90508015610fd957610fd93382611596565b60005b845181101561119257611016858281518110610ff457fe5b602090810291909101810151336000908152600a9092526040909120906115c6565b6110325760405162461bcd60e51b815260040161041a906120dd565b61106385828151811061104157fe5b602090810291909101810151336000908152600a9092526040909120906115ba565b506002548551611105916001600160a01b03169063d851fdfd9088908590811061108957fe5b60200260200101516040518263ffffffff1660e01b81526004016110ad919061216e565b60206040518083038186803b1580156110c557600080fd5b505afa1580156110d9573d6000803e3d6000fd5b505050506040513d601f19601f820116820180604052508101906110fd9190611ce4565b845490611554565b835560025485516001600160a01b03909116906342842e0e903090339089908690811061112e57fe5b60200260200101516040518463ffffffff1660e01b815260040161115493929190611d7c565b600060405180830381600087803b15801561116e57600080fd5b505af1158015611182573d6000803e3d6000fd5b505060019092019150610fdc9050565b50600283015482546111ae9164e8d4a510009161055d916114af565b600183015560405160009033907faef68853d1f7f9e4e5fe02896078a87a319c7b257208dac49346c8f03b36c685906111e8908890611db9565b60405180910390a350505050565b6003546001600160a01b031681565b60055481565b60065481565b6000600860008154811061122157fe5b6000918252602080832033845260008051602061222483398151915282526040808520600a90935284206003909302019350919061125e90611498565b905060005b818110156113a557336000908152600a6020526040812061128490836114a3565b90508061129157506113a5565b60025460405163d851fdfd60e01b815261131b916001600160a01b03169063d851fdfd906112c390859060040161216e565b60206040518083038186803b1580156112db57600080fd5b505afa1580156112ef573d6000803e3d6000fd5b505050506040513d601f19601f820116820180604052508101906113139190611ce4565b855490611554565b8455600254604051632142170760e11b81526001600160a01b03909116906342842e0e9061135190309033908690600401611d7c565b600060405180830381600087803b15801561136b57600080fd5b505af115801561137f573d6000803e3d6000fd5b5050336000908152600a6020526040902061139d92509050826115ba565b506112639050565b5060405160009033907f5fafa99d0643513820be26656b45130b01e1c03062e1266bf36f88cbd3bd9695908390a350600080825560019091015550565b6113ea611550565b6000546001600160a01b039081169116146114175760405162461bcd60e51b815260040161041a90612015565b6001600160a01b03811661143d5760405162461bcd60e51b815260040161041a90611eb4565b600080546040516001600160a01b03808516939216917f8be0079c531659141344cd1fd0a4f28419497f9722a3daafe3b4186f6b6457e091a3600080546001600160a01b0319166001600160a01b0392909216919091179055565b6000610bd3826115d2565b6000610ed183836115d6565b6000826114be57506000610bd3565b828202828482816114cb57fe5b0414610ed15760405162461bcd60e51b815260040161041a90611fd4565b6000610ed183836040518060400160405280601a81526020017f536166654d6174683a206469766973696f6e206279207a65726f00000000000081525061161b565b600082820183811015610ed15760405162461bcd60e51b815260040161041a90611f57565b3390565b6000610ed183836040518060400160405280601e81526020017f536166654d6174683a207375627472616374696f6e206f766572666c6f770000815250611652565b600354610af0906001600160a01b031630848461167e565b6000610ed183836116dc565b6000610ed18383611726565b6000610ed183836117f3565b5490565b815460009082106115f95760405162461bcd60e51b815260040161041a90611e30565b82600001828154811061160857fe5b9060005260206000200154905092915050565b6000818361163c5760405162461bcd60e51b815260040161041a9190611dfd565b50600083858161164857fe5b0495945050505050565b600081848411156116765760405162461bcd60e51b815260040161041a9190611dfd565b505050900390565b6116d6846323b872dd60e01b85858560405160240161169f93929190611d7c565b60408051601f198184030181529190526020810180516001600160e01b03166001600160e01b03199093169290921790915261180b565b50505050565b60006116e883836117f3565b61171e57508154600181810184556000848152602080822090930184905584548482528286019093526040902091909155610bd3565b506000610bd3565b600081815260018301602052604081205480156117e2578354600019808301919081019060009087908390811061175957fe5b906000526020600020015490508087600001848154811061177657fe5b6000918252602080832090910192909255828152600189810190925260409020908401905586548790806117a657fe5b60019003818190600052602060002001600090559055866001016000878152602001908152602001600020600090556001945050505050610bd3565b6000915050610bd3565b5092915050565b60009081526001919091016020526040902054151590565b6060611860826040518060400160405280602081526020017f5361666545524332303a206c6f772d6c6576656c2063616c6c206661696c6564815250856001600160a01b031661189f9092919063ffffffff16565b80519091501561189a578080602001905181019061187e9190611ba6565b61189a5760405162461bcd60e51b815260040161041a90612124565b505050565b60606118ae84846000856118b6565b949350505050565b6060824710156118d85760405162461bcd60e51b815260040161041a90611f8e565b6118e185611977565b6118fd5760405162461bcd60e51b815260040161041a9061204a565b60006060866001600160a01b0316858760405161191a9190611d4c565b60006040518083038185875af1925050503d8060008114611957576040519150601f19603f3d011682016040523d82523d6000602084013e61195c565b606091505b509150915061196c82828661197d565b979650505050505050565b3b151590565b6060831561198c575081610ed1565b82511561199c5782518084602001fd5b8160405162461bcd60e51b815260040161041a9190611dfd565b6040518061018001604052806000815260200160006001600160a01b0316815260200160006001600160a01b031681526020016000151581526020016000815260200160008152602001600081526020016000815260200160006003811115611a1b57fe5b81526020016060815260200160008152602001600081525090565b8051610bd38161220e565b80518015158114610bd357600080fd5b805160048110610bd357600080fd5b600082601f830112611a70578081fd5b815167ffffffffffffffff811115611a86578182fd5b611a99601f8201601f191660200161219b565b9150808252836020828501011115611ab057600080fd5b6117ec8160208401602086016121e2565b600060208284031215611ad2578081fd5b8135610ed18161220e565b600080600060608486031215611af1578182fd5b8335611afc8161220e565b95602085013595506040909401359392505050565b60006020808385031215611b23578182fd5b823567ffffffffffffffff811115611b39578283fd5b8301601f81018513611b49578283fd5b8035611b5c611b57826121c2565b61219b565b8181528381019083850185840285018601891015611b78578687fd5b8694505b83851015611b9a578035835260019490940193918501918501611b7c565b50979650505050505050565b600060208284031215611bb7578081fd5b81518015158114610ed1578182fd5b600060208284031215611bd7578081fd5b815167ffffffffffffffff80821115611bee578283fd5b8184019150610180808387031215611c04578384fd5b611c0d8161219b565b905082518152611c208660208501611a36565b6020820152611c328660408501611a36565b6040820152611c448660608501611a41565b60608201526080830151608082015260a083015160a082015260c083015160c082015260e083015160e0820152610100611c8087828601611a51565b908201526101208381015183811115611c97578586fd5b611ca388828701611a60565b918301919091525061014083810151908201526101609283015192810192909252509392505050565b600060208284031215611cdd578081fd5b5035919050565b600060208284031215611cf5578081fd5b5051919050565b60008060408385031215611d0e578182fd5b823591506020830135611d208161220e565b809150509250929050565b60008060408385031215611d3d578182fd5b50508035926020909101359150565b60008251611d5e8184602087016121e2565b9190910192915050565b6001600160a01b0391909116815260200190565b6001600160a01b039384168152919092166020820152604081019190915260600190565b6001600160a01b03929092168252602082015260400190565b6020808252825182820181905260009190848201906040850190845b81811015611df157835183529284019291840191600101611dd5565b50909695505050505050565b6000602082528251806020840152611e1c8160408501602087016121e2565b601f01601f19169190910160400192915050565b60208082526022908201527f456e756d657261626c655365743a20696e646578206f7574206f6620626f756e604082015261647360f01b606082015260800190565b60208082526022908201527f54686520737461747573206f66206f72646572206973204e4f54206465616c65604082015261321760f11b606082015260800190565b60208082526026908201527f4f776e61626c653a206e6577206f776e657220697320746865207a65726f206160408201526564647265737360d01b606082015260800190565b6020808252603c908201527f546865206465616c65642074696d65206f66206f72646572206973204e4f542060408201527f73746174697366696564206279207468697320636f6e74726163742e00000000606082015260800190565b6020808252601b908201527f536166654d6174683a206164646974696f6e206f766572666c6f770000000000604082015260600190565b60208082526026908201527f416464726573733a20696e73756666696369656e742062616c616e636520666f6040820152651c8818d85b1b60d21b606082015260800190565b60208082526021908201527f536166654d6174683a206d756c7469706c69636174696f6e206f766572666c6f6040820152607760f81b606082015260800190565b6020808252818101527f4f776e61626c653a2063616c6c6572206973206e6f7420746865206f776e6572604082015260600190565b6020808252601d908201527f416464726573733a2063616c6c20746f206e6f6e2d636f6e7472616374000000604082015260600190565b6020808252601290820152711dda5d1a191c985dce881b9bdd0819dbdbd960721b604082015260600190565b60208082526016908201527524b73232bc1034b99037baba1037b3103930b733b29760511b604082015260600190565b60208082526027908201527f4e4654206964206973204e4f5420636f6e7461696e656420696e20757365722760408201526639903634b9ba1760c91b606082015260800190565b6020808252602a908201527f5361666545524332303a204552433230206f7065726174696f6e20646964206e6040820152691bdd081cdd58d8d9595960b21b606082015260800190565b90815260200190565b918252602082015260400190565b9283526020830191909152604082015260600190565b60405181810167ffffffffffffffff811182821017156121ba57600080fd5b604052919050565b600067ffffffffffffffff8211156121d8578081fd5b5060209081020190565b60005b838110156121fd5781810151838201526020016121e5565b838111156116d65750506000910152565b6001600160a01b038116811461071357600080fdfeec8156718a8372b1db44bb411437d0870f3e3790d4a08526d024ce1b0b668f6ba2646970667358221220290a0727d9339f32eda1164911bbffc38dfdaaf121171c8016fe85f430f9dce364736f6c634300060c0033",
  "immutableReferences": {},
  "source": "// SPDX-License-Identifier: MIT\npragma solidity ^0.6.0;\npragma experimental ABIEncoderV2;\n        \nimport \"./common/BasicStruct.sol\";\n\n// NFT, \n// 5%16\n// 95%951%8\ncontract BoboFarmer4TradeMining is Ownable {\n    using SafeMath for uint256;\n    using SafeERC20 for IERC20;\n    using EnumerableSet for EnumerableSet.UintSet;\n\n    // Info of each user.\n    struct UserInfo {\n        uint256 weight;     // How many NFT weight of the user has provided.\n        uint256 rewardDebt; // Reward debt. See explanation below.\n    }\n\n    // Info of each pool.\n    struct PoolInfo {\n        uint256 totalWeightOfNFT;       // How many weight of all NFTs staked in this contract.\n        uint256 lastRewardBlock;  // Last block number that BOBOs distribution occurs.\n        uint256 accBoboPerShare; // Accumulated BOBOs per share, times 1e12. See below.\n    }\n\n    // The BOBO TOKEN!\n    IBOBOToken public bobo;\n    IERC721 nftToken;           // Address of LP token contract.\n    // fund contract address\n    address public fundContractAddr;\n    uint256 public denominator;\n    uint256 public numerator;\n    // BOBO tokens created per block.\n    uint256 public boboPerBlock;\n    // Bonus muliplier for early bobo makers.\n    uint256 public BONUS_MULTIPLIER = 1;\n\n    // Info of each pool.\n    PoolInfo[] public poolInfo;\n    // Info of each user that stakes NFT tokens.\n    mapping (uint256 => mapping (address => UserInfo)) public userInfo;\n    // Staked NFTs of each user \n    mapping (address => EnumerableSet.UintSet) private userNFTIds;\n    // Total allocation poitns. Must be the sum of all allocation points in all pools.\n    uint256 public totalAllocPoint = 0;\n    // The block number when BOBO mining starts.\n    uint256 public startBlock;\n    uint256 public endBlock;\n\n    uint256 public nftStartTime;\n    uint256 public nftEndTime;\n\n    event Deposit(address indexed user, uint256 indexed pid, uint256[] nftIds);\n    event Withdraw(address indexed user, uint256 indexed pid, uint256[] nftIds);\n    event WithdrawAll(address indexed user, uint256 indexed pid);\n    event EmergencyWithdraw(address indexed user, uint256 indexed pid);\n\n    constructor(\n        IBOBOToken _bobo,\n        IERC721 _nftToken,\n        address _fundContractAddr,\n        uint256 _boboPerBlock,\n        uint256 _startBlock,\n        uint256 _endBlock,\n        uint256 _nftStartTime,\n        uint256 _nftEndTime\n    ) public {\n        bobo = _bobo;\n        nftToken = _nftToken;\n        fundContractAddr = _fundContractAddr;\n        boboPerBlock = _boboPerBlock;\n        startBlock = _startBlock;\n        endBlock = _endBlock;\n        nftStartTime = _nftStartTime;\n        nftEndTime = _nftEndTime;\n\n        // staking pool\n        poolInfo.push(PoolInfo({\n            totalWeightOfNFT: 0,\n            lastRewardBlock: startBlock,\n            accBoboPerShare: 0\n        }));\n    }\n\n    function setFundScale(uint256 _numerator, uint256 _denominator) public onlyOwner {\n        numerator = _numerator;\n        denominator = _denominator;\n    }\n\n    function poolLength() external view returns (uint256) {\n        return poolInfo.length;\n    }\n\n    // Return reward multiplier over the given _from to _to block.\n    function getMultiplier(uint256 _from, uint256 _to) public view returns (uint256) {\n        if (_from < startBlock) _from = startBlock;\n        if (_to > endBlock) _to = endBlock;\n        return _to.sub(_from);\n    }\n\n    // View function to see pending BOBOs on frontend.\n    function pendingBOBO(uint256 _pid, address _user) external view returns (uint256) {\n        PoolInfo storage pool = poolInfo[_pid];\n        UserInfo storage user = userInfo[_pid][_user];\n        uint256 accBoboPerShare = pool.accBoboPerShare;\n        uint256 totalWeight = pool.totalWeightOfNFT;\n        if (block.number > pool.lastRewardBlock && totalWeight != 0) {\n            uint256 multiplier = getMultiplier(pool.lastRewardBlock, block.number);\n            uint256 boboReward = multiplier.mul(boboPerBlock);\n            accBoboPerShare = accBoboPerShare.add(boboReward.mul(1e12).div(totalWeight));\n        }\n        return user.weight.mul(accBoboPerShare).div(1e12).sub(user.rewardDebt);\n    }\n\n    // Update reward variables for all pools. Be careful of gas spending!\n    function massUpdatePools() public {\n        uint256 length = poolInfo.length;\n        for (uint256 pid = 0; pid < length; ++pid) {\n            updatePool(pid);\n        }\n    }\n\n\n    // Update reward variables of the given pool to be up-to-date.\n    function updatePool(uint256 _pid) public {\n        PoolInfo storage pool = poolInfo[_pid];\n        if (block.number <= pool.lastRewardBlock) {\n            return;\n        }\n        uint256 totalWeight = pool.totalWeightOfNFT;\n        if (totalWeight == 0) {\n            pool.lastRewardBlock = block.number;\n            return;\n        }\n        uint256 multiplier = getMultiplier(pool.lastRewardBlock, block.number);\n        uint256 boboReward = multiplier.mul(boboPerBlock);  \n        if (boboReward > 0) {\n            uint256 fundAmount = boboReward.mul(numerator).div(denominator);\n            bobo.mint(address(this), boboReward.add(fundAmount));\n            bobo.approve(fundContractAddr, fundAmount);\n            IBoboFund(fundContractAddr).transferBobo(fundAmount);\n        }\n        pool.accBoboPerShare = pool.accBoboPerShare.add(boboReward.mul(1e12).div(totalWeight));\n        pool.lastRewardBlock = block.number;\n    }\n\n    // Deposit LP tokens to MasterChef for BOBO allocation.\n    function deposit(uint256[] memory _nftIds) public {\n        PoolInfo storage pool = poolInfo[0];\n        UserInfo storage user = userInfo[0][msg.sender];\n        updatePool(0);\n        if (user.weight > 0) {\n            uint256 pending = user.weight.mul(pool.accBoboPerShare).div(1e12).sub(user.rewardDebt);\n            if(pending > 0) {\n                safeBOBOTransfer(msg.sender, pending);\n            }\n        }\n        if (_nftIds.length > 0) {\n            for (uint256 i = 0; i < _nftIds.length; i++) {\n                NFTInfo memory nftInfo = IOrderNFT(address(nftToken)).getOrderInfo(_nftIds[i]);\n                require(nftInfo.status == OrderStatus.AMMDeal, \"The status of order is NOT dealed.\");\n                require(nftInfo.dealedTime >= nftStartTime && nftInfo.dealedTime < nftEndTime, \"The dealed time of order is NOT statisfied by this contract.\");\n                nftToken.safeTransferFrom(address(msg.sender), address(this), _nftIds[i]);\n                user.weight = user.weight.add(IOrderNFT(address(nftToken)).getWeight(_nftIds[i]));\n                userNFTIds[msg.sender].add(_nftIds[i]);\n            }\n        }\n        user.rewardDebt = user.weight.mul(pool.accBoboPerShare).div(1e12);\n        emit Deposit(msg.sender, 0, _nftIds);\n    }\n\n    // Withdraw LP tokens from MasterChef.\n    function withdraw(uint256[] memory _nftIds) public {\n        PoolInfo storage pool = poolInfo[0];\n        UserInfo storage user = userInfo[0][msg.sender];\n        require(userNFTIds[msg.sender].length() >= _nftIds.length, \"withdraw: not good\");\n        updatePool(0);\n        uint256 pending = user.weight.mul(pool.accBoboPerShare).div(1e12).sub(user.rewardDebt);\n        if (pending > 0) {\n            safeBOBOTransfer(msg.sender, pending);\n        }\n        for (uint256 i = 0; i < _nftIds.length; i++) {\n            require(userNFTIds[msg.sender].contains(_nftIds[i]), \"NFT id is NOT contained in user's list.\");\n            userNFTIds[msg.sender].remove(_nftIds[i]);\n\n            user.weight = user.weight.sub(IOrderNFT(address(nftToken)).getWeight(_nftIds[i]));\n            nftToken.safeTransferFrom(address(this), address(msg.sender), _nftIds[i]);\n        }\n        user.rewardDebt = user.weight.mul(pool.accBoboPerShare).div(1e12);\n        emit Withdraw(msg.sender, 0, _nftIds);\n    }\n\n    function withdrawAll() public {\n        PoolInfo storage pool = poolInfo[0];\n        UserInfo storage user = userInfo[0][msg.sender];\n        updatePool(0);\n        uint256 pending = user.weight.mul(pool.accBoboPerShare).div(1e12).sub(user.rewardDebt);\n        if (pending > 0) {\n            safeBOBOTransfer(msg.sender, pending);\n        }\n        uint256 length = userNFTIds[msg.sender].length();\n        for (uint256 i = 0; i < length; i++) {\n            uint256 nftId = userNFTIds[msg.sender].at(i);\n            if (nftId == 0) break;\n            user.weight = user.weight.sub(IOrderNFT(address(nftToken)).getWeight(nftId));\n            nftToken.safeTransferFrom(address(this), address(msg.sender), nftId);\n            userNFTIds[msg.sender].remove(nftId);\n            i--;\n        }\n        user.rewardDebt = user.weight.mul(pool.accBoboPerShare).div(1e12);\n        emit WithdrawAll(msg.sender, 0);\n    }\n\n    // Withdraw without caring about rewards. EMERGENCY ONLY.\n    function emergencyWithdraw() public {\n        PoolInfo storage pool = poolInfo[0];\n        UserInfo storage user = userInfo[0][msg.sender];\n        \n        uint256 length = userNFTIds[msg.sender].length();\n        for (uint256 i = 0; i < length; i++) {\n            uint256 nftId = userNFTIds[msg.sender].at(i);\n            if (nftId == 0) break;\n            user.weight = user.weight.sub(IOrderNFT(address(nftToken)).getWeight(nftId));\n            nftToken.safeTransferFrom(address(this), address(msg.sender), nftId);\n            userNFTIds[msg.sender].remove(nftId);\n            i--;\n        }\n        \n        emit EmergencyWithdraw(msg.sender, 0);\n        user.weight = 0;\n        user.rewardDebt = 0;\n    }\n\n    // Safe bobo transfer function, just in case if rounding error causes pool to not have enough BOBOs.\n    function safeBOBOTransfer(address _to, uint256 _amount) internal {\n        IERC20(fundContractAddr).safeTransferFrom(address(this), _to, _amount);\n    }\n\n    function getUserNFTNumber(address _user) view public returns(uint256) {\n        return userNFTIds[_user].length();\n    }\n\n    function getUserNFTIds(address _user, uint256 _fromIndex, uint256 _toIndex) view public returns(uint256[] memory nftIds) {\n        uint256 length = userNFTIds[_user].length();\n        if (_toIndex > length) _toIndex = length;\n        require(_fromIndex < _toIndex, \"Index is out of range.\");\n        nftIds = new uint256[](_toIndex - _fromIndex);\n        for (uint256 i = _fromIndex; _fromIndex < _toIndex; i++) {\n            nftIds[i - _fromIndex] = userNFTIds[_user].at(i);\n        }\n    }\n}",
  "sourcePath": "/Users/mryu/blockchain/bobo-metaverse/boboswap-contract/contracts/BoboFarmer4TradeMining.sol",
  "compiler": {
    "name": "solc",
    "version": "0.6.12+commit.27d51765.Emscripten.clang"
  },
  "schemaVersion": "3.4.3",
  "updatedAt": "2021-08-21T16:14:51.703Z",
  "devdoc": {
    "kind": "dev",
    "methods": {
      "owner()": {
        "details": "Returns the address of the current owner."
      },
      "renounceOwnership()": {
        "details": "Leaves the contract without owner. It will not be possible to call `onlyOwner` functions anymore. Can only be called by the current owner. NOTE: Renouncing ownership will leave the contract without an owner, thereby removing any functionality that is only available to the owner."
      },
      "transferOwnership(address)": {
        "details": "Transfers ownership of the contract to a new account (`newOwner`). Can only be called by the current owner."
      }
    },
    "version": 1
  },
  "userdoc": {
    "kind": "user",
    "methods": {},
    "version": 1
  }
}