{
  "contractName": "BoboFarmer4TradeMining",
  "abi": [
    {
      "inputs": [
        {
          "internalType": "contract BOBOToken",
          "name": "_bobo",
          "type": "address"
        },
        {
          "internalType": "contract IERC721",
          "name": "_nftToken",
          "type": "address"
        },
        {
          "internalType": "address",
          "name": "_fundContractAddr",
          "type": "address"
        },
        {
          "internalType": "uint256",
          "name": "_boboPerBlock",
          "type": "uint256"
        },
        {
          "internalType": "uint256",
          "name": "_startBlock",
          "type": "uint256"
        },
        {
          "internalType": "uint256",
          "name": "_endBlock",
          "type": "uint256"
        },
        {
          "internalType": "uint256",
          "name": "_nftStartTime",
          "type": "uint256"
        },
        {
          "internalType": "uint256",
          "name": "_nftEndTime",
          "type": "uint256"
        }
      ],
      "stateMutability": "nonpayable",
      "type": "constructor"
    },
    {
      "anonymous": false,
      "inputs": [
        {
          "indexed": true,
          "internalType": "address",
          "name": "user",
          "type": "address"
        },
        {
          "indexed": true,
          "internalType": "uint256",
          "name": "pid",
          "type": "uint256"
        },
        {
          "indexed": false,
          "internalType": "uint256[]",
          "name": "nftIds",
          "type": "uint256[]"
        }
      ],
      "name": "Deposit",
      "type": "event"
    },
    {
      "anonymous": false,
      "inputs": [
        {
          "indexed": true,
          "internalType": "address",
          "name": "user",
          "type": "address"
        },
        {
          "indexed": true,
          "internalType": "uint256",
          "name": "pid",
          "type": "uint256"
        }
      ],
      "name": "EmergencyWithdraw",
      "type": "event"
    },
    {
      "anonymous": false,
      "inputs": [
        {
          "indexed": true,
          "internalType": "address",
          "name": "previousOwner",
          "type": "address"
        },
        {
          "indexed": true,
          "internalType": "address",
          "name": "newOwner",
          "type": "address"
        }
      ],
      "name": "OwnershipTransferred",
      "type": "event"
    },
    {
      "anonymous": false,
      "inputs": [
        {
          "indexed": true,
          "internalType": "address",
          "name": "user",
          "type": "address"
        },
        {
          "indexed": true,
          "internalType": "uint256",
          "name": "pid",
          "type": "uint256"
        },
        {
          "indexed": false,
          "internalType": "uint256[]",
          "name": "nftIds",
          "type": "uint256[]"
        }
      ],
      "name": "Withdraw",
      "type": "event"
    },
    {
      "anonymous": false,
      "inputs": [
        {
          "indexed": true,
          "internalType": "address",
          "name": "user",
          "type": "address"
        },
        {
          "indexed": true,
          "internalType": "uint256",
          "name": "pid",
          "type": "uint256"
        }
      ],
      "name": "WithdrawAll",
      "type": "event"
    },
    {
      "inputs": [],
      "name": "BONUS_MULTIPLIER",
      "outputs": [
        {
          "internalType": "uint256",
          "name": "",
          "type": "uint256"
        }
      ],
      "stateMutability": "view",
      "type": "function"
    },
    {
      "inputs": [],
      "name": "bobo",
      "outputs": [
        {
          "internalType": "contract BOBOToken",
          "name": "",
          "type": "address"
        }
      ],
      "stateMutability": "view",
      "type": "function"
    },
    {
      "inputs": [],
      "name": "boboPerBlock",
      "outputs": [
        {
          "internalType": "uint256",
          "name": "",
          "type": "uint256"
        }
      ],
      "stateMutability": "view",
      "type": "function"
    },
    {
      "inputs": [],
      "name": "endBlock",
      "outputs": [
        {
          "internalType": "uint256",
          "name": "",
          "type": "uint256"
        }
      ],
      "stateMutability": "view",
      "type": "function"
    },
    {
      "inputs": [],
      "name": "fundContractAddr",
      "outputs": [
        {
          "internalType": "address",
          "name": "",
          "type": "address"
        }
      ],
      "stateMutability": "view",
      "type": "function"
    },
    {
      "inputs": [],
      "name": "nftEndTime",
      "outputs": [
        {
          "internalType": "uint256",
          "name": "",
          "type": "uint256"
        }
      ],
      "stateMutability": "view",
      "type": "function"
    },
    {
      "inputs": [],
      "name": "nftStartTime",
      "outputs": [
        {
          "internalType": "uint256",
          "name": "",
          "type": "uint256"
        }
      ],
      "stateMutability": "view",
      "type": "function"
    },
    {
      "inputs": [],
      "name": "owner",
      "outputs": [
        {
          "internalType": "address",
          "name": "",
          "type": "address"
        }
      ],
      "stateMutability": "view",
      "type": "function"
    },
    {
      "inputs": [
        {
          "internalType": "uint256",
          "name": "",
          "type": "uint256"
        }
      ],
      "name": "poolInfo",
      "outputs": [
        {
          "internalType": "uint256",
          "name": "totalWeightOfNFT",
          "type": "uint256"
        },
        {
          "internalType": "uint256",
          "name": "lastRewardBlock",
          "type": "uint256"
        },
        {
          "internalType": "uint256",
          "name": "accBoboPerShare",
          "type": "uint256"
        }
      ],
      "stateMutability": "view",
      "type": "function"
    },
    {
      "inputs": [],
      "name": "renounceOwnership",
      "outputs": [],
      "stateMutability": "nonpayable",
      "type": "function"
    },
    {
      "inputs": [],
      "name": "startBlock",
      "outputs": [
        {
          "internalType": "uint256",
          "name": "",
          "type": "uint256"
        }
      ],
      "stateMutability": "view",
      "type": "function"
    },
    {
      "inputs": [],
      "name": "totalAllocPoint",
      "outputs": [
        {
          "internalType": "uint256",
          "name": "",
          "type": "uint256"
        }
      ],
      "stateMutability": "view",
      "type": "function"
    },
    {
      "inputs": [
        {
          "internalType": "address",
          "name": "newOwner",
          "type": "address"
        }
      ],
      "name": "transferOwnership",
      "outputs": [],
      "stateMutability": "nonpayable",
      "type": "function"
    },
    {
      "inputs": [
        {
          "internalType": "uint256",
          "name": "",
          "type": "uint256"
        },
        {
          "internalType": "address",
          "name": "",
          "type": "address"
        }
      ],
      "name": "userInfo",
      "outputs": [
        {
          "internalType": "uint256",
          "name": "weight",
          "type": "uint256"
        },
        {
          "internalType": "uint256",
          "name": "rewardDebt",
          "type": "uint256"
        }
      ],
      "stateMutability": "view",
      "type": "function"
    },
    {
      "inputs": [],
      "name": "poolLength",
      "outputs": [
        {
          "internalType": "uint256",
          "name": "",
          "type": "uint256"
        }
      ],
      "stateMutability": "view",
      "type": "function"
    },
    {
      "inputs": [
        {
          "internalType": "uint256",
          "name": "_from",
          "type": "uint256"
        },
        {
          "internalType": "uint256",
          "name": "_to",
          "type": "uint256"
        }
      ],
      "name": "getMultiplier",
      "outputs": [
        {
          "internalType": "uint256",
          "name": "",
          "type": "uint256"
        }
      ],
      "stateMutability": "view",
      "type": "function"
    },
    {
      "inputs": [
        {
          "internalType": "uint256",
          "name": "_pid",
          "type": "uint256"
        },
        {
          "internalType": "address",
          "name": "_user",
          "type": "address"
        }
      ],
      "name": "pendingBOBO",
      "outputs": [
        {
          "internalType": "uint256",
          "name": "",
          "type": "uint256"
        }
      ],
      "stateMutability": "view",
      "type": "function"
    },
    {
      "inputs": [],
      "name": "massUpdatePools",
      "outputs": [],
      "stateMutability": "nonpayable",
      "type": "function"
    },
    {
      "inputs": [
        {
          "internalType": "uint256",
          "name": "_pid",
          "type": "uint256"
        }
      ],
      "name": "updatePool",
      "outputs": [],
      "stateMutability": "nonpayable",
      "type": "function"
    },
    {
      "inputs": [
        {
          "internalType": "uint256[]",
          "name": "_nftIds",
          "type": "uint256[]"
        }
      ],
      "name": "deposit",
      "outputs": [],
      "stateMutability": "nonpayable",
      "type": "function"
    },
    {
      "inputs": [
        {
          "internalType": "uint256[]",
          "name": "_nftIds",
          "type": "uint256[]"
        }
      ],
      "name": "withdraw",
      "outputs": [],
      "stateMutability": "nonpayable",
      "type": "function"
    },
    {
      "inputs": [],
      "name": "withdrawAll",
      "outputs": [],
      "stateMutability": "nonpayable",
      "type": "function"
    },
    {
      "inputs": [],
      "name": "emergencyWithdraw",
      "outputs": [],
      "stateMutability": "nonpayable",
      "type": "function"
    }
  ],
  "bytecode": "0x6080604052600160055560006009553480156200001b57600080fd5b50604051620021b3380380620021b38339810160408190526200003e9162000197565b60006200004a62000193565b600080546001600160a01b0319166001600160a01b0383169081178255604051929350917f8be0079c531659141344cd1fd0a4f28419497f9722a3daafe3b4186f6b6457e0908290a350600180546001600160a01b03199081166001600160a01b039a8b16178255600280548216998b16999099179098556003805490981696909816959095178655600493909355600a829055600b55600c91909155600d9190915560408051606081018252600080825260208201938452918101828152600680549687018155909252517ff652222313e28459528d920b65115c16c04f3efc82aaedc97be59f3f377c0d3f9490930293840192909255517ff652222313e28459528d920b65115c16c04f3efc82aaedc97be59f3f377c0d40830155517ff652222313e28459528d920b65115c16c04f3efc82aaedc97be59f3f377c0d419091015562000233565b3390565b600080600080600080600080610100898b031215620001b4578384fd5b8851620001c1816200021a565b60208a0151909850620001d4816200021a565b60408a0151909750620001e7816200021a565b60608a015160808b015160a08c015160c08d015160e0909d01519b9e9a9d50929b919a9099929850909650945092505050565b6001600160a01b03811681146200023057600080fd5b50565b611f7080620002436000396000f3fe608060405234801561001057600080fd5b506004361061014d5760003560e01c80636d7c82c2116100c357806393f1a40b1161007c57806393f1a40b14610245578063983d95ce14610266578063c0329a6d14610279578063d8fc5d7b14610281578063db2e21bc14610289578063f2fde38b146102915761014d565b80636d7c82c2146101ff578063715018a614610212578063853828b61461021a5780638aa28550146102225780638da5cb5b1461022a5780638dbb1e3a146102325761014d565b80631a016c09116101155780631a016c09146101aa578063474b21c5146101bf57806348cd4cb1146101c757806351eb05a6146101cf578063598b8e71146101e4578063630b5ba1146101f75761014d565b8063081e3eda14610152578063083c63231461017057806313c739a0146101785780631526fe271461018057806317caf6f1146101a2575b600080fd5b61015a6102a4565b6040516101679190611e65565b60405180910390f35b61015a6102aa565b61015a6102b0565b61019361018e3660046119f3565b6102b6565b60405161016793929190611e7c565b61015a6102e6565b6101b26102ec565b6040516101679190611a8f565b61015a6102fb565b61015a610301565b6101e26101dd3660046119f3565b610307565b005b6101e26101f2366004611838565b6104d5565b6101e2610859565b61015a61020d366004611a23565b61087c565b6101e2610961565b6101e26109e0565b61015a610c18565b6101b2610c1e565b61015a610240366004611a52565b610c2d565b610258610253366004611a23565b610c60565b604051610167929190611e6e565b6101e2610274366004611838565b610c84565b6101b2610f57565b61015a610f66565b6101e2610f6c565b6101e261029f36600461181c565b61113d565b60065490565b600b5481565b600c5481565b600681815481106102c357fe5b600091825260209091206003909102018054600182015460029092015490925083565b60095481565b6001546001600160a01b031681565b600d5481565b600a5481565b60006006828154811061031657fe5b906000526020600020906003020190508060010154431161033757506104d2565b80548061034b5750436001909101556104d2565b600061035b836001015443610c2d565b90506000610374600454836111f390919063ffffffff16565b6001546040516340c10f1960e01b81529192506001600160a01b0316906340c10f19906103a79030908590600401611ac7565b602060405180830381600087803b1580156103c157600080fd5b505af11580156103d5573d6000803e3d6000fd5b505050506040513d601f19601f820116820180604052508101906103f991906118cd565b50600154600380546001600160a01b03928316926340c10f199291169061042e906007906104289087906111f3565b9061122d565b6040518363ffffffff1660e01b815260040161044b929190611ac7565b602060405180830381600087803b15801561046557600080fd5b505af1158015610479573d6000803e3d6000fd5b505050506040513d601f19601f8201168201806040525081019061049d91906118cd565b506104bf6104b4846104288464e8d4a510006111f3565b60028601549061126f565b6002850155505043600190920191909155505b50565b600060066000815481106104e557fe5b60009182526020808320338452600080516020611f1b8339815191529091526040832060039092020192509061051a90610307565b805415610569576000610555826001015461054f64e8d4a51000610428876002015487600001546111f390919063ffffffff16565b90611294565b905080156105675761056733826112d6565b505b8251156107f75760005b83518110156107f557610584611711565b60025485516001600160a01b039091169063d311636b908790859081106105a757fe5b60200260200101516040518263ffffffff1660e01b81526004016105cb9190611e65565b60006040518083038186803b1580156105e357600080fd5b505afa1580156105f7573d6000803e3d6000fd5b505050506040513d6000823e601f3d908101601f1916820160405261061f91908101906118ed565b90506002816101000151600381111561063457fe5b1461065a5760405162461bcd60e51b815260040161065190611b99565b60405180910390fd5b600c54816101600151101580156106775750600d54816101600151105b6106935760405162461bcd60e51b815260040161065190611c21565b60025485516001600160a01b03909116906342842e0e90339030908990879081106106ba57fe5b60200260200101516040518463ffffffff1660e01b81526004016106e093929190611aa3565b600060405180830381600087803b1580156106fa57600080fd5b505af115801561070e573d6000803e3d6000fd5b505060025487516107b593506001600160a01b03909116915063d851fdfd9088908690811061073957fe5b60200260200101516040518263ffffffff1660e01b815260040161075d9190611e65565b60206040518083038186803b15801561077557600080fd5b505afa158015610789573d6000803e3d6000fd5b505050506040513d601f19601f820116820180604052508101906107ad9190611a0b565b84549061126f565b835584516107eb908690849081106107c957fe5b60209081029190910181015133600090815260089092526040909120906112ee565b5050600101610573565b505b600282015481546108129164e8d4a5100091610428916111f3565b600182015560405160009033907fe7425730072f5a6ec278ae24c998f6a79299c875cbd84ad35585563a0cb3c6669061084c908790611ae0565b60405180910390a3505050565b60065460005b818110156108785761087081610307565b60010161085f565b5050565b6000806006848154811061088c57fe5b600091825260208083208784526007825260408085206001600160a01b038916865290925292206002600390920290920190810154815460018301549294509091431180156108da57508015155b1561092c5760006108ef856001015443610c2d565b90506000610908600454836111f390919063ffffffff16565b9050610927610920846104288464e8d4a510006111f3565b859061126f565b935050505b610954836001015461054f64e8d4a510006104288688600001546111f390919063ffffffff16565b9450505050505b92915050565b6109696112fa565b6000546001600160a01b039081169116146109965760405162461bcd60e51b815260040161065190611d3c565b600080546040516001600160a01b03909116907f8be0079c531659141344cd1fd0a4f28419497f9722a3daafe3b4186f6b6457e0908390a3600080546001600160a01b0319169055565b600060066000815481106109f057fe5b60009182526020808320338452600080516020611f1b83398151915290915260408320600390920201925090610a2590610307565b6000610a53826001015461054f64e8d4a51000610428876002015487600001546111f390919063ffffffff16565b90508015610a6557610a6533826112d6565b336000908152600860205260408120610a7d906112fe565b905060005b81811015610bc457336000908152600860205260408120610aa39083611309565b905080610ab05750610bc4565b60025460405163d851fdfd60e01b8152610b3a916001600160a01b03169063d851fdfd90610ae2908590600401611e65565b60206040518083038186803b158015610afa57600080fd5b505afa158015610b0e573d6000803e3d6000fd5b505050506040513d601f19601f82011682018060405250810190610b329190611a0b565b865490611294565b8555600254604051632142170760e11b81526001600160a01b03909116906342842e0e90610b7090309033908690600401611aa3565b600060405180830381600087803b158015610b8a57600080fd5b505af1158015610b9e573d6000803e3d6000fd5b5050336000908152600860205260409020610bbc9250905082611315565b50610a829050565b5060028401548354610be09164e8d4a5100091610428916111f3565b600184015560405160009033907fd7a4aa9f3dca5f6606ac15d7e1850920201bbb02c38cd986793779f58ae0dfd3908390a350505050565b60055481565b6000546001600160a01b031690565b6000600a54831015610c3f57600a5492505b600b54821115610c4f57600b5491505b610c598284611294565b9392505050565b60076020908152600092835260408084209091529082529020805460019091015482565b60006006600081548110610c9457fe5b60009182526020808320338452600080516020611f1b83398151915282526040808520875160089094529420600390930201935090610cd2906112fe565b1015610cf05760405162461bcd60e51b815260040161065190611da8565b610cfa6000610307565b6000610d28826001015461054f64e8d4a51000610428876002015487600001546111f390919063ffffffff16565b90508015610d3a57610d3a33826112d6565b60005b8451811015610ef357610d77858281518110610d5557fe5b6020908102919091018101513360009081526008909252604090912090611321565b610d935760405162461bcd60e51b815260040161065190611dd4565b610dc4858281518110610da257fe5b6020908102919091018101513360009081526008909252604090912090611315565b506002548551610e66916001600160a01b03169063d851fdfd90889085908110610dea57fe5b60200260200101516040518263ffffffff1660e01b8152600401610e0e9190611e65565b60206040518083038186803b158015610e2657600080fd5b505afa158015610e3a573d6000803e3d6000fd5b505050506040513d601f19601f82011682018060405250810190610e5e9190611a0b565b845490611294565b835560025485516001600160a01b03909116906342842e0e9030903390899086908110610e8f57fe5b60200260200101516040518463ffffffff1660e01b8152600401610eb593929190611aa3565b600060405180830381600087803b158015610ecf57600080fd5b505af1158015610ee3573d6000803e3d6000fd5b505060019092019150610d3d9050565b5060028301548254610f0f9164e8d4a5100091610428916111f3565b600183015560405160009033907faef68853d1f7f9e4e5fe02896078a87a319c7b257208dac49346c8f03b36c68590610f49908890611ae0565b60405180910390a350505050565b6003546001600160a01b031681565b60045481565b60006006600081548110610f7c57fe5b60009182526020808320338452600080516020611f1b833981519152825260408085206008909352842060039093020193509190610fb9906112fe565b905060005b8181101561110057336000908152600860205260408120610fdf9083611309565b905080610fec5750611100565b60025460405163d851fdfd60e01b8152611076916001600160a01b03169063d851fdfd9061101e908590600401611e65565b60206040518083038186803b15801561103657600080fd5b505afa15801561104a573d6000803e3d6000fd5b505050506040513d601f19601f8201168201806040525081019061106e9190611a0b565b855490611294565b8455600254604051632142170760e11b81526001600160a01b03909116906342842e0e906110ac90309033908690600401611aa3565b600060405180830381600087803b1580156110c657600080fd5b505af11580156110da573d6000803e3d6000fd5b50503360009081526008602052604090206110f89250905082611315565b50610fbe9050565b5060405160009033907f5fafa99d0643513820be26656b45130b01e1c03062e1266bf36f88cbd3bd9695908390a350600080825560019091015550565b6111456112fa565b6000546001600160a01b039081169116146111725760405162461bcd60e51b815260040161065190611d3c565b6001600160a01b0381166111985760405162461bcd60e51b815260040161065190611bdb565b600080546040516001600160a01b03808516939216917f8be0079c531659141344cd1fd0a4f28419497f9722a3daafe3b4186f6b6457e091a3600080546001600160a01b0319166001600160a01b0392909216919091179055565b6000826112025750600061095b565b8282028284828161120f57fe5b0414610c595760405162461bcd60e51b815260040161065190611cfb565b6000610c5983836040518060400160405280601a81526020017f536166654d6174683a206469766973696f6e206279207a65726f00000000000081525061132d565b600082820183811015610c595760405162461bcd60e51b815260040161065190611c7e565b6000610c5983836040518060400160405280601e81526020017f536166654d6174683a207375627472616374696f6e206f766572666c6f770000815250611364565b600354610878906001600160a01b0316308484611390565b6000610c5983836113ee565b3390565b600061095b82611438565b6000610c59838361143c565b6000610c598383611481565b6000610c59838361154e565b6000818361134e5760405162461bcd60e51b81526004016106519190611b24565b50600083858161135a57fe5b0495945050505050565b600081848411156113885760405162461bcd60e51b81526004016106519190611b24565b505050900390565b6113e8846323b872dd60e01b8585856040516024016113b193929190611aa3565b60408051601f198184030181529190526020810180516001600160e01b03166001600160e01b031990931692909217909152611566565b50505050565b60006113fa838361154e565b6114305750815460018181018455600084815260208082209093018490558454848252828601909352604090209190915561095b565b50600061095b565b5490565b8154600090821061145f5760405162461bcd60e51b815260040161065190611b57565b82600001828154811061146e57fe5b9060005260206000200154905092915050565b6000818152600183016020526040812054801561153d57835460001980830191908101906000908790839081106114b457fe5b90600052602060002001549050808760000184815481106114d157fe5b60009182526020808320909101929092558281526001898101909252604090209084019055865487908061150157fe5b6001900381819060005260206000200160009055905586600101600087815260200190815260200160002060009055600194505050505061095b565b600091505061095b565b5092915050565b60009081526001919091016020526040902054151590565b60606115bb826040518060400160405280602081526020017f5361666545524332303a206c6f772d6c6576656c2063616c6c206661696c6564815250856001600160a01b03166115fa9092919063ffffffff16565b8051909150156115f557808060200190518101906115d991906118cd565b6115f55760405162461bcd60e51b815260040161065190611e1b565b505050565b60606116098484600085611611565b949350505050565b6060824710156116335760405162461bcd60e51b815260040161065190611cb5565b61163c856116d2565b6116585760405162461bcd60e51b815260040161065190611d71565b60006060866001600160a01b031685876040516116759190611a73565b60006040518083038185875af1925050503d80600081146116b2576040519150601f19603f3d011682016040523d82523d6000602084013e6116b7565b606091505b50915091506116c78282866116d8565b979650505050505050565b3b151590565b606083156116e7575081610c59565b8251156116f75782518084602001fd5b8160405162461bcd60e51b81526004016106519190611b24565b6040518061018001604052806000815260200160006001600160a01b0316815260200160006001600160a01b03168152602001600015158152602001600081526020016000815260200160008152602001600081526020016000600381111561177657fe5b81526020016060815260200160008152602001600081525090565b805161095b81611f05565b8051801515811461095b57600080fd5b80516004811061095b57600080fd5b600082601f8301126117cb578081fd5b815167ffffffffffffffff8111156117e1578182fd5b6117f4601f8201601f1916602001611e92565b915080825283602082850101111561180b57600080fd5b611547816020840160208601611ed9565b60006020828403121561182d578081fd5b8135610c5981611f05565b6000602080838503121561184a578182fd5b823567ffffffffffffffff811115611860578283fd5b8301601f81018513611870578283fd5b803561188361187e82611eb9565b611e92565b818152838101908385018584028501860189101561189f578687fd5b8694505b838510156118c15780358352600194909401939185019185016118a3565b50979650505050505050565b6000602082840312156118de578081fd5b81518015158114610c59578182fd5b6000602082840312156118fe578081fd5b815167ffffffffffffffff80821115611915578283fd5b818401915061018080838703121561192b578384fd5b61193481611e92565b9050825181526119478660208501611791565b60208201526119598660408501611791565b604082015261196b866060850161179c565b60608201526080830151608082015260a083015160a082015260c083015160c082015260e083015160e08201526101006119a7878286016117ac565b9082015261012083810151838111156119be578586fd5b6119ca888287016117bb565b918301919091525061014083810151908201526101609283015192810192909252509392505050565b600060208284031215611a04578081fd5b5035919050565b600060208284031215611a1c578081fd5b5051919050565b60008060408385031215611a35578081fd5b823591506020830135611a4781611f05565b809150509250929050565b60008060408385031215611a64578182fd5b50508035926020909101359150565b60008251611a85818460208701611ed9565b9190910192915050565b6001600160a01b0391909116815260200190565b6001600160a01b039384168152919092166020820152604081019190915260600190565b6001600160a01b03929092168252602082015260400190565b6020808252825182820181905260009190848201906040850190845b81811015611b1857835183529284019291840191600101611afc565b50909695505050505050565b6000602082528251806020840152611b43816040850160208701611ed9565b601f01601f19169190910160400192915050565b60208082526022908201527f456e756d657261626c655365743a20696e646578206f7574206f6620626f756e604082015261647360f01b606082015260800190565b60208082526022908201527f54686520737461747573206f66206f72646572206973204e4f54206465616c65604082015261321760f11b606082015260800190565b60208082526026908201527f4f776e61626c653a206e6577206f776e657220697320746865207a65726f206160408201526564647265737360d01b606082015260800190565b6020808252603c908201527f546865206465616c65642074696d65206f66206f72646572206973204e4f542060408201527f73746174697366696564206279207468697320636f6e74726163742e00000000606082015260800190565b6020808252601b908201527f536166654d6174683a206164646974696f6e206f766572666c6f770000000000604082015260600190565b60208082526026908201527f416464726573733a20696e73756666696369656e742062616c616e636520666f6040820152651c8818d85b1b60d21b606082015260800190565b60208082526021908201527f536166654d6174683a206d756c7469706c69636174696f6e206f766572666c6f6040820152607760f81b606082015260800190565b6020808252818101527f4f776e61626c653a2063616c6c6572206973206e6f7420746865206f776e6572604082015260600190565b6020808252601d908201527f416464726573733a2063616c6c20746f206e6f6e2d636f6e7472616374000000604082015260600190565b6020808252601290820152711dda5d1a191c985dce881b9bdd0819dbdbd960721b604082015260600190565b60208082526027908201527f4e4654206964206973204e4f5420636f6e7461696e656420696e20757365722760408201526639903634b9ba1760c91b606082015260800190565b6020808252602a908201527f5361666545524332303a204552433230206f7065726174696f6e20646964206e6040820152691bdd081cdd58d8d9595960b21b606082015260800190565b90815260200190565b918252602082015260400190565b9283526020830191909152604082015260600190565b60405181810167ffffffffffffffff81118282101715611eb157600080fd5b604052919050565b600067ffffffffffffffff821115611ecf578081fd5b5060209081020190565b60005b83811015611ef4578181015183820152602001611edc565b838111156113e85750506000910152565b6001600160a01b03811681146104d257600080fdfe6d5257204ebe7d88fd91ae87941cb2dd9d8062b64ae5a2bd2d28ec40b9fbf6dfa264697066735822122082f5dc2928bba10e779975d6388f6f498e674d656d87939a6b6323ef143b475464736f6c634300060c0033",
  "immutableReferences": {},
  "source": "// SPDX-License-Identifier: MIT\npragma solidity ^0.6.0;\npragma experimental ABIEncoderV2;\n        \nimport \"./common/BasicStruct.sol\";\n\ninterface BOBOToken is IERC20 {\n    function mint(address _to, uint256 _amount) external returns(bool);\n}\n\n// NFT, \n// 5%16\n// 95%951%8\ncontract BoboFarmer4TradeMining is Ownable {\n    using SafeMath for uint256;\n    using SafeERC20 for IERC20;\n    using EnumerableSet for EnumerableSet.UintSet;\n\n    // Info of each user.\n    struct UserInfo {\n        uint256 weight;     // How many NFT weight of the user has provided.\n        uint256 rewardDebt; // Reward debt. See explanation below.\n    }\n\n    // Info of each pool.\n    struct PoolInfo {\n        uint256 totalWeightOfNFT;       // How many weight of all NFTs staked in this contract.\n        uint256 lastRewardBlock;  // Last block number that BOBOs distribution occurs.\n        uint256 accBoboPerShare; // Accumulated BOBOs per share, times 1e12. See below.\n    }\n\n    // The BOBO TOKEN!\n    BOBOToken public bobo;\n    IERC721 nftToken;           // Address of LP token contract.\n    // fund contract address\n    address public fundContractAddr;\n    // BOBO tokens created per block.\n    uint256 public boboPerBlock;\n    // Bonus muliplier for early bobo makers.\n    uint256 public BONUS_MULTIPLIER = 1;\n\n    // Info of each pool.\n    PoolInfo[] public poolInfo;\n    // Info of each user that stakes NFT tokens.\n    mapping (uint256 => mapping (address => UserInfo)) public userInfo;\n    // Staked NFTs of each user \n    mapping (address => EnumerableSet.UintSet) private userNFTIds;\n    // Total allocation poitns. Must be the sum of all allocation points in all pools.\n    uint256 public totalAllocPoint = 0;\n    // The block number when BOBO mining starts.\n    uint256 public startBlock;\n    uint256 public endBlock;\n\n    uint256 public nftStartTime;\n    uint256 public nftEndTime;\n\n    event Deposit(address indexed user, uint256 indexed pid, uint256[] nftIds);\n    event Withdraw(address indexed user, uint256 indexed pid, uint256[] nftIds);\n    event WithdrawAll(address indexed user, uint256 indexed pid);\n    event EmergencyWithdraw(address indexed user, uint256 indexed pid);\n\n    constructor(\n        BOBOToken _bobo,\n        IERC721 _nftToken,\n        address _fundContractAddr,\n        uint256 _boboPerBlock,\n        uint256 _startBlock,\n        uint256 _endBlock,\n        uint256 _nftStartTime,\n        uint256 _nftEndTime\n    ) public {\n        bobo = _bobo;\n        nftToken = _nftToken;\n        fundContractAddr = _fundContractAddr;\n        boboPerBlock = _boboPerBlock;\n        startBlock = _startBlock;\n        endBlock = _endBlock;\n        nftStartTime = _nftStartTime;\n        nftEndTime = _nftEndTime;\n\n        // staking pool\n        poolInfo.push(PoolInfo({\n            totalWeightOfNFT: 0,\n            lastRewardBlock: startBlock,\n            accBoboPerShare: 0\n        }));\n    }\n\n    function poolLength() external view returns (uint256) {\n        return poolInfo.length;\n    }\n\n    // Return reward multiplier over the given _from to _to block.\n    function getMultiplier(uint256 _from, uint256 _to) public view returns (uint256) {\n        if (_from < startBlock) _from = startBlock;\n        if (_to > endBlock) _to = endBlock;\n        return _to.sub(_from);\n    }\n\n    // View function to see pending BOBOs on frontend.\n    function pendingBOBO(uint256 _pid, address _user) external view returns (uint256) {\n        PoolInfo storage pool = poolInfo[_pid];\n        UserInfo storage user = userInfo[_pid][_user];\n        uint256 accBoboPerShare = pool.accBoboPerShare;\n        uint256 totalWeight = pool.totalWeightOfNFT;\n        if (block.number > pool.lastRewardBlock && totalWeight != 0) {\n            uint256 multiplier = getMultiplier(pool.lastRewardBlock, block.number);\n            uint256 boboReward = multiplier.mul(boboPerBlock);\n            accBoboPerShare = accBoboPerShare.add(boboReward.mul(1e12).div(totalWeight));\n        }\n        return user.weight.mul(accBoboPerShare).div(1e12).sub(user.rewardDebt);\n    }\n\n    // Update reward variables for all pools. Be careful of gas spending!\n    function massUpdatePools() public {\n        uint256 length = poolInfo.length;\n        for (uint256 pid = 0; pid < length; ++pid) {\n            updatePool(pid);\n        }\n    }\n\n\n    // Update reward variables of the given pool to be up-to-date.\n    function updatePool(uint256 _pid) public {\n        PoolInfo storage pool = poolInfo[_pid];\n        if (block.number <= pool.lastRewardBlock) {\n            return;\n        }\n        uint256 totalWeight = pool.totalWeightOfNFT;\n        if (totalWeight == 0) {\n            pool.lastRewardBlock = block.number;\n            return;\n        }\n        uint256 multiplier = getMultiplier(pool.lastRewardBlock, block.number);\n        uint256 boboReward = multiplier.mul(boboPerBlock);\n        bobo.mint(address(this), boboReward);\n        bobo.mint(fundContractAddr, boboReward.mul(3).div(7));   \n        pool.accBoboPerShare = pool.accBoboPerShare.add(boboReward.mul(1e12).div(totalWeight));\n        pool.lastRewardBlock = block.number;\n    }\n\n    // Deposit LP tokens to MasterChef for BOBO allocation.\n    function deposit(uint256[] memory _nftIds) public {\n        PoolInfo storage pool = poolInfo[0];\n        UserInfo storage user = userInfo[0][msg.sender];\n        updatePool(0);\n        if (user.weight > 0) {\n            uint256 pending = user.weight.mul(pool.accBoboPerShare).div(1e12).sub(user.rewardDebt);\n            if(pending > 0) {\n                safeBOBOTransfer(msg.sender, pending);\n            }\n        }\n        if (_nftIds.length > 0) {\n            for (uint256 i = 0; i < _nftIds.length; i++) {\n                NFTInfo memory nftInfo = IOrderNFT(address(nftToken)).getOrderInfo(_nftIds[i]);\n                require(nftInfo.status == OrderStatus.AMMDeal, \"The status of order is NOT dealed.\");\n                require(nftInfo.dealedTime >= nftStartTime && nftInfo.dealedTime < nftEndTime, \"The dealed time of order is NOT statisfied by this contract.\");\n                nftToken.safeTransferFrom(address(msg.sender), address(this), _nftIds[i]);\n                user.weight = user.weight.add(IOrderNFT(address(nftToken)).getWeight(_nftIds[i]));\n                userNFTIds[msg.sender].add(_nftIds[i]);\n            }\n        }\n        user.rewardDebt = user.weight.mul(pool.accBoboPerShare).div(1e12);\n        emit Deposit(msg.sender, 0, _nftIds);\n    }\n\n    // Withdraw LP tokens from MasterChef.\n    function withdraw(uint256[] memory _nftIds) public {\n        PoolInfo storage pool = poolInfo[0];\n        UserInfo storage user = userInfo[0][msg.sender];\n        require(userNFTIds[msg.sender].length() >= _nftIds.length, \"withdraw: not good\");\n        updatePool(0);\n        uint256 pending = user.weight.mul(pool.accBoboPerShare).div(1e12).sub(user.rewardDebt);\n        if (pending > 0) {\n            safeBOBOTransfer(msg.sender, pending);\n        }\n        for (uint256 i = 0; i < _nftIds.length; i++) {\n            require(userNFTIds[msg.sender].contains(_nftIds[i]), \"NFT id is NOT contained in user's list.\");\n            userNFTIds[msg.sender].remove(_nftIds[i]);\n\n            user.weight = user.weight.sub(IOrderNFT(address(nftToken)).getWeight(_nftIds[i]));\n            nftToken.safeTransferFrom(address(this), address(msg.sender), _nftIds[i]);\n        }\n        user.rewardDebt = user.weight.mul(pool.accBoboPerShare).div(1e12);\n        emit Withdraw(msg.sender, 0, _nftIds);\n    }\n\n    function withdrawAll() public {\n        PoolInfo storage pool = poolInfo[0];\n        UserInfo storage user = userInfo[0][msg.sender];\n        updatePool(0);\n        uint256 pending = user.weight.mul(pool.accBoboPerShare).div(1e12).sub(user.rewardDebt);\n        if (pending > 0) {\n            safeBOBOTransfer(msg.sender, pending);\n        }\n        uint256 length = userNFTIds[msg.sender].length();\n        for (uint256 i = 0; i < length; i++) {\n            uint256 nftId = userNFTIds[msg.sender].at(i);\n            if (nftId == 0) break;\n            user.weight = user.weight.sub(IOrderNFT(address(nftToken)).getWeight(nftId));\n            nftToken.safeTransferFrom(address(this), address(msg.sender), nftId);\n            userNFTIds[msg.sender].remove(nftId);\n            i--;\n        }\n        user.rewardDebt = user.weight.mul(pool.accBoboPerShare).div(1e12);\n        emit WithdrawAll(msg.sender, 0);\n    }\n\n    // Withdraw without caring about rewards. EMERGENCY ONLY.\n    function emergencyWithdraw() public {\n        PoolInfo storage pool = poolInfo[0];\n        UserInfo storage user = userInfo[0][msg.sender];\n        \n        uint256 length = userNFTIds[msg.sender].length();\n        for (uint256 i = 0; i < length; i++) {\n            uint256 nftId = userNFTIds[msg.sender].at(i);\n            if (nftId == 0) break;\n            user.weight = user.weight.sub(IOrderNFT(address(nftToken)).getWeight(nftId));\n            nftToken.safeTransferFrom(address(this), address(msg.sender), nftId);\n            userNFTIds[msg.sender].remove(nftId);\n            i--;\n        }\n        \n        emit EmergencyWithdraw(msg.sender, 0);\n        user.weight = 0;\n        user.rewardDebt = 0;\n    }\n\n    // Safe bobo transfer function, just in case if rounding error causes pool to not have enough BOBOs.\n    function safeBOBOTransfer(address _to, uint256 _amount) internal {\n        IERC20(fundContractAddr).safeTransferFrom(address(this), _to, _amount);\n    }\n}",
  "sourcePath": "/Users/mryu/blockchain/bobo-metaverse/boboswap-contract/contracts/BoboFarmer4TradeMining.sol",
  "compiler": {
    "name": "solc",
    "version": "0.6.12+commit.27d51765.Emscripten.clang"
  },
  "schemaVersion": "3.4.3",
  "updatedAt": "2021-08-20T15:32:39.000Z",
  "devdoc": {
    "kind": "dev",
    "methods": {
      "owner()": {
        "details": "Returns the address of the current owner."
      },
      "renounceOwnership()": {
        "details": "Leaves the contract without owner. It will not be possible to call `onlyOwner` functions anymore. Can only be called by the current owner. NOTE: Renouncing ownership will leave the contract without an owner, thereby removing any functionality that is only available to the owner."
      },
      "transferOwnership(address)": {
        "details": "Transfers ownership of the contract to a new account (`newOwner`). Can only be called by the current owner."
      }
    },
    "version": 1
  },
  "userdoc": {
    "kind": "user",
    "methods": {},
    "version": 1
  }
}