{
  "contractName": "BoboFactoryOnMatic",
  "abi": [
    {
      "inputs": [
        {
          "internalType": "address",
          "name": "_orderNFT",
          "type": "address"
        },
        {
          "internalType": "address",
          "name": "_orderDetailNFT",
          "type": "address"
        },
        {
          "internalType": "address",
          "name": "_boboFarmer",
          "type": "address"
        }
      ],
      "stateMutability": "nonpayable",
      "type": "constructor"
    },
    {
      "anonymous": false,
      "inputs": [
        {
          "indexed": true,
          "internalType": "address",
          "name": "previousOwner",
          "type": "address"
        },
        {
          "indexed": true,
          "internalType": "address",
          "name": "newOwner",
          "type": "address"
        }
      ],
      "name": "OwnershipTransferred",
      "type": "event"
    },
    {
      "anonymous": false,
      "inputs": [
        {
          "indexed": true,
          "internalType": "address",
          "name": "token0",
          "type": "address"
        },
        {
          "indexed": true,
          "internalType": "address",
          "name": "token1",
          "type": "address"
        },
        {
          "indexed": false,
          "internalType": "address",
          "name": "pair",
          "type": "address"
        },
        {
          "indexed": false,
          "internalType": "uint256",
          "name": "",
          "type": "uint256"
        }
      ],
      "name": "PairCreated",
      "type": "event"
    },
    {
      "inputs": [],
      "name": "USDC",
      "outputs": [
        {
          "internalType": "address",
          "name": "",
          "type": "address"
        }
      ],
      "stateMutability": "view",
      "type": "function"
    },
    {
      "inputs": [],
      "name": "USDT",
      "outputs": [
        {
          "internalType": "address",
          "name": "",
          "type": "address"
        }
      ],
      "stateMutability": "view",
      "type": "function"
    },
    {
      "inputs": [],
      "name": "WMATIC",
      "outputs": [
        {
          "internalType": "address",
          "name": "",
          "type": "address"
        }
      ],
      "stateMutability": "view",
      "type": "function"
    },
    {
      "inputs": [
        {
          "internalType": "uint256",
          "name": "",
          "type": "uint256"
        }
      ],
      "name": "allPairs",
      "outputs": [
        {
          "internalType": "address",
          "name": "",
          "type": "address"
        }
      ],
      "stateMutability": "view",
      "type": "function"
    },
    {
      "inputs": [
        {
          "internalType": "address",
          "name": "",
          "type": "address"
        },
        {
          "internalType": "uint256",
          "name": "",
          "type": "uint256"
        }
      ],
      "name": "baseTokenPairs",
      "outputs": [
        {
          "internalType": "address",
          "name": "",
          "type": "address"
        }
      ],
      "stateMutability": "view",
      "type": "function"
    },
    {
      "inputs": [],
      "name": "boboFarmer",
      "outputs": [
        {
          "internalType": "contract IBoboFarmer",
          "name": "",
          "type": "address"
        }
      ],
      "stateMutability": "view",
      "type": "function"
    },
    {
      "inputs": [
        {
          "internalType": "address",
          "name": "",
          "type": "address"
        },
        {
          "internalType": "address",
          "name": "",
          "type": "address"
        }
      ],
      "name": "getPair",
      "outputs": [
        {
          "internalType": "address",
          "name": "",
          "type": "address"
        }
      ],
      "stateMutability": "view",
      "type": "function"
    },
    {
      "inputs": [],
      "name": "orderDetailNFT",
      "outputs": [
        {
          "internalType": "address",
          "name": "",
          "type": "address"
        }
      ],
      "stateMutability": "view",
      "type": "function"
    },
    {
      "inputs": [],
      "name": "orderNFT",
      "outputs": [
        {
          "internalType": "address",
          "name": "",
          "type": "address"
        }
      ],
      "stateMutability": "view",
      "type": "function"
    },
    {
      "inputs": [],
      "name": "owner",
      "outputs": [
        {
          "internalType": "address",
          "name": "",
          "type": "address"
        }
      ],
      "stateMutability": "view",
      "type": "function"
    },
    {
      "inputs": [],
      "name": "renounceOwnership",
      "outputs": [],
      "stateMutability": "nonpayable",
      "type": "function"
    },
    {
      "inputs": [
        {
          "internalType": "address",
          "name": "newOwner",
          "type": "address"
        }
      ],
      "name": "transferOwnership",
      "outputs": [],
      "stateMutability": "nonpayable",
      "type": "function"
    },
    {
      "inputs": [
        {
          "internalType": "address",
          "name": "_boboFarmer",
          "type": "address"
        }
      ],
      "name": "setBoboFarmer",
      "outputs": [],
      "stateMutability": "nonpayable",
      "type": "function"
    },
    {
      "inputs": [
        {
          "internalType": "address",
          "name": "_baseToken",
          "type": "address"
        }
      ],
      "name": "addBaseToken",
      "outputs": [],
      "stateMutability": "nonpayable",
      "type": "function"
    },
    {
      "inputs": [
        {
          "internalType": "address",
          "name": "_quoteToken",
          "type": "address"
        },
        {
          "internalType": "address",
          "name": "_baseToken",
          "type": "address"
        }
      ],
      "name": "createPair",
      "outputs": [
        {
          "internalType": "address",
          "name": "pairAddr",
          "type": "address"
        }
      ],
      "stateMutability": "nonpayable",
      "type": "function"
    },
    {
      "inputs": [
        {
          "internalType": "address[]",
          "name": "_quoteTokens",
          "type": "address[]"
        },
        {
          "internalType": "address",
          "name": "_baseToken",
          "type": "address"
        }
      ],
      "name": "createPairs",
      "outputs": [],
      "stateMutability": "nonpayable",
      "type": "function"
    },
    {
      "inputs": [],
      "name": "pairNumber",
      "outputs": [
        {
          "internalType": "uint256",
          "name": "",
          "type": "uint256"
        }
      ],
      "stateMutability": "view",
      "type": "function"
    },
    {
      "inputs": [
        {
          "internalType": "address",
          "name": "_quoteToken",
          "type": "address"
        },
        {
          "internalType": "address",
          "name": "_baseToken",
          "type": "address"
        },
        {
          "internalType": "address",
          "name": "_router",
          "type": "address"
        }
      ],
      "name": "setPairRouter",
      "outputs": [],
      "stateMutability": "nonpayable",
      "type": "function"
    },
    {
      "inputs": [
        {
          "internalType": "address",
          "name": "_quoteToken",
          "type": "address"
        },
        {
          "internalType": "address",
          "name": "_baseToken",
          "type": "address"
        },
        {
          "internalType": "address",
          "name": "_auth",
          "type": "address"
        }
      ],
      "name": "addPairAuth",
      "outputs": [],
      "stateMutability": "nonpayable",
      "type": "function"
    },
    {
      "inputs": [
        {
          "internalType": "address",
          "name": "_baseToken",
          "type": "address"
        }
      ],
      "name": "getBaseTokenPairLength",
      "outputs": [
        {
          "internalType": "uint256",
          "name": "",
          "type": "uint256"
        }
      ],
      "stateMutability": "view",
      "type": "function"
    },
    {
      "inputs": [
        {
          "internalType": "address",
          "name": "_baseToken",
          "type": "address"
        },
        {
          "internalType": "address",
          "name": "_userAddr",
          "type": "address"
        }
      ],
      "name": "getTotalHangingTokenAmount",
      "outputs": [
        {
          "internalType": "uint256",
          "name": "",
          "type": "uint256"
        }
      ],
      "stateMutability": "view",
      "type": "function"
    },
    {
      "inputs": [
        {
          "internalType": "address",
          "name": "_baseToken",
          "type": "address"
        },
        {
          "internalType": "address",
          "name": "_userAddr",
          "type": "address"
        }
      ],
      "name": "getClaimBaseTokenAmount",
      "outputs": [
        {
          "internalType": "uint256",
          "name": "",
          "type": "uint256"
        }
      ],
      "stateMutability": "view",
      "type": "function"
    },
    {
      "inputs": [
        {
          "internalType": "address",
          "name": "_baseToken",
          "type": "address"
        }
      ],
      "name": "claimBaseToken",
      "outputs": [],
      "stateMutability": "nonpayable",
      "type": "function"
    }
  ],
  "bytecode": "0x60806040523480156200001157600080fd5b5060405162005ff038038062005ff0833981810160405260608110156200003757600080fd5b508051602082015160409092015190919060006200005462000141565b600080546001600160a01b0319166001600160a01b0383169081178255604051929350917f8be0079c531659141344cd1fd0a4f28419497f9722a3daafe3b4186f6b6457e0908290a350620000cd73c2132d05d31c914a87c6611c10748aeb04b58e8f60076200014560201b620014221790919060201c565b50620000fd732791bca1f2de4661ed88a30c99a7a9449aa8417460076200014560201b620014221790919060201c565b50600580546001600160a01b039485166001600160a01b031991821617909155600680549385169382169390931790925560048054919093169116179055620001cc565b3390565b60006200015c836001600160a01b03841662000165565b90505b92915050565b6000620001738383620001b4565b620001ab575081546001818101845560008481526020808220909301849055845484825282860190935260409020919091556200015f565b5060006200015f565b60009081526001919091016020526040902054151590565b615e1480620001dc6000396000f3fe608060405234801561001057600080fd5b506004361061014d5760003560e01c8063a7dc2d1c116100c3578063d4d728da1161007c578063d4d728da14610403578063e6a439051461040b578063f08f1ba914610439578063f2fde38b14610441578063f9d2b67114610467578063fb1157ce1461049f5761014d565b8063a7dc2d1c14610325578063b8005df31461034b578063c54e44eb14610371578063c9c6539614610379578063cd0e17de146103a7578063d23adceb146103d55761014d565b8063715018a611610115578063715018a61461028357806375b3a1f91461028b57806383e280d9146102c357806389a30271146102e95780638da5cb5b146102f15780639d919ad9146102f95761014d565b806309dc71ec146101525780631960e232146102025780631e3dd18b146102265780634d95cad91461024357806356fb75ea1461024b575b600080fd5b6102006004803603604081101561016857600080fd5b81019060208101813564010000000081111561018357600080fd5b82018360208201111561019557600080fd5b803590602001918460208302840111640100000000831117156101b757600080fd5b919080806020026020016040519081016040528093929190818152602001838360200280828437600092019190915250929550505090356001600160a01b031691506104a79050565b005b61020a610536565b604080516001600160a01b039092168252519081900360200190f35b61020a6004803603602081101561023c57600080fd5b5035610545565b61020a61056c565b6102006004803603606081101561026157600080fd5b506001600160a01b038135811691602081013582169160409091013516610584565b6102006106c3565b6102b1600480360360208110156102a157600080fd5b50356001600160a01b0316610765565b60408051918252519081900360200190f35b610200600480360360208110156102d957600080fd5b50356001600160a01b0316610780565b61020a610839565b61020a610851565b61020a6004803603604081101561030f57600080fd5b506001600160a01b038135169060200135610860565b6102006004803603602081101561033b57600080fd5b50356001600160a01b0316610895565b6102006004803603602081101561036157600080fd5b50356001600160a01b031661090f565b61020a610bb5565b61020a6004803603604081101561038f57600080fd5b506001600160a01b0381358116916020013516610bcd565b6102b1600480360360408110156103bd57600080fd5b506001600160a01b0381358116916020013516610fbe565b6102b1600480360360408110156103eb57600080fd5b506001600160a01b0381358116916020013516611069565b61020a6111bf565b61020a6004803603604081101561042157600080fd5b506001600160a01b03813581169160200135166111ce565b6102b16111f4565b6102006004803603602081101561045757600080fd5b50356001600160a01b03166111fa565b6102006004803603606081101561047d57600080fd5b506001600160a01b0381358116916020810135821691604090910135166112f2565b61020a611413565b6104af61143e565b6000546001600160a01b039081169116146104ff576040805162461bcd60e51b81526020600482018190526024820152600080516020615dbf833981519152604482015290519081900360640190fd5b60005b82518110156105315761052883828151811061051a57fe5b602002602001015183610bcd565b50600101610502565b505050565b6004546001600160a01b031681565b6001818154811061055257fe5b6000918252602090912001546001600160a01b0316905081565b730d500b1d8e8ef31e21c99d1db9a6444d3adf127081565b61058c61143e565b6000546001600160a01b039081169116146105dc576040805162461bcd60e51b81526020600482018190526024820152600080516020615dbf833981519152604482015290519081900360640190fd5b6001600160a01b03808416600090815260026020908152604080832086851684529091529020541680610656576040805162461bcd60e51b815260206004820152601c60248201527f426f626f466163746f72793a20504149525f4e4f545f45584953545300000000604482015290519081900360640190fd5b806001600160a01b0316635422224e836040518263ffffffff1660e01b815260040180826001600160a01b03168152602001915050600060405180830381600087803b1580156106a557600080fd5b505af11580156106b9573d6000803e3d6000fd5b5050505050505050565b6106cb61143e565b6000546001600160a01b0390811691161461071b576040805162461bcd60e51b81526020600482018190526024820152600080516020615dbf833981519152604482015290519081900360640190fd5b600080546040516001600160a01b03909116907f8be0079c531659141344cd1fd0a4f28419497f9722a3daafe3b4186f6b6457e0908390a3600080546001600160a01b0319169055565b6001600160a01b031660009081526003602052604090205490565b61078861143e565b6000546001600160a01b039081169116146107d8576040805162461bcd60e51b81526020600482018190526024820152600080516020615dbf833981519152604482015290519081900360640190fd5b6107e3600782611442565b1561082a576040805162461bcd60e51b8152602060048201526012602482015271109bd89bd19858dd1bdc9e4e8811561254d560721b604482015290519081900360640190fd5b610835600782611422565b5050565b732791bca1f2de4661ed88a30c99a7a9449aa8417481565b6000546001600160a01b031690565b6003602052816000526040600020818154811061087957fe5b6000918252602090912001546001600160a01b03169150829050565b61089d61143e565b6000546001600160a01b039081169116146108ed576040805162461bcd60e51b81526020600482018190526024820152600080516020615dbf833981519152604482015290519081900360640190fd5b600480546001600160a01b0319166001600160a01b0392909216919091179055565b600061091b8233610fbe565b90506000600460009054906101000a90046001600160a01b03166001600160a01b031663e6a08025846040518263ffffffff1660e01b815260040180826001600160a01b0316815260200191505060206040518083038186803b15801561098157600080fd5b505afa158015610995573d6000803e3d6000fd5b505050506040513d60208110156109ab57600080fd5b50511115610835576000826001600160a01b03166370a08231306040518263ffffffff1660e01b815260040180826001600160a01b0316815260200191505060206040518083038186803b158015610a0257600080fd5b505afa158015610a16573d6000803e3d6000fd5b505050506040513d6020811015610a2c57600080fd5b50516004805460408051636ce5768960e11b81526001600160a01b038881169482019490945233602482015260448101879052905193945091169163d9caed129160648082019260009290919082900301818387803b158015610a8e57600080fd5b505af1158015610aa2573d6000803e3d6000fd5b505050506000836001600160a01b03166370a08231306040518263ffffffff1660e01b815260040180826001600160a01b0316815260200191505060206040518083038186803b158015610af557600080fd5b505afa158015610b09573d6000803e3d6000fd5b505050506040513d6020811015610b1f57600080fd5b505190506001600160a01b03841663a9059cbb33610b3d8486611457565b6040518363ffffffff1660e01b815260040180836001600160a01b0316815260200182815260200192505050602060405180830381600087803b158015610b8357600080fd5b505af1158015610b97573d6000803e3d6000fd5b505050506040513d6020811015610bad57600080fd5b505050505050565b73c2132d05d31c914a87c6611c10748aeb04b58e8f81565b6000610bd761143e565b6000546001600160a01b03908116911614610c27576040805162461bcd60e51b81526020600482018190526024820152600080516020615dbf833981519152604482015290519081900360640190fd5b610c32600783611442565b610c83576040805162461bcd60e51b815260206004820152601e60248201527f426f626f466163746f72793a206261736520746f6b656e204552524f522e0000604482015290519081900360640190fd5b816001600160a01b0316836001600160a01b03161415610cea576040805162461bcd60e51b815260206004820181905260248201527f426f626f466163746f72793a204944454e544943414c5f414444524553534553604482015290519081900360640190fd5b6001600160a01b038316610d45576040805162461bcd60e51b815260206004820152601960248201527f426f626f466163746f72793a205a45524f5f4144445245535300000000000000604482015290519081900360640190fd5b6001600160a01b03838116600090815260026020908152604080832086851684529091529020541615610dbf576040805162461bcd60e51b815260206004820152601860248201527f426f626f466163746f72793a20504149525f4558495354530000000000000000604482015290519081900360640190fd5b606060405180602001610dd1906115ec565b6020820181038252601f19601f8201166040525090506000848460405160200180836001600160a01b031660601b8152601401826001600160a01b031660601b815260140192505050604051602081830303815290604052805190602001209050808251602084016000f5600480546005546006546040805163cc2a9a5b60e01b81526001600160a01b038c8116968201969096528a8616602482015233604482015293851660648501529184166084840152831660a4830152519295509085169163cc2a9a5b9160c48082019260009290919082900301818387803b158015610eba57600080fd5b505af1158015610ece573d6000803e3d6000fd5b505050506001600160a01b0385811660008181526002602081815260408084208a87168086529083528185208054978b166001600160a01b03199889168117909155938352818520868652835281852080548816851790556001805480820182557fb10e2d527612073b26eecdfd717e6a320cf44b4afac2b0732d9fcbe2b7fa0cf601805489168617905581865260038452828620805480830182559087529584902090950180549097168617909655925483519283529082015281517f0d3648bd0f6ba80134a33ba9275ac585d9d315f0ad8355cddefde31afa28d0e9929181900390910190a3505092915050565b600480546040805163d0f2ced160e01b81526001600160a01b0386811694820194909452848416602482015290516000938493169163d0f2ced1916044808301926020929190829003018186803b15801561101857600080fd5b505afa15801561102c573d6000803e3d6000fd5b505050506040513d602081101561104257600080fd5b5051905060006110528585611069565b905061105e8282611457565b925050505b92915050565b6001600160a01b0382166000908152600360209081526040808320805482518185028101850190935280835284936060939291908301828280156110d657602002820191906000526020600020905b81546001600160a01b031681526001909101906020018083116110b8575b5050505050905060005b81518110156111b5576000600260008484815181106110fb57fe5b6020908102919091018101516001600160a01b03908116835282820193909352604091820160009081208b8516825290915281812054825163761a90a760e11b81528a8516600482015283519190941694509092849263ec35214e92602480840193829003018186803b15801561117157600080fd5b505afa158015611185573d6000803e3d6000fd5b505050506040513d604081101561119b57600080fd5b505190506111a98582611499565b945050506001016110e0565b5090949350505050565b6005546001600160a01b031681565b60026020908152600092835260408084209091529082529020546001600160a01b031681565b60015490565b61120261143e565b6000546001600160a01b03908116911614611252576040805162461bcd60e51b81526020600482018190526024820152600080516020615dbf833981519152604482015290519081900360640190fd5b6001600160a01b0381166112975760405162461bcd60e51b8152600401808060200182810382526026815260200180615d996026913960400191505060405180910390fd5b600080546040516001600160a01b03808516939216917f8be0079c531659141344cd1fd0a4f28419497f9722a3daafe3b4186f6b6457e091a3600080546001600160a01b0319166001600160a01b0392909216919091179055565b6112fa61143e565b6000546001600160a01b0390811691161461134a576040805162461bcd60e51b81526020600482018190526024820152600080516020615dbf833981519152604482015290519081900360640190fd5b6001600160a01b038084166000908152600260209081526040808320868516845290915290205416806113c4576040805162461bcd60e51b815260206004820152601c60248201527f426f626f466163746f72793a20504149525f4e4f545f45584953545300000000604482015290519081900360640190fd5b806001600160a01b031663c0d78655836040518263ffffffff1660e01b815260040180826001600160a01b03168152602001915050600060405180830381600087803b1580156106a557600080fd5b6006546001600160a01b031681565b6000611437836001600160a01b0384166114f3565b9392505050565b3390565b6000611437836001600160a01b03841661153d565b600061143783836040518060400160405280601e81526020017f536166654d6174683a207375627472616374696f6e206f766572666c6f770000815250611555565b600082820183811015611437576040805162461bcd60e51b815260206004820152601b60248201527f536166654d6174683a206164646974696f6e206f766572666c6f770000000000604482015290519081900360640190fd5b60006114ff838361153d565b61153557508154600181810184556000848152602080822090930184905584548482528286019093526040902091909155611063565b506000611063565b60009081526001919091016020526040902054151590565b600081848411156115e45760405162461bcd60e51b81526004018080602001828103825283818151815260200191508051906020019080838360005b838110156115a9578181015183820152602001611591565b50505050905090810190601f1680156115d65780820380516001836020036101000a031916815260200191505b509250505060405180910390fd5b505050900390565b61479f806115fa8339019056fe60806040523480156200001157600080fd5b5060006200001e620000a5565b600080546001600160a01b0319166001600160a01b0383169081178255604051929350917f8be0079c531659141344cd1fd0a4f28419497f9722a3daafe3b4186f6b6457e0908290a350600a80546001600160a01b031916339081179091556000908152601560205260409020805460ff19166001179055426010819055601155620000a9565b3390565b6146e680620000b96000396000f3fe608060405234801561001057600080fd5b506004361061028a5760003560e01c80638a2061171161015c578063cc2a9a5b116100ce578063eb91d37e11610087578063eb91d37e14610510578063ec35214e14610518578063f0d3ddea14610539578063f1f07cc914610541578063f2fde38b14610549578063fb1157ce1461055c5761028a565b8063cc2a9a5b146104a9578063cd5a8778146104bc578063d4d728da146104cf578063dd4ee565146104d7578063e5538b95146104ea578063e99d18c8146104fd5761028a565b8063aa6ca80811610120578063aa6ca80814610455578063acd17aaa1461046b578063b35ac8b214610473578063c0d7865514610486578063c45a015514610499578063c55dae63146104a15761028a565b80638a206117146104225780638da5cb5b1461042a578063952c70fb1461043257806397d87393146104455780639eedc4921461044d5761028a565b80634b92031d116102005780635f0a1feb116101b95780635f0a1feb146103dc5780636b6f1320146103ef578063715018a6146103f757806378e97925146103ff5780637f3fd9181461040757806382aa1c881461041a5761028a565b80634b92031d146103685780634bba80501461037b578063514fcac71461038e5780635422224e146103a157806359fc7223146103b45780635cbffe78146103d45761028a565b80631b114817116102525780631b11481714610315578063217a4b701461032857806327624b07146103305780632d61113114610338578063392da1b01461034b578063428011e4146103535761028a565b80630ff4c9161461028f57806310ca5805146102b8578063150b7a02146102c05780631960e232146102e057806319c2146b146102f5575b600080fd5b6102a261029d366004613ce2565b610564565b6040516102af9190614522565b60405180910390f35b6102a261060c565b6102d36102ce36600461391f565b610614565b6040516102af919061401f565b6102e8610625565b6040516102af9190613e29565b610308610303366004613882565b610634565b6040516102af9190614014565b6102a26103233660046139c1565b610649565b6102e8610677565b6102a2610686565b6102a2610346366004613882565b61068c565b6102a26106a7565b610366610361366004613b85565b6106ad565b005b6102a26103763660046139c1565b610c97565b6102a2610389366004613ce2565b610cc2565b61030861039c366004613ce2565b610d43565b6103666103af366004613882565b611019565b6103c76103c2366004613b66565b611072565b6040516102af9190613f10565b610308611261565b6103c76103ea3660046139ec565b61130f565b6102a26114a0565b6103666114a7565b6102a2611526565b610366610415366004613882565b61152c565b6102a2611582565b6102a2611588565b6102e861158e565b6102a2610440366004613bbf565b61159d565b6102e86115b6565b6102a26115c5565b61045d6115cb565b6040516102af929190613e61565b6102e86115e2565b6102a2610481366004613b2e565b6115f1565b610366610494366004613882565b61160b565b6102e861165c565b6102e861166b565b6103666104b736600461389e565b61167a565b6102a26104ca366004613882565b611838565b6102e8611859565b6102a26104e5366004613ce2565b611868565b6103666104f8366004613b66565b611886565b61036661050b366004613882565b611b9c565b6102a2611bed565b61052b610526366004613882565b611cb9565b6040516102af92919061458b565b610366611db5565b6102a2611e60565b610366610557366004613882565b611e66565b6102e8611f1c565b60008161057357506000610607565b61057b613619565b60015460405163d311636b60e01b81526001600160a01b039091169063d311636b906105ab908690600401614522565b60006040518083038186803b1580156105c357600080fd5b505afa1580156105d7573d6000803e3d6000fd5b505050506040513d6000823e601f3d908101601f191682016040526105ff9190810190613bdc565b608001519150505b919050565b633b9aca0081565b630a85bd0160e11b5b949350505050565b6009546001600160a01b031681565b60156020526000908152604090205460ff1681565b6003602052816000526040600020818154811061066257fe5b90600052602060002001600091509150505481565b600c546001600160a01b031681565b600e5481565b6001600160a01b031660009081526003602052604090205490565b60125481565b6103e88111156106d85760405162461bcd60e51b81526004016106cf90614326565b60405180910390fd5b6000841561071d5761071661271061070a84612710036107108861070a600e54600a0a8a611f2b90919063ffffffff16565b90611f65565b90611f2b565b905061074a565b61074761271061070a8461271003610710600f54600a0a61070a8a8a611f2b90919063ffffffff16565b90505b600061075886868685611fa7565b90506000808761077a57600c54600d546001600160a01b03918216911661078e565b600d54600c546001600160a01b0391821691165b600854604051633ba7c4f760e11b81529294509092506001600160a01b03169063774f89ee906107c2908590600401613e29565b60206040518083038186803b1580156107da57600080fd5b505afa1580156107ee573d6000803e3d6000fd5b505050506040513d601f19601f820116820180604052508101906108129190613cfa565b8610156108315760405162461bcd60e51b81526004016106cf90614238565b600854604051630f74f4f360e11b81526000916001600160a01b031690631ee9e9e69061086690339087908c90600401613e3d565b604080518083038186803b15801561087d57600080fd5b505afa158015610891573d6000803e3d6000fd5b505050506040513d601f19601f820116820180604052508101906108b59190613d12565b5090506108c0613699565b600b546001600160a01b03166313684f1885856108dd8c8761208b565b6040518463ffffffff1660e01b81526004016108fb93929190613e3d565b60006040518083038186803b15801561091357600080fd5b505afa158015610927573d6000803e3d6000fd5b505050506040513d6000823e601f3d908101601f1916820160405261094f9190810190613a20565b91505085816000015110610a9357600854604051633418ea4560e11b81526000916001600160a01b031690636831d48a9061099290339089908e90600401613e3d565b602060405180830381600087803b1580156109ac57600080fd5b505af11580156109c0573d6000803e3d6000fd5b505050506040513d601f19601f820116820180604052508101906109e49190613cfa565b90508015610a74576008546040516323b872dd60e01b81526001600160a01b03808816926323b872dd92610a2092339216908690600401613e3d565b602060405180830381600087803b158015610a3a57600080fd5b505af1158015610a4e573d6000803e3d6000fd5b505050506040513d601f19601f82011682018060405250810190610a729190613b4a565b505b610a8c86838787610a858e8761208b565b60006120cd565b5050610c8b565b6040516323b872dd60e01b81526001600160a01b038516906323b872dd90610ac390339030908d90600401613e3d565b602060405180830381600087803b158015610add57600080fd5b505af1158015610af1573d6000803e3d6000fd5b505050506040513d601f19601f82011682018060405250810190610b159190613b4a565b5060095460405163e6a0802560e01b81526000916001600160a01b03169063e6a0802590610b47908890600401613e29565b60206040518083038186803b158015610b5f57600080fd5b505afa158015610b73573d6000803e3d6000fd5b505050506040513d601f19601f82011682018060405250810190610b979190613cfa565b1115610c8b5760095460405163095ea7b360e01b81526001600160a01b038681169263095ea7b392610bd192909116908c90600401613eb1565b602060405180830381600087803b158015610beb57600080fd5b505af1158015610bff573d6000803e3d6000fd5b505050506040513d601f19601f82011682018060405250810190610c239190613b4a565b50600954604051638340f54960e01b81526001600160a01b0390911690638340f54990610c5890879033908d90600401613e3d565b600060405180830381600087803b158015610c7257600080fd5b505af1158015610c86573d6000803e3d6000fd5b505050505b50505050505050505050565b6001600160a01b0382166000908152600460205260408120610cb99083612473565b90505b92915050565b6001546040516304bba80560e41b81526000916001600160a01b031690634bba805090610cf3908590600401614522565b60206040518083038186803b158015610d0b57600080fd5b505afa158015610d1f573d6000803e3d6000fd5b505050506040513d601f19601f82011682018060405250810190610cbc9190613cfa565b6000610d4e8261247f565b50610d57613619565b60015460405163d311636b60e01b81526001600160a01b039091169063d311636b90610d87908690600401614522565b60006040518083038186803b158015610d9f57600080fd5b505afa158015610db3573d6000803e3d6000fd5b505050506040513d6000823e601f3d908101601f19168201604052610ddb9190810190613bdc565b905060008160600151610df957600c546001600160a01b0316610e06565b600d546001600160a01b03165b60095460405163e6a0802560e01b81529192506000916001600160a01b039091169063e6a0802590610e3c908590600401613e29565b60206040518083038186803b158015610e5457600080fd5b505afa158015610e68573d6000803e3d6000fd5b505050506040513d601f19601f82011682018060405250810190610e8c9190613cfa565b1115610f8a57600954602083015160a0840151604051636ce5768960e11b81526001600160a01b039093169263d9caed1292610ecc928692600401613e3d565b600060405180830381600087803b158015610ee657600080fd5b505af1158015610efa573d6000803e3d6000fd5b50505050602082015160a083015160405163a9059cbb60e01b81526001600160a01b0384169263a9059cbb92610f3292600401613eb1565b602060405180830381600087803b158015610f4c57600080fd5b505af1158015610f60573d6000803e3d6000fd5b505050506040513d601f19601f82011682018060405250810190610f849190613b4a565b50611012565b602082015160a083015160405163a9059cbb60e01b81526001600160a01b0384169263a9059cbb92610fbe92600401613eb1565b602060405180830381600087803b158015610fd857600080fd5b505af1158015610fec573d6000803e3d6000fd5b505050506040513d601f19601f820116820180604052508101906110109190613b4a565b505b5050919050565b611021612634565b6000546001600160a01b0390811691161461104e5760405162461bcd60e51b81526004016106cf906143ab565b6001600160a01b03166000908152601560205260409020805460ff19166001179055565b82151560009081526005602052604081206060919061109090612638565b90508083111561109e578092505b8284106110bd5760405162461bcd60e51b81526004016106cf906142e4565b83830367ffffffffffffffff811180156110d657600080fd5b5060405190808252806020026020018201604052801561111057816020015b6110fd613619565b8152602001906001900390816110f55790505b5085151560009081526005602052604081209193509081908190611134908261263c565b915091505b85831080156111455750815b15611256578683101561117d57871515600090815260056020526040902061116d908261263c565b6001909401939092509050611139565b611185613619565b60015460405163d311636b60e01b81526001600160a01b039091169063d311636b906111b5908590600401614522565b60006040518083038186803b1580156111cd57600080fd5b505afa1580156111e1573d6000803e3d6000fd5b505050506040513d6000823e601f3d908101601f191682016040526112099190810190613bdc565b905080868986038151811061121a57fe5b6020908102919091018101919091528915156000908152600590915260409020611244908361263c565b60019095019490935091506111399050565b505050509392505050565b60008061126c611bed565b905060008061127b6001612656565b9150915060008261128d576000611296565b61129682610564565b90506000806112a56000612656565b915091506000826112b8576000196112c1565b6112c182610564565b905060008488116112d35750846112de565b818811156112de5750815b80156112ff576112ed8161267e565b5060019850505050505050505061130c565b6000985050505050505050505b90565b6001600160a01b03831660009081526004602052604081206060919061133490612a59565b905080831115611342578092505b8284106113615760405162461bcd60e51b81526004016106cf906142e4565b83830367ffffffffffffffff8111801561137a57600080fd5b506040519080825280602002602001820160405280156113b457816020015b6113a1613619565b8152602001906001900390816113995790505b509150835b83811015611497576001600160a01b03861660009081526004602052604081206113e39083612473565b90506113ed613619565b60015460405163d311636b60e01b81526001600160a01b039091169063d311636b9061141d908590600401614522565b60006040518083038186803b15801561143557600080fd5b505afa158015611449573d6000803e3d6000fd5b505050506040513d6000823e601f3d908101601f191682016040526114719190810190613bdc565b905080858885038151811061148257fe5b602090810291909101015250506001016113b9565b50509392505050565b6201518081565b6114af612634565b6000546001600160a01b039081169116146114dc5760405162461bcd60e51b81526004016106cf906143ab565b600080546040516001600160a01b03909116907f8be0079c531659141344cd1fd0a4f28419497f9722a3daafe3b4186f6b6457e0908390a3600080546001600160a01b0319169055565b60105481565b611534612634565b6000546001600160a01b039081169116146115615760405162461bcd60e51b81526004016106cf906143ab565b6001600160a01b03166000908152601560205260409020805460ff19169055565b600f5481565b60115481565b6000546001600160a01b031690565b6006602052816000526040600020818154811061066257fe5b6008546001600160a01b031681565b61271081565b600c54600d546001600160a01b0391821691169091565b600b546001600160a01b031681565b8015156000908152600560205260408120610cbc90612638565b3360009081526015602052604090205460ff1661163a5760405162461bcd60e51b81526004016106cf90614089565b600b80546001600160a01b0319166001600160a01b0392909216919091179055565b600a546001600160a01b031681565b600d546001600160a01b031681565b611682612634565b6000546001600160a01b039081169116146116af5760405162461bcd60e51b81526004016106cf906143ab565b600c80546001600160a01b038089166001600160a01b03199283161792839055600d80548983169316929092179091556040805163313ce56760e01b81529051929091169163313ce56791600480820192602092909190829003018186803b15801561171a57600080fd5b505afa15801561172e573d6000803e3d6000fd5b505050506040513d601f19601f820116820180604052508101906117529190613d35565b60ff16600e55600d546040805163313ce56760e01b815290516001600160a01b039092169163313ce56791600480820192602092909190829003018186803b15801561179d57600080fd5b505afa1580156117b1573d6000803e3d6000fd5b505050506040513d601f19601f820116820180604052508101906117d59190613d35565b60ff16600f556001600160a01b039384166000908152601560205260409020805460ff19166001908117909155600980549486166001600160a01b0319958616179055805492851692841692909217909155600280549190931691161790555050565b6001600160a01b0381166000908152600460205260408120610cbc90612a59565b6001546001600160a01b031681565b6014818154811061187557fe5b600091825260209091200154905081565b600080846118a657600c54600d546001600160a01b0391821691166118ba565b600d54600c546001600160a01b0391821691165b600854604051633ba7c4f760e11b81529294509092506001600160a01b03169063774f89ee906118ee908590600401613e29565b60206040518083038186803b15801561190657600080fd5b505afa15801561191a573d6000803e3d6000fd5b505050506040513d601f19601f8201168201806040525081019061193e9190613cfa565b84101561195d5760405162461bcd60e51b81526004016106cf90614238565b600854604051633418ea4560e11b81526000916001600160a01b031690636831d48a9061199290339087908a90600401613e3d565b602060405180830381600087803b1580156119ac57600080fd5b505af11580156119c0573d6000803e3d6000fd5b505050506040513d601f19601f820116820180604052508101906119e49190613cfa565b90508015611a74576008546040516323b872dd60e01b81526001600160a01b03808616926323b872dd92611a2092339216908690600401613e3d565b602060405180830381600087803b158015611a3a57600080fd5b505af1158015611a4e573d6000803e3d6000fd5b505050506040513d601f19601f82011682018060405250810190611a729190613b4a565b505b611a7e858261208b565b9450611a88613699565b600b5460405163026d09e360e31b81526001600160a01b03909116906313684f1890611abc90879087908b90600401613e3d565b60006040518083038186803b158015611ad457600080fd5b505afa158015611ae8573d6000803e3d6000fd5b505050506040513d6000823e601f3d908101601f19168201604052611b109190810190613a20565b9150508481600001511015611b375760405162461bcd60e51b81526004016106cf9061419a565b600087611b5f57611b5a8761070a600e54600a0a89611f2b90919063ffffffff16565b611b7b565b611b7b8661070a600e54600a0a8a611f2b90919063ffffffff16565b90506000611b8b89838a8a611fa7565b9050610c8b818488888c60006120cd565b3360009081526015602052604090205460ff16611bcb5760405162461bcd60e51b81526004016106cf90614089565b600880546001600160a01b0319166001600160a01b0392909216919091179055565b6000611bf7613699565b600b54600d54600c5460405163026d09e360e31b81526001600160a01b03938416936313684f1893611c389390821692911690633b9aca0090600401613e3d565b60006040518083038186803b158015611c5057600080fd5b505afa158015611c64573d6000803e3d6000fd5b505050506040513d6000823e601f3d908101601f19168201604052611c8c9190810190613a20565b8051600e549193509150600090611cb190839061070a90633b9aca0090600a0a611f2b565b935050505090565b6000806000611cc784611838565b905060005b81811015611dae576000611ce08683610c97565b9050611cea613619565b60015460405163d311636b60e01b81526001600160a01b039091169063d311636b90611d1a908590600401614522565b60006040518083038186803b158015611d3257600080fd5b505afa158015611d46573d6000803e3d6000fd5b505050506040513d6000823e601f3d908101601f19168201604052611d6e9190810190613bdc565b9050806060015115611d915760a0810151611d8a908790612a64565b9550611da4565b60a0810151611da1908690612a64565b94505b5050600101611ccc565b5050915091565b60085460408051635c191ce960e01b815290516000926001600160a01b031691635c191ce9916004808301926020929190829003018186803b158015611dfa57600080fd5b505afa158015611e0e573d6000803e3d6000fd5b505050506040513d601f19601f82011682018060405250810190611e329190613cfa565b90505b60001981019015611e5d576000611e4a611261565b905080611e575750611e5d565b50611e35565b50565b60135481565b611e6e612634565b6000546001600160a01b03908116911614611e9b5760405162461bcd60e51b81526004016106cf906143ab565b6001600160a01b038116611ec15760405162461bcd60e51b81526004016106cf9061411d565b600080546040516001600160a01b03808516939216917f8be0079c531659141344cd1fd0a4f28419497f9722a3daafe3b4186f6b6457e091a3600080546001600160a01b0319166001600160a01b0392909216919091179055565b6002546001600160a01b031681565b600082611f3a57506000610cbc565b82820282848281611f4757fe5b0414610cb95760405162461bcd60e51b81526004016106cf9061436a565b6000610cb983836040518060400160405280601a81526020017f536166654d6174683a206469766973696f6e206279207a65726f000000000000815250612a89565b600154604051631cdd409f60e21b815260009182916001600160a01b0390911690637375027c90611fe690309033908b908b908b908b90600401613e7b565b602060405180830381600087803b15801561200057600080fd5b505af1158015612014573d6000803e3d6000fd5b505050506040513d601f19601f820116820180604052508101906120389190613cfa565b336000908152600360209081526040822080546001810182559083529120018190559050612067818787612ac0565b503360009081526004602052604090206120819082612b07565b5095945050505050565b6000610cb983836040518060400160405280601e81526020017f536166654d6174683a207375627472616374696f6e206f766572666c6f770000815250612b13565b600081612158576040516323b872dd60e01b81526001600160a01b038616906323b872dd9061210490339030908890600401613e3d565b602060405180830381600087803b15801561211e57600080fd5b505af1158015612132573d6000803e3d6000fd5b505050506040513d601f19601f820116820180604052508101906121569190613b4a565b505b600b5460405163095ea7b360e01b81526001600160a01b038781169263095ea7b39261218c92909116908790600401613eb1565b602060405180830381600087803b1580156121a657600080fd5b505af11580156121ba573d6000803e3d6000fd5b505050506040513d601f19601f820116820180604052508101906121de9190613b4a565b50600b5460405163350d6fd960e01b81526000916001600160a01b03169063350d6fd990612218908a908a908a908a90339060040161442f565b602060405180830381600087803b15801561223257600080fd5b505af1158015612246573d6000803e3d6000fd5b505050506040513d601f19601f8201168201806040525081019061226a9190613cfa565b90506122768882612b3f565b5061227f613619565b60015460405163d311636b60e01b81526001600160a01b039091169063d311636b906122af908c90600401614522565b60006040518083038186803b1580156122c757600080fd5b505afa1580156122db573d6000803e3d6000fd5b505050506040513d6000823e601f3d908101601f191682016040526123039190810190613bdc565b905060005b8860400151518110801561233f575060008960400151828151811061232957fe5b6020026020010151600781111561233c57fe5b14155b1561243e5760008960600151828151811061235657fe5b60200260200101519050606060006001600160a01b0316826001600160a01b031614156123a957604080518082019091526001600160a01b03808c1682528a1660208201526123a490612cb1565b6123da565b604080516060810182526001600160a01b03808d16825284811660208301528b16918101919091526123da90612d20565b905061243384602001518d8d6080015186815181106123f557fe5b60200260200101518e60a00151878151811061240d57fe5b60200260200101518f60400151888151811061242557fe5b602002602001015186612d8b565b505050600101612308565b50600d54612465906001600160a01b0389811691161461245e5782612460565b855b612e28565b5090505b9695505050505050565b6000610cb98383612ed1565b6000612489613619565b60015460405163d311636b60e01b81526001600160a01b039091169063d311636b906124b9908690600401614522565b60006040518083038186803b1580156124d157600080fd5b505afa1580156124e5573d6000803e3d6000fd5b505050506040513d6000823e601f3d908101601f1916820160405261250d9190810190613bdc565b60208101519091506001600160a01b0316331461253c5760405162461bcd60e51b81526004016106cf906141e7565b6000816101000151600381111561254f57fe5b1461256c5760405162461bcd60e51b81526004016106cf906143e0565b60018054604051630d4e568160e41b81526001600160a01b039091169163d4e56810916125a0918791600090600401614557565b600060405180830381600087803b1580156125ba57600080fd5b505af11580156125ce573d6000803e3d6000fd5b5050600660205250507f3e5fec24aa4dc4e5aee2e025e51e1392c72a2500577559fae9665c6d52bd6a3180546001810182556000919091527f80497882cf9008f7f796a89e5514a7b55bd96eab88ecb66aee4fb0a6fd34811c0183905561101281612f16565b3390565b5490565b60008061264b8484600161300c565b915091509250929050565b801515600090815260056020526040812081906126759082600161300c565b91509150915091565b6000612688613619565b60015460405163d311636b60e01b81526001600160a01b039091169063d311636b906126b8908690600401614522565b60006040518083038186803b1580156126d057600080fd5b505afa1580156126e4573d6000803e3d6000fd5b505050506040513d6000823e601f3d908101601f1916820160405261270c9190810190613bdc565b9050600080826060015161273257600c54600d546001600160a01b039182169116612746565b600d54600c546001600160a01b0391821691165b600854602086015160a0870151604051633418ea4560e11b81529496509294506000936001600160a01b0390921692636831d48a9261278a92918891600401613e3d565b602060405180830381600087803b1580156127a457600080fd5b505af11580156127b8573d6000803e3d6000fd5b505050506040513d601f19601f820116820180604052508101906127dc9190613cfa565b9050801561286c576008546040516323b872dd60e01b81526001600160a01b03808616926323b872dd9261281892339216908690600401613e3d565b602060405180830381600087803b15801561283257600080fd5b505af1158015612846573d6000803e3d6000fd5b505050506040513d601f19601f8201168201806040525081019061286a9190613b4a565b505b60a084015160009061287e908361208b565b9050612888613699565b600b5460405163026d09e360e31b81526001600160a01b03909116906313684f18906128bc90889088908790600401613e3d565b60006040518083038186803b1580156128d457600080fd5b505afa1580156128e8573d6000803e3d6000fd5b505050506040513d6000823e601f3d908101601f191682016040526129109190810190613a20565b9150508560c00151816000015110612a2a5760095460405163e6a0802560e01b81526000916001600160a01b03169063e6a0802590612953908990600401613e29565b60206040518083038186803b15801561296b57600080fd5b505afa15801561297f573d6000803e3d6000fd5b505050506040513d601f19601f820116820180604052508101906129a39190613cfa565b1115612a14576009546020870151604051636ce5768960e11b81526001600160a01b039092169163d9caed12916129e1918991908790600401613e3d565b600060405180830381600087803b1580156129fb57600080fd5b505af1158015612a0f573d6000803e3d6000fd5b505050505b612a23888287878660016120cd565b9650612a4e565b612a4c8860405180606001604052806037815260200161467a60379139613053565b505b505050505050919050565b6000610cbc82612638565b600082820183811015610cb95760405162461bcd60e51b81526004016106cf90614163565b60008183612aaa5760405162461bcd60e51b81526004016106cf9190614034565b506000838581612ab657fe5b0495945050505050565b81151560009081526005602052604081208190612adf9030858761318b565b8415156000908152600560205260409020909150612afe908287613322565b95945050505050565b6000610cb98383613331565b60008184841115612b375760405162461bcd60e51b81526004016106cf9190614034565b505050900390565b6000612b49613619565b60015460405163d311636b60e01b81526001600160a01b039091169063d311636b90612b79908790600401614522565b60006040518083038186803b158015612b9157600080fd5b505afa158015612ba5573d6000803e3d6000fd5b505050506040513d6000823e601f3d908101601f19168201604052612bcd9190810190613bdc565b905060008161010001516003811115612be257fe5b14612bff5760405162461bcd60e51b81526004016106cf906140c0565b600154604051630d4e568160e41b81526001600160a01b039091169063d4e5681090612c349087906002908890600401614557565b600060405180830381600087803b158015612c4e57600080fd5b505af1158015612c62573d6000803e3d6000fd5b506006925060009150600290505b6003811115612c7b57fe5b81526020808201929092526040016000908120805460018101825590825291902001849055612ca981612f16565b505092915050565b604080516002808252606080830184529260208301908036833701905050905060005b6002811015612d1a57828160028110612ce957fe5b6020020151828281518110612cfa57fe5b6001600160a01b0390921660209283029190910190910152600101612cd4565b50919050565b6040805160038082526080820190925260609160208201838036833701905050905060005b6003811015612d1a57828160038110612d5a57fe5b6020020151828281518110612d6b57fe5b6001600160a01b0390921660209283029190910190910152600101612d45565b60025460405163904c3e9b60e01b815260009182916001600160a01b039091169063904c3e9b90612dca908b908a908a908d908b908b90600401613eca565b602060405180830381600087803b158015612de457600080fd5b505af1158015612df8573d6000803e3d6000fd5b505050506040513d601f19601f82011682018060405250810190612e1c9190613cfa565b98975050505050505050565b601354612e359082612a64565b601355601054601154600091612e5491620151809161070a919061208b565b90506000612e72620151806010544203611f6590919063ffffffff16565b905081811115612eb857601280546014805460018101825560009182527fce6d7b5282bd9a3661ae061feed1dbda4e52ab073b1f9285be6e155d9c38d4ec019190915590555b601254612ec59084612a64565b60125550504260115550565b81546000908210612ef45760405162461bcd60e51b81526004016106cf90614047565b826000018281548110612f0357fe5b9060005260206000200154905092915050565b600154602082015182516040516323b872dd60e01b81526000936001600160a01b0316926323b872dd92612f509230929190600401613e3d565b600060405180830381600087803b158015612f6a57600080fd5b505af1158015612f7e573d6000803e3d6000fd5b50505050600660008361010001516003811115612f9757fe5b6003811115612fa257fe5b81526020808201929092526040908101600090812085518154600181018355918352848320909101558451338252600490935220612fdf9161337b565b50815160608301511515600090815260056020526040812090916130039190613387565b15159392505050565b600080613019858561340f565b6130285750600090508061304b565b505060008281526001848101602090815260408084208515158552909152909120545b935093915050565b600061305d613619565b60015460405163d311636b60e01b81526001600160a01b039091169063d311636b9061308d908790600401614522565b60006040518083038186803b1580156130a557600080fd5b505afa1580156130b9573d6000803e3d6000fd5b505050506040513d6000823e601f3d908101601f191682016040526130e19190810190613bdc565b9050600081610100015160038111156130f657fe5b146131135760405162461bcd60e51b81526004016106cf90614287565b600154604051630d4e568160e41b81526001600160a01b039091169063d4e568109061314b908790600390600090899060040161452b565b600060405180830381600087803b15801561316557600080fd5b505af1158015613179573d6000803e3d6000fd5b50600692506000915060039050612c70565b600061319685612638565b6131a25750600061061d565b60006131b1866000600161300c565b9150508215613271575b801580159061324557506040516307fa648b60e11b81526001600160a01b03861690630ff4c916906131f1908490600401614522565b60206040518083038186803b15801561320957600080fd5b505afa15801561321d573d6000803e3d6000fd5b505050506040513d601f19601f820116820180604052508101906132419190613cfa565b8411155b1561326c5760009081526001808701602090815260408084209284529190529020546131bb565b612afe565b80158015906132fb57506040516307fa648b60e11b81526001600160a01b03861690630ff4c916906132a7908490600401614522565b60206040518083038186803b1580156132bf57600080fd5b505afa1580156132d3573d6000803e3d6000fd5b505050506040513d601f19601f820116820180604052508101906132f79190613cfa565b8410155b15612afe576000908152600180870160209081526040808420928452919052902054613271565b600061061d848484600061348b565b600061333d83836134ff565b61337357508154600181810184556000848152602080822090930184905584548482528286019093526040902091909155610cbc565b506000610cbc565b6000610cb98383613517565b600081158061339d575061339b838361340f565b155b156133aa57506000610cbc565b6000828152600184810160209081526040808420848052909152808320548284529220546133dc9286929091906135e4565b50600081815260018381016020908152604080842084805290915280832083905590825281205581546000190190915590565b6000818152600183016020908152604080832083805290915281205415801561345257506000828152600180850160209081526040808420928452919052902054155b1561348357600080805260018085016020908152604080842092845291905290205482141561337357506001610cbc565b506001610cbc565b6000613497858461340f565b1580156134a957506134a9858561340f565b156134f4576000848152600186016020908152604080832085151584529091529020546134d8868686866135e4565b6134e4868583866135e4565b505083546001908101855561061d565b506000949350505050565b60009081526001919091016020526040902054151590565b600081815260018301602052604081205480156135d3578354600019808301919081019060009087908390811061354a57fe5b906000526020600020015490508087600001848154811061356757fe5b60009182526020808320909101929092558281526001898101909252604090209084019055865487908061359757fe5b60019003818190600052602060002001600090559055866001016000878152602001908152602001600020600090556001945050505050610cbc565b6000915050610cbc565b5092915050565b600082815260019094016020818152604080872093158088529382528087208690559486529081528385209115855252912055565b6040518061018001604052806000815260200160006001600160a01b0316815260200160006001600160a01b03168152602001600015158152602001600081526020016000815260200160008152602001600081526020016000600381111561367e57fe5b81526020016060815260200160008152602001600081525090565b6040518060c001604052806000815260200160008152602001606081526020016060815260200160608152602001606081525090565b8051610cbc81614649565b600082601f8301126136ea578081fd5b81516136fd6136f8826145c0565b614599565b81815291506020808301908481018184028601820187101561371e57600080fd5b60005b8481101561374657815161373481614649565b84529282019290820190600101613721565b505050505092915050565b600082601f830112613761578081fd5b815161376f6136f8826145c0565b81815291506020808301908481018184028601820187101561379057600080fd5b6000805b858110156137bc578251600881106137aa578283fd5b85529383019391830191600101613794565b50505050505092915050565b600082601f8301126137d8578081fd5b81516137e66136f8826145c0565b81815291506020808301908481018184028601820187101561380757600080fd5b60005b848110156137465781518452928201929082019060010161380a565b8051610cbc8161465e565b8051610cbc8161466c565b600082601f83011261384c578081fd5b815161385a6136f8826145e0565b915080825283602082850101111561387157600080fd5b6135dd81602084016020860161460f565b600060208284031215613893578081fd5b8135610cb981614649565b60008060008060008060c087890312156138b6578182fd5b86356138c181614649565b955060208701356138d181614649565b945060408701356138e181614649565b935060608701356138f181614649565b9250608087013561390181614649565b915060a087013561391181614649565b809150509295509295509295565b60008060008060808587031215613934578384fd5b843561393f81614649565b9350602085013561394f81614649565b925060408501359150606085013567ffffffffffffffff811115613971578182fd5b8501601f81018713613981578182fd5b803561398f6136f8826145e0565b8181528860208385010111156139a3578384fd5b81602084016020830137908101602001929092525092959194509250565b600080604083850312156139d3578182fd5b82356139de81614649565b946020939093013593505050565b600080600060608486031215613a00578081fd5b8335613a0b81614649565b95602085013595506040909401359392505050565b60008060408385031215613a32578182fd5b825167ffffffffffffffff80821115613a49578384fd5b613a55868387016137c8565b93506020850151915080821115613a6a578283fd5b9084019060c08287031215613a7d578283fd5b613a8760c0614599565b8251815260208301516020820152604083015182811115613aa6578485fd5b613ab288828601613751565b604083015250606083015182811115613ac9578485fd5b613ad5888286016136da565b606083015250608083015182811115613aec578485fd5b613af8888286016137c8565b60808301525060a083015182811115613b0f578485fd5b613b1b888286016137c8565b60a0830152508093505050509250929050565b600060208284031215613b3f578081fd5b8135610cb98161465e565b600060208284031215613b5b578081fd5b8151610cb98161465e565b600080600060608486031215613b7a578081fd5b8335613a0b8161465e565b60008060008060808587031215613b9a578182fd5b8435613ba58161465e565b966020860135965060408601359560600135945092505050565b60008060408385031215613bd1578182fd5b82356139de8161466c565b600060208284031215613bed578081fd5b815167ffffffffffffffff80821115613c04578283fd5b8184019150610180808387031215613c1a578384fd5b613c2381614599565b905082518152613c3686602085016136cf565b6020820152613c4886604085016136cf565b6040820152613c5a8660608501613826565b60608201526080830151608082015260a083015160a082015260c083015160c082015260e083015160e0820152610100613c9687828601613831565b908201526101208381015183811115613cad578586fd5b613cb98882870161383c565b918301919091525061014083810151908201526101609283015192810192909252509392505050565b600060208284031215613cf3578081fd5b5035919050565b600060208284031215613d0b578081fd5b5051919050565b60008060408385031215613d24578182fd5b505080516020909101519092909150565b600060208284031215613d46578081fd5b815160ff81168114610cb9578182fd5b6000613d618261463f565b50815260200190565b6001600160a01b03169052565b6000815180845260208085019450808401835b83811015613daf5781516001600160a01b031687529582019590820190600101613d8a565b509495945050505050565b6000815180845260208085019450808401835b83811015613daf57815187529582019590820190600101613dcd565b15159052565b60048110613df957fe5b9052565b60008151808452613e1581602086016020860161460f565b601f01601f19169290920160200192915050565b6001600160a01b0391909116815260200190565b6001600160a01b039384168152919092166020820152604081019190915260600190565b6001600160a01b0392831681529116602082015260400190565b6001600160a01b03968716815294909516602085015291151560408401526060830152608082015260a081019190915260c00190565b6001600160a01b03929092168252602082015260400190565b6001600160a01b03871681526020810186905260408101859052606081018490526000613ef68461463f565b83608083015260c060a0830152612e1c60c0830184613d77565b60208082528251828201819052600091906040908185019080840286018301878501865b8381101561400657603f1989840301855281516101808151855288820151613f5e8a870182613d6a565b5087820151613f6f89870182613d6a565b50606080830151613f8282880182613de9565b50506080828101519086015260a0808301519086015260c0808301519086015260e0808301519086015261010080830151613fbf82880182613def565b5050610120808301518282880152613fd983880182613dfd565b61014085810151908901526101609485015194909701939093525050509386019390860190600101613f34565b509098975050505050505050565b901515815260200190565b6001600160e01b031991909116815260200190565b600060208252610cb96020830184613dfd565b60208082526022908201527f456e756d657261626c655365743a20696e646578206f7574206f6620626f756e604082015261647360f01b606082015260800190565b60208082526017908201527f426f626f506169723a206e6f207065726d697373696f6e000000000000000000604082015260600190565b60208082526039908201527f4f7264657253746f72653a206f6e6c792068616e67696e67206f72646572206360408201527f616e206265636f6d6520414d4d4465616c207374617475732e00000000000000606082015260800190565b60208082526026908201527f4f776e61626c653a206e6577206f776e657220697320746865207a65726f206160408201526564647265737360d01b606082015260800190565b6020808252601b908201527f536166654d6174683a206164646974696f6e206f766572666c6f770000000000604082015260600190565b6020808252602d908201527f426f626f506169723a2063616e204e4f54207361746973667920796f7572207460408201526c3930b232903932b8bab2b9ba1760991b606082015260800190565b60208082526031908201527f4f7264657253746f72653a206f6e6c7920626f6f6b206f776e65722063616e2060408201527031b0b731b2b6103a34329037b93232b91760791b606082015260800190565b6020808252602f908201527f426f626f506169723a20696e416d6f756e74204d555354206c6172676572207460408201526e3430b71036b4b71030b6b7bab73a1760891b606082015260800190565b6020808252603b908201527f4f7264657253746f72653a206f6e6c792068616e67696e67206f72646572206360408201527f616e206265636f6d6520657863657074696f6e207374617475732e0000000000606082015260800190565b60208082526022908201527f4f7264657253746f72653a20696e646578206973206f7574206f6620626f756e604082015261321760f11b606082015260800190565b60208082526024908201527f426f626f506169723a20736c697070616765204d555354203c3d2031303030286040820152633130252960e01b606082015260800190565b60208082526021908201527f536166654d6174683a206d756c7469706c69636174696f6e206f766572666c6f6040820152607760f81b606082015260800190565b6020808252818101527f4f776e61626c653a2063616c6c6572206973206e6f7420746865206f776e6572604082015260600190565b6020808252602f908201527f4f7264657253746f72653a206f6e6c792068616e67696e67206f72646572206360408201526e30b71031329031b0b731b2b632b21760891b606082015260800190565b600060a082526101608201875160a084015260208089015160c0850152604089015160c060e08601528281516144658186614522565b9284019450859291505b8083101561449457614482828651613d56565b9150838501945060018301925061446f565b5060608b01519350609f19915081868203016101008701526144b68185613d77565b93505060808a015181868503016101208701526144d38482613dba565b93505060a08a015181868503016101408701526144f08482613dba565b9450505061450081850189613d6a565b505061450f6040830186613d6a565b8360608301526124696080830184613d6a565b90815260200190565b600085825261453d6020830186613def565b836040830152608060608301526124696080830184613dfd565b600084825261456584614604565b60208301528260408301526080606083015280608083015260a082019050949350505050565b918252602082015260400190565b60405181810167ffffffffffffffff811182821017156145b857600080fd5b604052919050565b600067ffffffffffffffff8211156145d6578081fd5b5060209081020190565b600067ffffffffffffffff8211156145f6578081fd5b50601f01601f191660200190565b806004811061060757fe5b60005b8381101561462a578181015183820152602001614612565b83811115614639576000848401525b50505050565b60088110611e5d57fe5b6001600160a01b0381168114611e5d57600080fd5b8015158114611e5d57600080fd5b60048110611e5d57600080fdfe416d6f756e74206f75742063616e204e4f54207361746973667920746865206d696e20616d6f756e74206f7574206f66206f726465722ea264697066735822122063917d0b8888a104fe43133caeb0f3f5e37fd7def5f04d47272e8d9d55b56fb464736f6c634300060c00334f776e61626c653a206e6577206f776e657220697320746865207a65726f20616464726573734f776e61626c653a2063616c6c6572206973206e6f7420746865206f776e6572a264697066735822122073cd9bc943ad1f1739101cdc2fd3e70d3712df88e3406caeb6d8039e622634f164736f6c634300060c0033",
  "immutableReferences": {},
  "source": "// SPDX-License-Identifier: MIT\npragma solidity ^0.6.0;\n\nimport \"./common/OrderStore.sol\";\nimport \"./BoboPair.sol\";\n\n\ninterface IBoboPair {\n    function initialize(address _token0, address _token1, address _authAddr, address _boboFarmer, address _orderNFT, address _orderDetailNFT) external;\n    function setRouter(address _router) external;\n    function addAuth(address _authAddr) external;\n    function getTotalHangingTokenAmount(address _userAddr) view external returns(uint256 baseTokenAmount, uint256 quoteTokenAmount);\n}\n\ncontract BoboFactoryOnMatic is Ownable {\n    using SafeMath for uint256;\n    using SafeERC20 for IERC20;\n    using EnumerableSet for EnumerableSet.UintSet;\n    using EnumerableSet for EnumerableSet.AddressSet;\n    \n    \n    address public constant USDT = 0xc2132D05D31c914a87C6611C10748AEb04B58e8F;\n    address public constant USDC = 0x2791Bca1f2de4661ED88A30C99A7a9449Aa84174;\n    address public constant WMATIC = 0x0d500B1d8E8eF31E21C99d1Db9A6444d3ADf1270;\n    \n    address[] public allPairs;  // \n    mapping(address => mapping(address => address)) public getPair;\n    mapping(address => address[]) public baseTokenPairs;\n\n    IBoboFarmer public boboFarmer;\n    address public orderNFT;\n    address public orderDetailNFT;\n    \n    EnumerableSet.AddressSet private baseTokens;\n    \n    event PairCreated(address indexed token0, address indexed token1, address pair, uint);\n    \n    constructor (address _orderNFT, address _orderDetailNFT, address _boboFarmer) public {  \n        baseTokens.add(USDT);\n        baseTokens.add(USDC);\n        orderNFT = _orderNFT;\n        orderDetailNFT = _orderDetailNFT;\n        boboFarmer = IBoboFarmer(_boboFarmer);\n    }\n\n    function setBoboFarmer(address _boboFarmer) public onlyOwner {\n        boboFarmer = IBoboFarmer(_boboFarmer);\n    }\n    \n    function addBaseToken(address _baseToken) public onlyOwner {\n        require (!baseTokens.contains(_baseToken), \"BoboFactory: EXIST\");\n        baseTokens.add(_baseToken);\n    }\n    \n    function createPair(address _quoteToken, address _baseToken) public onlyOwner returns (address pairAddr) {\n        require(baseTokens.contains(_baseToken), \"BoboFactory: base token ERROR.\");\n        require(_quoteToken != _baseToken, \"BoboFactory: IDENTICAL_ADDRESSES\");\n        require(_quoteToken != address(0), \"BoboFactory: ZERO_ADDRESS\");\n        require(getPair[_quoteToken][_baseToken] == address(0), \"BoboFactory: PAIR_EXISTS\"); // single check is sufficient\n        bytes memory bytecode = type(BoboPair).creationCode;\n        bytes32 salt = keccak256(abi.encodePacked(_quoteToken, _baseToken));\n        assembly {\n            pairAddr := create2(0, add(bytecode, 32), mload(bytecode), salt)\n        }\n        IBoboPair(pairAddr).initialize(_quoteToken, _baseToken, msg.sender, address(boboFarmer), orderNFT, orderDetailNFT);\n        getPair[_quoteToken][_baseToken] = pairAddr;\n        getPair[_baseToken][_quoteToken] = pairAddr; // populate mapping in the reverse direction\n        allPairs.push(pairAddr);\n        baseTokenPairs[_baseToken].push(_quoteToken);\n        emit PairCreated(_quoteToken, _baseToken, pairAddr, allPairs.length);\n    }\n    \n    // \n    function createPairs(address[] memory _quoteTokens, address _baseToken) public onlyOwner {\n        for (uint256 i = 0; i < _quoteTokens.length; i++) {\n            createPair(_quoteTokens[i], _baseToken);\n        }\n    }\n\n    function pairNumber() view public returns(uint256) {\n        return allPairs.length;\n    }\n    \n    function setPairRouter(address _quoteToken, address _baseToken, address _router) external onlyOwner {\n        address pairAddr = getPair[_quoteToken][_baseToken];\n        require(pairAddr != address(0), 'BoboFactory: PAIR_NOT_EXISTS');\n        IBoboPair(pairAddr).setRouter(_router);\n    }\n    \n    function addPairAuth(address _quoteToken, address _baseToken, address _auth) external onlyOwner {\n        address pairAddr = getPair[_quoteToken][_baseToken];\n        require(pairAddr != address(0), 'BoboFactory: PAIR_NOT_EXISTS');\n        IBoboPair(pairAddr).addAuth(_auth);\n    }\n\n    function getBaseTokenPairLength(address _baseToken) view external returns(uint256) {\n        return baseTokenPairs[_baseToken].length;\n    }\n\n    function getTotalHangingTokenAmount(address _baseToken, address _userAddr) view public returns(uint256) {\n        uint256 totalBaseTokenAmount;\n        address[] memory quoteTokens = baseTokenPairs[_baseToken];\n        for (uint256 i = 0; i < quoteTokens.length; i++) {\n            address pairAddr = getPair[quoteTokens[i]][_baseToken];\n            (uint256 baseTokenAmount,) = IBoboPair(pairAddr).getTotalHangingTokenAmount(_userAddr);\n            totalBaseTokenAmount = totalBaseTokenAmount.add(baseTokenAmount);\n        }\n        return totalBaseTokenAmount;\n    }\n\n    function getClaimBaseTokenAmount(address _baseToken, address _userAddr) view public returns(uint256) {\n        uint256 hangingBaseTokenAmount = boboFarmer.stakedWantTokens(_baseToken, _userAddr);\n        uint256 baseTokenAmount = getTotalHangingTokenAmount(_baseToken, _userAddr);\n        return hangingBaseTokenAmount.sub(baseTokenAmount);\n    }\n    // boboFarmerFactory\n    function claimBaseToken(address _baseToken) public {\n        uint256 amount = getClaimBaseTokenAmount(_baseToken, msg.sender);\n        if (boboFarmer.tokenPidMap(_baseToken) > 0) {\n            uint256 preBaseTokenAmount = IERC20(_baseToken).balanceOf(address(this));\n            boboFarmer.withdraw(_baseToken, msg.sender, amount);\n            uint256 newBaseTokenAmount = IERC20(_baseToken).balanceOf(address(this));\n            IERC20(_baseToken).transfer(msg.sender, newBaseTokenAmount.sub(preBaseTokenAmount));\n        }\n    }\n}",
  "sourcePath": "/Users/sam/go/src/github.com/bobo-metaverse/boboswap-contract/contracts/BoboFactory.sol",
  "compiler": {
    "name": "solc",
    "version": "0.6.12+commit.27d51765.Emscripten.clang"
  },
  "schemaVersion": "3.4.2",
  "updatedAt": "2021-08-17T01:40:14.665Z",
  "devdoc": {
    "kind": "dev",
    "methods": {
      "owner()": {
        "details": "Returns the address of the current owner."
      },
      "renounceOwnership()": {
        "details": "Leaves the contract without owner. It will not be possible to call `onlyOwner` functions anymore. Can only be called by the current owner. NOTE: Renouncing ownership will leave the contract without an owner, thereby removing any functionality that is only available to the owner."
      },
      "transferOwnership(address)": {
        "details": "Transfers ownership of the contract to a new account (`newOwner`). Can only be called by the current owner."
      }
    },
    "version": 1
  },
  "userdoc": {
    "kind": "user",
    "methods": {},
    "version": 1
  }
}