{
  "contractName": "BoboFarmer",
  "abi": [
    {
      "inputs": [
        {
          "internalType": "address",
          "name": "_boboTokenAddress",
          "type": "address"
        },
        {
          "internalType": "address",
          "name": "_fundAddr",
          "type": "address"
        }
      ],
      "stateMutability": "nonpayable",
      "type": "constructor"
    },
    {
      "anonymous": false,
      "inputs": [
        {
          "indexed": true,
          "internalType": "address",
          "name": "_tokenAddr",
          "type": "address"
        },
        {
          "indexed": true,
          "internalType": "address",
          "name": "user",
          "type": "address"
        },
        {
          "indexed": false,
          "internalType": "uint256",
          "name": "amount",
          "type": "uint256"
        }
      ],
      "name": "Deposit",
      "type": "event"
    },
    {
      "anonymous": false,
      "inputs": [
        {
          "indexed": true,
          "internalType": "address",
          "name": "_tokenAddr",
          "type": "address"
        },
        {
          "indexed": true,
          "internalType": "address",
          "name": "user",
          "type": "address"
        },
        {
          "indexed": false,
          "internalType": "uint256",
          "name": "amount",
          "type": "uint256"
        }
      ],
      "name": "EmergencyWithdraw",
      "type": "event"
    },
    {
      "anonymous": false,
      "inputs": [
        {
          "indexed": true,
          "internalType": "address",
          "name": "previousOwner",
          "type": "address"
        },
        {
          "indexed": true,
          "internalType": "address",
          "name": "newOwner",
          "type": "address"
        }
      ],
      "name": "OwnershipTransferred",
      "type": "event"
    },
    {
      "anonymous": false,
      "inputs": [
        {
          "indexed": true,
          "internalType": "address",
          "name": "_tokenAddr",
          "type": "address"
        },
        {
          "indexed": true,
          "internalType": "address",
          "name": "user",
          "type": "address"
        },
        {
          "indexed": false,
          "internalType": "uint256",
          "name": "amount",
          "type": "uint256"
        }
      ],
      "name": "Withdraw",
      "type": "event"
    },
    {
      "inputs": [
        {
          "internalType": "address",
          "name": "",
          "type": "address"
        }
      ],
      "name": "_auth",
      "outputs": [
        {
          "internalType": "bool",
          "name": "",
          "type": "bool"
        }
      ],
      "stateMutability": "view",
      "type": "function"
    },
    {
      "inputs": [
        {
          "internalType": "address",
          "name": "_authorizedAddr",
          "type": "address"
        }
      ],
      "name": "addAuthorized",
      "outputs": [
        {
          "internalType": "bool",
          "name": "",
          "type": "bool"
        }
      ],
      "stateMutability": "nonpayable",
      "type": "function"
    },
    {
      "inputs": [],
      "name": "boboPerBlock",
      "outputs": [
        {
          "internalType": "uint256",
          "name": "",
          "type": "uint256"
        }
      ],
      "stateMutability": "view",
      "type": "function"
    },
    {
      "inputs": [],
      "name": "boboTokenAddr",
      "outputs": [
        {
          "internalType": "address",
          "name": "",
          "type": "address"
        }
      ],
      "stateMutability": "view",
      "type": "function"
    },
    {
      "inputs": [],
      "name": "burnAddress",
      "outputs": [
        {
          "internalType": "address",
          "name": "",
          "type": "address"
        }
      ],
      "stateMutability": "view",
      "type": "function"
    },
    {
      "inputs": [
        {
          "internalType": "address",
          "name": "_authorizedAddr",
          "type": "address"
        }
      ],
      "name": "delAuthorized",
      "outputs": [
        {
          "internalType": "bool",
          "name": "",
          "type": "bool"
        }
      ],
      "stateMutability": "nonpayable",
      "type": "function"
    },
    {
      "inputs": [],
      "name": "denominator",
      "outputs": [
        {
          "internalType": "uint256",
          "name": "",
          "type": "uint256"
        }
      ],
      "stateMutability": "view",
      "type": "function"
    },
    {
      "inputs": [],
      "name": "fundAddr",
      "outputs": [
        {
          "internalType": "address",
          "name": "",
          "type": "address"
        }
      ],
      "stateMutability": "view",
      "type": "function"
    },
    {
      "inputs": [
        {
          "internalType": "uint256",
          "name": "_index",
          "type": "uint256"
        }
      ],
      "name": "getAuthorized",
      "outputs": [
        {
          "internalType": "address",
          "name": "",
          "type": "address"
        }
      ],
      "stateMutability": "view",
      "type": "function"
    },
    {
      "inputs": [],
      "name": "getAuthorizedLength",
      "outputs": [
        {
          "internalType": "uint256",
          "name": "",
          "type": "uint256"
        }
      ],
      "stateMutability": "view",
      "type": "function"
    },
    {
      "inputs": [
        {
          "internalType": "address",
          "name": "_authorizedAddr",
          "type": "address"
        }
      ],
      "name": "isAuthorized",
      "outputs": [
        {
          "internalType": "bool",
          "name": "",
          "type": "bool"
        }
      ],
      "stateMutability": "view",
      "type": "function"
    },
    {
      "inputs": [],
      "name": "numerator",
      "outputs": [
        {
          "internalType": "uint256",
          "name": "",
          "type": "uint256"
        }
      ],
      "stateMutability": "view",
      "type": "function"
    },
    {
      "inputs": [],
      "name": "owner",
      "outputs": [
        {
          "internalType": "address",
          "name": "",
          "type": "address"
        }
      ],
      "stateMutability": "view",
      "type": "function"
    },
    {
      "inputs": [
        {
          "internalType": "uint256",
          "name": "",
          "type": "uint256"
        }
      ],
      "name": "poolInfo",
      "outputs": [
        {
          "internalType": "contract IERC20",
          "name": "want",
          "type": "address"
        },
        {
          "internalType": "uint256",
          "name": "allocPoint",
          "type": "uint256"
        },
        {
          "internalType": "uint256",
          "name": "lastRewardBlock",
          "type": "uint256"
        },
        {
          "internalType": "uint256",
          "name": "accBOBOPerShare",
          "type": "uint256"
        },
        {
          "internalType": "address",
          "name": "strat",
          "type": "address"
        }
      ],
      "stateMutability": "view",
      "type": "function"
    },
    {
      "inputs": [],
      "name": "renounceOwnership",
      "outputs": [],
      "stateMutability": "nonpayable",
      "type": "function"
    },
    {
      "inputs": [],
      "name": "startBlock",
      "outputs": [
        {
          "internalType": "uint256",
          "name": "",
          "type": "uint256"
        }
      ],
      "stateMutability": "view",
      "type": "function"
    },
    {
      "inputs": [
        {
          "internalType": "address",
          "name": "",
          "type": "address"
        }
      ],
      "name": "tokenPidMap",
      "outputs": [
        {
          "internalType": "uint256",
          "name": "",
          "type": "uint256"
        }
      ],
      "stateMutability": "view",
      "type": "function"
    },
    {
      "inputs": [],
      "name": "totalAllocPoint",
      "outputs": [
        {
          "internalType": "uint256",
          "name": "",
          "type": "uint256"
        }
      ],
      "stateMutability": "view",
      "type": "function"
    },
    {
      "inputs": [
        {
          "internalType": "address",
          "name": "newOwner",
          "type": "address"
        }
      ],
      "name": "transferOwnership",
      "outputs": [],
      "stateMutability": "nonpayable",
      "type": "function"
    },
    {
      "inputs": [
        {
          "internalType": "uint256",
          "name": "",
          "type": "uint256"
        },
        {
          "internalType": "address",
          "name": "",
          "type": "address"
        }
      ],
      "name": "userInfo",
      "outputs": [
        {
          "internalType": "uint256",
          "name": "shares",
          "type": "uint256"
        },
        {
          "internalType": "uint256",
          "name": "rewardDebt",
          "type": "uint256"
        }
      ],
      "stateMutability": "view",
      "type": "function"
    },
    {
      "inputs": [
        {
          "internalType": "address",
          "name": "_fundAddr",
          "type": "address"
        }
      ],
      "name": "setFundAddr",
      "outputs": [],
      "stateMutability": "nonpayable",
      "type": "function"
    },
    {
      "inputs": [
        {
          "internalType": "uint256",
          "name": "_numerator",
          "type": "uint256"
        },
        {
          "internalType": "uint256",
          "name": "_denominator",
          "type": "uint256"
        }
      ],
      "name": "setFundScale",
      "outputs": [],
      "stateMutability": "nonpayable",
      "type": "function"
    },
    {
      "inputs": [
        {
          "internalType": "uint256",
          "name": "_boboPerBlock",
          "type": "uint256"
        }
      ],
      "name": "setBoboPerBlock",
      "outputs": [],
      "stateMutability": "nonpayable",
      "type": "function"
    },
    {
      "inputs": [],
      "name": "poolLength",
      "outputs": [
        {
          "internalType": "uint256",
          "name": "",
          "type": "uint256"
        }
      ],
      "stateMutability": "view",
      "type": "function"
    },
    {
      "inputs": [
        {
          "internalType": "uint256",
          "name": "_allocPoint",
          "type": "uint256"
        },
        {
          "internalType": "address",
          "name": "_want",
          "type": "address"
        },
        {
          "internalType": "bool",
          "name": "_withUpdate",
          "type": "bool"
        },
        {
          "internalType": "address",
          "name": "_strat",
          "type": "address"
        }
      ],
      "name": "add",
      "outputs": [],
      "stateMutability": "nonpayable",
      "type": "function"
    },
    {
      "inputs": [
        {
          "internalType": "address",
          "name": "_tokenAddr",
          "type": "address"
        },
        {
          "internalType": "uint256",
          "name": "_allocPoint",
          "type": "uint256"
        },
        {
          "internalType": "bool",
          "name": "_withUpdate",
          "type": "bool"
        }
      ],
      "name": "setPoolPoint",
      "outputs": [],
      "stateMutability": "nonpayable",
      "type": "function"
    },
    {
      "inputs": [
        {
          "internalType": "uint256",
          "name": "_from",
          "type": "uint256"
        },
        {
          "internalType": "uint256",
          "name": "_to",
          "type": "uint256"
        }
      ],
      "name": "getMultiplier",
      "outputs": [
        {
          "internalType": "uint256",
          "name": "",
          "type": "uint256"
        }
      ],
      "stateMutability": "pure",
      "type": "function"
    },
    {
      "inputs": [
        {
          "internalType": "address",
          "name": "_tokenAddr",
          "type": "address"
        },
        {
          "internalType": "address",
          "name": "_user",
          "type": "address"
        }
      ],
      "name": "pendingBOBO",
      "outputs": [
        {
          "internalType": "uint256",
          "name": "",
          "type": "uint256"
        }
      ],
      "stateMutability": "view",
      "type": "function"
    },
    {
      "inputs": [
        {
          "internalType": "address",
          "name": "_tokenAddr",
          "type": "address"
        },
        {
          "internalType": "address",
          "name": "_user",
          "type": "address"
        }
      ],
      "name": "stakedWantTokens",
      "outputs": [
        {
          "internalType": "uint256",
          "name": "",
          "type": "uint256"
        }
      ],
      "stateMutability": "view",
      "type": "function"
    },
    {
      "inputs": [],
      "name": "massUpdatePools",
      "outputs": [],
      "stateMutability": "nonpayable",
      "type": "function"
    },
    {
      "inputs": [
        {
          "internalType": "uint256",
          "name": "_pid",
          "type": "uint256"
        }
      ],
      "name": "updatePool",
      "outputs": [],
      "stateMutability": "nonpayable",
      "type": "function"
    },
    {
      "inputs": [
        {
          "internalType": "address",
          "name": "_tokenAddr",
          "type": "address"
        },
        {
          "internalType": "address",
          "name": "_userAddr",
          "type": "address"
        },
        {
          "internalType": "uint256",
          "name": "_wantAmt",
          "type": "uint256"
        }
      ],
      "name": "deposit",
      "outputs": [],
      "stateMutability": "nonpayable",
      "type": "function"
    },
    {
      "inputs": [
        {
          "internalType": "uint256",
          "name": "_orderId",
          "type": "uint256"
        }
      ],
      "name": "depositOrderNFT",
      "outputs": [],
      "stateMutability": "nonpayable",
      "type": "function"
    },
    {
      "inputs": [
        {
          "internalType": "address",
          "name": "_tokenAddr",
          "type": "address"
        },
        {
          "internalType": "address",
          "name": "_userAddr",
          "type": "address"
        },
        {
          "internalType": "uint256",
          "name": "_wantAmt",
          "type": "uint256"
        }
      ],
      "name": "withdraw",
      "outputs": [],
      "stateMutability": "nonpayable",
      "type": "function"
    },
    {
      "inputs": [
        {
          "internalType": "address",
          "name": "_tokenAddr",
          "type": "address"
        },
        {
          "internalType": "address",
          "name": "_newStratAddr",
          "type": "address"
        }
      ],
      "name": "migrateNewStrat",
      "outputs": [],
      "stateMutability": "nonpayable",
      "type": "function"
    },
    {
      "inputs": [],
      "name": "returnU4Test",
      "outputs": [],
      "stateMutability": "nonpayable",
      "type": "function"
    }
  ],
  "bytecode": "0x6080604052600580546001600160a01b03191661dead1790556000600d553480156200002a57600080fd5b50604051620030f5380380620030f58339810160408190526200004d91620000ec565b600062000059620000e8565b600080546001600160a01b0319166001600160a01b0383169081178255604051929350917f8be0079c531659141344cd1fd0a4f28419497f9722a3daafe3b4186f6b6457e0908290a35060016003908155600480546001600160a01b039485166001600160a01b0319918216179091556006805493909416921691909117909155600260085560075562000143565b3390565b60008060408385031215620000ff578182fd5b82516200010c816200012a565b60208401519092506200011f816200012a565b809150509250929050565b6001600160a01b03811681146200014057600080fd5b50565b612fa280620001536000396000f3fe608060405234801561001057600080fd5b506004361061021c5760003560e01c80638340f54911610125578063cf1c316a116100ad578063e6a080251161007c578063e6a080251461043b578063ec2f83da1461044e578063f2fde38b14610456578063f419d47614610469578063fe9fbb80146104715761021c565b8063cf1c316a146103fa578063d0f2ced11461040d578063d8fc5d7b14610420578063d9caed12146104285761021c565b806393ce61ae116100f457806393ce61ae146103a357806393f1a40b146103b657806396ce0795146103d7578063c63cc564146103df578063ce5f9454146103f25761021c565b80638340f549146103625780638d1afc46146103755780638da5cb5b146103885780638dbb1e3a146103905761021c565b806351eb05a6116101a8578063682cb91111610177578063682cb911146103175780636f39cfcd1461032c578063704b02481461033f57806370d5ae0514610352578063715018a61461035a5761021c565b806351eb05a6146102d657806355d59a15146102e95780635f70edcf146102fc578063630b5ba11461030f5761021c565b80631de47f28116101ef5780631de47f281461028b5780632013af35146102a057806331a40b62146102b35780633397e527146102c657806348cd4cb1146102ce5761021c565b8063081e3eda146102215780631526fe271461023f57806317caf6f11461026357806319c2146b1461026b575b600080fd5b610229610484565b6040516102369190612eef565b60405180910390f35b61025261024d36600461284e565b61048a565b6040516102369594939291906129eb565b6102296104d5565b61027e610279366004612741565b6104db565b60405161023691906129e0565b61029e61029936600461284e565b6104f0565b005b6102296102ae366004612779565b61053b565b61027e6102c1366004612741565b610715565b61022961077d565b61022961078e565b61029e6102e436600461284e565b610794565b61029e6102f73660046128f4565b610a85565b61029e61030a3660046128a2565b610ac5565b61029e610d30565b61031f610d53565b6040516102369190612954565b61029e61033a366004612741565b610d62565b61029e61034d36600461284e565b610a82565b61031f610db9565b61029e610dc8565b61029e6103703660046127b1565b610e47565b61029e6103833660046127f1565b6110ce565b61031f6111cf565b61022961039e3660046128f4565b6111de565b61029e6103b1366004612779565b6111f1565b6103c96103c436600461287e565b611506565b604051610236929190612f0f565b61022961152a565b61031f6103ed36600461284e565b611530565b610229611567565b61027e610408366004612741565b61156d565b61022961041b366004612779565b6115d5565b610229611808565b61029e6104363660046127b1565b61180e565b610229610449366004612741565b611c7e565b61031f611c90565b61029e610464366004612741565b611c9f565b61029e611d55565b61027e61047f366004612741565b611f68565b600b5490565b600b818154811061049757fe5b6000918252602090912060059091020180546001820154600283015460038401546004909401546001600160a01b0393841695509193909290911685565b600d5481565b600f6020526000908152604090205460ff1681565b6104f8611f75565b6000546001600160a01b0390811691161461052e5760405162461bcd60e51b815260040161052590612c70565b60405180910390fd5b610536610d30565b600955565b6001600160a01b0382166000908152600e60205260408120546105705760405162461bcd60e51b815260040161052590612b44565b6001600160a01b0383166000908152600e6020526040812054600b805460001990920192918390811061059f57fe5b60009182526020808320858452600c825260408085206001600160a01b03808b1687529352808520600360059095029092019384015460048086015486549351631190d9e560e11b815296985093969195919493841693632321b3ca936106099391169101612954565b60206040518083038186803b15801561062157600080fd5b505afa158015610635573d6000803e3d6000fd5b505050506040513d601f19601f820116820180604052508101906106599190612866565b905083600201544311801561066d57508015155b156106d95760006106828560020154436111de565b905060006106b5600d546106af88600101546106a960095487611f7990919063ffffffff16565b90611f79565b90611fb3565b90506106d46106cd846106af8464e8d4a51000611f79565b8590611ff5565b935050505b610707836001015461070164e8d4a510006106af868860000154611f7990919063ffffffff16565b9061201a565b955050505050505b92915050565b600061071f611f75565b6000546001600160a01b0390811691161461074c5760405162461bcd60e51b815260040161052590612c70565b6001600160a01b0382166107725760405162461bcd60e51b815260040161052590612e9a565b61070f60018361205c565b60006107896001612071565b905090565b600a5481565b6000600b82815481106107a357fe5b90600052602060002090600502019050806002015443116107c45750610a82565b6004808201548254604051631190d9e560e11b81526000936001600160a01b0393841693632321b3ca936107fb9391169101612954565b60206040518083038186803b15801561081357600080fd5b505afa158015610827573d6000803e3d6000fd5b505050506040513d601f19601f8201168201806040525081019061084b9190612866565b90508061085f575043600290910155610a82565b600061086f8360020154436111de565b90506000811161088157505050610a82565b60006108a6600d546106af86600101546106a960095487611f7990919063ffffffff16565b90508015610a745760006108cb6007546106af60085485611f7990919063ffffffff16565b6004549091506001600160a01b03166340c10f19306108ea8585611ff5565b6040518363ffffffff1660e01b8152600401610907929190612968565b602060405180830381600087803b15801561092157600080fd5b505af1158015610935573d6000803e3d6000fd5b505050506040513d601f19601f820116820180604052508101906109599190612832565b506004805460065460405163095ea7b360e01b81526001600160a01b039283169363095ea7b39361098e931691869101612968565b602060405180830381600087803b1580156109a857600080fd5b505af11580156109bc573d6000803e3d6000fd5b505050506040513d601f19601f820116820180604052508101906109e09190612832565b50600654604051632a5360c760e21b81526001600160a01b039091169063a94d831c90610a11908490600401612eef565b600060405180830381600087803b158015610a2b57600080fd5b505af1158015610a3f573d6000803e3d6000fd5b50505050610a6d610a62856106af64e8d4a5100086611f7990919063ffffffff16565b600387015490611ff5565b6003860155505b438460020181905550505050505b50565b610a8d611f75565b6000546001600160a01b03908116911614610aba5760405162461bcd60e51b815260040161052590612c70565b600891909155600755565b610acd611f75565b6000546001600160a01b03908116911614610afa5760405162461bcd60e51b815260040161052590612c70565b6001600160a01b0383166000908152600e602052604090205415610b305760405162461bcd60e51b815260040161052590612bf8565b306001600160a01b0316816001600160a01b0316638da5cb5b6040518163ffffffff1660e01b8152600401602060405180830381600087803b158015610b7557600080fd5b505af1158015610b89573d6000803e3d6000fd5b505050506040513d601f19601f82011682018060405250810190610bad919061275d565b6001600160a01b031614610bd35760405162461bcd60e51b815260040161052590612d51565b8115610be157610be1610d30565b600d54610bee9085611ff5565b600d556040805160a0810182526001600160a01b0394851680825260208083019788524383850190815260006060850181815296891660808601908152600b8054600181018255818452965160059097027f0175b7a638427703f0dbe7bb9bbf987a2551717b34e79f33b5b1008d1fa01db981018054988d166001600160a01b0319998a161790559b517f0175b7a638427703f0dbe7bb9bbf987a2551717b34e79f33b5b1008d1fa01dba8d015592517f0175b7a638427703f0dbe7bb9bbf987a2551717b34e79f33b5b1008d1fa01dbb8c015596517f0175b7a638427703f0dbe7bb9bbf987a2551717b34e79f33b5b1008d1fa01dbc8b015595517f0175b7a638427703f0dbe7bb9bbf987a2551717b34e79f33b5b1008d1fa01dbd909901805499909816989093169790971790955554938252600e909452929092205550565b600b5460005b81811015610d4f57610d4781610794565b600101610d36565b5050565b6006546001600160a01b031681565b610d6a611f75565b6000546001600160a01b03908116911614610d975760405162461bcd60e51b815260040161052590612c70565b600680546001600160a01b0319166001600160a01b0392909216919091179055565b6005546001600160a01b031681565b610dd0611f75565b6000546001600160a01b03908116911614610dfd5760405162461bcd60e51b815260040161052590612c70565b600080546040516001600160a01b03909116907f8be0079c531659141344cd1fd0a4f28419497f9722a3daafe3b4186f6b6457e0908390a3600080546001600160a01b0319169055565b60026003541415610e6a5760405162461bcd60e51b815260040161052590612e0e565b6002600355610e7833611f68565b610e945760405162461bcd60e51b815260040161052590612ceb565b6001600160a01b0383166000908152600e6020526040902054610ec95760405162461bcd60e51b815260040161052590612b44565b6001600160a01b0383166000908152600e602052604090205460001901610eef81610794565b6000600b8281548110610efe57fe5b60009182526020808320858452600c825260408085206001600160a01b038a168652909252922080546005909202909201925015610f78576000610f64826001015461070164e8d4a510006106af87600301548760000154611f7990919063ffffffff16565b90508015610f7657610f76868261207c565b505b8315611053578154610f95906001600160a01b031633308761221a565b60048201548254610fb3916001600160a01b03918216911686612272565b6004808301548354604051636e553f6560e01b81526000936001600160a01b0393841693636e553f6593610fee938b93919092169101612ef8565b602060405180830381600087803b15801561100857600080fd5b505af115801561101c573d6000803e3d6000fd5b505050506040513d601f19601f820116820180604052508101906110409190612866565b825490915061104f9082611ff5565b8255505b6003820154815461106e9164e8d4a51000916106af91611f79565b8160010181905550846001600160a01b0316866001600160a01b03167f5548c837ab068cf56a2c2479df0882a4922fd203edb7517321831d95078c5f62866040516110b99190612eef565b60405180910390a35050600160035550505050565b6110d6611f75565b6000546001600160a01b039081169116146111035760405162461bcd60e51b815260040161052590612c70565b6001600160a01b0383166000908152600e60205260409020546111385760405162461bcd60e51b815260040161052590612b44565b6001600160a01b0383166000908152600e602052604090205460001901811561116357611163610d30565b6111a08361119a600b848154811061117757fe5b906000526020600020906005020160010154600d5461201a90919063ffffffff16565b90611ff5565b600d8190555082600b82815481106111b457fe5b90600052602060002090600502016001018190555050505050565b6000546001600160a01b031690565b60006111ea828461201a565b9392505050565b6111f9611f75565b6000546001600160a01b039081169116146112265760405162461bcd60e51b815260040161052590612c70565b6001600160a01b0382166000908152600e602052604090205461125b5760405162461bcd60e51b815260040161052590612b44565b6001600160a01b0382166000908152600e6020526040812054600b805460001990920192918390811061128a57fe5b600091825260208220600460059092020181810154604051637753793760e01b815291945083926001600160a01b03909116916377537937916112cf918a9101612954565b6040805180830381600087803b1580156112e857600080fd5b505af11580156112fc573d6000803e3d6000fd5b505050506040513d601f19601f820116820180604052508101906113209190612915565b60405163082ceeb360e01b815291935091506001600160a01b0386169063082ceeb390611355908990869086906004016129bf565b600060405180830381600087803b15801561136f57600080fd5b505af1158015611383573d6000803e3d6000fd5b50505050600483810180546001600160a01b0319166001600160a01b03888116919091179091556040516370a0823160e01b8152600092918916916370a08231916113d091309101612954565b60206040518083038186803b1580156113e857600080fd5b505afa1580156113fc573d6000803e3d6000fd5b505050506040513d601f19601f820116820180604052508101906114209190612866565b905080156114aa5760405163a9059cbb60e01b81526001600160a01b0388169063a9059cbb906114569089908590600401612968565b602060405180830381600087803b15801561147057600080fd5b505af1158015611484573d6000803e3d6000fd5b505050506040513d601f19601f820116820180604052508101906114a89190612832565b505b856001600160a01b03166336e9332d6040518163ffffffff1660e01b8152600401600060405180830381600087803b1580156114e557600080fd5b505af11580156114f9573d6000803e3d6000fd5b5050505050505050505050565b600c6020908152600092835260408084209091529082529020805460019091015482565b60075481565b6000600161153c61077d565b0382111561155c5760405162461bcd60e51b815260040161052590612ca5565b61070f600183612317565b60085481565b6000611577611f75565b6000546001600160a01b039081169116146115a45760405162461bcd60e51b815260040161052590612c70565b6001600160a01b0382166115ca5760405162461bcd60e51b815260040161052590612e45565b61070f600183612323565b6001600160a01b0382166000908152600e602052604081205461160a5760405162461bcd60e51b815260040161052590612b44565b6001600160a01b0383166000908152600e60205260409020546000190161162f6126e6565b600b828154811061163c57fe5b60009182526020918290206040805160a081018252600590930290910180546001600160a01b0390811684526001820154948401949094526002810154918301919091526003810154606083015260040154909116608082015290506116a0612727565b506000828152600c602090815260408083206001600160a01b038089168552908352818420825180840184528154815260019091015493810193909352608085015185519251631190d9e560e11b8152939493911691632321b3ca916117099190600401612954565b60206040518083038186803b15801561172157600080fd5b505afa158015611735573d6000803e3d6000fd5b505050506040513d601f19601f820116820180604052508101906117599190612866565b60808401518451604051630433471360e11b81529293506000926001600160a01b03909216916308668e269161179191600401612954565b60206040518083038186803b1580156117a957600080fd5b505afa1580156117bd573d6000803e3d6000fd5b505050506040513d601f19601f820116820180604052508101906117e19190612866565b9050816117f65760009550505050505061070f565b82516107079083906106af9084611f79565b60095481565b600260035414156118315760405162461bcd60e51b815260040161052590612e0e565b600260035561183f33611f68565b61185b5760405162461bcd60e51b815260040161052590612ceb565b6001600160a01b0383166000908152600e60205260409020546118905760405162461bcd60e51b815260040161052590612b44565b6001600160a01b0383166000908152600e6020526040902054600019016118b681610794565b6000600b82815481106118c557fe5b60009182526020808320858452600c825260408085206001600160a01b038a81168752935280852060059490940290910160048181015482549351630433471360e11b81529297509495948416936308668e26936119269391169101612954565b60206040518083038186803b15801561193e57600080fd5b505afa158015611952573d6000803e3d6000fd5b505050506040513d601f19601f820116820180604052508101906119769190612866565b6004808501548554604051631190d9e560e11b81529394506000936001600160a01b0392831693632321b3ca936119af93169101612954565b60206040518083038186803b1580156119c757600080fd5b505afa1580156119db573d6000803e3d6000fd5b505050506040513d601f19601f820116820180604052508101906119ff9190612866565b8354909150611a205760405162461bcd60e51b815260040161052590612ac7565b60008111611a405760405162461bcd60e51b815260040161052590612a4e565b6000611a6e846001015461070164e8d4a510006106af89600301548960000154611f7990919063ffffffff16565b90508015611a8057611a80888261207c565b8354600090611a959084906106af9087611f79565b905080881115611aa3578097505b8715611bff576004808701548754604051627b8a6760e11b81526000936001600160a01b039384169362f714ce93611ae2938f93919092169101612ef8565b602060405180830381600087803b158015611afc57600080fd5b505af1158015611b10573d6000803e3d6000fd5b505050506040513d601f19601f82011682018060405250810190611b349190612866565b8654909150811115611b495760008655611b58565b8554611b55908261201a565b86555b86546040516370a0823160e01b81526000916001600160a01b0316906370a0823190611b88903090600401612954565b60206040518083038186803b158015611ba057600080fd5b505afa158015611bb4573d6000803e3d6000fd5b505050506040513d601f19601f82011682018060405250810190611bd89190612866565b905089811015611be6578099505b8754611bfc906001600160a01b0316338c612338565b50505b60038601548554611c1a9164e8d4a51000916106af91611f79565b8560010181905550886001600160a01b03168a6001600160a01b03167f9b1bfa7fa9ee420a16e124f794c35ac9f90472acc99140eb2f6447c714cad8eb8a604051611c659190612eef565b60405180910390a3505060016003555050505050505050565b600e6020526000908152604090205481565b6004546001600160a01b031681565b611ca7611f75565b6000546001600160a01b03908116911614611cd45760405162461bcd60e51b815260040161052590612c70565b6001600160a01b038116611cfa5760405162461bcd60e51b815260040161052590612afe565b600080546040516001600160a01b03808516939216917f8be0079c531659141344cd1fd0a4f28419497f9722a3daafe3b4186f6b6457e091a3600080546001600160a01b0319166001600160a01b0392909216919091179055565b6040516370a0823160e01b815273c2132d05d31c914a87c6611c10748aeb04b58e8f90732791bca1f2de4661ed88a30c99a7a9449aa8417490829063a9059cbb90339083906370a0823190611dae903090600401612954565b60206040518083038186803b158015611dc657600080fd5b505afa158015611dda573d6000803e3d6000fd5b505050506040513d601f19601f82011682018060405250810190611dfe9190612866565b6040518363ffffffff1660e01b8152600401611e1b929190612968565b602060405180830381600087803b158015611e3557600080fd5b505af1158015611e49573d6000803e3d6000fd5b505050506040513d601f19601f82011682018060405250810190611e6d9190612832565b506040516370a0823160e01b81526001600160a01b0382169063a9059cbb90339083906370a0823190611ea4903090600401612954565b60206040518083038186803b158015611ebc57600080fd5b505afa158015611ed0573d6000803e3d6000fd5b505050506040513d601f19601f82011682018060405250810190611ef49190612866565b6040518363ffffffff1660e01b8152600401611f11929190612968565b602060405180830381600087803b158015611f2b57600080fd5b505af1158015611f3f573d6000803e3d6000fd5b505050506040513d601f19601f82011682018060405250810190611f639190612832565b505050565b600061070f600183612357565b3390565b600082611f885750600061070f565b82820282848281611f9557fe5b04146111ea5760405162461bcd60e51b815260040161052590612c2f565b60006111ea83836040518060400160405280601a81526020017f536166654d6174683a206469766973696f6e206279207a65726f00000000000081525061236c565b6000828201838110156111ea5760405162461bcd60e51b815260040161052590612b7b565b60006111ea83836040518060400160405280601e81526020017f536166654d6174683a207375627472616374696f6e206f766572666c6f7700008152506123a3565b60006111ea836001600160a01b0384166123cf565b600061070f82612495565b600480546040516370a0823160e01b81526000926001600160a01b03909216916370a08231916120ae91309101612954565b60206040518083038186803b1580156120c657600080fd5b505afa1580156120da573d6000803e3d6000fd5b505050506040513d601f19601f820116820180604052508101906120fe9190612866565b905080821115612191576004805460405163a9059cbb60e01b81526001600160a01b039091169163a9059cbb91612139918791869101612968565b602060405180830381600087803b15801561215357600080fd5b505af1158015612167573d6000803e3d6000fd5b505050506040513d601f19601f8201168201806040525081019061218b9190612832565b50611f63565b6004805460405163a9059cbb60e01b81526001600160a01b039091169163a9059cbb916121c2918791879101612968565b602060405180830381600087803b1580156121dc57600080fd5b505af11580156121f0573d6000803e3d6000fd5b505050506040513d601f19601f820116820180604052508101906122149190612832565b50505050565b612214846323b872dd60e01b85858560405160240161223b9392919061299b565b60408051601f198184030181529190526020810180516001600160e01b03166001600160e01b031990931692909217909152612499565b60006122f682856001600160a01b031663dd62ed3e30876040518363ffffffff1660e01b81526004016122a6929190612981565b60206040518083038186803b1580156122be57600080fd5b505afa1580156122d2573d6000803e3d6000fd5b505050506040513d601f19601f8201168201806040525081019061119a9190612866565b90506122148463095ea7b360e01b858460405160240161223b929190612968565b60006111ea8383612528565b60006111ea836001600160a01b03841661256d565b611f638363a9059cbb60e01b848460405160240161223b929190612968565b60006111ea836001600160a01b0384166125b7565b6000818361238d5760405162461bcd60e51b81526004016105259190612a1b565b50600083858161239957fe5b0495945050505050565b600081848411156123c75760405162461bcd60e51b81526004016105259190612a1b565b505050900390565b6000818152600183016020526040812054801561248b578354600019808301919081019060009087908390811061240257fe5b906000526020600020015490508087600001848154811061241f57fe5b60009182526020808320909101929092558281526001898101909252604090209084019055865487908061244f57fe5b6001900381819060005260206000200160009055905586600101600087815260200190815260200160002060009055600194505050505061070f565b600091505061070f565b5490565b60606124ee826040518060400160405280602081526020017f5361666545524332303a206c6f772d6c6576656c2063616c6c206661696c6564815250856001600160a01b03166125cf9092919063ffffffff16565b805190915015611f63578080602001905181019061250c9190612832565b611f635760405162461bcd60e51b815260040161052590612dc4565b8154600090821061254b5760405162461bcd60e51b815260040161052590612a85565b82600001828154811061255a57fe5b9060005260206000200154905092915050565b600061257983836125b7565b6125af5750815460018181018455600084815260208082209093018490558454848252828601909352604090209190915561070f565b50600061070f565b60009081526001919091016020526040902054151590565b60606125de84846000856125e6565b949350505050565b6060824710156126085760405162461bcd60e51b815260040161052590612bb2565b612611856126a7565b61262d5760405162461bcd60e51b815260040161052590612d1a565b60006060866001600160a01b0316858760405161264a9190612938565b60006040518083038185875af1925050503d8060008114612687576040519150601f19603f3d011682016040523d82523d6000602084013e61268c565b606091505b509150915061269c8282866126ad565b979650505050505050565b3b151590565b606083156126bc5750816111ea565b8251156126cc5782518084602001fd5b8160405162461bcd60e51b81526004016105259190612a1b565b6040518060a0016040528060006001600160a01b0316815260200160008152602001600081526020016000815260200160006001600160a01b031681525090565b604051806040016040528060008152602001600081525090565b600060208284031215612752578081fd5b81356111ea81612f49565b60006020828403121561276e578081fd5b81516111ea81612f49565b6000806040838503121561278b578081fd5b823561279681612f49565b915060208301356127a681612f49565b809150509250929050565b6000806000606084860312156127c5578081fd5b83356127d081612f49565b925060208401356127e081612f49565b929592945050506040919091013590565b600080600060608486031215612805578283fd5b833561281081612f49565b925060208401359150604084013561282781612f5e565b809150509250925092565b600060208284031215612843578081fd5b81516111ea81612f5e565b60006020828403121561285f578081fd5b5035919050565b600060208284031215612877578081fd5b5051919050565b60008060408385031215612890578182fd5b8235915060208301356127a681612f49565b600080600080608085870312156128b7578081fd5b8435935060208501356128c981612f49565b925060408501356128d981612f5e565b915060608501356128e981612f49565b939692955090935050565b60008060408385031215612906578182fd5b50508035926020909101359150565b60008060408385031215612927578182fd5b505080516020909101519092909150565b6000825161294a818460208701612f1d565b9190910192915050565b6001600160a01b0391909116815260200190565b6001600160a01b03929092168252602082015260400190565b6001600160a01b0392831681529116602082015260400190565b6001600160a01b039384168152919092166020820152604081019190915260600190565b6001600160a01b039390931683526020830191909152604082015260600190565b901515815260200190565b6001600160a01b039586168152602081019490945260408401929092526060830152909116608082015260a00190565b6000602082528251806020840152612a3a816040850160208701612f1d565b601f01601f19169190910160400192915050565b6020808252601c908201527f426f626f4661726d65723a20736861726573546f74616c206973203000000000604082015260600190565b60208082526022908201527f456e756d657261626c655365743a20696e646578206f7574206f6620626f756e604082015261647360f01b606082015260800190565b6020808252601c908201527f426f626f4661726d65723a20757365722e736861726573206973203000000000604082015260600190565b60208082526026908201527f4f776e61626c653a206e6577206f776e657220697320746865207a65726f206160408201526564647265737360d01b606082015260800190565b6020808252601c908201527f426f626f4661726d65723a20746f6b656e204e4f542065786973742e00000000604082015260600190565b6020808252601b908201527f536166654d6174683a206164646974696f6e206f766572666c6f770000000000604082015260600190565b60208082526026908201527f416464726573733a20696e73756666696369656e742062616c616e636520666f6040820152651c8818d85b1b60d21b606082015260800190565b60208082526018908201527f426f626f4661726d65723a20746f6b656e2045584953542e0000000000000000604082015260600190565b60208082526021908201527f536166654d6174683a206d756c7469706c69636174696f6e206f766572666c6f6040820152607760f81b606082015260800190565b6020808252818101527f4f776e61626c653a2063616c6c6572206973206e6f7420746865206f776e6572604082015260600190565b60208082526026908201527f4d6978696e417574686f72697a61626c653a20696e646578206f7574206f6620604082015265626f756e647360d01b606082015260800190565b60208082526015908201527414d15391115497d393d517d055551213d492569151605a1b604082015260600190565b6020808252601d908201527f416464726573733a2063616c6c20746f206e6f6e2d636f6e7472616374000000604082015260600190565b6020808252604d908201527f426f626f4661726d65723a20746865206f776e6572206f66207374726174204d60408201527f555354206265207468652073616d65206173207468652061646472657373206f60608201526c33102137b137a330b936b2b91760991b608082015260a00190565b6020808252602a908201527f5361666545524332303a204552433230206f7065726174696f6e20646964206e6040820152691bdd081cdd58d8d9595960b21b606082015260800190565b6020808252601f908201527f5265656e7472616e637947756172643a207265656e7472616e742063616c6c00604082015260600190565b60208082526035908201527f4d6978696e417574686f72697a61626c653a205f616464417574686f72697a656040820152746420697320746865207a65726f206164647265737360581b606082015260800190565b60208082526035908201527f4d6978696e417574686f72697a61626c653a205f64656c417574686f72697a656040820152746420697320746865207a65726f206164647265737360581b606082015260800190565b90815260200190565b9182526001600160a01b0316602082015260400190565b918252602082015260400190565b60005b83811015612f38578181015183820152602001612f20565b838111156122145750506000910152565b6001600160a01b0381168114610a8257600080fd5b8015158114610a8257600080fdfea26469706673582212205a9c2512b139bf351f5bcae066ead4181de25e5d2da17e389fe248db4ebee8fb64736f6c634300060c0033",
  "immutableReferences": {},
  "source": "// SPDX-License-Identifier: MIT\npragma solidity ^0.6.0;\npragma experimental ABIEncoderV2;\n        \nimport \"./common/MixinAuthorizable.sol\";\n\ninterface IStrategy {\n    // Total want tokens managed by strat\n    function wantLockedTotalMap(address _wantToken) external view returns (uint256);\n\n    // Sum of all shares of users to wantLockedTotal\n    function sharesTotalMap(address _wantToken) external view returns (uint256);\n\n    // Main want token compounding function\n    function earn() external;\n\n    // Transfer want tokens boboFarm -> strategy\n    function deposit(uint256 _wantAmt, address _wantToken) external returns (uint256);\n\n    // Transfer want tokens strategy -> boboFarm\n    function withdraw(uint256 _wantAmt, address _wantToken) external returns (uint256);\n\n    function initTotalShareAndLocked(address _tokenAddr, uint256 _totalShare, uint256 _totalLocked) external;\n\n    function clearAndTransferTokens(address _tokenAddr) external returns(uint256, uint256);\n\n    function farm() external;\n    \n    function owner() external returns(address);\n}\n\ncontract BoboFarmer is MixinAuthorizable, ReentrancyGuard {\n    using SafeMath for uint256;\n    using SafeERC20 for IERC20;\n\n    struct UserInfo {\n        uint256 shares;             // \n        uint256 rewardDebt; \n    }\n\n    struct PoolInfo {\n        IERC20 want;                // token\n        uint256 allocPoint;         // BOBO\n        uint256 lastRewardBlock;    \n        uint256 accBOBOPerShare;    // BOBOmintBOBO\n        address strat;              // \n    }\n\n    address public boboTokenAddr;\n\n    address public burnAddress = 0x000000000000000000000000000000000000dEaD;\n    address public fundAddr;\n    uint256 public denominator;\n    uint256 public numerator;\n\n    uint256 public boboPerBlock; \n    uint256 public startBlock; \n\n    PoolInfo[] public poolInfo; \n    mapping(uint256 => mapping(address => UserInfo)) public userInfo; \n    uint256 public totalAllocPoint = 0; \n    mapping(address => uint256) public tokenPidMap;\n\n    mapping(address => bool) public _auth;\n\n    event Deposit(address indexed _tokenAddr, address indexed user, uint256 amount);\n    event Withdraw(address indexed _tokenAddr, address indexed user, uint256 amount);\n    event EmergencyWithdraw(\n        address indexed _tokenAddr,\n        address indexed user,\n        uint256 amount\n    );\n    \n    constructor(\n        address _boboTokenAddress, \n        address _fundAddr\n    ) public {\n        boboTokenAddr = _boboTokenAddress;\n        fundAddr = _fundAddr;\n        numerator = 2;\n        denominator = 3;\n    }\n\n\n    function setFundAddr(address _fundAddr) public onlyOwner {\n        fundAddr = _fundAddr;\n    }\n\n    function setFundScale(uint256 _numerator, uint256 _denominator) public onlyOwner {\n        numerator = _numerator;\n        denominator = _denominator;\n    }\n    \n    function setBoboPerBlock(          \n        uint256 _boboPerBlock\n    ) public onlyOwner {\n        massUpdatePools();\n        boboPerBlock = _boboPerBlock;\n    }\n\n    function poolLength() external view returns (uint256) {\n        return poolInfo.length;\n    }\n\n    function add(uint256 _allocPoint, address _want, bool _withUpdate, address _strat) public onlyOwner {\n        require(tokenPidMap[_want] == 0, \"BoboFarmer: token EXIST.\");\n        require(IStrategy(_strat).owner() == address(this), \"BoboFarmer: the owner of strat MUST be the same as the address of BoboFarmer.\");\n        if (_withUpdate) {\n            massUpdatePools();\n        }\n        totalAllocPoint = totalAllocPoint.add(_allocPoint);\n        poolInfo.push(\n            PoolInfo({\n                want: IERC20(_want),\n                allocPoint: _allocPoint,\n                lastRewardBlock: block.number,\n                accBOBOPerShare: 0,\n                strat: _strat\n            })\n        );\n        tokenPidMap[_want] = poolInfo.length;\n    }\n\n    function setPoolPoint(address _tokenAddr, uint256 _allocPoint, bool _withUpdate) public onlyOwner {\n        require(tokenPidMap[_tokenAddr] > 0, \"BoboFarmer: token NOT exist.\");\n        uint256 pid = tokenPidMap[_tokenAddr] - 1;\n        if (_withUpdate) {\n            massUpdatePools();\n        }\n        totalAllocPoint = totalAllocPoint.sub(poolInfo[pid].allocPoint).add(_allocPoint);\n        poolInfo[pid].allocPoint = _allocPoint;\n    }\n\n    function getMultiplier(uint256 _from, uint256 _to) public pure returns (uint256) {\n        return _to.sub(_from);\n    }\n\n    // BOBOBOBO\n    // bobo\n    function pendingBOBO(address _tokenAddr, address _user) external view returns (uint256) {\n        require(tokenPidMap[_tokenAddr] > 0, \"BoboFarmer: token NOT exist.\");\n        uint256 pid = tokenPidMap[_tokenAddr] - 1;\n        PoolInfo storage pool = poolInfo[pid];\n        UserInfo storage user = userInfo[pid][_user];\n        uint256 accBOBOPerShare = pool.accBOBOPerShare;\n        uint256 sharesTotal = IStrategy(pool.strat).sharesTotalMap(address(pool.want));         // \n        if (block.number > pool.lastRewardBlock && sharesTotal != 0) {\n            uint256 multiplier = getMultiplier(pool.lastRewardBlock, block.number);\n            uint256 boboReward = multiplier.mul(boboPerBlock).mul(pool.allocPoint).div(totalAllocPoint);   // BOBO\n            accBOBOPerShare = accBOBOPerShare.add(boboReward.mul(1e12).div(sharesTotal));      // BOBO\n        }\n        return user.shares.mul(accBOBOPerShare).div(1e12).sub(user.rewardDebt);\n    }\n\n    // want token\n    function stakedWantTokens(address _tokenAddr, address _user) external view returns (uint256) {\n        require(tokenPidMap[_tokenAddr] > 0, \"BoboFarmer: token NOT exist.\");\n        uint256 pid = tokenPidMap[_tokenAddr] - 1;\n\n        PoolInfo memory pool = poolInfo[pid];\n        UserInfo memory user = userInfo[pid][_user];\n\n        uint256 sharesTotal = IStrategy(pool.strat).sharesTotalMap(address(pool.want));\n        uint256 wantLockedTotal = IStrategy(pool.strat).wantLockedTotalMap(address(pool.want));\n        if (sharesTotal == 0) {\n            return 0;\n        }\n        return user.shares.mul(wantLockedTotal).div(sharesTotal);\n    }\n\n    function massUpdatePools() public {\n        uint256 length = poolInfo.length;\n        for (uint256 pid = 0; pid < length; ++pid) {\n            updatePool(pid);\n        }\n    }\n\n    function updatePool(uint256 _pid) public {\n        PoolInfo storage pool = poolInfo[_pid];\n        if (block.number <= pool.lastRewardBlock) {\n            return;\n        }\n        // \n        uint256 sharesTotal = IStrategy(pool.strat).sharesTotalMap(address(pool.want));\n        if (sharesTotal == 0) {\n            pool.lastRewardBlock = block.number;\n            return;\n        }\n\n        // BOBO\n        uint256 multiplier = getMultiplier(pool.lastRewardBlock, block.number);\n        if (multiplier <= 0) {\n            return;\n        }\n        uint256 boboReward = multiplier.mul(boboPerBlock).mul(pool.allocPoint).div(totalAllocPoint);\n        if (boboReward > 0) {\n            uint256 fundAmount = boboReward.mul(numerator).div(denominator);\n            IBOBOToken(boboTokenAddr).mint(address(this), boboReward.add(fundAmount));\n            IERC20(boboTokenAddr).approve(fundAddr, fundAmount);\n            IBoboFund(fundAddr).transferBobo(fundAmount);\n            pool.accBOBOPerShare = pool.accBOBOPerShare.add(boboReward.mul(1e12).div(sharesTotal));\n        }\n\n        pool.lastRewardBlock = block.number;\n    }\n\n    // wantwant\n    function deposit(address _tokenAddr, address _userAddr, uint256 _wantAmt) public nonReentrant onlyAuthorized {\n        require(tokenPidMap[_tokenAddr] > 0, \"BoboFarmer: token NOT exist.\");\n        uint256 pid = tokenPidMap[_tokenAddr] - 1;\n\n        updatePool(pid);\n        PoolInfo storage pool = poolInfo[pid];\n        UserInfo storage user = userInfo[pid][_userAddr];\n\n        if (user.shares > 0) {  // BOBO\n            uint256 pendingBOBOAmount = user.shares.mul(pool.accBOBOPerShare).div(1e12).sub(user.rewardDebt);\n            if (pendingBOBOAmount > 0) {\n                safeBOBOTransfer(_userAddr, pendingBOBOAmount);\n            }\n        }\n        if (_wantAmt > 0) {   // want0want =>  => => \n            pool.want.safeTransferFrom(msg.sender, address(this), _wantAmt);  // want\n\n            pool.want.safeIncreaseAllowance(pool.strat, _wantAmt);  // \n            uint256 sharesAdded = IStrategy(pool.strat).deposit(_wantAmt, address(pool.want));  // wantdeposit\n            user.shares = user.shares.add(sharesAdded);  // \n        }\n        user.rewardDebt = user.shares.mul(pool.accBOBOPerShare).div(1e12);   // BOBO\n        emit Deposit(_tokenAddr, _userAddr, _wantAmt);\n    }\n    \n    function depositOrderNFT(uint256 _orderId) public {\n        \n    }\n\n    // BOBOwant\n    // \n    function withdraw(address _tokenAddr, address _userAddr, uint256 _wantAmt) public nonReentrant onlyAuthorized {\n        require(tokenPidMap[_tokenAddr] > 0, \"BoboFarmer: token NOT exist.\");\n        uint256 pid = tokenPidMap[_tokenAddr] - 1;\n\n        updatePool(pid);\n\n        PoolInfo storage pool = poolInfo[pid];\n        UserInfo storage user = userInfo[pid][_userAddr];\n\n        uint256 wantLockedTotal = IStrategy(pool.strat).wantLockedTotalMap(address(pool.want));  // want\n        uint256 sharesTotal = IStrategy(pool.strat).sharesTotalMap(address(pool.want));  // \n\n        require(user.shares > 0, \"BoboFarmer: user.shares is 0\");\n        require(sharesTotal > 0, \"BoboFarmer: sharesTotal is 0\");\n\n        // BOBO\n        uint256 pending = user.shares.mul(pool.accBOBOPerShare).div(1e12).sub(user.rewardDebt);\n        if (pending > 0) {\n            safeBOBOTransfer(_userAddr, pending);\n        }\n\n        // want\n        uint256 amount = user.shares.mul(wantLockedTotal).div(sharesTotal);\n        if (_wantAmt > amount) {\n            _wantAmt = amount;\n        }\n        if (_wantAmt > 0) {\n            // want\n            uint256 sharesRemoved = IStrategy(pool.strat).withdraw(_wantAmt, address(pool.want));   \n\n            // \n            if (sharesRemoved > user.shares) {\n                user.shares = 0;\n            } else {\n                user.shares = user.shares.sub(sharesRemoved);\n            }\n\n            // withdrawwantwant\n            // wantwantwant\n            uint256 wantBal = IERC20(pool.want).balanceOf(address(this));  \n            if (wantBal < _wantAmt) {\n                _wantAmt = wantBal;\n            }\n            pool.want.safeTransfer(address(msg.sender), _wantAmt);\n        }\n        user.rewardDebt = user.shares.mul(pool.accBOBOPerShare).div(1e12);\n        emit Withdraw(_tokenAddr, _userAddr, _wantAmt);\n    }\n\n    function migrateNewStrat(address _tokenAddr, address _newStratAddr) external onlyOwner {\n        require(tokenPidMap[_tokenAddr] > 0, \"BoboFarmer: token NOT exist.\");\n        uint256 pid = tokenPidMap[_tokenAddr] - 1;\n        PoolInfo storage pool = poolInfo[pid];\n        \n        (uint256 totalShares, uint256 totalLocked) = IStrategy(pool.strat).clearAndTransferTokens(_tokenAddr);\n        IStrategy(_newStratAddr).initTotalShareAndLocked(_tokenAddr, totalShares, totalLocked);\n        pool.strat = _newStratAddr;\n        uint256 amount = IERC20(_tokenAddr).balanceOf(address(this));\n        if (amount > 0)\n            IERC20(_tokenAddr).transfer(_newStratAddr, amount);\n        IStrategy(_newStratAddr).farm();\n    }\n\n    function safeBOBOTransfer(address _to, uint256 _boboAmt) internal {\n        uint256 boboBal = IERC20(boboTokenAddr).balanceOf(address(this));\n        if (_boboAmt > boboBal) {\n            IERC20(boboTokenAddr).transfer(_to, boboBal);\n        } else {\n            IERC20(boboTokenAddr).transfer(_to, _boboAmt);\n        }\n    }\n\n    function returnU4Test() public {\n        address USDT = 0xc2132D05D31c914a87C6611C10748AEb04B58e8F;\n        address USDC = 0x2791Bca1f2de4661ED88A30C99A7a9449Aa84174;\n        IERC20(USDT).transfer(msg.sender, IERC20(USDT).balanceOf(address(this)));\n        IERC20(USDC).transfer(msg.sender, IERC20(USDC).balanceOf(address(this)));\n    }\n}",
  "sourcePath": "/Users/mryu/blockchain/bobo-metaverse/boboswap-contract/contracts/BoboFarmer.sol",
  "compiler": {
    "name": "solc",
    "version": "0.6.12+commit.27d51765.Emscripten.clang"
  },
  "schemaVersion": "3.4.3",
  "updatedAt": "2021-08-25T15:28:32.838Z",
  "devdoc": {
    "kind": "dev",
    "methods": {
      "owner()": {
        "details": "Returns the address of the current owner."
      },
      "renounceOwnership()": {
        "details": "Leaves the contract without owner. It will not be possible to call `onlyOwner` functions anymore. Can only be called by the current owner. NOTE: Renouncing ownership will leave the contract without an owner, thereby removing any functionality that is only available to the owner."
      },
      "transferOwnership(address)": {
        "details": "Transfers ownership of the contract to a new account (`newOwner`). Can only be called by the current owner."
      }
    },
    "version": 1
  },
  "userdoc": {
    "kind": "user",
    "methods": {},
    "version": 1
  }
}