{
  "contractName": "BOBOToken",
  "abi": [
    {
      "inputs": [],
      "stateMutability": "nonpayable",
      "type": "constructor"
    },
    {
      "anonymous": false,
      "inputs": [
        {
          "indexed": true,
          "internalType": "address",
          "name": "owner",
          "type": "address"
        },
        {
          "indexed": true,
          "internalType": "address",
          "name": "spender",
          "type": "address"
        },
        {
          "indexed": false,
          "internalType": "uint256",
          "name": "value",
          "type": "uint256"
        }
      ],
      "name": "Approval",
      "type": "event"
    },
    {
      "anonymous": false,
      "inputs": [
        {
          "indexed": true,
          "internalType": "address",
          "name": "previousOwner",
          "type": "address"
        },
        {
          "indexed": true,
          "internalType": "address",
          "name": "newOwner",
          "type": "address"
        }
      ],
      "name": "OwnershipTransferred",
      "type": "event"
    },
    {
      "anonymous": false,
      "inputs": [
        {
          "indexed": true,
          "internalType": "address",
          "name": "from",
          "type": "address"
        },
        {
          "indexed": true,
          "internalType": "address",
          "name": "to",
          "type": "address"
        },
        {
          "indexed": false,
          "internalType": "uint256",
          "name": "value",
          "type": "uint256"
        }
      ],
      "name": "Transfer",
      "type": "event"
    },
    {
      "inputs": [
        {
          "internalType": "address",
          "name": "_addMinter",
          "type": "address"
        }
      ],
      "name": "addMinter",
      "outputs": [
        {
          "internalType": "bool",
          "name": "",
          "type": "bool"
        }
      ],
      "stateMutability": "nonpayable",
      "type": "function"
    },
    {
      "inputs": [
        {
          "internalType": "address",
          "name": "owner",
          "type": "address"
        },
        {
          "internalType": "address",
          "name": "spender",
          "type": "address"
        }
      ],
      "name": "allowance",
      "outputs": [
        {
          "internalType": "uint256",
          "name": "",
          "type": "uint256"
        }
      ],
      "stateMutability": "view",
      "type": "function"
    },
    {
      "inputs": [
        {
          "internalType": "address",
          "name": "spender",
          "type": "address"
        },
        {
          "internalType": "uint256",
          "name": "amount",
          "type": "uint256"
        }
      ],
      "name": "approve",
      "outputs": [
        {
          "internalType": "bool",
          "name": "",
          "type": "bool"
        }
      ],
      "stateMutability": "nonpayable",
      "type": "function"
    },
    {
      "inputs": [
        {
          "internalType": "address",
          "name": "account",
          "type": "address"
        }
      ],
      "name": "balanceOf",
      "outputs": [
        {
          "internalType": "uint256",
          "name": "",
          "type": "uint256"
        }
      ],
      "stateMutability": "view",
      "type": "function"
    },
    {
      "inputs": [],
      "name": "decimals",
      "outputs": [
        {
          "internalType": "uint8",
          "name": "",
          "type": "uint8"
        }
      ],
      "stateMutability": "view",
      "type": "function"
    },
    {
      "inputs": [
        {
          "internalType": "address",
          "name": "spender",
          "type": "address"
        },
        {
          "internalType": "uint256",
          "name": "subtractedValue",
          "type": "uint256"
        }
      ],
      "name": "decreaseAllowance",
      "outputs": [
        {
          "internalType": "bool",
          "name": "",
          "type": "bool"
        }
      ],
      "stateMutability": "nonpayable",
      "type": "function"
    },
    {
      "inputs": [
        {
          "internalType": "address",
          "name": "_delMinter",
          "type": "address"
        }
      ],
      "name": "delMinter",
      "outputs": [
        {
          "internalType": "bool",
          "name": "",
          "type": "bool"
        }
      ],
      "stateMutability": "nonpayable",
      "type": "function"
    },
    {
      "inputs": [
        {
          "internalType": "uint256",
          "name": "_index",
          "type": "uint256"
        }
      ],
      "name": "getMinter",
      "outputs": [
        {
          "internalType": "address",
          "name": "",
          "type": "address"
        }
      ],
      "stateMutability": "view",
      "type": "function"
    },
    {
      "inputs": [],
      "name": "getMinterLength",
      "outputs": [
        {
          "internalType": "uint256",
          "name": "",
          "type": "uint256"
        }
      ],
      "stateMutability": "view",
      "type": "function"
    },
    {
      "inputs": [
        {
          "internalType": "address",
          "name": "spender",
          "type": "address"
        },
        {
          "internalType": "uint256",
          "name": "addedValue",
          "type": "uint256"
        }
      ],
      "name": "increaseAllowance",
      "outputs": [
        {
          "internalType": "bool",
          "name": "",
          "type": "bool"
        }
      ],
      "stateMutability": "nonpayable",
      "type": "function"
    },
    {
      "inputs": [
        {
          "internalType": "address",
          "name": "account",
          "type": "address"
        }
      ],
      "name": "isMinter",
      "outputs": [
        {
          "internalType": "bool",
          "name": "",
          "type": "bool"
        }
      ],
      "stateMutability": "view",
      "type": "function"
    },
    {
      "inputs": [],
      "name": "name",
      "outputs": [
        {
          "internalType": "string",
          "name": "",
          "type": "string"
        }
      ],
      "stateMutability": "view",
      "type": "function"
    },
    {
      "inputs": [],
      "name": "owner",
      "outputs": [
        {
          "internalType": "address",
          "name": "",
          "type": "address"
        }
      ],
      "stateMutability": "view",
      "type": "function"
    },
    {
      "inputs": [],
      "name": "renounceOwnership",
      "outputs": [],
      "stateMutability": "nonpayable",
      "type": "function"
    },
    {
      "inputs": [],
      "name": "symbol",
      "outputs": [
        {
          "internalType": "string",
          "name": "",
          "type": "string"
        }
      ],
      "stateMutability": "view",
      "type": "function"
    },
    {
      "inputs": [],
      "name": "totalSupply",
      "outputs": [
        {
          "internalType": "uint256",
          "name": "",
          "type": "uint256"
        }
      ],
      "stateMutability": "view",
      "type": "function"
    },
    {
      "inputs": [
        {
          "internalType": "address",
          "name": "recipient",
          "type": "address"
        },
        {
          "internalType": "uint256",
          "name": "amount",
          "type": "uint256"
        }
      ],
      "name": "transfer",
      "outputs": [
        {
          "internalType": "bool",
          "name": "",
          "type": "bool"
        }
      ],
      "stateMutability": "nonpayable",
      "type": "function"
    },
    {
      "inputs": [
        {
          "internalType": "address",
          "name": "sender",
          "type": "address"
        },
        {
          "internalType": "address",
          "name": "recipient",
          "type": "address"
        },
        {
          "internalType": "uint256",
          "name": "amount",
          "type": "uint256"
        }
      ],
      "name": "transferFrom",
      "outputs": [
        {
          "internalType": "bool",
          "name": "",
          "type": "bool"
        }
      ],
      "stateMutability": "nonpayable",
      "type": "function"
    },
    {
      "inputs": [
        {
          "internalType": "address",
          "name": "newOwner",
          "type": "address"
        }
      ],
      "name": "transferOwnership",
      "outputs": [],
      "stateMutability": "nonpayable",
      "type": "function"
    },
    {
      "inputs": [
        {
          "internalType": "address",
          "name": "_to",
          "type": "address"
        },
        {
          "internalType": "uint256",
          "name": "_amount",
          "type": "uint256"
        }
      ],
      "name": "mint",
      "outputs": [
        {
          "internalType": "bool",
          "name": "",
          "type": "bool"
        }
      ],
      "stateMutability": "nonpayable",
      "type": "function"
    }
  ],
  "bytecode": "0x60806040523480156200001157600080fd5b50604080518082018252600f81526e2137b1379036b2ba30902a37b5b2b760891b602080830191825283518085019094526004845263424f424f60e01b9084015281519192916200006591600391620000f7565b5080516200007b906004906020840190620000f7565b50506005805460ff1916601217905550600062000097620000f3565b60058054610100600160a81b0319166101006001600160a01b03841690810291909117909155604051919250906000907f8be0079c531659141344cd1fd0a4f28419497f9722a3daafe3b4186f6b6457e0908290a35062000193565b3390565b828054600181600116156101000203166002900490600052602060002090601f016020900481019282601f106200013a57805160ff19168380011785556200016a565b828001600101855582156200016a579182015b828111156200016a5782518255916020019190600101906200014d565b50620001789291506200017c565b5090565b5b808211156200017857600081556001016200017d565b6113b880620001a36000396000f3fe608060405234801561001057600080fd5b506004361061012c5760003560e01c806370a08231116100ad578063a457c2d711610071578063a457c2d714610381578063a9059cbb146103ad578063aa271e1a146103d9578063dd62ed3e146103ff578063f2fde38b1461042d5761012c565b806370a082311461031b578063715018a6146103415780638da5cb5b1461034b57806395d89b4114610353578063983b2d561461035b5761012c565b806323b872dd116100f457806323b872dd14610236578063313ce5671461026c578063395093511461028a57806340c10f19146102b65780635b7121f8146102e25761012c565b80630323aac71461013157806306fdde031461014b578063095ea7b3146101c857806318160ddd1461020857806323338b8814610210575b600080fd5b610139610453565b60408051918252519081900360200190f35b610153610464565b6040805160208082528351818301528351919283929083019185019080838360005b8381101561018d578181015183820152602001610175565b50505050905090810190601f1680156101ba5780820380516001836020036101000a031916815260200191505b509250505060405180910390f35b6101f4600480360360408110156101de57600080fd5b506001600160a01b0381351690602001356104fa565b604080519115158252519081900360200190f35b610139610518565b6101f46004803603602081101561022657600080fd5b50356001600160a01b031661051e565b6101f46004803603606081101561024c57600080fd5b506001600160a01b038135811691602081013590911690604001356105cd565b610274610654565b6040805160ff9092168252519081900360200190f35b6101f4600480360360408110156102a057600080fd5b506001600160a01b03813516906020013561065d565b6101f4600480360360408110156102cc57600080fd5b506001600160a01b0381351690602001356106ab565b6102ff600480360360208110156102f857600080fd5b503561073d565b604080516001600160a01b039092168252519081900360200190f35b6101396004803603602081101561033157600080fd5b50356001600160a01b0316610806565b610349610821565b005b6102ff6108ce565b6101536108e2565b6101f46004803603602081101561037157600080fd5b50356001600160a01b0316610943565b6101f46004803603604081101561039757600080fd5b506001600160a01b0381351690602001356109f2565b6101f4600480360360408110156103c357600080fd5b506001600160a01b038135169060200135610a5a565b6101f4600480360360208110156103ef57600080fd5b50356001600160a01b0316610a6e565b6101396004803603604081101561041557600080fd5b506001600160a01b0381358116916020013516610a7b565b6103496004803603602081101561044357600080fd5b50356001600160a01b0316610aa6565b600061045f6006610baf565b905090565b60038054604080516020601f60026000196101006001881615020190951694909404938401819004810282018101909252828152606093909290918301828280156104f05780601f106104c5576101008083540402835291602001916104f0565b820191906000526020600020905b8154815290600101906020018083116104d357829003601f168201915b5050505050905090565b600061050e610507610bba565b8484610bbe565b5060015b92915050565b60025490565b6000610528610bba565b60055461010090046001600160a01b0390811691161461057d576040805162461bcd60e51b815260206004820181905260248201526000805160206112cf833981519152604482015290519081900360640190fd5b6001600160a01b0382166105c25760405162461bcd60e51b81526004018080602001828103825260268152602001806113146026913960400191505060405180910390fd5b610512600683610caa565b60006105da848484610cc6565b61064a846105e6610bba565b610645856040518060600160405280602881526020016112a7602891396001600160a01b038a16600090815260016020526040812090610624610bba565b6001600160a01b031681526020810191909152604001600020549190610e21565b610bbe565b5060019392505050565b60055460ff1690565b600061050e61066a610bba565b84610645856001600061067b610bba565b6001600160a01b03908116825260208083019390935260409182016000908120918c168152925290205490610eb8565b60006106b633610a6e565b610707576040805162461bcd60e51b815260206004820152601860248201527f63616c6c6572206973206e6f7420746865206d696e7465720000000000000000604482015290519081900360640190fd5b6a52b7d2dcc80cd2e400000061072561071e610518565b8490610eb8565b111561073357506000610512565b61050e8383610f12565b6000610747610bba565b60055461010090046001600160a01b0390811691161461079c576040805162461bcd60e51b815260206004820181905260248201526000805160206112cf833981519152604482015290519081900360640190fd5b60016107a6610453565b038211156107fb576040805162461bcd60e51b815260206004820152601b60248201527f546f6d4361743a20696e646578206f7574206f6620626f756e64730000000000604482015290519081900360640190fd5b610512600683611002565b6001600160a01b031660009081526020819052604090205490565b610829610bba565b60055461010090046001600160a01b0390811691161461087e576040805162461bcd60e51b815260206004820181905260248201526000805160206112cf833981519152604482015290519081900360640190fd5b60055460405160009161010090046001600160a01b0316907f8be0079c531659141344cd1fd0a4f28419497f9722a3daafe3b4186f6b6457e0908390a360058054610100600160a81b0319169055565b60055461010090046001600160a01b031690565b60048054604080516020601f60026000196101006001881615020190951694909404938401819004810282018101909252828152606093909290918301828280156104f05780601f106104c5576101008083540402835291602001916104f0565b600061094d610bba565b60055461010090046001600160a01b039081169116146109a2576040805162461bcd60e51b815260206004820181905260248201526000805160206112cf833981519152604482015290519081900360640190fd5b6001600160a01b0382166109e75760405162461bcd60e51b81526004018080602001828103825260268152602001806112816026913960400191505060405180910390fd5b61051260068361100e565b600061050e6109ff610bba565b846106458560405180606001604052806025815260200161135e6025913960016000610a29610bba565b6001600160a01b03908116825260208083019390935260409182016000908120918d16815292529020549190610e21565b600061050e610a67610bba565b8484610cc6565b6000610512600683611023565b6001600160a01b03918216600090815260016020908152604080832093909416825291909152205490565b610aae610bba565b60055461010090046001600160a01b03908116911614610b03576040805162461bcd60e51b815260206004820181905260248201526000805160206112cf833981519152604482015290519081900360640190fd5b6001600160a01b038116610b485760405162461bcd60e51b81526004018080602001828103825260268152602001806112136026913960400191505060405180910390fd5b6005546040516001600160a01b0380841692610100900416907f8be0079c531659141344cd1fd0a4f28419497f9722a3daafe3b4186f6b6457e090600090a3600580546001600160a01b0390921661010002610100600160a81b0319909216919091179055565b600061051282611038565b3390565b6001600160a01b038316610c035760405162461bcd60e51b815260040180806020018281038252602481526020018061133a6024913960400191505060405180910390fd5b6001600160a01b038216610c485760405162461bcd60e51b81526004018080602001828103825260228152602001806112396022913960400191505060405180910390fd5b6001600160a01b03808416600081815260016020908152604080832094871680845294825291829020859055815185815291517f8c5be1e5ebec7d5bd14f71427d1e84f3dd0314c0f7b2291e5b200ac8c7c3b9259281900390910190a3505050565b6000610cbf836001600160a01b03841661103c565b9392505050565b6001600160a01b038316610d0b5760405162461bcd60e51b81526004018080602001828103825260258152602001806112ef6025913960400191505060405180910390fd5b6001600160a01b038216610d505760405162461bcd60e51b81526004018080602001828103825260238152602001806111f06023913960400191505060405180910390fd5b610d5b838383611102565b610d988160405180606001604052806026815260200161125b602691396001600160a01b0386166000908152602081905260409020549190610e21565b6001600160a01b038085166000908152602081905260408082209390935590841681522054610dc79082610eb8565b6001600160a01b038084166000818152602081815260409182902094909455805185815290519193928716927fddf252ad1be2c89b69c2b068fc378daa952ba7f163c4a11628f55a4df523b3ef92918290030190a3505050565b60008184841115610eb05760405162461bcd60e51b81526004018080602001828103825283818151815260200191508051906020019080838360005b83811015610e75578181015183820152602001610e5d565b50505050905090810190601f168015610ea25780820380516001836020036101000a031916815260200191505b509250505060405180910390fd5b505050900390565b600082820183811015610cbf576040805162461bcd60e51b815260206004820152601b60248201527f536166654d6174683a206164646974696f6e206f766572666c6f770000000000604482015290519081900360640190fd5b6001600160a01b038216610f6d576040805162461bcd60e51b815260206004820152601f60248201527f45524332303a206d696e7420746f20746865207a65726f206164647265737300604482015290519081900360640190fd5b610f7960008383611102565b600254610f869082610eb8565b6002556001600160a01b038216600090815260208190526040902054610fac9082610eb8565b6001600160a01b0383166000818152602081815260408083209490945583518581529351929391927fddf252ad1be2c89b69c2b068fc378daa952ba7f163c4a11628f55a4df523b3ef9281900390910190a35050565b6000610cbf8383611107565b6000610cbf836001600160a01b03841661116b565b6000610cbf836001600160a01b0384166111b5565b5490565b600081815260018301602052604081205480156110f8578354600019808301919081019060009087908390811061106f57fe5b906000526020600020015490508087600001848154811061108c57fe5b6000918252602080832090910192909255828152600189810190925260409020908401905586548790806110bc57fe5b60019003818190600052602060002001600090559055866001016000878152602001908152602001600020600090556001945050505050610512565b6000915050610512565b505050565b815460009082106111495760405162461bcd60e51b81526004018080602001828103825260228152602001806111ce6022913960400191505060405180910390fd5b82600001828154811061115857fe5b9060005260206000200154905092915050565b600061117783836111b5565b6111ad57508154600181810184556000848152602080822090930184905584548482528286019093526040902091909155610512565b506000610512565b6000908152600191909101602052604090205415159056fe456e756d657261626c655365743a20696e646578206f7574206f6620626f756e647345524332303a207472616e7366657220746f20746865207a65726f20616464726573734f776e61626c653a206e6577206f776e657220697320746865207a65726f206164647265737345524332303a20617070726f766520746f20746865207a65726f206164647265737345524332303a207472616e7366657220616d6f756e7420657863656564732062616c616e6365546f6d4361743a205f6164644d696e74657220697320746865207a65726f206164647265737345524332303a207472616e7366657220616d6f756e74206578636565647320616c6c6f77616e63654f776e61626c653a2063616c6c6572206973206e6f7420746865206f776e657245524332303a207472616e736665722066726f6d20746865207a65726f2061646472657373546f6d4361743a205f64656c4d696e74657220697320746865207a65726f206164647265737345524332303a20617070726f76652066726f6d20746865207a65726f206164647265737345524332303a2064656372656173656420616c6c6f77616e63652062656c6f77207a65726fa2646970667358221220ba54ec154fa69733fb01072bfaedff05a4e9a6e5f6d1856f5557aff06487021964736f6c634300060c0033",
  "immutableReferences": {},
  "source": "// SPDX-License-Identifier: MIT\npragma solidity ^0.6.0;\nimport \"./common/Minter.sol\";\n\n\ncontract BOBOToken is ERC20, Minter {\n    uint256 private constant maxSupply = 100000000 * 1e18;     // the total supply\n\n    constructor() public ERC20(\"Bobo meta Token\", \"BOBO\") {\n    }\n\n    // mint with max supply\n    function mint(address _to, uint256 _amount) public onlyMinter returns (bool) {\n        if (_amount.add(totalSupply()) > maxSupply) {\n            return false;\n        }\n        _mint(_to, _amount);\n        return true;\n    }\n}",
  "sourcePath": "/Users/sam/go/src/github.com/bobo-metaverse/boboswap-contract/contracts/BoboToken.sol",
  "compiler": {
    "name": "solc",
    "version": "0.6.12+commit.27d51765.Emscripten.clang"
  },
  "schemaVersion": "3.4.2",
  "updatedAt": "2021-08-17T01:40:14.676Z",
  "devdoc": {
    "kind": "dev",
    "methods": {
      "allowance(address,address)": {
        "details": "See {IERC20-allowance}."
      },
      "approve(address,uint256)": {
        "details": "See {IERC20-approve}. Requirements: - `spender` cannot be the zero address."
      },
      "balanceOf(address)": {
        "details": "See {IERC20-balanceOf}."
      },
      "decimals()": {
        "details": "Returns the number of decimals used to get its user representation. For example, if `decimals` equals `2`, a balance of `505` tokens should be displayed to a user as `5,05` (`505 / 10 ** 2`). Tokens usually opt for a value of 18, imitating the relationship between Ether and Wei. This is the value {ERC20} uses, unless {_setupDecimals} is called. NOTE: This information is only used for _display_ purposes: it in no way affects any of the arithmetic of the contract, including {IERC20-balanceOf} and {IERC20-transfer}."
      },
      "decreaseAllowance(address,uint256)": {
        "details": "Atomically decreases the allowance granted to `spender` by the caller. This is an alternative to {approve} that can be used as a mitigation for problems described in {IERC20-approve}. Emits an {Approval} event indicating the updated allowance. Requirements: - `spender` cannot be the zero address. - `spender` must have allowance for the caller of at least `subtractedValue`."
      },
      "increaseAllowance(address,uint256)": {
        "details": "Atomically increases the allowance granted to `spender` by the caller. This is an alternative to {approve} that can be used as a mitigation for problems described in {IERC20-approve}. Emits an {Approval} event indicating the updated allowance. Requirements: - `spender` cannot be the zero address."
      },
      "name()": {
        "details": "Returns the name of the token."
      },
      "owner()": {
        "details": "Returns the address of the current owner."
      },
      "renounceOwnership()": {
        "details": "Leaves the contract without owner. It will not be possible to call `onlyOwner` functions anymore. Can only be called by the current owner. NOTE: Renouncing ownership will leave the contract without an owner, thereby removing any functionality that is only available to the owner."
      },
      "symbol()": {
        "details": "Returns the symbol of the token, usually a shorter version of the name."
      },
      "totalSupply()": {
        "details": "See {IERC20-totalSupply}."
      },
      "transfer(address,uint256)": {
        "details": "See {IERC20-transfer}. Requirements: - `recipient` cannot be the zero address. - the caller must have a balance of at least `amount`."
      },
      "transferFrom(address,address,uint256)": {
        "details": "See {IERC20-transferFrom}. Emits an {Approval} event indicating the updated allowance. This is not required by the EIP. See the note at the beginning of {ERC20}. Requirements: - `sender` and `recipient` cannot be the zero address. - `sender` must have a balance of at least `amount`. - the caller must have allowance for ``sender``'s tokens of at least `amount`."
      },
      "transferOwnership(address)": {
        "details": "Transfers ownership of the contract to a new account (`newOwner`). Can only be called by the current owner."
      }
    },
    "version": 1
  },
  "userdoc": {
    "kind": "user",
    "methods": {},
    "version": 1
  }
}