{
  "contractName": "EXManager",
  "abi": [
    {
      "inputs": [
        {
          "internalType": "address",
          "name": "_boboToken",
          "type": "address"
        }
      ],
      "stateMutability": "nonpayable",
      "type": "constructor"
    },
    {
      "anonymous": false,
      "inputs": [
        {
          "indexed": true,
          "internalType": "address",
          "name": "previousOwner",
          "type": "address"
        },
        {
          "indexed": true,
          "internalType": "address",
          "name": "newOwner",
          "type": "address"
        }
      ],
      "name": "OwnershipTransferred",
      "type": "event"
    },
    {
      "inputs": [],
      "name": "BasePercent",
      "outputs": [
        {
          "internalType": "uint256",
          "name": "",
          "type": "uint256"
        }
      ],
      "stateMutability": "view",
      "type": "function"
    },
    {
      "inputs": [],
      "name": "FACTOR",
      "outputs": [
        {
          "internalType": "uint256",
          "name": "",
          "type": "uint256"
        }
      ],
      "stateMutability": "view",
      "type": "function"
    },
    {
      "inputs": [],
      "name": "USDC",
      "outputs": [
        {
          "internalType": "address",
          "name": "",
          "type": "address"
        }
      ],
      "stateMutability": "view",
      "type": "function"
    },
    {
      "inputs": [],
      "name": "USDT",
      "outputs": [
        {
          "internalType": "address",
          "name": "",
          "type": "address"
        }
      ],
      "stateMutability": "view",
      "type": "function"
    },
    {
      "inputs": [
        {
          "internalType": "address",
          "name": "",
          "type": "address"
        }
      ],
      "name": "_auth",
      "outputs": [
        {
          "internalType": "bool",
          "name": "",
          "type": "bool"
        }
      ],
      "stateMutability": "view",
      "type": "function"
    },
    {
      "inputs": [
        {
          "internalType": "address",
          "name": "",
          "type": "address"
        }
      ],
      "name": "accountFreePointMap",
      "outputs": [
        {
          "internalType": "uint256",
          "name": "",
          "type": "uint256"
        }
      ],
      "stateMutability": "view",
      "type": "function"
    },
    {
      "inputs": [],
      "name": "boboToken",
      "outputs": [
        {
          "internalType": "address",
          "name": "",
          "type": "address"
        }
      ],
      "stateMutability": "view",
      "type": "function"
    },
    {
      "inputs": [],
      "name": "feeEarnedContract",
      "outputs": [
        {
          "internalType": "address",
          "name": "",
          "type": "address"
        }
      ],
      "stateMutability": "view",
      "type": "function"
    },
    {
      "inputs": [],
      "name": "feePercent",
      "outputs": [
        {
          "internalType": "uint256",
          "name": "",
          "type": "uint256"
        }
      ],
      "stateMutability": "view",
      "type": "function"
    },
    {
      "inputs": [],
      "name": "maxBoboTokenAmount",
      "outputs": [
        {
          "internalType": "uint256",
          "name": "",
          "type": "uint256"
        }
      ],
      "stateMutability": "view",
      "type": "function"
    },
    {
      "inputs": [],
      "name": "maxFreePointPerAccount",
      "outputs": [
        {
          "internalType": "uint256",
          "name": "",
          "type": "uint256"
        }
      ],
      "stateMutability": "view",
      "type": "function"
    },
    {
      "inputs": [],
      "name": "maxNumberPerAMMSwap",
      "outputs": [
        {
          "internalType": "uint256",
          "name": "",
          "type": "uint256"
        }
      ],
      "stateMutability": "view",
      "type": "function"
    },
    {
      "inputs": [],
      "name": "minDepositValue",
      "outputs": [
        {
          "internalType": "uint256",
          "name": "",
          "type": "uint256"
        }
      ],
      "stateMutability": "view",
      "type": "function"
    },
    {
      "inputs": [],
      "name": "owner",
      "outputs": [
        {
          "internalType": "address",
          "name": "",
          "type": "address"
        }
      ],
      "stateMutability": "view",
      "type": "function"
    },
    {
      "inputs": [],
      "name": "renounceOwnership",
      "outputs": [],
      "stateMutability": "nonpayable",
      "type": "function"
    },
    {
      "inputs": [],
      "name": "stopFreeBlockNum",
      "outputs": [
        {
          "internalType": "uint256",
          "name": "",
          "type": "uint256"
        }
      ],
      "stateMutability": "view",
      "type": "function"
    },
    {
      "inputs": [],
      "name": "swapFactory",
      "outputs": [
        {
          "internalType": "address",
          "name": "",
          "type": "address"
        }
      ],
      "stateMutability": "view",
      "type": "function"
    },
    {
      "inputs": [
        {
          "internalType": "address",
          "name": "",
          "type": "address"
        }
      ],
      "name": "tokenAggregatorMap",
      "outputs": [
        {
          "internalType": "address",
          "name": "",
          "type": "address"
        }
      ],
      "stateMutability": "view",
      "type": "function"
    },
    {
      "inputs": [
        {
          "internalType": "address",
          "name": "",
          "type": "address"
        }
      ],
      "name": "tokenMinAmountMap",
      "outputs": [
        {
          "internalType": "uint256",
          "name": "",
          "type": "uint256"
        }
      ],
      "stateMutability": "view",
      "type": "function"
    },
    {
      "inputs": [
        {
          "internalType": "address",
          "name": "newOwner",
          "type": "address"
        }
      ],
      "name": "transferOwnership",
      "outputs": [],
      "stateMutability": "nonpayable",
      "type": "function"
    },
    {
      "inputs": [
        {
          "internalType": "address",
          "name": "",
          "type": "address"
        }
      ],
      "name": "usableTradePointsMap",
      "outputs": [
        {
          "internalType": "uint256",
          "name": "",
          "type": "uint256"
        }
      ],
      "stateMutability": "view",
      "type": "function"
    },
    {
      "inputs": [],
      "name": "vipBaseline",
      "outputs": [
        {
          "internalType": "uint256",
          "name": "",
          "type": "uint256"
        }
      ],
      "stateMutability": "view",
      "type": "function"
    },
    {
      "inputs": [
        {
          "internalType": "address",
          "name": "_addr",
          "type": "address"
        }
      ],
      "name": "addAuth",
      "outputs": [],
      "stateMutability": "nonpayable",
      "type": "function"
    },
    {
      "inputs": [
        {
          "internalType": "address",
          "name": "_addr",
          "type": "address"
        }
      ],
      "name": "removeAuth",
      "outputs": [],
      "stateMutability": "nonpayable",
      "type": "function"
    },
    {
      "inputs": [
        {
          "internalType": "uint256",
          "name": "_maxBoboTokenAmount",
          "type": "uint256"
        }
      ],
      "name": "setMaxBoboTokenAmount",
      "outputs": [],
      "stateMutability": "nonpayable",
      "type": "function"
    },
    {
      "inputs": [
        {
          "internalType": "address",
          "name": "_userAddr",
          "type": "address"
        }
      ],
      "name": "getScalePercent",
      "outputs": [
        {
          "internalType": "uint256",
          "name": "",
          "type": "uint256"
        }
      ],
      "stateMutability": "view",
      "type": "function"
    },
    {
      "inputs": [
        {
          "internalType": "address",
          "name": "_tokenAddr",
          "type": "address"
        },
        {
          "internalType": "uint256",
          "name": "_minAmount",
          "type": "uint256"
        }
      ],
      "name": "setTokenMinAmount",
      "outputs": [],
      "stateMutability": "nonpayable",
      "type": "function"
    },
    {
      "inputs": [
        {
          "internalType": "uint256",
          "name": "_maxNumber",
          "type": "uint256"
        }
      ],
      "name": "setMaxNumberPerAMMSwap",
      "outputs": [],
      "stateMutability": "nonpayable",
      "type": "function"
    },
    {
      "inputs": [
        {
          "internalType": "address",
          "name": "_feeEarnedContract",
          "type": "address"
        }
      ],
      "name": "setFeeEarnedContract",
      "outputs": [],
      "stateMutability": "nonpayable",
      "type": "function"
    },
    {
      "inputs": [
        {
          "internalType": "uint256",
          "name": "_usdtAmount",
          "type": "uint256"
        }
      ],
      "name": "buyTradePoints",
      "outputs": [],
      "stateMutability": "nonpayable",
      "type": "function"
    },
    {
      "inputs": [
        {
          "internalType": "address",
          "name": "_userAddr",
          "type": "address"
        },
        {
          "internalType": "uint256",
          "name": "_transferAmount",
          "type": "uint256"
        }
      ],
      "name": "transferTradePoints",
      "outputs": [],
      "stateMutability": "nonpayable",
      "type": "function"
    },
    {
      "inputs": [
        {
          "internalType": "address",
          "name": "_userAddr",
          "type": "address"
        },
        {
          "internalType": "address",
          "name": "_token",
          "type": "address"
        },
        {
          "internalType": "uint256",
          "name": "_amountIn",
          "type": "uint256"
        }
      ],
      "name": "deductTradeFee",
      "outputs": [
        {
          "internalType": "uint256",
          "name": "",
          "type": "uint256"
        }
      ],
      "stateMutability": "nonpayable",
      "type": "function"
    },
    {
      "inputs": [
        {
          "internalType": "address",
          "name": "_userAddr",
          "type": "address"
        },
        {
          "internalType": "address",
          "name": "_token",
          "type": "address"
        },
        {
          "internalType": "uint256",
          "name": "_amountIn",
          "type": "uint256"
        }
      ],
      "name": "evaluateDeductedAmountIn",
      "outputs": [
        {
          "internalType": "uint256",
          "name": "",
          "type": "uint256"
        },
        {
          "internalType": "uint256",
          "name": "",
          "type": "uint256"
        }
      ],
      "stateMutability": "view",
      "type": "function"
    },
    {
      "inputs": [
        {
          "internalType": "address",
          "name": "_token",
          "type": "address"
        }
      ],
      "name": "getTokenPrice",
      "outputs": [
        {
          "internalType": "uint256",
          "name": "",
          "type": "uint256"
        }
      ],
      "stateMutability": "view",
      "type": "function"
    },
    {
      "inputs": [
        {
          "internalType": "address",
          "name": "_token",
          "type": "address"
        }
      ],
      "name": "getTokenPriceOnAMM",
      "outputs": [
        {
          "internalType": "uint256",
          "name": "",
          "type": "uint256"
        }
      ],
      "stateMutability": "view",
      "type": "function"
    },
    {
      "inputs": [
        {
          "internalType": "address",
          "name": "_token",
          "type": "address"
        }
      ],
      "name": "getTokenPriceOnChainlink",
      "outputs": [
        {
          "internalType": "uint256",
          "name": "",
          "type": "uint256"
        }
      ],
      "stateMutability": "view",
      "type": "function"
    },
    {
      "inputs": [
        {
          "internalType": "uint256",
          "name": "_blockNum",
          "type": "uint256"
        }
      ],
      "name": "setStopFreeBlockNum",
      "outputs": [],
      "stateMutability": "nonpayable",
      "type": "function"
    },
    {
      "inputs": [
        {
          "internalType": "uint256",
          "name": "_feePercent",
          "type": "uint256"
        }
      ],
      "name": "setFeePercent",
      "outputs": [],
      "stateMutability": "nonpayable",
      "type": "function"
    },
    {
      "inputs": [
        {
          "internalType": "address",
          "name": "_token",
          "type": "address"
        },
        {
          "internalType": "address",
          "name": "_receiver",
          "type": "address"
        }
      ],
      "name": "withdraw",
      "outputs": [],
      "stateMutability": "nonpayable",
      "type": "function"
    },
    {
      "inputs": [
        {
          "internalType": "address",
          "name": "_token",
          "type": "address"
        },
        {
          "internalType": "address",
          "name": "_aggregator",
          "type": "address"
        }
      ],
      "name": "addAggregtor",
      "outputs": [],
      "stateMutability": "nonpayable",
      "type": "function"
    }
  ],
  "bytecode": "0x60806040526005600255600a600355620f4240600455600a60055569152d02c7e14af6800000600d5534801561003457600080fd5b50604051611f70380380611f708339818101604052602081101561005757600080fd5b505160006100636100ef565b600080546001600160a01b0319166001600160a01b0383169081178255604051929350917f8be0079c531659141344cd1fd0a4f28419497f9722a3daafe3b4186f6b6457e0908290a350336000908152600160205260409020612710905543620493e001600b55600c80546001600160a01b0319166001600160a01b03929092169190911790556100f3565b3390565b611e6e806101026000396000f3fe608060405234801561001057600080fd5b50600436106102485760003560e01c8063715018a61161013b5780639eedc492116100b8578063d02641a01161007c578063d02641a014610621578063f0f46e9e14610647578063f2fde38b1461066d578063f940e38514610693578063fc0fc115146106c157610248565b80639eedc492146105db578063ae05b158146105e3578063c390900f14610609578063c4c0dbb714610611578063c54e44eb1461061957610248565b80637f3fd918116100ff5780637f3fd918146105775780637fd6f15c1461059d57806388e8135f146105a557806389a30271146105cb5780638da5cb5b146105d357610248565b8063715018a61461051c578063774f89ee146105245780637944f9441461054a5780637c62028e146105525780637ce3489b1461055a57610248565b80635422224e116101c95780635c191ce91161018d5780635c191ce914610475578063614456801461047d57806366e2bcb3146104a35780636831d48a146104c95780636de4f89a146104ff57610248565b80635422224e146103e057806354a3944b1461040657806355fc232c1461040e578063586ee0e61461043257806359368a9a1461045857610248565b80631ee9e9e6116102105780631ee9e9e61461031857806326a3c1a7146103675780632e8e24f51461038d57806335815b95146103bb578063473a855a146103c357610248565b8063070c82a81461024d5780630b2cf6a91461026757806319c2146b146102865780631a65bf7b146102c05780631d2e445f146102ec575b600080fd5b6102556106c9565b60408051918252519081900360200190f35b6102846004803603602081101561027d57600080fd5b50356106cf565b005b6102ac6004803603602081101561029c57600080fd5b50356001600160a01b03166107c9565b604080519115158252519081900360200190f35b610284600480360360408110156102d657600080fd5b506001600160a01b0381351690602001356107de565b6102846004803603604081101561030257600080fd5b506001600160a01b038135169060200135610852565b61034e6004803603606081101561032e57600080fd5b506001600160a01b03813581169160208101359091169060400135610906565b6040805192835260208301919091528051918290030190f35b6102556004803603602081101561037d57600080fd5b50356001600160a01b0316610ac3565b610284600480360360408110156103a357600080fd5b506001600160a01b0381358116916020013516610e03565b610255610e89565b610284600480360360208110156103d957600080fd5b5035610e91565b610284600480360360208110156103f657600080fd5b50356001600160a01b0316610eee565b610255610f6a565b610416610f70565b604080516001600160a01b039092168252519081900360200190f35b6104166004803603602081101561044857600080fd5b50356001600160a01b0316610f7f565b6102846004803603602081101561046e57600080fd5b5035610f9a565b610255610ff7565b6102556004803603602081101561049357600080fd5b50356001600160a01b0316610ffd565b610255600480360360208110156104b957600080fd5b50356001600160a01b031661100f565b610255600480360360608110156104df57600080fd5b506001600160a01b038135811691602081013590911690604001356110e5565b6102846004803603602081101561051557600080fd5b5035611374565b6102846113d1565b6102556004803603602081101561053a57600080fd5b50356001600160a01b0316611473565b610416611485565b61025561149d565b6102846004803603602081101561057057600080fd5b50356114a3565b6102846004803603602081101561058d57600080fd5b50356001600160a01b0316611500565b610255611579565b610284600480360360208110156105bb57600080fd5b50356001600160a01b031661157f565b610416611638565b610416611650565b61025561165f565b610255600480360360208110156105f957600080fd5b50356001600160a01b0316611665565b610255611677565b61025561167c565b610416611682565b6102556004803603602081101561063757600080fd5b50356001600160a01b031661169a565b6102556004803603602081101561065d57600080fd5b50356001600160a01b0316611746565b6102846004803603602081101561068357600080fd5b50356001600160a01b0316611841565b610284600480360360408110156106a957600080fd5b506001600160a01b0381358116916020013516611939565b610416611a93565b60045481565b6004548110156107105760405162461bcd60e51b815260040180806020018281038252603b815260200180611ce3603b913960400191505060405180910390fd5b604080516323b872dd60e01b815233600482015230602482015260448101839052905173c2132d05d31c914a87c6611c10748aeb04b58e8f916323b872dd9160648083019260209291908290030181600087803b15801561077057600080fd5b505af1158015610784573d6000803e3d6000fd5b505050506040513d602081101561079a57600080fd5b5050336000908152600160205260409020546107b69082611aa2565b3360009081526001602052604090205550565b60076020526000908152604090205460ff1681565b6107e6611b05565b6000546001600160a01b03908116911614610836576040805162461bcd60e51b81526020600482018190526024820152600080516020611daa833981519152604482015290519081900360640190fd5b6001600160a01b03909116600090815260096020526040902055565b336000908152600160205260409020548111156108a05760405162461bcd60e51b8152600401808060200182810382526046815260200180611df36046913960600191505060405180910390fd5b336000908152600160205260409020546108ba9082611b09565b33600090815260016020526040808220929092556001600160a01b038416815220546108e69082611aa2565b6001600160a01b0390921660009081526001602052604090209190915550565b600080600073c2132d05d31c914a87c6611c10748aeb04b58e8f6001600160a01b031663313ce5676040518163ffffffff1660e01b815260040160206040518083038186803b15801561095857600080fd5b505afa15801561096c573d6000803e3d6000fd5b505050506040513d602081101561098257600080fd5b50516040805163313ce56760e01b8152905160ff90921692506000916001600160a01b0388169163313ce567916004808301926020929190829003018186803b1580156109ce57600080fd5b505afa1580156109e2573d6000803e3d6000fd5b505050506040513d60208110156109f857600080fd5b505160ff1690506000610a0a8761169a565b90506000610a178961100f565b90506000610a4c612710610a46612710610a4686610a406002548f611b4b90919063ffffffff16565b90611b4b565b90611ba4565b90506000610a7985600a0a610a466305f5e100610a468a600a0a610a40888b611b4b90919063ffffffff16565b6001600160a01b038c166000908152600160205260409020549091508111610aac57600097509550610abb945050505050565b9096509450610abb9350505050565b935093915050565b60006001600160a01b03821673c2132d05d31c914a87c6611c10748aeb04b58e8f1480610b0c57506001600160a01b038216732791bca1f2de4661ed88a30c99a7a9449aa84174145b15610b1c57506305f5e100610dfe565b6000806001600160a01b03841673c2132d05d31c914a87c6611c10748aeb04b58e8f10610b5e578373c2132d05d31c914a87c6611c10748aeb04b58e8f610b75565b73c2132d05d31c914a87c6611c10748aeb04b58e8f845b915091506000735757371414417b8c6caad45baef941abc7d3ab326001600160a01b031663e6a4390584846040518363ffffffff1660e01b815260040180836001600160a01b03168152602001826001600160a01b031681526020019250505060206040518083038186803b158015610bed57600080fd5b505afa158015610c01573d6000803e3d6000fd5b505050506040513d6020811015610c1757600080fd5b505160408051630240bc6b60e21b8152905191925060009182916001600160a01b03851691630902f1ac91600480820192606092909190829003018186803b158015610c6257600080fd5b505afa158015610c76573d6000803e3d6000fd5b505050506040513d6060811015610c8c57600080fd5b5080516020918201516040805163313ce56760e01b815290516dffffffffffffffffffffffffffff938416965092909116935060009273c2132d05d31c914a87c6611c10748aeb04b58e8f9263313ce567926004808201939291829003018186803b158015610cfa57600080fd5b505afa158015610d0e573d6000803e3d6000fd5b505050506040513d6020811015610d2457600080fd5b50516040805163313ce56760e01b815290516001600160a01b038b169163313ce567916004808301926020929190829003018186803b158015610d6657600080fd5b505afa158015610d7a573d6000803e3d6000fd5b505050506040513d6020811015610d9057600080fd5b50510360ff16905073c2132d05d31c914a87c6611c10748aeb04b58e8f6001600160a01b03871614610ddb57610dd683610a46600a84900a610a40866305f5e100611b4b565b610df5565b610df582610a46600a84900a610a40876305f5e100611b4b565b96505050505050505b919050565b610e0b611b05565b6000546001600160a01b03908116911614610e5b576040805162461bcd60e51b81526020600482018190526024820152600080516020611daa833981519152604482015290519081900360640190fd5b6001600160a01b039182166000908152600a6020526040902080546001600160a01b03191691909216179055565b6305f5e10081565b610e99611b05565b6000546001600160a01b03908116911614610ee9576040805162461bcd60e51b81526020600482018190526024820152600080516020611daa833981519152604482015290519081900360640190fd5b600555565b610ef6611b05565b6000546001600160a01b03908116911614610f46576040805162461bcd60e51b81526020600482018190526024820152600080516020611daa833981519152604482015290519081900360640190fd5b6001600160a01b03166000908152600760205260409020805460ff19166001179055565b600b5481565b600c546001600160a01b031681565b600a602052600090815260409020546001600160a01b031681565b610fa2611b05565b6000546001600160a01b03908116911614610ff2576040805162461bcd60e51b81526020600482018190526024820152600080516020611daa833981519152604482015290519081900360640190fd5b600b55565b60055481565b60016020526000908152604090205481565b600c54604080516370a0823160e01b81526001600160a01b0384811660048301529151600093849316916370a08231916024808301926020929190829003018186803b15801561105e57600080fd5b505afa158015611072573d6000803e3d6000fd5b505050506040513d602081101561108857600080fd5b5051600d5490915061109b90600a611ba4565b8110156110ad57612710915050610dfe565b600d546110bb90600a611ba4565b8111156110c75750600d545b600d546110da90610a4683611388611b4b565b612710039392505050565b3360009081526007602052604081205460ff16611139576040805162461bcd60e51b815260206004820152600d60248201526c3737903832b936b4b9b9b4b7b760991b604482015290519081900360640190fd5b6003546001600160a01b0385166000908152600860205260409020541080156111635750600b5443105b1561118d57506001600160a01b03831660009081526008602052604081208054600101905561136d565b600073c2132d05d31c914a87c6611c10748aeb04b58e8f6001600160a01b031663313ce5676040518163ffffffff1660e01b815260040160206040518083038186803b1580156111dc57600080fd5b505afa1580156111f0573d6000803e3d6000fd5b505050506040513d602081101561120657600080fd5b50516040805163313ce56760e01b8152905160ff90921692506000916001600160a01b0387169163313ce567916004808301926020929190829003018186803b15801561125257600080fd5b505afa158015611266573d6000803e3d6000fd5b505050506040513d602081101561127c57600080fd5b505160ff169050600061128e8661169a565b9050600061129b8861100f565b905060006112c4612710610a46612710610a4686610a406002548e611b4b90919063ffffffff16565b905060006112f185600a0a610a466305f5e100610a468a600a0a610a40888b611b4b90919063ffffffff16565b6001600160a01b038b166000908152600160205260409020549091508111611360576001600160a01b038a166000908152600160205260409020546113369082611b09565b6001600160a01b038b16600090815260016020526040812091909155965061136d95505050505050565b50945061136d9350505050565b9392505050565b61137c611b05565b6000546001600160a01b039081169116146113cc576040805162461bcd60e51b81526020600482018190526024820152600080516020611daa833981519152604482015290519081900360640190fd5b600d55565b6113d9611b05565b6000546001600160a01b03908116911614611429576040805162461bcd60e51b81526020600482018190526024820152600080516020611daa833981519152604482015290519081900360640190fd5b600080546040516001600160a01b03909116907f8be0079c531659141344cd1fd0a4f28419497f9722a3daafe3b4186f6b6457e0908390a3600080546001600160a01b0319169055565b60096020526000908152604090205481565b735757371414417b8c6caad45baef941abc7d3ab3281565b60035481565b6114ab611b05565b6000546001600160a01b039081169116146114fb576040805162461bcd60e51b81526020600482018190526024820152600080516020611daa833981519152604482015290519081900360640190fd5b600255565b611508611b05565b6000546001600160a01b03908116911614611558576040805162461bcd60e51b81526020600482018190526024820152600080516020611daa833981519152604482015290519081900360640190fd5b6001600160a01b03166000908152600760205260409020805460ff19169055565b60025481565b611587611b05565b6000546001600160a01b039081169116146115d7576040805162461bcd60e51b81526020600482018190526024820152600080516020611daa833981519152604482015290519081900360640190fd5b803b806116155760405162461bcd60e51b8152600401808060200182810382526029815260200180611dca6029913960400191505060405180910390fd5b50600680546001600160a01b0319166001600160a01b0392909216919091179055565b732791bca1f2de4661ed88a30c99a7a9449aa8417481565b6000546001600160a01b031690565b61271081565b60086020526000908152604090205481565b600a81565b600d5481565b73c2132d05d31c914a87c6611c10748aeb04b58e8f81565b6000806116a683610ac3565b905060006116b384611746565b9050806116c257509050610dfe565b6000818311156116e7576116e082610a466103e8610a408784611b09565b90506116fe565b6116fb83610a466103e8610a408684611b09565b90505b606481111561173e5760405162461bcd60e51b8152600401808060200182810382526045815260200180611d446045913960600191505060405180910390fd5b509392505050565b60006001600160a01b03821673c2132d05d31c914a87c6611c10748aeb04b58e8f148061178f57506001600160a01b038216732791bca1f2de4661ed88a30c99a7a9449aa84174145b1561179f57506305f5e100610dfe565b6001600160a01b038083166000908152600a602052604090205416806117c9576000915050610dfe565b60008190506000816001600160a01b031663feaf968c6040518163ffffffff1660e01b815260040160a06040518083038186803b15801561180957600080fd5b505afa15801561181d573d6000803e3d6000fd5b505050506040513d60a081101561183357600080fd5b506020015195945050505050565b611849611b05565b6000546001600160a01b03908116911614611899576040805162461bcd60e51b81526020600482018190526024820152600080516020611daa833981519152604482015290519081900360640190fd5b6001600160a01b0381166118de5760405162461bcd60e51b8152600401808060200182810382526026815260200180611d1e6026913960400191505060405180910390fd5b600080546040516001600160a01b03808516939216917f8be0079c531659141344cd1fd0a4f28419497f9722a3daafe3b4186f6b6457e091a3600080546001600160a01b0319166001600160a01b0392909216919091179055565b611941611b05565b6000546001600160a01b03908116911614611991576040805162461bcd60e51b81526020600482018190526024820152600080516020611daa833981519152604482015290519081900360640190fd5b6000826001600160a01b03166370a08231306040518263ffffffff1660e01b815260040180826001600160a01b0316815260200191505060206040518083038186803b1580156119e057600080fd5b505afa1580156119f4573d6000803e3d6000fd5b505050506040513d6020811015611a0a57600080fd5b50516040805163a9059cbb60e01b81526001600160a01b0385811660048301526024820184905291519293509085169163a9059cbb916044808201926020929091908290030181600087803b158015611a6257600080fd5b505af1158015611a76573d6000803e3d6000fd5b505050506040513d6020811015611a8c57600080fd5b5050505050565b6006546001600160a01b031681565b600082820183811015611afc576040805162461bcd60e51b815260206004820152601b60248201527f536166654d6174683a206164646974696f6e206f766572666c6f770000000000604482015290519081900360640190fd5b90505b92915050565b3390565b6000611afc83836040518060400160405280601e81526020017f536166654d6174683a207375627472616374696f6e206f766572666c6f770000815250611be6565b600082611b5a57506000611aff565b82820282848281611b6757fe5b0414611afc5760405162461bcd60e51b8152600401808060200182810382526021815260200180611d896021913960400191505060405180910390fd5b6000611afc83836040518060400160405280601a81526020017f536166654d6174683a206469766973696f6e206279207a65726f000000000000815250611c7d565b60008184841115611c755760405162461bcd60e51b81526004018080602001828103825283818151815260200191508051906020019080838360005b83811015611c3a578181015183820152602001611c22565b50505050905090810190601f168015611c675780820380516001836020036101000a031916815260200191505b509250505060405180910390fd5b505050900390565b60008183611ccc5760405162461bcd60e51b8152602060048201818152835160248401528351909283926044909101919085019080838360008315611c3a578181015183820152602001611c22565b506000838581611cd857fe5b049594505050505056fe45584d616e616765723a205553445420616d6f756e74206d75737420626520626967676572207468616e206d696e4465706f73697456616c75652e4f776e61626c653a206e6577206f776e657220697320746865207a65726f206164647265737345584d616e616765723a2074686520707269636520676170206265747765656e20636861696e6c696e6b20616e6420414d4d206973206c61726765207468616e203130252e536166654d6174683a206d756c7469706c69636174696f6e206f766572666c6f774f776e61626c653a2063616c6c6572206973206e6f7420746865206f776e657245584d616e616765723a204f6e6c7920737570706f727420636f6e747261637420616464726573732e45584d616e616765723a20796f7572206c65667420747261646520706f696e7473206d75737420626520626967676572207468616e205f7472616e73666572416d6f756e742ea26469706673582212206c2ca5c50cd6cc37ad196dfffacf78e8f32c41758154ffa9d762000bd793b98164736f6c634300060c0033",
  "immutableReferences": {},
  "source": "// SPDX-License-Identifier: MIT\npragma solidity ^0.6.0;\n\nimport \"../common/BasicStruct.sol\";\nimport \"../SwapInterfaces.sol\";\n\ncontract EXManager is Ownable {\n    using SafeMath for uint256;\n\n    address public constant USDT = 0xc2132D05D31c914a87C6611C10748AEb04B58e8F;\n    address public constant USDC = 0x2791Bca1f2de4661ED88A30C99A7a9449Aa84174;\n    address public constant swapFactory = 0x5757371414417b8C6CAad45bAeF941aBc7d3Ab32;      // quickswap\n\n    uint256 constant public vipBaseline = 10;\n    mapping(address => uint256) public usableTradePointsMap;  // \n    \n    uint256 public constant FACTOR = 1e8;\n    uint256 public feePercent = 5;\n    uint256 constant public BasePercent = 10000;\n    uint256 public maxFreePointPerAccount = 10;\n    uint256 public minDepositValue = 1e6;       // U\n    uint256 public maxNumberPerAMMSwap = 10;    // AMM\n    address public feeEarnedContract;           // \n    mapping(address => bool) public _auth;\n    mapping(address => uint256) public accountFreePointMap;   // \n    mapping(address => uint256) public tokenMinAmountMap;     // \n    mapping(address => address) public tokenAggregatorMap;    // tokenchainlink\n    uint256 public stopFreeBlockNum;\n\n    address public boboToken;\n    uint256 public maxBoboTokenAmount = 1e23;  // Bobo10Bobo9\n\n    modifier onlyAuth {\n        require(_auth[msg.sender], \"no permission\");\n        _;\n    }\n    \n    constructor (address _boboToken) public {\n        usableTradePointsMap[msg.sender] = 10000;\n        stopFreeBlockNum = block.number + 300000;\n        boboToken = _boboToken;\n    }\n    \n    function addAuth(address _addr) public onlyOwner {\n        _auth[_addr] = true;\n    }\n\n    function removeAuth(address _addr) public onlyOwner {\n        _auth[_addr] = false;\n    }\n\n    function setMaxBoboTokenAmount(uint256 _maxBoboTokenAmount) public onlyOwner {\n        maxBoboTokenAmount = _maxBoboTokenAmount;\n    }\n\n    // Bobo50%5%\n    function getScalePercent(address _userAddr) view public returns(uint256) {\n        uint256 boboAmount = ERC20(boboToken).balanceOf(_userAddr);\n        if (boboAmount < maxBoboTokenAmount.div(10)) return 10000;\n\n        if (boboAmount > maxBoboTokenAmount.div(10)) boboAmount = maxBoboTokenAmount;\n\n        return 10000 - boboAmount.mul(5000).div(maxBoboTokenAmount);\n    }\n    \n    function setTokenMinAmount(address _tokenAddr, uint256 _minAmount) public onlyOwner {\n        tokenMinAmountMap[_tokenAddr] = _minAmount;\n    }\n    \n    function setMaxNumberPerAMMSwap(uint256 _maxNumber) public onlyOwner {\n        maxNumberPerAMMSwap = _maxNumber;\n    }\n    \n    function setFeeEarnedContract(address _feeEarnedContract) public onlyOwner {\n        uint256 size;\n        assembly {\n            size := extcodesize(_feeEarnedContract)\n        }\n        require(size > 0, \"EXManager: Only support contract address.\");\n        feeEarnedContract = _feeEarnedContract;\n    }\n    \n    // U\n    function buyTradePoints(uint256 _usdtAmount) public {\n        require(_usdtAmount >= minDepositValue, \"EXManager: USDT amount must be bigger than minDepositValue.\");\n        ERC20(USDT).transferFrom(msg.sender, address(this), _usdtAmount);\n        usableTradePointsMap[msg.sender] = usableTradePointsMap[msg.sender].add(_usdtAmount);\n    }\n\n    // \n    function transferTradePoints(address _userAddr, uint256 _transferAmount) public {\n        require(usableTradePointsMap[msg.sender] >= _transferAmount, \"EXManager: your left trade points must be bigger than _transferAmount.\");\n\n        usableTradePointsMap[msg.sender] = usableTradePointsMap[msg.sender].sub(_transferAmount);\n        usableTradePointsMap[_userAddr] = usableTradePointsMap[_userAddr].add(_transferAmount);\n    }\n\n    // \n    // (stopFreeBlockNum)(maxFreePointPerAccount)\n    function deductTradeFee(address _userAddr, address _token, uint256 _amountIn) public onlyAuth returns(uint256) {\n        if (accountFreePointMap[_userAddr] < maxFreePointPerAccount && block.number < stopFreeBlockNum) {\n            accountFreePointMap[_userAddr]++;\n            return 0;\n        }\n\n        uint256 usdtDecimals = ERC20(USDT).decimals();\n        uint256 tokenDecimals = ERC20(_token).decimals();\n        uint256 tokenPrice = getTokenPrice(_token);  // *10^8\n        \n        uint256 scalePercent = getScalePercent(_userAddr);  // BOBO\n        uint256 tokenAmount4Fee = _amountIn.mul(feePercent).mul(scalePercent).div(BasePercent).div(BasePercent);\n                                 \n        uint256 usdtAmount4Fee = tokenPrice.mul(tokenAmount4Fee).mul(10**usdtDecimals).div(FACTOR).div(10**tokenDecimals);\n        if (usableTradePointsMap[_userAddr] >= usdtAmount4Fee) {\n            usableTradePointsMap[_userAddr] = usableTradePointsMap[_userAddr].sub(usdtAmount4Fee);\n            return 0;\n        } else {\n            return tokenAmount4Fee;\n        }\n    }\n\n    function evaluateDeductedAmountIn(address _userAddr, address _token, uint256 _amountIn) view public returns(uint256, uint256) {\n        uint256 usdtDecimals = ERC20(USDT).decimals();\n        uint256 tokenDecimals = ERC20(_token).decimals();\n        uint256 tokenPrice = getTokenPrice(_token);  // *10^8\n        \n        uint256 scalePercent = getScalePercent(_userAddr);  // BOBO\n        uint256 tokenAmount4Fee = _amountIn.mul(feePercent).mul(scalePercent).div(BasePercent).div(BasePercent);\n\n        uint256 usdtAmount4Fee = tokenPrice.mul(tokenAmount4Fee).mul(10**usdtDecimals).div(FACTOR).div(10**tokenDecimals);\n        if (usableTradePointsMap[_userAddr] >= usdtAmount4Fee) {\n            return (0, usdtAmount4Fee);\n        } else {\n            return (tokenAmount4Fee, usdtAmount4Fee);\n        }\n    }\n\n    function getTokenPrice(address _token) public view returns(uint256) {\n        uint256 priceOnAMM = getTokenPriceOnAMM(_token);\n        uint256 priceOnChainlink = getTokenPriceOnChainlink(_token);\n        if(priceOnChainlink == 0) return priceOnAMM;\n\n        uint256 gap = 0;\n        if (priceOnAMM > priceOnChainlink) {\n            gap = priceOnAMM.sub(priceOnChainlink).mul(1000).div(priceOnChainlink);\n        } else {\n            gap = priceOnChainlink.sub(priceOnAMM).mul(1000).div(priceOnAMM);\n        }\n        require(gap <= 100, \"EXManager: the price gap between chainlink and AMM is large than 10%.\");\n        return priceOnChainlink;\n    }\n\n    function getTokenPriceOnAMM(address _token) public view returns(uint256) {\n        if (_token == USDT || _token == USDC) return 1 * FACTOR;\n\n        (address token0, address token1) = USDT < _token ? (USDT, _token) : (_token, USDT);\n        address pairAddr = ICommonFactory(swapFactory).getPair(token0, token1);\n        (uint256 reserveA, uint256 reserveB,) = ICommonPair(pairAddr).getReserves();\n        uint256 decimalsGap = ERC20(_token).decimals() - ERC20(USDT).decimals();\n        // chainlink10^8FACTOR, FACTORU1.1U,1.12U\n        return token0 == USDT ? reserveA.mul(FACTOR).mul(10**decimalsGap).div(reserveB) : reserveB.mul(FACTOR).mul(10**decimalsGap).div(reserveA);\n    }\n    \n    // chainlinkU10^8\n    function getTokenPriceOnChainlink(address _token) public view returns(uint256) {\n        if (_token == USDT || _token == USDC) return 1 * FACTOR;\n\n        address aggregatorAddr = tokenAggregatorMap[_token];\n        if (aggregatorAddr == address(0)) return 0;\n\n        AggregatorV3Interface priceFeed = AggregatorV3Interface(aggregatorAddr);\n        (, int price,,,) = priceFeed.latestRoundData();\n        return uint256(price);\n    }\n    \n    function setStopFreeBlockNum(uint256 _blockNum) public onlyOwner {\n        stopFreeBlockNum = _blockNum;\n    }\n\n    function setFeePercent(uint256 _feePercent) public onlyOwner {\n        feePercent = _feePercent;\n    }\n    \n    function withdraw(address _token, address _receiver) public onlyOwner {\n        uint256 amount = ERC20(_token).balanceOf(address(this));\n        ERC20(_token).transfer(_receiver, amount);\n    }\n    \n    function addAggregtor(address _token, address _aggregator) public onlyOwner {\n        tokenAggregatorMap[_token] = _aggregator;\n    }\n}",
  "sourcePath": "/Users/mryu/blockchain/bobo-metaverse/boboswap-contract/contracts/manager/EXManager.sol",
  "compiler": {
    "name": "solc",
    "version": "0.6.12+commit.27d51765.Emscripten.clang"
  },
  "schemaVersion": "3.4.3",
  "updatedAt": "2021-08-25T15:28:33.181Z",
  "devdoc": {
    "kind": "dev",
    "methods": {
      "owner()": {
        "details": "Returns the address of the current owner."
      },
      "renounceOwnership()": {
        "details": "Leaves the contract without owner. It will not be possible to call `onlyOwner` functions anymore. Can only be called by the current owner. NOTE: Renouncing ownership will leave the contract without an owner, thereby removing any functionality that is only available to the owner."
      },
      "transferOwnership(address)": {
        "details": "Transfers ownership of the contract to a new account (`newOwner`). Can only be called by the current owner."
      }
    },
    "version": 1
  },
  "userdoc": {
    "kind": "user",
    "methods": {},
    "version": 1
  }
}