{
  "contractName": "EXManager",
  "abi": [
    {
      "inputs": [
        {
          "internalType": "address",
          "name": "_boboToken",
          "type": "address"
        }
      ],
      "stateMutability": "nonpayable",
      "type": "constructor"
    },
    {
      "anonymous": false,
      "inputs": [
        {
          "indexed": true,
          "internalType": "address",
          "name": "previousOwner",
          "type": "address"
        },
        {
          "indexed": true,
          "internalType": "address",
          "name": "newOwner",
          "type": "address"
        }
      ],
      "name": "OwnershipTransferred",
      "type": "event"
    },
    {
      "inputs": [],
      "name": "BasePercent",
      "outputs": [
        {
          "internalType": "uint256",
          "name": "",
          "type": "uint256"
        }
      ],
      "stateMutability": "view",
      "type": "function"
    },
    {
      "inputs": [],
      "name": "FACTOR",
      "outputs": [
        {
          "internalType": "uint256",
          "name": "",
          "type": "uint256"
        }
      ],
      "stateMutability": "view",
      "type": "function"
    },
    {
      "inputs": [],
      "name": "USDC",
      "outputs": [
        {
          "internalType": "address",
          "name": "",
          "type": "address"
        }
      ],
      "stateMutability": "view",
      "type": "function"
    },
    {
      "inputs": [],
      "name": "USDT",
      "outputs": [
        {
          "internalType": "address",
          "name": "",
          "type": "address"
        }
      ],
      "stateMutability": "view",
      "type": "function"
    },
    {
      "inputs": [
        {
          "internalType": "address",
          "name": "",
          "type": "address"
        }
      ],
      "name": "accountFreePointMap",
      "outputs": [
        {
          "internalType": "uint256",
          "name": "",
          "type": "uint256"
        }
      ],
      "stateMutability": "view",
      "type": "function"
    },
    {
      "inputs": [
        {
          "internalType": "address",
          "name": "_authorizedAddr",
          "type": "address"
        }
      ],
      "name": "addAuthorized",
      "outputs": [
        {
          "internalType": "bool",
          "name": "",
          "type": "bool"
        }
      ],
      "stateMutability": "nonpayable",
      "type": "function"
    },
    {
      "inputs": [],
      "name": "boboToken",
      "outputs": [
        {
          "internalType": "address",
          "name": "",
          "type": "address"
        }
      ],
      "stateMutability": "view",
      "type": "function"
    },
    {
      "inputs": [
        {
          "internalType": "address",
          "name": "_authorizedAddr",
          "type": "address"
        }
      ],
      "name": "delAuthorized",
      "outputs": [
        {
          "internalType": "bool",
          "name": "",
          "type": "bool"
        }
      ],
      "stateMutability": "nonpayable",
      "type": "function"
    },
    {
      "inputs": [],
      "name": "feePercent",
      "outputs": [
        {
          "internalType": "uint256",
          "name": "",
          "type": "uint256"
        }
      ],
      "stateMutability": "view",
      "type": "function"
    },
    {
      "inputs": [
        {
          "internalType": "uint256",
          "name": "_index",
          "type": "uint256"
        }
      ],
      "name": "getAuthorized",
      "outputs": [
        {
          "internalType": "address",
          "name": "",
          "type": "address"
        }
      ],
      "stateMutability": "view",
      "type": "function"
    },
    {
      "inputs": [],
      "name": "getAuthorizedLength",
      "outputs": [
        {
          "internalType": "uint256",
          "name": "",
          "type": "uint256"
        }
      ],
      "stateMutability": "view",
      "type": "function"
    },
    {
      "inputs": [
        {
          "internalType": "address",
          "name": "_authorizedAddr",
          "type": "address"
        }
      ],
      "name": "isAuthorized",
      "outputs": [
        {
          "internalType": "bool",
          "name": "",
          "type": "bool"
        }
      ],
      "stateMutability": "view",
      "type": "function"
    },
    {
      "inputs": [],
      "name": "maxBoboTokenAmount",
      "outputs": [
        {
          "internalType": "uint256",
          "name": "",
          "type": "uint256"
        }
      ],
      "stateMutability": "view",
      "type": "function"
    },
    {
      "inputs": [],
      "name": "maxFreePointPerAccount",
      "outputs": [
        {
          "internalType": "uint256",
          "name": "",
          "type": "uint256"
        }
      ],
      "stateMutability": "view",
      "type": "function"
    },
    {
      "inputs": [],
      "name": "maxOrderNumberPerMatch",
      "outputs": [
        {
          "internalType": "uint256",
          "name": "",
          "type": "uint256"
        }
      ],
      "stateMutability": "view",
      "type": "function"
    },
    {
      "inputs": [],
      "name": "minDepositValue",
      "outputs": [
        {
          "internalType": "uint256",
          "name": "",
          "type": "uint256"
        }
      ],
      "stateMutability": "view",
      "type": "function"
    },
    {
      "inputs": [],
      "name": "owner",
      "outputs": [
        {
          "internalType": "address",
          "name": "",
          "type": "address"
        }
      ],
      "stateMutability": "view",
      "type": "function"
    },
    {
      "inputs": [],
      "name": "renounceOwnership",
      "outputs": [],
      "stateMutability": "nonpayable",
      "type": "function"
    },
    {
      "inputs": [],
      "name": "stopFreeBlockNum",
      "outputs": [
        {
          "internalType": "uint256",
          "name": "",
          "type": "uint256"
        }
      ],
      "stateMutability": "view",
      "type": "function"
    },
    {
      "inputs": [],
      "name": "swapFactory",
      "outputs": [
        {
          "internalType": "address",
          "name": "",
          "type": "address"
        }
      ],
      "stateMutability": "view",
      "type": "function"
    },
    {
      "inputs": [
        {
          "internalType": "address",
          "name": "",
          "type": "address"
        }
      ],
      "name": "tokenAggregatorMap",
      "outputs": [
        {
          "internalType": "address",
          "name": "",
          "type": "address"
        }
      ],
      "stateMutability": "view",
      "type": "function"
    },
    {
      "inputs": [
        {
          "internalType": "address",
          "name": "",
          "type": "address"
        }
      ],
      "name": "tokenMinAmountMap",
      "outputs": [
        {
          "internalType": "uint256",
          "name": "",
          "type": "uint256"
        }
      ],
      "stateMutability": "view",
      "type": "function"
    },
    {
      "inputs": [
        {
          "internalType": "address",
          "name": "newOwner",
          "type": "address"
        }
      ],
      "name": "transferOwnership",
      "outputs": [],
      "stateMutability": "nonpayable",
      "type": "function"
    },
    {
      "inputs": [
        {
          "internalType": "address",
          "name": "",
          "type": "address"
        }
      ],
      "name": "usableTradePointsMap",
      "outputs": [
        {
          "internalType": "uint256",
          "name": "",
          "type": "uint256"
        }
      ],
      "stateMutability": "view",
      "type": "function"
    },
    {
      "inputs": [
        {
          "internalType": "uint256",
          "name": "_maxBoboTokenAmount",
          "type": "uint256"
        }
      ],
      "name": "setMaxBoboTokenAmount",
      "outputs": [],
      "stateMutability": "nonpayable",
      "type": "function"
    },
    {
      "inputs": [
        {
          "internalType": "address",
          "name": "_userAddr",
          "type": "address"
        }
      ],
      "name": "getScalePercent",
      "outputs": [
        {
          "internalType": "uint256",
          "name": "",
          "type": "uint256"
        }
      ],
      "stateMutability": "view",
      "type": "function"
    },
    {
      "inputs": [
        {
          "internalType": "address",
          "name": "_tokenAddr",
          "type": "address"
        },
        {
          "internalType": "uint256",
          "name": "_minAmount",
          "type": "uint256"
        }
      ],
      "name": "setTokenMinAmount",
      "outputs": [],
      "stateMutability": "nonpayable",
      "type": "function"
    },
    {
      "inputs": [
        {
          "internalType": "uint256",
          "name": "_maxNumber",
          "type": "uint256"
        }
      ],
      "name": "setMaxOrderNumberPerMatch",
      "outputs": [],
      "stateMutability": "nonpayable",
      "type": "function"
    },
    {
      "inputs": [
        {
          "internalType": "uint256",
          "name": "_usdtAmount",
          "type": "uint256"
        }
      ],
      "name": "buyTradePoints",
      "outputs": [],
      "stateMutability": "nonpayable",
      "type": "function"
    },
    {
      "inputs": [
        {
          "internalType": "address",
          "name": "_userAddr",
          "type": "address"
        },
        {
          "internalType": "uint256",
          "name": "_transferAmount",
          "type": "uint256"
        }
      ],
      "name": "transferTradePoints",
      "outputs": [],
      "stateMutability": "nonpayable",
      "type": "function"
    },
    {
      "inputs": [
        {
          "internalType": "address",
          "name": "_userAddr",
          "type": "address"
        },
        {
          "internalType": "address",
          "name": "_token",
          "type": "address"
        },
        {
          "internalType": "uint256",
          "name": "_amountIn",
          "type": "uint256"
        }
      ],
      "name": "deductTradeFee",
      "outputs": [
        {
          "internalType": "uint256",
          "name": "",
          "type": "uint256"
        }
      ],
      "stateMutability": "nonpayable",
      "type": "function"
    },
    {
      "inputs": [
        {
          "internalType": "address",
          "name": "_userAddr",
          "type": "address"
        },
        {
          "internalType": "address",
          "name": "_token",
          "type": "address"
        },
        {
          "internalType": "uint256",
          "name": "_amountIn",
          "type": "uint256"
        }
      ],
      "name": "evaluateDeductedAmountIn",
      "outputs": [
        {
          "internalType": "uint256",
          "name": "",
          "type": "uint256"
        },
        {
          "internalType": "uint256",
          "name": "",
          "type": "uint256"
        }
      ],
      "stateMutability": "view",
      "type": "function"
    },
    {
      "inputs": [
        {
          "internalType": "address",
          "name": "_token",
          "type": "address"
        }
      ],
      "name": "getTokenPrice",
      "outputs": [
        {
          "internalType": "uint256",
          "name": "",
          "type": "uint256"
        }
      ],
      "stateMutability": "view",
      "type": "function"
    },
    {
      "inputs": [
        {
          "internalType": "address",
          "name": "_token",
          "type": "address"
        }
      ],
      "name": "getTokenPriceOnAMM",
      "outputs": [
        {
          "internalType": "uint256",
          "name": "",
          "type": "uint256"
        }
      ],
      "stateMutability": "view",
      "type": "function"
    },
    {
      "inputs": [
        {
          "internalType": "address",
          "name": "_token",
          "type": "address"
        }
      ],
      "name": "getTokenPriceOnChainlink",
      "outputs": [
        {
          "internalType": "uint256",
          "name": "",
          "type": "uint256"
        }
      ],
      "stateMutability": "view",
      "type": "function"
    },
    {
      "inputs": [
        {
          "internalType": "uint256",
          "name": "_blockNum",
          "type": "uint256"
        }
      ],
      "name": "setStopFreeBlockNum",
      "outputs": [],
      "stateMutability": "nonpayable",
      "type": "function"
    },
    {
      "inputs": [
        {
          "internalType": "uint256",
          "name": "_feePercent",
          "type": "uint256"
        }
      ],
      "name": "setFeePercent",
      "outputs": [],
      "stateMutability": "nonpayable",
      "type": "function"
    },
    {
      "inputs": [
        {
          "internalType": "address",
          "name": "_token",
          "type": "address"
        },
        {
          "internalType": "address",
          "name": "_receiver",
          "type": "address"
        }
      ],
      "name": "withdraw",
      "outputs": [],
      "stateMutability": "nonpayable",
      "type": "function"
    },
    {
      "inputs": [
        {
          "internalType": "address",
          "name": "_token",
          "type": "address"
        },
        {
          "internalType": "address",
          "name": "_aggregator",
          "type": "address"
        }
      ],
      "name": "addAggregtor",
      "outputs": [],
      "stateMutability": "nonpayable",
      "type": "function"
    }
  ],
  "bytecode": "0x60806040526005600455600a600555620f4240600655600560075569152d02c7e14af6800000600d5534801561003457600080fd5b506040516121b13803806121b18339818101604052602081101561005757600080fd5b505160006100636100ef565b600080546001600160a01b0319166001600160a01b0383169081178255604051929350917f8be0079c531659141344cd1fd0a4f28419497f9722a3daafe3b4186f6b6457e0908290a350336000908152600360205260409020612710905543620493e001600b55600c80546001600160a01b0319166001600160a01b03929092169190911790556100f3565b3390565b6120af806101026000396000f3fe608060405234801561001057600080fd5b506004361061023d5760003560e01c8063774f89ee1161013b578063c4c0dbb7116100b8578063f0f46e9e1161007c578063f0f46e9e14610605578063f2fde38b1461062b578063f940e38514610651578063fd08be671461067f578063fe9fbb80146106875761023d565b8063c4c0dbb71461058c578063c54e44eb14610594578063c63cc5641461059c578063cf1c316a146105b9578063d02641a0146105df5761023d565b806389a30271116100ff57806389a30271146105315780638da5cb5b146105395780639eedc49214610541578063ae05b15814610549578063bf9c6bf11461056f5761023d565b8063774f89ee146104d65780637944f944146104fc5780637c62028e146105045780637ce3489b1461050c5780637fd6f15c146105295761023d565b806335815b95116101c9578063614456801161018d578063614456801461042f57806366e2bcb3146104555780636831d48a1461047b5780636de4f89a146104b1578063715018a6146104ce5761023d565b806335815b95146103b857806354a3944b146103c057806355fc232c146103c8578063586ee0e6146103ec57806359368a9a146104125761023d565b80631ee9e9e6116102105780631ee9e9e6146102d357806326a3c1a7146103225780632e8e24f51461034857806331a40b62146103765780633397e527146103b05761023d565b8063070c82a8146102425780630b2cf6a91461025c5780631a65bf7b1461027b5780631d2e445f146102a7575b600080fd5b61024a6106ad565b60408051918252519081900360200190f35b6102796004803603602081101561027257600080fd5b50356106b3565b005b6102796004803603604081101561029157600080fd5b506001600160a01b0381351690602001356107ad565b610279600480360360408110156102bd57600080fd5b506001600160a01b038135169060200135610821565b610309600480360360608110156102e957600080fd5b506001600160a01b038135811691602081013590911690604001356108d5565b6040805192835260208301919091528051918290030190f35b61024a6004803603602081101561033857600080fd5b50356001600160a01b0316610a92565b6102796004803603604081101561035e57600080fd5b506001600160a01b0381358116916020013516610dd2565b61039c6004803603602081101561038c57600080fd5b50356001600160a01b0316610e58565b604080519115158252519081900360200190f35b61024a610f08565b61024a610f19565b61024a610f21565b6103d0610f27565b604080516001600160a01b039092168252519081900360200190f35b6103d06004803603602081101561040257600080fd5b50356001600160a01b0316610f36565b6102796004803603602081101561042857600080fd5b5035610f51565b61024a6004803603602081101561044557600080fd5b50356001600160a01b0316610fae565b61024a6004803603602081101561046b57600080fd5b50356001600160a01b0316610fc0565b61024a6004803603606081101561049157600080fd5b506001600160a01b03813581169160208101359091169060400135611096565b610279600480360360208110156104c757600080fd5b5035611325565b610279611382565b61024a600480360360208110156104ec57600080fd5b50356001600160a01b0316611424565b6103d0611436565b61024a61144e565b6102796004803603602081101561052257600080fd5b5035611454565b61024a6114b1565b6103d06114b7565b6103d06114cf565b61024a6114de565b61024a6004803603602081101561055f57600080fd5b50356001600160a01b03166114e4565b6102796004803603602081101561058557600080fd5b50356114f6565b61024a611553565b6103d0611559565b6103d0600480360360208110156105b257600080fd5b5035611571565b61039c600480360360208110156105cf57600080fd5b50356001600160a01b03166115c7565b61024a600480360360208110156105f557600080fd5b50356001600160a01b0316611671565b61024a6004803603602081101561061b57600080fd5b50356001600160a01b031661171d565b6102796004803603602081101561064157600080fd5b50356001600160a01b0316611818565b6102796004803603604081101561066757600080fd5b506001600160a01b0381358116916020013516611910565b61024a611a6a565b61039c6004803603602081101561069d57600080fd5b50356001600160a01b0316611a70565b60065481565b6006548110156106f45760405162461bcd60e51b815260040180806020018281038252603b815260200180611ebd603b913960400191505060405180910390fd5b604080516323b872dd60e01b815233600482015230602482015260448101839052905173c2132d05d31c914a87c6611c10748aeb04b58e8f916323b872dd9160648083019260209291908290030181600087803b15801561075457600080fd5b505af1158015610768573d6000803e3d6000fd5b505050506040513d602081101561077e57600080fd5b50503360009081526003602052604090205461079a9082611a7d565b3360009081526003602052604090205550565b6107b5611ad7565b6000546001600160a01b03908116911614610805576040805162461bcd60e51b81526020600482018190526024820152600080516020611f84833981519152604482015290519081900360640190fd5b6001600160a01b03909116600090815260096020526040902055565b3360009081526003602052604090205481111561086f5760405162461bcd60e51b8152600401808060200182810382526046815260200180611fca6046913960600191505060405180910390fd5b336000908152600360205260409020546108899082611adb565b33600090815260036020526040808220929092556001600160a01b038416815220546108b59082611a7d565b6001600160a01b0390921660009081526003602052604090209190915550565b600080600073c2132d05d31c914a87c6611c10748aeb04b58e8f6001600160a01b031663313ce5676040518163ffffffff1660e01b815260040160206040518083038186803b15801561092757600080fd5b505afa15801561093b573d6000803e3d6000fd5b505050506040513d602081101561095157600080fd5b50516040805163313ce56760e01b8152905160ff90921692506000916001600160a01b0388169163313ce567916004808301926020929190829003018186803b15801561099d57600080fd5b505afa1580156109b1573d6000803e3d6000fd5b505050506040513d60208110156109c757600080fd5b505160ff16905060006109d987611671565b905060006109e689610fc0565b90506000610a1b612710610a15612710610a1586610a0f6004548f611b1d90919063ffffffff16565b90611b1d565b90611b76565b90506000610a4885600a0a610a156305f5e100610a158a600a0a610a0f888b611b1d90919063ffffffff16565b6001600160a01b038c166000908152600360205260409020549091508111610a7b57600097509550610a8a945050505050565b9096509450610a8a9350505050565b935093915050565b60006001600160a01b03821673c2132d05d31c914a87c6611c10748aeb04b58e8f1480610adb57506001600160a01b038216732791bca1f2de4661ed88a30c99a7a9449aa84174145b15610aeb57506305f5e100610dcd565b6000806001600160a01b03841673c2132d05d31c914a87c6611c10748aeb04b58e8f10610b2d578373c2132d05d31c914a87c6611c10748aeb04b58e8f610b44565b73c2132d05d31c914a87c6611c10748aeb04b58e8f845b915091506000735757371414417b8c6caad45baef941abc7d3ab326001600160a01b031663e6a4390584846040518363ffffffff1660e01b815260040180836001600160a01b03168152602001826001600160a01b031681526020019250505060206040518083038186803b158015610bbc57600080fd5b505afa158015610bd0573d6000803e3d6000fd5b505050506040513d6020811015610be657600080fd5b505160408051630240bc6b60e21b8152905191925060009182916001600160a01b03851691630902f1ac91600480820192606092909190829003018186803b158015610c3157600080fd5b505afa158015610c45573d6000803e3d6000fd5b505050506040513d6060811015610c5b57600080fd5b5080516020918201516040805163313ce56760e01b815290516dffffffffffffffffffffffffffff938416965092909116935060009273c2132d05d31c914a87c6611c10748aeb04b58e8f9263313ce567926004808201939291829003018186803b158015610cc957600080fd5b505afa158015610cdd573d6000803e3d6000fd5b505050506040513d6020811015610cf357600080fd5b50516040805163313ce56760e01b815290516001600160a01b038b169163313ce567916004808301926020929190829003018186803b158015610d3557600080fd5b505afa158015610d49573d6000803e3d6000fd5b505050506040513d6020811015610d5f57600080fd5b50510360ff16905073c2132d05d31c914a87c6611c10748aeb04b58e8f6001600160a01b03871614610daa57610da583610a15600a84900a610a0f866305f5e100611b1d565b610dc4565b610dc482610a15600a84900a610a0f876305f5e100611b1d565b96505050505050505b919050565b610dda611ad7565b6000546001600160a01b03908116911614610e2a576040805162461bcd60e51b81526020600482018190526024820152600080516020611f84833981519152604482015290519081900360640190fd5b6001600160a01b039182166000908152600a6020526040902080546001600160a01b03191691909216179055565b6000610e62611ad7565b6000546001600160a01b03908116911614610eb2576040805162461bcd60e51b81526020600482018190526024820152600080516020611f84833981519152604482015290519081900360640190fd5b6001600160a01b038216610ef75760405162461bcd60e51b81526004018080602001828103825260358152602001806120456035913960400191505060405180910390fd5b610f02600183611bb8565b92915050565b6000610f146001611bcd565b905090565b6305f5e10081565b600b5481565b600c546001600160a01b031681565b600a602052600090815260409020546001600160a01b031681565b610f59611ad7565b6000546001600160a01b03908116911614610fa9576040805162461bcd60e51b81526020600482018190526024820152600080516020611f84833981519152604482015290519081900360640190fd5b600b55565b60036020526000908152604090205481565b600c54604080516370a0823160e01b81526001600160a01b0384811660048301529151600093849316916370a08231916024808301926020929190829003018186803b15801561100f57600080fd5b505afa158015611023573d6000803e3d6000fd5b505050506040513d602081101561103957600080fd5b5051600d5490915061104c90600a611b76565b81101561105e57612710915050610dcd565b600d5461106c90600a611b76565b8111156110785750600d545b600d5461108b90610a1583611388611b1d565b612710039392505050565b60006110a133611a70565b6110ea576040805162461bcd60e51b815260206004820152601560248201527414d15391115497d393d517d055551213d492569151605a1b604482015290519081900360640190fd5b6005546001600160a01b0385166000908152600860205260409020541080156111145750600b5443105b1561113e57506001600160a01b03831660009081526008602052604081208054600101905561131e565b600073c2132d05d31c914a87c6611c10748aeb04b58e8f6001600160a01b031663313ce5676040518163ffffffff1660e01b815260040160206040518083038186803b15801561118d57600080fd5b505afa1580156111a1573d6000803e3d6000fd5b505050506040513d60208110156111b757600080fd5b50516040805163313ce56760e01b8152905160ff90921692506000916001600160a01b0387169163313ce567916004808301926020929190829003018186803b15801561120357600080fd5b505afa158015611217573d6000803e3d6000fd5b505050506040513d602081101561122d57600080fd5b505160ff169050600061123f86611671565b9050600061124c88610fc0565b90506000611275612710610a15612710610a1586610a0f6004548e611b1d90919063ffffffff16565b905060006112a285600a0a610a156305f5e100610a158a600a0a610a0f888b611b1d90919063ffffffff16565b6001600160a01b038b166000908152600360205260409020549091508111611311576001600160a01b038a166000908152600360205260409020546112e79082611adb565b6001600160a01b038b16600090815260036020526040812091909155965061131e95505050505050565b50945061131e9350505050565b9392505050565b61132d611ad7565b6000546001600160a01b0390811691161461137d576040805162461bcd60e51b81526020600482018190526024820152600080516020611f84833981519152604482015290519081900360640190fd5b600d55565b61138a611ad7565b6000546001600160a01b039081169116146113da576040805162461bcd60e51b81526020600482018190526024820152600080516020611f84833981519152604482015290519081900360640190fd5b600080546040516001600160a01b03909116907f8be0079c531659141344cd1fd0a4f28419497f9722a3daafe3b4186f6b6457e0908390a3600080546001600160a01b0319169055565b60096020526000908152604090205481565b735757371414417b8c6caad45baef941abc7d3ab3281565b60055481565b61145c611ad7565b6000546001600160a01b039081169116146114ac576040805162461bcd60e51b81526020600482018190526024820152600080516020611f84833981519152604482015290519081900360640190fd5b600455565b60045481565b732791bca1f2de4661ed88a30c99a7a9449aa8417481565b6000546001600160a01b031690565b61271081565b60086020526000908152604090205481565b6114fe611ad7565b6000546001600160a01b0390811691161461154e576040805162461bcd60e51b81526020600482018190526024820152600080516020611f84833981519152604482015290519081900360640190fd5b600755565b600d5481565b73c2132d05d31c914a87c6611c10748aeb04b58e8f81565b6000600161157d610f08565b038211156115bc5760405162461bcd60e51b8152600401808060200182810382526026815260200180611fa46026913960400191505060405180910390fd5b610f02600183611bd8565b60006115d1611ad7565b6000546001600160a01b03908116911614611621576040805162461bcd60e51b81526020600482018190526024820152600080516020611f84833981519152604482015290519081900360640190fd5b6001600160a01b0382166116665760405162461bcd60e51b81526004018080602001828103825260358152602001806120106035913960400191505060405180910390fd5b610f02600183611be4565b60008061167d83610a92565b9050600061168a8461171d565b90508061169957509050610dcd565b6000818311156116be576116b782610a156103e8610a0f8784611adb565b90506116d5565b6116d283610a156103e8610a0f8684611adb565b90505b60648111156117155760405162461bcd60e51b8152600401808060200182810382526045815260200180611f1e6045913960600191505060405180910390fd5b509392505050565b60006001600160a01b03821673c2132d05d31c914a87c6611c10748aeb04b58e8f148061176657506001600160a01b038216732791bca1f2de4661ed88a30c99a7a9449aa84174145b1561177657506305f5e100610dcd565b6001600160a01b038083166000908152600a602052604090205416806117a0576000915050610dcd565b60008190506000816001600160a01b031663feaf968c6040518163ffffffff1660e01b815260040160a06040518083038186803b1580156117e057600080fd5b505afa1580156117f4573d6000803e3d6000fd5b505050506040513d60a081101561180a57600080fd5b506020015195945050505050565b611820611ad7565b6000546001600160a01b03908116911614611870576040805162461bcd60e51b81526020600482018190526024820152600080516020611f84833981519152604482015290519081900360640190fd5b6001600160a01b0381166118b55760405162461bcd60e51b8152600401808060200182810382526026815260200180611ef86026913960400191505060405180910390fd5b600080546040516001600160a01b03808516939216917f8be0079c531659141344cd1fd0a4f28419497f9722a3daafe3b4186f6b6457e091a3600080546001600160a01b0319166001600160a01b0392909216919091179055565b611918611ad7565b6000546001600160a01b03908116911614611968576040805162461bcd60e51b81526020600482018190526024820152600080516020611f84833981519152604482015290519081900360640190fd5b6000826001600160a01b03166370a08231306040518263ffffffff1660e01b815260040180826001600160a01b0316815260200191505060206040518083038186803b1580156119b757600080fd5b505afa1580156119cb573d6000803e3d6000fd5b505050506040513d60208110156119e157600080fd5b50516040805163a9059cbb60e01b81526001600160a01b0385811660048301526024820184905291519293509085169163a9059cbb916044808201926020929091908290030181600087803b158015611a3957600080fd5b505af1158015611a4d573d6000803e3d6000fd5b505050506040513d6020811015611a6357600080fd5b5050505050565b60075481565b6000610f02600183611bf9565b60008282018381101561131e576040805162461bcd60e51b815260206004820152601b60248201527f536166654d6174683a206164646974696f6e206f766572666c6f770000000000604482015290519081900360640190fd5b3390565b600061131e83836040518060400160405280601e81526020017f536166654d6174683a207375627472616374696f6e206f766572666c6f770000815250611c0e565b600082611b2c57506000610f02565b82820282848281611b3957fe5b041461131e5760405162461bcd60e51b8152600401808060200182810382526021815260200180611f636021913960400191505060405180910390fd5b600061131e83836040518060400160405280601a81526020017f536166654d6174683a206469766973696f6e206279207a65726f000000000000815250611ca5565b600061131e836001600160a01b038416611d0a565b6000610f0282611dd0565b600061131e8383611dd4565b600061131e836001600160a01b038416611e38565b600061131e836001600160a01b038416611e82565b60008184841115611c9d5760405162461bcd60e51b81526004018080602001828103825283818151815260200191508051906020019080838360005b83811015611c62578181015183820152602001611c4a565b50505050905090810190601f168015611c8f5780820380516001836020036101000a031916815260200191505b509250505060405180910390fd5b505050900390565b60008183611cf45760405162461bcd60e51b8152602060048201818152835160248401528351909283926044909101919085019080838360008315611c62578181015183820152602001611c4a565b506000838581611d0057fe5b0495945050505050565b60008181526001830160205260408120548015611dc65783546000198083019190810190600090879083908110611d3d57fe5b9060005260206000200154905080876000018481548110611d5a57fe5b600091825260208083209091019290925582815260018981019092526040902090840190558654879080611d8a57fe5b60019003818190600052602060002001600090559055866001016000878152602001908152602001600020600090556001945050505050610f02565b6000915050610f02565b5490565b81546000908210611e165760405162461bcd60e51b8152600401808060200182810382526022815260200180611e9b6022913960400191505060405180910390fd5b826000018281548110611e2557fe5b9060005260206000200154905092915050565b6000611e448383611e82565b611e7a57508154600181810184556000848152602080822090930184905584548482528286019093526040902091909155610f02565b506000610f02565b6000908152600191909101602052604090205415159056fe456e756d657261626c655365743a20696e646578206f7574206f6620626f756e647345584d616e616765723a205553445420616d6f756e74206d75737420626520626967676572207468616e206d696e4465706f73697456616c75652e4f776e61626c653a206e6577206f776e657220697320746865207a65726f206164647265737345584d616e616765723a2074686520707269636520676170206265747765656e20636861696e6c696e6b20616e6420414d4d206973206c61726765207468616e203130252e536166654d6174683a206d756c7469706c69636174696f6e206f766572666c6f774f776e61626c653a2063616c6c6572206973206e6f7420746865206f776e65724d6978696e417574686f72697a61626c653a20696e646578206f7574206f6620626f756e647345584d616e616765723a20796f7572206c65667420747261646520706f696e7473206d75737420626520626967676572207468616e205f7472616e73666572416d6f756e742e4d6978696e417574686f72697a61626c653a205f616464417574686f72697a656420697320746865207a65726f20616464726573734d6978696e417574686f72697a61626c653a205f64656c417574686f72697a656420697320746865207a65726f2061646472657373a2646970667358221220be76f85d759d51e33e4795d1d7d6dcbad54db084fbaed6cbf9e3d83bc6091dd764736f6c634300060c0033",
  "immutableReferences": {},
  "source": "// SPDX-License-Identifier: MIT\npragma solidity ^0.6.0;\n\nimport \"../common/BasicStruct.sol\";\nimport \"../SwapInterfaces.sol\";\nimport \"../common/MixinAuthorizable.sol\";\n\ncontract EXManager is MixinAuthorizable {\n    using SafeMath for uint256;\n\n    address public constant USDT = 0xc2132D05D31c914a87C6611C10748AEb04B58e8F;\n    address public constant USDC = 0x2791Bca1f2de4661ED88A30C99A7a9449Aa84174;\n    address public constant swapFactory = 0x5757371414417b8C6CAad45bAeF941aBc7d3Ab32;      // quickswap\n\n    mapping(address => uint256) public usableTradePointsMap;  // \n    \n    uint256 public constant FACTOR = 1e8;\n    uint256 public feePercent = 5;\n    uint256 constant public BasePercent = 10000;\n    uint256 public maxFreePointPerAccount = 10;\n    uint256 public minDepositValue = 1e6;       // U\n    uint256 public maxOrderNumberPerMatch = 5;    // \n    \n    mapping(address => uint256) public accountFreePointMap;   // \n    mapping(address => uint256) public tokenMinAmountMap;     // \n    mapping(address => address) public tokenAggregatorMap;    // tokenchainlink\n    uint256 public stopFreeBlockNum;\n\n    address public boboToken;\n    uint256 public maxBoboTokenAmount = 1e23;  // Bobo10Bobo9\n    \n    constructor (address _boboToken) public {\n        usableTradePointsMap[msg.sender] = 10000;\n        stopFreeBlockNum = block.number + 300000;\n        boboToken = _boboToken;\n    }\n\n    function setMaxBoboTokenAmount(uint256 _maxBoboTokenAmount) public onlyOwner {\n        maxBoboTokenAmount = _maxBoboTokenAmount;\n    }\n\n    // Bobo50%5%\n    function getScalePercent(address _userAddr) view public returns(uint256) {\n        uint256 boboAmount = ERC20(boboToken).balanceOf(_userAddr);\n        if (boboAmount < maxBoboTokenAmount.div(10)) return 10000;\n\n        if (boboAmount > maxBoboTokenAmount.div(10)) boboAmount = maxBoboTokenAmount;\n\n        return 10000 - boboAmount.mul(5000).div(maxBoboTokenAmount);\n    }\n    \n    function setTokenMinAmount(address _tokenAddr, uint256 _minAmount) public onlyOwner {\n        tokenMinAmountMap[_tokenAddr] = _minAmount;\n    }\n    \n    function setMaxOrderNumberPerMatch(uint256 _maxNumber) public onlyOwner {\n        maxOrderNumberPerMatch = _maxNumber;\n    }\n    \n    // U\n    function buyTradePoints(uint256 _usdtAmount) public {\n        require(_usdtAmount >= minDepositValue, \"EXManager: USDT amount must be bigger than minDepositValue.\");\n        ERC20(USDT).transferFrom(msg.sender, address(this), _usdtAmount);\n        usableTradePointsMap[msg.sender] = usableTradePointsMap[msg.sender].add(_usdtAmount);\n    }\n\n    // \n    function transferTradePoints(address _userAddr, uint256 _transferAmount) public {\n        require(usableTradePointsMap[msg.sender] >= _transferAmount, \"EXManager: your left trade points must be bigger than _transferAmount.\");\n\n        usableTradePointsMap[msg.sender] = usableTradePointsMap[msg.sender].sub(_transferAmount);\n        usableTradePointsMap[_userAddr] = usableTradePointsMap[_userAddr].add(_transferAmount);\n    }\n\n    // \n    // (stopFreeBlockNum)(maxFreePointPerAccount)\n    function deductTradeFee(address _userAddr, address _token, uint256 _amountIn) public onlyAuthorized returns(uint256) {\n        if (accountFreePointMap[_userAddr] < maxFreePointPerAccount && block.number < stopFreeBlockNum) {\n            accountFreePointMap[_userAddr]++;\n            return 0;\n        }\n\n        uint256 usdtDecimals = ERC20(USDT).decimals();\n        uint256 tokenDecimals = ERC20(_token).decimals();\n        uint256 tokenPrice = getTokenPrice(_token);  // *10^8\n        \n        uint256 scalePercent = getScalePercent(_userAddr);  // BOBO\n        uint256 tokenAmount4Fee = _amountIn.mul(feePercent).mul(scalePercent).div(BasePercent).div(BasePercent);\n                                 \n        uint256 usdtAmount4Fee = tokenPrice.mul(tokenAmount4Fee).mul(10**usdtDecimals).div(FACTOR).div(10**tokenDecimals);\n        if (usableTradePointsMap[_userAddr] >= usdtAmount4Fee) {\n            usableTradePointsMap[_userAddr] = usableTradePointsMap[_userAddr].sub(usdtAmount4Fee);\n            return 0;\n        } else {\n            return tokenAmount4Fee;\n        }\n    }\n\n    function evaluateDeductedAmountIn(address _userAddr, address _token, uint256 _amountIn) view public returns(uint256, uint256) {\n        uint256 usdtDecimals = ERC20(USDT).decimals();\n        uint256 tokenDecimals = ERC20(_token).decimals();\n        uint256 tokenPrice = getTokenPrice(_token);  // *10^8\n        \n        uint256 scalePercent = getScalePercent(_userAddr);  // BOBO\n        uint256 tokenAmount4Fee = _amountIn.mul(feePercent).mul(scalePercent).div(BasePercent).div(BasePercent);\n\n        uint256 usdtAmount4Fee = tokenPrice.mul(tokenAmount4Fee).mul(10**usdtDecimals).div(FACTOR).div(10**tokenDecimals);\n        if (usableTradePointsMap[_userAddr] >= usdtAmount4Fee) {\n            return (0, usdtAmount4Fee);\n        } else {\n            return (tokenAmount4Fee, usdtAmount4Fee);\n        }\n    }\n\n    function getTokenPrice(address _token) public view returns(uint256) {\n        uint256 priceOnAMM = getTokenPriceOnAMM(_token);\n        uint256 priceOnChainlink = getTokenPriceOnChainlink(_token);\n        if(priceOnChainlink == 0) return priceOnAMM;\n\n        uint256 gap = 0;\n        if (priceOnAMM > priceOnChainlink) {\n            gap = priceOnAMM.sub(priceOnChainlink).mul(1000).div(priceOnChainlink);\n        } else {\n            gap = priceOnChainlink.sub(priceOnAMM).mul(1000).div(priceOnAMM);\n        }\n        require(gap <= 100, \"EXManager: the price gap between chainlink and AMM is large than 10%.\");\n        return priceOnChainlink;\n    }\n\n    function getTokenPriceOnAMM(address _token) public view returns(uint256) {\n        if (_token == USDT || _token == USDC) return 1 * FACTOR;\n\n        (address token0, address token1) = USDT < _token ? (USDT, _token) : (_token, USDT);\n        address pairAddr = ICommonFactory(swapFactory).getPair(token0, token1);\n        (uint256 reserveA, uint256 reserveB,) = ICommonPair(pairAddr).getReserves();\n        uint256 decimalsGap = ERC20(_token).decimals() - ERC20(USDT).decimals();\n        // chainlink10^8FACTOR, FACTORU1.1U,1.12U\n        return token0 == USDT ? reserveA.mul(FACTOR).mul(10**decimalsGap).div(reserveB) : reserveB.mul(FACTOR).mul(10**decimalsGap).div(reserveA);\n    }\n    \n    // chainlinkU10^8\n    function getTokenPriceOnChainlink(address _token) public view returns(uint256) {\n        if (_token == USDT || _token == USDC) return 1 * FACTOR;\n\n        address aggregatorAddr = tokenAggregatorMap[_token];\n        if (aggregatorAddr == address(0)) return 0;\n\n        AggregatorV3Interface priceFeed = AggregatorV3Interface(aggregatorAddr);\n        (, int price,,,) = priceFeed.latestRoundData();\n        return uint256(price);\n    }\n    \n    function setStopFreeBlockNum(uint256 _blockNum) public onlyOwner {\n        stopFreeBlockNum = _blockNum;\n    }\n\n    function setFeePercent(uint256 _feePercent) public onlyOwner {\n        feePercent = _feePercent;\n    }\n    \n    function withdraw(address _token, address _receiver) public onlyOwner {\n        uint256 amount = ERC20(_token).balanceOf(address(this));\n        ERC20(_token).transfer(_receiver, amount);\n    }\n    \n    function addAggregtor(address _token, address _aggregator) public onlyOwner {\n        tokenAggregatorMap[_token] = _aggregator;\n    }\n}",
  "sourcePath": "/Users/mryu/blockchain/bobo-metaverse/boboswap-contract/contracts/manager/EXManager.sol",
  "compiler": {
    "name": "solc",
    "version": "0.6.12+commit.27d51765.Emscripten.clang"
  },
  "schemaVersion": "3.4.3",
  "updatedAt": "2021-08-28T14:58:02.723Z",
  "devdoc": {
    "kind": "dev",
    "methods": {
      "owner()": {
        "details": "Returns the address of the current owner."
      },
      "renounceOwnership()": {
        "details": "Leaves the contract without owner. It will not be possible to call `onlyOwner` functions anymore. Can only be called by the current owner. NOTE: Renouncing ownership will leave the contract without an owner, thereby removing any functionality that is only available to the owner."
      },
      "transferOwnership(address)": {
        "details": "Transfers ownership of the contract to a new account (`newOwner`). Can only be called by the current owner."
      }
    },
    "version": 1
  },
  "userdoc": {
    "kind": "user",
    "methods": {},
    "version": 1
  }
}