{
  "contractName": "EXManager",
  "abi": [
    {
      "inputs": [],
      "stateMutability": "nonpayable",
      "type": "constructor"
    },
    {
      "anonymous": false,
      "inputs": [
        {
          "indexed": true,
          "internalType": "address",
          "name": "previousOwner",
          "type": "address"
        },
        {
          "indexed": true,
          "internalType": "address",
          "name": "newOwner",
          "type": "address"
        }
      ],
      "name": "OwnershipTransferred",
      "type": "event"
    },
    {
      "inputs": [
        {
          "internalType": "address",
          "name": "",
          "type": "address"
        }
      ],
      "name": "_auth",
      "outputs": [
        {
          "internalType": "bool",
          "name": "",
          "type": "bool"
        }
      ],
      "stateMutability": "view",
      "type": "function",
      "constant": true
    },
    {
      "inputs": [
        {
          "internalType": "address",
          "name": "",
          "type": "address"
        }
      ],
      "name": "accountFreePointMap",
      "outputs": [
        {
          "internalType": "uint256",
          "name": "",
          "type": "uint256"
        }
      ],
      "stateMutability": "view",
      "type": "function",
      "constant": true
    },
    {
      "inputs": [],
      "name": "feeEarnedContract",
      "outputs": [
        {
          "internalType": "address",
          "name": "",
          "type": "address"
        }
      ],
      "stateMutability": "view",
      "type": "function",
      "constant": true
    },
    {
      "inputs": [],
      "name": "maxFreePointPerAccount",
      "outputs": [
        {
          "internalType": "uint256",
          "name": "",
          "type": "uint256"
        }
      ],
      "stateMutability": "view",
      "type": "function",
      "constant": true
    },
    {
      "inputs": [],
      "name": "maxNumberPerAMMSwap",
      "outputs": [
        {
          "internalType": "uint256",
          "name": "",
          "type": "uint256"
        }
      ],
      "stateMutability": "view",
      "type": "function",
      "constant": true
    },
    {
      "inputs": [],
      "name": "minDepositValue",
      "outputs": [
        {
          "internalType": "uint256",
          "name": "",
          "type": "uint256"
        }
      ],
      "stateMutability": "view",
      "type": "function",
      "constant": true
    },
    {
      "inputs": [],
      "name": "orderCountPerToken",
      "outputs": [
        {
          "internalType": "uint256",
          "name": "",
          "type": "uint256"
        }
      ],
      "stateMutability": "view",
      "type": "function",
      "constant": true
    },
    {
      "inputs": [],
      "name": "owner",
      "outputs": [
        {
          "internalType": "address",
          "name": "",
          "type": "address"
        }
      ],
      "stateMutability": "view",
      "type": "function",
      "constant": true
    },
    {
      "inputs": [],
      "name": "renounceOwnership",
      "outputs": [],
      "stateMutability": "nonpayable",
      "type": "function"
    },
    {
      "inputs": [],
      "name": "stopFreeBlockNum",
      "outputs": [
        {
          "internalType": "uint256",
          "name": "",
          "type": "uint256"
        }
      ],
      "stateMutability": "view",
      "type": "function",
      "constant": true
    },
    {
      "inputs": [
        {
          "internalType": "address",
          "name": "",
          "type": "address"
        }
      ],
      "name": "tokenInvestRateMap",
      "outputs": [
        {
          "internalType": "uint256",
          "name": "",
          "type": "uint256"
        }
      ],
      "stateMutability": "view",
      "type": "function",
      "constant": true
    },
    {
      "inputs": [
        {
          "internalType": "address",
          "name": "",
          "type": "address"
        }
      ],
      "name": "tokenMinAmountMap",
      "outputs": [
        {
          "internalType": "uint256",
          "name": "",
          "type": "uint256"
        }
      ],
      "stateMutability": "view",
      "type": "function",
      "constant": true
    },
    {
      "inputs": [
        {
          "internalType": "address",
          "name": "newOwner",
          "type": "address"
        }
      ],
      "name": "transferOwnership",
      "outputs": [],
      "stateMutability": "nonpayable",
      "type": "function"
    },
    {
      "inputs": [
        {
          "internalType": "address",
          "name": "",
          "type": "address"
        }
      ],
      "name": "usableTradeCountMap",
      "outputs": [
        {
          "internalType": "uint256",
          "name": "",
          "type": "uint256"
        }
      ],
      "stateMutability": "view",
      "type": "function",
      "constant": true
    },
    {
      "inputs": [],
      "name": "vipBaseline",
      "outputs": [
        {
          "internalType": "uint256",
          "name": "",
          "type": "uint256"
        }
      ],
      "stateMutability": "view",
      "type": "function",
      "constant": true
    },
    {
      "inputs": [
        {
          "internalType": "address",
          "name": "_addr",
          "type": "address"
        }
      ],
      "name": "addAuth",
      "outputs": [],
      "stateMutability": "nonpayable",
      "type": "function"
    },
    {
      "inputs": [
        {
          "internalType": "address",
          "name": "_addr",
          "type": "address"
        }
      ],
      "name": "removeAuth",
      "outputs": [],
      "stateMutability": "nonpayable",
      "type": "function"
    },
    {
      "inputs": [
        {
          "internalType": "address",
          "name": "_tokenAddr",
          "type": "address"
        },
        {
          "internalType": "uint256",
          "name": "_investRate",
          "type": "uint256"
        }
      ],
      "name": "setTokenInvestRate",
      "outputs": [],
      "stateMutability": "nonpayable",
      "type": "function"
    },
    {
      "inputs": [
        {
          "internalType": "address",
          "name": "_tokenAddr",
          "type": "address"
        },
        {
          "internalType": "uint256",
          "name": "_minAmount",
          "type": "uint256"
        }
      ],
      "name": "setTokenMinAmount",
      "outputs": [],
      "stateMutability": "nonpayable",
      "type": "function"
    },
    {
      "inputs": [
        {
          "internalType": "uint256",
          "name": "_orderCountPerToken",
          "type": "uint256"
        }
      ],
      "name": "setOrderCountPerToken",
      "outputs": [],
      "stateMutability": "nonpayable",
      "type": "function"
    },
    {
      "inputs": [
        {
          "internalType": "uint256",
          "name": "_maxNumber",
          "type": "uint256"
        }
      ],
      "name": "setMaxNumberPerAMMSwap",
      "outputs": [],
      "stateMutability": "nonpayable",
      "type": "function"
    },
    {
      "inputs": [
        {
          "internalType": "address",
          "name": "_feeEarnedContract",
          "type": "address"
        }
      ],
      "name": "setFeeEarnedContract",
      "outputs": [],
      "stateMutability": "nonpayable",
      "type": "function"
    },
    {
      "inputs": [],
      "name": "buyTradePoints",
      "outputs": [],
      "stateMutability": "payable",
      "type": "function",
      "payable": true
    },
    {
      "inputs": [
        {
          "internalType": "address",
          "name": "_userAddr",
          "type": "address"
        },
        {
          "internalType": "uint256",
          "name": "_burnedNumber",
          "type": "uint256"
        }
      ],
      "name": "addTradePoints",
      "outputs": [],
      "stateMutability": "nonpayable",
      "type": "function"
    },
    {
      "inputs": [
        {
          "internalType": "address",
          "name": "_userAddr",
          "type": "address"
        },
        {
          "internalType": "uint256",
          "name": "_burnedNumber",
          "type": "uint256"
        }
      ],
      "name": "burnTradePoints",
      "outputs": [
        {
          "internalType": "bool",
          "name": "",
          "type": "bool"
        }
      ],
      "stateMutability": "nonpayable",
      "type": "function"
    },
    {
      "inputs": [
        {
          "internalType": "uint256",
          "name": "_blockNum",
          "type": "uint256"
        }
      ],
      "name": "setStopFreeBlockNum",
      "outputs": [],
      "stateMutability": "nonpayable",
      "type": "function"
    },
    {
      "inputs": [],
      "name": "withdraw",
      "outputs": [],
      "stateMutability": "nonpayable",
      "type": "function"
    }
  ],
  "bytecode": "0x6080604052600a600255670de0b6b3a76400006003556064600455600a60055534801561002b57600080fd5b5060006100366100a2565b600080546001600160a01b0319166001600160a01b0383169081178255604051929350917f8be0079c531659141344cd1fd0a4f28419497f9722a3daafe3b4186f6b6457e0908290a3503360009081526001602052604090206127109055620493e04301600b556100a6565b3390565b61133e806100b56000396000f3fe60806040526004361061019c5760003560e01c80637c62028e116100ec578063c27412d51161008a578063d6bbe07a11610064578063d6bbe07a14610587578063f2fde38b1461058f578063f8e08087146105c2578063fc0fc115146105d75761019c565b8063c27412d514610506578063c390900f14610539578063d3d684491461054e5761019c565b80638da5cb5b116100c65780638da5cb5b1461043f5780639f8a162814610470578063ac7f2bcf146104a9578063ae05b158146104d35761019c565b80637c62028e146103c45780637f3fd918146103d957806388e8135f1461040c5761019c565b80635422224e116101595780635c191ce9116101335780635c191ce91461032e578063715018a614610343578063774f89ee146103585780637862fce31461038b5761019c565b80635422224e146102bc57806354a3944b146102ef57806359368a9a146103045761019c565b8063070c82a8146101a157806319c2146b146101c85780631a65bf7b1461020f5780633507212d1461024a5780633ccfd60b1461027d578063473a855a14610292575b600080fd5b3480156101ad57600080fd5b506101b66105ec565b60408051918252519081900360200190f35b3480156101d457600080fd5b506101fb600480360360208110156101eb57600080fd5b50356001600160a01b03166105f2565b604080519115158252519081900360200190f35b34801561021b57600080fd5b506102486004803603604081101561023257600080fd5b506001600160a01b038135169060200135610607565b005b34801561025657600080fd5b506101b66004803603602081101561026d57600080fd5b50356001600160a01b031661067b565b34801561028957600080fd5b5061024861068d565b34801561029e57600080fd5b50610248600480360360208110156102b557600080fd5b5035610714565b3480156102c857600080fd5b50610248600480360360208110156102df57600080fd5b50356001600160a01b0316610771565b3480156102fb57600080fd5b506101b66107ed565b34801561031057600080fd5b506102486004803603602081101561032757600080fd5b50356107f3565b34801561033a57600080fd5b506101b6610850565b34801561034f57600080fd5b50610248610856565b34801561036457600080fd5b506101b66004803603602081101561037b57600080fd5b50356001600160a01b03166108f8565b34801561039757600080fd5b50610248600480360360408110156103ae57600080fd5b506001600160a01b03813516906020013561090a565b3480156103d057600080fd5b506101b66109be565b3480156103e557600080fd5b50610248600480360360208110156103fc57600080fd5b50356001600160a01b03166109c4565b34801561041857600080fd5b506102486004803603602081101561042f57600080fd5b50356001600160a01b0316610a3d565b34801561044b57600080fd5b50610454610af6565b604080516001600160a01b039092168252519081900360200190f35b34801561047c57600080fd5b506101fb6004803603604081101561049357600080fd5b506001600160a01b038135169060200135610b05565b3480156104b557600080fd5b50610248600480360360208110156104cc57600080fd5b5035610c23565b3480156104df57600080fd5b506101b6600480360360208110156104f657600080fd5b50356001600160a01b0316610c80565b34801561051257600080fd5b506101b66004803603602081101561052957600080fd5b50356001600160a01b0316610c92565b34801561054557600080fd5b506101b6610ca4565b34801561055a57600080fd5b506102486004803603604081101561057157600080fd5b506001600160a01b038135169060200135610ca9565b610248610d44565b34801561059b57600080fd5b50610248600480360360208110156105b257600080fd5b50356001600160a01b0316610e2e565b3480156105ce57600080fd5b506101b6610f26565b3480156105e357600080fd5b50610454610f2c565b60035481565b60086020526000908152604090205460ff1681565b61060f610f3b565b6000546001600160a01b0390811691161461065f576040805162461bcd60e51b8152602060048201819052602482015260008051602061129c833981519152604482015290519081900360640190fd5b6001600160a01b039091166000908152600a6020526040902055565b60076020526000908152604090205481565b610695610f3b565b6000546001600160a01b039081169116146106e5576040805162461bcd60e51b8152602060048201819052602482015260008051602061129c833981519152604482015290519081900360640190fd5b60405133904780156108fc02916000818181858888f19350505050158015610711573d6000803e3d6000fd5b50565b61071c610f3b565b6000546001600160a01b0390811691161461076c576040805162461bcd60e51b8152602060048201819052602482015260008051602061129c833981519152604482015290519081900360640190fd5b600555565b610779610f3b565b6000546001600160a01b039081169116146107c9576040805162461bcd60e51b8152602060048201819052602482015260008051602061129c833981519152604482015290519081900360640190fd5b6001600160a01b03166000908152600860205260409020805460ff19166001179055565b600b5481565b6107fb610f3b565b6000546001600160a01b0390811691161461084b576040805162461bcd60e51b8152602060048201819052602482015260008051602061129c833981519152604482015290519081900360640190fd5b600b55565b60055481565b61085e610f3b565b6000546001600160a01b039081169116146108ae576040805162461bcd60e51b8152602060048201819052602482015260008051602061129c833981519152604482015290519081900360640190fd5b600080546040516001600160a01b03909116907f8be0079c531659141344cd1fd0a4f28419497f9722a3daafe3b4186f6b6457e0908390a3600080546001600160a01b0319169055565b600a6020526000908152604090205481565b610912610f3b565b6000546001600160a01b03908116911614610962576040805162461bcd60e51b8152602060048201819052602482015260008051602061129c833981519152604482015290519081900360640190fd5b60648111156109a25760405162461bcd60e51b81526004018080602001828103825260248152602001806112e56024913960400191505060405180910390fd5b6001600160a01b03909116600090815260076020526040902055565b60025481565b6109cc610f3b565b6000546001600160a01b03908116911614610a1c576040805162461bcd60e51b8152602060048201819052602482015260008051602061129c833981519152604482015290519081900360640190fd5b6001600160a01b03166000908152600860205260409020805460ff19169055565b610a45610f3b565b6000546001600160a01b03908116911614610a95576040805162461bcd60e51b8152602060048201819052602482015260008051602061129c833981519152604482015290519081900360640190fd5b803b80610ad35760405162461bcd60e51b81526004018080602001828103825260298152602001806112bc6029913960400191505060405180910390fd5b50600680546001600160a01b0319166001600160a01b0392909216919091179055565b6000546001600160a01b031690565b3360009081526008602052604081205460ff16610b59576040805162461bcd60e51b815260206004820152600d60248201526c3737903832b936b4b9b9b4b7b760991b604482015290519081900360640190fd5b6002546001600160a01b038416600090815260096020526040902054108015610b835750600b5443105b15610bb057506001600160a01b038216600090815260096020526040902080546001908101909155610c1d565b6001600160a01b038316600090815260016020526040902054821115610bd857506000610c1d565b6001600160a01b038316600090815260016020526040902054610bfb9083610f3f565b6001600160a01b03841660009081526001602081905260409091209190915590505b92915050565b610c2b610f3b565b6000546001600160a01b03908116911614610c7b576040805162461bcd60e51b8152602060048201819052602482015260008051602061129c833981519152604482015290519081900360640190fd5b600455565b60096020526000908152604090205481565b60016020526000908152604090205481565b600a81565b610cb1610f3b565b6000546001600160a01b03908116911614610d01576040805162461bcd60e51b8152602060048201819052602482015260008051602061129c833981519152604482015290519081900360640190fd5b6001600160a01b038216600090815260016020526040902054610d249082610f88565b6001600160a01b0390921660009081526001602052604090209190915550565b600354341015610d855760405162461bcd60e51b815260040180806020018281038252603781526020018061121e6037913960400191505060405180910390fd5b6000610d9c60035434610fe290919063ffffffff16565b90506000610db56003543461102490919063ffffffff16565b9050610de5610dcf6004548461106690919063ffffffff16565b3360009081526001602052604090205490610f88565b336000908152600160205260409020558015610e2a57604051339082156108fc029083906000818181858888f19350505050158015610e28573d6000803e3d6000fd5b505b5050565b610e36610f3b565b6000546001600160a01b03908116911614610e86576040805162461bcd60e51b8152602060048201819052602482015260008051602061129c833981519152604482015290519081900360640190fd5b6001600160a01b038116610ecb5760405162461bcd60e51b81526004018080602001828103825260268152602001806112556026913960400191505060405180910390fd5b600080546040516001600160a01b03808516939216917f8be0079c531659141344cd1fd0a4f28419497f9722a3daafe3b4186f6b6457e091a3600080546001600160a01b0319166001600160a01b0392909216919091179055565b60045481565b6006546001600160a01b031681565b3390565b6000610f8183836040518060400160405280601e81526020017f536166654d6174683a207375627472616374696f6e206f766572666c6f7700008152506110bf565b9392505050565b600082820183811015610f81576040805162461bcd60e51b815260206004820152601b60248201527f536166654d6174683a206164646974696f6e206f766572666c6f770000000000604482015290519081900360640190fd5b6000610f8183836040518060400160405280601a81526020017f536166654d6174683a206469766973696f6e206279207a65726f000000000000815250611156565b6000610f8183836040518060400160405280601881526020017f536166654d6174683a206d6f64756c6f206279207a65726f00000000000000008152506111bb565b60008261107557506000610c1d565b8282028284828161108257fe5b0414610f815760405162461bcd60e51b815260040180806020018281038252602181526020018061127b6021913960400191505060405180910390fd5b6000818484111561114e5760405162461bcd60e51b81526004018080602001828103825283818151815260200191508051906020019080838360005b838110156111135781810151838201526020016110fb565b50505050905090810190601f1680156111405780820380516001836020036101000a031916815260200191505b509250505060405180910390fd5b505050900390565b600081836111a55760405162461bcd60e51b81526020600482018181528351602484015283519092839260449091019190850190808383600083156111135781810151838201526020016110fb565b5060008385816111b157fe5b0495945050505050565b6000818361120a5760405162461bcd60e51b81526020600482018181528351602484015283519092839260449091019190850190808383600083156111135781810151838201526020016110fb565b5082848161121457fe5b0694935050505056fe45584d616e616765723a204465706f736974206d75737420626520626967676572207468616e206d696e4465706f73697456616c75652e4f776e61626c653a206e6577206f776e657220697320746865207a65726f2061646472657373536166654d6174683a206d756c7469706c69636174696f6e206f766572666c6f774f776e61626c653a2063616c6c6572206973206e6f7420746865206f776e657245584d616e616765723a204f6e6c7920737570706f727420636f6e747261637420616464726573732e45584d616e616765723a20696e76657374207261746520697320746f6f206c617267652ea264697066735822122030f0cdaea0bffe1d355affc0f355db7bd98297509a2a1cf3a2a93c954795933e64736f6c634300060c0033",
  "immutableReferences": {},
  "source": "// SPDX-License-Identifier: MIT\npragma solidity ^0.6.0;\n\nimport \"../common/BasicStruct.sol\";\n\ncontract EXManager is Ownable {\n    using SafeMath for uint256;\n\n    uint256 constant public vipBaseline = 10;\n    mapping(address => uint256) public usableTradeCountMap;  // \n    \n    uint256 public maxFreePointPerAccount = 10;\n    uint256 public minDepositValue = 1e18;\n    uint256 public orderCountPerToken = 100;    // \n    uint256 public maxNumberPerAMMSwap = 10;    // AMM\n    address public feeEarnedContract;           // \n    mapping(address => uint256) public tokenInvestRateMap;   // \n    mapping(address => bool) public _auth;\n    mapping(address => uint256) public accountFreePointMap;\n    mapping(address => uint256) public tokenMinAmountMap;\n    uint256 public stopFreeBlockNum;\n\n    modifier onlyAuth {\n        require(_auth[msg.sender], \"no permission\");\n        _;\n    }\n    \n    constructor () public {\n        usableTradeCountMap[msg.sender] = 10000;\n        stopFreeBlockNum = block.number + 300000;\n    }\n    \n    function addAuth(address _addr) public onlyOwner {\n        _auth[_addr] = true;\n    }\n\n    function removeAuth(address _addr) public onlyOwner {\n        _auth[_addr] = false;\n    }\n    \n    function setTokenInvestRate(address _tokenAddr, uint256 _investRate) public onlyOwner {\n        require(_investRate <= 100, \"EXManager: invest rate is too large.\");\n        tokenInvestRateMap[_tokenAddr] = _investRate;\n    }\n\n    \n    function setTokenMinAmount(address _tokenAddr, uint256 _minAmount) public onlyOwner {\n        tokenMinAmountMap[_tokenAddr] = _minAmount;\n    }\n    \n    function setOrderCountPerToken(uint256 _orderCountPerToken) public onlyOwner {\n        orderCountPerToken = _orderCountPerToken;\n    }\n    \n    function setMaxNumberPerAMMSwap(uint256 _maxNumber) public onlyOwner {\n        maxNumberPerAMMSwap = _maxNumber;\n    }\n    \n    function setFeeEarnedContract(address _feeEarnedContract) public onlyOwner {\n        uint256 size;\n        assembly {\n            size := extcodesize(_feeEarnedContract)\n        }\n        require(size > 0, \"EXManager: Only support contract address.\");\n        feeEarnedContract = _feeEarnedContract;\n    }\n    \n    // \n    function buyTradePoints() payable public {\n        require(msg.value >= minDepositValue, \"EXManager: Deposit must be bigger than minDepositValue.\");\n        uint256 baseAmount = msg.value.div(minDepositValue);\n        uint256 leftAmount = msg.value.mod(minDepositValue);\n        usableTradeCountMap[msg.sender] = usableTradeCountMap[msg.sender].add(baseAmount.mul(orderCountPerToken));\n        if (leftAmount > 0)\n            msg.sender.transfer(leftAmount);\n    }\n\n    function addTradePoints(address _userAddr, uint256 _burnedNumber) public onlyOwner {\n        usableTradeCountMap[_userAddr] = usableTradeCountMap[_userAddr].add(_burnedNumber);\n    }\n\n    function burnTradePoints(address _userAddr, uint256 _burnedNumber) public onlyAuth returns(bool) {\n        if (accountFreePointMap[_userAddr] < maxFreePointPerAccount && block.number < stopFreeBlockNum) {\n            accountFreePointMap[_userAddr]++;\n            return true;\n        }\n        if (usableTradeCountMap[_userAddr] < _burnedNumber) {\n            return false;\n        }\n        usableTradeCountMap[_userAddr] = usableTradeCountMap[_userAddr].sub(_burnedNumber);\n        return true;\n    }\n    \n    function setStopFreeBlockNum(uint256 _blockNum) public onlyOwner {\n        stopFreeBlockNum = _blockNum;\n    }\n    \n    function withdraw() public onlyOwner {\n        msg.sender.transfer(address(this).balance);\n    }\n}",
  "sourcePath": "/Users/sam/go/src/github.com/bobo-metaverse/boboswap-contract/contracts/manager/EXManager.sol",
  "compiler": {
    "name": "solc",
    "version": "0.6.12+commit.27d51765.Emscripten.clang"
  },
  "schemaVersion": "3.4.2",
  "updatedAt": "2021-08-09T06:24:33.183Z",
  "networkType": "ethereum",
  "devdoc": {
    "kind": "dev",
    "methods": {
      "owner()": {
        "details": "Returns the address of the current owner."
      },
      "renounceOwnership()": {
        "details": "Leaves the contract without owner. It will not be possible to call `onlyOwner` functions anymore. Can only be called by the current owner. NOTE: Renouncing ownership will leave the contract without an owner, thereby removing any functionality that is only available to the owner."
      },
      "transferOwnership(address)": {
        "details": "Transfers ownership of the contract to a new account (`newOwner`). Can only be called by the current owner."
      }
    },
    "version": 1
  },
  "userdoc": {
    "kind": "user",
    "methods": {},
    "version": 1
  }
}