{
  "contractName": "EXManager",
  "abi": [
    {
      "inputs": [
        {
          "internalType": "address",
          "name": "_boboToken",
          "type": "address"
        }
      ],
      "stateMutability": "nonpayable",
      "type": "constructor"
    },
    {
      "anonymous": false,
      "inputs": [
        {
          "indexed": true,
          "internalType": "address",
          "name": "previousOwner",
          "type": "address"
        },
        {
          "indexed": true,
          "internalType": "address",
          "name": "newOwner",
          "type": "address"
        }
      ],
      "name": "OwnershipTransferred",
      "type": "event"
    },
    {
      "inputs": [],
      "name": "BasePercent",
      "outputs": [
        {
          "internalType": "uint256",
          "name": "",
          "type": "uint256"
        }
      ],
      "stateMutability": "view",
      "type": "function"
    },
    {
      "inputs": [],
      "name": "FACTOR",
      "outputs": [
        {
          "internalType": "uint256",
          "name": "",
          "type": "uint256"
        }
      ],
      "stateMutability": "view",
      "type": "function"
    },
    {
      "inputs": [],
      "name": "USDC",
      "outputs": [
        {
          "internalType": "address",
          "name": "",
          "type": "address"
        }
      ],
      "stateMutability": "view",
      "type": "function"
    },
    {
      "inputs": [],
      "name": "USDT",
      "outputs": [
        {
          "internalType": "address",
          "name": "",
          "type": "address"
        }
      ],
      "stateMutability": "view",
      "type": "function"
    },
    {
      "inputs": [
        {
          "internalType": "address",
          "name": "",
          "type": "address"
        }
      ],
      "name": "accountFreePointMap",
      "outputs": [
        {
          "internalType": "uint256",
          "name": "",
          "type": "uint256"
        }
      ],
      "stateMutability": "view",
      "type": "function"
    },
    {
      "inputs": [
        {
          "internalType": "address",
          "name": "_authorizedAddr",
          "type": "address"
        }
      ],
      "name": "addAuthorized",
      "outputs": [
        {
          "internalType": "bool",
          "name": "",
          "type": "bool"
        }
      ],
      "stateMutability": "nonpayable",
      "type": "function"
    },
    {
      "inputs": [],
      "name": "boboToken",
      "outputs": [
        {
          "internalType": "address",
          "name": "",
          "type": "address"
        }
      ],
      "stateMutability": "view",
      "type": "function"
    },
    {
      "inputs": [
        {
          "internalType": "address",
          "name": "_authorizedAddr",
          "type": "address"
        }
      ],
      "name": "delAuthorized",
      "outputs": [
        {
          "internalType": "bool",
          "name": "",
          "type": "bool"
        }
      ],
      "stateMutability": "nonpayable",
      "type": "function"
    },
    {
      "inputs": [],
      "name": "feeEarnedContract",
      "outputs": [
        {
          "internalType": "address",
          "name": "",
          "type": "address"
        }
      ],
      "stateMutability": "view",
      "type": "function"
    },
    {
      "inputs": [],
      "name": "feePercent",
      "outputs": [
        {
          "internalType": "uint256",
          "name": "",
          "type": "uint256"
        }
      ],
      "stateMutability": "view",
      "type": "function"
    },
    {
      "inputs": [
        {
          "internalType": "uint256",
          "name": "_index",
          "type": "uint256"
        }
      ],
      "name": "getAuthorized",
      "outputs": [
        {
          "internalType": "address",
          "name": "",
          "type": "address"
        }
      ],
      "stateMutability": "view",
      "type": "function"
    },
    {
      "inputs": [],
      "name": "getAuthorizedLength",
      "outputs": [
        {
          "internalType": "uint256",
          "name": "",
          "type": "uint256"
        }
      ],
      "stateMutability": "view",
      "type": "function"
    },
    {
      "inputs": [
        {
          "internalType": "address",
          "name": "_authorizedAddr",
          "type": "address"
        }
      ],
      "name": "isAuthorized",
      "outputs": [
        {
          "internalType": "bool",
          "name": "",
          "type": "bool"
        }
      ],
      "stateMutability": "view",
      "type": "function"
    },
    {
      "inputs": [],
      "name": "maxBoboTokenAmount",
      "outputs": [
        {
          "internalType": "uint256",
          "name": "",
          "type": "uint256"
        }
      ],
      "stateMutability": "view",
      "type": "function"
    },
    {
      "inputs": [],
      "name": "maxFreePointPerAccount",
      "outputs": [
        {
          "internalType": "uint256",
          "name": "",
          "type": "uint256"
        }
      ],
      "stateMutability": "view",
      "type": "function"
    },
    {
      "inputs": [],
      "name": "maxNumberPerAMMSwap",
      "outputs": [
        {
          "internalType": "uint256",
          "name": "",
          "type": "uint256"
        }
      ],
      "stateMutability": "view",
      "type": "function"
    },
    {
      "inputs": [],
      "name": "minDepositValue",
      "outputs": [
        {
          "internalType": "uint256",
          "name": "",
          "type": "uint256"
        }
      ],
      "stateMutability": "view",
      "type": "function"
    },
    {
      "inputs": [],
      "name": "owner",
      "outputs": [
        {
          "internalType": "address",
          "name": "",
          "type": "address"
        }
      ],
      "stateMutability": "view",
      "type": "function"
    },
    {
      "inputs": [],
      "name": "renounceOwnership",
      "outputs": [],
      "stateMutability": "nonpayable",
      "type": "function"
    },
    {
      "inputs": [],
      "name": "stopFreeBlockNum",
      "outputs": [
        {
          "internalType": "uint256",
          "name": "",
          "type": "uint256"
        }
      ],
      "stateMutability": "view",
      "type": "function"
    },
    {
      "inputs": [],
      "name": "swapFactory",
      "outputs": [
        {
          "internalType": "address",
          "name": "",
          "type": "address"
        }
      ],
      "stateMutability": "view",
      "type": "function"
    },
    {
      "inputs": [
        {
          "internalType": "address",
          "name": "",
          "type": "address"
        }
      ],
      "name": "tokenAggregatorMap",
      "outputs": [
        {
          "internalType": "address",
          "name": "",
          "type": "address"
        }
      ],
      "stateMutability": "view",
      "type": "function"
    },
    {
      "inputs": [
        {
          "internalType": "address",
          "name": "",
          "type": "address"
        }
      ],
      "name": "tokenMinAmountMap",
      "outputs": [
        {
          "internalType": "uint256",
          "name": "",
          "type": "uint256"
        }
      ],
      "stateMutability": "view",
      "type": "function"
    },
    {
      "inputs": [
        {
          "internalType": "address",
          "name": "newOwner",
          "type": "address"
        }
      ],
      "name": "transferOwnership",
      "outputs": [],
      "stateMutability": "nonpayable",
      "type": "function"
    },
    {
      "inputs": [
        {
          "internalType": "address",
          "name": "",
          "type": "address"
        }
      ],
      "name": "usableTradePointsMap",
      "outputs": [
        {
          "internalType": "uint256",
          "name": "",
          "type": "uint256"
        }
      ],
      "stateMutability": "view",
      "type": "function"
    },
    {
      "inputs": [],
      "name": "vipBaseline",
      "outputs": [
        {
          "internalType": "uint256",
          "name": "",
          "type": "uint256"
        }
      ],
      "stateMutability": "view",
      "type": "function"
    },
    {
      "inputs": [
        {
          "internalType": "uint256",
          "name": "_maxBoboTokenAmount",
          "type": "uint256"
        }
      ],
      "name": "setMaxBoboTokenAmount",
      "outputs": [],
      "stateMutability": "nonpayable",
      "type": "function"
    },
    {
      "inputs": [
        {
          "internalType": "address",
          "name": "_userAddr",
          "type": "address"
        }
      ],
      "name": "getScalePercent",
      "outputs": [
        {
          "internalType": "uint256",
          "name": "",
          "type": "uint256"
        }
      ],
      "stateMutability": "view",
      "type": "function"
    },
    {
      "inputs": [
        {
          "internalType": "address",
          "name": "_tokenAddr",
          "type": "address"
        },
        {
          "internalType": "uint256",
          "name": "_minAmount",
          "type": "uint256"
        }
      ],
      "name": "setTokenMinAmount",
      "outputs": [],
      "stateMutability": "nonpayable",
      "type": "function"
    },
    {
      "inputs": [
        {
          "internalType": "uint256",
          "name": "_maxNumber",
          "type": "uint256"
        }
      ],
      "name": "setMaxNumberPerAMMSwap",
      "outputs": [],
      "stateMutability": "nonpayable",
      "type": "function"
    },
    {
      "inputs": [
        {
          "internalType": "address",
          "name": "_feeEarnedContract",
          "type": "address"
        }
      ],
      "name": "setFeeEarnedContract",
      "outputs": [],
      "stateMutability": "nonpayable",
      "type": "function"
    },
    {
      "inputs": [
        {
          "internalType": "uint256",
          "name": "_usdtAmount",
          "type": "uint256"
        }
      ],
      "name": "buyTradePoints",
      "outputs": [],
      "stateMutability": "nonpayable",
      "type": "function"
    },
    {
      "inputs": [
        {
          "internalType": "address",
          "name": "_userAddr",
          "type": "address"
        },
        {
          "internalType": "uint256",
          "name": "_transferAmount",
          "type": "uint256"
        }
      ],
      "name": "transferTradePoints",
      "outputs": [],
      "stateMutability": "nonpayable",
      "type": "function"
    },
    {
      "inputs": [
        {
          "internalType": "address",
          "name": "_userAddr",
          "type": "address"
        },
        {
          "internalType": "address",
          "name": "_token",
          "type": "address"
        },
        {
          "internalType": "uint256",
          "name": "_amountIn",
          "type": "uint256"
        }
      ],
      "name": "deductTradeFee",
      "outputs": [
        {
          "internalType": "uint256",
          "name": "",
          "type": "uint256"
        }
      ],
      "stateMutability": "nonpayable",
      "type": "function"
    },
    {
      "inputs": [
        {
          "internalType": "address",
          "name": "_userAddr",
          "type": "address"
        },
        {
          "internalType": "address",
          "name": "_token",
          "type": "address"
        },
        {
          "internalType": "uint256",
          "name": "_amountIn",
          "type": "uint256"
        }
      ],
      "name": "evaluateDeductedAmountIn",
      "outputs": [
        {
          "internalType": "uint256",
          "name": "",
          "type": "uint256"
        },
        {
          "internalType": "uint256",
          "name": "",
          "type": "uint256"
        }
      ],
      "stateMutability": "view",
      "type": "function"
    },
    {
      "inputs": [
        {
          "internalType": "address",
          "name": "_token",
          "type": "address"
        }
      ],
      "name": "getTokenPrice",
      "outputs": [
        {
          "internalType": "uint256",
          "name": "",
          "type": "uint256"
        }
      ],
      "stateMutability": "view",
      "type": "function"
    },
    {
      "inputs": [
        {
          "internalType": "address",
          "name": "_token",
          "type": "address"
        }
      ],
      "name": "getTokenPriceOnAMM",
      "outputs": [
        {
          "internalType": "uint256",
          "name": "",
          "type": "uint256"
        }
      ],
      "stateMutability": "view",
      "type": "function"
    },
    {
      "inputs": [
        {
          "internalType": "address",
          "name": "_token",
          "type": "address"
        }
      ],
      "name": "getTokenPriceOnChainlink",
      "outputs": [
        {
          "internalType": "uint256",
          "name": "",
          "type": "uint256"
        }
      ],
      "stateMutability": "view",
      "type": "function"
    },
    {
      "inputs": [
        {
          "internalType": "uint256",
          "name": "_blockNum",
          "type": "uint256"
        }
      ],
      "name": "setStopFreeBlockNum",
      "outputs": [],
      "stateMutability": "nonpayable",
      "type": "function"
    },
    {
      "inputs": [
        {
          "internalType": "uint256",
          "name": "_feePercent",
          "type": "uint256"
        }
      ],
      "name": "setFeePercent",
      "outputs": [],
      "stateMutability": "nonpayable",
      "type": "function"
    },
    {
      "inputs": [
        {
          "internalType": "address",
          "name": "_token",
          "type": "address"
        },
        {
          "internalType": "address",
          "name": "_receiver",
          "type": "address"
        }
      ],
      "name": "withdraw",
      "outputs": [],
      "stateMutability": "nonpayable",
      "type": "function"
    },
    {
      "inputs": [
        {
          "internalType": "address",
          "name": "_token",
          "type": "address"
        },
        {
          "internalType": "address",
          "name": "_aggregator",
          "type": "address"
        }
      ],
      "name": "addAggregtor",
      "outputs": [],
      "stateMutability": "nonpayable",
      "type": "function"
    }
  ],
  "bytecode": "0x60806040526005600455600a600555620f4240600655600a60075569152d02c7e14af6800000600e5534801561003457600080fd5b506040516122fe3803806122fe8339818101604052602081101561005757600080fd5b505160006100636100ef565b600080546001600160a01b0319166001600160a01b0383169081178255604051929350917f8be0079c531659141344cd1fd0a4f28419497f9722a3daafe3b4186f6b6457e0908290a350336000908152600360205260409020612710905543620493e001600c55600d80546001600160a01b0319166001600160a01b03929092169190911790556100f3565b3390565b6121fc806101026000396000f3fe608060405234801561001057600080fd5b506004361061025e5760003560e01c8063774f89ee11610146578063c390900f116100c3578063d02641a011610087578063d02641a014610636578063f0f46e9e1461065c578063f2fde38b14610682578063f940e385146106a8578063fc0fc115146106d6578063fe9fbb80146106de5761025e565b8063c390900f146105db578063c4c0dbb7146105e3578063c54e44eb146105eb578063c63cc564146105f3578063cf1c316a146106105761025e565b806388e8135f1161010a57806388e8135f1461057757806389a302711461059d5780638da5cb5b146105a55780639eedc492146105ad578063ae05b158146105b55761025e565b8063774f89ee1461051c5780637944f944146105425780637c62028e1461054a5780637ce3489b146105525780637fd6f15c1461056f5761025e565b8063473a855a116101df5780635c191ce9116101a35780635c191ce91461046d578063614456801461047557806366e2bcb31461049b5780636831d48a146104c15780636de4f89a146104f7578063715018a6146105145761025e565b8063473a855a146103e157806354a3944b146103fe57806355fc232c14610406578063586ee0e61461042a57806359368a9a146104505761025e565b806326a3c1a71161022657806326a3c1a7146103435780632e8e24f51461036957806331a40b62146103975780633397e527146103d157806335815b95146103d95761025e565b8063070c82a8146102635780630b2cf6a91461027d5780631a65bf7b1461029c5780631d2e445f146102c85780631ee9e9e6146102f4575b600080fd5b61026b610704565b60408051918252519081900360200190f35b61029a6004803603602081101561029357600080fd5b503561070a565b005b61029a600480360360408110156102b257600080fd5b506001600160a01b038135169060200135610804565b61029a600480360360408110156102de57600080fd5b506001600160a01b038135169060200135610878565b61032a6004803603606081101561030a57600080fd5b506001600160a01b0381358116916020810135909116906040013561092c565b6040805192835260208301919091528051918290030190f35b61026b6004803603602081101561035957600080fd5b50356001600160a01b0316610ae9565b61029a6004803603604081101561037f57600080fd5b506001600160a01b0381358116916020013516610e29565b6103bd600480360360208110156103ad57600080fd5b50356001600160a01b0316610eaf565b604080519115158252519081900360200190f35b61026b610f5f565b61026b610f70565b61029a600480360360208110156103f757600080fd5b5035610f78565b61026b610fd5565b61040e610fdb565b604080516001600160a01b039092168252519081900360200190f35b61040e6004803603602081101561044057600080fd5b50356001600160a01b0316610fea565b61029a6004803603602081101561046657600080fd5b5035611005565b61026b611062565b61026b6004803603602081101561048b57600080fd5b50356001600160a01b0316611068565b61026b600480360360208110156104b157600080fd5b50356001600160a01b031661107a565b61026b600480360360608110156104d757600080fd5b506001600160a01b03813581169160208101359091169060400135611150565b61029a6004803603602081101561050d57600080fd5b50356113df565b61029a61143c565b61026b6004803603602081101561053257600080fd5b50356001600160a01b03166114de565b61040e6114f0565b61026b611508565b61029a6004803603602081101561056857600080fd5b503561150e565b61026b61156b565b61029a6004803603602081101561058d57600080fd5b50356001600160a01b0316611571565b61040e61162a565b61040e611642565b61026b611651565b61026b600480360360208110156105cb57600080fd5b50356001600160a01b0316611657565b61026b611669565b61026b61166e565b61040e611674565b61040e6004803603602081101561060957600080fd5b503561168c565b6103bd6004803603602081101561062657600080fd5b50356001600160a01b03166116e2565b61026b6004803603602081101561064c57600080fd5b50356001600160a01b031661178c565b61026b6004803603602081101561067257600080fd5b50356001600160a01b0316611838565b61029a6004803603602081101561069857600080fd5b50356001600160a01b0316611933565b61029a600480360360408110156106be57600080fd5b506001600160a01b0381358116916020013516611a2b565b61040e611b85565b6103bd600480360360208110156106f457600080fd5b50356001600160a01b0316611b94565b60065481565b60065481101561074b5760405162461bcd60e51b815260040180806020018281038252603b815260200180611fe1603b913960400191505060405180910390fd5b604080516323b872dd60e01b815233600482015230602482015260448101839052905173c2132d05d31c914a87c6611c10748aeb04b58e8f916323b872dd9160648083019260209291908290030181600087803b1580156107ab57600080fd5b505af11580156107bf573d6000803e3d6000fd5b505050506040513d60208110156107d557600080fd5b5050336000908152600360205260409020546107f19082611ba1565b3360009081526003602052604090205550565b61080c611bfb565b6000546001600160a01b0390811691161461085c576040805162461bcd60e51b815260206004820181905260248201526000805160206120a8833981519152604482015290519081900360640190fd5b6001600160a01b039091166000908152600a6020526040902055565b336000908152600360205260409020548111156108c65760405162461bcd60e51b81526004018080602001828103825260468152602001806121176046913960600191505060405180910390fd5b336000908152600360205260409020546108e09082611bff565b33600090815260036020526040808220929092556001600160a01b0384168152205461090c9082611ba1565b6001600160a01b0390921660009081526003602052604090209190915550565b600080600073c2132d05d31c914a87c6611c10748aeb04b58e8f6001600160a01b031663313ce5676040518163ffffffff1660e01b815260040160206040518083038186803b15801561097e57600080fd5b505afa158015610992573d6000803e3d6000fd5b505050506040513d60208110156109a857600080fd5b50516040805163313ce56760e01b8152905160ff90921692506000916001600160a01b0388169163313ce567916004808301926020929190829003018186803b1580156109f457600080fd5b505afa158015610a08573d6000803e3d6000fd5b505050506040513d6020811015610a1e57600080fd5b505160ff1690506000610a308761178c565b90506000610a3d8961107a565b90506000610a72612710610a6c612710610a6c86610a666004548f611c4190919063ffffffff16565b90611c41565b90611c9a565b90506000610a9f85600a0a610a6c6305f5e100610a6c8a600a0a610a66888b611c4190919063ffffffff16565b6001600160a01b038c166000908152600360205260409020549091508111610ad257600097509550610ae1945050505050565b9096509450610ae19350505050565b935093915050565b60006001600160a01b03821673c2132d05d31c914a87c6611c10748aeb04b58e8f1480610b3257506001600160a01b038216732791bca1f2de4661ed88a30c99a7a9449aa84174145b15610b4257506305f5e100610e24565b6000806001600160a01b03841673c2132d05d31c914a87c6611c10748aeb04b58e8f10610b84578373c2132d05d31c914a87c6611c10748aeb04b58e8f610b9b565b73c2132d05d31c914a87c6611c10748aeb04b58e8f845b915091506000735757371414417b8c6caad45baef941abc7d3ab326001600160a01b031663e6a4390584846040518363ffffffff1660e01b815260040180836001600160a01b03168152602001826001600160a01b031681526020019250505060206040518083038186803b158015610c1357600080fd5b505afa158015610c27573d6000803e3d6000fd5b505050506040513d6020811015610c3d57600080fd5b505160408051630240bc6b60e21b8152905191925060009182916001600160a01b03851691630902f1ac91600480820192606092909190829003018186803b158015610c8857600080fd5b505afa158015610c9c573d6000803e3d6000fd5b505050506040513d6060811015610cb257600080fd5b5080516020918201516040805163313ce56760e01b815290516dffffffffffffffffffffffffffff938416965092909116935060009273c2132d05d31c914a87c6611c10748aeb04b58e8f9263313ce567926004808201939291829003018186803b158015610d2057600080fd5b505afa158015610d34573d6000803e3d6000fd5b505050506040513d6020811015610d4a57600080fd5b50516040805163313ce56760e01b815290516001600160a01b038b169163313ce567916004808301926020929190829003018186803b158015610d8c57600080fd5b505afa158015610da0573d6000803e3d6000fd5b505050506040513d6020811015610db657600080fd5b50510360ff16905073c2132d05d31c914a87c6611c10748aeb04b58e8f6001600160a01b03871614610e0157610dfc83610a6c600a84900a610a66866305f5e100611c41565b610e1b565b610e1b82610a6c600a84900a610a66876305f5e100611c41565b96505050505050505b919050565b610e31611bfb565b6000546001600160a01b03908116911614610e81576040805162461bcd60e51b815260206004820181905260248201526000805160206120a8833981519152604482015290519081900360640190fd5b6001600160a01b039182166000908152600b6020526040902080546001600160a01b03191691909216179055565b6000610eb9611bfb565b6000546001600160a01b03908116911614610f09576040805162461bcd60e51b815260206004820181905260248201526000805160206120a8833981519152604482015290519081900360640190fd5b6001600160a01b038216610f4e5760405162461bcd60e51b81526004018080602001828103825260358152602001806121926035913960400191505060405180910390fd5b610f59600183611cdc565b92915050565b6000610f6b6001611cf1565b905090565b6305f5e10081565b610f80611bfb565b6000546001600160a01b03908116911614610fd0576040805162461bcd60e51b815260206004820181905260248201526000805160206120a8833981519152604482015290519081900360640190fd5b600755565b600c5481565b600d546001600160a01b031681565b600b602052600090815260409020546001600160a01b031681565b61100d611bfb565b6000546001600160a01b0390811691161461105d576040805162461bcd60e51b815260206004820181905260248201526000805160206120a8833981519152604482015290519081900360640190fd5b600c55565b60075481565b60036020526000908152604090205481565b600d54604080516370a0823160e01b81526001600160a01b0384811660048301529151600093849316916370a08231916024808301926020929190829003018186803b1580156110c957600080fd5b505afa1580156110dd573d6000803e3d6000fd5b505050506040513d60208110156110f357600080fd5b5051600e5490915061110690600a611c9a565b81101561111857612710915050610e24565b600e5461112690600a611c9a565b8111156111325750600e545b600e5461114590610a6c83611388611c41565b612710039392505050565b600061115b33611b94565b6111a4576040805162461bcd60e51b815260206004820152601560248201527414d15391115497d393d517d055551213d492569151605a1b604482015290519081900360640190fd5b6005546001600160a01b0385166000908152600960205260409020541080156111ce5750600c5443105b156111f857506001600160a01b0383166000908152600960205260408120805460010190556113d8565b600073c2132d05d31c914a87c6611c10748aeb04b58e8f6001600160a01b031663313ce5676040518163ffffffff1660e01b815260040160206040518083038186803b15801561124757600080fd5b505afa15801561125b573d6000803e3d6000fd5b505050506040513d602081101561127157600080fd5b50516040805163313ce56760e01b8152905160ff90921692506000916001600160a01b0387169163313ce567916004808301926020929190829003018186803b1580156112bd57600080fd5b505afa1580156112d1573d6000803e3d6000fd5b505050506040513d60208110156112e757600080fd5b505160ff16905060006112f98661178c565b905060006113068861107a565b9050600061132f612710610a6c612710610a6c86610a666004548e611c4190919063ffffffff16565b9050600061135c85600a0a610a6c6305f5e100610a6c8a600a0a610a66888b611c4190919063ffffffff16565b6001600160a01b038b1660009081526003602052604090205490915081116113cb576001600160a01b038a166000908152600360205260409020546113a19082611bff565b6001600160a01b038b1660009081526003602052604081209190915596506113d895505050505050565b5094506113d89350505050565b9392505050565b6113e7611bfb565b6000546001600160a01b03908116911614611437576040805162461bcd60e51b815260206004820181905260248201526000805160206120a8833981519152604482015290519081900360640190fd5b600e55565b611444611bfb565b6000546001600160a01b03908116911614611494576040805162461bcd60e51b815260206004820181905260248201526000805160206120a8833981519152604482015290519081900360640190fd5b600080546040516001600160a01b03909116907f8be0079c531659141344cd1fd0a4f28419497f9722a3daafe3b4186f6b6457e0908390a3600080546001600160a01b0319169055565b600a6020526000908152604090205481565b735757371414417b8c6caad45baef941abc7d3ab3281565b60055481565b611516611bfb565b6000546001600160a01b03908116911614611566576040805162461bcd60e51b815260206004820181905260248201526000805160206120a8833981519152604482015290519081900360640190fd5b600455565b60045481565b611579611bfb565b6000546001600160a01b039081169116146115c9576040805162461bcd60e51b815260206004820181905260248201526000805160206120a8833981519152604482015290519081900360640190fd5b803b806116075760405162461bcd60e51b81526004018080602001828103825260298152602001806120ee6029913960400191505060405180910390fd5b50600880546001600160a01b0319166001600160a01b0392909216919091179055565b732791bca1f2de4661ed88a30c99a7a9449aa8417481565b6000546001600160a01b031690565b61271081565b60096020526000908152604090205481565b600a81565b600e5481565b73c2132d05d31c914a87c6611c10748aeb04b58e8f81565b60006001611698610f5f565b038211156116d75760405162461bcd60e51b81526004018080602001828103825260268152602001806120c86026913960400191505060405180910390fd5b610f59600183611cfc565b60006116ec611bfb565b6000546001600160a01b0390811691161461173c576040805162461bcd60e51b815260206004820181905260248201526000805160206120a8833981519152604482015290519081900360640190fd5b6001600160a01b0382166117815760405162461bcd60e51b815260040180806020018281038252603581526020018061215d6035913960400191505060405180910390fd5b610f59600183611d08565b60008061179883610ae9565b905060006117a584611838565b9050806117b457509050610e24565b6000818311156117d9576117d282610a6c6103e8610a668784611bff565b90506117f0565b6117ed83610a6c6103e8610a668684611bff565b90505b60648111156118305760405162461bcd60e51b81526004018080602001828103825260458152602001806120426045913960600191505060405180910390fd5b509392505050565b60006001600160a01b03821673c2132d05d31c914a87c6611c10748aeb04b58e8f148061188157506001600160a01b038216732791bca1f2de4661ed88a30c99a7a9449aa84174145b1561189157506305f5e100610e24565b6001600160a01b038083166000908152600b602052604090205416806118bb576000915050610e24565b60008190506000816001600160a01b031663feaf968c6040518163ffffffff1660e01b815260040160a06040518083038186803b1580156118fb57600080fd5b505afa15801561190f573d6000803e3d6000fd5b505050506040513d60a081101561192557600080fd5b506020015195945050505050565b61193b611bfb565b6000546001600160a01b0390811691161461198b576040805162461bcd60e51b815260206004820181905260248201526000805160206120a8833981519152604482015290519081900360640190fd5b6001600160a01b0381166119d05760405162461bcd60e51b815260040180806020018281038252602681526020018061201c6026913960400191505060405180910390fd5b600080546040516001600160a01b03808516939216917f8be0079c531659141344cd1fd0a4f28419497f9722a3daafe3b4186f6b6457e091a3600080546001600160a01b0319166001600160a01b0392909216919091179055565b611a33611bfb565b6000546001600160a01b03908116911614611a83576040805162461bcd60e51b815260206004820181905260248201526000805160206120a8833981519152604482015290519081900360640190fd5b6000826001600160a01b03166370a08231306040518263ffffffff1660e01b815260040180826001600160a01b0316815260200191505060206040518083038186803b158015611ad257600080fd5b505afa158015611ae6573d6000803e3d6000fd5b505050506040513d6020811015611afc57600080fd5b50516040805163a9059cbb60e01b81526001600160a01b0385811660048301526024820184905291519293509085169163a9059cbb916044808201926020929091908290030181600087803b158015611b5457600080fd5b505af1158015611b68573d6000803e3d6000fd5b505050506040513d6020811015611b7e57600080fd5b5050505050565b6008546001600160a01b031681565b6000610f59600183611d1d565b6000828201838110156113d8576040805162461bcd60e51b815260206004820152601b60248201527f536166654d6174683a206164646974696f6e206f766572666c6f770000000000604482015290519081900360640190fd5b3390565b60006113d883836040518060400160405280601e81526020017f536166654d6174683a207375627472616374696f6e206f766572666c6f770000815250611d32565b600082611c5057506000610f59565b82820282848281611c5d57fe5b04146113d85760405162461bcd60e51b81526004018080602001828103825260218152602001806120876021913960400191505060405180910390fd5b60006113d883836040518060400160405280601a81526020017f536166654d6174683a206469766973696f6e206279207a65726f000000000000815250611dc9565b60006113d8836001600160a01b038416611e2e565b6000610f5982611ef4565b60006113d88383611ef8565b60006113d8836001600160a01b038416611f5c565b60006113d8836001600160a01b038416611fa6565b60008184841115611dc15760405162461bcd60e51b81526004018080602001828103825283818151815260200191508051906020019080838360005b83811015611d86578181015183820152602001611d6e565b50505050905090810190601f168015611db35780820380516001836020036101000a031916815260200191505b509250505060405180910390fd5b505050900390565b60008183611e185760405162461bcd60e51b8152602060048201818152835160248401528351909283926044909101919085019080838360008315611d86578181015183820152602001611d6e565b506000838581611e2457fe5b0495945050505050565b60008181526001830160205260408120548015611eea5783546000198083019190810190600090879083908110611e6157fe5b9060005260206000200154905080876000018481548110611e7e57fe5b600091825260208083209091019290925582815260018981019092526040902090840190558654879080611eae57fe5b60019003818190600052602060002001600090559055866001016000878152602001908152602001600020600090556001945050505050610f59565b6000915050610f59565b5490565b81546000908210611f3a5760405162461bcd60e51b8152600401808060200182810382526022815260200180611fbf6022913960400191505060405180910390fd5b826000018281548110611f4957fe5b9060005260206000200154905092915050565b6000611f688383611fa6565b611f9e57508154600181810184556000848152602080822090930184905584548482528286019093526040902091909155610f59565b506000610f59565b6000908152600191909101602052604090205415159056fe456e756d657261626c655365743a20696e646578206f7574206f6620626f756e647345584d616e616765723a205553445420616d6f756e74206d75737420626520626967676572207468616e206d696e4465706f73697456616c75652e4f776e61626c653a206e6577206f776e657220697320746865207a65726f206164647265737345584d616e616765723a2074686520707269636520676170206265747765656e20636861696e6c696e6b20616e6420414d4d206973206c61726765207468616e203130252e536166654d6174683a206d756c7469706c69636174696f6e206f766572666c6f774f776e61626c653a2063616c6c6572206973206e6f7420746865206f776e65724d6978696e417574686f72697a61626c653a20696e646578206f7574206f6620626f756e647345584d616e616765723a204f6e6c7920737570706f727420636f6e747261637420616464726573732e45584d616e616765723a20796f7572206c65667420747261646520706f696e7473206d75737420626520626967676572207468616e205f7472616e73666572416d6f756e742e4d6978696e417574686f72697a61626c653a205f616464417574686f72697a656420697320746865207a65726f20616464726573734d6978696e417574686f72697a61626c653a205f64656c417574686f72697a656420697320746865207a65726f2061646472657373a2646970667358221220fb1c5129734bedf974f9d23953e9766051e77e7b26a0972d47054e42bc43704764736f6c634300060c0033",
  "immutableReferences": {},
  "source": "// SPDX-License-Identifier: MIT\npragma solidity ^0.6.0;\n\nimport \"../common/BasicStruct.sol\";\nimport \"../SwapInterfaces.sol\";\nimport \"../common/MixinAuthorizable.sol\";\n\ncontract EXManager is MixinAuthorizable {\n    using SafeMath for uint256;\n\n    address public constant USDT = 0xc2132D05D31c914a87C6611C10748AEb04B58e8F;\n    address public constant USDC = 0x2791Bca1f2de4661ED88A30C99A7a9449Aa84174;\n    address public constant swapFactory = 0x5757371414417b8C6CAad45bAeF941aBc7d3Ab32;      // quickswap\n\n    uint256 constant public vipBaseline = 10;\n    mapping(address => uint256) public usableTradePointsMap;  // \n    \n    uint256 public constant FACTOR = 1e8;\n    uint256 public feePercent = 5;\n    uint256 constant public BasePercent = 10000;\n    uint256 public maxFreePointPerAccount = 10;\n    uint256 public minDepositValue = 1e6;       // U\n    uint256 public maxNumberPerAMMSwap = 10;    // AMM\n    address public feeEarnedContract;           // \n    \n    mapping(address => uint256) public accountFreePointMap;   // \n    mapping(address => uint256) public tokenMinAmountMap;     // \n    mapping(address => address) public tokenAggregatorMap;    // tokenchainlink\n    uint256 public stopFreeBlockNum;\n\n    address public boboToken;\n    uint256 public maxBoboTokenAmount = 1e23;  // Bobo10Bobo9\n    \n    constructor (address _boboToken) public {\n        usableTradePointsMap[msg.sender] = 10000;\n        stopFreeBlockNum = block.number + 300000;\n        boboToken = _boboToken;\n    }\n\n    function setMaxBoboTokenAmount(uint256 _maxBoboTokenAmount) public onlyOwner {\n        maxBoboTokenAmount = _maxBoboTokenAmount;\n    }\n\n    // Bobo50%5%\n    function getScalePercent(address _userAddr) view public returns(uint256) {\n        uint256 boboAmount = ERC20(boboToken).balanceOf(_userAddr);\n        if (boboAmount < maxBoboTokenAmount.div(10)) return 10000;\n\n        if (boboAmount > maxBoboTokenAmount.div(10)) boboAmount = maxBoboTokenAmount;\n\n        return 10000 - boboAmount.mul(5000).div(maxBoboTokenAmount);\n    }\n    \n    function setTokenMinAmount(address _tokenAddr, uint256 _minAmount) public onlyOwner {\n        tokenMinAmountMap[_tokenAddr] = _minAmount;\n    }\n    \n    function setMaxNumberPerAMMSwap(uint256 _maxNumber) public onlyOwner {\n        maxNumberPerAMMSwap = _maxNumber;\n    }\n    \n    function setFeeEarnedContract(address _feeEarnedContract) public onlyOwner {\n        uint256 size;\n        assembly {\n            size := extcodesize(_feeEarnedContract)\n        }\n        require(size > 0, \"EXManager: Only support contract address.\");\n        feeEarnedContract = _feeEarnedContract;\n    }\n    \n    // U\n    function buyTradePoints(uint256 _usdtAmount) public {\n        require(_usdtAmount >= minDepositValue, \"EXManager: USDT amount must be bigger than minDepositValue.\");\n        ERC20(USDT).transferFrom(msg.sender, address(this), _usdtAmount);\n        usableTradePointsMap[msg.sender] = usableTradePointsMap[msg.sender].add(_usdtAmount);\n    }\n\n    // \n    function transferTradePoints(address _userAddr, uint256 _transferAmount) public {\n        require(usableTradePointsMap[msg.sender] >= _transferAmount, \"EXManager: your left trade points must be bigger than _transferAmount.\");\n\n        usableTradePointsMap[msg.sender] = usableTradePointsMap[msg.sender].sub(_transferAmount);\n        usableTradePointsMap[_userAddr] = usableTradePointsMap[_userAddr].add(_transferAmount);\n    }\n\n    // \n    // (stopFreeBlockNum)(maxFreePointPerAccount)\n    function deductTradeFee(address _userAddr, address _token, uint256 _amountIn) public onlyAuthorized returns(uint256) {\n        if (accountFreePointMap[_userAddr] < maxFreePointPerAccount && block.number < stopFreeBlockNum) {\n            accountFreePointMap[_userAddr]++;\n            return 0;\n        }\n\n        uint256 usdtDecimals = ERC20(USDT).decimals();\n        uint256 tokenDecimals = ERC20(_token).decimals();\n        uint256 tokenPrice = getTokenPrice(_token);  // *10^8\n        \n        uint256 scalePercent = getScalePercent(_userAddr);  // BOBO\n        uint256 tokenAmount4Fee = _amountIn.mul(feePercent).mul(scalePercent).div(BasePercent).div(BasePercent);\n                                 \n        uint256 usdtAmount4Fee = tokenPrice.mul(tokenAmount4Fee).mul(10**usdtDecimals).div(FACTOR).div(10**tokenDecimals);\n        if (usableTradePointsMap[_userAddr] >= usdtAmount4Fee) {\n            usableTradePointsMap[_userAddr] = usableTradePointsMap[_userAddr].sub(usdtAmount4Fee);\n            return 0;\n        } else {\n            return tokenAmount4Fee;\n        }\n    }\n\n    function evaluateDeductedAmountIn(address _userAddr, address _token, uint256 _amountIn) view public returns(uint256, uint256) {\n        uint256 usdtDecimals = ERC20(USDT).decimals();\n        uint256 tokenDecimals = ERC20(_token).decimals();\n        uint256 tokenPrice = getTokenPrice(_token);  // *10^8\n        \n        uint256 scalePercent = getScalePercent(_userAddr);  // BOBO\n        uint256 tokenAmount4Fee = _amountIn.mul(feePercent).mul(scalePercent).div(BasePercent).div(BasePercent);\n\n        uint256 usdtAmount4Fee = tokenPrice.mul(tokenAmount4Fee).mul(10**usdtDecimals).div(FACTOR).div(10**tokenDecimals);\n        if (usableTradePointsMap[_userAddr] >= usdtAmount4Fee) {\n            return (0, usdtAmount4Fee);\n        } else {\n            return (tokenAmount4Fee, usdtAmount4Fee);\n        }\n    }\n\n    function getTokenPrice(address _token) public view returns(uint256) {\n        uint256 priceOnAMM = getTokenPriceOnAMM(_token);\n        uint256 priceOnChainlink = getTokenPriceOnChainlink(_token);\n        if(priceOnChainlink == 0) return priceOnAMM;\n\n        uint256 gap = 0;\n        if (priceOnAMM > priceOnChainlink) {\n            gap = priceOnAMM.sub(priceOnChainlink).mul(1000).div(priceOnChainlink);\n        } else {\n            gap = priceOnChainlink.sub(priceOnAMM).mul(1000).div(priceOnAMM);\n        }\n        require(gap <= 100, \"EXManager: the price gap between chainlink and AMM is large than 10%.\");\n        return priceOnChainlink;\n    }\n\n    function getTokenPriceOnAMM(address _token) public view returns(uint256) {\n        if (_token == USDT || _token == USDC) return 1 * FACTOR;\n\n        (address token0, address token1) = USDT < _token ? (USDT, _token) : (_token, USDT);\n        address pairAddr = ICommonFactory(swapFactory).getPair(token0, token1);\n        (uint256 reserveA, uint256 reserveB,) = ICommonPair(pairAddr).getReserves();\n        uint256 decimalsGap = ERC20(_token).decimals() - ERC20(USDT).decimals();\n        // chainlink10^8FACTOR, FACTORU1.1U,1.12U\n        return token0 == USDT ? reserveA.mul(FACTOR).mul(10**decimalsGap).div(reserveB) : reserveB.mul(FACTOR).mul(10**decimalsGap).div(reserveA);\n    }\n    \n    // chainlinkU10^8\n    function getTokenPriceOnChainlink(address _token) public view returns(uint256) {\n        if (_token == USDT || _token == USDC) return 1 * FACTOR;\n\n        address aggregatorAddr = tokenAggregatorMap[_token];\n        if (aggregatorAddr == address(0)) return 0;\n\n        AggregatorV3Interface priceFeed = AggregatorV3Interface(aggregatorAddr);\n        (, int price,,,) = priceFeed.latestRoundData();\n        return uint256(price);\n    }\n    \n    function setStopFreeBlockNum(uint256 _blockNum) public onlyOwner {\n        stopFreeBlockNum = _blockNum;\n    }\n\n    function setFeePercent(uint256 _feePercent) public onlyOwner {\n        feePercent = _feePercent;\n    }\n    \n    function withdraw(address _token, address _receiver) public onlyOwner {\n        uint256 amount = ERC20(_token).balanceOf(address(this));\n        ERC20(_token).transfer(_receiver, amount);\n    }\n    \n    function addAggregtor(address _token, address _aggregator) public onlyOwner {\n        tokenAggregatorMap[_token] = _aggregator;\n    }\n}",
  "sourcePath": "/Users/mryu/blockchain/bobo-metaverse/boboswap-contract/contracts/manager/EXManager.sol",
  "compiler": {
    "name": "solc",
    "version": "0.6.12+commit.27d51765.Emscripten.clang"
  },
  "schemaVersion": "3.4.3",
  "updatedAt": "2021-08-27T15:19:24.083Z",
  "devdoc": {
    "kind": "dev",
    "methods": {
      "owner()": {
        "details": "Returns the address of the current owner."
      },
      "renounceOwnership()": {
        "details": "Leaves the contract without owner. It will not be possible to call `onlyOwner` functions anymore. Can only be called by the current owner. NOTE: Renouncing ownership will leave the contract without an owner, thereby removing any functionality that is only available to the owner."
      },
      "transferOwnership(address)": {
        "details": "Transfers ownership of the contract to a new account (`newOwner`). Can only be called by the current owner."
      }
    },
    "version": 1
  },
  "userdoc": {
    "kind": "user",
    "methods": {},
    "version": 1
  }
}