{
  "contractName": "MathEX",
  "abi": [
    {
      "inputs": [
        {
          "internalType": "uint256",
          "name": "x",
          "type": "uint256"
        }
      ],
      "name": "sqrt",
      "outputs": [
        {
          "internalType": "uint256",
          "name": "",
          "type": "uint256"
        }
      ],
      "stateMutability": "pure",
      "type": "function"
    }
  ],
  "bytecode": "0x60cf610025600b82828239805160001a60731461001857fe5b30600052607381538281f3fe730000000000000000000000000000000000000000301460806040526004361060335760003560e01c8063677342ce146038575b600080fd5b605260048036036020811015604c57600080fd5b50356064565b60408051918252519081900360200190f35b600060026001830104825b808210156092575080600281808681608357fe5b040181608b57fe5b049150606f565b939250505056fea26469706673582212202ab4aa4d21c7b5cf83fcd39ba88ffd8c282f525ace0468296810eb33d8b6e26364736f6c634300060c0033",
  "immutableReferences": {},
  "source": "// SPDX-License-Identifier: MIT\npragma solidity ^0.6.0;\n\nlibrary MathEX {\n  function sqrt(uint256 x) public pure returns(uint256) {\n    uint z = (x + 1 ) / 2;\n    uint y = x;\n    while(z < y){\n      y = z;\n      z = ( x / z + z ) / 2;\n    }\n    return y;\n  }\n}\n\n\n",
  "sourcePath": "/Users/mryu/blockchain/bobo-metaverse/boboswap-contract/contracts/common/MathEX.sol",
  "compiler": {
    "name": "solc",
    "version": "0.6.12+commit.27d51765.Emscripten.clang"
  },
  "schemaVersion": "3.4.3",
  "updatedAt": "2021-08-20T15:32:39.322Z",
  "devdoc": {
    "kind": "dev",
    "methods": {},
    "version": 1
  },
  "userdoc": {
    "kind": "user",
    "methods": {},
    "version": 1
  }
}