{
  "contractName": "Minter",
  "abi": [
    {
      "inputs": [],
      "stateMutability": "nonpayable",
      "type": "constructor"
    },
    {
      "anonymous": false,
      "inputs": [
        {
          "indexed": true,
          "internalType": "address",
          "name": "previousOwner",
          "type": "address"
        },
        {
          "indexed": true,
          "internalType": "address",
          "name": "newOwner",
          "type": "address"
        }
      ],
      "name": "OwnershipTransferred",
      "type": "event"
    },
    {
      "inputs": [],
      "name": "owner",
      "outputs": [
        {
          "internalType": "address",
          "name": "",
          "type": "address"
        }
      ],
      "stateMutability": "view",
      "type": "function"
    },
    {
      "inputs": [],
      "name": "renounceOwnership",
      "outputs": [],
      "stateMutability": "nonpayable",
      "type": "function"
    },
    {
      "inputs": [
        {
          "internalType": "address",
          "name": "newOwner",
          "type": "address"
        }
      ],
      "name": "transferOwnership",
      "outputs": [],
      "stateMutability": "nonpayable",
      "type": "function"
    },
    {
      "inputs": [
        {
          "internalType": "address",
          "name": "_addMinter",
          "type": "address"
        }
      ],
      "name": "addMinter",
      "outputs": [
        {
          "internalType": "bool",
          "name": "",
          "type": "bool"
        }
      ],
      "stateMutability": "nonpayable",
      "type": "function"
    },
    {
      "inputs": [
        {
          "internalType": "address",
          "name": "_delMinter",
          "type": "address"
        }
      ],
      "name": "delMinter",
      "outputs": [
        {
          "internalType": "bool",
          "name": "",
          "type": "bool"
        }
      ],
      "stateMutability": "nonpayable",
      "type": "function"
    },
    {
      "inputs": [],
      "name": "getMinterLength",
      "outputs": [
        {
          "internalType": "uint256",
          "name": "",
          "type": "uint256"
        }
      ],
      "stateMutability": "view",
      "type": "function"
    },
    {
      "inputs": [
        {
          "internalType": "address",
          "name": "account",
          "type": "address"
        }
      ],
      "name": "isMinter",
      "outputs": [
        {
          "internalType": "bool",
          "name": "",
          "type": "bool"
        }
      ],
      "stateMutability": "view",
      "type": "function"
    },
    {
      "inputs": [
        {
          "internalType": "uint256",
          "name": "_index",
          "type": "uint256"
        }
      ],
      "name": "getMinter",
      "outputs": [
        {
          "internalType": "address",
          "name": "",
          "type": "address"
        }
      ],
      "stateMutability": "view",
      "type": "function"
    }
  ],
  "bytecode": "0x608060405234801561001057600080fd5b50600061001b61006a565b600080546001600160a01b0319166001600160a01b0383169081178255604051929350917f8be0079c531659141344cd1fd0a4f28419497f9722a3daafe3b4186f6b6457e0908290a35061006e565b3390565b61085e8061007d6000396000f3fe608060405234801561001057600080fd5b50600436106100885760003560e01c80638da5cb5b1161005b5780638da5cb5b14610124578063983b2d561461012c578063aa271e1a14610152578063f2fde38b1461017857610088565b80630323aac71461008d57806323338b88146100a75780635b7121f8146100e1578063715018a61461011a575b600080fd5b61009561019e565b60408051918252519081900360200190f35b6100cd600480360360208110156100bd57600080fd5b50356001600160a01b03166101af565b604080519115158252519081900360200190f35b6100fe600480360360208110156100f757600080fd5b503561025f565b604080516001600160a01b039092168252519081900360200190f35b610122610323565b005b6100fe6103c5565b6100cd6004803603602081101561014257600080fd5b50356001600160a01b03166103d4565b6100cd6004803603602081101561016857600080fd5b50356001600160a01b031661047e565b6101226004803603602081101561018e57600080fd5b50356001600160a01b031661048b565b60006101aa6001610583565b905090565b60006101b961058e565b6000546001600160a01b03908116911614610209576040805162461bcd60e51b815260206004820181905260248201526000805160206107e3833981519152604482015290519081900360640190fd5b6001600160a01b03821661024e5760405162461bcd60e51b81526004018080602001828103825260268152602001806108036026913960400191505060405180910390fd5b610259600183610592565b92915050565b600061026961058e565b6000546001600160a01b039081169116146102b9576040805162461bcd60e51b815260206004820181905260248201526000805160206107e3833981519152604482015290519081900360640190fd5b60016102c361019e565b03821115610318576040805162461bcd60e51b815260206004820152601b60248201527f546f6d4361743a20696e646578206f7574206f6620626f756e64730000000000604482015290519081900360640190fd5b6102596001836105ae565b61032b61058e565b6000546001600160a01b0390811691161461037b576040805162461bcd60e51b815260206004820181905260248201526000805160206107e3833981519152604482015290519081900360640190fd5b600080546040516001600160a01b03909116907f8be0079c531659141344cd1fd0a4f28419497f9722a3daafe3b4186f6b6457e0908390a3600080546001600160a01b0319169055565b6000546001600160a01b031690565b60006103de61058e565b6000546001600160a01b0390811691161461042e576040805162461bcd60e51b815260206004820181905260248201526000805160206107e3833981519152604482015290519081900360640190fd5b6001600160a01b0382166104735760405162461bcd60e51b81526004018080602001828103825260268152602001806107bd6026913960400191505060405180910390fd5b6102596001836105ba565b60006102596001836105cf565b61049361058e565b6000546001600160a01b039081169116146104e3576040805162461bcd60e51b815260206004820181905260248201526000805160206107e3833981519152604482015290519081900360640190fd5b6001600160a01b0381166105285760405162461bcd60e51b81526004018080602001828103825260268152602001806107976026913960400191505060405180910390fd5b600080546040516001600160a01b03808516939216917f8be0079c531659141344cd1fd0a4f28419497f9722a3daafe3b4186f6b6457e091a3600080546001600160a01b0319166001600160a01b0392909216919091179055565b6000610259826105e4565b3390565b60006105a7836001600160a01b0384166105e8565b9392505050565b60006105a783836106ae565b60006105a7836001600160a01b038416610712565b60006105a7836001600160a01b03841661075c565b5490565b600081815260018301602052604081205480156106a4578354600019808301919081019060009087908390811061061b57fe5b906000526020600020015490508087600001848154811061063857fe5b60009182526020808320909101929092558281526001898101909252604090209084019055865487908061066857fe5b60019003818190600052602060002001600090559055866001016000878152602001908152602001600020600090556001945050505050610259565b6000915050610259565b815460009082106106f05760405162461bcd60e51b81526004018080602001828103825260228152602001806107756022913960400191505060405180910390fd5b8260000182815481106106ff57fe5b9060005260206000200154905092915050565b600061071e838361075c565b61075457508154600181810184556000848152602080822090930184905584548482528286019093526040902091909155610259565b506000610259565b6000908152600191909101602052604090205415159056fe456e756d657261626c655365743a20696e646578206f7574206f6620626f756e64734f776e61626c653a206e6577206f776e657220697320746865207a65726f2061646472657373546f6d4361743a205f6164644d696e74657220697320746865207a65726f20616464726573734f776e61626c653a2063616c6c6572206973206e6f7420746865206f776e6572546f6d4361743a205f64656c4d696e74657220697320746865207a65726f2061646472657373a26469706673582212205356ac9d1d7e5916b32ffa84b8687a8ce723f20f99c9273f8ca37221aebd753d64736f6c634300060c0033",
  "immutableReferences": {},
  "source": "// SPDX-License-Identifier: MIT\npragma solidity ^0.6.0;\n\nimport \"./BasicStruct.sol\";\n\ncontract Minter is Ownable {\n    using EnumerableSet for EnumerableSet.AddressSet;\n    EnumerableSet.AddressSet private _minters;\n    \n    // modifier for mint function\n    modifier onlyMinter() {\n        require(isMinter(msg.sender), \"caller is not the minter\");\n        _;\n    }\n    \n    constructor() public {\n    }\n\n    function addMinter(address _addMinter) public onlyOwner returns (bool) {\n        require(_addMinter != address(0), \"TomCat: _addMinter is the zero address\");\n        return EnumerableSet.add(_minters, _addMinter);\n    }\n\n    function delMinter(address _delMinter) public onlyOwner returns (bool) {\n        require(_delMinter != address(0), \"TomCat: _delMinter is the zero address\");\n        return EnumerableSet.remove(_minters, _delMinter);\n    }\n\n    function getMinterLength() public view returns (uint256) {\n        return EnumerableSet.length(_minters);\n    }\n\n    function isMinter(address account) public view returns (bool) {\n        return EnumerableSet.contains(_minters, account);\n    }\n\n    function getMinter(uint256 _index) public view onlyOwner returns (address){\n        require(_index <= getMinterLength() - 1, \"TomCat: index out of bounds\");\n        return EnumerableSet.at(_minters, _index);\n    }\n    \n}",
  "sourcePath": "/Users/mryu/blockchain/bobo-metaverse/bookswap-mobile/src/assets/contracts/boboswap-contract/contracts/common/Minter.sol",
  "compiler": {
    "name": "solc",
    "version": "0.6.12+commit.27d51765.Emscripten.clang"
  },
  "schemaVersion": "3.4.3",
  "updatedAt": "2021-08-30T03:58:30.365Z",
  "devdoc": {
    "kind": "dev",
    "methods": {
      "owner()": {
        "details": "Returns the address of the current owner."
      },
      "renounceOwnership()": {
        "details": "Leaves the contract without owner. It will not be possible to call `onlyOwner` functions anymore. Can only be called by the current owner. NOTE: Renouncing ownership will leave the contract without an owner, thereby removing any functionality that is only available to the owner."
      },
      "transferOwnership(address)": {
        "details": "Transfers ownership of the contract to a new account (`newOwner`). Can only be called by the current owner."
      }
    },
    "version": 1
  },
  "userdoc": {
    "kind": "user",
    "methods": {},
    "version": 1
  }
}