{
  "contractName": "MixinAuthorizable",
  "abi": [
    {
      "inputs": [],
      "stateMutability": "nonpayable",
      "type": "constructor"
    },
    {
      "anonymous": false,
      "inputs": [
        {
          "indexed": true,
          "internalType": "address",
          "name": "previousOwner",
          "type": "address"
        },
        {
          "indexed": true,
          "internalType": "address",
          "name": "newOwner",
          "type": "address"
        }
      ],
      "name": "OwnershipTransferred",
      "type": "event"
    },
    {
      "inputs": [],
      "name": "owner",
      "outputs": [
        {
          "internalType": "address",
          "name": "",
          "type": "address"
        }
      ],
      "stateMutability": "view",
      "type": "function"
    },
    {
      "inputs": [],
      "name": "renounceOwnership",
      "outputs": [],
      "stateMutability": "nonpayable",
      "type": "function"
    },
    {
      "inputs": [
        {
          "internalType": "address",
          "name": "newOwner",
          "type": "address"
        }
      ],
      "name": "transferOwnership",
      "outputs": [],
      "stateMutability": "nonpayable",
      "type": "function"
    },
    {
      "inputs": [
        {
          "internalType": "address",
          "name": "_authorizedAddr",
          "type": "address"
        }
      ],
      "name": "addAuthorized",
      "outputs": [
        {
          "internalType": "bool",
          "name": "",
          "type": "bool"
        }
      ],
      "stateMutability": "nonpayable",
      "type": "function"
    },
    {
      "inputs": [
        {
          "internalType": "address",
          "name": "_authorizedAddr",
          "type": "address"
        }
      ],
      "name": "delAuthorized",
      "outputs": [
        {
          "internalType": "bool",
          "name": "",
          "type": "bool"
        }
      ],
      "stateMutability": "nonpayable",
      "type": "function"
    },
    {
      "inputs": [],
      "name": "getAuthorizedLength",
      "outputs": [
        {
          "internalType": "uint256",
          "name": "",
          "type": "uint256"
        }
      ],
      "stateMutability": "view",
      "type": "function"
    },
    {
      "inputs": [
        {
          "internalType": "address",
          "name": "_authorizedAddr",
          "type": "address"
        }
      ],
      "name": "isAuthorized",
      "outputs": [
        {
          "internalType": "bool",
          "name": "",
          "type": "bool"
        }
      ],
      "stateMutability": "view",
      "type": "function"
    },
    {
      "inputs": [
        {
          "internalType": "uint256",
          "name": "_index",
          "type": "uint256"
        }
      ],
      "name": "getAuthorized",
      "outputs": [
        {
          "internalType": "address",
          "name": "",
          "type": "address"
        }
      ],
      "stateMutability": "view",
      "type": "function"
    }
  ],
  "bytecode": "0x608060405234801561001057600080fd5b50600061001b61006a565b600080546001600160a01b0319166001600160a01b0383169081178255604051929350917f8be0079c531659141344cd1fd0a4f28419497f9722a3daafe3b4186f6b6457e0908290a35061006e565b3390565b6108348061007d6000396000f3fe608060405234801561001057600080fd5b50600436106100885760003560e01c8063c63cc5641161005b578063c63cc5641461010f578063cf1c316a1461012c578063f2fde38b14610152578063fe9fbb801461017857610088565b806331a40b621461008d5780633397e527146100c7578063715018a6146100e15780638da5cb5b146100eb575b600080fd5b6100b3600480360360208110156100a357600080fd5b50356001600160a01b031661019e565b604080519115158252519081900360200190f35b6100cf61024e565b60408051918252519081900360200190f35b6100e961025f565b005b6100f3610301565b604080516001600160a01b039092168252519081900360200190f35b6100f36004803603602081101561012557600080fd5b5035610310565b6100b36004803603602081101561014257600080fd5b50356001600160a01b0316610366565b6100e96004803603602081101561016857600080fd5b50356001600160a01b0316610410565b6100b36004803603602081101561018e57600080fd5b50356001600160a01b0316610508565b60006101a8610515565b6000546001600160a01b039081169116146101f8576040805162461bcd60e51b8152602060048201819052602482015260008051602061074f833981519152604482015290519081900360640190fd5b6001600160a01b03821661023d5760405162461bcd60e51b81526004018080602001828103825260358152602001806107ca6035913960400191505060405180910390fd5b610248600183610519565b92915050565b600061025a6001610535565b905090565b610267610515565b6000546001600160a01b039081169116146102b7576040805162461bcd60e51b8152602060048201819052602482015260008051602061074f833981519152604482015290519081900360640190fd5b600080546040516001600160a01b03909116907f8be0079c531659141344cd1fd0a4f28419497f9722a3daafe3b4186f6b6457e0908390a3600080546001600160a01b0319169055565b6000546001600160a01b031690565b6000600161031c61024e565b0382111561035b5760405162461bcd60e51b815260040180806020018281038252602681526020018061076f6026913960400191505060405180910390fd5b610248600183610540565b6000610370610515565b6000546001600160a01b039081169116146103c0576040805162461bcd60e51b8152602060048201819052602482015260008051602061074f833981519152604482015290519081900360640190fd5b6001600160a01b0382166104055760405162461bcd60e51b81526004018080602001828103825260358152602001806107956035913960400191505060405180910390fd5b61024860018361054c565b610418610515565b6000546001600160a01b03908116911614610468576040805162461bcd60e51b8152602060048201819052602482015260008051602061074f833981519152604482015290519081900360640190fd5b6001600160a01b0381166104ad5760405162461bcd60e51b81526004018080602001828103825260268152602001806107296026913960400191505060405180910390fd5b600080546040516001600160a01b03808516939216917f8be0079c531659141344cd1fd0a4f28419497f9722a3daafe3b4186f6b6457e091a3600080546001600160a01b0319166001600160a01b0392909216919091179055565b6000610248600183610561565b3390565b600061052e836001600160a01b038416610576565b9392505050565b60006102488261063c565b600061052e8383610640565b600061052e836001600160a01b0384166106a4565b600061052e836001600160a01b0384166106ee565b6000818152600183016020526040812054801561063257835460001980830191908101906000908790839081106105a957fe5b90600052602060002001549050808760000184815481106105c657fe5b6000918252602080832090910192909255828152600189810190925260409020908401905586548790806105f657fe5b60019003818190600052602060002001600090559055866001016000878152602001908152602001600020600090556001945050505050610248565b6000915050610248565b5490565b815460009082106106825760405162461bcd60e51b81526004018080602001828103825260228152602001806107076022913960400191505060405180910390fd5b82600001828154811061069157fe5b9060005260206000200154905092915050565b60006106b083836106ee565b6106e657508154600181810184556000848152602080822090930184905584548482528286019093526040902091909155610248565b506000610248565b6000908152600191909101602052604090205415159056fe456e756d657261626c655365743a20696e646578206f7574206f6620626f756e64734f776e61626c653a206e6577206f776e657220697320746865207a65726f20616464726573734f776e61626c653a2063616c6c6572206973206e6f7420746865206f776e65724d6978696e417574686f72697a61626c653a20696e646578206f7574206f6620626f756e64734d6978696e417574686f72697a61626c653a205f616464417574686f72697a656420697320746865207a65726f20616464726573734d6978696e417574686f72697a61626c653a205f64656c417574686f72697a656420697320746865207a65726f2061646472657373a2646970667358221220422d6fde62ee078606efb66b344a1d03a8e7d63dcf1bf6ec6939546736c5b3d864736f6c634300060c0033",
  "immutableReferences": {},
  "source": "// SPDX-License-Identifier: MIT\npragma solidity ^0.6.0;\n\nimport \"./BasicStruct.sol\";\n\ncontract MixinAuthorizable is Ownable {\n    using EnumerableSet for EnumerableSet.AddressSet;\n    EnumerableSet.AddressSet private authorities;\n    \n    // modifier for mint function\n    modifier onlyAuthorized() {\n        require(isAuthorized(msg.sender), \"SENDER_NOT_AUTHORIZED\");\n        _;\n    }\n    \n    constructor() public {\n    }\n\n    function addAuthorized(address _authorizedAddr) public onlyOwner returns (bool) {\n        require(_authorizedAddr != address(0), \"MixinAuthorizable: _addAuthorized is the zero address\");\n        return EnumerableSet.add(authorities, _authorizedAddr);\n    }\n\n    function delAuthorized(address _authorizedAddr) public onlyOwner returns (bool) {\n        require(_authorizedAddr != address(0), \"MixinAuthorizable: _delAuthorized is the zero address\");\n        return EnumerableSet.remove(authorities, _authorizedAddr);\n    }\n\n    function getAuthorizedLength() public view returns (uint256) {\n        return EnumerableSet.length(authorities);\n    }\n\n    function isAuthorized(address _authorizedAddr) public view returns (bool) {\n        return EnumerableSet.contains(authorities, _authorizedAddr);\n    }\n\n    function getAuthorized(uint256 _index) public view returns (address){\n        require(_index <= getAuthorizedLength() - 1, \"MixinAuthorizable: index out of bounds\");\n        return EnumerableSet.at(authorities, _index);\n    }\n    \n}",
  "sourcePath": "/Users/mryu/blockchain/bobo-metaverse/boboswap-contract/contracts/common/MixinAuthorizable.sol",
  "compiler": {
    "name": "solc",
    "version": "0.6.12+commit.27d51765.Emscripten.clang"
  },
  "schemaVersion": "3.4.3",
  "updatedAt": "2021-08-29T16:50:31.569Z",
  "devdoc": {
    "kind": "dev",
    "methods": {
      "owner()": {
        "details": "Returns the address of the current owner."
      },
      "renounceOwnership()": {
        "details": "Leaves the contract without owner. It will not be possible to call `onlyOwner` functions anymore. Can only be called by the current owner. NOTE: Renouncing ownership will leave the contract without an owner, thereby removing any functionality that is only available to the owner."
      },
      "transferOwnership(address)": {
        "details": "Transfers ownership of the contract to a new account (`newOwner`). Can only be called by the current owner."
      }
    },
    "version": 1
  },
  "userdoc": {
    "kind": "user",
    "methods": {},
    "version": 1
  }
}