{
  "contractName": "OrderStore",
  "abi": [
    {
      "inputs": [
        {
          "internalType": "address",
          "name": "_orderNFT",
          "type": "address"
        },
        {
          "internalType": "address",
          "name": "_orderDetailNFT",
          "type": "address"
        }
      ],
      "stateMutability": "nonpayable",
      "type": "constructor"
    },
    {
      "inputs": [],
      "name": "orderDetailNFT",
      "outputs": [
        {
          "internalType": "contract IOrderDetailNFT",
          "name": "",
          "type": "address"
        }
      ],
      "stateMutability": "view",
      "type": "function"
    },
    {
      "inputs": [],
      "name": "orderNFT",
      "outputs": [
        {
          "internalType": "contract IOrderNFT",
          "name": "",
          "type": "address"
        }
      ],
      "stateMutability": "view",
      "type": "function"
    },
    {
      "inputs": [
        {
          "internalType": "enum OrderStatus",
          "name": "",
          "type": "uint8"
        },
        {
          "internalType": "uint256",
          "name": "",
          "type": "uint256"
        }
      ],
      "name": "sealedOrdersMap",
      "outputs": [
        {
          "internalType": "uint256",
          "name": "",
          "type": "uint256"
        }
      ],
      "stateMutability": "view",
      "type": "function"
    },
    {
      "inputs": [
        {
          "internalType": "address",
          "name": "",
          "type": "address"
        },
        {
          "internalType": "uint256",
          "name": "",
          "type": "uint256"
        }
      ],
      "name": "userOrdersMap",
      "outputs": [
        {
          "internalType": "uint256",
          "name": "",
          "type": "uint256"
        }
      ],
      "stateMutability": "view",
      "type": "function"
    },
    {
      "inputs": [
        {
          "internalType": "uint256",
          "name": "_nftId",
          "type": "uint256"
        }
      ],
      "name": "getValue",
      "outputs": [
        {
          "internalType": "uint256",
          "name": "",
          "type": "uint256"
        }
      ],
      "stateMutability": "view",
      "type": "function"
    },
    {
      "inputs": [
        {
          "internalType": "bool",
          "name": "_bBuyQuoteToken",
          "type": "bool"
        },
        {
          "internalType": "uint256",
          "name": "_spotPrice",
          "type": "uint256"
        },
        {
          "internalType": "uint256",
          "name": "_inAmount",
          "type": "uint256"
        },
        {
          "internalType": "uint256",
          "name": "_minOutAmount",
          "type": "uint256"
        }
      ],
      "name": "addOrder",
      "outputs": [
        {
          "internalType": "uint256",
          "name": "",
          "type": "uint256"
        }
      ],
      "stateMutability": "nonpayable",
      "type": "function"
    },
    {
      "inputs": [
        {
          "internalType": "address",
          "name": "_orderOwner",
          "type": "address"
        },
        {
          "internalType": "uint256",
          "name": "_orderId",
          "type": "uint256"
        },
        {
          "internalType": "uint256",
          "name": "_inAmount",
          "type": "uint256"
        },
        {
          "internalType": "uint256",
          "name": "_outAmount",
          "type": "uint256"
        },
        {
          "internalType": "enum SwapPool",
          "name": "_swapPool",
          "type": "uint8"
        },
        {
          "internalType": "address[]",
          "name": "_path",
          "type": "address[]"
        }
      ],
      "name": "addOrderDetail",
      "outputs": [
        {
          "internalType": "uint256",
          "name": "",
          "type": "uint256"
        }
      ],
      "stateMutability": "nonpayable",
      "type": "function"
    },
    {
      "inputs": [
        {
          "internalType": "bool",
          "name": "_bBuy",
          "type": "bool"
        }
      ],
      "name": "getHeaderOrderIndex",
      "outputs": [
        {
          "internalType": "bool",
          "name": "exist",
          "type": "bool"
        },
        {
          "internalType": "uint256",
          "name": "index",
          "type": "uint256"
        }
      ],
      "stateMutability": "view",
      "type": "function"
    },
    {
      "inputs": [
        {
          "internalType": "bool",
          "name": "_bBuy",
          "type": "bool"
        }
      ],
      "name": "getTotalOrderNumber",
      "outputs": [
        {
          "internalType": "uint256",
          "name": "",
          "type": "uint256"
        }
      ],
      "stateMutability": "view",
      "type": "function"
    },
    {
      "inputs": [
        {
          "internalType": "bool",
          "name": "_bBuy",
          "type": "bool"
        },
        {
          "internalType": "uint256",
          "name": "_fromIndex",
          "type": "uint256"
        },
        {
          "internalType": "uint256",
          "name": "_toIndex",
          "type": "uint256"
        }
      ],
      "name": "getOrderInfos",
      "outputs": [
        {
          "internalType": "uint256[]",
          "name": "orderIds",
          "type": "uint256[]"
        },
        {
          "internalType": "uint256[]",
          "name": "orderPrices",
          "type": "uint256[]"
        }
      ],
      "stateMutability": "view",
      "type": "function"
    },
    {
      "inputs": [
        {
          "internalType": "uint256",
          "name": "_orderId",
          "type": "uint256"
        }
      ],
      "name": "getOrderDetailNumber",
      "outputs": [
        {
          "internalType": "uint256",
          "name": "",
          "type": "uint256"
        }
      ],
      "stateMutability": "view",
      "type": "function"
    },
    {
      "inputs": [
        {
          "internalType": "address",
          "name": "_userAddr",
          "type": "address"
        }
      ],
      "name": "getUserOrderNumber",
      "outputs": [
        {
          "internalType": "uint256",
          "name": "",
          "type": "uint256"
        }
      ],
      "stateMutability": "view",
      "type": "function"
    },
    {
      "inputs": [
        {
          "internalType": "address",
          "name": "_userAddr",
          "type": "address"
        }
      ],
      "name": "getUserHangingOrderNumber",
      "outputs": [
        {
          "internalType": "uint256",
          "name": "",
          "type": "uint256"
        }
      ],
      "stateMutability": "view",
      "type": "function"
    },
    {
      "inputs": [
        {
          "internalType": "address",
          "name": "_userAddr",
          "type": "address"
        },
        {
          "internalType": "uint256",
          "name": "_index",
          "type": "uint256"
        }
      ],
      "name": "getUserHangingOrderId",
      "outputs": [
        {
          "internalType": "uint256",
          "name": "",
          "type": "uint256"
        }
      ],
      "stateMutability": "view",
      "type": "function"
    },
    {
      "inputs": [
        {
          "internalType": "uint256",
          "name": "_fromTime",
          "type": "uint256"
        },
        {
          "internalType": "uint256",
          "name": "_endTime",
          "type": "uint256"
        }
      ],
      "name": "getTotalDealedAmount",
      "outputs": [
        {
          "internalType": "uint256",
          "name": "fromIndex",
          "type": "uint256"
        },
        {
          "internalType": "uint256",
          "name": "totalAmount",
          "type": "uint256"
        }
      ],
      "stateMutability": "view",
      "type": "function"
    },
    {
      "inputs": [
        {
          "internalType": "address",
          "name": "",
          "type": "address"
        },
        {
          "internalType": "address",
          "name": "",
          "type": "address"
        },
        {
          "internalType": "uint256",
          "name": "",
          "type": "uint256"
        },
        {
          "internalType": "bytes",
          "name": "",
          "type": "bytes"
        }
      ],
      "name": "onERC721Received",
      "outputs": [
        {
          "internalType": "bytes4",
          "name": "",
          "type": "bytes4"
        }
      ],
      "stateMutability": "nonpayable",
      "type": "function"
    }
  ],
  "bytecode": "0x60806040523480156200001157600080fd5b5060405162001a0938038062001a09833981016040819052620000349162000066565b600080546001600160a01b039384166001600160a01b03199182161790915560018054929093169116179055620000bd565b6000806040838503121562000079578182fd5b82516200008681620000a4565b60208401519092506200009981620000a4565b809150509250929050565b6001600160a01b0381168114620000ba57600080fd5b50565b61193c80620000cd6000396000f3fe608060405234801561001057600080fd5b50600436106101005760003560e01c806359fc722311610097578063b35ac8b211610066578063b35ac8b214610236578063cd5a877814610249578063d4d728da1461025c578063fb1157ce1461027157610100565b806359fc7223146101ce5780637865c7e8146101ef578063952c70fb14610210578063ae14859e1461022357610100565b80632d611131116100d35780632d611131146101745780634b0cd2ab146101875780634b92031d146101a85780634bba8050146101bb57610100565b806306381749146101055780630ff4c9161461012e578063150b7a02146101415780631b11481714610161575b600080fd5b610118610113366004611429565b610279565b6040516101259190611821565b60405180910390f35b61011861013c366004611586565b61035b565b61015461014f36600461122e565b610403565b604051610125919061170a565b61011861016f3660046112d0565b610413565b610118610182366004611212565b610441565b61019a6101953660046113d9565b61045c565b6040516101259291906116fa565b6101186101b63660046112d0565b610484565b6101186101c9366004611586565b6104af565b6101e16101dc3660046113f5565b610530565b6040516101259291906116d5565b6102026101fd3660046115b6565b61077f565b60405161012592919061182a565b61011861021e366004611463565b610b26565b6101186102313660046112fb565b610b3f565b6101186102443660046113d9565b610bdc565b610118610257366004611212565b610bf6565b610264610c17565b604051610125919061171f565b610264610c26565b60008054604051631cdd409f60e21b815282916001600160a01b031690637375027c906102b490309033908b908b908b908b9060040161161e565b602060405180830381600087803b1580156102ce57600080fd5b505af11580156102e2573d6000803e3d6000fd5b505050506040513d601f19601f82011682018060405250810190610306919061159e565b336000908152600260209081526040822080546001810182559083529120018190559050610335818787610c35565b5033600090815260036020526040902061034f9082610c7c565b5090505b949350505050565b60008161036a575060006103fe565b610372611114565b60005460405163d311636b60e01b81526001600160a01b039091169063d311636b906103a2908690600401611821565b60006040518083038186803b1580156103ba57600080fd5b505afa1580156103ce573d6000803e3d6000fd5b505050506040513d6000823e601f3d908101601f191682016040526103f69190810190611480565b608001519150505b919050565b630a85bd0160e11b949350505050565b6002602052816000526040600020818154811061042c57fe5b90600052602060002001600091509150505481565b6001600160a01b031660009081526002602052604090205490565b8015156000908152600460205260408120819061047b90826001610c88565b91509150915091565b6001600160a01b03821660009081526003602052604081206104a69083610ccf565b90505b92915050565b600080546040516304bba80560e41b81526001600160a01b0390911690634bba8050906104e0908590600401611821565b60206040518083038186803b1580156104f857600080fd5b505afa15801561050c573d6000803e3d6000fd5b505050506040513d601f19601f820116820180604052508101906104a9919061159e565b8215156000908152600460205260408120606091829161054f90610cdb565b90508084111561055d578093505b8385106105855760405162461bcd60e51b815260040161057c906117df565b60405180910390fd5b84840367ffffffffffffffff8111801561059e57600080fd5b506040519080825280602002602001820160405280156105c8578160200160208202803683370190505b50925084840367ffffffffffffffff811180156105e457600080fd5b5060405190808252806020026020018201604052801561060e578160200160208202803683370190505b50861515600090815260046020526040812091935090819081906106329082610cdf565b915091505b86831080156106435750815b15610773578783101561067b57881515600090815260046020526040902061066b9082610cdf565b6001909401939092509050610637565b80868985038151811061068a57fe5b60200260200101818152505061069e611114565b60005460405163d311636b60e01b81526001600160a01b039091169063d311636b906106ce908590600401611821565b60006040518083038186803b1580156106e657600080fd5b505afa1580156106fa573d6000803e3d6000fd5b505050506040513d6000823e601f3d908101601f191682016040526107229190810190611480565b90508060800151868a86038151811061073757fe5b6020908102919091018101919091528a151560009081526004909152604090206107619083610cdf565b60019095019490935091506106379050565b50505050935093915050565b6002600090815260056020527f89832631fb3c3307a103ba2c84ab569c64d6182a18893dcd163f0f1c2090733a54819081805b8082116109fd5760006107d060026107ca8585610cf9565b90610d1e565b9050806107e15760009550506109fd565b6002600090815260056020527f89832631fb3c3307a103ba2c84ab569c64d6182a18893dcd163f0f1c2090733a80548390811061081a57fe5b6000918252602082200154915060058160028152602001908152602001600020600184038154811061084857fe5b9060005260206000200154905061085d611114565b60005460405163d311636b60e01b81526001600160a01b039091169063d311636b9061088d908690600401611821565b60006040518083038186803b1580156108a557600080fd5b505afa1580156108b9573d6000803e3d6000fd5b505050506040513d6000823e601f3d908101601f191682016040526108e19190810190611480565b90506108eb611114565b60005460405163d311636b60e01b81526001600160a01b039091169063d311636b9061091b908690600401611821565b60006040518083038186803b15801561093357600080fd5b505afa158015610947573d6000803e3d6000fd5b505050506040513d6000823e601f3d908101601f1916820160405261096f9190810190611480565b90508b826101600151148061098857508b816101600151145b156109b0578b826101600151146109a257600185036109a4565b845b995050505050506109fd565b8b8161016001511080156109c857508b826101600151115b156109da5784995050505050506109fd565b8b82610160015111156109ef578495506109f3565b8496505b50505050506107b2565b845b83811015610b1b576002600090815260056020527f89832631fb3c3307a103ba2c84ab569c64d6182a18893dcd163f0f1c2090733a805483908110610a4057fe5b90600052602060002001549050610a55611114565b60005460405163d311636b60e01b81526001600160a01b039091169063d311636b90610a85908590600401611821565b60006040518083038186803b158015610a9d57600080fd5b505afa158015610ab1573d6000803e3d6000fd5b505050506040513d6000823e601f3d908101601f19168201604052610ad99190810190611480565b9050888161016001511115610aef575050610b1b565b610b128160600151610b05578160e00151610b0b565b8160a001515b8890610cf9565b965050506109ff565b505050509250929050565b6005602052816000526040600020818154811061042c57fe5b60015460405163904c3e9b60e01b815260009182916001600160a01b039091169063904c3e9b90610b7e908b908a908a908d908b908b90600401611654565b602060405180830381600087803b158015610b9857600080fd5b505af1158015610bac573d6000803e3d6000fd5b505050506040513d601f19601f82011682018060405250810190610bd0919061159e565b98975050505050505050565b80151560009081526004602052604081206104a990610cdb565b6001600160a01b03811660009081526003602052604081206104a990610d60565b6000546001600160a01b031681565b6001546001600160a01b031681565b81151560009081526004602052604081208190610c5490308587610d6b565b8415156000908152600460205260409020909150610c73908287610f02565b95945050505050565b60006104a68383610f11565b600080610c958585610f5b565b610ca457506000905080610cc7565b505060008281526001848101602090815260408084208515158552909152909120545b935093915050565b60006104a68383610fd7565b5490565b600080610cee84846001610c88565b915091509250929050565b6000828201838110156104a65760405162461bcd60e51b815260040161057c906117a8565b60006104a683836040518060400160405280601a81526020017f536166654d6174683a206469766973696f6e206279207a65726f00000000000081525061101c565b60006104a982610cdb565b6000610d7685610cdb565b610d8257506000610353565b6000610d918660006001610c88565b9150508215610e51575b8015801590610e2557506040516307fa648b60e11b81526001600160a01b03861690630ff4c91690610dd1908490600401611821565b60206040518083038186803b158015610de957600080fd5b505afa158015610dfd573d6000803e3d6000fd5b505050506040513d601f19601f82011682018060405250810190610e21919061159e565b8411155b15610e4c576000908152600180870160209081526040808420928452919052902054610d9b565b610c73565b8015801590610edb57506040516307fa648b60e11b81526001600160a01b03861690630ff4c91690610e87908490600401611821565b60206040518083038186803b158015610e9f57600080fd5b505afa158015610eb3573d6000803e3d6000fd5b505050506040513d601f19601f82011682018060405250810190610ed7919061159e565b8410155b15610c73576000908152600180870160209081526040808420928452919052902054610e51565b60006103538484846000611053565b6000610f1d83836110c7565b610f53575081546001818101845560008481526020808220909301849055845484825282860190935260409020919091556104a9565b5060006104a9565b60008181526001830160209081526040808320838052909152812054158015610f9e57506000828152600180850160209081526040808420928452919052902054155b15610fcf576000808052600180850160209081526040808420928452919052902054821415610f53575060016104a9565b5060016104a9565b81546000908210610ffa5760405162461bcd60e51b815260040161057c90611766565b82600001828154811061100957fe5b9060005260206000200154905092915050565b6000818361103d5760405162461bcd60e51b815260040161057c9190611733565b50600083858161104957fe5b0495945050505050565b600061105f8584610f5b565b15801561107157506110718585610f5b565b156110bc576000848152600186016020908152604080832085151584529091529020546110a0868686866110df565b6110ac868583866110df565b5050835460019081018555610353565b506000949350505050565b60009081526001919091016020526040902054151590565b600082815260019094016020818152604080872093158088529382528087208690559486529081528385209115855252912055565b6040518061018001604052806000815260200160006001600160a01b0316815260200160006001600160a01b03168152602001600015158152602001600081526020016000815260200160008152602001600081526020016000600381111561117957fe5b81526020016060815260200160008152602001600081525090565b80356104a9816118d3565b80516104a9816118d3565b80516104a9816118eb565b80516104a9816118f9565b600082601f8301126111d0578081fd5b81516111e36111de8261187f565b611838565b91508082528360208285010111156111fa57600080fd5b61120b8160208401602086016118a3565b5092915050565b600060208284031215611223578081fd5b81356104a6816118d3565b60008060008060808587031215611243578283fd5b843561124e816118d3565b9350602085013561125e816118d3565b925060408501359150606085013567ffffffffffffffff811115611280578182fd5b8501601f81018713611290578182fd5b803561129e6111de8261187f565b8181528860208385010111156112b2578384fd5b81602084016020830137908101602001929092525092959194509250565b600080604083850312156112e2578182fd5b82356112ed816118d3565b946020939093013593505050565b60008060008060008060c08789031215611313578182fd5b863561131e816118d3565b955060208781013595506040880135945060608801359350608088013560088110611347578384fd5b925060a088013567ffffffffffffffff811115611362578283fd5b8801601f81018a13611372578283fd5b80356113806111de8261185f565b81815283810190838501858402850186018e101561139c578687fd5b8694505b838510156113c6576113b28e82611194565b8352600194909401939185019185016113a0565b5080955050505050509295509295509295565b6000602082840312156113ea578081fd5b81356104a6816118eb565b600080600060608486031215611409578283fd5b8335611414816118eb565b95602085013595506040909401359392505050565b6000806000806080858703121561143e578384fd5b8435611449816118eb565b966020860135965060408601359560600135945092505050565b60008060408385031215611475578182fd5b82356112ed816118f9565b600060208284031215611491578081fd5b815167ffffffffffffffff808211156114a8578283fd5b81840191506101808083870312156114be578384fd5b6114c781611838565b9050825181526114da866020850161119f565b60208201526114ec866040850161119f565b60408201526114fe86606085016111aa565b60608201526080830151608082015260a083015160a082015260c083015160c082015260e083015160e082015261010061153a878286016111b5565b908201526101208381015183811115611551578586fd5b61155d888287016111c0565b918301919091525061014083810151908201526101609283015192810192909252509392505050565b600060208284031215611597578081fd5b5035919050565b6000602082840312156115af578081fd5b5051919050565b600080604083850312156115c8578182fd5b50508035926020909101359150565b6001600160a01b03169052565b6000815180845260208085019450808401835b83811015611613578151875295820195908201906001016115f7565b509495945050505050565b6001600160a01b03968716815294909516602085015291151560408401526060830152608082015260a081019190915260c00190565b600060c0820160018060a01b0389168352602088818501528760408501528660608501526008861061168257fe5b6080840186905260c060a08501528451918290528085019160e0850190845b818110156116c4576116b48386516115d7565b93830193918301916001016116a1565b50909b9a5050505050505050505050565b6000604082526116e860408301856115e4565b8281036020840152610c7381856115e4565b9115158252602082015260400190565b6001600160e01b031991909116815260200190565b6001600160a01b0391909116815260200190565b60006020825282518060208401526117528160408501602087016118a3565b601f01601f19169190910160400192915050565b60208082526022908201527f456e756d657261626c655365743a20696e646578206f7574206f6620626f756e604082015261647360f01b606082015260800190565b6020808252601b908201527f536166654d6174683a206164646974696f6e206f766572666c6f770000000000604082015260600190565b60208082526022908201527f4f7264657253746f72653a20696e646578206973206f7574206f6620626f756e604082015261321760f11b606082015260800190565b90815260200190565b918252602082015260400190565b60405181810167ffffffffffffffff8111828210171561185757600080fd5b604052919050565b600067ffffffffffffffff821115611875578081fd5b5060209081020190565b600067ffffffffffffffff821115611895578081fd5b50601f01601f191660200190565b60005b838110156118be5781810151838201526020016118a6565b838111156118cd576000848401525b50505050565b6001600160a01b03811681146118e857600080fd5b50565b80151581146118e857600080fd5b600481106118e857600080fdfea264697066735822122009296edf91d0836f27c8e8f372b9f1af41f84a52e84e2f92aceab5231383472564736f6c634300060c0033",
  "immutableReferences": {},
  "source": "// SPDX-License-Identifier: MIT\npragma solidity ^0.6.0;\npragma experimental ABIEncoderV2;\n\nimport \"./BasicStruct.sol\";\n\ncontract OrderStore is IStructureInterface, IERC721Receiver {\n    using SafeMath for uint256;\n    using EnumerableSet for EnumerableSet.UintSet;\n    using StructuredLinkedList for StructuredLinkedList.List;\n\n    IOrderNFT public orderNFT;\n    IOrderDetailNFT public orderDetailNFT;\n    mapping(address => uint256[]) public userOrdersMap;  // \n    mapping(address => EnumerableSet.UintSet) private userHangingOrdersMap;  // \n    mapping(bool => StructuredLinkedList.List) private bBuyOrdersMap;  // , bool: true-false-\n    mapping(OrderStatus => uint256[]) public sealedOrdersMap;  // \n    \n    constructor (address _orderNFT, address _orderDetailNFT) public {\n        orderNFT = (IOrderNFT)(_orderNFT);\n        orderDetailNFT = (IOrderDetailNFT)(_orderDetailNFT);\n    }\n    \n    // ID\n    function getValue(uint256 _nftId) view public override returns(uint256) {\n        if (_nftId == 0) return 0;\n        NFTInfo memory nftInfo = orderNFT.getOrderInfo(_nftId);\n        return nftInfo.spotPrice;\n    }\n\n    // \n    // token0U\n    function addOrder(bool _bBuyQuoteToken, uint256 _spotPrice, uint256 _inAmount, uint256 _minOutAmount) public returns(uint256) {\n        uint256 orderId = orderNFT.mint(address(this), msg.sender, _bBuyQuoteToken, _spotPrice, _inAmount, _minOutAmount);\n        \n        userOrdersMap[msg.sender].push(orderId);\n        addHangingOrder(orderId, _bBuyQuoteToken, _spotPrice);\n\n        userHangingOrdersMap[msg.sender].add(orderId);\n        return orderId;\n    }\n    \n    function addOrderDetail(address _orderOwner, uint256 _orderId, uint256 _inAmount, uint256 _outAmount, SwapPool _swapPool, address[] memory _path) public returns(uint256) {\n        uint256 orderDetailId = orderDetailNFT.mint(_orderOwner, _inAmount, _outAmount, _orderId, _swapPool, _path);\n        return orderDetailId;\n    }\n\n    // \n    // 1: \n    // 2: \n    function addHangingOrder(uint256 _orderId, bool _bBuyQuoteToken, uint256 _spotPrice) private returns(bool) {\n        uint256 next = bBuyOrdersMap[_bBuyQuoteToken].getSortedSpot(address(this), _spotPrice, _bBuyQuoteToken);\n        \n        return bBuyOrdersMap[_bBuyQuoteToken].insertBefore(next, _orderId);\n    }\n    \n    function removeOrder(NFTInfo memory _orderInfo) private returns(bool) {\n        orderNFT.transferFrom(address(this), _orderInfo.owner, _orderInfo.id);\n        sealedOrdersMap[_orderInfo.status].push(_orderInfo.id);\n        userHangingOrdersMap[msg.sender].remove(_orderInfo.id);\n        uint256 node = bBuyOrdersMap[_orderInfo.bBuyQuoteToken].remove(_orderInfo.id);\n        return node > 0;\n    }\n    \n    // \n    function setManualCancelOrder(uint256 _orderId) internal returns(bool) {\n        NFTInfo memory orderInfo = orderNFT.getOrderInfo(_orderId);\n        \n        require(orderInfo.owner == msg.sender, \"OrderStore: only book owner can cancel the order.\");\n        require(orderInfo.status == OrderStatus.Hanging, \"OrderStore: only hanging order can be canceled.\");\n        \n        orderNFT.sealNFT(_orderId, OrderStatus.ManualCanceled, 0, \"\");\n        sealedOrdersMap[OrderStatus.ManualCanceled].push(_orderId);\n        removeOrder(orderInfo);\n    }\n    \n    function setAMMDealOrder(uint256 _orderId, uint256 _outAmount) internal returns(bool) {\n        NFTInfo memory orderInfo = orderNFT.getOrderInfo(_orderId);\n        \n        require(orderInfo.status == OrderStatus.Hanging, \"OrderStore: only hanging order can become AMMDeal status.\");\n        \n        orderNFT.sealNFT(_orderId, OrderStatus.AMMDeal, _outAmount, \"\");\n        sealedOrdersMap[OrderStatus.AMMDeal].push(_orderId);\n        removeOrder(orderInfo);\n    }\n    \n    function setExceptionOrder(uint256 _orderId, string memory _comment) internal returns(bool) {\n        NFTInfo memory orderInfo = orderNFT.getOrderInfo(_orderId);\n        \n        require(orderInfo.status == OrderStatus.Hanging, \"OrderStore: only hanging order can become exception status.\");\n        \n        orderNFT.sealNFT(_orderId, OrderStatus.Exception, 0, _comment);\n        sealedOrdersMap[OrderStatus.Exception].push(_orderId);\n        removeOrder(orderInfo);\n    }\n\n    function getRestInOutAmount(uint256 _orderId) view internal returns(uint256, uint256) {\n        NFTInfo memory orderInfo = orderNFT.getOrderInfo(_orderId);\n        \n        uint256 inAmount = orderInfo.inAmount;   // token\n        uint256 minOutAmount = orderInfo.minOutAmount;  // token\n        uint256[] memory orderDetailIds = orderNFT.orderDetailIds(_orderId);\n        for (uint256 i = 0; i < orderDetailIds.length; i++) {\n            NFTDetailInfo memory detailInfo = orderDetailNFT.getOrderDetailInfo(orderDetailIds[i]);\n            inAmount = inAmount.sub(detailInfo.outAmount);              // detailInfo.outAmounttoken\n            minOutAmount = minOutAmount.sub(detailInfo.inAmount);       // detailInfo.inAmounttoken\n        }\n        return (inAmount, minOutAmount);\n    }\n\n    // \n    function getHeaderOrderIndex(bool _bBuy) view public returns(bool exist, uint256 index) {\n        return bBuyOrdersMap[_bBuy].getAdjacent(0, true);   // get the first node of the list\n    }\n    \n    function getTotalOrderNumber(bool _bBuy) view public returns(uint256) {\n        return bBuyOrdersMap[_bBuy].sizeOf();\n    }\n    \n    function getOrderInfos(bool _bBuy, uint256 _fromIndex, uint256 _toIndex) view public returns(uint256[] memory orderIds, uint256[] memory orderPrices) {\n        uint256 length = bBuyOrdersMap[_bBuy].sizeOf();\n        if (_toIndex > length) _toIndex = length;\n        require(_fromIndex < _toIndex, \"OrderStore: index is out of bound.\");\n        \n        orderIds = new uint256[](_toIndex - _fromIndex);\n        orderPrices = new uint256[](_toIndex - _fromIndex);\n        uint256 index = 0;\n        (bool exist, uint256 currentId) = bBuyOrdersMap[_bBuy].getNextNode(0);\n        while(index < _toIndex && exist) {\n            if (index < _fromIndex) {\n                (exist, currentId) = bBuyOrdersMap[_bBuy].getNextNode(currentId);\n                index++;\n                continue;\n            }\n            orderIds[index - _fromIndex] = currentId;\n            NFTInfo memory orderInfo = orderNFT.getOrderInfo(currentId);\n            orderPrices[index - _fromIndex] = orderInfo.spotPrice;\n            \n            (exist, currentId) = bBuyOrdersMap[_bBuy].getNextNode(currentId);\n            index++;\n        }\n    }\n\n\n    // \n    function popFront(bool _bBuy) internal returns(uint256 index) {\n        return bBuyOrdersMap[_bBuy].popFront();\n    }\n    // \n    function pushFront(bool _bBuy, uint256 _index) internal returns(bool) {\n        return bBuyOrdersMap[_bBuy].pushFront(_index);\n    }\n    // \n    function getOrderDetailNumber(uint256 _orderId) view public returns(uint256) {\n        return orderNFT.getOrderDetailNumber(_orderId);\n    }\n    // \n    function getUserOrderNumber(address _userAddr) view public returns(uint256) {\n        return userOrdersMap[_userAddr].length;\n    }\n    // \n    function getUserHangingOrderNumber(address _userAddr) view public returns(uint256) {\n        return userHangingOrdersMap[_userAddr].length();\n    }\n    // \n    function getUserHangingOrderId(address _userAddr, uint256 _index) view public returns(uint256) {\n        return userHangingOrdersMap[_userAddr].at(_index);\n    }\n    // token\n    function getTotalDealedAmount(uint256 _fromTime, uint256 _endTime) view public returns(uint256 fromIndex, uint256 totalAmount) {\n        uint256 orderLength = sealedOrdersMap[OrderStatus.AMMDeal].length;\n        \n        uint256 lowIndex = 0;\n        uint256 highIndex = 0;\n        while(lowIndex <= highIndex) {\n            uint256 midIndex = lowIndex.add(highIndex).div(2);\n            if (midIndex == 0) {\n                fromIndex = 0;\n                break;\n            }\n            uint256 orderId = sealedOrdersMap[OrderStatus.AMMDeal][midIndex];\n            uint256 preOrderId = sealedOrdersMap[OrderStatus.AMMDeal][midIndex - 1];\n            NFTInfo memory orderInfo = orderNFT.getOrderInfo(orderId);\n            NFTInfo memory preOrderInfo = orderNFT.getOrderInfo(preOrderId);\n            if (orderInfo.dealedTime == _fromTime || preOrderInfo.dealedTime == _fromTime) {\n                fromIndex = orderInfo.dealedTime == _fromTime ? midIndex : midIndex - 1;\n                break;\n            } else if (preOrderInfo.dealedTime < _fromTime && orderInfo.dealedTime > _fromTime) {\n                fromIndex = midIndex;\n                break;\n            } else if (orderInfo.dealedTime > _fromTime) {\n                highIndex = midIndex;\n            } else {\n                lowIndex = midIndex;\n            }\n        }\n        \n        uint256 index = fromIndex;\n        while (index < orderLength) {\n            uint256 orderId = sealedOrdersMap[OrderStatus.AMMDeal][index];\n            NFTInfo memory orderInfo = orderNFT.getOrderInfo(orderId);\n            \n            if (orderInfo.dealedTime > _endTime) break;\n            \n            totalAmount = totalAmount.add(orderInfo.bBuyQuoteToken ? orderInfo.inAmount : orderInfo.outAmount);\n        }\n    }\n    \n    function onERC721Received(address, address, uint256, bytes memory) public virtual override returns (bytes4) {\n        return this.onERC721Received.selector;\n    }\n}",
  "sourcePath": "/Users/mryu/blockchain/bobo-metaverse/boboswap-contract/contracts/common/OrderStoreTest.sol",
  "compiler": {
    "name": "solc",
    "version": "0.6.12+commit.27d51765.Emscripten.clang"
  },
  "schemaVersion": "3.4.3",
  "updatedAt": "2021-08-20T15:32:39.356Z",
  "devdoc": {
    "kind": "dev",
    "methods": {},
    "version": 1
  },
  "userdoc": {
    "kind": "user",
    "methods": {},
    "version": 1
  }
}