{
  "contractName": "OrderStore",
  "abi": [
    {
      "inputs": [],
      "stateMutability": "nonpayable",
      "type": "constructor"
    },
    {
      "inputs": [],
      "name": "orderDetailNFT",
      "outputs": [
        {
          "internalType": "contract IOrderDetailNFT",
          "name": "",
          "type": "address"
        }
      ],
      "stateMutability": "view",
      "type": "function"
    },
    {
      "inputs": [],
      "name": "orderNFT",
      "outputs": [
        {
          "internalType": "contract IOrderNFT",
          "name": "",
          "type": "address"
        }
      ],
      "stateMutability": "view",
      "type": "function"
    },
    {
      "inputs": [
        {
          "internalType": "enum OrderStatus",
          "name": "",
          "type": "uint8"
        },
        {
          "internalType": "uint256",
          "name": "",
          "type": "uint256"
        }
      ],
      "name": "sealedOrdersMap",
      "outputs": [
        {
          "internalType": "uint256",
          "name": "",
          "type": "uint256"
        }
      ],
      "stateMutability": "view",
      "type": "function"
    },
    {
      "inputs": [
        {
          "internalType": "address",
          "name": "",
          "type": "address"
        },
        {
          "internalType": "uint256",
          "name": "",
          "type": "uint256"
        }
      ],
      "name": "userOrdersMap",
      "outputs": [
        {
          "internalType": "uint256",
          "name": "",
          "type": "uint256"
        }
      ],
      "stateMutability": "view",
      "type": "function"
    },
    {
      "inputs": [
        {
          "internalType": "uint256",
          "name": "_nftId",
          "type": "uint256"
        }
      ],
      "name": "getValue",
      "outputs": [
        {
          "internalType": "uint256",
          "name": "",
          "type": "uint256"
        }
      ],
      "stateMutability": "view",
      "type": "function"
    },
    {
      "inputs": [
        {
          "internalType": "bool",
          "name": "_bBuy",
          "type": "bool"
        }
      ],
      "name": "getTotalOrderNumber",
      "outputs": [
        {
          "internalType": "uint256",
          "name": "",
          "type": "uint256"
        }
      ],
      "stateMutability": "view",
      "type": "function"
    },
    {
      "inputs": [
        {
          "internalType": "bool",
          "name": "_bBuy",
          "type": "bool"
        },
        {
          "internalType": "uint256",
          "name": "_fromIndex",
          "type": "uint256"
        },
        {
          "internalType": "uint256",
          "name": "_toIndex",
          "type": "uint256"
        }
      ],
      "name": "getOrderInfos",
      "outputs": [
        {
          "components": [
            {
              "internalType": "uint256",
              "name": "id",
              "type": "uint256"
            },
            {
              "internalType": "address",
              "name": "owner",
              "type": "address"
            },
            {
              "internalType": "address",
              "name": "pairAddr",
              "type": "address"
            },
            {
              "internalType": "bool",
              "name": "bBuyQuoteToken",
              "type": "bool"
            },
            {
              "internalType": "uint256",
              "name": "spotPrice",
              "type": "uint256"
            },
            {
              "internalType": "uint256",
              "name": "inAmount",
              "type": "uint256"
            },
            {
              "internalType": "uint256",
              "name": "minOutAmount",
              "type": "uint256"
            },
            {
              "internalType": "uint256",
              "name": "outAmount",
              "type": "uint256"
            },
            {
              "internalType": "enum OrderStatus",
              "name": "status",
              "type": "uint8"
            },
            {
              "internalType": "string",
              "name": "comment",
              "type": "string"
            },
            {
              "internalType": "uint256",
              "name": "delegateTime",
              "type": "uint256"
            },
            {
              "internalType": "uint256",
              "name": "dealedTime",
              "type": "uint256"
            }
          ],
          "internalType": "struct NFTInfo[]",
          "name": "orderInfos",
          "type": "tuple[]"
        }
      ],
      "stateMutability": "view",
      "type": "function"
    },
    {
      "inputs": [
        {
          "internalType": "uint256",
          "name": "_orderId",
          "type": "uint256"
        }
      ],
      "name": "getOrderDetailNumber",
      "outputs": [
        {
          "internalType": "uint256",
          "name": "",
          "type": "uint256"
        }
      ],
      "stateMutability": "view",
      "type": "function"
    },
    {
      "inputs": [
        {
          "internalType": "address",
          "name": "_userAddr",
          "type": "address"
        }
      ],
      "name": "getUserOrderNumber",
      "outputs": [
        {
          "internalType": "uint256",
          "name": "",
          "type": "uint256"
        }
      ],
      "stateMutability": "view",
      "type": "function"
    },
    {
      "inputs": [
        {
          "internalType": "address",
          "name": "_userAddr",
          "type": "address"
        }
      ],
      "name": "getUserHangingOrderNumber",
      "outputs": [
        {
          "internalType": "uint256",
          "name": "",
          "type": "uint256"
        }
      ],
      "stateMutability": "view",
      "type": "function"
    },
    {
      "inputs": [
        {
          "internalType": "address",
          "name": "_userAddr",
          "type": "address"
        },
        {
          "internalType": "uint256",
          "name": "_index",
          "type": "uint256"
        }
      ],
      "name": "getUserHangingOrderId",
      "outputs": [
        {
          "internalType": "uint256",
          "name": "",
          "type": "uint256"
        }
      ],
      "stateMutability": "view",
      "type": "function"
    },
    {
      "inputs": [
        {
          "internalType": "address",
          "name": "_userAddr",
          "type": "address"
        },
        {
          "internalType": "uint256",
          "name": "_fromIndex",
          "type": "uint256"
        },
        {
          "internalType": "uint256",
          "name": "_toIndex",
          "type": "uint256"
        }
      ],
      "name": "getUserHangingOrderInfos",
      "outputs": [
        {
          "components": [
            {
              "internalType": "uint256",
              "name": "id",
              "type": "uint256"
            },
            {
              "internalType": "address",
              "name": "owner",
              "type": "address"
            },
            {
              "internalType": "address",
              "name": "pairAddr",
              "type": "address"
            },
            {
              "internalType": "bool",
              "name": "bBuyQuoteToken",
              "type": "bool"
            },
            {
              "internalType": "uint256",
              "name": "spotPrice",
              "type": "uint256"
            },
            {
              "internalType": "uint256",
              "name": "inAmount",
              "type": "uint256"
            },
            {
              "internalType": "uint256",
              "name": "minOutAmount",
              "type": "uint256"
            },
            {
              "internalType": "uint256",
              "name": "outAmount",
              "type": "uint256"
            },
            {
              "internalType": "enum OrderStatus",
              "name": "status",
              "type": "uint8"
            },
            {
              "internalType": "string",
              "name": "comment",
              "type": "string"
            },
            {
              "internalType": "uint256",
              "name": "delegateTime",
              "type": "uint256"
            },
            {
              "internalType": "uint256",
              "name": "dealedTime",
              "type": "uint256"
            }
          ],
          "internalType": "struct NFTInfo[]",
          "name": "orderInfos",
          "type": "tuple[]"
        }
      ],
      "stateMutability": "view",
      "type": "function"
    },
    {
      "inputs": [
        {
          "internalType": "address",
          "name": "",
          "type": "address"
        },
        {
          "internalType": "address",
          "name": "",
          "type": "address"
        },
        {
          "internalType": "uint256",
          "name": "",
          "type": "uint256"
        },
        {
          "internalType": "bytes",
          "name": "",
          "type": "bytes"
        }
      ],
      "name": "onERC721Received",
      "outputs": [
        {
          "internalType": "bytes4",
          "name": "",
          "type": "bytes4"
        }
      ],
      "stateMutability": "nonpayable",
      "type": "function"
    }
  ],
  "bytecode": "0x608060405234801561001057600080fd5b50610f6f806100206000396000f3fe608060405234801561001057600080fd5b50600436106100cf5760003560e01c806359fc72231161008c578063b35ac8b211610066578063b35ac8b2146101af578063cd5a8778146101c2578063d4d728da146101d5578063fb1157ce146101ea576100cf565b806359fc7223146101695780635f0a1feb14610189578063952c70fb1461019c576100cf565b80630ff4c916146100d4578063150b7a02146100fd5780631b1148171461011d5780632d611131146101305780634b92031d146101435780634bba805014610156575b600080fd5b6100e76100e2366004610c54565b6101f2565b6040516100f49190610e82565b60405180910390f35b61011061010b3660046109f5565b61029a565b6040516100f49190610dd5565b6100e761012b366004610a97565b6102aa565b6100e761013e3660046109d2565b6102d8565b6100e7610151366004610a97565b6102f3565b6100e7610164366004610c54565b61031e565b61017c610177366004610b12565b61039f565b6040516100f49190610cd1565b61017c610197366004610ac2565b610597565b6100e76101aa366004610b31565b610728565b6100e76101bd366004610af6565b610741565b6100e76101d03660046109d2565b61075b565b6101dd61077c565b6040516100f49190610dea565b6101dd61078b565b60008161020157506000610295565b6102096108df565b60005460405163d311636b60e01b81526001600160a01b039091169063d311636b90610239908690600401610e82565b60006040518083038186803b15801561025157600080fd5b505afa158015610265573d6000803e3d6000fd5b505050506040513d6000823e601f3d908101601f1916820160405261028d9190810190610b4e565b608001519150505b919050565b630a85bd0160e11b949350505050565b600260205281600052604060002081815481106102c357fe5b90600052602060002001600091509150505481565b6001600160a01b031660009081526002602052604090205490565b6001600160a01b0382166000908152600360205260408120610315908361079a565b90505b92915050565b600080546040516304bba80560e41b81526001600160a01b0390911690634bba80509061034f908590600401610e82565b60206040518083038186803b15801561036757600080fd5b505afa15801561037b573d6000803e3d6000fd5b505050506040513d601f19601f820116820180604052508101906103189190610c6c565b8215156000908152600460205260408120606091906103bd906107a6565b9050808311156103cb578092505b8284106103f35760405162461bcd60e51b81526004016103ea90610e40565b60405180910390fd5b83830367ffffffffffffffff8111801561040c57600080fd5b5060405190808252806020026020018201604052801561044657816020015b6104336108df565b81526020019060019003908161042b5790505b508515156000908152600460205260408120919350908190819061046a90826107aa565b915091505b858310801561047b5750815b1561058c57868310156104b35787151560009081526004602052604090206104a390826107aa565b600190940193909250905061046f565b6104bb6108df565b60005460405163d311636b60e01b81526001600160a01b039091169063d311636b906104eb908590600401610e82565b60006040518083038186803b15801561050357600080fd5b505afa158015610517573d6000803e3d6000fd5b505050506040513d6000823e601f3d908101601f1916820160405261053f9190810190610b4e565b905080868986038151811061055057fe5b602090810291909101810191909152891515600090815260049091526040902061057a90836107aa565b600190950194909350915061046f9050565b505050509392505050565b6001600160a01b0383166000908152600360205260408120606091906105bc906107c4565b9050808311156105ca578092505b8284106105e95760405162461bcd60e51b81526004016103ea90610e40565b83830367ffffffffffffffff8111801561060257600080fd5b5060405190808252806020026020018201604052801561063c57816020015b6106296108df565b8152602001906001900390816106215790505b509150835b8381101561071f576001600160a01b038616600090815260036020526040812061066b908361079a565b90506106756108df565b60005460405163d311636b60e01b81526001600160a01b039091169063d311636b906106a5908590600401610e82565b60006040518083038186803b1580156106bd57600080fd5b505afa1580156106d1573d6000803e3d6000fd5b505050506040513d6000823e601f3d908101601f191682016040526106f99190810190610b4e565b905080858885038151811061070a57fe5b60209081029190910101525050600101610641565b50509392505050565b600560205281600052604060002081815481106102c357fe5b8015156000908152600460205260408120610318906107a6565b6001600160a01b0381166000908152600360205260408120610318906107c4565b6000546001600160a01b031681565b6001546001600160a01b031681565b600061031583836107cf565b5490565b6000806107b984846001610814565b915091509250929050565b6000610318826107a6565b815460009082106107f25760405162461bcd60e51b81526004016103ea90610dfe565b82600001828154811061080157fe5b9060005260206000200154905092915050565b600080610821858561085b565b61083057506000905080610853565b505060008281526001848101602090815260408084208515158552909152909120545b935093915050565b6000818152600183016020908152604080832083805290915281205415801561089e57506000828152600180850160209081526040808420928452919052902054155b156108d75760008080526001808501602090815260408084209284529190529020548214156108cf57506001610318565b506000610318565b506001610318565b6040518061018001604052806000815260200160006001600160a01b0316815260200160006001600160a01b03168152602001600015158152602001600081526020016000815260200160008152602001600081526020016000600381111561094457fe5b81526020016060815260200160008152602001600081525090565b805161031881610f06565b805161031881610f1e565b805161031881610f2c565b600082601f830112610990578081fd5b81516109a361099e82610eb2565b610e8b565b91508082528360208285010111156109ba57600080fd5b6109cb816020840160208601610ed6565b5092915050565b6000602082840312156109e3578081fd5b81356109ee81610f06565b9392505050565b60008060008060808587031215610a0a578283fd5b8435610a1581610f06565b93506020850135610a2581610f06565b925060408501359150606085013567ffffffffffffffff811115610a47578182fd5b8501601f81018713610a57578182fd5b8035610a6561099e82610eb2565b818152886020838501011115610a79578384fd5b81602084016020830137908101602001929092525092959194509250565b60008060408385031215610aa9578182fd5b8235610ab481610f06565b946020939093013593505050565b600080600060608486031215610ad6578283fd5b8335610ae181610f06565b95602085013595506040909401359392505050565b600060208284031215610b07578081fd5b81356109ee81610f1e565b600080600060608486031215610b26578283fd5b8335610ae181610f1e565b60008060408385031215610b43578182fd5b8235610ab481610f2c565b600060208284031215610b5f578081fd5b815167ffffffffffffffff80821115610b76578283fd5b8184019150610180808387031215610b8c578384fd5b610b9581610e8b565b905082518152610ba8866020850161095f565b6020820152610bba866040850161095f565b6040820152610bcc866060850161096a565b60608201526080830151608082015260a083015160a082015260c083015160c082015260e083015160e0820152610100610c0887828601610975565b908201526101208381015183811115610c1f578586fd5b610c2b88828701610980565b918301919091525061014083810151908201526101609283015192810192909252509392505050565b600060208284031215610c65578081fd5b5035919050565b600060208284031215610c7d578081fd5b5051919050565b6001600160a01b03169052565b15159052565b60048110610ca157fe5b9052565b60008151808452610cbd816020860160208601610ed6565b601f01601f19169290920160200192915050565b60208082528251828201819052600091906040908185019080840286018301878501865b83811015610dc757603f1989840301855281516101808151855288820151610d1f8a870182610c84565b5087820151610d3089870182610c84565b50606080830151610d4382880182610c91565b50506080828101519086015260a0808301519086015260c0808301519086015260e0808301519086015261010080830151610d8082880182610c97565b5050610120808301518282880152610d9a83880182610ca5565b61014085810151908901526101609485015194909701939093525050509386019390860190600101610cf5565b509098975050505050505050565b6001600160e01b031991909116815260200190565b6001600160a01b0391909116815260200190565b60208082526022908201527f456e756d657261626c655365743a20696e646578206f7574206f6620626f756e604082015261647360f01b606082015260800190565b60208082526022908201527f4f7264657253746f72653a20696e646578206973206f7574206f6620626f756e604082015261321760f11b606082015260800190565b90815260200190565b60405181810167ffffffffffffffff81118282101715610eaa57600080fd5b604052919050565b600067ffffffffffffffff821115610ec8578081fd5b50601f01601f191660200190565b60005b83811015610ef1578181015183820152602001610ed9565b83811115610f00576000848401525b50505050565b6001600160a01b0381168114610f1b57600080fd5b50565b8015158114610f1b57600080fd5b60048110610f1b57600080fdfea2646970667358221220d2e3056952c07ba4942563a9a98f5fe5e6a4433940a36d9edb29528e0ad0f94a64736f6c634300060c0033",
  "immutableReferences": {},
  "source": "// SPDX-License-Identifier: MIT\npragma solidity ^0.6.0;\npragma experimental ABIEncoderV2;\n\nimport \"./BasicStruct.sol\";\n\ncontract OrderStore is IStructureInterface, IERC721Receiver {\n    using SafeMath for uint256;\n    using EnumerableSet for EnumerableSet.UintSet;\n    using StructuredLinkedList for StructuredLinkedList.List;\n\n    IOrderNFT public orderNFT;\n    IOrderDetailNFT public orderDetailNFT;\n    mapping(address => uint256[]) public userOrdersMap;  // \n    mapping(address => EnumerableSet.UintSet) private userHangingOrdersMap;  // \n    mapping(bool => StructuredLinkedList.List) private bBuyOrdersMap;  // , bool: true-false-\n    mapping(OrderStatus => uint256[]) public sealedOrdersMap;  // \n    \n    constructor () public {\n    }\n\n    // ID\n    function getValue(uint256 _nftId) view public override returns(uint256) {\n        if (_nftId == 0) return 0;\n        NFTInfo memory nftInfo = orderNFT.getOrderInfo(_nftId);\n        return nftInfo.spotPrice;\n    }\n    \n    // \n    // token0U\n    function addOrder(bool _bBuyQuoteToken, uint256 _spotPrice, uint256 _inAmount, uint256 _minOutAmount) internal returns(uint256) {\n        uint256 orderId = orderNFT.mint(address(this), msg.sender, _bBuyQuoteToken, _spotPrice, _inAmount, _minOutAmount);\n        \n        userOrdersMap[msg.sender].push(orderId);\n        addHangingOrder(orderId, _bBuyQuoteToken, _spotPrice);\n\n        userHangingOrdersMap[msg.sender].add(orderId);\n        return orderId;\n    }\n    \n    function addOrderDetail(address _orderOwner, uint256 _orderId, uint256 _inAmount, uint256 _outAmount, SwapPool _swapPool, address[] memory _path) internal returns(uint256) {\n        uint256 orderDetailId = orderDetailNFT.mint(_orderOwner, _inAmount, _outAmount, _orderId, _swapPool, _path);\n        return orderDetailId;\n    }\n\n    // \n    // 1: \n    // 2: \n    function addHangingOrder(uint256 _orderId, bool _bBuyQuoteToken, uint256 _spotPrice) private returns(bool) {\n        uint256 next = bBuyOrdersMap[_bBuyQuoteToken].getSortedSpot(address(this), _spotPrice, _bBuyQuoteToken);\n        \n        return bBuyOrdersMap[_bBuyQuoteToken].insertBefore(next, _orderId);\n    }\n    \n    function removeOrder(NFTInfo memory _orderInfo) private returns(bool) {\n        orderNFT.transferFrom(address(this), _orderInfo.owner, _orderInfo.id);\n        sealedOrdersMap[_orderInfo.status].push(_orderInfo.id);\n        userHangingOrdersMap[msg.sender].remove(_orderInfo.id);\n        uint256 node = bBuyOrdersMap[_orderInfo.bBuyQuoteToken].remove(_orderInfo.id);\n        return node > 0;\n    }\n    \n    // \n    function setManualCancelOrder(uint256 _orderId) internal returns(bool) {\n        NFTInfo memory orderInfo = orderNFT.getOrderInfo(_orderId);\n        \n        require(orderInfo.owner == msg.sender, \"OrderStore: only book owner can cancel the order.\");\n        require(orderInfo.status == OrderStatus.Hanging, \"OrderStore: only hanging order can be canceled.\");\n        \n        orderNFT.sealNFT(_orderId, OrderStatus.ManualCanceled, 0, \"\");\n        sealedOrdersMap[OrderStatus.ManualCanceled].push(_orderId);\n        removeOrder(orderInfo);\n    }\n    \n    function setAMMDealOrder(uint256 _orderId, uint256 _outAmount) internal returns(bool) {\n        NFTInfo memory orderInfo = orderNFT.getOrderInfo(_orderId);\n        \n        require(orderInfo.status == OrderStatus.Hanging, \"OrderStore: only hanging order can become AMMDeal status.\");\n        \n        orderNFT.sealNFT(_orderId, OrderStatus.AMMDeal, _outAmount, \"\");\n        sealedOrdersMap[OrderStatus.AMMDeal].push(_orderId);\n        removeOrder(orderInfo);\n    }\n    \n    function setExceptionOrder(uint256 _orderId, string memory _comment) internal returns(bool) {\n        NFTInfo memory orderInfo = orderNFT.getOrderInfo(_orderId);\n        \n        require(orderInfo.status == OrderStatus.Hanging, \"OrderStore: only hanging order can become exception status.\");\n        \n        orderNFT.sealNFT(_orderId, OrderStatus.Exception, 0, _comment);\n        sealedOrdersMap[OrderStatus.Exception].push(_orderId);\n        removeOrder(orderInfo);\n    }\n\n    // \n    function getHeaderOrderIndex(bool _bBuy) view internal returns(bool exist, uint256 index) {\n        return bBuyOrdersMap[_bBuy].getAdjacent(0, true);   // get the first node of the list\n    }\n    \n    function getTotalOrderNumber(bool _bBuy) view public returns(uint256) {\n        return bBuyOrdersMap[_bBuy].sizeOf();\n    }\n    // \n    function getOrderInfos(bool _bBuy, uint256 _fromIndex, uint256 _toIndex) view public returns(NFTInfo[] memory orderInfos) {\n        uint256 length = bBuyOrdersMap[_bBuy].sizeOf();\n        if (_toIndex > length) _toIndex = length;\n        require(_fromIndex < _toIndex, \"OrderStore: index is out of bound.\");\n        \n        orderInfos = new NFTInfo[](_toIndex - _fromIndex);\n        uint256 index = 0;\n        (bool exist, uint256 currentId) = bBuyOrdersMap[_bBuy].getNextNode(0);\n        while(index < _toIndex && exist) {\n            if (index < _fromIndex) {\n                (exist, currentId) = bBuyOrdersMap[_bBuy].getNextNode(currentId);\n                index++;\n                continue;\n            }\n            NFTInfo memory orderInfo = orderNFT.getOrderInfo(currentId);\n            orderInfos[index - _fromIndex] = orderInfo;\n            \n            (exist, currentId) = bBuyOrdersMap[_bBuy].getNextNode(currentId);\n            index++;\n        }\n    }\n\n    // \n    function popFront(bool _bBuy) internal returns(uint256 index) {\n        return bBuyOrdersMap[_bBuy].popFront();\n    }\n    // \n    function pushFront(bool _bBuy, uint256 _index) internal returns(bool) {\n        return bBuyOrdersMap[_bBuy].pushFront(_index);\n    }\n    // \n    function getOrderDetailNumber(uint256 _orderId) view public returns(uint256) {\n        return orderNFT.getOrderDetailNumber(_orderId);\n    }\n    // \n    function getUserOrderNumber(address _userAddr) view public returns(uint256) {\n        return userOrdersMap[_userAddr].length;\n    }\n    // \n    function getUserHangingOrderNumber(address _userAddr) view public returns(uint256) {\n        return userHangingOrdersMap[_userAddr].length();\n    }\n    // \n    function getUserHangingOrderId(address _userAddr, uint256 _index) view public returns(uint256) {\n        return userHangingOrdersMap[_userAddr].at(_index);\n    }\n\n    function getUserHangingOrderInfos(address _userAddr, uint256 _fromIndex, uint256 _toIndex) view public returns(NFTInfo[] memory orderInfos) {\n        uint256 length = userHangingOrdersMap[_userAddr].length();\n        if (_toIndex > length) _toIndex = length;\n        require(_fromIndex < _toIndex, \"OrderStore: index is out of bound.\");\n        \n        orderInfos = new NFTInfo[](_toIndex - _fromIndex);\n        for (uint256 i = _fromIndex; i < _toIndex; i++) {\n            uint256 orderId = userHangingOrdersMap[_userAddr].at(i);\n            NFTInfo memory orderInfo = orderNFT.getOrderInfo(orderId);\n            orderInfos[i - _fromIndex] = orderInfo;\n        }\n    }\n\n    // token\n    // function getTotalDealedAmount(uint256 _fromTime, uint256 _endTime) view public returns(uint256 fromIndex, uint256 totalAmount) {\n    //     uint256 orderLength = sealedOrdersMap[OrderStatus.AMMDeal].length;\n        \n    //     uint256 lowIndex = 0;\n    //     uint256 highIndex = 0;\n    //     while(lowIndex <= highIndex) {\n    //         uint256 midIndex = lowIndex.add(highIndex).div(2);\n    //         if (midIndex == 0) {\n    //             fromIndex = 0;\n    //             break;\n    //         }\n    //         uint256 orderId = sealedOrdersMap[OrderStatus.AMMDeal][midIndex];\n    //         uint256 preOrderId = sealedOrdersMap[OrderStatus.AMMDeal][midIndex - 1];\n    //         NFTInfo memory orderInfo = orderNFT.getOrderInfo(orderId);\n    //         NFTInfo memory preOrderInfo = orderNFT.getOrderInfo(preOrderId);\n    //         if (orderInfo.dealedTime == _fromTime || preOrderInfo.dealedTime == _fromTime) {\n    //             fromIndex = orderInfo.dealedTime == _fromTime ? midIndex : midIndex - 1;\n    //             break;\n    //         } else if (preOrderInfo.dealedTime < _fromTime && orderInfo.dealedTime > _fromTime) {\n    //             fromIndex = midIndex;\n    //             break;\n    //         } else if (orderInfo.dealedTime > _fromTime) {\n    //             highIndex = midIndex;\n    //         } else {\n    //             lowIndex = midIndex;\n    //         }\n    //     }\n        \n    //     uint256 index = fromIndex;\n    //     while (index < orderLength) {\n    //         uint256 orderId = sealedOrdersMap[OrderStatus.AMMDeal][index];\n    //         NFTInfo memory orderInfo = orderNFT.getOrderInfo(orderId);\n            \n    //         if (orderInfo.dealedTime > _endTime) break;\n            \n    //         totalAmount = totalAmount.add(orderInfo.bBuyQuoteToken ? orderInfo.inAmount : orderInfo.outAmount);\n    //     }\n    // }\n    \n    function onERC721Received(address, address, uint256, bytes memory) public virtual override returns (bytes4) {\n        return this.onERC721Received.selector;\n    }\n}",
  "sourcePath": "/Users/mryu/blockchain/bobo-metaverse/boboswap-contract/contracts/common/OrderStore.sol",
  "compiler": {
    "name": "solc",
    "version": "0.6.12+commit.27d51765.Emscripten.clang"
  },
  "schemaVersion": "3.4.3",
  "updatedAt": "2021-08-22T12:14:56.589Z",
  "devdoc": {
    "kind": "dev",
    "methods": {},
    "version": 1
  },
  "userdoc": {
    "kind": "user",
    "methods": {},
    "version": 1
  }
}