{
  "contractName": "OrderNFT",
  "abi": [
    {
      "inputs": [],
      "stateMutability": "nonpayable",
      "type": "constructor"
    },
    {
      "anonymous": false,
      "inputs": [
        {
          "indexed": true,
          "internalType": "address",
          "name": "owner",
          "type": "address"
        },
        {
          "indexed": true,
          "internalType": "address",
          "name": "approved",
          "type": "address"
        },
        {
          "indexed": true,
          "internalType": "uint256",
          "name": "tokenId",
          "type": "uint256"
        }
      ],
      "name": "Approval",
      "type": "event"
    },
    {
      "anonymous": false,
      "inputs": [
        {
          "indexed": true,
          "internalType": "address",
          "name": "owner",
          "type": "address"
        },
        {
          "indexed": true,
          "internalType": "address",
          "name": "operator",
          "type": "address"
        },
        {
          "indexed": false,
          "internalType": "bool",
          "name": "approved",
          "type": "bool"
        }
      ],
      "name": "ApprovalForAll",
      "type": "event"
    },
    {
      "anonymous": false,
      "inputs": [
        {
          "indexed": true,
          "internalType": "address",
          "name": "_to",
          "type": "address"
        },
        {
          "indexed": false,
          "internalType": "uint256",
          "name": "_tokenId",
          "type": "uint256"
        }
      ],
      "name": "Mint",
      "type": "event"
    },
    {
      "anonymous": false,
      "inputs": [
        {
          "indexed": true,
          "internalType": "address",
          "name": "previousOwner",
          "type": "address"
        },
        {
          "indexed": true,
          "internalType": "address",
          "name": "newOwner",
          "type": "address"
        }
      ],
      "name": "OwnershipTransferred",
      "type": "event"
    },
    {
      "anonymous": false,
      "inputs": [
        {
          "indexed": true,
          "internalType": "address",
          "name": "from",
          "type": "address"
        },
        {
          "indexed": true,
          "internalType": "address",
          "name": "to",
          "type": "address"
        },
        {
          "indexed": true,
          "internalType": "uint256",
          "name": "tokenId",
          "type": "uint256"
        }
      ],
      "name": "Transfer",
      "type": "event"
    },
    {
      "inputs": [
        {
          "internalType": "address",
          "name": "_addMinter",
          "type": "address"
        }
      ],
      "name": "addMinter",
      "outputs": [
        {
          "internalType": "bool",
          "name": "",
          "type": "bool"
        }
      ],
      "stateMutability": "nonpayable",
      "type": "function"
    },
    {
      "inputs": [
        {
          "internalType": "address",
          "name": "to",
          "type": "address"
        },
        {
          "internalType": "uint256",
          "name": "tokenId",
          "type": "uint256"
        }
      ],
      "name": "approve",
      "outputs": [],
      "stateMutability": "nonpayable",
      "type": "function"
    },
    {
      "inputs": [
        {
          "internalType": "address",
          "name": "owner",
          "type": "address"
        }
      ],
      "name": "balanceOf",
      "outputs": [
        {
          "internalType": "uint256",
          "name": "",
          "type": "uint256"
        }
      ],
      "stateMutability": "view",
      "type": "function"
    },
    {
      "inputs": [],
      "name": "baseURI",
      "outputs": [
        {
          "internalType": "string",
          "name": "",
          "type": "string"
        }
      ],
      "stateMutability": "view",
      "type": "function"
    },
    {
      "inputs": [
        {
          "internalType": "address",
          "name": "_delMinter",
          "type": "address"
        }
      ],
      "name": "delMinter",
      "outputs": [
        {
          "internalType": "bool",
          "name": "",
          "type": "bool"
        }
      ],
      "stateMutability": "nonpayable",
      "type": "function"
    },
    {
      "inputs": [
        {
          "internalType": "uint256",
          "name": "tokenId",
          "type": "uint256"
        }
      ],
      "name": "getApproved",
      "outputs": [
        {
          "internalType": "address",
          "name": "",
          "type": "address"
        }
      ],
      "stateMutability": "view",
      "type": "function"
    },
    {
      "inputs": [
        {
          "internalType": "uint256",
          "name": "_index",
          "type": "uint256"
        }
      ],
      "name": "getMinter",
      "outputs": [
        {
          "internalType": "address",
          "name": "",
          "type": "address"
        }
      ],
      "stateMutability": "view",
      "type": "function"
    },
    {
      "inputs": [],
      "name": "getMinterLength",
      "outputs": [
        {
          "internalType": "uint256",
          "name": "",
          "type": "uint256"
        }
      ],
      "stateMutability": "view",
      "type": "function"
    },
    {
      "inputs": [
        {
          "internalType": "uint256",
          "name": "",
          "type": "uint256"
        }
      ],
      "name": "id2NFTInfoMap",
      "outputs": [
        {
          "internalType": "uint256",
          "name": "id",
          "type": "uint256"
        },
        {
          "internalType": "address",
          "name": "owner",
          "type": "address"
        },
        {
          "internalType": "address",
          "name": "pairAddr",
          "type": "address"
        },
        {
          "internalType": "bool",
          "name": "bBuyQuoteToken",
          "type": "bool"
        },
        {
          "internalType": "uint256",
          "name": "spotPrice",
          "type": "uint256"
        },
        {
          "internalType": "uint256",
          "name": "inAmount",
          "type": "uint256"
        },
        {
          "internalType": "uint256",
          "name": "minOutAmount",
          "type": "uint256"
        },
        {
          "internalType": "uint256",
          "name": "outAmount",
          "type": "uint256"
        },
        {
          "internalType": "enum OrderStatus",
          "name": "status",
          "type": "uint8"
        },
        {
          "internalType": "string",
          "name": "comment",
          "type": "string"
        },
        {
          "internalType": "uint256",
          "name": "delegateTime",
          "type": "uint256"
        },
        {
          "internalType": "uint256",
          "name": "dealedTime",
          "type": "uint256"
        }
      ],
      "stateMutability": "view",
      "type": "function"
    },
    {
      "inputs": [
        {
          "internalType": "address",
          "name": "owner",
          "type": "address"
        },
        {
          "internalType": "address",
          "name": "operator",
          "type": "address"
        }
      ],
      "name": "isApprovedForAll",
      "outputs": [
        {
          "internalType": "bool",
          "name": "",
          "type": "bool"
        }
      ],
      "stateMutability": "view",
      "type": "function"
    },
    {
      "inputs": [
        {
          "internalType": "address",
          "name": "account",
          "type": "address"
        }
      ],
      "name": "isMinter",
      "outputs": [
        {
          "internalType": "bool",
          "name": "",
          "type": "bool"
        }
      ],
      "stateMutability": "view",
      "type": "function"
    },
    {
      "inputs": [],
      "name": "name",
      "outputs": [
        {
          "internalType": "string",
          "name": "",
          "type": "string"
        }
      ],
      "stateMutability": "view",
      "type": "function"
    },
    {
      "inputs": [],
      "name": "nftId",
      "outputs": [
        {
          "internalType": "uint256",
          "name": "",
          "type": "uint256"
        }
      ],
      "stateMutability": "view",
      "type": "function"
    },
    {
      "inputs": [
        {
          "internalType": "uint256",
          "name": "",
          "type": "uint256"
        },
        {
          "internalType": "uint256",
          "name": "",
          "type": "uint256"
        }
      ],
      "name": "orderDetailIds",
      "outputs": [
        {
          "internalType": "uint256",
          "name": "",
          "type": "uint256"
        }
      ],
      "stateMutability": "view",
      "type": "function"
    },
    {
      "inputs": [],
      "name": "orderDetailNFTContractAddr",
      "outputs": [
        {
          "internalType": "address",
          "name": "",
          "type": "address"
        }
      ],
      "stateMutability": "view",
      "type": "function"
    },
    {
      "inputs": [],
      "name": "owner",
      "outputs": [
        {
          "internalType": "address",
          "name": "",
          "type": "address"
        }
      ],
      "stateMutability": "view",
      "type": "function"
    },
    {
      "inputs": [
        {
          "internalType": "address",
          "name": "",
          "type": "address"
        },
        {
          "internalType": "address",
          "name": "",
          "type": "address"
        },
        {
          "internalType": "uint256",
          "name": "",
          "type": "uint256"
        }
      ],
      "name": "owner2PairAddr2OrderIDsMap",
      "outputs": [
        {
          "internalType": "uint256",
          "name": "",
          "type": "uint256"
        }
      ],
      "stateMutability": "view",
      "type": "function"
    },
    {
      "inputs": [
        {
          "internalType": "uint256",
          "name": "tokenId",
          "type": "uint256"
        }
      ],
      "name": "ownerOf",
      "outputs": [
        {
          "internalType": "address",
          "name": "",
          "type": "address"
        }
      ],
      "stateMutability": "view",
      "type": "function"
    },
    {
      "inputs": [],
      "name": "renounceOwnership",
      "outputs": [],
      "stateMutability": "nonpayable",
      "type": "function"
    },
    {
      "inputs": [
        {
          "internalType": "address",
          "name": "from",
          "type": "address"
        },
        {
          "internalType": "address",
          "name": "to",
          "type": "address"
        },
        {
          "internalType": "uint256",
          "name": "tokenId",
          "type": "uint256"
        }
      ],
      "name": "safeTransferFrom",
      "outputs": [],
      "stateMutability": "nonpayable",
      "type": "function"
    },
    {
      "inputs": [
        {
          "internalType": "address",
          "name": "from",
          "type": "address"
        },
        {
          "internalType": "address",
          "name": "to",
          "type": "address"
        },
        {
          "internalType": "uint256",
          "name": "tokenId",
          "type": "uint256"
        },
        {
          "internalType": "bytes",
          "name": "_data",
          "type": "bytes"
        }
      ],
      "name": "safeTransferFrom",
      "outputs": [],
      "stateMutability": "nonpayable",
      "type": "function"
    },
    {
      "inputs": [
        {
          "internalType": "address",
          "name": "operator",
          "type": "address"
        },
        {
          "internalType": "bool",
          "name": "approved",
          "type": "bool"
        }
      ],
      "name": "setApprovalForAll",
      "outputs": [],
      "stateMutability": "nonpayable",
      "type": "function"
    },
    {
      "inputs": [
        {
          "internalType": "bytes4",
          "name": "interfaceId",
          "type": "bytes4"
        }
      ],
      "name": "supportsInterface",
      "outputs": [
        {
          "internalType": "bool",
          "name": "",
          "type": "bool"
        }
      ],
      "stateMutability": "view",
      "type": "function"
    },
    {
      "inputs": [],
      "name": "symbol",
      "outputs": [
        {
          "internalType": "string",
          "name": "",
          "type": "string"
        }
      ],
      "stateMutability": "view",
      "type": "function"
    },
    {
      "inputs": [
        {
          "internalType": "uint256",
          "name": "index",
          "type": "uint256"
        }
      ],
      "name": "tokenByIndex",
      "outputs": [
        {
          "internalType": "uint256",
          "name": "",
          "type": "uint256"
        }
      ],
      "stateMutability": "view",
      "type": "function"
    },
    {
      "inputs": [
        {
          "internalType": "address",
          "name": "owner",
          "type": "address"
        },
        {
          "internalType": "uint256",
          "name": "index",
          "type": "uint256"
        }
      ],
      "name": "tokenOfOwnerByIndex",
      "outputs": [
        {
          "internalType": "uint256",
          "name": "",
          "type": "uint256"
        }
      ],
      "stateMutability": "view",
      "type": "function"
    },
    {
      "inputs": [
        {
          "internalType": "uint256",
          "name": "tokenId",
          "type": "uint256"
        }
      ],
      "name": "tokenURI",
      "outputs": [
        {
          "internalType": "string",
          "name": "",
          "type": "string"
        }
      ],
      "stateMutability": "view",
      "type": "function"
    },
    {
      "inputs": [],
      "name": "totalSupply",
      "outputs": [
        {
          "internalType": "uint256",
          "name": "",
          "type": "uint256"
        }
      ],
      "stateMutability": "view",
      "type": "function"
    },
    {
      "inputs": [
        {
          "internalType": "address",
          "name": "from",
          "type": "address"
        },
        {
          "internalType": "address",
          "name": "to",
          "type": "address"
        },
        {
          "internalType": "uint256",
          "name": "tokenId",
          "type": "uint256"
        }
      ],
      "name": "transferFrom",
      "outputs": [],
      "stateMutability": "nonpayable",
      "type": "function"
    },
    {
      "inputs": [
        {
          "internalType": "address",
          "name": "newOwner",
          "type": "address"
        }
      ],
      "name": "transferOwnership",
      "outputs": [],
      "stateMutability": "nonpayable",
      "type": "function"
    },
    {
      "inputs": [
        {
          "internalType": "address",
          "name": "_orderDetailNFTContractAddr",
          "type": "address"
        }
      ],
      "name": "setOrderDetailNFTContract",
      "outputs": [],
      "stateMutability": "nonpayable",
      "type": "function"
    },
    {
      "inputs": [
        {
          "internalType": "address",
          "name": "_pairAddr",
          "type": "address"
        },
        {
          "internalType": "address",
          "name": "bookOwner",
          "type": "address"
        },
        {
          "internalType": "bool",
          "name": "_bBuyQuoteToken",
          "type": "bool"
        },
        {
          "internalType": "uint256",
          "name": "_spotPrice",
          "type": "uint256"
        },
        {
          "internalType": "uint256",
          "name": "_inAmount",
          "type": "uint256"
        },
        {
          "internalType": "uint256",
          "name": "_minOutAmount",
          "type": "uint256"
        }
      ],
      "name": "mint",
      "outputs": [
        {
          "internalType": "uint256",
          "name": "",
          "type": "uint256"
        }
      ],
      "stateMutability": "nonpayable",
      "type": "function"
    },
    {
      "inputs": [
        {
          "internalType": "uint256",
          "name": "_nftId",
          "type": "uint256"
        },
        {
          "internalType": "enum OrderStatus",
          "name": "_status",
          "type": "uint8"
        },
        {
          "internalType": "uint256",
          "name": "_outAmount",
          "type": "uint256"
        },
        {
          "internalType": "string",
          "name": "_comment",
          "type": "string"
        }
      ],
      "name": "sealNFT",
      "outputs": [],
      "stateMutability": "nonpayable",
      "type": "function"
    },
    {
      "inputs": [
        {
          "internalType": "uint256",
          "name": "_nftId",
          "type": "uint256"
        },
        {
          "internalType": "uint256",
          "name": "detailNFTId",
          "type": "uint256"
        }
      ],
      "name": "bindDetailNFT",
      "outputs": [],
      "stateMutability": "nonpayable",
      "type": "function"
    },
    {
      "inputs": [
        {
          "internalType": "uint256",
          "name": "_nftId",
          "type": "uint256"
        }
      ],
      "name": "getOrderInfo",
      "outputs": [
        {
          "components": [
            {
              "internalType": "uint256",
              "name": "id",
              "type": "uint256"
            },
            {
              "internalType": "address",
              "name": "owner",
              "type": "address"
            },
            {
              "internalType": "address",
              "name": "pairAddr",
              "type": "address"
            },
            {
              "internalType": "bool",
              "name": "bBuyQuoteToken",
              "type": "bool"
            },
            {
              "internalType": "uint256",
              "name": "spotPrice",
              "type": "uint256"
            },
            {
              "internalType": "uint256",
              "name": "inAmount",
              "type": "uint256"
            },
            {
              "internalType": "uint256",
              "name": "minOutAmount",
              "type": "uint256"
            },
            {
              "internalType": "uint256",
              "name": "outAmount",
              "type": "uint256"
            },
            {
              "internalType": "enum OrderStatus",
              "name": "status",
              "type": "uint8"
            },
            {
              "internalType": "string",
              "name": "comment",
              "type": "string"
            },
            {
              "internalType": "uint256",
              "name": "delegateTime",
              "type": "uint256"
            },
            {
              "internalType": "uint256",
              "name": "dealedTime",
              "type": "uint256"
            }
          ],
          "internalType": "struct NFTInfo",
          "name": "nftInfo",
          "type": "tuple"
        }
      ],
      "stateMutability": "view",
      "type": "function"
    },
    {
      "inputs": [
        {
          "internalType": "uint256",
          "name": "_nftId",
          "type": "uint256"
        }
      ],
      "name": "getWeight",
      "outputs": [
        {
          "internalType": "uint256",
          "name": "weight",
          "type": "uint256"
        }
      ],
      "stateMutability": "view",
      "type": "function"
    },
    {
      "inputs": [
        {
          "internalType": "uint256",
          "name": "x",
          "type": "uint256"
        }
      ],
      "name": "sqrt",
      "outputs": [
        {
          "internalType": "uint256",
          "name": "",
          "type": "uint256"
        }
      ],
      "stateMutability": "pure",
      "type": "function"
    },
    {
      "inputs": [
        {
          "internalType": "uint256",
          "name": "_nftId",
          "type": "uint256"
        }
      ],
      "name": "getOrderDetailNumber",
      "outputs": [
        {
          "internalType": "uint256",
          "name": "",
          "type": "uint256"
        }
      ],
      "stateMutability": "view",
      "type": "function"
    },
    {
      "inputs": [
        {
          "internalType": "uint256",
          "name": "_nftId",
          "type": "uint256"
        },
        {
          "internalType": "uint256",
          "name": "_fromId",
          "type": "uint256"
        },
        {
          "internalType": "uint256",
          "name": "_toId",
          "type": "uint256"
        }
      ],
      "name": "getChildrenIds",
      "outputs": [
        {
          "internalType": "uint256[]",
          "name": "ids",
          "type": "uint256[]"
        }
      ],
      "stateMutability": "view",
      "type": "function"
    }
  ],
  "bytecode": "0x60806040526000600d553480156200001657600080fd5b506040518060400160405280600e81526020016d109bd89bc813dc99195c8813919560921b815250604051806040016040528060038152602001621093d560ea1b81525060006200006c6200013260201b60201c565b600080546001600160a01b0319166001600160a01b0383169081178255604051929350917f8be0079c531659141344cd1fd0a4f28419497f9722a3daafe3b4186f6b6457e0908290a350620000c86301ffc9a760e01b62000136565b8151620000dd90600990602085019062000191565b508051620000f390600a90602084019062000191565b50620001066380ac58cd60e01b62000136565b62000118635b5e139f60e01b62000136565b6200012a63780e9d6360e01b62000136565b505062000264565b3390565b6001600160e01b031980821614156200016c5760405162461bcd60e51b815260040162000163906200022d565b60405180910390fd5b6001600160e01b0319166000908152600360205260409020805460ff19166001179055565b828054600181600116156101000203166002900490600052602060002090601f016020900481019282601f10620001d457805160ff191683800117855562000204565b8280016001018555821562000204579182015b8281111562000204578251825591602001919060010190620001e7565b506200021292915062000216565b5090565b5b8082111562000212576000815560010162000217565b6020808252601c908201527f4552433136353a20696e76616c696420696e7465726661636520696400000000604082015260600190565b61310780620002746000396000f3fe608060405234801561001057600080fd5b506004361061023d5760003560e01c80636352211e1161013b578063aa271e1a116100b8578063d311636b1161007c578063d311636b146104c9578063d4e56810146104e9578063d851fdfd146104fc578063e985e9c51461050f578063f2fde38b146105225761023d565b8063aa271e1a14610468578063aae689ed1461047b578063b88d4fde1461049b578063c6bc5182146104ae578063c87b56dd146104b65761023d565b80637375027c116100ff5780637375027c1461041f5780638da5cb5b1461043257806395d89b411461043a578063983b2d5614610442578063a22cb465146104555761023d565b80636352211e146103d6578063677342ce146103e95780636c0360eb146103fc57806370a0823114610404578063715018a6146104175761023d565b80632f745c59116101c95780634bba80501161018d5780634bba8050146103825780634f6ccce714610395578063503d2b8d146103a85780635b7121f8146103b05780635db27796146103c35761023d565b80632f745c591461030b578063327d07901461031e578063371849151461034957806339744be51461035c57806342842e0e1461036f5761023d565b8063095ea7b311610210578063095ea7b3146102b557806318160ddd146102ca57806323338b88146102d257806323b872dd146102e55780632cbe9eb2146102f85761023d565b806301ffc9a7146102425780630323aac71461026b57806306fdde0314610280578063081812fc14610295575b600080fd5b610255610250366004612584565b610535565b60405161026291906127bf565b60405180910390f35b610273610558565b6040516102629190612f91565b610288610569565b60405161026291906127ca565b6102a86102a33660046125bc565b6105ff565b6040516102629190612734565b6102c86102c336600461255a565b61064b565b005b6102736106e3565b6102556102e03660046123d7565b6106ef565b6102c86102f3366004612487565b61075d565b610273610306366004612487565b610795565b61027361031936600461255a565b6107d0565b61033161032c3660046125bc565b6107f9565b6040516102629c9b9a99989796959493929190612f9a565b6102c86103573660046125fe565b6108f5565b6102c861036a3660046123d7565b610969565b6102c861037d366004612487565b6109c0565b6102736103903660046125bc565b6109db565b6102736103a33660046125bc565b6109ed565b6102a8610a03565b6102a86103be3660046125bc565b610a12565b6102736103d13660046125fe565b610a7e565b6102a86103e43660046125bc565b610aac565b6102736103f73660046125bc565b610ad4565b610288610b06565b6102736104123660046123d7565b610b67565b6102c8610bb0565b61027361042d366004612426565b610c2f565b6102a8610e67565b610288610e76565b6102556104503660046123d7565b610ed7565b6102c861046336600461252f565b610f3f565b6102556104763660046123d7565b61100d565b61048e61048936600461261f565b61101a565b604051610262919061277b565b6102c86104a93660046124c7565b6110fd565b61027361113c565b6102886104c43660046125bc565b611142565b6104dc6104d73660046125bc565b61128c565b6040516102629190612ecb565b6102c86104f73660046125d4565b61140e565b61027361050a3660046125bc565b6114be565b61025561051d3660046123f2565b6116db565b6102c86105303660046123d7565b611709565b6001600160e01b0319811660009081526003602052604090205460ff165b919050565b600061056460016117bf565b905090565b60098054604080516020601f60026000196101006001881615020190951694909404938401819004810282018101909252828152606093909290918301828280156105f55780601f106105ca576101008083540402835291602001916105f5565b820191906000526020600020905b8154815290600101906020018083116105d857829003601f168201915b5050505050905090565b600061060a826117ca565b61062f5760405162461bcd60e51b815260040161062690612ca3565b60405180910390fd5b506000908152600760205260409020546001600160a01b031690565b600061065682610aac565b9050806001600160a01b0316836001600160a01b0316141561068a5760405162461bcd60e51b815260040161062690612dbc565b806001600160a01b031661069c6117d7565b6001600160a01b031614806106b857506106b88161051d6117d7565b6106d45760405162461bcd60e51b815260040161062690612b17565b6106de83836117db565b505050565b600061056460056117bf565b60006106f96117d7565b6000546001600160a01b039081169116146107265760405162461bcd60e51b815260040161062690612cef565b6001600160a01b03821661074c5760405162461bcd60e51b815260040161062690612dfd565b610757600183611849565b92915050565b61076e6107686117d7565b8261185e565b61078a5760405162461bcd60e51b815260040161062690612e43565b6106de8383836118e3565b601060205282600052604060002060205281600052604060002081815481106107ba57fe5b9060005260206000200160009250925050505481565b6001600160a01b03821660009081526004602052604081206107f290836119f1565b9392505050565b600f602090815260009182526040918290208054600180830154600280850154600386015460048701546005880154600689015460078a015460088b0180548e516101009b8216159b909b02600019011697909704601f81018d90048d028a018d01909d528c8952989b6001600160a01b039788169b9786169a600160a01b90960460ff9081169a959994989397929695169493928301828280156108df5780601f106108b4576101008083540402835291602001916108df565b820191906000526020600020905b8154815290600101906020018083116108c257829003601f168201915b50505050509080600901549080600a015490508c565b600e546001600160a01b0316331461091f5760405162461bcd60e51b815260040161062690612a23565b610928826117ca565b6109445760405162461bcd60e51b8152600401610626906129a0565b600d546000908152601160209081526040822080546001810182559083529120015550565b6109716117d7565b6000546001600160a01b0390811691161461099e5760405162461bcd60e51b815260040161062690612cef565b600e80546001600160a01b0319166001600160a01b0392909216919091179055565b6106de838383604051806020016040528060008152506110fd565b60009081526011602052604090205490565b6000806109fb6005846119fd565b509392505050565b600e546001600160a01b031681565b6000610a1c6117d7565b6000546001600160a01b03908116911614610a495760405162461bcd60e51b815260040161062690612cef565b6001610a53610558565b03821115610a735760405162461bcd60e51b815260040161062690612b74565b6107576001836119f1565b60116020528160005260406000208181548110610a9757fe5b90600052602060002001600091509150505481565b6000610757826040518060600160405280602981526020016130a96029913960059190611a19565b600060026001830104825b808210156107f2575080600281808681610af557fe5b040181610afe57fe5b049150610adf565b600c8054604080516020601f60026000196101006001881615020190951694909404938401819004810282018101909252828152606093909290918301828280156105f55780601f106105ca576101008083540402835291602001916105f5565b60006001600160a01b038216610b8f5760405162461bcd60e51b815260040161062690612bab565b6001600160a01b0382166000908152600460205260409020610757906117bf565b610bb86117d7565b6000546001600160a01b03908116911614610be55760405162461bcd60e51b815260040161062690612cef565b600080546040516001600160a01b03909116907f8be0079c531659141344cd1fd0a4f28419497f9722a3daafe3b4186f6b6457e0908390a3600080546001600160a01b0319169055565b6000610c3a3361100d565b610c565760405162461bcd60e51b815260040161062690612c37565b600d805460010190819055610c6c903390611a26565b604051806101800160405280600d548152602001876001600160a01b03168152602001886001600160a01b0316815260200186151581526020018581526020018481526020018381526020016000815260200160006003811115610ccc57fe5b8152604080516020818101835260008083528185019290925242838501526060938401829052600d548252600f8152908290208451815590840151600180830180546001600160a01b039384166001600160a01b03199182161790915593860151600284018054968801511515600160a01b0260ff60a01b199290941696909516959095179490941617909155608083015160038083019190915560a0840151600483015560c0840151600583015560e0840151600683015561010084015160078301805493949193909260ff1990911691908490811115610daa57fe5b02179055506101208201518051610dcb91600884019160209091019061221f565b50610140820151600982015561016090910151600a909101556001600160a01b038087166000908152601060209081526040808320938b168352928152828220600d8054825460018101845592855292909320015554905133917f0f6798a560793a54c3bcfe86a93cde1e73087d944c0ea20544137d412139688591610e519190612f91565b60405180910390a250600d549695505050505050565b6000546001600160a01b031690565b600a8054604080516020601f60026000196101006001881615020190951694909404938401819004810282018101909252828152606093909290918301828280156105f55780601f106105ca576101008083540402835291602001916105f5565b6000610ee16117d7565b6000546001600160a01b03908116911614610f0e5760405162461bcd60e51b815260040161062690612cef565b6001600160a01b038216610f345760405162461bcd60e51b815260040161062690612ad1565b610757600183611a44565b610f476117d7565b6001600160a01b0316826001600160a01b03161415610f785760405162461bcd60e51b815260040161062690612969565b8060086000610f856117d7565b6001600160a01b03908116825260208083019390935260409182016000908120918716808252919093529120805460ff191692151592909217909155610fc96117d7565b6001600160a01b03167f17307eab39ab6107e8899845ad3d59bd9653f200f220920489ca2b5937696c318360405161100191906127bf565b60405180910390a35050565b6000610757600183611a59565b600083815260116020526040902054606090828410801561103b5750808311155b6110575760405162461bcd60e51b81526004016106269061281f565b83830367ffffffffffffffff8111801561107057600080fd5b5060405190808252806020026020018201604052801561109a578160200160208202803683370190505b5091506000845b848110156110f35760008781526011602052604090208054829081106110c357fe5b90600052602060002001548483806001019450815181106110e057fe5b60209081029190910101526001016110a1565b5050509392505050565b61110e6111086117d7565b8361185e565b61112a5760405162461bcd60e51b815260040161062690612e43565b61113684848484611a6e565b50505050565b600d5481565b606061114d826117ca565b6111695760405162461bcd60e51b815260040161062690612d6d565b6000828152600b602090815260409182902080548351601f60026000196101006001861615020190931692909204918201849004840281018401909452808452606093928301828280156111fe5780601f106111d3576101008083540402835291602001916111fe565b820191906000526020600020905b8154815290600101906020018083116111e157829003601f168201915b5050600c5493945050505060026000196101006001841615020190911604611227579050610553565b80511561125957600c816040516020016112429291906126b3565b604051602081830303815290604052915050610553565b600c61126484611aa1565b6040516020016112759291906126b3565b604051602081830303815290604052915050919050565b61129461229d565b61129d826117ca565b6112b95760405162461bcd60e51b8152600401610626906129a0565b6000828152600f60209081526040918290208251610180810184528154815260018201546001600160a01b0390811693820193909352600282015492831693810193909352600160a01b90910460ff908116151560608401526003808301546080850152600483015460a0850152600583015460c0850152600683015460e08501526007830154610100850192169081111561135157fe5b600381111561135c57fe5b815260088201805460408051602060026001851615610100026000190190941693909304601f81018490048402820184019092528181529382019392918301828280156113ea5780601f106113bf576101008083540402835291602001916113ea565b820191906000526020600020905b8154815290600101906020018083116113cd57829003601f168201915b5050505050815260200160098201548152602001600a820154815250509050919050565b6114173361100d565b6114335760405162461bcd60e51b815260040161062690612c37565b61143c846117ca565b6114585760405162461bcd60e51b8152600401610626906129a0565b6000848152600f60205260409020600701805484919060ff1916600183600381111561148057fe5b02179055506000848152600f6020908152604090912042600a8201556006810184905582516114b79260089092019184019061221f565b5050505050565b60006114c9826117ca565b6114e55760405162461bcd60e51b8152600401610626906129a0565b6114ed61229d565b6000838152600f60209081526040918290208251610180810184528154815260018201546001600160a01b0390811693820193909352600282015492831693810193909352600160a01b90910460ff908116151560608401526003808301546080850152600483015460a0850152600583015460c0850152600683015460e08501526007830154610100850192169081111561158557fe5b600381111561159057fe5b815260088201805460408051602060026001851615610100026000190190941693909304601f810184900484028201840190925281815293820193929183018282801561161e5780601f106115f35761010080835404028352916020019161161e565b820191906000526020600020905b81548152906001019060200180831161160157829003601f168201915b505050918352505060098201546020820152600a9091015460409091015290506002816101000151600381111561165157fe5b1461166e5760405162461bcd60e51b815260040161062690612a8a565b600061168d826101400151836101600151611b7c90919063ffffffff16565b9050600081156116a5576116a082610ad4565b6116a8565b60015b9050600083606001516116bf578360e001516116c5565b8360a001515b90506116d18183611bbe565b9695505050505050565b6001600160a01b03918216600090815260086020908152604080832093909416825291909152205460ff1690565b6117116117d7565b6000546001600160a01b0390811691161461173e5760405162461bcd60e51b815260040161062690612cef565b6001600160a01b0381166117645760405162461bcd60e51b8152600401610626906128a8565b600080546040516001600160a01b03808516939216917f8be0079c531659141344cd1fd0a4f28419497f9722a3daafe3b4186f6b6457e091a3600080546001600160a01b0319166001600160a01b0392909216919091179055565b600061075782611c00565b6000610757600583611c04565b3390565b600081815260076020526040902080546001600160a01b0319166001600160a01b038416908117909155819061181082610aac565b6001600160a01b03167f8c5be1e5ebec7d5bd14f71427d1e84f3dd0314c0f7b2291e5b200ac8c7c3b92560405160405180910390a45050565b60006107f2836001600160a01b038416611c10565b6000611869826117ca565b6118855760405162461bcd60e51b8152600401610626906129d7565b600061189083610aac565b9050806001600160a01b0316846001600160a01b031614806118cb5750836001600160a01b03166118c0846105ff565b6001600160a01b0316145b806118db57506118db81856116db565b949350505050565b826001600160a01b03166118f682610aac565b6001600160a01b03161461191c5760405162461bcd60e51b815260040161062690612d24565b6001600160a01b0382166119425760405162461bcd60e51b815260040161062690612925565b61194d8383836106de565b6119586000826117db565b6001600160a01b038316600090815260046020526040902061197a9082611cd6565b506001600160a01b038216600090815260046020526040902061199d9082611ce2565b506119aa60058284611cee565b5080826001600160a01b0316846001600160a01b03167fddf252ad1be2c89b69c2b068fc378daa952ba7f163c4a11628f55a4df523b3ef60405160405180910390a4505050565b60006107f28383611d04565b6000808080611a0c8686611d49565b9097909650945050505050565b60006118db848484611da5565b611a40828260405180602001604052806000815250611e04565b5050565b60006107f2836001600160a01b038416611e37565b60006107f2836001600160a01b038416611e81565b611a798484846118e3565b611a8584848484611e99565b6111365760405162461bcd60e51b815260040161062690612856565b606081611ac657506040805180820190915260018152600360fc1b6020820152610553565b8160005b8115611ade57600101600a82049150611aca565b60608167ffffffffffffffff81118015611af757600080fd5b506040519080825280601f01601f191660200182016040528015611b22576020820181803683370190505b50859350905060001982015b8315611b7357600a840660300160f81b82828060019003935081518110611b5157fe5b60200101906001600160f81b031916908160001a905350600a84049350611b2e565b50949350505050565b60006107f283836040518060400160405280601e81526020017f536166654d6174683a207375627472616374696f6e206f766572666c6f770000815250611f78565b60006107f283836040518060400160405280601a81526020017f536166654d6174683a206469766973696f6e206279207a65726f000000000000815250611fa4565b5490565b60006107f28383611e81565b60008181526001830160205260408120548015611ccc5783546000198083019190810190600090879083908110611c4357fe5b9060005260206000200154905080876000018481548110611c6057fe5b600091825260208083209091019290925582815260018981019092526040902090840190558654879080611c9057fe5b60019003818190600052602060002001600090559055866001016000878152602001908152602001600020600090556001945050505050610757565b6000915050610757565b60006107f28383611c10565b60006107f28383611e37565b60006118db84846001600160a01b038516611fdb565b81546000908210611d275760405162461bcd60e51b8152600401610626906127dd565b826000018281548110611d3657fe5b9060005260206000200154905092915050565b815460009081908310611d6e5760405162461bcd60e51b815260040161062690612bf5565b6000846000018481548110611d7f57fe5b906000526020600020906002020190508060000154816001015492509250509250929050565b60008281526001840160205260408120548281611dd55760405162461bcd60e51b815260040161062691906127ca565b50846000016001820381548110611de857fe5b9060005260206000209060020201600101549150509392505050565b611e0e8383612072565b611e1b6000848484611e99565b6106de5760405162461bcd60e51b815260040161062690612856565b6000611e438383611e81565b611e7957508154600181810184556000848152602080822090930184905584548482528286019093526040902091909155610757565b506000610757565b60009081526001919091016020526040902054151590565b6000611ead846001600160a01b0316612136565b611eb9575060016118db565b6060611f41630a85bd0160e11b611ece6117d7565b888787604051602401611ee49493929190612748565b604051602081830303815290604052906001600160e01b0319166020820180516001600160e01b038381831617835250505050604051806060016040528060328152602001613077603291396001600160a01b038816919061213c565b9050600081806020019051810190611f5991906125a0565b6001600160e01b031916630a85bd0160e11b1492505050949350505050565b60008184841115611f9c5760405162461bcd60e51b815260040161062691906127ca565b505050900390565b60008183611fc55760405162461bcd60e51b815260040161062691906127ca565b506000838581611fd157fe5b0495945050505050565b6000828152600184016020526040812054806120405750506040805180820182528381526020808201848152865460018181018955600089815284812095516002909302909501918255915190820155865486845281880190925292909120556107f2565b8285600001600183038154811061205357fe5b90600052602060002090600202016001018190555060009150506107f2565b6001600160a01b0382166120985760405162461bcd60e51b815260040161062690612c6e565b6120a1816117ca565b156120be5760405162461bcd60e51b8152600401610626906128ee565b6120ca600083836106de565b6001600160a01b03821660009081526004602052604090206120ec9082611ce2565b506120f960058284611cee565b5060405181906001600160a01b038416906000907fddf252ad1be2c89b69c2b068fc378daa952ba7f163c4a11628f55a4df523b3ef908290a45050565b3b151590565b60606118db84846000858561215085612136565b61216c5760405162461bcd60e51b815260040161062690612e94565b60006060866001600160a01b031685876040516121899190612697565b60006040518083038185875af1925050503d80600081146121c6576040519150601f19603f3d011682016040523d82523d6000602084013e6121cb565b606091505b50915091506121db8282866121e6565b979650505050505050565b606083156121f55750816107f2565b8251156122055782518084602001fd5b8160405162461bcd60e51b815260040161062691906127ca565b828054600181600116156101000203166002900490600052602060002090601f016020900481019282601f1061226057805160ff191683800117855561228d565b8280016001018555821561228d579182015b8281111561228d578251825591602001919060010190612272565b5061229992915061231d565b5090565b6040518061018001604052806000815260200160006001600160a01b0316815260200160006001600160a01b03168152602001600015158152602001600081526020016000815260200160008152602001600081526020016000600381111561230257fe5b81526020016060815260200160008152602001600081525090565b5b80821115612299576000815560010161231e565b80356001600160a01b038116811461075757600080fd5b8035801515811461075757600080fd5b600082601f830112612369578081fd5b813567ffffffffffffffff80821115612380578283fd5b604051601f8301601f1916810160200182811182821017156123a0578485fd5b6040528281529250828483016020018610156123bb57600080fd5b8260208601602083013760006020848301015250505092915050565b6000602082840312156123e8578081fd5b6107f28383612332565b60008060408385031215612404578081fd5b61240e8484612332565b915061241d8460208501612332565b90509250929050565b60008060008060008060c0878903121561243e578182fd5b6124488888612332565b95506124578860208901612332565b94506124668860408901612349565b9350606087013592506080870135915060a087013590509295509295509295565b60008060006060848603121561249b578283fd5b83356124a681613048565b925060208401356124b681613048565b929592945050506040919091013590565b600080600080608085870312156124dc578384fd5b6124e68686612332565b93506124f58660208701612332565b925060408501359150606085013567ffffffffffffffff811115612517578182fd5b61252387828801612359565b91505092959194509250565b60008060408385031215612541578182fd5b61254b8484612332565b915061241d8460208501612349565b6000806040838503121561256c578182fd5b6125768484612332565b946020939093013593505050565b600060208284031215612595578081fd5b81356107f281613060565b6000602082840312156125b1578081fd5b81516107f281613060565b6000602082840312156125cd578081fd5b5035919050565b600080600080608085870312156125e9578384fd5b843593506020850135600481106124f5578384fd5b60008060408385031215612610578182fd5b50508035926020909101359150565b600080600060608486031215612633578081fd5b505081359360208301359350604090920135919050565b6001600160a01b03169052565b15159052565b6000815180845261267581602086016020860161301c565b601f01601f19169290920160200192915050565b6004811061269357fe5b9052565b600082516126a981846020870161301c565b9190910192915050565b60008084546001808216600081146126d257600181146126e957612718565b60ff198316865260028304607f1686019350612718565b600283048886526020808720875b838110156127105781548a8201529085019082016126f7565b505050860193505b505050835161272b81836020880161301c565b01949350505050565b6001600160a01b0391909116815260200190565b6001600160a01b03858116825284166020820152604081018390526080606082018190526000906116d19083018461265d565b6020808252825182820181905260009190848201906040850190845b818110156127b357835183529284019291840191600101612797565b50909695505050505050565b901515815260200190565b6000602082526107f2602083018461265d565b60208082526022908201527f456e756d657261626c655365743a20696e646578206f7574206f6620626f756e604082015261647360f01b606082015260800190565b6020808252601d908201527f4c6f7365724e46543a20696e646578206f7574206f662072616e676521000000604082015260600190565b60208082526032908201527f4552433732313a207472616e7366657220746f206e6f6e20455243373231526560408201527131b2b4bb32b91034b6b83632b6b2b73a32b960711b606082015260800190565b60208082526026908201527f4f776e61626c653a206e6577206f776e657220697320746865207a65726f206160408201526564647265737360d01b606082015260800190565b6020808252601c908201527f4552433732313a20746f6b656e20616c7265616479206d696e74656400000000604082015260600190565b60208082526024908201527f4552433732313a207472616e7366657220746f20746865207a65726f206164646040820152637265737360e01b606082015260800190565b60208082526019908201527f4552433732313a20617070726f766520746f2063616c6c657200000000000000604082015260600190565b6020808252601b908201527f4f726465724e46543a206e6674206973206e6f742065786973742e0000000000604082015260600190565b6020808252602c908201527f4552433732313a206f70657261746f7220717565727920666f72206e6f6e657860408201526b34b9ba32b73a103a37b5b2b760a11b606082015260800190565b60208082526041908201527f4f726465724e46543a206f6e6c79206f726465722064657469616c20636f6e7460408201527f7261637420636f756c6420696e766f6b65207468697320696e746572666163656060820152601760f91b608082015260a00190565b60208082526027908201527f4f726465724e46543a206f6e6c79206465616c6564206f7264657220686173206040820152663bb2b4b3b43a1760c91b606082015260800190565b60208082526026908201527f546f6d4361743a205f6164644d696e74657220697320746865207a65726f206160408201526564647265737360d01b606082015260800190565b60208082526038908201527f4552433732313a20617070726f76652063616c6c6572206973206e6f74206f7760408201527f6e6572206e6f7220617070726f76656420666f7220616c6c0000000000000000606082015260800190565b6020808252601b908201527f546f6d4361743a20696e646578206f7574206f6620626f756e64730000000000604082015260600190565b6020808252602a908201527f4552433732313a2062616c616e636520717565727920666f7220746865207a65604082015269726f206164647265737360b01b606082015260800190565b60208082526022908201527f456e756d657261626c654d61703a20696e646578206f7574206f6620626f756e604082015261647360f01b606082015260800190565b60208082526018908201527f63616c6c6572206973206e6f7420746865206d696e7465720000000000000000604082015260600190565b6020808252818101527f4552433732313a206d696e7420746f20746865207a65726f2061646472657373604082015260600190565b6020808252602c908201527f4552433732313a20617070726f76656420717565727920666f72206e6f6e657860408201526b34b9ba32b73a103a37b5b2b760a11b606082015260800190565b6020808252818101527f4f776e61626c653a2063616c6c6572206973206e6f7420746865206f776e6572604082015260600190565b60208082526029908201527f4552433732313a207472616e73666572206f6620746f6b656e2074686174206960408201526839903737ba1037bbb760b91b606082015260800190565b6020808252602f908201527f4552433732314d657461646174613a2055524920717565727920666f72206e6f60408201526e3732bc34b9ba32b73a103a37b5b2b760891b606082015260800190565b60208082526021908201527f4552433732313a20617070726f76616c20746f2063757272656e74206f776e656040820152603960f91b606082015260800190565b60208082526026908201527f546f6d4361743a205f64656c4d696e74657220697320746865207a65726f206160408201526564647265737360d01b606082015260800190565b60208082526031908201527f4552433732313a207472616e736665722063616c6c6572206973206e6f74206f6040820152701ddb995c881b9bdc88185c1c1c9bdd9959607a1b606082015260800190565b6020808252601d908201527f416464726573733a2063616c6c20746f206e6f6e2d636f6e7472616374000000604082015260600190565b600060208252825160208301526020830151612eea604084018261264a565b506040830151612efd606084018261264a565b506060830151612f106080840182612657565b50608083015160a083015260a083015160c083015260c083015160e083015260e0830151610100818185015280850151915050610120612f5281850183612689565b808501519150506101806101408181860152612f726101a086018461265d565b9086015161016086810191909152909501519301929092525090919050565b90815260200190565b8c81526001600160a01b038c811660208301528b16604082015289151560608201526080810189905260a0810188905260c0810187905260e081018690526000610180612feb610100840188612689565b80610120840152612ffe8184018761265d565b610140840195909552505061016001529a9950505050505050505050565b60005b8381101561303757818101518382015260200161301f565b838111156111365750506000910152565b6001600160a01b038116811461305d57600080fd5b50565b6001600160e01b03198116811461305d57600080fdfe4552433732313a207472616e7366657220746f206e6f6e20455243373231526563656976657220696d706c656d656e7465724552433732313a206f776e657220717565727920666f72206e6f6e6578697374656e7420746f6b656ea26469706673582212207dd71d472b4e1c61f873f15922cf385956b5c94afbfda7e5a1e03481eb375bdc64736f6c634300060c0033",
  "immutableReferences": {},
  "source": "// SPDX-License-Identifier: MIT\npragma solidity ^0.6.0;\npragma experimental ABIEncoderV2;\n\nimport \"./Minter.sol\";\nimport \"./BasicStruct.sol\";\n// \ncontract OrderNFT is Minter, ERC721 {\n    using EnumerableSet for EnumerableSet.UintSet;\n    using SafeMath for uint256;\n    \n    \n    uint256 public nftId = 0;\n    address public orderDetailNFTContractAddr;\n    mapping(uint256 => NFTInfo) public id2NFTInfoMap;\n    mapping(address => mapping(address => uint256[])) public owner2PairAddr2OrderIDsMap;   // \n    mapping(uint256 => uint256[]) public orderDetailIds;                          // nft -> nft detail\n    \n    \n    event Mint(address indexed _to, uint256 _tokenId);\n    \n    constructor() ERC721(\"Bobo Order NFT\", \"BOT\")  public {\n    }        \n    \n    function setOrderDetailNFTContract(address _orderDetailNFTContractAddr) public onlyOwner {\n        orderDetailNFTContractAddr = _orderDetailNFTContractAddr;\n    }\n    \n    function mint(address _pairAddr, address bookOwner, bool _bBuyQuoteToken, uint256 _spotPrice, uint256 _inAmount, uint256 _minOutAmount) public onlyMinter returns (uint256) {\n        nftId++;\n        \n        _safeMint(msg.sender, nftId);   // msg.sender is contract address of book pool, so the new NFT is belong to book pool at first, NOT bookOwner\n        \n        id2NFTInfoMap[nftId] = NFTInfo(nftId, bookOwner, _pairAddr, _bBuyQuoteToken, _spotPrice, _inAmount, _minOutAmount, 0, OrderStatus.Hanging, \"\", now, 0);\n        owner2PairAddr2OrderIDsMap[bookOwner][_pairAddr].push(nftId);    \n            \n        emit Mint(msg.sender, nftId);\n        return nftId;\n    }\n    \n    function sealNFT(uint256 _nftId, OrderStatus _status, uint256 _outAmount, string memory _comment) public onlyMinter {\n        require( _exists(_nftId), \"OrderNFT: nft is not exist.\");\n        id2NFTInfoMap[_nftId].status = _status;\n        id2NFTInfoMap[_nftId].dealedTime = now;\n        id2NFTInfoMap[_nftId].outAmount = _outAmount;\n        id2NFTInfoMap[_nftId].comment = _comment;\n    }\n    \n    function bindDetailNFT(uint256 _nftId, uint256 detailNFTId) public {\n        require(msg.sender == orderDetailNFTContractAddr, \"OrderNFT: only order detial contract could invoke this interface.\");\n        require( _exists(_nftId), \"OrderNFT: nft is not exist.\");\n        orderDetailIds[nftId].push(detailNFTId);\n    }\n\n    function _beforeTokenTransfer(address from, address to, uint256 tokenId) internal virtual override {\n    }\n\n    function getOrderInfo(uint256 _nftId) view public returns(NFTInfo memory nftInfo) {\n        require( _exists(_nftId), \"OrderNFT: nft is not exist.\");\n        return id2NFTInfoMap[_nftId];\n    }\n\n    function getWeight(uint256 _nftId) view public returns(uint256 weight) {\n        require( _exists(_nftId), \"OrderNFT: nft is not exist.\");\n        NFTInfo memory nftInfo = id2NFTInfoMap[_nftId];\n        \n        require(nftInfo.status == OrderStatus.AMMDeal, \"OrderNFT: only dealed order has weight.\");\n        uint256 spanTime = nftInfo.dealedTime.sub(nftInfo.delegateTime);\n        uint256 spanTimeFactor = spanTime == 0 ? 1 : sqrt(spanTime);\n        uint256 dealedAmountU = nftInfo.bBuyQuoteToken ? nftInfo.inAmount : nftInfo.outAmount;\n        return dealedAmountU.div(spanTimeFactor);\n    }\n\n    function sqrt(uint256 x) public pure returns(uint256) {\n        uint z = (x + 1 ) / 2;\n        uint y = x;\n        while(z < y){\n            y = z;\n            z = ( x / z + z ) / 2;\n        }\n        return y;\n    }\n    \n    function getOrderDetailNumber(uint256 _nftId) view public returns(uint256) {\n        return orderDetailIds[_nftId].length;\n    }\n    \n    function getChildrenIds(uint256 _nftId, uint256 _fromId, uint256 _toId) view public returns(uint256[] memory ids) {\n        uint256 length = orderDetailIds[_nftId].length;\n        require(_fromId < _toId && _toId <= length, \"LoserNFT: index out of range!\");\n        \n        ids = new uint256[](_toId - _fromId);\n        uint256 count = 0;\n        for(uint256 i = _fromId; i < _toId; i++) {\n            ids[count++] = orderDetailIds[_nftId][i];\n        }\n    }\n}",
  "sourcePath": "/Users/mryu/blockchain/bobo-metaverse/boboswap-contract/contracts/common/OrderNFT.sol",
  "compiler": {
    "name": "solc",
    "version": "0.6.12+commit.27d51765.Emscripten.clang"
  },
  "schemaVersion": "3.4.3",
  "updatedAt": "2021-08-28T14:58:02.673Z",
  "devdoc": {
    "kind": "dev",
    "methods": {
      "approve(address,uint256)": {
        "details": "See {IERC721-approve}."
      },
      "balanceOf(address)": {
        "details": "See {IERC721-balanceOf}."
      },
      "baseURI()": {
        "details": "Returns the base URI set via {_setBaseURI}. This will be automatically added as a prefix in {tokenURI} to each token's URI, or to the token ID if no specific URI is set for that token ID."
      },
      "getApproved(uint256)": {
        "details": "See {IERC721-getApproved}."
      },
      "isApprovedForAll(address,address)": {
        "details": "See {IERC721-isApprovedForAll}."
      },
      "name()": {
        "details": "See {IERC721Metadata-name}."
      },
      "owner()": {
        "details": "Returns the address of the current owner."
      },
      "ownerOf(uint256)": {
        "details": "See {IERC721-ownerOf}."
      },
      "renounceOwnership()": {
        "details": "Leaves the contract without owner. It will not be possible to call `onlyOwner` functions anymore. Can only be called by the current owner. NOTE: Renouncing ownership will leave the contract without an owner, thereby removing any functionality that is only available to the owner."
      },
      "safeTransferFrom(address,address,uint256)": {
        "details": "See {IERC721-safeTransferFrom}."
      },
      "safeTransferFrom(address,address,uint256,bytes)": {
        "details": "See {IERC721-safeTransferFrom}."
      },
      "setApprovalForAll(address,bool)": {
        "details": "See {IERC721-setApprovalForAll}."
      },
      "supportsInterface(bytes4)": {
        "details": "See {IERC165-supportsInterface}. Time complexity O(1), guaranteed to always use less than 30 000 gas."
      },
      "symbol()": {
        "details": "See {IERC721Metadata-symbol}."
      },
      "tokenByIndex(uint256)": {
        "details": "See {IERC721Enumerable-tokenByIndex}."
      },
      "tokenOfOwnerByIndex(address,uint256)": {
        "details": "See {IERC721Enumerable-tokenOfOwnerByIndex}."
      },
      "tokenURI(uint256)": {
        "details": "See {IERC721Metadata-tokenURI}."
      },
      "totalSupply()": {
        "details": "See {IERC721Enumerable-totalSupply}."
      },
      "transferFrom(address,address,uint256)": {
        "details": "See {IERC721-transferFrom}."
      },
      "transferOwnership(address)": {
        "details": "Transfers ownership of the contract to a new account (`newOwner`). Can only be called by the current owner."
      }
    },
    "version": 1
  },
  "userdoc": {
    "kind": "user",
    "methods": {},
    "version": 1
  }
}