{
  "contractName": "OrderDetailNFT",
  "abi": [
    {
      "inputs": [],
      "stateMutability": "nonpayable",
      "type": "constructor"
    },
    {
      "anonymous": false,
      "inputs": [
        {
          "indexed": true,
          "internalType": "address",
          "name": "owner",
          "type": "address"
        },
        {
          "indexed": true,
          "internalType": "address",
          "name": "approved",
          "type": "address"
        },
        {
          "indexed": true,
          "internalType": "uint256",
          "name": "tokenId",
          "type": "uint256"
        }
      ],
      "name": "Approval",
      "type": "event"
    },
    {
      "anonymous": false,
      "inputs": [
        {
          "indexed": true,
          "internalType": "address",
          "name": "owner",
          "type": "address"
        },
        {
          "indexed": true,
          "internalType": "address",
          "name": "operator",
          "type": "address"
        },
        {
          "indexed": false,
          "internalType": "bool",
          "name": "approved",
          "type": "bool"
        }
      ],
      "name": "ApprovalForAll",
      "type": "event"
    },
    {
      "anonymous": false,
      "inputs": [
        {
          "indexed": true,
          "internalType": "address",
          "name": "_to",
          "type": "address"
        },
        {
          "indexed": false,
          "internalType": "uint256",
          "name": "_tokenId",
          "type": "uint256"
        }
      ],
      "name": "Mint",
      "type": "event"
    },
    {
      "anonymous": false,
      "inputs": [
        {
          "indexed": true,
          "internalType": "address",
          "name": "previousOwner",
          "type": "address"
        },
        {
          "indexed": true,
          "internalType": "address",
          "name": "newOwner",
          "type": "address"
        }
      ],
      "name": "OwnershipTransferred",
      "type": "event"
    },
    {
      "anonymous": false,
      "inputs": [
        {
          "indexed": true,
          "internalType": "address",
          "name": "from",
          "type": "address"
        },
        {
          "indexed": true,
          "internalType": "address",
          "name": "to",
          "type": "address"
        },
        {
          "indexed": true,
          "internalType": "uint256",
          "name": "tokenId",
          "type": "uint256"
        }
      ],
      "name": "Transfer",
      "type": "event"
    },
    {
      "inputs": [
        {
          "internalType": "address",
          "name": "_addMinter",
          "type": "address"
        }
      ],
      "name": "addMinter",
      "outputs": [
        {
          "internalType": "bool",
          "name": "",
          "type": "bool"
        }
      ],
      "stateMutability": "nonpayable",
      "type": "function"
    },
    {
      "inputs": [
        {
          "internalType": "address",
          "name": "to",
          "type": "address"
        },
        {
          "internalType": "uint256",
          "name": "tokenId",
          "type": "uint256"
        }
      ],
      "name": "approve",
      "outputs": [],
      "stateMutability": "nonpayable",
      "type": "function"
    },
    {
      "inputs": [
        {
          "internalType": "address",
          "name": "owner",
          "type": "address"
        }
      ],
      "name": "balanceOf",
      "outputs": [
        {
          "internalType": "uint256",
          "name": "",
          "type": "uint256"
        }
      ],
      "stateMutability": "view",
      "type": "function",
      "constant": true
    },
    {
      "inputs": [],
      "name": "baseURI",
      "outputs": [
        {
          "internalType": "string",
          "name": "",
          "type": "string"
        }
      ],
      "stateMutability": "view",
      "type": "function",
      "constant": true
    },
    {
      "inputs": [
        {
          "internalType": "address",
          "name": "_delMinter",
          "type": "address"
        }
      ],
      "name": "delMinter",
      "outputs": [
        {
          "internalType": "bool",
          "name": "",
          "type": "bool"
        }
      ],
      "stateMutability": "nonpayable",
      "type": "function"
    },
    {
      "inputs": [
        {
          "internalType": "uint256",
          "name": "tokenId",
          "type": "uint256"
        }
      ],
      "name": "getApproved",
      "outputs": [
        {
          "internalType": "address",
          "name": "",
          "type": "address"
        }
      ],
      "stateMutability": "view",
      "type": "function",
      "constant": true
    },
    {
      "inputs": [
        {
          "internalType": "uint256",
          "name": "_index",
          "type": "uint256"
        }
      ],
      "name": "getMinter",
      "outputs": [
        {
          "internalType": "address",
          "name": "",
          "type": "address"
        }
      ],
      "stateMutability": "view",
      "type": "function",
      "constant": true
    },
    {
      "inputs": [],
      "name": "getMinterLength",
      "outputs": [
        {
          "internalType": "uint256",
          "name": "",
          "type": "uint256"
        }
      ],
      "stateMutability": "view",
      "type": "function",
      "constant": true
    },
    {
      "inputs": [
        {
          "internalType": "uint256",
          "name": "",
          "type": "uint256"
        }
      ],
      "name": "id2NFTDetailInfoMap",
      "outputs": [
        {
          "internalType": "uint256",
          "name": "id",
          "type": "uint256"
        },
        {
          "internalType": "uint256",
          "name": "time",
          "type": "uint256"
        },
        {
          "internalType": "uint256",
          "name": "inAmount",
          "type": "uint256"
        },
        {
          "internalType": "uint256",
          "name": "outAmount",
          "type": "uint256"
        },
        {
          "internalType": "uint256",
          "name": "orderNFTId",
          "type": "uint256"
        },
        {
          "internalType": "enum SwapPool",
          "name": "swapPool",
          "type": "uint8"
        }
      ],
      "stateMutability": "view",
      "type": "function",
      "constant": true
    },
    {
      "inputs": [
        {
          "internalType": "address",
          "name": "owner",
          "type": "address"
        },
        {
          "internalType": "address",
          "name": "operator",
          "type": "address"
        }
      ],
      "name": "isApprovedForAll",
      "outputs": [
        {
          "internalType": "bool",
          "name": "",
          "type": "bool"
        }
      ],
      "stateMutability": "view",
      "type": "function",
      "constant": true
    },
    {
      "inputs": [
        {
          "internalType": "address",
          "name": "account",
          "type": "address"
        }
      ],
      "name": "isMinter",
      "outputs": [
        {
          "internalType": "bool",
          "name": "",
          "type": "bool"
        }
      ],
      "stateMutability": "view",
      "type": "function",
      "constant": true
    },
    {
      "inputs": [],
      "name": "name",
      "outputs": [
        {
          "internalType": "string",
          "name": "",
          "type": "string"
        }
      ],
      "stateMutability": "view",
      "type": "function",
      "constant": true
    },
    {
      "inputs": [],
      "name": "nftId",
      "outputs": [
        {
          "internalType": "uint256",
          "name": "",
          "type": "uint256"
        }
      ],
      "stateMutability": "view",
      "type": "function",
      "constant": true
    },
    {
      "inputs": [],
      "name": "orderNFT",
      "outputs": [
        {
          "internalType": "contract IOrderNFT",
          "name": "",
          "type": "address"
        }
      ],
      "stateMutability": "view",
      "type": "function",
      "constant": true
    },
    {
      "inputs": [],
      "name": "owner",
      "outputs": [
        {
          "internalType": "address",
          "name": "",
          "type": "address"
        }
      ],
      "stateMutability": "view",
      "type": "function",
      "constant": true
    },
    {
      "inputs": [
        {
          "internalType": "uint256",
          "name": "tokenId",
          "type": "uint256"
        }
      ],
      "name": "ownerOf",
      "outputs": [
        {
          "internalType": "address",
          "name": "",
          "type": "address"
        }
      ],
      "stateMutability": "view",
      "type": "function",
      "constant": true
    },
    {
      "inputs": [],
      "name": "renounceOwnership",
      "outputs": [],
      "stateMutability": "nonpayable",
      "type": "function"
    },
    {
      "inputs": [
        {
          "internalType": "address",
          "name": "from",
          "type": "address"
        },
        {
          "internalType": "address",
          "name": "to",
          "type": "address"
        },
        {
          "internalType": "uint256",
          "name": "tokenId",
          "type": "uint256"
        }
      ],
      "name": "safeTransferFrom",
      "outputs": [],
      "stateMutability": "nonpayable",
      "type": "function"
    },
    {
      "inputs": [
        {
          "internalType": "address",
          "name": "from",
          "type": "address"
        },
        {
          "internalType": "address",
          "name": "to",
          "type": "address"
        },
        {
          "internalType": "uint256",
          "name": "tokenId",
          "type": "uint256"
        },
        {
          "internalType": "bytes",
          "name": "_data",
          "type": "bytes"
        }
      ],
      "name": "safeTransferFrom",
      "outputs": [],
      "stateMutability": "nonpayable",
      "type": "function"
    },
    {
      "inputs": [
        {
          "internalType": "address",
          "name": "operator",
          "type": "address"
        },
        {
          "internalType": "bool",
          "name": "approved",
          "type": "bool"
        }
      ],
      "name": "setApprovalForAll",
      "outputs": [],
      "stateMutability": "nonpayable",
      "type": "function"
    },
    {
      "inputs": [
        {
          "internalType": "bytes4",
          "name": "interfaceId",
          "type": "bytes4"
        }
      ],
      "name": "supportsInterface",
      "outputs": [
        {
          "internalType": "bool",
          "name": "",
          "type": "bool"
        }
      ],
      "stateMutability": "view",
      "type": "function",
      "constant": true
    },
    {
      "inputs": [],
      "name": "symbol",
      "outputs": [
        {
          "internalType": "string",
          "name": "",
          "type": "string"
        }
      ],
      "stateMutability": "view",
      "type": "function",
      "constant": true
    },
    {
      "inputs": [
        {
          "internalType": "uint256",
          "name": "index",
          "type": "uint256"
        }
      ],
      "name": "tokenByIndex",
      "outputs": [
        {
          "internalType": "uint256",
          "name": "",
          "type": "uint256"
        }
      ],
      "stateMutability": "view",
      "type": "function",
      "constant": true
    },
    {
      "inputs": [
        {
          "internalType": "address",
          "name": "owner",
          "type": "address"
        },
        {
          "internalType": "uint256",
          "name": "index",
          "type": "uint256"
        }
      ],
      "name": "tokenOfOwnerByIndex",
      "outputs": [
        {
          "internalType": "uint256",
          "name": "",
          "type": "uint256"
        }
      ],
      "stateMutability": "view",
      "type": "function",
      "constant": true
    },
    {
      "inputs": [
        {
          "internalType": "uint256",
          "name": "tokenId",
          "type": "uint256"
        }
      ],
      "name": "tokenURI",
      "outputs": [
        {
          "internalType": "string",
          "name": "",
          "type": "string"
        }
      ],
      "stateMutability": "view",
      "type": "function",
      "constant": true
    },
    {
      "inputs": [],
      "name": "totalSupply",
      "outputs": [
        {
          "internalType": "uint256",
          "name": "",
          "type": "uint256"
        }
      ],
      "stateMutability": "view",
      "type": "function",
      "constant": true
    },
    {
      "inputs": [
        {
          "internalType": "address",
          "name": "from",
          "type": "address"
        },
        {
          "internalType": "address",
          "name": "to",
          "type": "address"
        },
        {
          "internalType": "uint256",
          "name": "tokenId",
          "type": "uint256"
        }
      ],
      "name": "transferFrom",
      "outputs": [],
      "stateMutability": "nonpayable",
      "type": "function"
    },
    {
      "inputs": [
        {
          "internalType": "address",
          "name": "newOwner",
          "type": "address"
        }
      ],
      "name": "transferOwnership",
      "outputs": [],
      "stateMutability": "nonpayable",
      "type": "function"
    },
    {
      "inputs": [
        {
          "internalType": "address",
          "name": "_orderNFT",
          "type": "address"
        }
      ],
      "name": "setOrderNFT",
      "outputs": [],
      "stateMutability": "nonpayable",
      "type": "function"
    },
    {
      "inputs": [
        {
          "internalType": "address",
          "name": "_nftOwner",
          "type": "address"
        },
        {
          "internalType": "uint256",
          "name": "_inAmount",
          "type": "uint256"
        },
        {
          "internalType": "uint256",
          "name": "_outAmount",
          "type": "uint256"
        },
        {
          "internalType": "uint256",
          "name": "_orderNFTId",
          "type": "uint256"
        },
        {
          "internalType": "enum SwapPool",
          "name": "_swapPool",
          "type": "uint8"
        },
        {
          "internalType": "address[]",
          "name": "_path",
          "type": "address[]"
        }
      ],
      "name": "mint",
      "outputs": [
        {
          "internalType": "uint256",
          "name": "",
          "type": "uint256"
        }
      ],
      "stateMutability": "nonpayable",
      "type": "function"
    },
    {
      "inputs": [
        {
          "internalType": "uint256",
          "name": "_nftId",
          "type": "uint256"
        }
      ],
      "name": "getOrderDetailInfo",
      "outputs": [
        {
          "components": [
            {
              "internalType": "uint256",
              "name": "id",
              "type": "uint256"
            },
            {
              "internalType": "uint256",
              "name": "time",
              "type": "uint256"
            },
            {
              "internalType": "uint256",
              "name": "inAmount",
              "type": "uint256"
            },
            {
              "internalType": "uint256",
              "name": "outAmount",
              "type": "uint256"
            },
            {
              "internalType": "uint256",
              "name": "orderNFTId",
              "type": "uint256"
            },
            {
              "internalType": "enum SwapPool",
              "name": "swapPool",
              "type": "uint8"
            },
            {
              "internalType": "address[]",
              "name": "path",
              "type": "address[]"
            }
          ],
          "internalType": "struct NFTDetailInfo",
          "name": "nftDetailInfo",
          "type": "tuple"
        }
      ],
      "stateMutability": "view",
      "type": "function",
      "constant": true
    }
  ],
  "bytecode": "0x60806040526000600d553480156200001657600080fd5b5060405180604001604052806011815260200170109bd89bc813dc99195c8811195d185a5b607a1b815250604051806040016040528060058152602001641093d50b5160da1b8152506000620000716200013760201b60201c565b600080546001600160a01b0319166001600160a01b0383169081178255604051929350917f8be0079c531659141344cd1fd0a4f28419497f9722a3daafe3b4186f6b6457e0908290a350620000cd6301ffc9a760e01b6200013b565b8151620000e290600990602085019062000196565b508051620000f890600a90602084019062000196565b506200010b6380ac58cd60e01b6200013b565b6200011d635b5e139f60e01b6200013b565b6200012f63780e9d6360e01b6200013b565b505062000269565b3390565b6001600160e01b03198082161415620001715760405162461bcd60e51b8152600401620001689062000232565b60405180910390fd5b6001600160e01b0319166000908152600360205260409020805460ff19166001179055565b828054600181600116156101000203166002900490600052602060002090601f016020900481019282601f10620001d957805160ff191683800117855562000209565b8280016001018555821562000209579182015b8281111562000209578251825591602001919060010190620001ec565b50620002179291506200021b565b5090565b5b808211156200021757600081556001016200021c565b6020808252601c908201527f4552433136353a20696e76616c696420696e7465726661636520696400000000604082015260600190565b6126cf80620002796000396000f3fe608060405234801561001057600080fd5b50600436106101e55760003560e01c80636352211e1161010f578063a22cb465116100a2578063c87b56dd11610071578063c87b56dd146103f1578063d4d728da14610404578063e985e9c51461040c578063f2fde38b1461041f576101e5565b8063a22cb465146103b0578063aa271e1a146103c3578063b88d4fde146103d6578063c6bc5182146103e9576101e5565b80638da5cb5b116100de5780638da5cb5b1461037a578063904c3e9b1461038257806395d89b4114610395578063983b2d561461039d576101e5565b80636352211e146103445780636c0360eb1461035757806370a082311461035f578063715018a614610372576101e5565b806323b872dd11610187578063493362141161015657806349336214146102eb578063494d60e51461030b5780634f6ccce71461031e5780635b7121f814610331576101e5565b806323b872dd1461028d5780632f745c59146102a05780633c49695d146102b357806342842e0e146102d8576101e5565b8063081812fc116101c3578063081812fc1461023d578063095ea7b31461025d57806318160ddd1461027257806323338b881461027a576101e5565b806301ffc9a7146101ea5780630323aac71461021357806306fdde0314610228575b600080fd5b6101fd6101f8366004611d2d565b610432565b60405161020a9190611e97565b60405180910390f35b61021b610455565b60405161020a9190612568565b610230610466565b60405161020a9190611ea2565b61025061024b366004611d65565b6104fc565b60405161020a9190611e46565b61027061026b366004611c13565b610548565b005b61021b6105e0565b6101fd610288366004611a93565b6105ec565b61027061029b366004611ae2565b61065a565b61021b6102ae366004611c13565b610692565b6102c66102c1366004611d65565b6106bb565b60405161020a9695949392919061257f565b6102706102e6366004611ae2565b6106f3565b6102fe6102f9366004611d65565b61070e565b60405161020a91906124c8565b610270610319366004611a93565b610821565b61021b61032c366004611d65565b610878565b61025061033f366004611d65565b61088e565b610250610352366004611d65565b6108fa565b610230610922565b61021b61036d366004611a93565b610983565b6102706109cc565b610250610a4b565b61021b610390366004611c3d565b610a5a565b610230610c11565b6101fd6103ab366004611a93565b610c72565b6102706103be366004611bd8565b610cda565b6101fd6103d1366004611a93565b610da8565b6102706103e4366004611b22565b610db5565b61021b610df4565b6102306103ff366004611d65565b610dfa565b610250610f44565b6101fd61041a366004611aae565b610f53565b61027061042d366004611a93565b610f81565b6001600160e01b0319811660009081526003602052604090205460ff165b919050565b60006104616001611037565b905090565b60098054604080516020601f60026000196101006001881615020190951694909404938401819004810282018101909252828152606093909290918301828280156104f25780601f106104c7576101008083540402835291602001916104f2565b820191906000526020600020905b8154815290600101906020018083116104d557829003601f168201915b5050505050905090565b600061050782611042565b61052c5760405162461bcd60e51b8152600401610523906122a0565b60405180910390fd5b506000908152600760205260409020546001600160a01b031690565b6000610553826108fa565b9050806001600160a01b0316836001600160a01b031614156105875760405162461bcd60e51b8152600401610523906123b9565b806001600160a01b031661059961104f565b6001600160a01b031614806105b557506105b58161041a61104f565b6105d15760405162461bcd60e51b815260040161052390612114565b6105db8383611053565b505050565b60006104616005611037565b60006105f661104f565b6000546001600160a01b039081169116146106235760405162461bcd60e51b8152600401610523906122ec565b6001600160a01b0382166106495760405162461bcd60e51b8152600401610523906123fa565b6106546001836110c1565b92915050565b61066b61066561104f565b826110d6565b6106875760405162461bcd60e51b815260040161052390612440565b6105db83838361115b565b6001600160a01b03821660009081526004602052604081206106b49083611269565b9392505050565b600f60205260009081526040902080546001820154600283015460038401546004850154600590950154939492939192909160ff1686565b6105db83838360405180602001604052806000815250610db5565b6107166119b0565b61071f82611042565b61073b5760405162461bcd60e51b81526004016105239061208d565b600f60008381526020019081526020016000206040518060e001604052908160008201548152602001600182015481526020016002820154815260200160038201548152602001600482015481526020016005820160009054906101000a900460ff1660078111156107a957fe5b60078111156107b457fe5b81526020016006820180548060200260200160405190810160405280929190818152602001828054801561081157602002820191906000526020600020905b81546001600160a01b031681526001909101906020018083116107f3575b5050505050815250509050919050565b61082961104f565b6000546001600160a01b039081169116146108565760405162461bcd60e51b8152600401610523906122ec565b600e80546001600160a01b0319166001600160a01b0392909216919091179055565b600080610886600584611275565b509392505050565b600061089861104f565b6000546001600160a01b039081169116146108c55760405162461bcd60e51b8152600401610523906122ec565b60016108cf610455565b038211156108ef5760405162461bcd60e51b815260040161052390612171565b610654600183611269565b6000610654826040518060600160405280602981526020016126716029913960059190611291565b600c8054604080516020601f60026000196101006001881615020190951694909404938401819004810282018101909252828152606093909290918301828280156104f25780601f106104c7576101008083540402835291602001916104f2565b60006001600160a01b0382166109ab5760405162461bcd60e51b8152600401610523906121a8565b6001600160a01b038216600090815260046020526040902061065490611037565b6109d461104f565b6000546001600160a01b03908116911614610a015760405162461bcd60e51b8152600401610523906122ec565b600080546040516001600160a01b03909116907f8be0079c531659141344cd1fd0a4f28419497f9722a3daafe3b4186f6b6457e0908390a3600080546001600160a01b0319169055565b6000546001600160a01b031690565b6000610a6533610da8565b610a815760405162461bcd60e51b815260040161052390612234565b600d805460010190819055610a9790889061129e565b6040518060e00160405280600d548152602001428152602001878152602001868152602001858152602001846007811115610ace57fe5b81526020908101849052600d546000908152600f82526040908190208351815591830151600180840191909155908301516002830155606083015160038301556080830151600483015560a08301516005830180549192909160ff191690836007811115610b3857fe5b021790555060c08201518051610b589160068401916020909101906119f8565b5050600e54600d54604051633718491560e01b81526001600160a01b039092169250633718491591610b8e918891600401612571565b600060405180830381600087803b158015610ba857600080fd5b505af1158015610bbc573d6000803e3d6000fd5b50505050866001600160a01b03167f0f6798a560793a54c3bcfe86a93cde1e73087d944c0ea20544137d4121396885600d54604051610bfb9190612568565b60405180910390a250600d549695505050505050565b600a8054604080516020601f60026000196101006001881615020190951694909404938401819004810282018101909252828152606093909290918301828280156104f25780601f106104c7576101008083540402835291602001916104f2565b6000610c7c61104f565b6000546001600160a01b03908116911614610ca95760405162461bcd60e51b8152600401610523906122ec565b6001600160a01b038216610ccf5760405162461bcd60e51b8152600401610523906120ce565b6106546001836112bc565b610ce261104f565b6001600160a01b0316826001600160a01b03161415610d135760405162461bcd60e51b81526004016105239061200a565b8060086000610d2061104f565b6001600160a01b03908116825260208083019390935260409182016000908120918716808252919093529120805460ff191692151592909217909155610d6461104f565b6001600160a01b03167f17307eab39ab6107e8899845ad3d59bd9653f200f220920489ca2b5937696c3183604051610d9c9190611e97565b60405180910390a35050565b60006106546001836112d1565b610dc6610dc061104f565b836110d6565b610de25760405162461bcd60e51b815260040161052390612440565b610dee848484846112e6565b50505050565b600d5481565b6060610e0582611042565b610e215760405162461bcd60e51b81526004016105239061236a565b6000828152600b602090815260409182902080548351601f6002600019610100600186161502019093169290920491820184900484028101840190945280845260609392830182828015610eb65780601f10610e8b57610100808354040283529160200191610eb6565b820191906000526020600020905b815481529060010190602001808311610e9957829003601f168201915b5050600c5493945050505060026000196101006001841615020190911604610edf579050610450565b805115610f1157600c81604051602001610efa929190611dc5565b604051602081830303815290604052915050610450565b600c610f1c84611319565b604051602001610f2d929190611dc5565b604051602081830303815290604052915050919050565b600e546001600160a01b031681565b6001600160a01b03918216600090815260086020908152604080832093909416825291909152205460ff1690565b610f8961104f565b6000546001600160a01b03908116911614610fb65760405162461bcd60e51b8152600401610523906122ec565b6001600160a01b038116610fdc5760405162461bcd60e51b815260040161052390611f49565b600080546040516001600160a01b03808516939216917f8be0079c531659141344cd1fd0a4f28419497f9722a3daafe3b4186f6b6457e091a3600080546001600160a01b0319166001600160a01b0392909216919091179055565b6000610654826113f4565b60006106546005836113f8565b3390565b600081815260076020526040902080546001600160a01b0319166001600160a01b0384169081179091558190611088826108fa565b6001600160a01b03167f8c5be1e5ebec7d5bd14f71427d1e84f3dd0314c0f7b2291e5b200ac8c7c3b92560405160405180910390a45050565b60006106b4836001600160a01b038416611404565b60006110e182611042565b6110fd5760405162461bcd60e51b815260040161052390612041565b6000611108836108fa565b9050806001600160a01b0316846001600160a01b031614806111435750836001600160a01b0316611138846104fc565b6001600160a01b0316145b8061115357506111538185610f53565b949350505050565b826001600160a01b031661116e826108fa565b6001600160a01b0316146111945760405162461bcd60e51b815260040161052390612321565b6001600160a01b0382166111ba5760405162461bcd60e51b815260040161052390611fc6565b6111c58383836105db565b6111d0600082611053565b6001600160a01b03831660009081526004602052604090206111f290826114ca565b506001600160a01b038216600090815260046020526040902061121590826114d6565b50611222600582846114e2565b5080826001600160a01b0316846001600160a01b03167fddf252ad1be2c89b69c2b068fc378daa952ba7f163c4a11628f55a4df523b3ef60405160405180910390a4505050565b60006106b483836114f8565b6000808080611284868661153d565b9097909650945050505050565b6000611153848484611599565b6112b88282604051806020016040528060008152506115f8565b5050565b60006106b4836001600160a01b03841661162b565b60006106b4836001600160a01b038416611675565b6112f184848461115b565b6112fd8484848461168d565b610dee5760405162461bcd60e51b815260040161052390611ef7565b60608161133e57506040805180820190915260018152600360fc1b6020820152610450565b8160005b811561135657600101600a82049150611342565b60608167ffffffffffffffff8111801561136f57600080fd5b506040519080825280601f01601f19166020018201604052801561139a576020820181803683370190505b50859350905060001982015b83156113eb57600a840660300160f81b828280600190039350815181106113c957fe5b60200101906001600160f81b031916908160001a905350600a840493506113a6565b50949350505050565b5490565b60006106b48383611675565b600081815260018301602052604081205480156114c0578354600019808301919081019060009087908390811061143757fe5b906000526020600020015490508087600001848154811061145457fe5b60009182526020808320909101929092558281526001898101909252604090209084019055865487908061148457fe5b60019003818190600052602060002001600090559055866001016000878152602001908152602001600020600090556001945050505050610654565b6000915050610654565b60006106b48383611404565b60006106b4838361162b565b600061115384846001600160a01b03851661176c565b8154600090821061151b5760405162461bcd60e51b815260040161052390611eb5565b82600001828154811061152a57fe5b9060005260206000200154905092915050565b8154600090819083106115625760405162461bcd60e51b8152600401610523906121f2565b600084600001848154811061157357fe5b906000526020600020906002020190508060000154816001015492509250509250929050565b600082815260018401602052604081205482816115c95760405162461bcd60e51b81526004016105239190611ea2565b508460000160018203815481106115dc57fe5b9060005260206000209060020201600101549150509392505050565b6116028383611803565b61160f600084848461168d565b6105db5760405162461bcd60e51b815260040161052390611ef7565b60006116378383611675565b61166d57508154600181810184556000848152602080822090930184905584548482528286019093526040902091909155610654565b506000610654565b60009081526001919091016020526040902054151590565b60006116a1846001600160a01b03166118c7565b6116ad57506001611153565b6060611735630a85bd0160e11b6116c261104f565b8887876040516024016116d89493929190611e5a565b604051602081830303815290604052906001600160e01b0319166020820180516001600160e01b03838183161783525050505060405180606001604052806032815260200161263f603291396001600160a01b03881691906118cd565b905060008180602001905181019061174d9190611d49565b6001600160e01b031916630a85bd0160e11b1492505050949350505050565b6000828152600184016020526040812054806117d15750506040805180820182528381526020808201848152865460018181018955600089815284812095516002909302909501918255915190820155865486845281880190925292909120556106b4565b828560000160018303815481106117e457fe5b90600052602060002090600202016001018190555060009150506106b4565b6001600160a01b0382166118295760405162461bcd60e51b81526004016105239061226b565b61183281611042565b1561184f5760405162461bcd60e51b815260040161052390611f8f565b61185b600083836105db565b6001600160a01b038216600090815260046020526040902061187d90826114d6565b5061188a600582846114e2565b5060405181906001600160a01b038416906000907fddf252ad1be2c89b69c2b068fc378daa952ba7f163c4a11628f55a4df523b3ef908290a45050565b3b151590565b60606111538484600085856118e1856118c7565b6118fd5760405162461bcd60e51b815260040161052390612491565b60006060866001600160a01b0316858760405161191a9190611da9565b60006040518083038185875af1925050503d8060008114611957576040519150601f19603f3d011682016040523d82523d6000602084013e61195c565b606091505b509150915061196c828286611977565b979650505050505050565b606083156119865750816106b4565b8251156119965782518084602001fd5b8160405162461bcd60e51b81526004016105239190611ea2565b6040518060e001604052806000815260200160008152602001600081526020016000815260200160008152602001600060078111156119eb57fe5b8152602001606081525090565b828054828255906000526020600020908101928215611a4d579160200282015b82811115611a4d57825182546001600160a01b0319166001600160a01b03909116178255602090920191600190910190611a18565b50611a59929150611a5d565b5090565b5b80821115611a595780546001600160a01b0319168155600101611a5e565b80356001600160a01b038116811461065457600080fd5b600060208284031215611aa4578081fd5b6106b48383611a7c565b60008060408385031215611ac0578081fd5b611aca8484611a7c565b9150611ad98460208501611a7c565b90509250929050565b600080600060608486031215611af6578081fd5b8335611b0181612610565b92506020840135611b1181612610565b929592945050506040919091013590565b60008060008060808587031215611b37578081fd5b611b418686611a7c565b93506020611b5187828801611a7c565b935060408601359250606086013567ffffffffffffffff80821115611b74578384fd5b818801915088601f830112611b87578384fd5b813581811115611b95578485fd5b611ba7601f8201601f191685016125bd565b91508082528984828501011115611bbc578485fd5b8084840185840137810190920192909252939692955090935050565b60008060408385031215611bea578182fd5b611bf48484611a7c565b915060208301358015158114611c08578182fd5b809150509250929050565b60008060408385031215611c25578182fd5b611c2f8484611a7c565b946020939093013593505050565b60008060008060008060c08789031215611c55578182fd5b611c5f8888611a7c565b955060208088013595506040880135945060608801359350608088013560088110611c88578384fd5b925060a088013567ffffffffffffffff80821115611ca4578384fd5b818a0191508a601f830112611cb7578384fd5b813581811115611cc5578485fd5b8381029150611cd58483016125bd565b8181528481019084860184860187018f1015611cef578788fd5b8795505b83861015611d1957611d058f82611a7c565b835260019590950194918601918601611cf3565b508096505050505050509295509295509295565b600060208284031215611d3e578081fd5b81356106b481612628565b600060208284031215611d5a578081fd5b81516106b481612628565b600060208284031215611d76578081fd5b5035919050565b60008151808452611d958160208601602086016125e4565b601f01601f19169290920160200192915050565b60008251611dbb8184602087016125e4565b9190910192915050565b6000808454600180821660008114611de45760018114611dfb57611e2a565b60ff198316865260028304607f1686019350611e2a565b600283048886526020808720875b83811015611e225781548a820152908501908201611e09565b505050860193505b5050508351611e3d8183602088016125e4565b01949350505050565b6001600160a01b0391909116815260200190565b6001600160a01b0385811682528416602082015260408101839052608060608201819052600090611e8d90830184611d7d565b9695505050505050565b901515815260200190565b6000602082526106b46020830184611d7d565b60208082526022908201527f456e756d657261626c655365743a20696e646578206f7574206f6620626f756e604082015261647360f01b606082015260800190565b60208082526032908201527f4552433732313a207472616e7366657220746f206e6f6e20455243373231526560408201527131b2b4bb32b91034b6b83632b6b2b73a32b960711b606082015260800190565b60208082526026908201527f4f776e61626c653a206e6577206f776e657220697320746865207a65726f206160408201526564647265737360d01b606082015260800190565b6020808252601c908201527f4552433732313a20746f6b656e20616c7265616479206d696e74656400000000604082015260600190565b60208082526024908201527f4552433732313a207472616e7366657220746f20746865207a65726f206164646040820152637265737360e01b606082015260800190565b60208082526019908201527f4552433732313a20617070726f766520746f2063616c6c657200000000000000604082015260600190565b6020808252602c908201527f4552433732313a206f70657261746f7220717565727920666f72206e6f6e657860408201526b34b9ba32b73a103a37b5b2b760a11b606082015260800190565b60208082526021908201527f4f7264657244657461696c4e46543a206e6674206973206e6f742065786973746040820152601760f91b606082015260800190565b60208082526026908201527f546f6d4361743a205f6164644d696e74657220697320746865207a65726f206160408201526564647265737360d01b606082015260800190565b60208082526038908201527f4552433732313a20617070726f76652063616c6c6572206973206e6f74206f7760408201527f6e6572206e6f7220617070726f76656420666f7220616c6c0000000000000000606082015260800190565b6020808252601b908201527f546f6d4361743a20696e646578206f7574206f6620626f756e64730000000000604082015260600190565b6020808252602a908201527f4552433732313a2062616c616e636520717565727920666f7220746865207a65604082015269726f206164647265737360b01b606082015260800190565b60208082526022908201527f456e756d657261626c654d61703a20696e646578206f7574206f6620626f756e604082015261647360f01b606082015260800190565b60208082526018908201527f63616c6c6572206973206e6f7420746865206d696e7465720000000000000000604082015260600190565b6020808252818101527f4552433732313a206d696e7420746f20746865207a65726f2061646472657373604082015260600190565b6020808252602c908201527f4552433732313a20617070726f76656420717565727920666f72206e6f6e657860408201526b34b9ba32b73a103a37b5b2b760a11b606082015260800190565b6020808252818101527f4f776e61626c653a2063616c6c6572206973206e6f7420746865206f776e6572604082015260600190565b60208082526029908201527f4552433732313a207472616e73666572206f6620746f6b656e2074686174206960408201526839903737ba1037bbb760b91b606082015260800190565b6020808252602f908201527f4552433732314d657461646174613a2055524920717565727920666f72206e6f60408201526e3732bc34b9ba32b73a103a37b5b2b760891b606082015260800190565b60208082526021908201527f4552433732313a20617070726f76616c20746f2063757272656e74206f776e656040820152603960f91b606082015260800190565b60208082526026908201527f546f6d4361743a205f64656c4d696e74657220697320746865207a65726f206160408201526564647265737360d01b606082015260800190565b60208082526031908201527f4552433732313a207472616e736665722063616c6c6572206973206e6f74206f6040820152701ddb995c881b9bdc88185c1c1c9bdd9959607a1b606082015260800190565b6020808252601d908201527f416464726573733a2063616c6c20746f206e6f6e2d636f6e7472616374000000604082015260600190565b6000602080835261010083018451828501528185015160408501526040850151606085015260608501516080850152608085015160a085015260a08501516008811061251057fe5b60c08581019190915285015160e08086015280519182905282019083906101208601905b8083101561255d5783516001600160a01b03168252928401926001929092019190840190612534565b509695505050505050565b90815260200190565b918252602082015260400190565b600060c082019050878252866020830152856040830152846060830152836080830152600883106125ac57fe5b8260a0830152979650505050505050565b60405181810167ffffffffffffffff811182821017156125dc57600080fd5b604052919050565b60005b838110156125ff5781810151838201526020016125e7565b83811115610dee5750506000910152565b6001600160a01b038116811461262557600080fd5b50565b6001600160e01b03198116811461262557600080fdfe4552433732313a207472616e7366657220746f206e6f6e20455243373231526563656976657220696d706c656d656e7465724552433732313a206f776e657220717565727920666f72206e6f6e6578697374656e7420746f6b656ea2646970667358221220cc28bf9b31f0ae9e71ccb8c91a85b21da0d8d47d9504b11074d6fedda9647b7064736f6c634300060c0033",
  "immutableReferences": {},
  "source": "// SPDX-License-Identifier: MIT\npragma solidity ^0.6.0;\npragma experimental ABIEncoderV2;\n\nimport \"./Minter.sol\";\nimport \"./BasicStruct.sol\";\n\ncontract OrderDetailNFT is Minter, ERC721 {\n    using EnumerableSet for EnumerableSet.UintSet;\n    using SafeMath for uint256;\n    \n    uint256 public nftId = 0;\n    IOrderNFT public orderNFT;\n    mapping(uint256 => NFTDetailInfo) public id2NFTDetailInfoMap;\n    \n    event Mint(address indexed _to, uint256 _tokenId);\n    \n    constructor() ERC721(\"Bobo Order Detail\", \"BOT-D\")  public {\n    }        \n    \n    function setOrderNFT(address _orderNFT) public onlyOwner {\n        orderNFT = IOrderNFT(_orderNFT);\n    }\n    \n    function mint(address _nftOwner, uint256 _inAmount, uint256 _outAmount, uint256 _orderNFTId, SwapPool _swapPool, address[] memory _path) public onlyMinter returns (uint256) {\n        nftId++;\n        \n        _safeMint(_nftOwner, nftId);\n        \n        id2NFTDetailInfoMap[nftId] = NFTDetailInfo(nftId, now, _inAmount, _outAmount, _orderNFTId, _swapPool, _path);\n        \n        orderNFT.bindDetailNFT(_orderNFTId, nftId);\n        \n        emit Mint(_nftOwner, nftId);\n        return nftId;\n    }\n\n    function getOrderDetailInfo(uint256 _nftId) view public returns(NFTDetailInfo memory nftDetailInfo) {\n        require( _exists(_nftId), \"OrderDetailNFT: nft is not exist.\");\n        return id2NFTDetailInfoMap[_nftId];\n    }\n}",
  "sourcePath": "/Users/mryu/blockchain/bobo-metaverse/boboswap-contract/contracts/common/OrderDetailNFT.sol",
  "compiler": {
    "name": "solc",
    "version": "0.6.12+commit.27d51765.Emscripten.clang"
  },
  "schemaVersion": "3.4.3",
  "updatedAt": "2021-08-30T02:44:23.342Z",
  "networkType": "ethereum",
  "devdoc": {
    "kind": "dev",
    "methods": {
      "approve(address,uint256)": {
        "details": "See {IERC721-approve}."
      },
      "balanceOf(address)": {
        "details": "See {IERC721-balanceOf}."
      },
      "baseURI()": {
        "details": "Returns the base URI set via {_setBaseURI}. This will be automatically added as a prefix in {tokenURI} to each token's URI, or to the token ID if no specific URI is set for that token ID."
      },
      "getApproved(uint256)": {
        "details": "See {IERC721-getApproved}."
      },
      "isApprovedForAll(address,address)": {
        "details": "See {IERC721-isApprovedForAll}."
      },
      "name()": {
        "details": "See {IERC721Metadata-name}."
      },
      "owner()": {
        "details": "Returns the address of the current owner."
      },
      "ownerOf(uint256)": {
        "details": "See {IERC721-ownerOf}."
      },
      "renounceOwnership()": {
        "details": "Leaves the contract without owner. It will not be possible to call `onlyOwner` functions anymore. Can only be called by the current owner. NOTE: Renouncing ownership will leave the contract without an owner, thereby removing any functionality that is only available to the owner."
      },
      "safeTransferFrom(address,address,uint256)": {
        "details": "See {IERC721-safeTransferFrom}."
      },
      "safeTransferFrom(address,address,uint256,bytes)": {
        "details": "See {IERC721-safeTransferFrom}."
      },
      "setApprovalForAll(address,bool)": {
        "details": "See {IERC721-setApprovalForAll}."
      },
      "supportsInterface(bytes4)": {
        "details": "See {IERC165-supportsInterface}. Time complexity O(1), guaranteed to always use less than 30 000 gas."
      },
      "symbol()": {
        "details": "See {IERC721Metadata-symbol}."
      },
      "tokenByIndex(uint256)": {
        "details": "See {IERC721Enumerable-tokenByIndex}."
      },
      "tokenOfOwnerByIndex(address,uint256)": {
        "details": "See {IERC721Enumerable-tokenOfOwnerByIndex}."
      },
      "tokenURI(uint256)": {
        "details": "See {IERC721Metadata-tokenURI}."
      },
      "totalSupply()": {
        "details": "See {IERC721Enumerable-totalSupply}."
      },
      "transferFrom(address,address,uint256)": {
        "details": "See {IERC721-transferFrom}."
      },
      "transferOwnership(address)": {
        "details": "Transfers ownership of the contract to a new account (`newOwner`). Can only be called by the current owner."
      }
    },
    "version": 1
  },
  "userdoc": {
    "kind": "user",
    "methods": {},
    "version": 1
  }
}