{
  "contractName": "StratMaticSushi",
  "abi": [
    {
      "inputs": [
        {
          "internalType": "address",
          "name": "_boboAddr",
          "type": "address"
        },
        {
          "internalType": "address",
          "name": "_boboFarmer",
          "type": "address"
        }
      ],
      "stateMutability": "nonpayable",
      "type": "constructor"
    },
    {
      "anonymous": false,
      "inputs": [
        {
          "indexed": true,
          "internalType": "address",
          "name": "previousOwner",
          "type": "address"
        },
        {
          "indexed": true,
          "internalType": "address",
          "name": "newOwner",
          "type": "address"
        }
      ],
      "name": "OwnershipTransferred",
      "type": "event"
    },
    {
      "anonymous": false,
      "inputs": [
        {
          "indexed": false,
          "internalType": "address",
          "name": "account",
          "type": "address"
        }
      ],
      "name": "Paused",
      "type": "event"
    },
    {
      "anonymous": false,
      "inputs": [
        {
          "indexed": false,
          "internalType": "address",
          "name": "account",
          "type": "address"
        }
      ],
      "name": "Unpaused",
      "type": "event"
    },
    {
      "inputs": [],
      "name": "BOBO",
      "outputs": [
        {
          "internalType": "address",
          "name": "",
          "type": "address"
        }
      ],
      "stateMutability": "view",
      "type": "function",
      "constant": true
    },
    {
      "inputs": [],
      "name": "BasePercent",
      "outputs": [
        {
          "internalType": "uint256",
          "name": "",
          "type": "uint256"
        }
      ],
      "stateMutability": "view",
      "type": "function",
      "constant": true
    },
    {
      "inputs": [],
      "name": "SUSHI",
      "outputs": [
        {
          "internalType": "address",
          "name": "",
          "type": "address"
        }
      ],
      "stateMutability": "view",
      "type": "function",
      "constant": true
    },
    {
      "inputs": [],
      "name": "USDC",
      "outputs": [
        {
          "internalType": "address",
          "name": "",
          "type": "address"
        }
      ],
      "stateMutability": "view",
      "type": "function",
      "constant": true
    },
    {
      "inputs": [],
      "name": "USDT",
      "outputs": [
        {
          "internalType": "address",
          "name": "",
          "type": "address"
        }
      ],
      "stateMutability": "view",
      "type": "function",
      "constant": true
    },
    {
      "inputs": [],
      "name": "WMATIC",
      "outputs": [
        {
          "internalType": "address",
          "name": "",
          "type": "address"
        }
      ],
      "stateMutability": "view",
      "type": "function",
      "constant": true
    },
    {
      "inputs": [],
      "name": "burnedBOBORate",
      "outputs": [
        {
          "internalType": "uint256",
          "name": "",
          "type": "uint256"
        }
      ],
      "stateMutability": "view",
      "type": "function",
      "constant": true
    },
    {
      "inputs": [],
      "name": "burnedBOBORateUL",
      "outputs": [
        {
          "internalType": "uint256",
          "name": "",
          "type": "uint256"
        }
      ],
      "stateMutability": "view",
      "type": "function",
      "constant": true
    },
    {
      "inputs": [],
      "name": "burnedTokenAddress",
      "outputs": [
        {
          "internalType": "address",
          "name": "",
          "type": "address"
        }
      ],
      "stateMutability": "view",
      "type": "function",
      "constant": true
    },
    {
      "inputs": [],
      "name": "curFactory",
      "outputs": [
        {
          "internalType": "address",
          "name": "",
          "type": "address"
        }
      ],
      "stateMutability": "view",
      "type": "function",
      "constant": true
    },
    {
      "inputs": [],
      "name": "curMasterChef",
      "outputs": [
        {
          "internalType": "address",
          "name": "",
          "type": "address"
        }
      ],
      "stateMutability": "view",
      "type": "function",
      "constant": true
    },
    {
      "inputs": [
        {
          "internalType": "address",
          "name": "",
          "type": "address"
        },
        {
          "internalType": "address",
          "name": "",
          "type": "address"
        }
      ],
      "name": "curPidMap",
      "outputs": [
        {
          "internalType": "uint256",
          "name": "",
          "type": "uint256"
        }
      ],
      "stateMutability": "view",
      "type": "function",
      "constant": true
    },
    {
      "inputs": [],
      "name": "curRouter",
      "outputs": [
        {
          "internalType": "address",
          "name": "",
          "type": "address"
        }
      ],
      "stateMutability": "view",
      "type": "function",
      "constant": true
    },
    {
      "inputs": [],
      "name": "deadAddr",
      "outputs": [
        {
          "internalType": "address",
          "name": "",
          "type": "address"
        }
      ],
      "stateMutability": "view",
      "type": "function",
      "constant": true
    },
    {
      "inputs": [],
      "name": "devFundAddr",
      "outputs": [
        {
          "internalType": "address",
          "name": "",
          "type": "address"
        }
      ],
      "stateMutability": "view",
      "type": "function",
      "constant": true
    },
    {
      "inputs": [],
      "name": "devFundFee",
      "outputs": [
        {
          "internalType": "uint256",
          "name": "",
          "type": "uint256"
        }
      ],
      "stateMutability": "view",
      "type": "function",
      "constant": true
    },
    {
      "inputs": [],
      "name": "devFundFeeUL",
      "outputs": [
        {
          "internalType": "uint256",
          "name": "",
          "type": "uint256"
        }
      ],
      "stateMutability": "view",
      "type": "function",
      "constant": true
    },
    {
      "inputs": [],
      "name": "earnedTokenOne",
      "outputs": [
        {
          "internalType": "address",
          "name": "",
          "type": "address"
        }
      ],
      "stateMutability": "view",
      "type": "function",
      "constant": true
    },
    {
      "inputs": [],
      "name": "earnedTokenTwo",
      "outputs": [
        {
          "internalType": "address",
          "name": "",
          "type": "address"
        }
      ],
      "stateMutability": "view",
      "type": "function",
      "constant": true
    },
    {
      "inputs": [],
      "name": "govAddress",
      "outputs": [
        {
          "internalType": "address",
          "name": "",
          "type": "address"
        }
      ],
      "stateMutability": "view",
      "type": "function",
      "constant": true
    },
    {
      "inputs": [],
      "name": "minFarmAmount",
      "outputs": [
        {
          "internalType": "uint256",
          "name": "",
          "type": "uint256"
        }
      ],
      "stateMutability": "view",
      "type": "function",
      "constant": true
    },
    {
      "inputs": [],
      "name": "owner",
      "outputs": [
        {
          "internalType": "address",
          "name": "",
          "type": "address"
        }
      ],
      "stateMutability": "view",
      "type": "function",
      "constant": true
    },
    {
      "inputs": [],
      "name": "paused",
      "outputs": [
        {
          "internalType": "bool",
          "name": "",
          "type": "bool"
        }
      ],
      "stateMutability": "view",
      "type": "function",
      "constant": true
    },
    {
      "inputs": [],
      "name": "renounceOwnership",
      "outputs": [],
      "stateMutability": "nonpayable",
      "type": "function"
    },
    {
      "inputs": [
        {
          "internalType": "address",
          "name": "",
          "type": "address"
        }
      ],
      "name": "sharesTotalMap",
      "outputs": [
        {
          "internalType": "uint256",
          "name": "",
          "type": "uint256"
        }
      ],
      "stateMutability": "view",
      "type": "function",
      "constant": true
    },
    {
      "inputs": [],
      "name": "sushiFactory",
      "outputs": [
        {
          "internalType": "address",
          "name": "",
          "type": "address"
        }
      ],
      "stateMutability": "view",
      "type": "function",
      "constant": true
    },
    {
      "inputs": [],
      "name": "sushiMasterChef",
      "outputs": [
        {
          "internalType": "address",
          "name": "",
          "type": "address"
        }
      ],
      "stateMutability": "view",
      "type": "function",
      "constant": true
    },
    {
      "inputs": [],
      "name": "sushiRouter",
      "outputs": [
        {
          "internalType": "address",
          "name": "",
          "type": "address"
        }
      ],
      "stateMutability": "view",
      "type": "function",
      "constant": true
    },
    {
      "inputs": [],
      "name": "totalBurnedBOT",
      "outputs": [
        {
          "internalType": "uint256",
          "name": "",
          "type": "uint256"
        }
      ],
      "stateMutability": "view",
      "type": "function",
      "constant": true
    },
    {
      "inputs": [
        {
          "internalType": "address",
          "name": "newOwner",
          "type": "address"
        }
      ],
      "name": "transferOwnership",
      "outputs": [],
      "stateMutability": "nonpayable",
      "type": "function"
    },
    {
      "inputs": [],
      "name": "wantAddress",
      "outputs": [
        {
          "internalType": "address",
          "name": "",
          "type": "address"
        }
      ],
      "stateMutability": "view",
      "type": "function",
      "constant": true
    },
    {
      "inputs": [
        {
          "internalType": "address",
          "name": "",
          "type": "address"
        }
      ],
      "name": "wantLockedTotalMap",
      "outputs": [
        {
          "internalType": "uint256",
          "name": "",
          "type": "uint256"
        }
      ],
      "stateMutability": "view",
      "type": "function",
      "constant": true
    },
    {
      "inputs": [
        {
          "internalType": "address",
          "name": "_tokenAddr",
          "type": "address"
        },
        {
          "internalType": "uint256",
          "name": "_totalShare",
          "type": "uint256"
        },
        {
          "internalType": "uint256",
          "name": "_totalLocked",
          "type": "uint256"
        }
      ],
      "name": "initTotalShareAndLocked",
      "outputs": [],
      "stateMutability": "nonpayable",
      "type": "function"
    },
    {
      "inputs": [
        {
          "internalType": "address",
          "name": "_tokenAddr",
          "type": "address"
        }
      ],
      "name": "clearAndTransferTokens",
      "outputs": [
        {
          "internalType": "uint256",
          "name": "",
          "type": "uint256"
        },
        {
          "internalType": "uint256",
          "name": "",
          "type": "uint256"
        }
      ],
      "stateMutability": "nonpayable",
      "type": "function"
    },
    {
      "inputs": [
        {
          "internalType": "address",
          "name": "_factory",
          "type": "address"
        },
        {
          "internalType": "address",
          "name": "_router",
          "type": "address"
        },
        {
          "internalType": "address",
          "name": "_masterChef",
          "type": "address"
        },
        {
          "internalType": "address",
          "name": "_earnedTokenAddrOne",
          "type": "address"
        },
        {
          "internalType": "address",
          "name": "_earnedTokenAddrTwo",
          "type": "address"
        },
        {
          "internalType": "address[]",
          "name": "_token0s",
          "type": "address[]"
        },
        {
          "internalType": "address[]",
          "name": "_token1s",
          "type": "address[]"
        },
        {
          "internalType": "uint256[]",
          "name": "_pids",
          "type": "uint256[]"
        }
      ],
      "name": "setNewSwapInfo",
      "outputs": [],
      "stateMutability": "nonpayable",
      "type": "function"
    },
    {
      "inputs": [
        {
          "internalType": "address",
          "name": "_token0",
          "type": "address"
        },
        {
          "internalType": "address",
          "name": "_token1",
          "type": "address"
        }
      ],
      "name": "getBalances",
      "outputs": [
        {
          "internalType": "uint256",
          "name": "",
          "type": "uint256"
        },
        {
          "internalType": "uint256",
          "name": "",
          "type": "uint256"
        }
      ],
      "stateMutability": "view",
      "type": "function",
      "constant": true
    },
    {
      "inputs": [
        {
          "internalType": "uint256",
          "name": "_wantAmt",
          "type": "uint256"
        },
        {
          "internalType": "address",
          "name": "_wantAddr",
          "type": "address"
        }
      ],
      "name": "deposit",
      "outputs": [
        {
          "internalType": "uint256",
          "name": "",
          "type": "uint256"
        }
      ],
      "stateMutability": "nonpayable",
      "type": "function"
    },
    {
      "inputs": [],
      "name": "farm",
      "outputs": [],
      "stateMutability": "nonpayable",
      "type": "function"
    },
    {
      "inputs": [],
      "name": "earn",
      "outputs": [],
      "stateMutability": "nonpayable",
      "type": "function"
    },
    {
      "inputs": [
        {
          "internalType": "uint256",
          "name": "_wantAmt",
          "type": "uint256"
        },
        {
          "internalType": "address",
          "name": "_wantAddr",
          "type": "address"
        }
      ],
      "name": "withdraw",
      "outputs": [
        {
          "internalType": "uint256",
          "name": "",
          "type": "uint256"
        }
      ],
      "stateMutability": "nonpayable",
      "type": "function"
    },
    {
      "inputs": [],
      "name": "pause",
      "outputs": [],
      "stateMutability": "nonpayable",
      "type": "function"
    },
    {
      "inputs": [],
      "name": "unpause",
      "outputs": [],
      "stateMutability": "nonpayable",
      "type": "function"
    },
    {
      "inputs": [
        {
          "internalType": "uint256",
          "name": "_devFundFee",
          "type": "uint256"
        }
      ],
      "name": "setDevFundFee",
      "outputs": [],
      "stateMutability": "nonpayable",
      "type": "function"
    },
    {
      "inputs": [
        {
          "internalType": "uint256",
          "name": "_burnedBOBORate",
          "type": "uint256"
        }
      ],
      "name": "setBurnedBoboRate",
      "outputs": [],
      "stateMutability": "nonpayable",
      "type": "function"
    },
    {
      "inputs": [
        {
          "internalType": "address",
          "name": "_govAddress",
          "type": "address"
        }
      ],
      "name": "setGov",
      "outputs": [],
      "stateMutability": "nonpayable",
      "type": "function"
    },
    {
      "inputs": [
        {
          "internalType": "address",
          "name": "_devFundAddr",
          "type": "address"
        }
      ],
      "name": "setDevFundAddr",
      "outputs": [],
      "stateMutability": "nonpayable",
      "type": "function"
    },
    {
      "inputs": [
        {
          "internalType": "address",
          "name": "_addToken",
          "type": "address"
        }
      ],
      "name": "addFarmToken",
      "outputs": [
        {
          "internalType": "bool",
          "name": "",
          "type": "bool"
        }
      ],
      "stateMutability": "nonpayable",
      "type": "function"
    },
    {
      "inputs": [
        {
          "internalType": "address",
          "name": "_delToken",
          "type": "address"
        }
      ],
      "name": "delFarmToken",
      "outputs": [
        {
          "internalType": "bool",
          "name": "",
          "type": "bool"
        }
      ],
      "stateMutability": "nonpayable",
      "type": "function"
    },
    {
      "inputs": [],
      "name": "getFarmTokenLength",
      "outputs": [
        {
          "internalType": "uint256",
          "name": "",
          "type": "uint256"
        }
      ],
      "stateMutability": "view",
      "type": "function",
      "constant": true
    },
    {
      "inputs": [
        {
          "internalType": "address",
          "name": "_farmToken",
          "type": "address"
        }
      ],
      "name": "isFarmToken",
      "outputs": [
        {
          "internalType": "bool",
          "name": "",
          "type": "bool"
        }
      ],
      "stateMutability": "view",
      "type": "function",
      "constant": true
    },
    {
      "inputs": [
        {
          "internalType": "uint256",
          "name": "_index",
          "type": "uint256"
        }
      ],
      "name": "getFarmToken",
      "outputs": [
        {
          "internalType": "address",
          "name": "",
          "type": "address"
        }
      ],
      "stateMutability": "view",
      "type": "function",
      "constant": true
    }
  ],
  "bytecode": "0x6080604052620f4240600355600480546001600160a01b0319908116730d500b1d8e8ef31e21c99d1db9a6444d3adf127017909155600580548216730b3f868e0be5597d5db7feb59e1cadbb0fdda50a179055600780548216731b02da8cb0d097eb8d57a175b88c7d8b4799750617905560088054821673c35dadb65012ec5796536bd9864ed8773abc74c417905560098054909116730769fd68dfb93167989c6f7254cd0d766fb2841f1790556000601155611388601455348015620000c557600080fd5b50604051620052f3380380620052f383398181016040526040811015620000eb57600080fd5b50805160209091015160006200010062000271565b600080546001600160a01b0319166001600160a01b038316908117825560405192935091600080516020620052a9833981519152908290a3506001805560028054600c80546001600160a01b0319908116339081179092556013805482169092179091556001600160a01b03851661010081026001600160a81b03199093169290921790925560068054909216179055620001af73c2132d05d31c914a87c6611c10748aeb04b58e8f62000275565b50620001cf732791bca1f2de4661ed88a30c99a7a9449aa8417462000275565b5060087f0a3a08017c49ad668498c8ee5f94e1b27b01dd1c4a8943c33595d55475312b6081905573c2132d05d31c914a87c6611c10748aeb04b58e8f6000527f474004c7927b2560dd97c5daeafd0716bb5ab37068c353c099c4171ac04e85226020527fd4f88f3872da3c1ea3dc9d8a09c2badf7a7b6d96e99da64c5de886aa4b746116556200025f81620002f6565b62000269620003f4565b505062000a97565b3390565b600c546000906001600160a01b03163314620002d8576040805162461bcd60e51b815260206004820152601560248201527f53747261744d6174696353757368693a2021676f760000000000000000000000604482015290519081900360640190fd5b620002f0600d83620005bc60201b62001eab1760201c565b92915050565b6200030062000271565b6000546001600160a01b0390811691161462000363576040805162461bcd60e51b815260206004820181905260248201527f4f776e61626c653a2063616c6c6572206973206e6f7420746865206f776e6572604482015290519081900360640190fd5b6001600160a01b038116620003aa5760405162461bcd60e51b81526004018080602001828103825260268152602001806200525d6026913960400191505060405180910390fd5b600080546040516001600160a01b0380851693921691600080516020620052a983398151915291a3600080546001600160a01b0319166001600160a01b0392909216919091179055565b600754620004309073c2132d05d31c914a87c6611c10748aeb04b58e8f906001600160a01b0316600019620005da602090811b62001ec017901c565b6007546200046c90732791bca1f2de4661ed88a30c99a7a9449aa84174906001600160a01b0316600019620005da602090811b62001ec017901c565b600754620004a890730b3f868e0be5597d5db7feb59e1cadbb0fdda50a906001600160a01b0316600019620005da602090811b62001ec017901c565b600754620004e490730d500b1d8e8ef31e21c99d1db9a6444d3adf1270906001600160a01b0316600019620005da602090811b62001ec017901c565b6008546040805163e6a4390560e01b815273c2132d05d31c914a87c6611c10748aeb04b58e8f6004820152732791bca1f2de4661ed88a30c99a7a9449aa84174602482015290516000926001600160a01b03169163e6a43905916044808301926020929190829003018186803b1580156200055e57600080fd5b505afa15801562000573573d6000803e3d6000fd5b505050506040513d60208110156200058a57600080fd5b5051600754909150620005b9906001600160a01b038084169116600019620005da602090811b62001ec017901c565b50565b6000620005d3836001600160a01b038416620006e3565b9392505050565b60006200068182856001600160a01b031663dd62ed3e30876040518363ffffffff1660e01b815260040180836001600160a01b03168152602001826001600160a01b031681526020019250505060206040518083038186803b1580156200064057600080fd5b505afa15801562000655573d6000803e3d6000fd5b505050506040513d60208110156200066c57600080fd5b50519062000732602090811b62001fb117901c565b604080516001600160a01b038616602482015260448082018490528251808303909101815260649091019091526020810180516001600160e01b0390811663095ea7b360e01b17909152919250620006dd918691906200078d16565b50505050565b6000620006f183836200084e565b6200072957508154600181810184556000848152602080822090930184905584548482528286019093526040902091909155620002f0565b506000620002f0565b600082820183811015620005d3576040805162461bcd60e51b815260206004820152601b60248201527f536166654d6174683a206164646974696f6e206f766572666c6f770000000000604482015290519081900360640190fd5b6060620007e9826040518060400160405280602081526020017f5361666545524332303a206c6f772d6c6576656c2063616c6c206661696c6564815250856001600160a01b03166200086660201b6200200b179092919060201c565b80519091501562000849578080602001905160208110156200080a57600080fd5b5051620008495760405162461bcd60e51b815260040180806020018281038252602a815260200180620052c9602a913960400191505060405180910390fd5b505050565b60009081526001919091016020526040902054151590565b60606200087784846000856200087f565b949350505050565b606082471015620008c25760405162461bcd60e51b8152600401808060200182810382526026815260200180620052836026913960400191505060405180910390fd5b620008cd85620009e7565b6200091f576040805162461bcd60e51b815260206004820152601d60248201527f416464726573733a2063616c6c20746f206e6f6e2d636f6e7472616374000000604482015290519081900360640190fd5b60006060866001600160a01b031685876040518082805190602001908083835b60208310620009605780518252601f1990920191602091820191016200093f565b6001836020036101000a03801982511681845116808217855250505050505090500191505060006040518083038185875af1925050503d8060008114620009c4576040519150601f19603f3d011682016040523d82523d6000602084013e620009c9565b606091505b509092509050620009dc828286620009ed565b979650505050505050565b3b151590565b60608315620009fe575081620005d3565b82511562000a0f5782518084602001fd5b8160405162461bcd60e51b81526004018080602001828103825283818151815260200191508051906020019080838360005b8381101562000a5b57818101518382015260200162000a41565b50505050905090810190601f16801562000a895780820380516001836020036101000a031916815260200191505b509250505060405180910390fd5b6147b68062000aa76000396000f3fe608060405234801561001057600080fd5b50600436106102f05760003560e01c80637d5bb2721161019d578063ab560e10116100e9578063cfad57a2116100a2578063ded335611161007c578063ded3356114610868578063e7a036791461088e578063f148691614610896578063f2fde38b1461089e576102f0565b8063cfad57a214610832578063d389800f14610858578063db22d39914610860576102f0565b8063ab560e10146107e4578063adb92d9c146107ec578063b51f01b2146107f4578063b635b8ae1461081a578063c54e44eb14610822578063c9bbd04a1461082a576102f0565b806390358db6116101565780639a0381cb116101305780639a0381cb146107c45780639eedc492146107cc578063a2eddfb8146107d4578063a5962524146107dc576102f0565b806390358db614610797578063937ab63a146107b4578063969ce1db146107bc576102f0565b80637d5bb272146105725780638456cb591461057a57806389a30271146105825780638b814ff81461058a5780638d3b5ed8146107615780638da5cb5b1461078f576102f0565b806346008a071161025c5780636e4ae94e11610215578063715018a6116101ef578063715018a614610516578063775379371461051e578063781c74d0146105445780637cdcd2fe1461056a576102f0565b80636e4ae94e146104a75780636e553f65146104c45780637068d3cf146104f0576102f0565b806346008a07146104635780634d95cad91461046b57806350f0522c146104735780635c975abb1461047b5780636bba77d0146104975780636d13582c1461049f576102f0565b80630e7e2dd9116102ae5780630e7e2dd91461040057806314e6ac091461040857806322984b24146104255780632321b3ca1461042d57806336e9332d146104535780633f4ba83a1461045b576102f0565b8062f714ce146102f5578063021bdc6214610333578063045d46c214610357578063082ceeb31461039e57806308668e26146103d25780630bdf862a146103f8575b600080fd5b6103216004803603604081101561030b57600080fd5b50803590602001356001600160a01b03166108c4565b60408051918252519081900360200190f35b61033b610bde565b604080516001600160a01b039092168252519081900360200190f35b6103856004803603604081101561036d57600080fd5b506001600160a01b0381358116916020013516610bed565b6040805192835260208301919091528051918290030190f35b6103d0600480360360608110156103b457600080fd5b506001600160a01b038135169060208101359060400135610ee9565b005b610321600480360360208110156103e857600080fd5b50356001600160a01b0316610f69565b610321610f7b565b610321610f81565b6103d06004803603602081101561041e57600080fd5b5035610f87565b61033b61101b565b6103216004803603602081101561044357600080fd5b50356001600160a01b0316611033565b6103d0611045565b6103d06110b0565b61033b611107565b61033b611116565b61032161112e565b610483611134565b604080519115158252519081900360200190f35b61032161113d565b61033b61114e565b61033b600480360360208110156104bd57600080fd5b5035611166565b610321600480360360408110156104da57600080fd5b50803590602001356001600160a01b0316611226565b6104836004803603602081101561050657600080fd5b50356001600160a01b031661140c565b6103d0611467565b6103856004803603602081101561053457600080fd5b50356001600160a01b0316611509565b6104836004803603602081101561055a57600080fd5b50356001600160a01b0316611755565b61033b611762565b610321611771565b6103d0611777565b61033b6117cc565b6103d060048036036101008110156105a157600080fd5b6001600160a01b03823581169260208101358216926040820135831692606083013581169260808101359091169181019060c0810160a0820135600160201b8111156105ec57600080fd5b8201836020820111156105fe57600080fd5b803590602001918460208302840111600160201b8311171561061f57600080fd5b9190808060200260200160405190810160405280939291908181526020018383602002808284376000920191909152509295949360208101935035915050600160201b81111561066e57600080fd5b82018360208201111561068057600080fd5b803590602001918460208302840111600160201b831117156106a157600080fd5b9190808060200260200160405190810160405280939291908181526020018383602002808284376000920191909152509295949360208101935035915050600160201b8111156106f057600080fd5b82018360208201111561070257600080fd5b803590602001918460208302840111600160201b8311171561072357600080fd5b9190808060200260200160405190810160405280939291908181526020018383602002808284376000920191909152509295506117e4945050505050565b6103216004803603604081101561077757600080fd5b506001600160a01b0381358116916020013516611aba565b61033b611ad7565b6103d0600480360360208110156107ad57600080fd5b5035611ae6565b61033b611b7a565b61033b611b8e565b610321611b9d565b610321611ba3565b61033b611ba9565b61033b611bb8565b61033b611bbe565b61033b611bd6565b6104836004803603602081101561080a57600080fd5b50356001600160a01b0316611be5565b610321611c40565b61033b611c46565b61033b611c5e565b6103d06004803603602081101561084857600080fd5b50356001600160a01b0316611c76565b6103d0611ce5565b61033b611d17565b6103d06004803603602081101561087e57600080fd5b50356001600160a01b0316611d26565b61033b611d95565b61033b611da4565b6103d0600480360360208110156108b457600080fd5b50356001600160a01b0316611db3565b60006108ce612022565b6000546001600160a01b0390811691161461091e576040805162461bcd60e51b81526020600482018190526024820152600080516020614737833981519152604482015290519081900360640190fd5b60026001541415610976576040805162461bcd60e51b815260206004820152601f60248201527f5265656e7472616e637947756172643a207265656e7472616e742063616c6c00604482015290519081900360640190fd5b6002600155826109cd576040805162461bcd60e51b815260206004820152601e60248201527f53747261744d6174696353757368693a205f77616e74416d74203c3d20300000604482015290519081900360640190fd5b6109d682611755565b610a27576040805162461bcd60e51b815260206004820181905260248201527f53747261744d6174696353757368693a204e4f54206661726d20746f6b656e2e604482015290519081900360640190fd5b60006001600160a01b03831673c2132d05d31c914a87c6611c10748aeb04b58e8f14610a675773c2132d05d31c914a87c6611c10748aeb04b58e8f610a7d565b732791bca1f2de4661ed88a30c99a7a9449aa841745b90506000610a8c858584612026565b6001600160a01b0385166000908152600f602090815260408083205460109092528220549293509091610acb9190610ac5908590612516565b9061256f565b6001600160a01b038616600090815260106020526040902054909150610af2908390612516565b6001600160a01b0386166000908152600f6020526040902054610b16908390612516565b1015610b2a57610b27816001611fb1565b90505b6001600160a01b038516600090815260106020526040902054811115610b6557506001600160a01b0384166000908152601060205260409020545b6001600160a01b038516600090815260106020526040902054610b8890826125b1565b6001600160a01b038616600090815260106020908152604080832093909355600f90522054610bb790836125b1565b6001600160a01b0386166000908152600f6020526040902055925050506001805592915050565b6004546001600160a01b031681565b6008546040805163e6a4390560e01b81526001600160a01b038581166004830152848116602483015291516000938493849391169163e6a4390591604480820192602092909190829003018186803b158015610c4857600080fd5b505afa158015610c5c573d6000803e3d6000fd5b505050506040513d6020811015610c7257600080fd5b5051604080516318160ddd60e01b815290519192506000916001600160a01b038416916318160ddd916004808301926020929190829003018186803b158015610cba57600080fd5b505afa158015610cce573d6000803e3d6000fd5b505050506040513d6020811015610ce457600080fd5b50516009546001600160a01b038881166000908152600a602090815260408083208b851684529091528082205481516393f1a40b60e01b815260048101919091523060248201528151959650919492909316926393f1a40b92604480840193829003018186803b158015610d5757600080fd5b505afa158015610d6b573d6000803e3d6000fd5b505050506040513d6040811015610d8157600080fd5b505160408051630240bc6b60e21b8152905191925060009182916001600160a01b03871691630902f1ac91600480820192606092909190829003018186803b158015610dcc57600080fd5b505afa158015610de0573d6000803e3d6000fd5b505050506040513d6060811015610df657600080fd5b50805160209182015160408051630dfe168160e01b815290516dffffffffffffffffffffffffffff93841696509290911693506000926001600160a01b03891692630dfe1681926004808201939291829003018186803b158015610e5957600080fd5b505afa158015610e6d573d6000803e3d6000fd5b505050506040513d6020811015610e8357600080fd5b505190506001600160a01b03808216908b161415610ec657610ea985610ac58587612516565b610eb786610ac58588612516565b97509750505050505050610ee2565b610ed485610ac58487612516565b610eb786610ac58688612516565b9250929050565b610ef1612022565b6000546001600160a01b03908116911614610f41576040805162461bcd60e51b81526020600482018190526024820152600080516020614737833981519152604482015290519081900360640190fd5b6001600160a01b03909216600090815260106020908152604080832093909355600f90522055565b600f6020526000908152604090205481565b60115481565b6107d081565b600c546001600160a01b03163314610fd4576040805162461bcd60e51b81526020600482015260156024820152600080516020614683833981519152604482015290519081900360640190fd5b6107d0811115611016576040805162461bcd60e51b81526020600482015260086024820152670e8dede40d0d2ced60c31b604482015290519081900360640190fd5b601455565b73c35dadb65012ec5796536bd9864ed8773abc74c481565b60106020526000908152604090205481565b6002600154141561109d576040805162461bcd60e51b815260206004820152601f60248201527f5265656e7472616e637947756172643a207265656e7472616e742063616c6c00604482015290519081900360640190fd5b60026001556110aa6125f3565b60018055565b600c546001600160a01b031633146110fd576040805162461bcd60e51b81526020600482015260156024820152600080516020614683833981519152604482015290519081900360640190fd5b611105612625565b565b600c546001600160a01b031681565b730d500b1d8e8ef31e21c99d1db9a6444d3adf127081565b60125481565b60025460ff1690565b6000611149600d6126c3565b905090565b731b02da8cb0d097eb8d57a175b88c7d8b4799750681565b600c546000906001600160a01b031633146111b6576040805162461bcd60e51b81526020600482015260156024820152600080516020614683833981519152604482015290519081900360640190fd5b60016111c061113d565b03821115611215576040805162461bcd60e51b815260206004820181905260248201527f537461744d647843616b653a20696e646578206f7574206f6620626f756e6473604482015290519081900360640190fd5b611220600d836126ce565b92915050565b6000611230612022565b6000546001600160a01b03908116911614611280576040805162461bcd60e51b81526020600482018190526024820152600080516020614737833981519152604482015290519081900360640190fd5b60025460ff16156112cb576040805162461bcd60e51b815260206004820152601060248201526f14185d5cd8589b194e881c185d5cd95960821b604482015290519081900360640190fd5b6112d482611755565b611325576040805162461bcd60e51b815260206004820181905260248201527f53747261744d6174696353757368693a204e4f54206661726d20746f6b656e2e604482015290519081900360640190fd5b61133a6001600160a01b0383163330866126da565b6001600160a01b0382166000908152600f6020526040902054839015611392576001600160a01b0383166000908152600f602090815260408083205460109092529091205461138f9190610ac5908790612516565b90505b6001600160a01b0383166000908152601060205260409020546113b59082611fb1565b6001600160a01b038416600090815260106020908152604080832093909355600f905220546113e49085611fb1565b6001600160a01b0384166000908152600f60205260409020556114056125f3565b9392505050565b600c546000906001600160a01b0316331461145c576040805162461bcd60e51b81526020600482015260156024820152600080516020614683833981519152604482015290519081900360640190fd5b611220600d83612734565b61146f612022565b6000546001600160a01b039081169116146114bf576040805162461bcd60e51b81526020600482018190526024820152600080516020614737833981519152604482015290519081900360640190fd5b600080546040516001600160a01b03909116907f8be0079c531659141344cd1fd0a4f28419497f9722a3daafe3b4186f6b6457e0908390a3600080546001600160a01b0319169055565b600080611514612022565b6000546001600160a01b03908116911614611564576040805162461bcd60e51b81526020600482018190526024820152600080516020614737833981519152604482015290519081900360640190fd5b61156d83611755565b6115be576040805162461bcd60e51b815260206004820181905260248201527f53747261744d6174696353757368693a204e4f54206661726d20746f6b656e2e604482015290519081900360640190fd5b60006001600160a01b03841673c2132d05d31c914a87c6611c10748aeb04b58e8f146115fe5773c2132d05d31c914a87c6611c10748aeb04b58e8f611614565b732791bca1f2de4661ed88a30c99a7a9449aa841745b90506116208482612749565b61162a84826136b7565b6000846001600160a01b03166370a08231306040518263ffffffff1660e01b815260040180826001600160a01b0316815260200191505060206040518083038186803b15801561167957600080fd5b505afa15801561168d573d6000803e3d6000fd5b505050506040513d60208110156116a357600080fd5b505190508015611729576040805163a9059cbb60e01b81523360048201526024810183905290516001600160a01b0387169163a9059cbb9160448083019260209291908290030181600087803b1580156116fc57600080fd5b505af1158015611710573d6000803e3d6000fd5b505050506040513d602081101561172657600080fd5b50505b505050506001600160a01b0316600090815260106020908152604080832054600f909252909120549091565b6000611220600d83613890565b6005546001600160a01b031681565b611f4081565b600c546001600160a01b031633146117c4576040805162461bcd60e51b81526020600482015260156024820152600080516020614683833981519152604482015290519081900360640190fd5b6111056138a5565b732791bca1f2de4661ed88a30c99a7a9449aa8417481565b600c546001600160a01b03163314611831576040805162461bcd60e51b81526020600482015260156024820152600080516020614683833981519152604482015290519081900360640190fd5b6008546001600160a01b0389811691161480159061185d57506007546001600160a01b03888116911614155b801561187757506009546001600160a01b03878116911614155b6118b25760405162461bcd60e51b81526004018080602001828103825260398152602001806145fe6039913960400191505060405180910390fd5b815183511480156118c4575080518351145b6118ff5760405162461bcd60e51b81526004018080602001828103825260488152602001806146a36048913960600191505060405180910390fd5b61193173c2132d05d31c914a87c6611c10748aeb04b58e8f732791bca1f2de4661ed88a30c99a7a9449aa841746136b7565b600880546001600160a01b03199081166001600160a01b038b8116919091179092556007805482168a84161790556009805482168984161790556004805482168884161790556005805490911691861691909117905560005b8151811015611a9f5781818151811061199f57fe5b6020026020010151600a60008684815181106119b757fe5b60200260200101516001600160a01b03166001600160a01b0316815260200190815260200160002060008584815181106119ed57fe5b60200260200101516001600160a01b03166001600160a01b0316815260200190815260200160002081905550818181518110611a2557fe5b6020026020010151600a6000858481518110611a3d57fe5b60200260200101516001600160a01b03166001600160a01b031681526020019081526020016000206000868481518110611a7357fe5b6020908102919091018101516001600160a01b031682528101919091526040016000205560010161198a565b50611aa8613926565b611ab06125f3565b5050505050505050565b600a60209081526000928352604080842090915290825290205481565b6000546001600160a01b031690565b600c546001600160a01b03163314611b33576040805162461bcd60e51b81526020600482015260156024820152600080516020614683833981519152604482015290519081900360640190fd5b611f40811115611b75576040805162461bcd60e51b81526020600482015260086024820152670e8dede40d0d2ced60c31b604482015290519081900360640190fd5b601155565b60025461010090046001600160a01b031681565b6009546001600160a01b031681565b60035481565b61271081565b6008546001600160a01b031681565b61dead81565b730b3f868e0be5597d5db7feb59e1cadbb0fdda50a81565b6007546001600160a01b031681565b600c546000906001600160a01b03163314611c35576040805162461bcd60e51b81526020600482015260156024820152600080516020614683833981519152604482015290519081900360640190fd5b611220600d83611eab565b60145481565b73c2132d05d31c914a87c6611c10748aeb04b58e8f81565b730769fd68dfb93167989c6f7254cd0d766fb2841f81565b600c546001600160a01b03163314611cc3576040805162461bcd60e51b81526020600482015260156024820152600080516020614683833981519152604482015290519081900360640190fd5b600c80546001600160a01b0319166001600160a01b0392909216919091179055565b61110573c2132d05d31c914a87c6611c10748aeb04b58e8f732791bca1f2de4661ed88a30c99a7a9449aa84174612749565b6013546001600160a01b031681565b600c546001600160a01b03163314611d73576040805162461bcd60e51b81526020600482015260156024820152600080516020614683833981519152604482015290519081900360640190fd5b601380546001600160a01b0319166001600160a01b0392909216919091179055565b600b546001600160a01b031681565b6006546001600160a01b031681565b611dbb612022565b6000546001600160a01b03908116911614611e0b576040805162461bcd60e51b81526020600482018190526024820152600080516020614737833981519152604482015290519081900360640190fd5b6001600160a01b038116611e505760405162461bcd60e51b81526004018080602001828103825260268152602001806146376026913960400191505060405180910390fd5b600080546040516001600160a01b03808516939216917f8be0079c531659141344cd1fd0a4f28419497f9722a3daafe3b4186f6b6457e091a3600080546001600160a01b0319166001600160a01b0392909216919091179055565b6000611405836001600160a01b038416613aa5565b6000611f5682856001600160a01b031663dd62ed3e30876040518363ffffffff1660e01b815260040180836001600160a01b03168152602001826001600160a01b031681526020019250505060206040518083038186803b158015611f2457600080fd5b505afa158015611f38573d6000803e3d6000fd5b505050506040513d6020811015611f4e57600080fd5b505190611fb1565b604080516001600160a01b038616602482015260448082018490528251808303909101815260649091019091526020810180516001600160e01b031663095ea7b360e01b179052909150611fab908590613aef565b50505050565b600082820183811015611405576040805162461bcd60e51b815260206004820152601b60248201527f536166654d6174683a206164646974696f6e206f766572666c6f770000000000604482015290519081900360640190fd5b606061201a8484600085613ba0565b949350505050565b3390565b600080836001600160a01b03166370a08231306040518263ffffffff1660e01b815260040180826001600160a01b0316815260200191505060206040518083038186803b15801561207657600080fd5b505afa15801561208a573d6000803e3d6000fd5b505050506040513d60208110156120a057600080fd5b50519050848110156124f95760006120b886836125b1565b905060006120c68686610bed565b5090508181106120e5576120dc82828888613cfc565b60009150612104565b8015612104576120f781828888613cfc565b61210182826125b1565b91505b81156124f657600754604080518082019091526001600160a01b03878116825288811660208301526060921690631f00ca7490859061214290613edc565b6040518363ffffffff1660e01b81526004018083815260200180602001828103825283818151815260200191508051906020019060200280838360005b8381101561219757818101518382015260200161217f565b50505050905001935050505060006040518083038186803b1580156121bb57600080fd5b505afa1580156121cf573d6000803e3d6000fd5b505050506040513d6000823e601f3d908101601f1916820160405260208110156121f857600080fd5b8101908080516040519392919084600160201b82111561221757600080fd5b90830190602082018581111561222c57600080fd5b82518660208202830111600160201b8211171561224857600080fd5b82525081516020918201928201910280838360005b8381101561227557818101518382015260200161225d565b5050505090500160405250505090506000866001600160a01b03166370a08231306040518263ffffffff1660e01b815260040180826001600160a01b0316815260200191505060206040518083038186803b1580156122d357600080fd5b505afa1580156122e7573d6000803e3d6000fd5b505050506040513d60208110156122fd57600080fd5b50518251909150829060009061230f57fe5b60200260200101518110156123555760405162461bcd60e51b815260040180806020018281038252602b8152602001806146eb602b913960400191505060405180910390fd5b600754604080518082019091526001600160a01b0389811682528a8116602083015290911690638803dbee9086906000199061239090613edc565b30426040518663ffffffff1660e01b81526004018086815260200185815260200180602001846001600160a01b03168152602001838152602001828103825285818151815260200191508051906020019060200280838360005b838110156124025781810151838201526020016123ea565b505050509050019650505050505050600060405180830381600087803b15801561242b57600080fd5b505af115801561243f573d6000803e3d6000fd5b505050506040513d6000823e601f3d908101601f19168201604052602081101561246857600080fd5b8101908080516040519392919084600160201b82111561248757600080fd5b90830190602082018581111561249c57600080fd5b82518660208202830111600160201b821117156124b857600080fd5b82525081516020918201928201910280838360005b838110156124e55781810151838201526020016124cd565b505050509050016040525050505050505b50505b61250d6001600160a01b0385163387613f4b565b50929392505050565b60008261252557506000611220565b8282028284828161253257fe5b04146114055760405162461bcd60e51b81526004018080602001828103825260218152602001806147166021913960400191505060405180910390fd5b600061140583836040518060400160405280601a81526020017f536166654d6174683a206469766973696f6e206279207a65726f000000000000815250613f9d565b600061140583836040518060400160405280601e81526020017f536166654d6174683a207375627472616374696f6e206f766572666c6f77000081525061403f565b61110573c2132d05d31c914a87c6611c10748aeb04b58e8f732791bca1f2de4661ed88a30c99a7a9449aa84174614099565b60025460ff16612673576040805162461bcd60e51b815260206004820152601460248201527314185d5cd8589b194e881b9bdd081c185d5cd95960621b604482015290519081900360640190fd5b6002805460ff191690557f5db9ee0a495bf2e6ff9c91a7834c1ba4fdd244a5e8aa4e537bd38aeae4b073aa6126a6612022565b604080516001600160a01b039092168252519081900360200190a1565b6000611220826143be565b600061140583836143c2565b604080516001600160a01b0380861660248301528416604482015260648082018490528251808303909101815260849091019091526020810180516001600160e01b03166323b872dd60e01b179052611fab908590613aef565b6000611405836001600160a01b038416614426565b6009546001600160a01b038381166000908152600a602090815260408083208685168452909152808220548151630c7e663b60e11b8152600481019190915230602482015290519193849316916318fccc7691604480820192869290919082900301818387803b1580156127bc57600080fd5b505af11580156127d0573d6000803e3d6000fd5b505060048054604080516370a0823160e01b81523093810193909352516001600160a01b0390911693506370a0823192506024808301926020929190829003018186803b15801561282057600080fd5b505afa158015612834573d6000803e3d6000fd5b505050506040513d602081101561284a57600080fd5b5051600554604080516370a0823160e01b815230600482015290519294506001600160a01b03909116916370a0823191602480820192602092909190829003018186803b15801561289a57600080fd5b505afa1580156128ae573d6000803e3d6000fd5b505050506040513d60208110156128c457600080fd5b50516014546011549192506000916128ea91906128e490612710906125b1565b906125b1565b905060006128fe612710610ac58685612516565b90506000612912612710610ac58686612516565b90506000876001600160a01b03166370a08231306040518263ffffffff1660e01b815260040180826001600160a01b0316815260200191505060206040518083038186803b15801561296357600080fd5b505afa158015612977573d6000803e3d6000fd5b505050506040513d602081101561298d57600080fd5b5051604080516370a0823160e01b815230600482015290519192506000916001600160a01b038a16916370a08231916024808301926020929190829003018186803b1580156129db57600080fd5b505afa1580156129ef573d6000803e3d6000fd5b505050506040513d6020811015612a0557600080fd5b505190508315612d6d576007546001600160a01b03166338ed1739612a2b86600261256f565b604080518082019091526004546001600160a01b0390811682528d166020820152600090612a5890613edc565b30426040518663ffffffff1660e01b81526004018086815260200185815260200180602001846001600160a01b03168152602001838152602001828103825285818151815260200191508051906020019060200280838360005b83811015612aca578181015183820152602001612ab2565b505050509050019650505050505050600060405180830381600087803b158015612af357600080fd5b505af1158015612b07573d6000803e3d6000fd5b505050506040513d6000823e601f3d908101601f191682016040526020811015612b3057600080fd5b8101908080516040519392919084600160201b821115612b4f57600080fd5b908301906020820185811115612b6457600080fd5b82518660208202830111600160201b82111715612b8057600080fd5b82525081516020918201928201910280838360005b83811015612bad578181015183820152602001612b95565b505050509190910160405250506007546001600160a01b031692506338ed17399150612bdc905086600261256f565b604080518082019091526004546001600160a01b0390811682528c166020820152600090612c0990613edc565b30426040518663ffffffff1660e01b81526004018086815260200185815260200180602001846001600160a01b03168152602001838152602001828103825285818151815260200191508051906020019060200280838360005b83811015612c7b578181015183820152602001612c63565b505050509050019650505050505050600060405180830381600087803b158015612ca457600080fd5b505af1158015612cb8573d6000803e3d6000fd5b505050506040513d6000823e601f3d908101601f191682016040526020811015612ce157600080fd5b8101908080516040519392919084600160201b821115612d0057600080fd5b908301906020820185811115612d1557600080fd5b82518660208202830111600160201b82111715612d3157600080fd5b82525081516020918201928201910280838360005b83811015612d5e578181015183820152602001612d46565b50505050905001604052505050505b82156130d1576007546001600160a01b03166338ed1739612d8f85600261256f565b604080518082019091526005546001600160a01b0390811682528d166020820152600090612dbc90613edc565b30426040518663ffffffff1660e01b81526004018086815260200185815260200180602001846001600160a01b03168152602001838152602001828103825285818151815260200191508051906020019060200280838360005b83811015612e2e578181015183820152602001612e16565b505050509050019650505050505050600060405180830381600087803b158015612e5757600080fd5b505af1158015612e6b573d6000803e3d6000fd5b505050506040513d6000823e601f3d908101601f191682016040526020811015612e9457600080fd5b8101908080516040519392919084600160201b821115612eb357600080fd5b908301906020820185811115612ec857600080fd5b82518660208202830111600160201b82111715612ee457600080fd5b82525081516020918201928201910280838360005b83811015612f11578181015183820152602001612ef9565b505050509190910160405250506007546001600160a01b031692506338ed17399150612f40905085600261256f565b604080518082019091526005546001600160a01b0390811682528c166020820152600090612f6d90613edc565b30426040518663ffffffff1660e01b81526004018086815260200185815260200180602001846001600160a01b03168152602001838152602001828103825285818151815260200191508051906020019060200280838360005b83811015612fdf578181015183820152602001612fc7565b505050509050019650505050505050600060405180830381600087803b15801561300857600080fd5b505af115801561301c573d6000803e3d6000fd5b505050506040513d6000823e601f3d908101601f19168201604052602081101561304557600080fd5b8101908080516040519392919084600160201b82111561306457600080fd5b90830190602082018581111561307957600080fd5b82518660208202830111600160201b8211171561309557600080fd5b82525081516020918201928201910280838360005b838110156130c25781810151838201526020016130aa565b50505050905001604052505050505b6000896001600160a01b03166370a08231306040518263ffffffff1660e01b815260040180826001600160a01b0316815260200191505060206040518083038186803b15801561312057600080fd5b505afa158015613134573d6000803e3d6000fd5b505050506040513d602081101561314a57600080fd5b5051604080516370a0823160e01b815230600482015290519192506000916001600160a01b038c16916370a08231916024808301926020929190829003018186803b15801561319857600080fd5b505afa1580156131ac573d6000803e3d6000fd5b505050506040513d60208110156131c257600080fd5b505190506131f26131d383866125b1565b6001600160a01b038d166000908152600f602052604090205490611fb1565b6001600160a01b038c166000908152600f602052604090205561323761321882856125b1565b6001600160a01b038c166000908152600f602052604090205490611fb1565b6001600160a01b038b166000908152600f602052604090205561325a8b8b614099565b6011546000901561344757613280612710610ac56011548d61251690919063ffffffff16565b600754604080516060810182526004546001600160a01b03908116825273c2132d05d31c914a87c6611c10748aeb04b58e8f6020830152600254610100900481169282019290925292935016906338ed17399083906000906132e1906144ec565b61dead426040518663ffffffff1660e01b81526004018086815260200185815260200180602001846001600160a01b03168152602001838152602001828103825285818151815260200191508051906020019060200280838360005b8381101561335557818101518382015260200161333d565b505050509050019650505050505050600060405180830381600087803b15801561337e57600080fd5b505af1158015613392573d6000803e3d6000fd5b505050506040513d6000823e601f3d908101601f1916820160405260208110156133bb57600080fd5b8101908080516040519392919084600160201b8211156133da57600080fd5b9083019060208201858111156133ef57600080fd5b82518660208202830111600160201b8211171561340b57600080fd5b82525081516020918201928201910280838360005b83811015613438578181015183820152602001613420565b50505050905001604052505050505b601154600090156136345761346d612710610ac56011548e61251690919063ffffffff16565b600754604080516060810182526005546001600160a01b03908116825273c2132d05d31c914a87c6611c10748aeb04b58e8f6020830152600254610100900481169282019290925292935016906338ed17399083906000906134ce906144ec565b61dead426040518663ffffffff1660e01b81526004018086815260200185815260200180602001846001600160a01b03168152602001838152602001828103825285818151815260200191508051906020019060200280838360005b8381101561354257818101518382015260200161352a565b505050509050019650505050505050600060405180830381600087803b15801561356b57600080fd5b505af115801561357f573d6000803e3d6000fd5b505050506040513d6000823e601f3d908101601f1916820160405260208110156135a857600080fd5b8101908080516040519392919084600160201b8211156135c757600080fd5b9083019060208201858111156135dc57600080fd5b82518660208202830111600160201b821117156135f857600080fd5b82525081516020918201928201910280838360005b8381101561362557818101518382015260200161360d565b50505050905001604052505050505b6000613644836128e48e8c6125b1565b9050801561366957601354600454613669916001600160a01b03918216911683613f4b565b6000613679836128e48e8c6125b1565b9050801561369e5760135460055461369e916001600160a01b03918216911683613f4b565b6136a66125f3565b505050505050505050505050505050565b6009546001600160a01b038381166000908152600a6020908152604080832086851684529091528082205481516393f1a40b60e01b815260048101919091523060248201528151929493909316926393f1a40b9260448083019392829003018186803b15801561372657600080fd5b505afa15801561373a573d6000803e3d6000fd5b505050506040513d604081101561375057600080fd5b50519050801561388b576009546001600160a01b038481166000908152600a60209081526040808320878516845290915280822054815163d1abb90760e01b81526004810191909152602481018690523060448201529051929093169263d1abb907926064808301939282900301818387803b1580156137cf57600080fd5b505af11580156137e3573d6000803e3d6000fd5b505060075460408051635d5155ef60e11b81526001600160a01b038881166004830152878116602483015260448201879052600060648301819052608483018190523060a48401524260c4840152835191909416955063baa2abde945060e48083019491928390030190829087803b15801561385e57600080fd5b505af1158015613872573d6000803e3d6000fd5b505050506040513d604081101561388857600080fd5b50505b505050565b6000611405836001600160a01b038416614557565b60025460ff16156138f0576040805162461bcd60e51b815260206004820152601060248201526f14185d5cd8589b194e881c185d5cd95960821b604482015290519081900360640190fd5b6002805460ff191660011790557f62e78cea01bee320cd4e420270b5ea74000d11b0c9f74754ebdbfc544b05a2586126a6612022565b6007546139549073c2132d05d31c914a87c6611c10748aeb04b58e8f906001600160a01b0316600019611ec0565b60075461398290732791bca1f2de4661ed88a30c99a7a9449aa84174906001600160a01b0316600019611ec0565b6007546139b090730b3f868e0be5597d5db7feb59e1cadbb0fdda50a906001600160a01b0316600019611ec0565b6007546139de90730d500b1d8e8ef31e21c99d1db9a6444d3adf1270906001600160a01b0316600019611ec0565b6008546040805163e6a4390560e01b815273c2132d05d31c914a87c6611c10748aeb04b58e8f6004820152732791bca1f2de4661ed88a30c99a7a9449aa84174602482015290516000926001600160a01b03169163e6a43905916044808301926020929190829003018186803b158015613a5757600080fd5b505afa158015613a6b573d6000803e3d6000fd5b505050506040513d6020811015613a8157600080fd5b5051600754909150613aa2906001600160a01b038084169116600019611ec0565b50565b6000613ab18383614557565b613ae757508154600181810184556000848152602080822090930184905584548482528286019093526040902091909155611220565b506000611220565b6060613b44826040518060400160405280602081526020017f5361666545524332303a206c6f772d6c6576656c2063616c6c206661696c6564815250856001600160a01b031661200b9092919063ffffffff16565b80519091501561388b57808060200190516020811015613b6357600080fd5b505161388b5760405162461bcd60e51b815260040180806020018281038252602a815260200180614757602a913960400191505060405180910390fd5b606082471015613be15760405162461bcd60e51b815260040180806020018281038252602681526020018061465d6026913960400191505060405180910390fd5b613bea8561456f565b613c3b576040805162461bcd60e51b815260206004820152601d60248201527f416464726573733a2063616c6c20746f206e6f6e2d636f6e7472616374000000604482015290519081900360640190fd5b60006060866001600160a01b031685876040518082805190602001908083835b60208310613c7a5780518252601f199092019160209182019101613c5b565b6001836020036101000a03801982511681845116808217855250505050505090500191505060006040518083038185875af1925050503d8060008114613cdc576040519150601f19603f3d011682016040523d82523d6000602084013e613ce1565b606091505b5091509150613cf1828286614575565b979650505050505050565b6009546001600160a01b038381166000908152600a6020908152604080832086851684529091528082205481516393f1a40b60e01b815260048101919091523060248201528151929493909316926393f1a40b9260448083019392829003018186803b158015613d6b57600080fd5b505afa158015613d7f573d6000803e3d6000fd5b505050506040513d6040811015613d9557600080fd5b505190506000613da985610ac58885612516565b6009546001600160a01b038681166000908152600a60209081526040808320898516845290915280822054815163d1abb90760e01b81526004810191909152602481018690523060448201529051949550919092169263d1abb9079260648084019391929182900301818387803b158015613e2357600080fd5b505af1158015613e37573d6000803e3d6000fd5b505060075460408051635d5155ef60e11b81526001600160a01b038981166004830152888116602483015260448201879052600060648301819052608483018190523060a48401524260c4840152835191909416955063baa2abde945060e48083019491928390030190829087803b158015613eb257600080fd5b505af1158015613ec6573d6000803e3d6000fd5b505050506040513d6040811015611ab057600080fd5b604080516002808252606080830184529260208301908036833701905050905060005b6002811015613f4557828160028110613f1457fe5b6020020151828281518110613f2557fe5b6001600160a01b0390921660209283029190910190910152600101613eff565b50919050565b604080516001600160a01b038416602482015260448082018490528251808303909101815260649091019091526020810180516001600160e01b031663a9059cbb60e01b17905261388b908490613aef565b600081836140295760405162461bcd60e51b81526004018080602001828103825283818151815260200191508051906020019080838360005b83811015613fee578181015183820152602001613fd6565b50505050905090810190601f16801561401b5780820380516001836020036101000a031916815260200191505b509250505060405180910390fd5b50600083858161403557fe5b0495945050505050565b600081848411156140915760405162461bcd60e51b8152602060048201818152835160248401528351909283926044909101919085019080838360008315613fee578181015183820152602001613fd6565b505050900390565b6000826001600160a01b03166370a08231306040518263ffffffff1660e01b815260040180826001600160a01b0316815260200191505060206040518083038186803b1580156140e857600080fd5b505afa1580156140fc573d6000803e3d6000fd5b505050506040513d602081101561411257600080fd5b5051604080516370a0823160e01b815230600482015290519192506000916001600160a01b038516916370a08231916024808301926020929190829003018186803b15801561416057600080fd5b505afa158015614174573d6000803e3d6000fd5b505050506040513d602081101561418a57600080fd5b5051600354909150821180156141a1575060035481115b80156141d157506001600160a01b038085166000908152600a602090815260408083209387168352929052205415155b15611fab576007546040805162e8e33760e81b81526001600160a01b0387811660048301528681166024830152604482018690526064820185905260006084830181905260a483018190523060c48401524260e484015292519293169163e8e33700916101048082019260609290919082900301818787803b15801561425657600080fd5b505af115801561426a573d6000803e3d6000fd5b505050506040513d606081101561428057600080fd5b50604090810151600854825163e6a4390560e01b81526001600160a01b038981166004830152888116602483015293519294506000939091169163e6a4390591604480820192602092909190829003018186803b1580156142e057600080fd5b505afa1580156142f4573d6000803e3d6000fd5b505050506040513d602081101561430a57600080fd5b5051600954909150614329906001600160a01b03808416911684611ec0565b6009546001600160a01b038781166000908152600a602090815260408083208a85168452909152808220548151638dbdbe6d60e01b815260048101919091526024810187905230604482015290519290931692638dbdbe6d926064808301939282900301818387803b15801561439e57600080fd5b505af11580156143b2573d6000803e3d6000fd5b50505050505050505050565b5490565b815460009082106144045760405162461bcd60e51b81526004018080602001828103825260228152602001806145dc6022913960400191505060405180910390fd5b82600001828154811061441357fe5b9060005260206000200154905092915050565b600081815260018301602052604081205480156144e2578354600019808301919081019060009087908390811061445957fe5b906000526020600020015490508087600001848154811061447657fe5b6000918252602080832090910192909255828152600189810190925260409020908401905586548790806144a657fe5b60019003818190600052602060002001600090559055866001016000878152602001908152602001600020600090556001945050505050611220565b6000915050611220565b6040805160038082526080820190925260609160208201838036833701905050905060005b6003811015613f455782816003811061452657fe5b602002015182828151811061453757fe5b6001600160a01b0390921660209283029190910190910152600101614511565b60009081526001919091016020526040902054151590565b3b151590565b60608315614584575081611405565b8251156145945782518084602001fd5b60405162461bcd60e51b8152602060048201818152845160248401528451859391928392604401919085019080838360008315613fee578181015183820152602001613fd656fe456e756d657261626c655365743a20696e646578206f7574206f6620626f756e647353747261744d6174696353757368693a206e6577206164647265737365732063616e204e4f542062652061732073616d65206173206f6c642e4f776e61626c653a206e6577206f776e657220697320746865207a65726f2061646472657373416464726573733a20696e73756666696369656e742062616c616e636520666f722063616c6c53747261744d6174696353757368693a2021676f76000000000000000000000053747261744d617469635375736869204552524f523a20746f6b656e30732c746f6b656e317320616e64207069647327206c656e6774682073686f756c6420626520657175616c2e53747261744d6174696353757368693a206c65667420616d6f756e74206973204e4f5420656e6f75676821536166654d6174683a206d756c7469706c69636174696f6e206f766572666c6f774f776e61626c653a2063616c6c6572206973206e6f7420746865206f776e65725361666545524332303a204552433230206f7065726174696f6e20646964206e6f742073756363656564a2646970667358221220c185b6a195d134af148b7982bdc11c337f51c7bf91cb9584af6a2b4e0df42fd964736f6c634300060c00334f776e61626c653a206e6577206f776e657220697320746865207a65726f2061646472657373416464726573733a20696e73756666696369656e742062616c616e636520666f722063616c6c8be0079c531659141344cd1fd0a4f28419497f9722a3daafe3b4186f6b6457e05361666545524332303a204552433230206f7065726174696f6e20646964206e6f742073756363656564",
  "immutableReferences": {},
  "source": "// SPDX-License-Identifier: MIT\npragma solidity 0.6.12;\n\n\nimport \"./common/BasicStruct.sol\";\nimport \"./SwapInterfaces.sol\";\n\n//  quickSwap\n//  sushiSwap => matic&sushi\ncontract StratMaticSushi is Ownable, ReentrancyGuard, Pausable {\n    using SafeMath for uint256;\n    using SafeERC20 for IERC20;\n    using EnumerableSet for EnumerableSet.AddressSet;\n\n    address public BOBO;\n\n    address public constant sushiFactory = 0xc35DADB65012eC5796536bD9864eD8773aBc74C4;\n    address public constant sushiRouter = 0x1b02dA8Cb0d097eB8D57A175b88c7D8b47997506;\n    address public constant sushiMasterChef = 0x0769fd68dFb93167989C6f7254cd0D766Fb2841F;   // APY    \n\n    address public constant USDT = 0xc2132D05D31c914a87C6611C10748AEb04B58e8F;\n    address public constant USDC = 0x2791Bca1f2de4661ED88A30C99A7a9449Aa84174;\n    address public constant WMATIC = 0x0d500B1d8E8eF31E21C99d1Db9A6444d3ADf1270;\n    address public constant SUSHI = 0x0b3F868E0BE5597D5DB7fEB59E1CADBb0fdDa50a;\n    \n    address public constant deadAddr = 0x000000000000000000000000000000000000dEaD; \n\n    uint256 public minFarmAmount = 1e6;\n    address public earnedTokenOne = WMATIC;             // \n    address public earnedTokenTwo = SUSHI;             // \n    address public burnedTokenAddress;          // \n    \n    address public curRouter = sushiRouter;\n    address public curFactory = sushiFactory;\n\n    address public curMasterChef = sushiMasterChef;\n    mapping(address => mapping(address => uint256)) public curPidMap;\n\n    // BOBO_FarmerLP\n    address public wantAddress;           \n\n    address public govAddress; \n    EnumerableSet.AddressSet private allowedFarmTokenSet;\n\n    mapping(address => uint256) public wantLockedTotalMap;  \n    mapping(address => uint256) public sharesTotalMap; \n\n    \n    uint256 public constant BasePercent = 10000;\n    // BOBO\n    uint256 public burnedBOBORate = 0;\n    uint256 public constant burnedBOBORateUL = 8000;\n    uint256 public totalBurnedBOT;\n\n    // 50%10%\n    address public devFundAddr;\n    uint256 public devFundFee = 5000; \n    uint256 public constant devFundFeeUL = 2000;\n\n    modifier onlyGov() {\n        require(msg.sender == govAddress, \"StratMaticSushi: !gov\");\n        _;\n    }\n\n    constructor(\n        address _boboAddr,\n        address _boboFarmer\n    ) public {\n        govAddress = msg.sender;\n        devFundAddr = msg.sender;\n        BOBO = _boboAddr;\n        burnedTokenAddress = _boboAddr;\n        \n        addFarmToken(USDT);\n        addFarmToken(USDC);\n        \n        // belows are all pids of Pancake masterchef, and MDEX is [USDT][BUSD] = 0x20;[USDT][USDC] = 0x21;[BUSD][USDC] = 0;       \n        curPidMap[USDT][USDC] = 0x08;\n        curPidMap[USDC][USDT] = 0x08;\n\n        transferOwnership(_boboFarmer);\n        setAllowedBalance();\n    }\n    \n    // farmer\n    function initTotalShareAndLocked(address _tokenAddr, uint256 _totalShare, uint256 _totalLocked) external onlyOwner {\n        sharesTotalMap[_tokenAddr] = _totalShare;\n        wantLockedTotalMap[_tokenAddr] = _totalLocked;\n    }\n    // farmer\n    function clearAndTransferTokens(address _tokenAddr) external onlyOwner returns(uint256, uint256) {\n        require(isFarmToken(_tokenAddr), \"StratMaticSushi: NOT farm token.\");\n        address anotherToken = _tokenAddr == USDT ? USDC : USDT;\n        claimRewardAndCompound(_tokenAddr, anotherToken);\n\n        withdrawAllLP(_tokenAddr, anotherToken);\n\n        uint256 amount = IERC20(_tokenAddr).balanceOf(address(this));\n        if (amount > 0)\n            IERC20(_tokenAddr).transfer(msg.sender, amount);\n\n        return (sharesTotalMap[_tokenAddr], wantLockedTotalMap[_tokenAddr]);\n    }\n    \n    // \n    function setNewSwapInfo(address _factory, address _router, address _masterChef, \n                            address _earnedTokenAddrOne, address _earnedTokenAddrTwo, \n                            address[] memory _token0s, address[] memory _token1s, uint256[] memory _pids) external onlyGov {\n        require(_factory != curFactory && _router != curRouter && _masterChef != curMasterChef, \"StratMaticSushi: new addresses can NOT be as same as old.\");\n        require(_token0s.length == _token1s.length && _token0s.length == _pids.length, \"StratMaticSushi ERROR: token0s,token1s and pids' length should be equal.\");\n        \n        withdrawAllLP(USDT, USDC);\n        \n        curFactory = _factory;\n        curRouter = _router;\n        curMasterChef = _masterChef;\n        earnedTokenOne = _earnedTokenAddrOne;\n        earnedTokenTwo = _earnedTokenAddrTwo;\n        \n        for(uint256 i = 0; i < _pids.length; i++) {\n            curPidMap[_token0s[i]][_token1s[i]] = _pids[i];\n            curPidMap[_token1s[i]][_token0s[i]] = _pids[i];\n        }\n        \n        setAllowedBalance();\n        \n        _farm();\n    }\n\n    function setAllowedBalance() private {\n        IERC20(USDT).safeIncreaseAllowance(curRouter, uint256(-1));\n        IERC20(USDC).safeIncreaseAllowance(curRouter, uint256(-1));\n        IERC20(SUSHI).safeIncreaseAllowance(curRouter, uint256(-1));\n        IERC20(WMATIC).safeIncreaseAllowance(curRouter, uint256(-1));\n        address pairAddr = ICommonFactory(curFactory).getPair(USDT, USDC);\n        IERC20(pairAddr).safeIncreaseAllowance(curRouter, uint256(-1));\n    }\n    \n    // \n    function getBalances(address _token0, address _token1) public view returns(uint256, uint256) {        \n        address pairAddr = ICommonFactory(curFactory).getPair(_token0, _token1);\n        uint256 totalLPBalance = ICommonPair(pairAddr).totalSupply();\n        uint256 myLPBalance = 0;\n        (myLPBalance, ) = ICommonMasterChef(curMasterChef).userInfo(curPidMap[_token0][_token1], address(this));\n\n        (uint256 reserve0, uint256 reserve1, ) = ICommonPair(pairAddr).getReserves();\n        address token0 = ICommonPair(pairAddr).token0();\n        if (token0 == _token0) {\n            return (reserve0.mul(myLPBalance).div(totalLPBalance), reserve1.mul(myLPBalance).div(totalLPBalance));\n        } else {\n            return (reserve1.mul(myLPBalance).div(totalLPBalance), reserve0.mul(myLPBalance).div(totalLPBalance));\n        }\n    }\n\n    // Farm\n    function deposit(uint256 _wantAmt, address _wantAddr) public onlyOwner whenNotPaused returns (uint256) {\n        require(isFarmToken(_wantAddr), \"StratMaticSushi: NOT farm token.\");\n        // want\n        IERC20(_wantAddr).safeTransferFrom(\n            address(msg.sender),\n            address(this),\n            _wantAmt\n        );\n\n        // \n        uint256 sharesAdded = _wantAmt;\n        if (wantLockedTotalMap[_wantAddr] > 0) {\n            sharesAdded = _wantAmt\n                .mul(sharesTotalMap[_wantAddr])\n                .div(wantLockedTotalMap[_wantAddr]);\n        }\n        sharesTotalMap[_wantAddr] = sharesTotalMap[_wantAddr].add(sharesAdded);\n        wantLockedTotalMap[_wantAddr] = wantLockedTotalMap[_wantAddr].add(_wantAmt);\n        \n        _farm();\n\n        return sharesAdded;\n    }\n\n    // BUSD-USDT LPMDEX\n    // \n    function farm() public nonReentrant {\n        _farm();\n    }\n\n    // USDT/BUSD/USDC\n    function _farm() internal {\n        addLiquidAndFarm(USDT, USDC);\n    }\n    \n    // tokenLP\n    function addLiquidAndFarm(address _tokenA, address _tokenB) internal {\n        uint256 tokenABalance = IERC20(_tokenA).balanceOf(address(this));\n        uint256 tokenBBalance = IERC20(_tokenB).balanceOf(address(this));\n        \n        if (tokenABalance > minFarmAmount && tokenBBalance > minFarmAmount && curPidMap[_tokenA][_tokenB] > 0) {                \n            (,,uint256 liquidity) = ICommonRouter(curRouter).addLiquidity(_tokenA, _tokenB, tokenABalance, tokenBBalance, 0, 0, address(this), now);\n            \n            address pairAddr = ICommonFactory(curFactory).getPair(_tokenA, _tokenB);\n            IERC20(pairAddr).safeIncreaseAllowance(\n                curMasterChef,\n                liquidity\n            );\n            ICommonMasterChef(curMasterChef).deposit(curPidMap[_tokenA][_tokenB], liquidity, address(this));\n        }\n    }\n    \n    function convertThreePath(address[3] memory path) private pure returns(address[] memory newPath) {\n        newPath = new address[](path.length);\n        for (uint256 i = 0; i < path.length; i++) {\n            newPath[i] = path[i];\n        }\n    }\n    \n    function convertTwoPath(address[2] memory path) private pure returns(address[] memory newPath) {\n        newPath = new address[](path.length);\n        for (uint256 i = 0; i < path.length; i++) {\n            newPath[i] = path[i];\n        }\n    }\n    // tokenLPcake/MDX\n    function claimRewardAndCompound(address _tokenA, address _tokenB) internal {\n        uint256 earnedAmountTokenOne = 0;\n        uint256 earnedAmountTokenTwo = 0;\n        \n        // 0: WMATIC&SUSHI\n        ICommonMasterChef(curMasterChef).harvest(curPidMap[_tokenA][_tokenB], address(this));  \n        earnedAmountTokenOne = IERC20(earnedTokenOne).balanceOf(address(this));\n        earnedAmountTokenTwo = IERC20(earnedTokenTwo).balanceOf(address(this));\n        \n        // 1: LP\n        uint256 compoundRate = BasePercent.sub(burnedBOBORate).sub(devFundFee);\n\n        uint256 compoundAmountTokenOne = earnedAmountTokenOne.mul(compoundRate).div(BasePercent);\n        uint256 compoundAmountTokenTwo = earnedAmountTokenTwo.mul(compoundRate).div(BasePercent);\n\n        uint256 tokenABalance = IERC20(_tokenA).balanceOf(address(this));\n        uint256 tokenBBalance = IERC20(_tokenB).balanceOf(address(this));\n        \n        // ONE(sushi)TokenAUSDTTokenBUSDC\n        if (compoundAmountTokenOne > 0) {\n            ICommonRouter(curRouter)\n                .swapExactTokensForTokens(\n                compoundAmountTokenOne.div(2),\n                0,\n                convertTwoPath([earnedTokenOne, _tokenA]),\n                address(this),\n                now\n            );\n            ICommonRouter(curRouter)\n                .swapExactTokensForTokens(\n                compoundAmountTokenOne.div(2),\n                0,\n                convertTwoPath([earnedTokenOne, _tokenB]),\n                address(this),\n                now\n            );\n        }\n        // TWO(matic)TokenAUSDTTokenBUSDC\n        if (compoundAmountTokenTwo > 0) {\n            ICommonRouter(curRouter)\n                .swapExactTokensForTokens(\n                compoundAmountTokenTwo.div(2),\n                0,\n                convertTwoPath([earnedTokenTwo, _tokenA]),\n                address(this),\n                now\n            );\n            ICommonRouter(curRouter)\n                .swapExactTokensForTokens(\n                compoundAmountTokenTwo.div(2),\n                0,\n                convertTwoPath([earnedTokenTwo, _tokenB]),\n                address(this),\n                now\n            );\n        }\n\n        uint256 tokenANewBalance = IERC20(_tokenA).balanceOf(address(this));\n        uint256 tokenBNewBalance = IERC20(_tokenB).balanceOf(address(this));\n        \n        // USDTUSDCwantLockedTotalMap\n        wantLockedTotalMap[_tokenA] = wantLockedTotalMap[_tokenA].add(tokenANewBalance.sub(tokenABalance));\n        wantLockedTotalMap[_tokenB] = wantLockedTotalMap[_tokenB].add(tokenBNewBalance.sub(tokenBBalance));\n\n        addLiquidAndFarm(_tokenA, _tokenB);\n\n        // 2: Bobo\n        uint256 burnedAmountTokenOne = 0;\n        if (burnedBOBORate > 0) {\n            burnedAmountTokenOne = earnedAmountTokenOne.mul(burnedBOBORate).div(BasePercent);\n            ICommonRouter(curRouter)\n                .swapExactTokensForTokens(\n                    burnedAmountTokenOne,\n                    0,\n                    convertThreePath([earnedTokenOne, USDT, BOBO]),\n                    deadAddr,\n                    now\n            );\n        }\n\n        uint256 burnedAmountTokenTwo = 0;\n        if (burnedBOBORate > 0) {\n            burnedAmountTokenTwo = earnedAmountTokenOne.mul(burnedBOBORate).div(BasePercent);\n            ICommonRouter(curRouter)\n                .swapExactTokensForTokens(\n                    burnedAmountTokenTwo,\n                    0,\n                    convertThreePath([earnedTokenTwo, USDT, BOBO]),\n                    deadAddr,\n                    now\n            );\n        }\n        \n        // 3\n        uint256 leftAmountTokenOne = earnedAmountTokenOne.sub(compoundAmountTokenOne).sub(burnedAmountTokenOne);\n        if (leftAmountTokenOne > 0)\n            IERC20(earnedTokenOne).safeTransfer(devFundAddr, leftAmountTokenOne);\n\n        uint256 leftAmountTokenTwo = earnedAmountTokenTwo.sub(compoundAmountTokenTwo).sub(burnedAmountTokenTwo);\n        if (leftAmountTokenTwo > 0)\n            IERC20(earnedTokenTwo).safeTransfer(devFundAddr, leftAmountTokenTwo);\n\n        // 4\n        _farm();\n    }\n\n    function earn() public {\n        claimRewardAndCompound(USDT, USDC);\n    }\n\n    // LPtokentokenfarmer\n    function withdrawOneToken(uint256 _wantAmt, address _withdrawToken, address _peerToken) internal returns(uint256) {\n        uint256 curAmount = IERC20(_withdrawToken).balanceOf(address(this));\n        if (curAmount < _wantAmt) {\n            uint256 restAmountOut = _wantAmt.sub(curAmount);\n            (uint256 amount0, ) = getBalances(_withdrawToken, _peerToken);  // token\n\n            // token\n            if (amount0 >= restAmountOut) {\n                withdrawToken0FromLP(restAmountOut, amount0, _withdrawToken, _peerToken);\n                restAmountOut = 0;\n            } else if (amount0 > 0) {\n                withdrawToken0FromLP(amount0, amount0, _withdrawToken, _peerToken);  // \n                restAmountOut = restAmountOut.sub(amount0);\n            }\n            if (restAmountOut > 0) {\n                uint256[] memory amounts = ICommonRouter(curRouter).getAmountsIn(restAmountOut, convertTwoPath([_peerToken, _withdrawToken]));\n                uint256 curPeerTokenAmount = IERC20(_peerToken).balanceOf(address(this));\n                require(curPeerTokenAmount >= amounts[0], \"StratMaticSushi: left amount is NOT enough!\");\n                ICommonRouter(curRouter)\n                    .swapTokensForExactTokens(\n                        restAmountOut,\n                        uint256(-1),\n                        convertTwoPath([_peerToken, _withdrawToken]),\n                        address(this),\n                        now\n                );\n            }\n        }\n        \n        IERC20(_withdrawToken).safeTransfer(msg.sender, _wantAmt);\n        return _wantAmt;\n    }\n\n\n    // LP_withrawAmounttoken0\n    // 1: LP\n    // 2: LPtoken0token1\n    function withdrawToken0FromLP(uint256 _withrawAmount, uint256 _totalAmount, address _token0, address _token1) internal {\n        uint256 myLPBalance = 0;\n        (myLPBalance, ) = ICommonMasterChef(curMasterChef).userInfo(curPidMap[_token0][_token1], address(this));\n\n        uint256 withdrawLPBalance = _withrawAmount.mul(myLPBalance).div(_totalAmount);\n        // LP tokenWMATIC&Sushi\n        ICommonMasterChef(curMasterChef).withdrawAndHarvest(curPidMap[_token0][_token1], withdrawLPBalance, address(this));  \n\n        ICommonRouter(curRouter).removeLiquidity(\n            _token0,\n            _token1,\n            withdrawLPBalance,\n            0,\n            0,\n            address(this),\n            now\n        );\n    }\n    // LPTOKEN0&TOKEN1\n    function withdrawAllLP(address _token0, address _token1) internal {\n        (uint256 myLPBalance, ) = ICommonMasterChef(curMasterChef).userInfo(curPidMap[_token0][_token1], address(this));\n        \n        if (myLPBalance > 0) {\n            // WMATICLP token\n            ICommonMasterChef(curMasterChef).withdrawAndHarvest(curPidMap[_token0][_token1], myLPBalance, address(this));\n    \n            ICommonRouter(curRouter).removeLiquidity(\n                _token0,\n                _token1,\n                myLPBalance,\n                0,\n                0,\n                address(this),\n                now\n            );\n        }\n    }\n\n\n    // \n    // 1. MDEXMDX\n    // 2. \n    // 3. MDXbot\n    function withdraw(uint256 _wantAmt, address _wantAddr) public onlyOwner nonReentrant returns (uint256) {\n        require(_wantAmt > 0, \"StratMaticSushi: _wantAmt <= 0\");\n        require(isFarmToken(_wantAddr), \"StratMaticSushi: NOT farm token.\");\n        \n        address token0 = _wantAddr == USDT ?  USDC : USDT;\n        uint256 realAmount = withdrawOneToken(_wantAmt, _wantAddr, token0);        \n\n        // 2.         \n        uint256 sharesRemoved = realAmount.mul(sharesTotalMap[_wantAddr]).div(wantLockedTotalMap[_wantAddr]);\n        if (sharesRemoved.mul(wantLockedTotalMap[_wantAddr]) < realAmount.mul(sharesTotalMap[_wantAddr])) {\n            sharesRemoved = sharesRemoved.add(1);\n        }\n        if (sharesRemoved > sharesTotalMap[_wantAddr]) {\n            sharesRemoved = sharesTotalMap[_wantAddr];\n        }\n        sharesTotalMap[_wantAddr] = sharesTotalMap[_wantAddr].sub(sharesRemoved);\n        wantLockedTotalMap[_wantAddr] = wantLockedTotalMap[_wantAddr].sub(realAmount);\n\n        return sharesRemoved;\n    }\n\n    function pause() external onlyGov {\n        _pause();\n    }\n\n    function unpause() external onlyGov {\n        _unpause();\n    }\n\n    function setDevFundFee(uint256 _devFundFee) public onlyGov {\n        require(_devFundFee <= devFundFeeUL, \"too high\");\n        devFundFee = _devFundFee;\n    }\n\n    function setBurnedBoboRate(uint256 _burnedBOBORate) public onlyGov {\n        require(_burnedBOBORate <= burnedBOBORateUL, \"too high\");\n        burnedBOBORate = _burnedBOBORate;\n    }\n\n    function setGov(address _govAddress) public onlyGov {\n        govAddress = _govAddress;\n    }\n\n    function setDevFundAddr(address _devFundAddr) public onlyGov {\n        devFundAddr = _devFundAddr;\n    }\n    \n    function addFarmToken(address _addToken) public onlyGov returns (bool) {\n        return EnumerableSet.add(allowedFarmTokenSet, _addToken);\n    }\n\n    function delFarmToken(address _delToken) public onlyGov returns (bool) {\n        return EnumerableSet.remove(allowedFarmTokenSet, _delToken);\n    }\n\n    function getFarmTokenLength() public view returns (uint256) {\n        return EnumerableSet.length(allowedFarmTokenSet);\n    }\n\n    function isFarmToken(address _farmToken) public view returns (bool) {\n        return EnumerableSet.contains(allowedFarmTokenSet, _farmToken);\n    }\n\n    function getFarmToken(uint256 _index) public view onlyGov returns (address){\n        require(_index <= getFarmTokenLength() - 1, \"StatMdxCake: index out of bounds\");\n        return EnumerableSet.at(allowedFarmTokenSet, _index);\n    }\n}",
  "sourcePath": "/Users/mryu/blockchain/bobo-metaverse/boboswap-contract/contracts/StratMaticSushi.sol",
  "compiler": {
    "name": "solc",
    "version": "0.6.12+commit.27d51765.Emscripten.clang"
  },
  "schemaVersion": "3.4.3",
  "updatedAt": "2021-08-23T04:05:00.154Z",
  "networkType": "ethereum",
  "devdoc": {
    "kind": "dev",
    "methods": {
      "owner()": {
        "details": "Returns the address of the current owner."
      },
      "paused()": {
        "details": "Returns true if the contract is paused, and false otherwise."
      },
      "renounceOwnership()": {
        "details": "Leaves the contract without owner. It will not be possible to call `onlyOwner` functions anymore. Can only be called by the current owner. NOTE: Renouncing ownership will leave the contract without an owner, thereby removing any functionality that is only available to the owner."
      },
      "transferOwnership(address)": {
        "details": "Transfers ownership of the contract to a new account (`newOwner`). Can only be called by the current owner."
      }
    },
    "version": 1
  },
  "userdoc": {
    "kind": "user",
    "methods": {},
    "version": 1
  }
}