{
  "contractName": "StratMaticSushi",
  "abi": [
    {
      "inputs": [
        {
          "internalType": "address",
          "name": "_boboAddr",
          "type": "address"
        },
        {
          "internalType": "address",
          "name": "_boboFarmer",
          "type": "address"
        }
      ],
      "stateMutability": "nonpayable",
      "type": "constructor"
    },
    {
      "anonymous": false,
      "inputs": [
        {
          "indexed": true,
          "internalType": "address",
          "name": "previousOwner",
          "type": "address"
        },
        {
          "indexed": true,
          "internalType": "address",
          "name": "newOwner",
          "type": "address"
        }
      ],
      "name": "OwnershipTransferred",
      "type": "event"
    },
    {
      "anonymous": false,
      "inputs": [
        {
          "indexed": false,
          "internalType": "address",
          "name": "account",
          "type": "address"
        }
      ],
      "name": "Paused",
      "type": "event"
    },
    {
      "anonymous": false,
      "inputs": [
        {
          "indexed": false,
          "internalType": "address",
          "name": "account",
          "type": "address"
        }
      ],
      "name": "Unpaused",
      "type": "event"
    },
    {
      "inputs": [],
      "name": "BOBO",
      "outputs": [
        {
          "internalType": "address",
          "name": "",
          "type": "address"
        }
      ],
      "stateMutability": "view",
      "type": "function"
    },
    {
      "inputs": [],
      "name": "BasePercent",
      "outputs": [
        {
          "internalType": "uint256",
          "name": "",
          "type": "uint256"
        }
      ],
      "stateMutability": "view",
      "type": "function"
    },
    {
      "inputs": [],
      "name": "SUSHI",
      "outputs": [
        {
          "internalType": "address",
          "name": "",
          "type": "address"
        }
      ],
      "stateMutability": "view",
      "type": "function"
    },
    {
      "inputs": [],
      "name": "USDC",
      "outputs": [
        {
          "internalType": "address",
          "name": "",
          "type": "address"
        }
      ],
      "stateMutability": "view",
      "type": "function"
    },
    {
      "inputs": [],
      "name": "USDT",
      "outputs": [
        {
          "internalType": "address",
          "name": "",
          "type": "address"
        }
      ],
      "stateMutability": "view",
      "type": "function"
    },
    {
      "inputs": [],
      "name": "WMATIC",
      "outputs": [
        {
          "internalType": "address",
          "name": "",
          "type": "address"
        }
      ],
      "stateMutability": "view",
      "type": "function"
    },
    {
      "inputs": [],
      "name": "burnedBOBORate",
      "outputs": [
        {
          "internalType": "uint256",
          "name": "",
          "type": "uint256"
        }
      ],
      "stateMutability": "view",
      "type": "function"
    },
    {
      "inputs": [],
      "name": "burnedBOBORateUL",
      "outputs": [
        {
          "internalType": "uint256",
          "name": "",
          "type": "uint256"
        }
      ],
      "stateMutability": "view",
      "type": "function"
    },
    {
      "inputs": [],
      "name": "burnedTokenAddress",
      "outputs": [
        {
          "internalType": "address",
          "name": "",
          "type": "address"
        }
      ],
      "stateMutability": "view",
      "type": "function"
    },
    {
      "inputs": [],
      "name": "curFactory",
      "outputs": [
        {
          "internalType": "address",
          "name": "",
          "type": "address"
        }
      ],
      "stateMutability": "view",
      "type": "function"
    },
    {
      "inputs": [],
      "name": "curMasterChef",
      "outputs": [
        {
          "internalType": "address",
          "name": "",
          "type": "address"
        }
      ],
      "stateMutability": "view",
      "type": "function"
    },
    {
      "inputs": [
        {
          "internalType": "address",
          "name": "",
          "type": "address"
        },
        {
          "internalType": "address",
          "name": "",
          "type": "address"
        }
      ],
      "name": "curPidMap",
      "outputs": [
        {
          "internalType": "uint256",
          "name": "",
          "type": "uint256"
        }
      ],
      "stateMutability": "view",
      "type": "function"
    },
    {
      "inputs": [],
      "name": "curRouter",
      "outputs": [
        {
          "internalType": "address",
          "name": "",
          "type": "address"
        }
      ],
      "stateMutability": "view",
      "type": "function"
    },
    {
      "inputs": [],
      "name": "deadAddr",
      "outputs": [
        {
          "internalType": "address",
          "name": "",
          "type": "address"
        }
      ],
      "stateMutability": "view",
      "type": "function"
    },
    {
      "inputs": [],
      "name": "devFundAddr",
      "outputs": [
        {
          "internalType": "address",
          "name": "",
          "type": "address"
        }
      ],
      "stateMutability": "view",
      "type": "function"
    },
    {
      "inputs": [],
      "name": "devFundFee",
      "outputs": [
        {
          "internalType": "uint256",
          "name": "",
          "type": "uint256"
        }
      ],
      "stateMutability": "view",
      "type": "function"
    },
    {
      "inputs": [],
      "name": "devFundFeeUL",
      "outputs": [
        {
          "internalType": "uint256",
          "name": "",
          "type": "uint256"
        }
      ],
      "stateMutability": "view",
      "type": "function"
    },
    {
      "inputs": [],
      "name": "earnedTokenOne",
      "outputs": [
        {
          "internalType": "address",
          "name": "",
          "type": "address"
        }
      ],
      "stateMutability": "view",
      "type": "function"
    },
    {
      "inputs": [],
      "name": "earnedTokenTwo",
      "outputs": [
        {
          "internalType": "address",
          "name": "",
          "type": "address"
        }
      ],
      "stateMutability": "view",
      "type": "function"
    },
    {
      "inputs": [],
      "name": "govAddress",
      "outputs": [
        {
          "internalType": "address",
          "name": "",
          "type": "address"
        }
      ],
      "stateMutability": "view",
      "type": "function"
    },
    {
      "inputs": [],
      "name": "minFarmAmount",
      "outputs": [
        {
          "internalType": "uint256",
          "name": "",
          "type": "uint256"
        }
      ],
      "stateMutability": "view",
      "type": "function"
    },
    {
      "inputs": [],
      "name": "owner",
      "outputs": [
        {
          "internalType": "address",
          "name": "",
          "type": "address"
        }
      ],
      "stateMutability": "view",
      "type": "function"
    },
    {
      "inputs": [],
      "name": "paused",
      "outputs": [
        {
          "internalType": "bool",
          "name": "",
          "type": "bool"
        }
      ],
      "stateMutability": "view",
      "type": "function"
    },
    {
      "inputs": [],
      "name": "renounceOwnership",
      "outputs": [],
      "stateMutability": "nonpayable",
      "type": "function"
    },
    {
      "inputs": [
        {
          "internalType": "address",
          "name": "",
          "type": "address"
        }
      ],
      "name": "sharesTotalMap",
      "outputs": [
        {
          "internalType": "uint256",
          "name": "",
          "type": "uint256"
        }
      ],
      "stateMutability": "view",
      "type": "function"
    },
    {
      "inputs": [],
      "name": "sushiFactory",
      "outputs": [
        {
          "internalType": "address",
          "name": "",
          "type": "address"
        }
      ],
      "stateMutability": "view",
      "type": "function"
    },
    {
      "inputs": [],
      "name": "sushiMasterChef",
      "outputs": [
        {
          "internalType": "address",
          "name": "",
          "type": "address"
        }
      ],
      "stateMutability": "view",
      "type": "function"
    },
    {
      "inputs": [],
      "name": "sushiRouter",
      "outputs": [
        {
          "internalType": "address",
          "name": "",
          "type": "address"
        }
      ],
      "stateMutability": "view",
      "type": "function"
    },
    {
      "inputs": [],
      "name": "totalBurnedBOT",
      "outputs": [
        {
          "internalType": "uint256",
          "name": "",
          "type": "uint256"
        }
      ],
      "stateMutability": "view",
      "type": "function"
    },
    {
      "inputs": [
        {
          "internalType": "address",
          "name": "newOwner",
          "type": "address"
        }
      ],
      "name": "transferOwnership",
      "outputs": [],
      "stateMutability": "nonpayable",
      "type": "function"
    },
    {
      "inputs": [],
      "name": "wantAddress",
      "outputs": [
        {
          "internalType": "address",
          "name": "",
          "type": "address"
        }
      ],
      "stateMutability": "view",
      "type": "function"
    },
    {
      "inputs": [
        {
          "internalType": "address",
          "name": "",
          "type": "address"
        }
      ],
      "name": "wantLockedTotalMap",
      "outputs": [
        {
          "internalType": "uint256",
          "name": "",
          "type": "uint256"
        }
      ],
      "stateMutability": "view",
      "type": "function"
    },
    {
      "inputs": [
        {
          "internalType": "address",
          "name": "_tokenAddr",
          "type": "address"
        },
        {
          "internalType": "uint256",
          "name": "_totalShare",
          "type": "uint256"
        },
        {
          "internalType": "uint256",
          "name": "_totalLocked",
          "type": "uint256"
        }
      ],
      "name": "initTotalShareAndLocked",
      "outputs": [],
      "stateMutability": "nonpayable",
      "type": "function"
    },
    {
      "inputs": [
        {
          "internalType": "address",
          "name": "_tokenAddr",
          "type": "address"
        }
      ],
      "name": "clearAndTransferTokens",
      "outputs": [
        {
          "internalType": "uint256",
          "name": "",
          "type": "uint256"
        },
        {
          "internalType": "uint256",
          "name": "",
          "type": "uint256"
        }
      ],
      "stateMutability": "nonpayable",
      "type": "function"
    },
    {
      "inputs": [
        {
          "internalType": "address",
          "name": "_factory",
          "type": "address"
        },
        {
          "internalType": "address",
          "name": "_router",
          "type": "address"
        },
        {
          "internalType": "address",
          "name": "_masterChef",
          "type": "address"
        },
        {
          "internalType": "address",
          "name": "_earnedTokenAddrOne",
          "type": "address"
        },
        {
          "internalType": "address",
          "name": "_earnedTokenAddrTwo",
          "type": "address"
        },
        {
          "internalType": "address[]",
          "name": "_token0s",
          "type": "address[]"
        },
        {
          "internalType": "address[]",
          "name": "_token1s",
          "type": "address[]"
        },
        {
          "internalType": "uint256[]",
          "name": "_pids",
          "type": "uint256[]"
        }
      ],
      "name": "setNewSwapInfo",
      "outputs": [],
      "stateMutability": "nonpayable",
      "type": "function"
    },
    {
      "inputs": [
        {
          "internalType": "address",
          "name": "_token0",
          "type": "address"
        },
        {
          "internalType": "address",
          "name": "_token1",
          "type": "address"
        }
      ],
      "name": "getBalances",
      "outputs": [
        {
          "internalType": "uint256",
          "name": "",
          "type": "uint256"
        },
        {
          "internalType": "uint256",
          "name": "",
          "type": "uint256"
        }
      ],
      "stateMutability": "view",
      "type": "function"
    },
    {
      "inputs": [
        {
          "internalType": "uint256",
          "name": "_wantAmt",
          "type": "uint256"
        },
        {
          "internalType": "address",
          "name": "_wantAddr",
          "type": "address"
        }
      ],
      "name": "deposit",
      "outputs": [
        {
          "internalType": "uint256",
          "name": "",
          "type": "uint256"
        }
      ],
      "stateMutability": "nonpayable",
      "type": "function"
    },
    {
      "inputs": [],
      "name": "farm",
      "outputs": [],
      "stateMutability": "nonpayable",
      "type": "function"
    },
    {
      "inputs": [],
      "name": "earn",
      "outputs": [],
      "stateMutability": "nonpayable",
      "type": "function"
    },
    {
      "inputs": [
        {
          "internalType": "uint256",
          "name": "_wantAmt",
          "type": "uint256"
        },
        {
          "internalType": "address",
          "name": "_wantAddr",
          "type": "address"
        }
      ],
      "name": "withdraw",
      "outputs": [
        {
          "internalType": "uint256",
          "name": "",
          "type": "uint256"
        }
      ],
      "stateMutability": "nonpayable",
      "type": "function"
    },
    {
      "inputs": [],
      "name": "pause",
      "outputs": [],
      "stateMutability": "nonpayable",
      "type": "function"
    },
    {
      "inputs": [],
      "name": "unpause",
      "outputs": [],
      "stateMutability": "nonpayable",
      "type": "function"
    },
    {
      "inputs": [
        {
          "internalType": "uint256",
          "name": "_devFundFee",
          "type": "uint256"
        }
      ],
      "name": "setDevFundFee",
      "outputs": [],
      "stateMutability": "nonpayable",
      "type": "function"
    },
    {
      "inputs": [
        {
          "internalType": "uint256",
          "name": "_burnedBOBORate",
          "type": "uint256"
        }
      ],
      "name": "setBurnedBoboRate",
      "outputs": [],
      "stateMutability": "nonpayable",
      "type": "function"
    },
    {
      "inputs": [
        {
          "internalType": "address",
          "name": "_govAddress",
          "type": "address"
        }
      ],
      "name": "setGov",
      "outputs": [],
      "stateMutability": "nonpayable",
      "type": "function"
    },
    {
      "inputs": [
        {
          "internalType": "address",
          "name": "_devFundAddr",
          "type": "address"
        }
      ],
      "name": "setDevFundAddr",
      "outputs": [],
      "stateMutability": "nonpayable",
      "type": "function"
    },
    {
      "inputs": [
        {
          "internalType": "address",
          "name": "_addToken",
          "type": "address"
        }
      ],
      "name": "addFarmToken",
      "outputs": [
        {
          "internalType": "bool",
          "name": "",
          "type": "bool"
        }
      ],
      "stateMutability": "nonpayable",
      "type": "function"
    },
    {
      "inputs": [
        {
          "internalType": "address",
          "name": "_delToken",
          "type": "address"
        }
      ],
      "name": "delFarmToken",
      "outputs": [
        {
          "internalType": "bool",
          "name": "",
          "type": "bool"
        }
      ],
      "stateMutability": "nonpayable",
      "type": "function"
    },
    {
      "inputs": [],
      "name": "getFarmTokenLength",
      "outputs": [
        {
          "internalType": "uint256",
          "name": "",
          "type": "uint256"
        }
      ],
      "stateMutability": "view",
      "type": "function"
    },
    {
      "inputs": [
        {
          "internalType": "address",
          "name": "_farmToken",
          "type": "address"
        }
      ],
      "name": "isFarmToken",
      "outputs": [
        {
          "internalType": "bool",
          "name": "",
          "type": "bool"
        }
      ],
      "stateMutability": "view",
      "type": "function"
    },
    {
      "inputs": [
        {
          "internalType": "uint256",
          "name": "_index",
          "type": "uint256"
        }
      ],
      "name": "getFarmToken",
      "outputs": [
        {
          "internalType": "address",
          "name": "",
          "type": "address"
        }
      ],
      "stateMutability": "view",
      "type": "function"
    }
  ],
  "bytecode": "0x6080604052620f4240600355600480546001600160a01b0319908116730d500b1d8e8ef31e21c99d1db9a6444d3adf127017909155600580548216730b3f868e0be5597d5db7feb59e1cadbb0fdda50a179055600780548216731b02da8cb0d097eb8d57a175b88c7d8b4799750617905560088054821673c35dadb65012ec5796536bd9864ed8773abc74c417905560098054909116730769fd68dfb93167989c6f7254cd0d766fb2841f1790556000601155611f40601455348015620000c557600080fd5b50604051620046a6380380620046a683398181016040526040811015620000eb57600080fd5b50805160209091015160006200010062000259565b600080546001600160a01b0319166001600160a01b03831690811782556040519293509160008051602062004686833981519152908290a3506001805560028054600c80546001600160a01b031990811633179091556001600160a01b03851661010081026001600160a81b03199093169290921790925560068054909216179055620001a173c2132d05d31c914a87c6611c10748aeb04b58e8f6200025d565b50620001c1732791bca1f2de4661ed88a30c99a7a9449aa841746200025d565b5060087f0a3a08017c49ad668498c8ee5f94e1b27b01dd1c4a8943c33595d55475312b6081905573c2132d05d31c914a87c6611c10748aeb04b58e8f6000527f474004c7927b2560dd97c5daeafd0716bb5ab37068c353c099c4171ac04e85226020527fd4f88f3872da3c1ea3dc9d8a09c2badf7a7b6d96e99da64c5de886aa4b746116556200025181620002de565b505062000461565b3390565b600c546000906001600160a01b03163314620002c0576040805162461bcd60e51b815260206004820152601560248201527f53747261744d6174696353757368693a2021676f760000000000000000000000604482015290519081900360640190fd5b620002d8600d83620003dc60201b62001e471760201c565b92915050565b620002e862000259565b6000546001600160a01b039081169116146200034b576040805162461bcd60e51b815260206004820181905260248201527f4f776e61626c653a2063616c6c6572206973206e6f7420746865206f776e6572604482015290519081900360640190fd5b6001600160a01b038116620003925760405162461bcd60e51b8152600401808060200182810382526026815260200180620046606026913960400191505060405180910390fd5b600080546040516001600160a01b03808516939216916000805160206200468683398151915291a3600080546001600160a01b0319166001600160a01b0392909216919091179055565b6000620003f3836001600160a01b038416620003fa565b9392505050565b600062000408838362000449565b6200044057508154600181810184556000848152602080822090930184905584548482528286019093526040902091909155620002d8565b506000620002d8565b60009081526001919091016020526040902054151590565b6141ef80620004716000396000f3fe608060405234801561001057600080fd5b50600436106102f05760003560e01c80637d5bb2721161019d578063ab560e10116100e9578063cfad57a2116100a2578063ded335611161007c578063ded3356114610868578063e7a036791461088e578063f148691614610896578063f2fde38b1461089e576102f0565b8063cfad57a214610832578063d389800f14610858578063db22d39914610860576102f0565b8063ab560e10146107e4578063adb92d9c146107ec578063b51f01b2146107f4578063b635b8ae1461081a578063c54e44eb14610822578063c9bbd04a1461082a576102f0565b806390358db6116101565780639a0381cb116101305780639a0381cb146107c45780639eedc492146107cc578063a2eddfb8146107d4578063a5962524146107dc576102f0565b806390358db614610797578063937ab63a146107b4578063969ce1db146107bc576102f0565b80637d5bb272146105725780638456cb591461057a57806389a30271146105825780638b814ff81461058a5780638d3b5ed8146107615780638da5cb5b1461078f576102f0565b806346008a071161025c5780636e4ae94e11610215578063715018a6116101ef578063715018a614610516578063775379371461051e578063781c74d0146105445780637cdcd2fe1461056a576102f0565b80636e4ae94e146104a75780636e553f65146104c45780637068d3cf146104f0576102f0565b806346008a07146104635780634d95cad91461046b57806350f0522c146104735780635c975abb1461047b5780636bba77d0146104975780636d13582c1461049f576102f0565b80630e7e2dd9116102ae5780630e7e2dd91461040057806314e6ac091461040857806322984b24146104255780632321b3ca1461042d57806336e9332d146104535780633f4ba83a1461045b576102f0565b8062f714ce146102f5578063021bdc6214610333578063045d46c214610357578063082ceeb31461039e57806308668e26146103d25780630bdf862a146103f8575b600080fd5b6103216004803603604081101561030b57600080fd5b50803590602001356001600160a01b03166108c4565b60408051918252519081900360200190f35b61033b610b82565b604080516001600160a01b039092168252519081900360200190f35b6103856004803603604081101561036d57600080fd5b506001600160a01b0381358116916020013516610b91565b6040805192835260208301919091528051918290030190f35b6103d0600480360360608110156103b457600080fd5b506001600160a01b038135169060208101359060400135610e8d565b005b610321600480360360208110156103e857600080fd5b50356001600160a01b0316610f0d565b610321610f1f565b610321610f25565b6103d06004803603602081101561041e57600080fd5b5035610f2b565b61033b610fbf565b6103216004803603602081101561044357600080fd5b50356001600160a01b0316610fd7565b6103d0610fe9565b6103d0611054565b61033b6110ab565b61033b6110ba565b6103216110d2565b6104836110d8565b604080519115158252519081900360200190f35b6103216110e1565b61033b6110f2565b61033b600480360360208110156104bd57600080fd5b503561110a565b610321600480360360408110156104da57600080fd5b50803590602001356001600160a01b03166111ca565b6104836004803603602081101561050657600080fd5b50356001600160a01b03166113b0565b6103d061140b565b6103856004803603602081101561053457600080fd5b50356001600160a01b03166114ad565b6104836004803603602081101561055a57600080fd5b50356001600160a01b03166116f9565b61033b611706565b610321611715565b6103d061171b565b61033b611770565b6103d060048036036101008110156105a157600080fd5b6001600160a01b03823581169260208101358216926040820135831692606083013581169260808101359091169181019060c0810160a0820135600160201b8111156105ec57600080fd5b8201836020820111156105fe57600080fd5b803590602001918460208302840111600160201b8311171561061f57600080fd5b9190808060200260200160405190810160405280939291908181526020018383602002808284376000920191909152509295949360208101935035915050600160201b81111561066e57600080fd5b82018360208201111561068057600080fd5b803590602001918460208302840111600160201b831117156106a157600080fd5b9190808060200260200160405190810160405280939291908181526020018383602002808284376000920191909152509295949360208101935035915050600160201b8111156106f057600080fd5b82018360208201111561070257600080fd5b803590602001918460208302840111600160201b8311171561072357600080fd5b919080806020026020016040519081016040528093929190818152602001838360200280828437600092019190915250929550611788945050505050565b6103216004803603604081101561077757600080fd5b506001600160a01b0381358116916020013516611a56565b61033b611a73565b6103d0600480360360208110156107ad57600080fd5b5035611a82565b61033b611b16565b61033b611b2a565b610321611b39565b610321611b3f565b61033b611b45565b61033b611b54565b61033b611b5a565b61033b611b72565b6104836004803603602081101561080a57600080fd5b50356001600160a01b0316611b81565b610321611bdc565b61033b611be2565b61033b611bfa565b6103d06004803603602081101561084857600080fd5b50356001600160a01b0316611c12565b6103d0611c81565b61033b611cb3565b6103d06004803603602081101561087e57600080fd5b50356001600160a01b0316611cc2565b61033b611d31565b61033b611d40565b6103d0600480360360208110156108b457600080fd5b50356001600160a01b0316611d4f565b60006108ce611e5c565b6000546001600160a01b0390811691161461091e576040805162461bcd60e51b81526020600482018190526024820152600080516020614170833981519152604482015290519081900360640190fd5b60026001541415610976576040805162461bcd60e51b815260206004820152601f60248201527f5265656e7472616e637947756172643a207265656e7472616e742063616c6c00604482015290519081900360640190fd5b6002600155826109cd576040805162461bcd60e51b815260206004820152601e60248201527f53747261744d6174696353757368693a205f77616e74416d74203c3d20300000604482015290519081900360640190fd5b6109d6826116f9565b610a27576040805162461bcd60e51b815260206004820181905260248201527f53747261744d6174696353757368693a204e4f54206661726d20746f6b656e2e604482015290519081900360640190fd5b60006001600160a01b03831673c2132d05d31c914a87c6611c10748aeb04b58e8f14610a675773c2132d05d31c914a87c6611c10748aeb04b58e8f610a7d565b732791bca1f2de4661ed88a30c99a7a9449aa841745b90506000610a8c858584611e60565b6001600160a01b0385166000908152600f602090815260408083205460109092528220549293509091610acb9190610ac5908590611f42565b90611f9b565b6001600160a01b038616600090815260106020526040902054909150811115610b0957506001600160a01b0384166000908152601060205260409020545b6001600160a01b038516600090815260106020526040902054610b2c9082611fdd565b6001600160a01b038616600090815260106020908152604080832093909355600f90522054610b5b9087611fdd565b6001600160a01b0386166000908152600f6020526040902055925050506001805592915050565b6004546001600160a01b031681565b6008546040805163e6a4390560e01b81526001600160a01b038581166004830152848116602483015291516000938493849391169163e6a4390591604480820192602092909190829003018186803b158015610bec57600080fd5b505afa158015610c00573d6000803e3d6000fd5b505050506040513d6020811015610c1657600080fd5b5051604080516318160ddd60e01b815290519192506000916001600160a01b038416916318160ddd916004808301926020929190829003018186803b158015610c5e57600080fd5b505afa158015610c72573d6000803e3d6000fd5b505050506040513d6020811015610c8857600080fd5b50516009546001600160a01b038881166000908152600a602090815260408083208b851684529091528082205481516393f1a40b60e01b815260048101919091523060248201528151959650919492909316926393f1a40b92604480840193829003018186803b158015610cfb57600080fd5b505afa158015610d0f573d6000803e3d6000fd5b505050506040513d6040811015610d2557600080fd5b505160408051630240bc6b60e21b8152905191925060009182916001600160a01b03871691630902f1ac91600480820192606092909190829003018186803b158015610d7057600080fd5b505afa158015610d84573d6000803e3d6000fd5b505050506040513d6060811015610d9a57600080fd5b50805160209182015160408051630dfe168160e01b815290516dffffffffffffffffffffffffffff93841696509290911693506000926001600160a01b03891692630dfe1681926004808201939291829003018186803b158015610dfd57600080fd5b505afa158015610e11573d6000803e3d6000fd5b505050506040513d6020811015610e2757600080fd5b505190506001600160a01b03808216908b161415610e6a57610e4d85610ac58587611f42565b610e5b86610ac58588611f42565b97509750505050505050610e86565b610e7885610ac58487611f42565b610e5b86610ac58688611f42565b9250929050565b610e95611e5c565b6000546001600160a01b03908116911614610ee5576040805162461bcd60e51b81526020600482018190526024820152600080516020614170833981519152604482015290519081900360640190fd5b6001600160a01b03909216600090815260106020908152604080832093909355600f90522055565b600f6020526000908152604090205481565b60115481565b6107d081565b600c546001600160a01b03163314610f78576040805162461bcd60e51b815260206004820152601560248201526000805160206140e7833981519152604482015290519081900360640190fd5b6107d0811115610fba576040805162461bcd60e51b81526020600482015260086024820152670e8dede40d0d2ced60c31b604482015290519081900360640190fd5b601455565b73c35dadb65012ec5796536bd9864ed8773abc74c481565b60106020526000908152604090205481565b60026001541415611041576040805162461bcd60e51b815260206004820152601f60248201527f5265656e7472616e637947756172643a207265656e7472616e742063616c6c00604482015290519081900360640190fd5b600260015561104e61201f565b60018055565b600c546001600160a01b031633146110a1576040805162461bcd60e51b815260206004820152601560248201526000805160206140e7833981519152604482015290519081900360640190fd5b6110a9612051565b565b600c546001600160a01b031681565b730d500b1d8e8ef31e21c99d1db9a6444d3adf127081565b60125481565b60025460ff1690565b60006110ed600d6120ef565b905090565b731b02da8cb0d097eb8d57a175b88c7d8b4799750681565b600c546000906001600160a01b0316331461115a576040805162461bcd60e51b815260206004820152601560248201526000805160206140e7833981519152604482015290519081900360640190fd5b60016111646110e1565b038211156111b9576040805162461bcd60e51b815260206004820181905260248201527f537461744d647843616b653a20696e646578206f7574206f6620626f756e6473604482015290519081900360640190fd5b6111c4600d836120fa565b92915050565b60006111d4611e5c565b6000546001600160a01b03908116911614611224576040805162461bcd60e51b81526020600482018190526024820152600080516020614170833981519152604482015290519081900360640190fd5b60025460ff161561126f576040805162461bcd60e51b815260206004820152601060248201526f14185d5cd8589b194e881c185d5cd95960821b604482015290519081900360640190fd5b611278826116f9565b6112c9576040805162461bcd60e51b815260206004820181905260248201527f53747261744d6174696353757368693a204e4f54206661726d20746f6b656e2e604482015290519081900360640190fd5b6112de6001600160a01b038316333086612106565b6001600160a01b0382166000908152600f6020526040902054839015611336576001600160a01b0383166000908152600f60209081526040808320546010909252909120546113339190610ac5908790611f42565b90505b6001600160a01b0383166000908152601060205260409020546113599082612166565b6001600160a01b038416600090815260106020908152604080832093909355600f905220546113889085612166565b6001600160a01b0384166000908152600f60205260409020556113a961201f565b9392505050565b600c546000906001600160a01b03163314611400576040805162461bcd60e51b815260206004820152601560248201526000805160206140e7833981519152604482015290519081900360640190fd5b6111c4600d836121c0565b611413611e5c565b6000546001600160a01b03908116911614611463576040805162461bcd60e51b81526020600482018190526024820152600080516020614170833981519152604482015290519081900360640190fd5b600080546040516001600160a01b03909116907f8be0079c531659141344cd1fd0a4f28419497f9722a3daafe3b4186f6b6457e0908390a3600080546001600160a01b0319169055565b6000806114b8611e5c565b6000546001600160a01b03908116911614611508576040805162461bcd60e51b81526020600482018190526024820152600080516020614170833981519152604482015290519081900360640190fd5b611511836116f9565b611562576040805162461bcd60e51b815260206004820181905260248201527f53747261744d6174696353757368693a204e4f54206661726d20746f6b656e2e604482015290519081900360640190fd5b60006001600160a01b03841673c2132d05d31c914a87c6611c10748aeb04b58e8f146115a25773c2132d05d31c914a87c6611c10748aeb04b58e8f6115b8565b732791bca1f2de4661ed88a30c99a7a9449aa841745b90506115c484826121d5565b6115ce84826131b6565b6000846001600160a01b03166370a08231306040518263ffffffff1660e01b815260040180826001600160a01b0316815260200191505060206040518083038186803b15801561161d57600080fd5b505afa158015611631573d6000803e3d6000fd5b505050506040513d602081101561164757600080fd5b5051905080156116cd576040805163a9059cbb60e01b81523360048201526024810183905290516001600160a01b0387169163a9059cbb9160448083019260209291908290030181600087803b1580156116a057600080fd5b505af11580156116b4573d6000803e3d6000fd5b505050506040513d60208110156116ca57600080fd5b50505b505050506001600160a01b0316600090815260106020908152604080832054600f909252909120549091565b60006111c4600d8361338f565b6005546001600160a01b031681565b611f4081565b600c546001600160a01b03163314611768576040805162461bcd60e51b815260206004820152601560248201526000805160206140e7833981519152604482015290519081900360640190fd5b6110a96133a4565b732791bca1f2de4661ed88a30c99a7a9449aa8417481565b600c546001600160a01b031633146117d5576040805162461bcd60e51b815260206004820152601560248201526000805160206140e7833981519152604482015290519081900360640190fd5b6008546001600160a01b0389811691161480159061180157506007546001600160a01b03888116911614155b801561181b57506009546001600160a01b03878116911614155b6118565760405162461bcd60e51b81526004018080602001828103825260398152602001806140626039913960400191505060405180910390fd5b81518351148015611868575080518351145b6118a35760405162461bcd60e51b81526004018080602001828103825260488152602001806141076048913960600191505060405180910390fd5b6118d573c2132d05d31c914a87c6611c10748aeb04b58e8f732791bca1f2de4661ed88a30c99a7a9449aa841746131b6565b600880546001600160a01b03199081166001600160a01b038b8116919091179092556007805482168a84161790556009805482168984161790556004805482168884161790556005805490911691861691909117905560005b8151811015611a435781818151811061194357fe5b6020026020010151600a600086848151811061195b57fe5b60200260200101516001600160a01b03166001600160a01b03168152602001908152602001600020600085848151811061199157fe5b60200260200101516001600160a01b03166001600160a01b03168152602001908152602001600020819055508181815181106119c957fe5b6020026020010151600a60008584815181106119e157fe5b60200260200101516001600160a01b03166001600160a01b031681526020019081526020016000206000868481518110611a1757fe5b6020908102919091018101516001600160a01b031682528101919091526040016000205560010161192e565b50611a4c61201f565b5050505050505050565b600a60209081526000928352604080842090915290825290205481565b6000546001600160a01b031690565b600c546001600160a01b03163314611acf576040805162461bcd60e51b815260206004820152601560248201526000805160206140e7833981519152604482015290519081900360640190fd5b611f40811115611b11576040805162461bcd60e51b81526020600482015260086024820152670e8dede40d0d2ced60c31b604482015290519081900360640190fd5b601155565b60025461010090046001600160a01b031681565b6009546001600160a01b031681565b60035481565b61271081565b6008546001600160a01b031681565b61dead81565b730b3f868e0be5597d5db7feb59e1cadbb0fdda50a81565b6007546001600160a01b031681565b600c546000906001600160a01b03163314611bd1576040805162461bcd60e51b815260206004820152601560248201526000805160206140e7833981519152604482015290519081900360640190fd5b6111c4600d83611e47565b60145481565b73c2132d05d31c914a87c6611c10748aeb04b58e8f81565b730769fd68dfb93167989c6f7254cd0d766fb2841f81565b600c546001600160a01b03163314611c5f576040805162461bcd60e51b815260206004820152601560248201526000805160206140e7833981519152604482015290519081900360640190fd5b600c80546001600160a01b0319166001600160a01b0392909216919091179055565b6110a973c2132d05d31c914a87c6611c10748aeb04b58e8f732791bca1f2de4661ed88a30c99a7a9449aa841746121d5565b6013546001600160a01b031681565b600c546001600160a01b03163314611d0f576040805162461bcd60e51b815260206004820152601560248201526000805160206140e7833981519152604482015290519081900360640190fd5b601380546001600160a01b0319166001600160a01b0392909216919091179055565b600b546001600160a01b031681565b6006546001600160a01b031681565b611d57611e5c565b6000546001600160a01b03908116911614611da7576040805162461bcd60e51b81526020600482018190526024820152600080516020614170833981519152604482015290519081900360640190fd5b6001600160a01b038116611dec5760405162461bcd60e51b815260040180806020018281038252602681526020018061409b6026913960400191505060405180910390fd5b600080546040516001600160a01b03808516939216917f8be0079c531659141344cd1fd0a4f28419497f9722a3daafe3b4186f6b6457e091a3600080546001600160a01b0319166001600160a01b0392909216919091179055565b60006113a9836001600160a01b038416613425565b3390565b600080611e6d8484610b91565b509050848110611e8857611e838582868661346f565b611e9a565b8015611e9a57611e9a8182868661346f565b6000846001600160a01b03166370a08231306040518263ffffffff1660e01b815260040180826001600160a01b0316815260200191505060206040518083038186803b158015611ee957600080fd5b505afa158015611efd573d6000803e3d6000fd5b505050506040513d6020811015611f1357600080fd5b5051905080861115611f23578095505b611f386001600160a01b038616303389612106565b5093949350505050565b600082611f51575060006111c4565b82820282848281611f5e57fe5b04146113a95760405162461bcd60e51b815260040180806020018281038252602181526020018061414f6021913960400191505060405180910390fd5b60006113a983836040518060400160405280601a81526020017f536166654d6174683a206469766973696f6e206279207a65726f00000000000081525061364f565b60006113a983836040518060400160405280601e81526020017f536166654d6174683a207375627472616374696f6e206f766572666c6f7700008152506136f1565b6110a973c2132d05d31c914a87c6611c10748aeb04b58e8f732791bca1f2de4661ed88a30c99a7a9449aa8417461374b565b60025460ff1661209f576040805162461bcd60e51b815260206004820152601460248201527314185d5cd8589b194e881b9bdd081c185d5cd95960621b604482015290519081900360640190fd5b6002805460ff191690557f5db9ee0a495bf2e6ff9c91a7834c1ba4fdd244a5e8aa4e537bd38aeae4b073aa6120d2611e5c565b604080516001600160a01b039092168252519081900360200190a1565b60006111c482613aa4565b60006113a98383613aa8565b604080516001600160a01b0380861660248301528416604482015260648082018490528251808303909101815260849091019091526020810180516001600160e01b03166323b872dd60e01b179052612160908590613b0c565b50505050565b6000828201838110156113a9576040805162461bcd60e51b815260206004820152601b60248201527f536166654d6174683a206164646974696f6e206f766572666c6f770000000000604482015290519081900360640190fd5b60006113a9836001600160a01b038416613bbd565b6009546001600160a01b038381166000908152600a602090815260408083208685168452909152808220548151630c7e663b60e11b8152600481019190915230602482015290519193849316916318fccc7691604480820192869290919082900301818387803b15801561224857600080fd5b505af115801561225c573d6000803e3d6000fd5b505060048054604080516370a0823160e01b81523093810193909352516001600160a01b0390911693506370a0823192506024808301926020929190829003018186803b1580156122ac57600080fd5b505afa1580156122c0573d6000803e3d6000fd5b505050506040513d60208110156122d657600080fd5b5051600554604080516370a0823160e01b815230600482015290519294506001600160a01b03909116916370a0823191602480820192602092909190829003018186803b15801561232657600080fd5b505afa15801561233a573d6000803e3d6000fd5b505050506040513d602081101561235057600080fd5b505160145460115491925060009161237691906123709061271090611fdd565b90611fdd565b9050600061238a612710610ac58685611f42565b9050600061239e612710610ac58686611f42565b6007546004549192506123be916001600160a01b03908116911684613c83565b6007546005546123db916001600160a01b03918216911683613c83565b6000876001600160a01b03166370a08231306040518263ffffffff1660e01b815260040180826001600160a01b0316815260200191505060206040518083038186803b15801561242a57600080fd5b505afa15801561243e573d6000803e3d6000fd5b505050506040513d602081101561245457600080fd5b5051604080516370a0823160e01b815230600482015290519192506000916001600160a01b038a16916370a08231916024808301926020929190829003018186803b1580156124a257600080fd5b505afa1580156124b6573d6000803e3d6000fd5b505050506040513d60208110156124cc57600080fd5b505190508315612834576007546001600160a01b03166338ed17396124f2866002611f9b565b604080518082019091526004546001600160a01b0390811682528d16602082015260009061251f90613d6e565b30426040518663ffffffff1660e01b81526004018086815260200185815260200180602001846001600160a01b03168152602001838152602001828103825285818151815260200191508051906020019060200280838360005b83811015612591578181015183820152602001612579565b505050509050019650505050505050600060405180830381600087803b1580156125ba57600080fd5b505af11580156125ce573d6000803e3d6000fd5b505050506040513d6000823e601f3d908101601f1916820160405260208110156125f757600080fd5b8101908080516040519392919084600160201b82111561261657600080fd5b90830190602082018581111561262b57600080fd5b82518660208202830111600160201b8211171561264757600080fd5b82525081516020918201928201910280838360005b8381101561267457818101518382015260200161265c565b505050509190910160405250506007546001600160a01b031692506338ed173991506126a39050866002611f9b565b604080518082019091526004546001600160a01b0390811682528c1660208201526000906126d090613d6e565b30426040518663ffffffff1660e01b81526004018086815260200185815260200180602001846001600160a01b03168152602001838152602001828103825285818151815260200191508051906020019060200280838360005b8381101561274257818101518382015260200161272a565b505050509050019650505050505050600060405180830381600087803b15801561276b57600080fd5b505af115801561277f573d6000803e3d6000fd5b505050506040513d6000823e601f3d908101601f1916820160405260208110156127a857600080fd5b8101908080516040519392919084600160201b8211156127c757600080fd5b9083019060208201858111156127dc57600080fd5b82518660208202830111600160201b821117156127f857600080fd5b82525081516020918201928201910280838360005b8381101561282557818101518382015260200161280d565b50505050905001604052505050505b8215612b98576007546001600160a01b03166338ed1739612856856002611f9b565b604080518082019091526005546001600160a01b0390811682528d16602082015260009061288390613d6e565b30426040518663ffffffff1660e01b81526004018086815260200185815260200180602001846001600160a01b03168152602001838152602001828103825285818151815260200191508051906020019060200280838360005b838110156128f55781810151838201526020016128dd565b505050509050019650505050505050600060405180830381600087803b15801561291e57600080fd5b505af1158015612932573d6000803e3d6000fd5b505050506040513d6000823e601f3d908101601f19168201604052602081101561295b57600080fd5b8101908080516040519392919084600160201b82111561297a57600080fd5b90830190602082018581111561298f57600080fd5b82518660208202830111600160201b821117156129ab57600080fd5b82525081516020918201928201910280838360005b838110156129d85781810151838201526020016129c0565b505050509190910160405250506007546001600160a01b031692506338ed17399150612a079050856002611f9b565b604080518082019091526005546001600160a01b0390811682528c166020820152600090612a3490613d6e565b30426040518663ffffffff1660e01b81526004018086815260200185815260200180602001846001600160a01b03168152602001838152602001828103825285818151815260200191508051906020019060200280838360005b83811015612aa6578181015183820152602001612a8e565b505050509050019650505050505050600060405180830381600087803b158015612acf57600080fd5b505af1158015612ae3573d6000803e3d6000fd5b505050506040513d6000823e601f3d908101601f191682016040526020811015612b0c57600080fd5b8101908080516040519392919084600160201b821115612b2b57600080fd5b908301906020820185811115612b4057600080fd5b82518660208202830111600160201b82111715612b5c57600080fd5b82525081516020918201928201910280838360005b83811015612b89578181015183820152602001612b71565b50505050905001604052505050505b6000896001600160a01b03166370a08231306040518263ffffffff1660e01b815260040180826001600160a01b0316815260200191505060206040518083038186803b158015612be757600080fd5b505afa158015612bfb573d6000803e3d6000fd5b505050506040513d6020811015612c1157600080fd5b5051604080516370a0823160e01b815230600482015290519192506000916001600160a01b038c16916370a08231916024808301926020929190829003018186803b158015612c5f57600080fd5b505afa158015612c73573d6000803e3d6000fd5b505050506040513d6020811015612c8957600080fd5b50519050612cb9612c9a8386611fdd565b6001600160a01b038d166000908152600f602052604090205490612166565b6001600160a01b038c166000908152600f6020526040902055612cfe612cdf8285611fdd565b6001600160a01b038c166000908152600f602052604090205490612166565b6001600160a01b038b166000908152600f6020526040902055612d218b8b61374b565b60115460009015612f2c57612d47612710610ac56011548d611f4290919063ffffffff16565b600754600454919250612d67916001600160a01b03908116911683613c83565b600754604080516060810182526004546001600160a01b03908116825273c2132d05d31c914a87c6611c10748aeb04b58e8f602083015260025461010090048116928201929092529116906338ed1739908390600090612dc690613ddd565b61dead426040518663ffffffff1660e01b81526004018086815260200185815260200180602001846001600160a01b03168152602001838152602001828103825285818151815260200191508051906020019060200280838360005b83811015612e3a578181015183820152602001612e22565b505050509050019650505050505050600060405180830381600087803b158015612e6357600080fd5b505af1158015612e77573d6000803e3d6000fd5b505050506040513d6000823e601f3d908101601f191682016040526020811015612ea057600080fd5b8101908080516040519392919084600160201b821115612ebf57600080fd5b908301906020820185811115612ed457600080fd5b82518660208202830111600160201b82111715612ef057600080fd5b82525081516020918201928201910280838360005b83811015612f1d578181015183820152602001612f05565b50505050905001604052505050505b6011546000901561313757612f52612710610ac56011548e611f4290919063ffffffff16565b600754600554919250612f72916001600160a01b03908116911683613c83565b600754604080516060810182526005546001600160a01b03908116825273c2132d05d31c914a87c6611c10748aeb04b58e8f602083015260025461010090048116928201929092529116906338ed1739908390600090612fd190613ddd565b61dead426040518663ffffffff1660e01b81526004018086815260200185815260200180602001846001600160a01b03168152602001838152602001828103825285818151815260200191508051906020019060200280838360005b8381101561304557818101518382015260200161302d565b505050509050019650505050505050600060405180830381600087803b15801561306e57600080fd5b505af1158015613082573d6000803e3d6000fd5b505050506040513d6000823e601f3d908101601f1916820160405260208110156130ab57600080fd5b8101908080516040519392919084600160201b8211156130ca57600080fd5b9083019060208201858111156130df57600080fd5b82518660208202830111600160201b821117156130fb57600080fd5b82525081516020918201928201910280838360005b83811015613128578181015183820152602001613110565b50505050905001604052505050505b6000613147836123708e8c611fdd565b9050801561316e5760135460045461316e916001600160a01b039182169130911684612106565b600061317e836123708e8c611fdd565b905080156131a5576013546005546131a5916001600160a01b039182169130911684612106565b505050505050505050505050505050565b6009546001600160a01b038381166000908152600a6020908152604080832086851684529091528082205481516393f1a40b60e01b815260048101919091523060248201528151929493909316926393f1a40b9260448083019392829003018186803b15801561322557600080fd5b505afa158015613239573d6000803e3d6000fd5b505050506040513d604081101561324f57600080fd5b50519050801561338a576009546001600160a01b038481166000908152600a602090815260408083208785168452909152808220548151630ad58d2f60e01b815260048101919091526024810186905230604482015290519290931692630ad58d2f926064808301939282900301818387803b1580156132ce57600080fd5b505af11580156132e2573d6000803e3d6000fd5b505060075460408051635d5155ef60e11b81526001600160a01b038881166004830152878116602483015260448201879052600060648301819052608483018190523060a48401524260c4840152835191909416955063baa2abde945060e48083019491928390030190829087803b15801561335d57600080fd5b505af1158015613371573d6000803e3d6000fd5b505050506040513d604081101561338757600080fd5b50505b505050565b60006113a9836001600160a01b038416613e48565b60025460ff16156133ef576040805162461bcd60e51b815260206004820152601060248201526f14185d5cd8589b194e881c185d5cd95960821b604482015290519081900360640190fd5b6002805460ff191660011790557f62e78cea01bee320cd4e420270b5ea74000d11b0c9f74754ebdbfc544b05a2586120d2611e5c565b60006134318383613e48565b613467575081546001818101845560008481526020808220909301849055845484825282860190935260409020919091556111c4565b5060006111c4565b6009546001600160a01b038381166000908152600a6020908152604080832086851684529091528082205481516393f1a40b60e01b815260048101919091523060248201528151929493909316926393f1a40b9260448083019392829003018186803b1580156134de57600080fd5b505afa1580156134f2573d6000803e3d6000fd5b505050506040513d604081101561350857600080fd5b50519050600061351c85610ac58885611f42565b6009546001600160a01b038681166000908152600a602090815260408083208985168452909152808220548151630ad58d2f60e01b815260048101919091526024810186905230604482015290519495509190921692630ad58d2f9260648084019391929182900301818387803b15801561359657600080fd5b505af11580156135aa573d6000803e3d6000fd5b505060075460408051635d5155ef60e11b81526001600160a01b038981166004830152888116602483015260448201879052600060648301819052608483018190523060a48401524260c4840152835191909416955063baa2abde945060e48083019491928390030190829087803b15801561362557600080fd5b505af1158015613639573d6000803e3d6000fd5b505050506040513d6040811015611a4c57600080fd5b600081836136db5760405162461bcd60e51b81526004018080602001828103825283818151815260200191508051906020019080838360005b838110156136a0578181015183820152602001613688565b50505050905090810190601f1680156136cd5780820380516001836020036101000a031916815260200191505b509250505060405180910390fd5b5060008385816136e757fe5b0495945050505050565b600081848411156137435760405162461bcd60e51b81526020600482018181528351602484015283519092839260449091019190850190808383600083156136a0578181015183820152602001613688565b505050900390565b6000826001600160a01b03166370a08231306040518263ffffffff1660e01b815260040180826001600160a01b0316815260200191505060206040518083038186803b15801561379a57600080fd5b505afa1580156137ae573d6000803e3d6000fd5b505050506040513d60208110156137c457600080fd5b5051604080516370a0823160e01b815230600482015290519192506000916001600160a01b038516916370a08231916024808301926020929190829003018186803b15801561381257600080fd5b505afa158015613826573d6000803e3d6000fd5b505050506040513d602081101561383c57600080fd5b505160035490915082118015613853575060035481115b801561388357506001600160a01b038085166000908152600a602090815260408083209387168352929052205415155b15612160576007546138a2906001600160a01b03868116911684613c83565b6007546138bc906001600160a01b03858116911683613c83565b6007546040805162e8e33760e81b81526001600160a01b0387811660048301528681166024830152604482018690526064820185905260006084830181905260a483018190523060c48401524260e484015292519293169163e8e33700916101048082019260609290919082900301818787803b15801561393c57600080fd5b505af1158015613950573d6000803e3d6000fd5b505050506040513d606081101561396657600080fd5b50604090810151600854825163e6a4390560e01b81526001600160a01b038981166004830152888116602483015293519294506000939091169163e6a4390591604480820192602092909190829003018186803b1580156139c657600080fd5b505afa1580156139da573d6000803e3d6000fd5b505050506040513d60208110156139f057600080fd5b5051600954909150613a0f906001600160a01b03808416911684613c83565b6009546001600160a01b038781166000908152600a602090815260408083208a85168452909152808220548151638dbdbe6d60e01b815260048101919091526024810187905230604482015290519290931692638dbdbe6d926064808301939282900301818387803b158015613a8457600080fd5b505af1158015613a98573d6000803e3d6000fd5b50505050505050505050565b5490565b81546000908210613aea5760405162461bcd60e51b81526004018080602001828103825260228152602001806140406022913960400191505060405180910390fd5b826000018281548110613af957fe5b9060005260206000200154905092915050565b6060613b61826040518060400160405280602081526020017f5361666545524332303a206c6f772d6c6576656c2063616c6c206661696c6564815250856001600160a01b0316613e609092919063ffffffff16565b80519091501561338a57808060200190516020811015613b8057600080fd5b505161338a5760405162461bcd60e51b815260040180806020018281038252602a815260200180614190602a913960400191505060405180910390fd5b60008181526001830160205260408120548015613c795783546000198083019190810190600090879083908110613bf057fe5b9060005260206000200154905080876000018481548110613c0d57fe5b600091825260208083209091019290925582815260018981019092526040902090840190558654879080613c3d57fe5b600190038181906000526020600020016000905590558660010160008781526020019081526020016000206000905560019450505050506111c4565b60009150506111c4565b6000613d1982856001600160a01b031663dd62ed3e30876040518363ffffffff1660e01b815260040180836001600160a01b03168152602001826001600160a01b031681526020019250505060206040518083038186803b158015613ce757600080fd5b505afa158015613cfb573d6000803e3d6000fd5b505050506040513d6020811015613d1157600080fd5b505190612166565b604080516001600160a01b038616602482015260448082018490528251808303909101815260649091019091526020810180516001600160e01b031663095ea7b360e01b179052909150612160908590613b0c565b604080516002808252606080830184529260208301908036833701905050905060005b6002811015613dd757828160028110613da657fe5b6020020151828281518110613db757fe5b6001600160a01b0390921660209283029190910190910152600101613d91565b50919050565b6040805160038082526080820190925260609160208201838036833701905050905060005b6003811015613dd757828160038110613e1757fe5b6020020151828281518110613e2857fe5b6001600160a01b0390921660209283029190910190910152600101613e02565b60009081526001919091016020526040902054151590565b6060613e6f8484600085613e77565b949350505050565b606082471015613eb85760405162461bcd60e51b81526004018080602001828103825260268152602001806140c16026913960400191505060405180910390fd5b613ec185613fd3565b613f12576040805162461bcd60e51b815260206004820152601d60248201527f416464726573733a2063616c6c20746f206e6f6e2d636f6e7472616374000000604482015290519081900360640190fd5b60006060866001600160a01b031685876040518082805190602001908083835b60208310613f515780518252601f199092019160209182019101613f32565b6001836020036101000a03801982511681845116808217855250505050505090500191505060006040518083038185875af1925050503d8060008114613fb3576040519150601f19603f3d011682016040523d82523d6000602084013e613fb8565b606091505b5091509150613fc8828286613fd9565b979650505050505050565b3b151590565b60608315613fe85750816113a9565b825115613ff85782518084602001fd5b60405162461bcd60e51b81526020600482018181528451602484015284518593919283926044019190850190808383600083156136a057818101518382015260200161368856fe456e756d657261626c655365743a20696e646578206f7574206f6620626f756e647353747261744d6174696353757368693a206e6577206164647265737365732063616e204e4f542062652061732073616d65206173206f6c642e4f776e61626c653a206e6577206f776e657220697320746865207a65726f2061646472657373416464726573733a20696e73756666696369656e742062616c616e636520666f722063616c6c53747261744d6174696353757368693a2021676f76000000000000000000000053747261744d617469635375736869204552524f523a20746f6b656e30732c746f6b656e317320616e64207069647327206c656e6774682073686f756c6420626520657175616c2e536166654d6174683a206d756c7469706c69636174696f6e206f766572666c6f774f776e61626c653a2063616c6c6572206973206e6f7420746865206f776e65725361666545524332303a204552433230206f7065726174696f6e20646964206e6f742073756363656564a2646970667358221220d5d3efa8e48cd831b87a9b7a5c45d11b2d546462fc105200979f64bc0412e20c64736f6c634300060c00334f776e61626c653a206e6577206f776e657220697320746865207a65726f20616464726573738be0079c531659141344cd1fd0a4f28419497f9722a3daafe3b4186f6b6457e0",
  "immutableReferences": {},
  "source": "// SPDX-License-Identifier: MIT\npragma solidity 0.6.12;\n\n\nimport \"./common/BasicStruct.sol\";\nimport \"./SwapInterfaces.sol\";\n\n//  quickSwap\n//  sushiSwap => matic&sushi\ncontract StratMaticSushi is Ownable, ReentrancyGuard, Pausable {\n    using SafeMath for uint256;\n    using SafeERC20 for IERC20;\n    using EnumerableSet for EnumerableSet.AddressSet;\n\n    address public BOBO;\n\n    address public constant sushiFactory = 0xc35DADB65012eC5796536bD9864eD8773aBc74C4;\n    address public constant sushiRouter = 0x1b02dA8Cb0d097eB8D57A175b88c7D8b47997506;\n    address public constant sushiMasterChef = 0x0769fd68dFb93167989C6f7254cd0D766Fb2841F;   // APY    \n\n    address public constant USDT = 0xc2132D05D31c914a87C6611C10748AEb04B58e8F;\n    address public constant USDC = 0x2791Bca1f2de4661ED88A30C99A7a9449Aa84174;\n    address public constant WMATIC = 0x0d500B1d8E8eF31E21C99d1Db9A6444d3ADf1270;\n    address public constant SUSHI = 0x0b3F868E0BE5597D5DB7fEB59E1CADBb0fdDa50a;\n    \n    address public constant deadAddr = 0x000000000000000000000000000000000000dEaD; \n\n    uint256 public minFarmAmount = 1e6;\n    address public earnedTokenOne = WMATIC;             // \n    address public earnedTokenTwo = SUSHI;             // \n    address public burnedTokenAddress;          // \n    \n    address public curRouter = sushiRouter;\n    address public curFactory = sushiFactory;\n\n    address public curMasterChef = sushiMasterChef;\n    mapping(address => mapping(address => uint256)) public curPidMap;\n\n    // BOBO_FarmerLP\n    address public wantAddress;           \n\n    address public govAddress; \n    EnumerableSet.AddressSet private allowedFarmTokenSet;\n\n    mapping(address => uint256) public wantLockedTotalMap;  \n    mapping(address => uint256) public sharesTotalMap; \n\n    \n    uint256 public constant BasePercent = 10000;\n    // BOBO\n    uint256 public burnedBOBORate = 0;\n    uint256 public constant burnedBOBORateUL = 8000;\n    uint256 public totalBurnedBOT;\n\n    // 10%\n    address public devFundAddr;\n    uint256 public devFundFee = 8000; \n    uint256 public constant devFundFeeUL = 2000;\n\n    modifier onlyGov() {\n        require(msg.sender == govAddress, \"StratMaticSushi: !gov\");\n        _;\n    }\n\n    constructor(\n        address _boboAddr,\n        address _boboFarmer\n    ) public {\n        govAddress = msg.sender;\n        BOBO = _boboAddr;\n        burnedTokenAddress = _boboAddr;\n        \n        addFarmToken(USDT);\n        addFarmToken(USDC);\n        \n        // belows are all pids of Pancake masterchef, and MDEX is [USDT][BUSD] = 0x20;[USDT][USDC] = 0x21;[BUSD][USDC] = 0;       \n        curPidMap[USDT][USDC] = 0x08;\n        curPidMap[USDC][USDT] = 0x08;\n\n        transferOwnership(_boboFarmer);\n    }\n    \n    // farmer\n    function initTotalShareAndLocked(address _tokenAddr, uint256 _totalShare, uint256 _totalLocked) external onlyOwner {\n        sharesTotalMap[_tokenAddr] = _totalShare;\n        wantLockedTotalMap[_tokenAddr] = _totalLocked;\n    }\n    // farmer\n    function clearAndTransferTokens(address _tokenAddr) external onlyOwner returns(uint256, uint256) {\n        require(isFarmToken(_tokenAddr), \"StratMaticSushi: NOT farm token.\");\n        address anotherToken = _tokenAddr == USDT ? USDC : USDT;\n        claimRewardAndCompound(_tokenAddr, anotherToken);\n\n        withdrawAllLP(_tokenAddr, anotherToken);\n\n        uint256 amount = IERC20(_tokenAddr).balanceOf(address(this));\n        if (amount > 0)\n            IERC20(_tokenAddr).transfer(msg.sender, amount);\n\n        return (sharesTotalMap[_tokenAddr], wantLockedTotalMap[_tokenAddr]);\n    }\n    \n    // \n    function setNewSwapInfo(address _factory, address _router, address _masterChef, \n                            address _earnedTokenAddrOne, address _earnedTokenAddrTwo, \n                            address[] memory _token0s, address[] memory _token1s, uint256[] memory _pids) external onlyGov {\n        require(_factory != curFactory && _router != curRouter && _masterChef != curMasterChef, \"StratMaticSushi: new addresses can NOT be as same as old.\");\n        require(_token0s.length == _token1s.length && _token0s.length == _pids.length, \"StratMaticSushi ERROR: token0s,token1s and pids' length should be equal.\");\n        \n        withdrawAllLP(USDT, USDC);\n        \n        curFactory = _factory;\n        curRouter = _router;\n        curMasterChef = _masterChef;\n        earnedTokenOne = _earnedTokenAddrOne;\n        earnedTokenTwo = _earnedTokenAddrTwo;\n        \n        for(uint256 i = 0; i < _pids.length; i++) {\n            curPidMap[_token0s[i]][_token1s[i]] = _pids[i];\n            curPidMap[_token1s[i]][_token0s[i]] = _pids[i];\n        }\n        \n        _farm();\n    }\n    \n    // \n    function getBalances(address _token0, address _token1) public view returns(uint256, uint256) {        \n        address pairAddr = ICommonFactory(curFactory).getPair(_token0, _token1);\n        uint256 totalLPBalance = ICommonPair(pairAddr).totalSupply();\n        uint256 myLPBalance = 0;\n        (myLPBalance, ) = ICommonMasterChef(curMasterChef).userInfo(curPidMap[_token0][_token1], address(this));\n\n        (uint256 reserve0, uint256 reserve1, ) = ICommonPair(pairAddr).getReserves();\n        address token0 = ICommonPair(pairAddr).token0();\n        if (token0 == _token0) {\n            return (reserve0.mul(myLPBalance).div(totalLPBalance), reserve1.mul(myLPBalance).div(totalLPBalance));\n        } else {\n            return (reserve1.mul(myLPBalance).div(totalLPBalance), reserve0.mul(myLPBalance).div(totalLPBalance));\n        }\n    }\n\n    // Farm\n    function deposit(uint256 _wantAmt, address _wantAddr) public onlyOwner whenNotPaused returns (uint256) {\n        require(isFarmToken(_wantAddr), \"StratMaticSushi: NOT farm token.\");\n        // want\n        IERC20(_wantAddr).safeTransferFrom(\n            address(msg.sender),\n            address(this),\n            _wantAmt\n        );\n\n        // \n        uint256 sharesAdded = _wantAmt;\n        if (wantLockedTotalMap[_wantAddr] > 0) {\n            sharesAdded = _wantAmt\n                .mul(sharesTotalMap[_wantAddr])\n                .div(wantLockedTotalMap[_wantAddr]);\n        }\n        sharesTotalMap[_wantAddr] = sharesTotalMap[_wantAddr].add(sharesAdded);\n        wantLockedTotalMap[_wantAddr] = wantLockedTotalMap[_wantAddr].add(_wantAmt);\n        \n        _farm();\n\n        return sharesAdded;\n    }\n\n    // BUSD-USDT LPMDEX\n    // \n    function farm() public nonReentrant {\n        _farm();\n    }\n\n    // USDT/BUSD/USDC\n    function _farm() internal {\n        addLiquidAndFarm(USDT, USDC);\n    }\n    \n    // tokenLP\n    function addLiquidAndFarm(address _tokenA, address _tokenB) internal {\n        uint256 tokenABalance = IERC20(_tokenA).balanceOf(address(this));\n        uint256 tokenBBalance = IERC20(_tokenB).balanceOf(address(this));\n        \n        if (tokenABalance > minFarmAmount && tokenBBalance > minFarmAmount && curPidMap[_tokenA][_tokenB] > 0) {                \n            IERC20(_tokenA).safeIncreaseAllowance(\n                curRouter,\n                tokenABalance\n            );\n            IERC20(_tokenB).safeIncreaseAllowance(\n                curRouter,\n                tokenBBalance\n            );\n            (,,uint256 liquidity) = ICommonRouter(curRouter).addLiquidity(_tokenA, _tokenB, tokenABalance, tokenBBalance, 0, 0, address(this), now);\n            \n            address pairAddr = ICommonFactory(curFactory).getPair(_tokenA, _tokenB);\n            IERC20(pairAddr).safeIncreaseAllowance(\n                curMasterChef,\n                liquidity\n            );\n            ICommonMasterChef(curMasterChef).deposit(curPidMap[_tokenA][_tokenB], liquidity, address(this));\n        }\n    }\n    \n    function convertThreePath(address[3] memory path) private pure returns(address[] memory newPath) {\n        newPath = new address[](path.length);\n        for (uint256 i = 0; i < path.length; i++) {\n            newPath[i] = path[i];\n        }\n    }\n    \n    function convertTwoPath(address[2] memory path) private pure returns(address[] memory newPath) {\n        newPath = new address[](path.length);\n        for (uint256 i = 0; i < path.length; i++) {\n            newPath[i] = path[i];\n        }\n    }\n    // tokenLPcake/MDX\n    function claimRewardAndCompound(address _tokenA, address _tokenB) internal {\n        uint256 earnedAmountTokenOne = 0;\n        uint256 earnedAmountTokenTwo = 0;\n        \n        // 0: WMATIC&SUSHI\n        ICommonMasterChef(curMasterChef).harvest(curPidMap[_tokenA][_tokenB], address(this));  \n        earnedAmountTokenOne = IERC20(earnedTokenOne).balanceOf(address(this));\n        earnedAmountTokenTwo = IERC20(earnedTokenTwo).balanceOf(address(this));\n        \n        // 1: LP\n        uint256 compoundRate = BasePercent.sub(burnedBOBORate).sub(devFundFee);\n\n        uint256 compoundAmountTokenOne = earnedAmountTokenOne.mul(compoundRate).div(BasePercent);\n        uint256 compoundAmountTokenTwo = earnedAmountTokenTwo.mul(compoundRate).div(BasePercent);\n        \n        IERC20(earnedTokenOne).safeIncreaseAllowance(curRouter, compoundAmountTokenOne);\n        IERC20(earnedTokenTwo).safeIncreaseAllowance(curRouter, compoundAmountTokenTwo);\n\n        uint256 tokenABalance = IERC20(_tokenA).balanceOf(address(this));\n        uint256 tokenBBalance = IERC20(_tokenB).balanceOf(address(this));\n        \n        if (compoundAmountTokenOne > 0) {\n            ICommonRouter(curRouter)\n                .swapExactTokensForTokens(\n                compoundAmountTokenOne.div(2),\n                0,\n                convertTwoPath([earnedTokenOne, _tokenA]),\n                address(this),\n                now\n            );\n            ICommonRouter(curRouter)\n                .swapExactTokensForTokens(\n                compoundAmountTokenOne.div(2),\n                0,\n                convertTwoPath([earnedTokenOne, _tokenB]),\n                address(this),\n                now\n            );\n        }\n        if (compoundAmountTokenTwo > 0) {\n            ICommonRouter(curRouter)\n                .swapExactTokensForTokens(\n                compoundAmountTokenTwo.div(2),\n                0,\n                convertTwoPath([earnedTokenTwo, _tokenA]),\n                address(this),\n                now\n            );\n            ICommonRouter(curRouter)\n                .swapExactTokensForTokens(\n                compoundAmountTokenTwo.div(2),\n                0,\n                convertTwoPath([earnedTokenTwo, _tokenB]),\n                address(this),\n                now\n            );\n        }\n\n        uint256 tokenANewBalance = IERC20(_tokenA).balanceOf(address(this));\n        uint256 tokenBNewBalance = IERC20(_tokenB).balanceOf(address(this));\n\n        wantLockedTotalMap[_tokenA] = wantLockedTotalMap[_tokenA].add(tokenANewBalance.sub(tokenABalance));\n        wantLockedTotalMap[_tokenB] = wantLockedTotalMap[_tokenB].add(tokenBNewBalance.sub(tokenBBalance));\n\n        addLiquidAndFarm(_tokenA, _tokenB);\n\n        // 2: Bobo\n        uint256 burnedAmountTokenOne = 0;\n        if (burnedBOBORate > 0) {\n            burnedAmountTokenOne = earnedAmountTokenOne.mul(burnedBOBORate).div(BasePercent);\n            IERC20(earnedTokenOne).safeIncreaseAllowance(curRouter, burnedAmountTokenOne);\n            ICommonRouter(curRouter)\n                .swapExactTokensForTokens(\n                    burnedAmountTokenOne,\n                    0,\n                    convertThreePath([earnedTokenOne, USDT, BOBO]),\n                    deadAddr,\n                    now\n            );\n        }\n\n        uint256 burnedAmountTokenTwo = 0;\n        if (burnedBOBORate > 0) {\n            burnedAmountTokenTwo = earnedAmountTokenOne.mul(burnedBOBORate).div(BasePercent);\n            IERC20(earnedTokenTwo).safeIncreaseAllowance(curRouter, burnedAmountTokenTwo);\n            ICommonRouter(curRouter)\n                .swapExactTokensForTokens(\n                    burnedAmountTokenTwo,\n                    0,\n                    convertThreePath([earnedTokenTwo, USDT, BOBO]),\n                    deadAddr,\n                    now\n            );\n        }\n        \n        // 3\n        uint256 leftAmountTokenOne = earnedAmountTokenOne.sub(compoundAmountTokenOne).sub(burnedAmountTokenOne);\n        if (leftAmountTokenOne > 0)\n            IERC20(earnedTokenOne).safeTransferFrom(address(this), devFundAddr, leftAmountTokenOne);\n\n        uint256 leftAmountTokenTwo = earnedAmountTokenTwo.sub(compoundAmountTokenTwo).sub(burnedAmountTokenTwo);\n        if (leftAmountTokenTwo > 0)\n            IERC20(earnedTokenTwo).safeTransferFrom(address(this), devFundAddr, leftAmountTokenTwo);\n    }\n\n    function earn() public {\n        claimRewardAndCompound(USDT, USDC);\n    }\n\n    // LPtokentokenfarmer\n    function withdrawOneToken(uint256 _wantAmt, address _withdrawToken, address _token0) internal returns(uint256) {\n        (uint256 amount0, ) = getBalances(_withdrawToken, _token0);  \n        if (amount0 >= _wantAmt) {\n            withdrawToken0FromLP(_wantAmt, amount0, _withdrawToken, _token0);\n        } else if (amount0 > 0) {\n            withdrawToken0FromLP(amount0, amount0, _withdrawToken, _token0);\n        }\n        uint256 amount = IERC20(_withdrawToken).balanceOf(address(this));\n        if (_wantAmt > amount) _wantAmt = amount;\n        IERC20(_withdrawToken).safeTransferFrom(address(this), msg.sender, _wantAmt);\n        return _wantAmt;\n    }\n\n\n    // LP_withrawAmounttoken0\n    // 1: LP\n    // 2: LPtoken0token1\n    function withdrawToken0FromLP(uint256 _withrawAmount, uint256 _totalAmount, address _token0, address _token1) internal {\n        uint256 myLPBalance = 0;\n        (myLPBalance, ) = ICommonMasterChef(curMasterChef).userInfo(curPidMap[_token0][_token1], address(this));\n\n        uint256 withdrawLPBalance = _withrawAmount.mul(myLPBalance).div(_totalAmount);\n        ICommonMasterChef(curMasterChef).withdraw(curPidMap[_token0][_token1], withdrawLPBalance, address(this));  // WMATIC\n\n        ICommonRouter(curRouter).removeLiquidity(\n            _token0,\n            _token1,\n            withdrawLPBalance,\n            0,\n            0,\n            address(this),\n            now\n        );\n    }\n    // LPTOKEN0&TOKEN1\n    function withdrawAllLP(address _token0, address _token1) internal {\n        (uint256 myLPBalance, ) = ICommonMasterChef(curMasterChef).userInfo(curPidMap[_token0][_token1], address(this));\n        \n        if (myLPBalance > 0) {\n            ICommonMasterChef(curMasterChef).withdraw(curPidMap[_token0][_token1], myLPBalance, address(this));  // WMATIC\n    \n            ICommonRouter(curRouter).removeLiquidity(\n                _token0,\n                _token1,\n                myLPBalance,\n                0,\n                0,\n                address(this),\n                now\n            );\n        }\n    }\n\n\n    // \n    // 1. MDEXMDX\n    // 2. \n    // 3. MDXbot\n    function withdraw(uint256 _wantAmt, address _wantAddr) public onlyOwner nonReentrant returns (uint256) {\n        require(_wantAmt > 0, \"StratMaticSushi: _wantAmt <= 0\");\n        require(isFarmToken(_wantAddr), \"StratMaticSushi: NOT farm token.\");\n        \n        address token0 = _wantAddr == USDT ?  USDC : USDT;\n        uint256 realAmount = withdrawOneToken(_wantAmt, _wantAddr, token0);        \n\n        // 2.         \n        uint256 sharesRemoved = realAmount.mul(sharesTotalMap[_wantAddr]).div(wantLockedTotalMap[_wantAddr]);\n        if (sharesRemoved > sharesTotalMap[_wantAddr]) {\n            sharesRemoved = sharesTotalMap[_wantAddr];\n        }\n        sharesTotalMap[_wantAddr] = sharesTotalMap[_wantAddr].sub(sharesRemoved);\n        wantLockedTotalMap[_wantAddr] = wantLockedTotalMap[_wantAddr].sub(_wantAmt);\n\n        return sharesRemoved;\n    }\n\n    function pause() external onlyGov {\n        _pause();\n    }\n\n    function unpause() external onlyGov {\n        _unpause();\n    }\n\n    function setDevFundFee(uint256 _devFundFee) public onlyGov {\n        require(_devFundFee <= devFundFeeUL, \"too high\");\n        devFundFee = _devFundFee;\n    }\n\n    function setBurnedBoboRate(uint256 _burnedBOBORate) public onlyGov {\n        require(_burnedBOBORate <= burnedBOBORateUL, \"too high\");\n        burnedBOBORate = _burnedBOBORate;\n    }\n\n    function setGov(address _govAddress) public onlyGov {\n        govAddress = _govAddress;\n    }\n\n    function setDevFundAddr(address _devFundAddr) public onlyGov {\n        devFundAddr = _devFundAddr;\n    }\n    \n    function addFarmToken(address _addToken) public onlyGov returns (bool) {\n        return EnumerableSet.add(allowedFarmTokenSet, _addToken);\n    }\n\n    function delFarmToken(address _delToken) public onlyGov returns (bool) {\n        return EnumerableSet.remove(allowedFarmTokenSet, _delToken);\n    }\n\n    function getFarmTokenLength() public view returns (uint256) {\n        return EnumerableSet.length(allowedFarmTokenSet);\n    }\n\n    function isFarmToken(address _farmToken) public view returns (bool) {\n        return EnumerableSet.contains(allowedFarmTokenSet, _farmToken);\n    }\n\n    function getFarmToken(uint256 _index) public view onlyGov returns (address){\n        require(_index <= getFarmTokenLength() - 1, \"StatMdxCake: index out of bounds\");\n        return EnumerableSet.at(allowedFarmTokenSet, _index);\n    }\n}",
  "sourcePath": "/Users/sam/go/src/github.com/bobo-metaverse/boboswap-contract/contracts/StratMaticSushi.sol",
  "compiler": {
    "name": "solc",
    "version": "0.6.12+commit.27d51765.Emscripten.clang"
  },
  "schemaVersion": "3.3.1",
  "updatedAt": "2021-08-06T01:31:42.437Z",
  "devdoc": {
    "kind": "dev",
    "methods": {
      "owner()": {
        "details": "Returns the address of the current owner."
      },
      "paused()": {
        "details": "Returns true if the contract is paused, and false otherwise."
      },
      "renounceOwnership()": {
        "details": "Leaves the contract without owner. It will not be possible to call `onlyOwner` functions anymore. Can only be called by the current owner. NOTE: Renouncing ownership will leave the contract without an owner, thereby removing any functionality that is only available to the owner."
      },
      "transferOwnership(address)": {
        "details": "Transfers ownership of the contract to a new account (`newOwner`). Can only be called by the current owner."
      }
    },
    "version": 1
  },
  "userdoc": {
    "kind": "user",
    "methods": {},
    "version": 1
  }
}